{
  "_format": "hh-sol-artifact-1",
  "contractName": "Lisbon",
  "sourceName": "lisbon-protocol-contracts/contracts/Lisbon.sol",
  "abi": [
    {
      "inputs": [],
      "stateMutability": "payable",
      "type": "constructor"
    },
    {
      "anonymous": false,
      "inputs": [
        {
          "indexed": false,
          "internalType": "bool",
          "name": "readyToRotate",
          "type": "bool"
        },
        {
          "indexed": false,
          "internalType": "uint256",
          "name": "_vote",
          "type": "uint256"
        },
        {
          "indexed": false,
          "internalType": "address",
          "name": "_rotationThreshold",
          "type": "address"
        }
      ],
      "name": "ParticipantRotationComplete",
      "type": "event"
    },
    {
      "anonymous": false,
      "inputs": [
        {
          "indexed": false,
          "internalType": "address",
          "name": "_userAddress",
          "type": "address"
        },
        {
          "indexed": false,
          "internalType": "uint256",
          "name": "_vote",
          "type": "uint256"
        },
        {
          "indexed": false,
          "internalType": "uint256",
          "name": "_rotationThreshold",
          "type": "uint256"
        }
      ],
      "name": "ParticipantRotationVote",
      "type": "event"
    },
    {
      "anonymous": false,
      "inputs": [
        {
          "indexed": false,
          "internalType": "uint256",
          "name": "vault_id",
          "type": "uint256"
        },
        {
          "indexed": false,
          "internalType": "address",
          "name": "proposedRotateUser",
          "type": "address"
        },
        {
          "indexed": false,
          "internalType": "uint256",
          "name": "userVotes",
          "type": "uint256"
        },
        {
          "indexed": false,
          "internalType": "uint256",
          "name": "addOrRemove",
          "type": "uint256"
        },
        {
          "indexed": false,
          "internalType": "bool",
          "name": "readyToRotate",
          "type": "bool"
        },
        {
          "indexed": false,
          "internalType": "uint256",
          "name": "rotationThreshold",
          "type": "uint256"
        }
      ],
      "name": "RotateUser",
      "type": "event"
    },
    {
      "anonymous": false,
      "inputs": [
        {
          "indexed": false,
          "internalType": "address",
          "name": "_userAddress",
          "type": "address"
        },
        {
          "indexed": false,
          "internalType": "bytes",
          "name": "txData",
          "type": "bytes"
        },
        {
          "indexed": false,
          "internalType": "uint256",
          "name": "count",
          "type": "uint256"
        }
      ],
      "name": "SubmitTransaction",
      "type": "event"
    },
    {
      "anonymous": false,
      "inputs": [
        {
          "indexed": false,
          "internalType": "uint256",
          "name": "threshold",
          "type": "uint256"
        }
      ],
      "name": "ThreshldRotationReached",
      "type": "event"
    },
    {
      "anonymous": false,
      "inputs": [
        {
          "indexed": false,
          "internalType": "uint256",
          "name": "txId",
          "type": "uint256"
        },
        {
          "indexed": false,
          "internalType": "uint256",
          "name": "threshold",
          "type": "uint256"
        }
      ],
      "name": "ThreshldTxReached",
      "type": "event"
    },
    {
      "anonymous": false,
      "inputs": [
        {
          "indexed": false,
          "internalType": "uint256",
          "name": "vaultID",
          "type": "uint256"
        },
        {
          "indexed": false,
          "internalType": "string",
          "name": "_type",
          "type": "string"
        },
        {
          "indexed": false,
          "internalType": "address",
          "name": "thresholdUser",
          "type": "address"
        },
        {
          "indexed": false,
          "internalType": "uint256",
          "name": "thProposed",
          "type": "uint256"
        }
      ],
      "name": "ThresholdVote",
      "type": "event"
    },
    {
      "anonymous": false,
      "inputs": [
        {
          "indexed": false,
          "internalType": "address",
          "name": "_userAddress",
          "type": "address"
        },
        {
          "indexed": false,
          "internalType": "uint256",
          "name": "txId",
          "type": "uint256"
        }
      ],
      "name": "TransactionConfirm",
      "type": "event"
    },
    {
      "anonymous": false,
      "inputs": [
        {
          "indexed": false,
          "internalType": "uint256",
          "name": "txId",
          "type": "uint256"
        }
      ],
      "name": "TransactionSent",
      "type": "event"
    },
    {
      "anonymous": false,
      "inputs": [
        {
          "indexed": false,
          "internalType": "uint256",
          "name": "idVault",
          "type": "uint256"
        },
        {
          "indexed": false,
          "internalType": "address",
          "name": "userProposedToRotate",
          "type": "address"
        },
        {
          "indexed": false,
          "internalType": "bool",
          "name": "canBeRotate",
          "type": "bool"
        }
      ],
      "name": "dataAfterRotation",
      "type": "event"
    },
    {
      "anonymous": false,
      "inputs": [
        {
          "indexed": false,
          "internalType": "uint256",
          "name": "idVault",
          "type": "uint256"
        },
        {
          "indexed": false,
          "internalType": "address",
          "name": "userProposedToRotate",
          "type": "address"
        },
        {
          "indexed": false,
          "internalType": "bool",
          "name": "canBeRotate",
          "type": "bool"
        }
      ],
      "name": "dataBeforeRotation",
      "type": "event"
    },
    {
      "anonymous": false,
      "inputs": [
        {
          "indexed": false,
          "internalType": "uint256",
          "name": "vid",
          "type": "uint256"
        }
      ],
      "name": "idv",
      "type": "event"
    },
    {
      "anonymous": false,
      "inputs": [
        {
          "indexed": false,
          "internalType": "uint256",
          "name": "countapprouve",
          "type": "uint256"
        }
      ],
      "name": "info",
      "type": "event"
    },
    {
      "anonymous": false,
      "inputs": [
        {
          "indexed": false,
          "internalType": "uint256",
          "name": "i",
          "type": "uint256"
        },
        {
          "indexed": false,
          "internalType": "bytes32",
          "name": "b",
          "type": "bytes32"
        },
        {
          "indexed": false,
          "internalType": "string",
          "name": "str",
          "type": "string"
        }
      ],
      "name": "look",
      "type": "event"
    },
    {
      "anonymous": false,
      "inputs": [
        {
          "indexed": false,
          "internalType": "uint256",
          "name": "vaultId",
          "type": "uint256"
        },
        {
          "indexed": false,
          "internalType": "bool",
          "name": "isThresholdCanChange",
          "type": "bool"
        }
      ],
      "name": "thCanChange",
      "type": "event"
    },
    {
      "inputs": [
        {
          "internalType": "uint256",
          "name": "",
          "type": "uint256"
        }
      ],
      "name": "admin",
      "outputs": [
        {
          "internalType": "string",
          "name": "newName",
          "type": "string"
        },
        {
          "internalType": "uint256",
          "name": "newThreshold",
          "type": "uint256"
        },
        {
          "internalType": "uint256",
          "name": "thresholdType",
          "type": "uint256"
        },
        {
          "internalType": "bool",
          "name": "isThresholdCanChange",
          "type": "bool"
        },
        {
          "internalType": "bool",
          "name": "isNameCanChange",
          "type": "bool"
        },
        {
          "internalType": "uint256",
          "name": "AdminThreshold",
          "type": "uint256"
        },
        {
          "internalType": "uint256",
          "name": "thresholdVotes",
          "type": "uint256"
        },
        {
          "internalType": "uint256",
          "name": "nameVotes",
          "type": "uint256"
        }
      ],
      "stateMutability": "view",
      "type": "function"
    },
    {
      "inputs": [
        {
          "internalType": "uint256",
          "name": "_vaultId",
          "type": "uint256"
        },
        {
          "internalType": "address[]",
          "name": "_userAddresses",
          "type": "address[]"
        }
      ],
      "name": "cleanupNameProposal",
      "outputs": [],
      "stateMutability": "nonpayable",
      "type": "function"
    },
    {
      "inputs": [
        {
          "internalType": "uint256",
          "name": "_vaultId",
          "type": "uint256"
        },
        {
          "internalType": "address[]",
          "name": "_userAddresses",
          "type": "address[]"
        }
      ],
      "name": "cleanupRotation",
      "outputs": [],
      "stateMutability": "nonpayable",
      "type": "function"
    },
    {
      "inputs": [
        {
          "internalType": "uint256",
          "name": "_vaultId",
          "type": "uint256"
        },
        {
          "internalType": "address[]",
          "name": "_userAddresses",
          "type": "address[]"
        }
      ],
      "name": "cleanupThresholdProposal",
      "outputs": [],
      "stateMutability": "nonpayable",
      "type": "function"
    },
    {
      "inputs": [
        {
          "internalType": "address[]",
          "name": "_proposedAddresses",
          "type": "address[]"
        },
        {
          "internalType": "string",
          "name": "_vaultName",
          "type": "string"
        },
        {
          "internalType": "uint256[3]",
          "name": "_thresholds",
          "type": "uint256[3]"
        },
        {
          "internalType": "string",
          "name": "_userPublicKeyForEncryption",
          "type": "string"
        },
        {
          "internalType": "string",
          "name": "_encryptionMessage",
          "type": "string"
        }
      ],
      "name": "create",
      "outputs": [],
      "stateMutability": "nonpayable",
      "type": "function"
    },
    {
      "inputs": [
        {
          "internalType": "uint256",
          "name": "",
          "type": "uint256"
        }
      ],
      "name": "createdVaults",
      "outputs": [
        {
          "internalType": "uint256",
          "name": "id",
          "type": "uint256"
        },
        {
          "internalType": "uint256",
          "name": "registered",
          "type": "uint256"
        },
        {
          "internalType": "string",
          "name": "vaultName",
          "type": "string"
        },
        {
          "internalType": "uint256",
          "name": "rotateThreshold",
          "type": "uint256"
        },
        {
          "internalType": "uint256",
          "name": "transactionThreshold",
          "type": "uint256"
        },
        {
          "internalType": "uint256",
          "name": "adminThreshold",
          "type": "uint256"
        },
        {
          "internalType": "string",
          "name": "encryptionMessage",
          "type": "string"
        },
        {
          "internalType": "string",
          "name": "encryptedShares",
          "type": "string"
        },
        {
          "internalType": "bytes",
          "name": "masterPubKey",
          "type": "bytes"
        },
        {
          "internalType": "uint256",
          "name": "createdDate",
          "type": "uint256"
        }
      ],
      "stateMutability": "view",
      "type": "function"
    },
    {
      "inputs": [
        {
          "internalType": "uint256",
          "name": "vaultId",
          "type": "uint256"
        },
        {
          "internalType": "string",
          "name": "_userPublicKeyForEncryption",
          "type": "string"
        },
        {
          "internalType": "string",
          "name": "_userEncryptedShare",
          "type": "string"
        }
      ],
      "name": "doRotation",
      "outputs": [],
      "stateMutability": "nonpayable",
      "type": "function"
    },
    {
      "inputs": [
        {
          "internalType": "uint256",
          "name": "_txId",
          "type": "uint256"
        },
        {
          "internalType": "address[]",
          "name": "registeredUsers",
          "type": "address[]"
        }
      ],
      "name": "gatherSignedShares",
      "outputs": [
        {
          "internalType": "string[]",
          "name": "",
          "type": "string[]"
        },
        {
          "internalType": "string",
          "name": "",
          "type": "string"
        },
        {
          "internalType": "address[]",
          "name": "",
          "type": "address[]"
        }
      ],
      "stateMutability": "view",
      "type": "function"
    },
    {
      "inputs": [
        {
          "internalType": "uint256",
          "name": "_txId",
          "type": "uint256"
        },
        {
          "internalType": "address",
          "name": "userAddress",
          "type": "address"
        }
      ],
      "name": "gatherUserSignedShare",
      "outputs": [
        {
          "internalType": "string",
          "name": "",
          "type": "string"
        }
      ],
      "stateMutability": "view",
      "type": "function"
    },
    {
      "inputs": [
        {
          "internalType": "uint256",
          "name": "_vaultId",
          "type": "uint256"
        },
        {
          "internalType": "address",
          "name": "_voterAddress",
          "type": "address"
        }
      ],
      "name": "getRotationDetails",
      "outputs": [
        {
          "internalType": "address",
          "name": "",
          "type": "address"
        },
        {
          "internalType": "bool",
          "name": "",
          "type": "bool"
        },
        {
          "internalType": "uint256",
          "name": "",
          "type": "uint256"
        },
        {
          "internalType": "bool",
          "name": "",
          "type": "bool"
        },
        {
          "internalType": "uint256",
          "name": "",
          "type": "uint256"
        }
      ],
      "stateMutability": "view",
      "type": "function"
    },
    {
      "inputs": [
        {
          "internalType": "uint256",
          "name": "_vaultId",
          "type": "uint256"
        }
      ],
      "name": "getRotationDetailsForRotate",
      "outputs": [
        {
          "internalType": "address",
          "name": "",
          "type": "address"
        },
        {
          "internalType": "bool",
          "name": "",
          "type": "bool"
        },
        {
          "internalType": "uint256",
          "name": "",
          "type": "uint256"
        }
      ],
      "stateMutability": "nonpayable",
      "type": "function"
    },
    {
      "inputs": [
        {
          "internalType": "uint256",
          "name": "_vaultId",
          "type": "uint256"
        }
      ],
      "name": "getRotationInfo",
      "outputs": [
        {
          "internalType": "address",
          "name": "",
          "type": "address"
        },
        {
          "internalType": "bool",
          "name": "",
          "type": "bool"
        },
        {
          "internalType": "uint256",
          "name": "",
          "type": "uint256"
        },
        {
          "internalType": "bool",
          "name": "",
          "type": "bool"
        },
        {
          "internalType": "uint256",
          "name": "",
          "type": "uint256"
        }
      ],
      "stateMutability": "view",
      "type": "function"
    },
    {
      "inputs": [
        {
          "internalType": "uint256",
          "name": "_vaultId",
          "type": "uint256"
        }
      ],
      "name": "getThresholdStatusForChange",
      "outputs": [
        {
          "internalType": "uint256",
          "name": "",
          "type": "uint256"
        },
        {
          "internalType": "uint256",
          "name": "",
          "type": "uint256"
        },
        {
          "internalType": "bool",
          "name": "",
          "type": "bool"
        },
        {
          "internalType": "uint256",
          "name": "",
          "type": "uint256"
        },
        {
          "internalType": "string",
          "name": "",
          "type": "string"
        },
        {
          "internalType": "uint256",
          "name": "",
          "type": "uint256"
        },
        {
          "internalType": "uint256",
          "name": "",
          "type": "uint256"
        }
      ],
      "stateMutability": "view",
      "type": "function"
    },
    {
      "inputs": [
        {
          "internalType": "uint256",
          "name": "_vaultId",
          "type": "uint256"
        }
      ],
      "name": "getThresholdStatusForVault",
      "outputs": [
        {
          "internalType": "string",
          "name": "",
          "type": "string"
        },
        {
          "internalType": "uint256",
          "name": "",
          "type": "uint256"
        },
        {
          "internalType": "uint256",
          "name": "",
          "type": "uint256"
        },
        {
          "internalType": "bool[2]",
          "name": "",
          "type": "bool[2]"
        },
        {
          "internalType": "bool[2]",
          "name": "",
          "type": "bool[2]"
        },
        {
          "internalType": "uint256[3]",
          "name": "",
          "type": "uint256[3]"
        }
      ],
      "stateMutability": "view",
      "type": "function"
    },
    {
      "inputs": [
        {
          "internalType": "uint256",
          "name": "_txId",
          "type": "uint256"
        },
        {
          "internalType": "address",
          "name": "addr",
          "type": "address"
        }
      ],
      "name": "getTransactionDetails",
      "outputs": [
        {
          "internalType": "string",
          "name": "",
          "type": "string"
        },
        {
          "internalType": "string",
          "name": "",
          "type": "string"
        },
        {
          "internalType": "uint256",
          "name": "",
          "type": "uint256"
        },
        {
          "internalType": "bool",
          "name": "",
          "type": "bool"
        },
        {
          "internalType": "string",
          "name": "",
          "type": "string"
        }
      ],
      "stateMutability": "view",
      "type": "function"
    },
    {
      "inputs": [
        {
          "internalType": "uint256",
          "name": "txId",
          "type": "uint256"
        }
      ],
      "name": "getTransactionInfo",
      "outputs": [
        {
          "internalType": "string",
          "name": "",
          "type": "string"
        },
        {
          "internalType": "string",
          "name": "",
          "type": "string"
        },
        {
          "internalType": "uint256",
          "name": "",
          "type": "uint256"
        },
        {
          "internalType": "bool",
          "name": "",
          "type": "bool"
        },
        {
          "internalType": "string",
          "name": "",
          "type": "string"
        }
      ],
      "stateMutability": "view",
      "type": "function"
    },
    {
      "inputs": [
        {
          "internalType": "uint256",
          "name": "_txId",
          "type": "uint256"
        },
        {
          "internalType": "address",
          "name": "userAddress",
          "type": "address"
        }
      ],
      "name": "getUserSignedShares",
      "outputs": [
        {
          "internalType": "string",
          "name": "",
          "type": "string"
        }
      ],
      "stateMutability": "view",
      "type": "function"
    },
    {
      "inputs": [],
      "name": "getUserVaults",
      "outputs": [
        {
          "internalType": "uint256[]",
          "name": "",
          "type": "uint256[]"
        }
      ],
      "stateMutability": "view",
      "type": "function"
    },
    {
      "inputs": [
        {
          "internalType": "uint256",
          "name": "_vaultId",
          "type": "uint256"
        }
      ],
      "name": "getVaultChangeProposalInfo",
      "outputs": [
        {
          "internalType": "string",
          "name": "",
          "type": "string"
        },
        {
          "internalType": "uint256",
          "name": "",
          "type": "uint256"
        },
        {
          "internalType": "uint256",
          "name": "",
          "type": "uint256"
        },
        {
          "internalType": "bool[2]",
          "name": "",
          "type": "bool[2]"
        },
        {
          "internalType": "bool[2]",
          "name": "",
          "type": "bool[2]"
        },
        {
          "internalType": "uint256[3]",
          "name": "",
          "type": "uint256[3]"
        }
      ],
      "stateMutability": "view",
      "type": "function"
    },
    {
      "inputs": [
        {
          "internalType": "uint256",
          "name": "vaultId",
          "type": "uint256"
        }
      ],
      "name": "getVaultInfo",
      "outputs": [
        {
          "internalType": "string",
          "name": "",
          "type": "string"
        },
        {
          "internalType": "address[]",
          "name": "",
          "type": "address[]"
        },
        {
          "internalType": "uint256[2]",
          "name": "",
          "type": "uint256[2]"
        },
        {
          "internalType": "bytes",
          "name": "",
          "type": "bytes"
        },
        {
          "internalType": "uint256[3]",
          "name": "",
          "type": "uint256[3]"
        },
        {
          "internalType": "uint256",
          "name": "",
          "type": "uint256"
        },
        {
          "internalType": "string",
          "name": "",
          "type": "string"
        }
      ],
      "stateMutability": "view",
      "type": "function"
    },
    {
      "inputs": [
        {
          "internalType": "uint256",
          "name": "_vaultId",
          "type": "uint256"
        }
      ],
      "name": "getVaultTransactions",
      "outputs": [
        {
          "internalType": "uint256[]",
          "name": "",
          "type": "uint256[]"
        }
      ],
      "stateMutability": "view",
      "type": "function"
    },
    {
      "inputs": [
        {
          "internalType": "uint256",
          "name": "vaultId",
          "type": "uint256"
        }
      ],
      "name": "performNameChange",
      "outputs": [],
      "stateMutability": "nonpayable",
      "type": "function"
    },
    {
      "inputs": [
        {
          "internalType": "uint256",
          "name": "vaultId",
          "type": "uint256"
        }
      ],
      "name": "performThresholdChange",
      "outputs": [],
      "stateMutability": "nonpayable",
      "type": "function"
    },
    {
      "inputs": [
        {
          "internalType": "uint256",
          "name": "vaultId",
          "type": "uint256"
        },
        {
          "internalType": "string",
          "name": "newName",
          "type": "string"
        },
        {
          "internalType": "uint256",
          "name": "vaultCurrentThreshold",
          "type": "uint256"
        }
      ],
      "name": "proposeNameChange",
      "outputs": [],
      "stateMutability": "nonpayable",
      "type": "function"
    },
    {
      "inputs": [
        {
          "internalType": "uint256",
          "name": "vaultId",
          "type": "uint256"
        },
        {
          "internalType": "uint256",
          "name": "newThreshold",
          "type": "uint256"
        },
        {
          "internalType": "uint256",
          "name": "thresholdType",
          "type": "uint256"
        },
        {
          "internalType": "uint256",
          "name": "vaultCurrentThreshold",
          "type": "uint256"
        }
      ],
      "name": "proposeThresholdChange",
      "outputs": [],
      "stateMutability": "nonpayable",
      "type": "function"
    },
    {
      "inputs": [
        {
          "internalType": "string",
          "name": "abiEncodedTx",
          "type": "string"
        },
        {
          "internalType": "string",
          "name": "emptyTx",
          "type": "string"
        },
        {
          "internalType": "uint256",
          "name": "vaultId",
          "type": "uint256"
        }
      ],
      "name": "proposeTransaction",
      "outputs": [],
      "stateMutability": "nonpayable",
      "type": "function"
    },
    {
      "inputs": [
        {
          "internalType": "uint256",
          "name": "vaultId",
          "type": "uint256"
        },
        {
          "internalType": "address",
          "name": "addressProposed",
          "type": "address"
        },
        {
          "internalType": "uint256",
          "name": "addOrRemove",
          "type": "uint256"
        },
        {
          "internalType": "uint256",
          "name": "thresholdRotation",
          "type": "uint256"
        }
      ],
      "name": "proposeUserForRotation",
      "outputs": [],
      "stateMutability": "nonpayable",
      "type": "function"
    },
    {
      "inputs": [
        {
          "internalType": "uint256",
          "name": "vaultId",
          "type": "uint256"
        },
        {
          "internalType": "string",
          "name": "_userPublicKeyForEncryption",
          "type": "string"
        }
      ],
      "name": "register",
      "outputs": [],
      "stateMutability": "nonpayable",
      "type": "function"
    },
    {
      "inputs": [
        {
          "internalType": "uint256",
          "name": "_number",
          "type": "uint256"
        }
      ],
      "name": "safeNumber",
      "outputs": [],
      "stateMutability": "pure",
      "type": "function"
    },
    {
      "inputs": [
        {
          "internalType": "uint256",
          "name": "_vaultId",
          "type": "uint256"
        },
        {
          "internalType": "string",
          "name": "_name",
          "type": "string"
        },
        {
          "internalType": "uint256",
          "name": "_adminTH",
          "type": "uint256"
        }
      ],
      "name": "submitNameChangeProposal",
      "outputs": [],
      "stateMutability": "nonpayable",
      "type": "function"
    },
    {
      "inputs": [
        {
          "internalType": "uint256",
          "name": "_vaultId",
          "type": "uint256"
        },
        {
          "internalType": "address",
          "name": "_proposedRotateUser",
          "type": "address"
        },
        {
          "internalType": "uint256",
          "name": "_addOrRemove",
          "type": "uint256"
        },
        {
          "internalType": "uint256",
          "name": "_rotationThreshold",
          "type": "uint256"
        },
        {
          "internalType": "address",
          "name": "proposer",
          "type": "address"
        }
      ],
      "name": "submitRotationProposal",
      "outputs": [],
      "stateMutability": "nonpayable",
      "type": "function"
    },
    {
      "inputs": [
        {
          "internalType": "uint256",
          "name": "_vaultId",
          "type": "uint256"
        },
        {
          "internalType": "uint256",
          "name": "_NewThreshold",
          "type": "uint256"
        },
        {
          "internalType": "uint256",
          "name": "_thTypes",
          "type": "uint256"
        },
        {
          "internalType": "address",
          "name": "_addressproposer",
          "type": "address"
        },
        {
          "internalType": "uint256",
          "name": "_VaultCurrentThreshold",
          "type": "uint256"
        }
      ],
      "name": "submitThresholdChangeProposal",
      "outputs": [],
      "stateMutability": "nonpayable",
      "type": "function"
    },
    {
      "inputs": [
        {
          "internalType": "string",
          "name": "abiEncodedTx",
          "type": "string"
        },
        {
          "internalType": "string",
          "name": "emptyTx",
          "type": "string"
        },
        {
          "internalType": "address",
          "name": "addr",
          "type": "address"
        },
        {
          "internalType": "uint256",
          "name": "_vaultID",
          "type": "uint256"
        }
      ],
      "name": "submitTransaction",
      "outputs": [
        {
          "internalType": "uint256",
          "name": "",
          "type": "uint256"
        }
      ],
      "stateMutability": "nonpayable",
      "type": "function"
    },
    {
      "inputs": [
        {
          "internalType": "uint256",
          "name": "",
          "type": "uint256"
        },
        {
          "internalType": "uint256",
          "name": "",
          "type": "uint256"
        }
      ],
      "name": "transactionsInVault",
      "outputs": [
        {
          "internalType": "uint256",
          "name": "",
          "type": "uint256"
        }
      ],
      "stateMutability": "view",
      "type": "function"
    },
    {
      "inputs": [
        {
          "internalType": "uint256",
          "name": "",
          "type": "uint256"
        }
      ],
      "name": "txApprovedCount",
      "outputs": [
        {
          "internalType": "uint256",
          "name": "",
          "type": "uint256"
        }
      ],
      "stateMutability": "view",
      "type": "function"
    },
    {
      "inputs": [
        {
          "internalType": "uint256",
          "name": "",
          "type": "uint256"
        }
      ],
      "name": "txEmpty",
      "outputs": [
        {
          "internalType": "string",
          "name": "",
          "type": "string"
        }
      ],
      "stateMutability": "view",
      "type": "function"
    },
    {
      "inputs": [
        {
          "internalType": "uint256",
          "name": "",
          "type": "uint256"
        }
      ],
      "name": "txList",
      "outputs": [
        {
          "internalType": "string",
          "name": "",
          "type": "string"
        }
      ],
      "stateMutability": "view",
      "type": "function"
    },
    {
      "inputs": [
        {
          "internalType": "uint256",
          "name": "_txId",
          "type": "uint256"
        }
      ],
      "name": "txReadyToBeSent",
      "outputs": [],
      "stateMutability": "nonpayable",
      "type": "function"
    },
    {
      "inputs": [
        {
          "internalType": "uint256",
          "name": "",
          "type": "uint256"
        }
      ],
      "name": "txSendingPeriod",
      "outputs": [
        {
          "internalType": "uint256",
          "name": "",
          "type": "uint256"
        }
      ],
      "stateMutability": "view",
      "type": "function"
    },
    {
      "inputs": [
        {
          "internalType": "uint256",
          "name": "",
          "type": "uint256"
        }
      ],
      "name": "txSent",
      "outputs": [
        {
          "internalType": "bool",
          "name": "",
          "type": "bool"
        }
      ],
      "stateMutability": "view",
      "type": "function"
    },
    {
      "inputs": [
        {
          "internalType": "uint256",
          "name": "",
          "type": "uint256"
        },
        {
          "internalType": "address",
          "name": "",
          "type": "address"
        }
      ],
      "name": "userApprovedTx",
      "outputs": [
        {
          "internalType": "string",
          "name": "",
          "type": "string"
        }
      ],
      "stateMutability": "view",
      "type": "function"
    },
    {
      "inputs": [
        {
          "internalType": "uint256",
          "name": "vaultId",
          "type": "uint256"
        },
        {
          "internalType": "string[]",
          "name": "encryptedShares",
          "type": "string[]"
        },
        {
          "internalType": "bytes",
          "name": "_masterPubKey",
          "type": "bytes"
        }
      ],
      "name": "userCompleteVault",
      "outputs": [],
      "stateMutability": "nonpayable",
      "type": "function"
    },
    {
      "inputs": [
        {
          "internalType": "uint256",
          "name": "_vaultId",
          "type": "uint256"
        },
        {
          "internalType": "address",
          "name": "_voter",
          "type": "address"
        }
      ],
      "name": "userConfirmRotation",
      "outputs": [],
      "stateMutability": "nonpayable",
      "type": "function"
    },
    {
      "inputs": [
        {
          "internalType": "uint256",
          "name": "_txId",
          "type": "uint256"
        },
        {
          "internalType": "string",
          "name": "_confirmation",
          "type": "string"
        },
        {
          "internalType": "address",
          "name": "addr",
          "type": "address"
        }
      ],
      "name": "userConfirmTransaction",
      "outputs": [],
      "stateMutability": "nonpayable",
      "type": "function"
    },
    {
      "inputs": [
        {
          "internalType": "uint256",
          "name": "txId",
          "type": "uint256"
        },
        {
          "internalType": "string",
          "name": "confirmation",
          "type": "string"
        },
        {
          "internalType": "uint256",
          "name": "vaultId",
          "type": "uint256"
        }
      ],
      "name": "userConfirmTx",
      "outputs": [],
      "stateMutability": "nonpayable",
      "type": "function"
    },
    {
      "inputs": [
        {
          "internalType": "uint256",
          "name": "",
          "type": "uint256"
        },
        {
          "internalType": "address",
          "name": "",
          "type": "address"
        }
      ],
      "name": "userEncryptedShareForVaults",
      "outputs": [
        {
          "internalType": "string",
          "name": "",
          "type": "string"
        }
      ],
      "stateMutability": "view",
      "type": "function"
    },
    {
      "inputs": [
        {
          "internalType": "uint256",
          "name": "",
          "type": "uint256"
        },
        {
          "internalType": "address",
          "name": "",
          "type": "address"
        }
      ],
      "name": "userIsRegistered",
      "outputs": [
        {
          "internalType": "bool",
          "name": "",
          "type": "bool"
        }
      ],
      "stateMutability": "view",
      "type": "function"
    },
    {
      "inputs": [
        {
          "internalType": "uint256",
          "name": "",
          "type": "uint256"
        },
        {
          "internalType": "address",
          "name": "",
          "type": "address"
        }
      ],
      "name": "userPublicKeyForEncryption",
      "outputs": [
        {
          "internalType": "string",
          "name": "",
          "type": "string"
        }
      ],
      "stateMutability": "view",
      "type": "function"
    },
    {
      "inputs": [
        {
          "internalType": "address",
          "name": "",
          "type": "address"
        },
        {
          "internalType": "uint256",
          "name": "",
          "type": "uint256"
        }
      ],
      "name": "userVaults",
      "outputs": [
        {
          "internalType": "uint256",
          "name": "",
          "type": "uint256"
        }
      ],
      "stateMutability": "view",
      "type": "function"
    },
    {
      "inputs": [
        {
          "internalType": "uint256",
          "name": "vaultId",
          "type": "uint256"
        }
      ],
      "name": "userVoteForRotation",
      "outputs": [],
      "stateMutability": "nonpayable",
      "type": "function"
    },
    {
      "inputs": [
        {
          "internalType": "uint256",
          "name": "_vaultId",
          "type": "uint256"
        },
        {
          "internalType": "address",
          "name": "_addressVoter",
          "type": "address"
        }
      ],
      "name": "userVoteOnNameChange",
      "outputs": [],
      "stateMutability": "nonpayable",
      "type": "function"
    },
    {
      "inputs": [
        {
          "internalType": "uint256",
          "name": "_vaultId",
          "type": "uint256"
        },
        {
          "internalType": "address",
          "name": "_addressVoter",
          "type": "address"
        }
      ],
      "name": "userVoteOnThresholdChange",
      "outputs": [],
      "stateMutability": "nonpayable",
      "type": "function"
    },
    {
      "inputs": [
        {
          "internalType": "uint256",
          "name": "vaultId",
          "type": "uint256"
        }
      ],
      "name": "voteOnNameChange",
      "outputs": [],
      "stateMutability": "nonpayable",
      "type": "function"
    },
    {
      "inputs": [
        {
          "internalType": "uint256",
          "name": "vaultId",
          "type": "uint256"
        }
      ],
      "name": "voteOnThresholdChange",
      "outputs": [],
      "stateMutability": "nonpayable",
      "type": "function"
    }
  ],
  "bytecode": "0x60a060408190526001601a55336080526200001a90620000f6565b604051809103906000f08015801562000037573d6000803e3d6000fd5b50601780546001600160a01b0319166001600160a01b0392909216919091179055604051620000669062000104565b604051809103906000f08015801562000083573d6000803e3d6000fd5b50601880546001600160a01b0319166001600160a01b0392909216919091179055604051620000b29062000112565b604051809103906000f080158015620000cf573d6000803e3d6000fd5b50601980546001600160a01b0319166001600160a01b039290921691909117905562000120565b610fd0806200541483390190565b61098680620063e483390190565b6115578062006d6a83390190565b6080516152db62000139600039600050506152db6000f3fe608060405234801561001057600080fd5b50600436106103425760003560e01c806371cff1a6116101b8578063b48e408311610104578063de4329ce116100a2578063efe1ea8b1161007c578063efe1ea8b146108ad578063f026c46b146108c0578063f81ff72e146108d3578063fbb0e472146108e657600080fd5b8063de4329ce14610867578063ea5ff8371461087a578063edb05e8f1461088d57600080fd5b8063caa65275116100de578063caa6527514610807578063d0a7325f1461081a578063d599a1c61461082d578063d7aa82731461085457600080fd5b8063b48e4083146107bd578063b8d61d4a146107e1578063c8691789146107f457600080fd5b80639a91be3c11610171578063a00fd3c81161014b578063a00fd3c814610769578063ad362a851461077c578063b1ba96201461078f578063b2e1a351146107b557600080fd5b80639a91be3c146107305780639c841fef146107435780639f29a4aa1461075657600080fd5b806371cff1a61461068c57806372d721901461069f5780637a00a91d146106d75780637ade3d77146106f75780637f7baf5f1461070a578063801fc46e1461071d57600080fd5b8063418b32871161029257806353c2699311610230578063573dd1991161020a578063573dd1991461061b57806367d157ac1461062e5780636870ea1c14610641578063719beada1461066357600080fd5b806353c26993146105e257806355eac673146105f557806357130d791461060857600080fd5b80634c88c93d1161026c5780634c88c93d1461057b5780634d9ba0d71461059b5780634d9c4f38146105bc5780635327d79d146105cf57600080fd5b8063418b32871461053057806342a92427146105435780634bb30bdf1461056857600080fd5b80631e463f4e116102ff57806326253f82116102d957806326253f82146104e457806337ffe4aa146104f75780633c5b2e101461050a5780633c7312411461051d57600080fd5b80631e463f4e1461040f5780631f3e9a5d146104325780631f6107851461044557600080fd5b80630ee9ec7e14610347578063131d61561461037057806317586d4f146103ae578063186a588f146103c3578063188107b6146103e9578063190539ab146103fc575b600080fd5b61035a610355366004613e4d565b6108f9565b6040516103679190613eb6565b60405180910390f35b61039e61037e366004613ede565b601c60209081526000928352604080842090915290825290205460ff1681565b6040519015158152602001610367565b6103c16103bc366004613e4d565b610993565b005b6103d66103d1366004613e4d565b610a37565b6040516103679796959493929190613f0e565b6103c16103f7366004613e4d565b610b26565b61035a61040a366004613ede565b610cc5565b61039e61041d366004613e4d565b60046020526000908152604090205460ff1681565b6103c1610440366004614056565b610ce9565b6104b0610453366004613ede565b60008281526007602081815260408084206001810154600582015460038301546001600160a01b03988916885260088652848820998852988552929095205493909252600290910154939092169460ff9283169493929091169190565b604080516001600160a01b03909616865293151560208601529284019190915215156060830152608082015260a001610367565b6103c16104f2366004613ede565b610daa565b6103c161050536600461409c565b610fe5565b6103c16105183660046140f2565b6111d6565b61035a61052b366004613ede565b611352565b6103c161053e366004613e4d565b611376565b610556610551366004613e4d565b6113ba565b60405161036796959493929190614183565b6103c16105763660046141d8565b61161f565b61058e610589366004613e4d565b61169f565b6040516103679190614215565b6105ae6105a93660046142d1565b6116ff565b604051908152602001610367565b61035a6105ca366004613ede565b611788565b61035a6105dd366004613e4d565b611840565b6103c16105f0366004613e4d565b611859565b6103c1610603366004613e4d565b6118ba565b6103c161061636600461434e565b611ab2565b6103c1610629366004614056565b611caf565b6103c161063c3660046143ba565b611d50565b61065461064f366004614056565b611dee565b6040516103679392919061444d565b610676610671366004613e4d565b61200d565b6040516103679a999897969594939291906144d8565b6103c161069a366004613e4d565b61227a565b6106b26106ad366004613e4d565b612370565b604080516001600160a01b039094168452911515602084015290820152606001610367565b6105ae6106e5366004613e4d565b60056020526000908152604090205481565b6103c16107053660046143ba565b61245d565b6103c1610718366004614560565b6124c2565b6103c161072b3660046145bb565b612596565b6104b061073e366004613e4d565b6125ec565b6105ae610751366004614615565b61267a565b6103c1610764366004614641565b6126ab565b6103c1610777366004614715565b6127fb565b6103c161078a366004613ede565b612903565b6107a261079d366004613e4d565b612a5d565b6040516103679796959493929190614751565b61058e612aa3565b6107d06107cb366004613ede565b612b04565b6040516103679594939291906147ee565b6103c16107ef366004614841565b612d14565b6105ae610802366004614938565b612f18565b61035a610815366004613ede565b612f33565b61035a610828366004613ede565b612f57565b61084061083b366004613e4d565b612fd8565b60405161036798979695949392919061495a565b6107d0610862366004613e4d565b6130aa565b610556610875366004613e4d565b61312b565b6103c1610888366004613ede565b6131cd565b6105ae61089b366004613e4d565b60026020526000908152604090205481565b6103c16108bb3660046149a5565b613396565b6103c16108ce366004613e4d565b613448565b6103c16108e1366004614056565b61347f565b6103c16108f43660046143ba565b61357f565b60006020819052908152604090208054610912906149d7565b80601f016020809104026020016040519081016040528092919081815260200182805461093e906149d7565b801561098b5780601f106109605761010080835404028352916020019161098b565b820191906000526020600020905b81548152906001019060200180831161096e57829003601f168201915b505050505081565b336000908152601b602052604081205482919081036109cd5760405162461bcd60e51b81526004016109c490614a11565b60405180910390fd5b60185460405163ea5ff83760e01b8152600481018590523360248201526001600160a01b039091169063ea5ff837906044015b600060405180830381600087803b158015610a1a57600080fd5b505af1158015610a2e573d6000803e3d6000fd5b50505050505050565b6000818152600b602052604081206001810154600282015460038301546005840154600685015460048601548654889788978897606097899788979396929560ff909216949093909290918390610a8d906149d7565b80601f0160208091040260200160405190810160405280929190818152602001828054610ab9906149d7565b8015610b065780601f10610adb57610100808354040283529160200191610b06565b820191906000526020600020905b815481529060010190602001808311610ae957829003601f168201915b505050505092509650965096509650965096509650919395979092949650565b336000908152601b60205260408120548291908103610b575760405162461bcd60e51b81526004016109c490614a11565b60195460405163186a588f60e01b815260048101859052600091829182918291606091839182916001600160a01b03169063186a588f90602401600060405180830381865afa158015610bae573d6000803e3d6000fd5b505050506040513d6000823e601f3d908101601f19168201604052610bd69190810190614aaa565b959c50939a50919850965094509250905080821015610c2c5760405162461bcd60e51b81526020600482015260126024820152711d9bdd195cc81b9bdd081c9958d95a5d995960721b60448201526064016109c4565b60008a8152601f60205260409020610c449084613626565b60195460008b8152601f6020526040908190209051631f3e9a5d60e01b81526001600160a01b0390921691631f3e9a5d91610c87918e9160020190600401614b27565b600060405180830381600087803b158015610ca157600080fd5b505af1158015610cb5573d6000803e3d6000fd5b5050505050505050505050505050565b601e60209081526000928352604080842090915290825290208054610912906149d7565b60408051602080820183526000808352858152600b9091529190912090610d109082614bc9565b506000828152600b6020526040812060068101829055600301805461ff00191690555b8151811015610da557600060096000848481518110610d5457610d54614c88565b6020908102919091018101516001600160a01b0316825281810192909252604090810160009081208782529092529020805460ff191691151591909117905580610d9d81614cb4565b915050610d33565b505050565b6001600160a01b0381166000908152600a602090815260408083208584529091529020548290829060ff1615610df25760405162461bcd60e51b81526004016109c490614ccd565b6000848152600b6020526040902060030154849060ff1615610e465760405162461bcd60e51b815260206004820152600d60248201526c566f746520636f6d706c65746560981b60448201526064016109c4565b6000858152600b60205260408120600501805460019290610e68908490614cfb565b90915550506000858152600b60205260409020600481015460059091015410610ee3576000858152600b6020908152604091829020600301805460ff191660019081179091558251888152918201527fc4b52bf16c1a17ac84bd52e15d23acaede74bc2c754a086a267c217538d52f5b910160405180910390a15b6000858152600b6020526040902060020154600103610f3c576000858152600b60205260409081902060010154905160008051602061528683398151915291610f2f9188918891614d0e565b60405180910390a1610fde565b6000858152600b602052604090206002908101549003610f89576000858152600b60205260409081902060010154905160008051602061528683398151915291610f2f9188918891614d4d565b6000858152600b6020526040902060020154600303610fde576000858152600b60205260409081902060010154905160008051602061528683398151915291610fd59188918891614d86565b60405180910390a15b5050505050565b8381816001600160a01b0316816001600160a01b0316036110405760405162461bcd60e51b815260206004820152601560248201527421b0b713ba103937ba30ba32903cb7bab939b2b63360591b60448201526064016109c4565b600087815260076020526040902060020154156110975760405162461bcd60e51b81526020600482015260156024820152741c9bdd185d1a5bdb881b9bdd08199a5b9a5cda1959605a1b60448201526064016109c4565b6040518060c00160405280888152602001876001600160a01b031681526020016000815260200186815260200185815260200160001515815250600760008981526020019081526020016000206000820151816000015560208201518160010160006101000a8154816001600160a01b0302191690836001600160a01b0316021790555060408201518160020155606082015181600301556080820151816004015560a08201518160050160006101000a81548160ff0219169083151502179055509050507f328022c95b760c9add71b60c3a5f101df74043f359a63e4e5d129951894b476887876001886000896040516111c5969594939291909586526001600160a01b03949094166020860152604085019290925260608401521515608083015260a082015260c00190565b60405180910390a150505050505050565b6000858152600b6020908152604091829020600581015492517f2b4535d29857cb929f520393be14302b91bf82f639e18112a3ee058a38e99942939261121d929101614dc2565b60408051601f19818403018152828252805160209182012060008b8152600b90925291902061124c9392614e38565b60405180910390a16000858152600b6020526040902060050154156112b35760405162461bcd60e51b815260206004820152601a60248201527f5468726573686f6c6420616c72656164792070726f706f73656400000000000060448201526064016109c4565b6000858152600b60205260409020600180820186905560028201859055600490910182905583900361130057600080516020615286833981519152858386604051610f2f93929190614d0e565b8260020361132957600080516020615286833981519152858386604051610f2f93929190614d4d565b82600303610fde57600080516020615286833981519152858386604051610fd593929190614d86565b600360209081526000928352604080842090915290825290208054610912906149d7565b606481106113b75760405162461bcd60e51b815260206004820152600e60248201526d1b9d5b58995c881a5b9d985b1a5960921b60448201526064016109c4565b50565b60606000806113c7613d97565b6113cf613d97565b6113d7613db5565b600b6000888152602001908152602001600020600001600b600089815260200190815260200160002060010154600b60008a8152602001908152602001600020600201546040518060400160405280600b60008d815260200190815260200160002060030160009054906101000a900460ff16151515158152602001600b60008d815260200190815260200160002060030160019054906101000a900460ff16151515158152506040518060400160405280600a6000336001600160a01b03166001600160a01b0316815260200190815260200160002060008e815260200190815260200160002060009054906101000a900460ff1615151515815260200160096000336001600160a01b03166001600160a01b0316815260200190815260200160002060008e815260200190815260200160002060009054906101000a900460ff16151515158152506040518060600160405280600b60008f8152602001908152602001600020600501548152602001600b60008f8152602001908152602001600020600601548152602001600b60008f81526020019081526020016000206004015481525085805461158a906149d7565b80601f01602080910402602001604051908101604052809291908181526020018280546115b6906149d7565b80156116035780601f106115d857610100808354040283529160200191611603565b820191906000526020600020905b8154815290600101906020018083116115e657829003601f168201915b5050505050955095509550955095509550955091939550919395565b601854604051631bfff25560e11b8152600481018690526001600160a01b0385811660248301526044820185905260648201849052336084830152909116906337ffe4aa9060a401600060405180830381600087803b15801561168157600080fd5b505af1158015611695573d6000803e3d6000fd5b5050505050505050565b600081815260208080526040918290208054835181840281018401909452808452606093928301828280156116f357602002820191906000526020600020905b8154815260200190600101908083116116df575b50505050509050919050565b600654600090815260208190526040812061171a8682614bc9565b5060065460009081526001602052604090206117368582614bc9565b506117444262278d00614cfb565b6006805460009081526005602052604081209290925580546001929061176b908490614cfb565b909155505060065461177f90600190614ed2565b95945050505050565b60008281526003602090815260408083206001600160a01b038516845290915290208054606091906117b9906149d7565b80601f01602080910402602001604051908101604052809291908181526020018280546117e5906149d7565b80156118325780601f1061180757610100808354040283529160200191611832565b820191906000526020600020905b81548152906001019060200180831161181557829003601f168201915b505050505090505b92915050565b60016020526000908152604090208054610912906149d7565b60195460405163ad362a8560e01b8152600481018390523360248201526001600160a01b039091169063ad362a85906044015b600060405180830381600087803b1580156118a657600080fd5b505af1158015610fde573d6000803e3d6000fd5b336000908152601b602052604081205482919081036118eb5760405162461bcd60e51b81526004016109c490614a11565b6000838152601f602052604080822060010154601954915163186a588f60e01b8152600481018790528392839283926060928492839290916001600160a01b03169063186a588f90602401600060405180830381865afa158015611953573d6000803e3d6000fd5b505050506040513d6000823e601f3d908101601f1916820160405261197b9190810190614aaa565b959d50939b509199509750955093509150818510156119d15760405162461bcd60e51b81526020600482015260126024820152711d9bdd195cc81b9bdd081c9958d95a5d995960721b60448201526064016109c4565b866001036119f25760008b8152601f60205260409020600401889055611a30565b86600203611a135760008b8152601f60205260409020600501889055611a30565b86600303611a305760008b8152601f602052604090206006018890555b60195460008c8152601f602052604090819020905163573dd19960e01b81526001600160a01b039092169163573dd19991611a73918f9160020190600401614b27565b600060405180830381600087803b158015611a8d57600080fd5b505af1158015611aa1573d6000803e3d6000fd5b505050505050505050505050505050565b336000908152601b60205260408120548491908103611ae35760405162461bcd60e51b81526004016109c490614a11565b60185460405163072d721960e41b815260048101879052600091829182916001600160a01b0316906372d72190906024016060604051808303816000875af1158015611b33573d6000803e3d6000fd5b505050506040513d601f19601f82011682018060405250810190611b579190614ee5565b91945092509050811515600003611ba65760405162461bcd60e51b81526020600482015260136024820152724e6f7420726561647920746f20726f7461746560681b60448201526064016109c4565b80600103611c2e57611c298787858b601f60008e8152602001908152602001600020600201805480602002602001604051908101604052809291908181526020018280548015611c1f57602002820191906000526020600020905b81546001600160a01b03168152600190910190602001808311611c01575b5050505050613634565b611695565b80600203611695576116958389601f60008c8152602001908152602001600020600201805480602002602001604051908101604052809291908181526020018280548015611ca557602002820191906000526020600020905b81546001600160a01b03168152600190910190602001808311611c87575b505050505061371d565b6000828152600b602052604081206005810182905560038101805460ff19169055600181018290556002018190555b8151811015610da5576000600a6000848481518110611cff57611cff614c88565b6020908102919091018101516001600160a01b0316825281810192909252604090810160009081208782529092529020805460ff191691151591909117905580611d4881614cb4565b915050611cde565b336000908152601b60205260408120548491908103611d815760405162461bcd60e51b81526004016109c490614a11565b601954604051637dd8723960e11b81526001600160a01b039091169063fbb0e47290611db590889088908890600401614f23565b600060405180830381600087803b158015611dcf57600080fd5b505af1158015611de3573d6000803e3d6000fd5b505050505050505050565b60608060606000845190506000816001600160401b03811115611e1357611e13613f51565b604051908082528060200260200182016040528015611e4657816020015b6060815260200190600190039081611e315790505b50905060005b82811015611f5c57600360008981526020019081526020016000206000888381518110611e7b57611e7b614c88565b60200260200101516001600160a01b03166001600160a01b031681526020019081526020016000208054611eae906149d7565b80601f0160208091040260200160405190810160405280929190818152602001828054611eda906149d7565b8015611f275780601f10611efc57610100808354040283529160200191611f27565b820191906000526020600020905b815481529060010190602001808311611f0a57829003601f168201915b5050505050828281518110611f3e57611f3e614c88565b60200260200101819052508080611f5490614cb4565b915050611e4c565b50806001600089815260200190815260200160002087818054611f7e906149d7565b80601f0160208091040260200160405190810160405280929190818152602001828054611faa906149d7565b8015611ff75780601f10611fcc57610100808354040283529160200191611ff7565b820191906000526020600020905b815481529060010190602001808311611fda57829003601f168201915b5050505050915094509450945050509250925092565b601f6020526000908152604090208054600182015460038301805492939192612035906149d7565b80601f0160208091040260200160405190810160405280929190818152602001828054612061906149d7565b80156120ae5780601f10612083576101008083540402835291602001916120ae565b820191906000526020600020905b81548152906001019060200180831161209157829003601f168201915b5050505050908060040154908060050154908060060154908060070180546120d5906149d7565b80601f0160208091040260200160405190810160405280929190818152602001828054612101906149d7565b801561214e5780601f106121235761010080835404028352916020019161214e565b820191906000526020600020905b81548152906001019060200180831161213157829003601f168201915b505050505090806008018054612163906149d7565b80601f016020809104026020016040519081016040528092919081815260200182805461218f906149d7565b80156121dc5780601f106121b1576101008083540402835291602001916121dc565b820191906000526020600020905b8154815290600101906020018083116121bf57829003601f168201915b5050505050908060090180546121f1906149d7565b80601f016020809104026020016040519081016040528092919081815260200182805461221d906149d7565b801561226a5780601f1061223f5761010080835404028352916020019161226a565b820191906000526020600020905b81548152906001019060200180831161224d57829003601f168201915b50505050509080600a015490508a565b806006548111156122c15760405162461bcd60e51b81526020600482015260116024820152701d1e08191bd95cc81b9bdd08195e1a5cdd607a1b60448201526064016109c4565b600082815260046020526040902054829060ff16156123185760405162461bcd60e51b8152602060048201526013602482015272151e08185b1c9958591e48195e1958dd5d1959606a1b60448201526064016109c4565b60008381526004602052604090819020805460ff19166001179055517f6bc215631c1b4565ed4fa511379166f2e7cc55eab9dce0690f0e3979d2a0674e906123639085815260200190565b60405180910390a1505050565b6000818152600760209081526040808320600181015460059091015482518681526001600160a01b039092169382019390935260ff90921615158282015251829182917fe2554cba0c2467925c27e5ed5d34c6f5da38c1defebf33f069e0ef16fb8446fa9181900360600190a16000848152600760209081526040918290206001810154600582015460039092015484518981526001600160a01b0390921693820184905260ff9092168015158286015293519293927fe9ba3515108fc2182b43126038b4d0facad1ef7388e0d6962eddf2f70e3a97779181900360600190a19196909550909350915050565b336000908152601b6020526040812054829190810361248e5760405162461bcd60e51b81526004016109c490614a11565b60175460405163400fe23760e11b81526001600160a01b039091169063801fc46e90611db590889088903390600401614f4c565b336000908152601b602052604081205482919081036124f35760405162461bcd60e51b81526004016109c490614a11565b601754604051634d9ba0d760e01b81526000916001600160a01b031690634d9ba0d79061252a908990899033908a90600401614f7d565b6020604051808303816000875af1158015612549573d6000803e3d6000fd5b505050506040513d601f19601f8201168201806040525081019061256d9190614fbf565b600094855260208080526040862080546001810182559087529520909401939093555050505050565b60008381526002602052604081208054600192906125b5908490614cfb565b909155505060008381526003602090815260408083206001600160a01b038516845290915290206125e68382614bc9565b50505050565b601854604051631f61078560e01b81526004810183905233602482015260009182918291829182916001600160a01b031690631f6107859060440160a060405180830381865afa158015612644573d6000803e3d6000fd5b505050506040513d601f19601f820116820180604052508101906126689190614fd8565b939a9299509097509550909350915050565b601b602052816000526040600020818154811061269657600080fd5b90600052602060002001600091509150505481565b336000908152601b602052604081205484919081036126dc5760405162461bcd60e51b81526004016109c490614a11565b6000858152601f602090815260408083206002018054825181850281018501909352808352919290919083018282801561273f57602002820191906000526020600020905b81546001600160a01b03168152600190910190602001808311612721575b5050505050905060005b81518110156127da5785818151811061276457612764614c88565b6020026020010151601e6000898152602001908152602001600020600084848151811061279357612793614c88565b60200260200101516001600160a01b03166001600160a01b0316815260200190815260200160002090816127c79190614bc9565b50806127d281614cb4565b915050612749565b506000868152601f602052604090206127f39085613789565b505050505050565b336000908152601b6020526040812054839190810361282c5760405162461bcd60e51b81526004016109c490614a11565b6000848152601f60205260409020600a0154429061284d9062127500614cfb565b10156128a95760405162461bcd60e51b815260206004820152602560248201527f726567697374726174696f6e20666f722074686973207661756c7420697320636044820152641b1bdcd95960da1b60648201526084016109c4565b6000848152601c6020908152604080832033808552908352818420805460ff19166001179055878452601d835281842090845290915290206128eb8482614bc9565b506000848152601f602052604090206125e6906137c3565b6001600160a01b03811660009081526009602090815260408083208584529091529020548290829060ff161561294b5760405162461bcd60e51b81526004016109c490614ccd565b6000848152600b60205260409020600301548490610100900460ff16156129a45760405162461bcd60e51b815260206004820152600d60248201526c566f746520636f6d706c65746560981b60448201526064016109c4565b6000858152600b602052604081206006018054600192906129c6908490614cfb565b90915550506000858152600b60205260409020600481015460069091015410612a08576000858152600b60205260409020600301805461ff0019166101001790555b6000858152600b602090815260409182902060030154825188815261010090910460ff161515918101919091527fc4b52bf16c1a17ac84bd52e15d23acaede74bc2c754a086a267c217538d52f5b9101610fd5565b606080612a68613d97565b6060612a72613db5565b6000868152601f60205260408120606090612a8c9061389a565b959e949d50929b5090995097509550909350915050565b336000908152601b6020908152604091829020805483518184028101840190945280845260609392830182828015612afa57602002820191906000526020600020905b815481526020019060010190808311612ae6575b5050505050905090565b600082815260208181526040808320600383528184206001600160a01b038616855283528184208685526002845282852054600485528386205460019095529285208254606096879690958695889590949093919260ff16918590612b68906149d7565b80601f0160208091040260200160405190810160405280929190818152602001828054612b94906149d7565b8015612be15780601f10612bb657610100808354040283529160200191612be1565b820191906000526020600020905b815481529060010190602001808311612bc457829003601f168201915b50505050509450838054612bf4906149d7565b80601f0160208091040260200160405190810160405280929190818152602001828054612c20906149d7565b8015612c6d5780601f10612c4257610100808354040283529160200191612c6d565b820191906000526020600020905b815481529060010190602001808311612c5057829003601f168201915b50505050509350808054612c80906149d7565b80601f0160208091040260200160405190810160405280929190818152602001828054612cac906149d7565b8015612cf95780601f10612cce57610100808354040283529160200191612cf9565b820191906000526020600020905b815481529060010190602001808311612cdc57829003601f168201915b50505050509050945094509450945094509295509295909350565b612d258360005b6020020151611376565b612d30836001612d1b565b612d3b836002612d1b565b6040516bffffffffffffffffffffffff193360601b166020820152426034820152620186a0906054016040516020818303038152906040528051906020012060001c612d879190615031565b600c8190556000818152601f60205260409020612da8918790878786613b25565b60005b8551811015612e835760006001600160a01b0316868281518110612dd157612dd1614c88565b60200260200101516001600160a01b031603612e215760405162461bcd60e51b815260206004820152600f60248201526e696e76616c6964206164647265737360881b60448201526064016109c4565b601b6000878381518110612e3757612e37614c88565b6020908102919091018101516001600160a01b03168252818101929092526040016000908120600c54815460018101835591835292909120015580612e7b81614cb4565b915050612dab565b50600c546000908152601d602090815260408083203384529091529020612eaa8382614bc9565b50336001600160a01b031685600081518110612ec857612ec8614c88565b60200260200101516001600160a01b031603610fde57600c80546000908152601c602090815260408083203384528252808320805460ff1916600117905592548252601f905220610fde906137c3565b60208052816000526040600020818154811061269657600080fd5b601d60209081526000928352604080842090915290825290208054610912906149d7565b6017546040516309b389e760e31b8152600481018490526001600160a01b0383811660248301526060921690634d9c4f3890604401600060405180830381865afa158015612fa9573d6000803e3d6000fd5b505050506040513d6000823e601f3d908101601f19168201604052612fd19190810190615053565b9392505050565b600b60205260009081526040902080548190612ff3906149d7565b80601f016020809104026020016040519081016040528092919081815260200182805461301f906149d7565b801561306c5780601f106130415761010080835404028352916020019161306c565b820191906000526020600020905b81548152906001019060200180831161304f57829003601f168201915b50505050600183015460028401546003850154600486015460058701546006909701549596939592945060ff80831694610100909304169290919088565b60175460405163b48e408360e01b8152600481018390523360248201526060918291600091829184916001600160a01b03169063b48e408390604401600060405180830381865afa158015613103573d6000803e3d6000fd5b505050506040513d6000823e601f3d908101601f191682016040526126689190810190615087565b6060600080613138613d97565b613140613d97565b613148613db5565b6019546040516342a9242760e01b8152600481018990526001600160a01b03909116906342a9242790602401600060405180830381865afa158015613191573d6000803e3d6000fd5b505050506040513d6000823e601f3d908101601f191682016040526131b99190810190615192565b949c939b5091995097509550909350915050565b6001600160a01b03811660009081526008602090815260408083208584529091529020548290829060ff16156132155760405162461bcd60e51b81526004016109c490614ccd565b6000848152600760205260408120600201805460019290613237908490614cfb565b90915550506001600160a01b03831660008181526008602090815260408083208884528252808320805460ff1916600117905560078252918290206002810154600490910154835194855291840152908201527f8a953283c2bee8b290e1d957b1192f331b7dc4fc2ffacac907d3860a509062589060600160405180910390a160008481526007602052604090206004810154600290910154106125e6576000848152600760209081526040918290206004015491519182527f15e64b8a4935dbaf73679819f11e878a055b60b65efddd0bfa2cba4565d9e974910160405180910390a1600084815260076020908152604091829020600581018054600160ff1990911681179091556003820154918101548451918252928101919091526001600160a01b039091168183015290517f801f1675cc5ae3c99d6bf0a0996ab89415f9295fc7a8646cd7293423382dae6d9181900360600190a150505050565b336000908152601b602052604081205485919081036133c75760405162461bcd60e51b81526004016109c490614a11565b6019546040516303c5b2e160e41b8152600481018890526024810187905260448101869052336064820152608481018590526001600160a01b0390911690633c5b2e109060a401600060405180830381600087803b15801561342857600080fd5b505af115801561343c573d6000803e3d6000fd5b50505050505050505050565b6019546040516313129fc160e11b8152600481018390523360248201526001600160a01b03909116906326253f829060440161188c565b6040805160c08101825283815260006020808301828152838501838152606085018481526080860185815260a087018681528a875260079095529685209551865591516001860180546001600160a01b0319166001600160a01b039092169190911790555160028501555160038401559251600483015591516005909101805460ff19169115159190911790555b8151811015610da55760006008600084848151811061352e5761352e614c88565b6020908102919091018101516001600160a01b0316825281810192909252604090810160009081208782529092529020805460ff19169115159190911790558061357781614cb4565b91505061350d565b604080516000808252602080830180855283519020878352600b9091529083902090926135ac9201614dc2565b60405160208183030381529060405280519060200120146136075760405162461bcd60e51b81526020600482015260156024820152741b985b5948185b1c9958591e481c1c9bdc1bdcd959605a1b60448201526064016109c4565b6000838152600b60205260409020600481018290556125e68382614bc9565b60038201610da58282614bc9565b6001600160a01b0383166000818152601b6020908152604080832080546001818101835591855283852001879055868452601c8352818420948452938252808320805460ff19169055858352601f90915290206136919185613bcd565b6000828152601d602090815260408083206001600160a01b038716845290915290206136bd8682614bc9565b506000828152601e602090815260408083206001600160a01b038716845290915290206136ea8582614bc9565b50601854604051637c0ffb9760e11b81526001600160a01b039091169063f81ff72e90611db59085908590600401615256565b6000828152601f602052604081206137359185613bcd565b6000828152601c602090815260408083206001600160a01b038088168552925291829020805460ff191690556018549151637c0ffb9760e11b815291169063f81ff72e90610a009085908590600401615256565b60018201546002830154036137bf5760048260090180546137a9906149d7565b905010156137bf5760098201610da58282614bc9565b5050565b600181015460028201540361381a5760405162461bcd60e51b815260206004820152601b60248201527f5661756c7420726567697374726174696f6e20636f6d706c657465000000000060448201526064016109c4565b600181600101600082825461382f9190614cfb565b909155505060018101546002820154600091900361384b575060015b6002820154600183015460408051928352602083019190915282151582820152517f94d636ad12bec326be3c36f637c0ebd430bede78bc754d560d1501c4c96c186f9181900360600190a15050565b6060806138a5613d97565b60606138af613db5565b60006060876003018860020160405180604001604052808b6000015481526020018b600a01548152508a60090160405180606001604052808d6005015481526020018d6006015481526020018d600401548152508c600101548d600701868054613918906149d7565b80601f0160208091040260200160405190810160405280929190818152602001828054613944906149d7565b80156139915780601f1061396657610100808354040283529160200191613991565b820191906000526020600020905b81548152906001019060200180831161397457829003601f168201915b50505050509650858054806020026020016040519081016040528092919081815260200182805480156139ed57602002820191906000526020600020905b81546001600160a01b031681526001909101906020018083116139cf575b50505050509550838054613a00906149d7565b80601f0160208091040260200160405190810160405280929190818152602001828054613a2c906149d7565b8015613a795780601f10613a4e57610100808354040283529160200191613a79565b820191906000526020600020905b815481529060010190602001808311613a5c57829003601f168201915b50505050509350808054613a8c906149d7565b80601f0160208091040260200160405190810160405280929190818152602001828054613ab8906149d7565b8015613b055780601f10613ada57610100808354040283529160200191613b05565b820191906000526020600020905b815481529060010190602001808311613ae857829003601f168201915b505050505090509650965096509650965096509650919395979092949650565b8451600003613b765760405162461bcd60e51b815260206004820152601860248201527f3e2031207061727469636970616e74207265717569726564000000000000000060448201526064016109c4565b83865560038601613b878482614bc9565b508451613b9d9060028801906020880190613dd3565b5042600a87015581516004870155602082015160058701556040820151600687015560078601610a2e8282614bc9565b81600103613c0c57600283018054600181018255600091825260209091200180546001600160a01b0383166001600160a01b0319909116179055505050565b81600003610da55760005b60028401548110156125e657816001600160a01b0316846002018281548110613c4257613c42614c88565b6000918252602090912001546001600160a01b031603613d3557600284018054613c6e90600190614ed2565b81548110613c7e57613c7e614c88565b6000918252602090912001546002850180546001600160a01b039092169183908110613cac57613cac614c88565b9060005260206000200160006101000a8154816001600160a01b0302191690836001600160a01b0316021790555083600201805480613ced57613ced61526f565b6001900381819060005260206000200160006101000a8154906001600160a01b03021916905590556001846001016000828254613d2a9190614ed2565b909155506125e69050565b6002840154613d4690600190614ed2565b8103613d855760405162461bcd60e51b815260206004820152600e60248201526d155cd95c881b9bdd08199bdd5b9960921b60448201526064016109c4565b80613d8f81614cb4565b915050613c17565b60405180604001604052806002906020820280368337509192915050565b60405180606001604052806003906020820280368337509192915050565b828054828255906000526020600020908101928215613e28579160200282015b82811115613e2857825182546001600160a01b0319166001600160a01b03909116178255602090920191600190910190613df3565b50613e34929150613e38565b5090565b5b80821115613e345760008155600101613e39565b600060208284031215613e5f57600080fd5b5035919050565b60005b83811015613e81578181015183820152602001613e69565b50506000910152565b60008151808452613ea2816020860160208601613e66565b601f01601f19169290920160200192915050565b602081526000612fd16020830184613e8a565b6001600160a01b03811681146113b757600080fd5b60008060408385031215613ef157600080fd5b823591506020830135613f0381613ec9565b809150509250929050565b878152866020820152851515604082015284606082015260e060808201526000613f3b60e0830186613e8a565b60a08301949094525060c0015295945050505050565b634e487b7160e01b600052604160045260246000fd5b604051606081016001600160401b0381118282101715613f8957613f89613f51565b60405290565b604051601f8201601f191681016001600160401b0381118282101715613fb757613fb7613f51565b604052919050565b60006001600160401b03821115613fd857613fd8613f51565b5060051b60200190565b600082601f830112613ff357600080fd5b8135602061400861400383613fbf565b613f8f565b82815260059290921b8401810191818101908684111561402757600080fd5b8286015b8481101561404b57803561403e81613ec9565b835291830191830161402b565b509695505050505050565b6000806040838503121561406957600080fd5b8235915060208301356001600160401b0381111561408657600080fd5b61409285828601613fe2565b9150509250929050565b600080600080600060a086880312156140b457600080fd5b8535945060208601356140c681613ec9565b9350604086013592506060860135915060808601356140e481613ec9565b809150509295509295909350565b600080600080600060a0868803121561410a57600080fd5b853594506020860135935060408601359250606086013561412a81613ec9565b949793965091946080013592915050565b8060005b60028110156125e6578151151584526020938401939091019060010161413f565b8060005b60038110156125e6578151845260209384019390910190600101614164565b60006101408083526141978184018a613e8a565b9150508660208301528560408301526141b3606083018661413b565b6141c060a083018561413b565b6141cd60e0830184614160565b979650505050505050565b600080600080608085870312156141ee57600080fd5b84359350602085013561420081613ec9565b93969395505050506040820135916060013590565b6020808252825182820181905260009190848201906040850190845b8181101561424d57835183529284019291840191600101614231565b50909695505050505050565b60006001600160401b0382111561427257614272613f51565b50601f01601f191660200190565b600082601f83011261429157600080fd5b813561429f61400382614259565b8181528460208386010111156142b457600080fd5b816020850160208301376000918101602001919091529392505050565b600080600080608085870312156142e757600080fd5b84356001600160401b03808211156142fe57600080fd5b61430a88838901614280565b9550602087013591508082111561432057600080fd5b5061432d87828801614280565b935050604085013561433e81613ec9565b9396929550929360600135925050565b60008060006060848603121561436357600080fd5b8335925060208401356001600160401b038082111561438157600080fd5b61438d87838801614280565b935060408601359150808211156143a357600080fd5b506143b086828701614280565b9150509250925092565b6000806000606084860312156143cf57600080fd5b8335925060208401356001600160401b038111156143ec57600080fd5b6143f886828701614280565b925050604084013590509250925092565b600081518084526020808501945080840160005b838110156144425781516001600160a01b03168752958201959082019060010161441d565b509495945050505050565b6000606082016060835280865180835260808501915060808160051b8601019250602080890160005b838110156144a457607f19888703018552614492868351613e8a565b95509382019390820190600101614476565b5050858403818701525050506144ba8186613e8a565b905082810360408401526144ce8185614409565b9695505050505050565b60006101408c83528b60208401528060408401526144f88184018c613e8a565b90508960608401528860808401528760a084015282810360c084015261451e8188613e8a565b905082810360e08401526145328187613e8a565b90508281036101008401526145478186613e8a565b915050826101208301529b9a5050505050505050505050565b60008060006060848603121561457557600080fd5b83356001600160401b038082111561458c57600080fd5b61459887838801614280565b945060208601359150808211156145ae57600080fd5b506143f886828701614280565b6000806000606084860312156145d057600080fd5b8335925060208401356001600160401b038111156145ed57600080fd5b6145f986828701614280565b925050604084013561460a81613ec9565b809150509250925092565b6000806040838503121561462857600080fd5b823561463381613ec9565b946020939093013593505050565b60008060006060848603121561465657600080fd5b833592506020808501356001600160401b038082111561467557600080fd5b818701915087601f83011261468957600080fd5b813561469761400382613fbf565b81815260059190911b8301840190848101908a8311156146b657600080fd5b8585015b838110156146ee578035858111156146d25760008081fd5b6146e08d89838a0101614280565b8452509186019186016146ba565b5096505050604087013592508083111561470757600080fd5b50506143b086828701614280565b6000806040838503121561472857600080fd5b8235915060208301356001600160401b0381111561474557600080fd5b61409285828601614280565b60006101408083526147658184018b613e8a565b905060208382038185015261477a828b614409565b9150604084018960005b60028110156147a157815183529183019190830190600101614784565b5050505082810360808401526147b78188613e8a565b90506147c660a0840187614160565b846101008401528281036101208401526147e08185613e8a565b9a9950505050505050505050565b60a08152600061480160a0830188613e8a565b82810360208401526148138188613e8a565b9050856040840152841515606084015282810360808401526148358185613e8a565b98975050505050505050565b600080600080600060e0868803121561485957600080fd5b85356001600160401b038082111561487057600080fd5b61487c89838a01613fe2565b965060209150818801358181111561489357600080fd5b61489f8a828b01614280565b96505088605f8901126148b157600080fd5b6148b9613f67565b8060a08a018b8111156148cb57600080fd5b60408b015b818110156148e757803584529285019285016148d0565b5090965035925050808211156148fc57600080fd5b61490889838a01614280565b935060c088013591508082111561491e57600080fd5b5061492b88828901614280565b9150509295509295909350565b6000806040838503121561494b57600080fd5b50508035926020909101359150565b600061010080835261496e8184018c613e8a565b602084019a909a52505060408101969096529315156060860152911515608085015260a084015260c083015260e090910152919050565b600080600080608085870312156149bb57600080fd5b5050823594602084013594506040840135936060013592509050565b600181811c908216806149eb57607f821691505b602082108103614a0b57634e487b7160e01b600052602260045260246000fd5b50919050565b6020808252601f908201527f5573657220646f6573206e6f7420657869737420696e206e6f207661756c7400604082015260600190565b80518015158114614a5857600080fd5b919050565b600082601f830112614a6e57600080fd5b8151614a7c61400382614259565b818152846020838601011115614a9157600080fd5b614aa2826020830160208701613e66565b949350505050565b600080600080600080600060e0888a031215614ac557600080fd5b8751965060208801519550614adc60408901614a48565b94506060880151935060808801516001600160401b03811115614afe57600080fd5b614b0a8a828b01614a5d565b93505060a0880151915060c0880151905092959891949750929550565b60006040820184835260206040818501528185548084526060860191508660005282600020935060005b81811015614b765784546001600160a01b031683526001948501949284019201614b51565b5090979650505050505050565b601f821115610da557600081815260208120601f850160051c81016020861015614baa5750805b601f850160051c820191505b818110156127f357828155600101614bb6565b81516001600160401b03811115614be257614be2613f51565b614bf681614bf084546149d7565b84614b83565b602080601f831160018114614c2b5760008415614c135750858301515b600019600386901b1c1916600185901b1785556127f3565b600085815260208120601f198616915b82811015614c5a57888601518255948401946001909101908401614c3b565b5085821015614c785787850151600019600388901b60f8161c191681555b5050505050600190811b01905550565b634e487b7160e01b600052603260045260246000fd5b634e487b7160e01b600052601160045260246000fd5b600060018201614cc657614cc6614c9e565b5060010190565b602080825260149082015273165bdd49dd9948185b1c9958591e481d9bdd195960621b604082015260600190565b8082018082111561183a5761183a614c9e565b928352608060208401819052600890840152673937ba30ba34b7b760c11b60a08401526001600160a01b03919091166040830152606082015260c00190565b928352608060208401819052600290840152610e8f60f31b60a08401526001600160a01b03919091166040830152606082015260c00190565b9283526080602084018190526005908401526430b236b4b760d91b60a08401526001600160a01b03919091166040830152606082015260c00190565b6000808354614dd0816149d7565b60018281168015614de85760018114614dfd57614e2c565b60ff1984168752821515830287019450614e2c565b8760005260208060002060005b85811015614e235781548a820152908401908201614e0a565b50505082870194505b50929695505050505050565b8381526000602084818401526060604084015260008454614e58816149d7565b8060608701526080600180841660008114614e7a5760018114614e9457614ec2565b60ff1985168984015283151560051b890183019550614ec2565b896000528660002060005b85811015614eba5781548b8201860152908301908801614e9f565b8a0184019650505b50939a9950505050505050505050565b8181038181111561183a5761183a614c9e565b600080600060608486031215614efa57600080fd5b8351614f0581613ec9565b9250614f1360208501614a48565b9150604084015190509250925092565b838152606060208201526000614f3c6060830185613e8a565b9050826040830152949350505050565b838152606060208201526000614f656060830185613e8a565b905060018060a01b0383166040830152949350505050565b608081526000614f906080830187613e8a565b8281036020840152614fa28187613e8a565b6001600160a01b0395909516604084015250506060015292915050565b600060208284031215614fd157600080fd5b5051919050565b600080600080600060a08688031215614ff057600080fd5b8551614ffb81613ec9565b945061500960208701614a48565b93506040860151925061501e60608701614a48565b9150608086015190509295509295909350565b60008261504e57634e487b7160e01b600052601260045260246000fd5b500690565b60006020828403121561506557600080fd5b81516001600160401b0381111561507b57600080fd5b614aa284828501614a5d565b600080600080600060a0868803121561509f57600080fd5b85516001600160401b03808211156150b657600080fd5b6150c289838a01614a5d565b965060208801519150808211156150d857600080fd5b6150e489838a01614a5d565b9550604088015194506150f960608901614a48565b9350608088015191508082111561510f57600080fd5b5061492b88828901614a5d565b600082601f83011261512d57600080fd5b604051604081018181106001600160401b038211171561514f5761514f613f51565b806040525080604084018581111561516657600080fd5b845b818110156151875761517981614a48565b835260209283019201615168565b509195945050505050565b60008060008060008061014080888a0312156151ad57600080fd5b87516001600160401b038111156151c357600080fd5b6151cf8a828b01614a5d565b9750506020808901519650604089015195506151ee8a60608b0161511c565b94506151fd8a60a08b0161511c565b93508960ff8a011261520e57600080fd5b615216613f67565b91890191808b84111561522857600080fd5b60e08b015b84811015615244578051835291830191830161522d565b50809450505050509295509295509295565b828152604060208201526000614aa26040830184614409565b634e487b7160e01b600052603160045260246000fdfe02ae4592210a584d71d61736abf58333c71df720f578e63708a39e7b52e9e4bba26469706673582212207778295a67e74a36e694154f0d11462426c7416582c58aa8706b7df01665001964736f6c63430008100033608060405234801561001057600080fd5b50610fb0806100206000396000f3fe608060405234801561001057600080fd5b50600436106100b45760003560e01c80636870ea1c116100715780636870ea1c1461016f57806371cff1a6146101915780637a00a91d146101a6578063801fc46e146101c6578063b48e4083146101d9578063edb05e8f146101fd57600080fd5b80630ee9ec7e146100b95780631e463f4e146100e25780633c731241146101155780634d9ba0d7146101285780634d9c4f38146101495780635327d79d1461015c575b600080fd5b6100cc6100c73660046109b6565b61021d565b6040516100d99190610a15565b60405180910390f35b6101056100f03660046109b6565b60046020526000908152604090205460ff1681565b60405190151581526020016100d9565b6100cc610123366004610a4b565b6102b7565b61013b610136366004610b2e565b6102db565b6040519081526020016100d9565b6100cc610157366004610a4b565b610364565b6100cc61016a3660046109b6565b61041c565b61018261017d366004610baa565b610435565b6040516100d993929190610c63565b6101a461019f3660046109b6565b610655565b005b61013b6101b43660046109b6565b60056020526000908152604090205481565b6101a46101d4366004610d1c565b610750565b6101ec6101e7366004610a4b565b6107a6565b6040516100d9959493929190610d73565b61013b61020b3660046109b6565b60026020526000908152604090205481565b6000602081905290815260409020805461023690610dc6565b80601f016020809104026020016040519081016040528092919081815260200182805461026290610dc6565b80156102af5780601f10610284576101008083540402835291602001916102af565b820191906000526020600020905b81548152906001019060200180831161029257829003601f168201915b505050505081565b60036020908152600092835260408084209091529082529020805461023690610dc6565b60065460009081526020819052604081206102f68682610e4f565b5060065460009081526001602052604090206103128582610e4f565b506103204262278d00610f25565b60068054600090815260056020526040812092909255805460019290610347908490610f25565b909155505060065461035b90600190610f38565b95945050505050565b60008281526003602090815260408083206001600160a01b0385168452909152902080546060919061039590610dc6565b80601f01602080910402602001604051908101604052809291908181526020018280546103c190610dc6565b801561040e5780601f106103e35761010080835404028352916020019161040e565b820191906000526020600020905b8154815290600101906020018083116103f157829003601f168201915b505050505090505b92915050565b6001602052600090815260409020805461023690610dc6565b606080606060008451905060008167ffffffffffffffff81111561045b5761045b610a77565b60405190808252806020026020018201604052801561048e57816020015b60608152602001906001900390816104795790505b50905060005b828110156105a4576003600089815260200190815260200160002060008883815181106104c3576104c3610f4b565b60200260200101516001600160a01b03166001600160a01b0316815260200190815260200160002080546104f690610dc6565b80601f016020809104026020016040519081016040528092919081815260200182805461052290610dc6565b801561056f5780601f106105445761010080835404028352916020019161056f565b820191906000526020600020905b81548152906001019060200180831161055257829003601f168201915b505050505082828151811061058657610586610f4b565b6020026020010181905250808061059c90610f61565b915050610494565b508060016000898152602001908152602001600020878180546105c690610dc6565b80601f01602080910402602001604051908101604052809291908181526020018280546105f290610dc6565b801561063f5780601f106106145761010080835404028352916020019161063f565b820191906000526020600020905b81548152906001019060200180831161062257829003601f168201915b5050505050915094509450945050509250925092565b806006548111156106a15760405162461bcd60e51b81526020600482015260116024820152701d1e08191bd95cc81b9bdd08195e1a5cdd607a1b60448201526064015b60405180910390fd5b600082815260046020526040902054829060ff16156106f85760405162461bcd60e51b8152602060048201526013602482015272151e08185b1c9958591e48195e1958dd5d1959606a1b6044820152606401610698565b60008381526004602052604090819020805460ff19166001179055517f6bc215631c1b4565ed4fa511379166f2e7cc55eab9dce0690f0e3979d2a0674e906107439085815260200190565b60405180910390a1505050565b600083815260026020526040812080546001929061076f908490610f25565b909155505060008381526003602090815260408083206001600160a01b038516845290915290206107a08382610e4f565b50505050565b600082815260208181526040808320600383528184206001600160a01b038616855283528184208685526002845282852054600485528386205460019095529285208254606096879690958695889590949093919260ff1691859061080a90610dc6565b80601f016020809104026020016040519081016040528092919081815260200182805461083690610dc6565b80156108835780601f1061085857610100808354040283529160200191610883565b820191906000526020600020905b81548152906001019060200180831161086657829003601f168201915b5050505050945083805461089690610dc6565b80601f01602080910402602001604051908101604052809291908181526020018280546108c290610dc6565b801561090f5780601f106108e45761010080835404028352916020019161090f565b820191906000526020600020905b8154815290600101906020018083116108f257829003601f168201915b5050505050935080805461092290610dc6565b80601f016020809104026020016040519081016040528092919081815260200182805461094e90610dc6565b801561099b5780601f106109705761010080835404028352916020019161099b565b820191906000526020600020905b81548152906001019060200180831161097e57829003601f168201915b50505050509050945094509450945094509295509295909350565b6000602082840312156109c857600080fd5b5035919050565b6000815180845260005b818110156109f5576020818501810151868301820152016109d9565b506000602082860101526020601f19601f83011685010191505092915050565b602081526000610a2860208301846109cf565b9392505050565b80356001600160a01b0381168114610a4657600080fd5b919050565b60008060408385031215610a5e57600080fd5b82359150610a6e60208401610a2f565b90509250929050565b634e487b7160e01b600052604160045260246000fd5b604051601f8201601f1916810167ffffffffffffffff81118282101715610ab657610ab6610a77565b604052919050565b600082601f830112610acf57600080fd5b813567ffffffffffffffff811115610ae957610ae9610a77565b610afc601f8201601f1916602001610a8d565b818152846020838601011115610b1157600080fd5b816020850160208301376000918101602001919091529392505050565b60008060008060808587031215610b4457600080fd5b843567ffffffffffffffff80821115610b5c57600080fd5b610b6888838901610abe565b95506020870135915080821115610b7e57600080fd5b50610b8b87828801610abe565b935050610b9a60408601610a2f565b9396929550929360600135925050565b60008060408385031215610bbd57600080fd5b8235915060208084013567ffffffffffffffff80821115610bdd57600080fd5b818601915086601f830112610bf157600080fd5b813581811115610c0357610c03610a77565b8060051b9150610c14848301610a8d565b8181529183018401918481019089841115610c2e57600080fd5b938501935b83851015610c5357610c4485610a2f565b82529385019390850190610c33565b8096505050505050509250929050565b6000606082016060835280865180835260808501915060808160051b8601019250602080890160005b83811015610cba57607f19888703018552610ca88683516109cf565b95509382019390820190600101610c8c565b505085840381870152610ccd84896109cf565b8681036040880152875180825282890195509082019350915060005b82811015610d0e5784516001600160a01b031684529381019392810192600101610ce9565b509198975050505050505050565b600080600060608486031215610d3157600080fd5b83359250602084013567ffffffffffffffff811115610d4f57600080fd5b610d5b86828701610abe565b925050610d6a60408501610a2f565b90509250925092565b60a081526000610d8660a08301886109cf565b8281036020840152610d9881886109cf565b905085604084015284151560608401528281036080840152610dba81856109cf565b98975050505050505050565b600181811c90821680610dda57607f821691505b602082108103610dfa57634e487b7160e01b600052602260045260246000fd5b50919050565b601f821115610e4a57600081815260208120601f850160051c81016020861015610e275750805b601f850160051c820191505b81811015610e4657828155600101610e33565b5050505b505050565b815167ffffffffffffffff811115610e6957610e69610a77565b610e7d81610e778454610dc6565b84610e00565b602080601f831160018114610eb25760008415610e9a5750858301515b600019600386901b1c1916600185901b178555610e46565b600085815260208120601f198616915b82811015610ee157888601518255948401946001909101908401610ec2565b5085821015610eff5787850151600019600388901b60f8161c191681555b5050505050600190811b01905550565b634e487b7160e01b600052601160045260246000fd5b8082018082111561041657610416610f0f565b8181038181111561041657610416610f0f565b634e487b7160e01b600052603260045260246000fd5b600060018201610f7357610f73610f0f565b506001019056fea2646970667358221220783351007e0748bb6a39431ac7c9ff9ab2472b96e0690d7c600488aecc0c0df664736f6c63430008100033608060405234801561001057600080fd5b50610966806100206000396000f3fe608060405234801561001057600080fd5b50600436106100575760003560e01c80631f6107851461005c57806337ffe4aa146100f957806372d721901461010e578063ea5ff83714610146578063f81ff72e14610159575b600080fd5b6100c061006a366004610756565b600082815260208181526040808320600180820154600583015460038401546001600160a01b03988916885292865284872098875297855292852054949093526002015493169460ff9485169491939190921691565b604080516001600160a01b03909616865293151560208601529284019190915215156060830152608082015260a0015b60405180910390f35b61010c610107366004610782565b61016c565b005b61012161011c3660046107d2565b610361565b604080516001600160a01b0390941684529115156020840152908201526060016100f0565b61010c610154366004610756565b61044a565b61010c610167366004610801565b610636565b8381816001600160a01b0316816001600160a01b0316036101cc5760405162461bcd60e51b815260206004820152601560248201527421b0b713ba103937ba30ba32903cb7bab939b2b63360591b60448201526064015b60405180910390fd5b600087815260208190526040902060020154156102235760405162461bcd60e51b81526020600482015260156024820152741c9bdd185d1a5bdb881b9bdd08199a5b9a5cda1959605a1b60448201526064016101c3565b6040518060c00160405280888152602001876001600160a01b0316815260200160008152602001868152602001858152602001600015158152506000808981526020019081526020016000206000820151816000015560208201518160010160006101000a8154816001600160a01b0302191690836001600160a01b0316021790555060408201518160020155606082015181600301556080820151816004015560a08201518160050160006101000a81548160ff0219169083151502179055509050507f328022c95b760c9add71b60c3a5f101df74043f359a63e4e5d129951894b47688787600188600089604051610350969594939291909586526001600160a01b03949094166020860152604085019290925260608401521515608083015260a082015260c00190565b60405180910390a150505050505050565b600081815260208181526040808320600181015460059091015482518681526001600160a01b039092169382019390935260ff90921615158282015251829182917fe2554cba0c2467925c27e5ed5d34c6f5da38c1defebf33f069e0ef16fb8446fa9181900360600190a1600084815260208181526040918290206001810154600582015460039092015484518981526001600160a01b0390921693820184905260ff9092168015158286015293519293927fe9ba3515108fc2182b43126038b4d0facad1ef7388e0d6962eddf2f70e3a97779181900360600190a19196909550909350915050565b6001600160a01b03811660009081526001602090815260408083208584529091529020548290829060ff16156104b95760405162461bcd60e51b8152602060048201526014602482015273165bdd49dd9948185b1c9958591e481d9bdd195960621b60448201526064016101c3565b60008481526020819052604081206002018054600192906104db9084906108e8565b90915550506001600160a01b03831660008181526001602081815260408084208985528252808420805460ff19169093179092558281529181902060028101546004909101548251948552928401528201527f8a953283c2bee8b290e1d957b1192f331b7dc4fc2ffacac907d3860a509062589060600160405180910390a1600084815260208190526040902060048101546002909101541061063057600084815260208181526040918290206004015491519182527f15e64b8a4935dbaf73679819f11e878a055b60b65efddd0bfa2cba4565d9e974910160405180910390a160008481526020818152604091829020600581018054600160ff1990911681179091556003820154918101548451918252928101919091526001600160a01b039091168183015290517f801f1675cc5ae3c99d6bf0a0996ab89415f9295fc7a8646cd7293423382dae6d9181900360600190a15b50505050565b6040805160c08101825283815260006020808301828152838501838152606085018481526080860185815260a087018681528a8752948690529685209551865591516001860180546001600160a01b0319166001600160a01b039092169190911790555160028501555160038401559251600483015591516005909101805460ff19169115159190911790555b8151811015610735576000600160008484815181106106e4576106e4610901565b6020908102919091018101516001600160a01b0316825281810192909252604090810160009081208782529092529020805460ff19169115159190911790558061072d81610917565b9150506106c3565b505050565b80356001600160a01b038116811461075157600080fd5b919050565b6000806040838503121561076957600080fd5b823591506107796020840161073a565b90509250929050565b600080600080600060a0868803121561079a57600080fd5b853594506107aa6020870161073a565b935060408601359250606086013591506107c66080870161073a565b90509295509295909350565b6000602082840312156107e457600080fd5b5035919050565b634e487b7160e01b600052604160045260246000fd5b6000806040838503121561081457600080fd5b8235915060208084013567ffffffffffffffff8082111561083457600080fd5b818601915086601f83011261084857600080fd5b81358181111561085a5761085a6107eb565b8060051b604051601f19603f8301168101818110858211171561087f5761087f6107eb565b60405291825284820192508381018501918983111561089d57600080fd5b938501935b828510156108c2576108b38561073a565b845293850193928501926108a2565b8096505050505050509250929050565b634e487b7160e01b600052601160045260246000fd5b808201808211156108fb576108fb6108d2565b92915050565b634e487b7160e01b600052603260045260246000fd5b600060018201610929576109296108d2565b506001019056fea26469706673582212205f7aad4a2270c4f2e665d26f7a818bfa2334e7f7c62e3c2640b680aaf2bf8e4064736f6c63430008100033608060405234801561001057600080fd5b50611537806100206000396000f3fe608060405234801561001057600080fd5b506004361061009e5760003560e01c806342a924271161006657806342a9242714610120578063573dd19914610145578063ad362a8514610158578063d599a1c61461016b578063fbb0e4721461019257600080fd5b8063186a588f146100a35780631f3e9a5d146100d257806326253f82146100e75780633c5b2e10146100fa578063418b32871461010d575b600080fd5b6100b66100b1366004610dbc565b6101a5565b6040516100c99796959493929190610e1b565b60405180910390f35b6100e56100e0366004610ec1565b610294565b005b6100e56100f5366004610f7a565b610354565b6100e5610108366004610fa6565b6105bd565b6100e561011b366004610dbc565b610739565b61013361012e366004610dbc565b61077d565b6040516100c996959493929190611012565b6100e5610153366004610ec1565b6109e1565b6100e5610166366004610f7a565b610a82565b61017e610179366004610dbc565b610c01565b6040516100c9989796959493929190611084565b6100e56101a03660046110cf565b610cd3565b6000818152600260208190526040822060018101549181015460038201546005830154600684015460048501548554889788978897606097899788979496929560ff90921694909392909183906101fb90611177565b80601f016020809104026020016040519081016040528092919081815260200182805461022790611177565b80156102745780601f1061024957610100808354040283529160200191610274565b820191906000526020600020905b81548152906001019060200180831161025757829003601f168201915b505050505092509650965096509650965096509650919395979092949650565b60408051602080820183526000808352858152600290915291909120906102bb90826111ff565b50600082815260026020526040812060068101829055600301805461ff00191690555b815181101561034f5760008060008484815181106102fe576102fe6112bf565b6020908102919091018101516001600160a01b0316825281810192909252604090810160009081208782529092529020805460ff191691151591909117905580610347816112eb565b9150506102de565b505050565b6001600160a01b03811660009081526001602090815260408083208584529091529020548290829060ff16156103c85760405162461bcd60e51b8152602060048201526014602482015273165bdd49dd9948185b1c9958591e481d9bdd195960621b60448201526064015b60405180910390fd5b600084815260026020526040902060030154849060ff161561041c5760405162461bcd60e51b815260206004820152600d60248201526c566f746520636f6d706c65746560981b60448201526064016103bf565b600085815260026020526040812060050180546001929061043e908490611304565b909155505060008581526002602052604090206004810154600590910154106104b957600085815260026020908152604091829020600301805460ff191660019081179091558251888152918201527fc4b52bf16c1a17ac84bd52e15d23acaede74bc2c754a086a267c217538d52f5b910160405180910390a15b6000858152600260208190526040909120015460010361051357600085815260026020526040908190206001015490516000805160206114e283398151915291610506918891889161131d565b60405180910390a16105b6565b6000858152600260208190526040909120810154900361056057600085815260026020526040908190206001015490516000805160206114e283398151915291610506918891889161135c565b600085815260026020819052604090912001546003036105b657600085815260026020526040908190206001015490516000805160206114e2833981519152916105ad9188918891611395565b60405180910390a15b5050505050565b600085815260026020908152604091829020600581015492517f2b4535d29857cb929f520393be14302b91bf82f639e18112a3ee058a38e9994293926106049291016113d1565b60408051601f19818403018152828252805160209182012060008b815260029092529190206106339392611447565b60405180910390a16000858152600260205260409020600501541561069a5760405162461bcd60e51b815260206004820152601a60248201527f5468726573686f6c6420616c72656164792070726f706f73656400000000000060448201526064016103bf565b600085815260026020819052604090912060018082018790559181018590556004018290558390036106e7576000805160206114e28339815191528583866040516105069392919061131d565b82600203610710576000805160206114e28339815191528583866040516105069392919061135c565b826003036105b6576000805160206114e28339815191528583866040516105ad93929190611395565b6064811061077a5760405162461bcd60e51b815260206004820152600e60248201526d1b9d5b58995c881a5b9d985b1a5960921b60448201526064016103bf565b50565b606060008061078a610d80565b610792610d80565b61079a610d9e565b600260008881526020019081526020016000206000016002600089815260200190815260200160002060010154600260008a8152602001908152602001600020600201546040518060400160405280600260008d815260200190815260200160002060030160009054906101000a900460ff16151515158152602001600260008d815260200190815260200160002060030160019054906101000a900460ff1615151515815250604051806040016040528060016000336001600160a01b03166001600160a01b0316815260200190815260200160002060008e815260200190815260200160002060009054906101000a900460ff16151515158152602001600080336001600160a01b03166001600160a01b0316815260200190815260200160002060008e815260200190815260200160002060009054906101000a900460ff16151515158152506040518060600160405280600260008f8152602001908152602001600020600501548152602001600260008f8152602001908152602001600020600601548152602001600260008f81526020019081526020016000206004015481525085805461094c90611177565b80601f016020809104026020016040519081016040528092919081815260200182805461097890611177565b80156109c55780601f1061099a576101008083540402835291602001916109c5565b820191906000526020600020905b8154815290600101906020018083116109a857829003601f168201915b5050505050955095509550955095509550955091939550919395565b600082815260026020819052604082206005810183905560038101805460ff1916905560018101839055018190555b815181101561034f57600060016000848481518110610a3157610a316112bf565b6020908102919091018101516001600160a01b0316825281810192909252604090810160009081208782529092529020805460ff191691151591909117905580610a7a816112eb565b915050610a10565b6001600160a01b0381166000908152602081815260408083208584529091529020548290829060ff1615610aef5760405162461bcd60e51b8152602060048201526014602482015273165bdd49dd9948185b1c9958591e481d9bdd195960621b60448201526064016103bf565b6000848152600260205260409020600301548490610100900460ff1615610b485760405162461bcd60e51b815260206004820152600d60248201526c566f746520636f6d706c65746560981b60448201526064016103bf565b6000858152600260205260408120600601805460019290610b6a908490611304565b90915550506000858152600260205260409020600481015460069091015410610bac576000858152600260205260409020600301805461ff0019166101001790555b60008581526002602090815260409182902060030154825188815261010090910460ff161515918101919091527fc4b52bf16c1a17ac84bd52e15d23acaede74bc2c754a086a267c217538d52f5b91016105ad565b600260205260009081526040902080548190610c1c90611177565b80601f0160208091040260200160405190810160405280929190818152602001828054610c4890611177565b8015610c955780601f10610c6a57610100808354040283529160200191610c95565b820191906000526020600020905b815481529060010190602001808311610c7857829003601f168201915b50505050600183015460028401546003850154600486015460058701546006909701549596939592945060ff80831694610100909304169290919088565b6040805160008082526020808301808552835190208783526002909152908390209092610d0092016113d1565b6040516020818303038152906040528051906020012014610d5b5760405162461bcd60e51b81526020600482015260156024820152741b985b5948185b1c9958591e481c1c9bdc1bdcd959605a1b60448201526064016103bf565b600083815260026020526040902060048101829055610d7a83826111ff565b50505050565b60405180604001604052806002906020820280368337509192915050565b60405180606001604052806003906020820280368337509192915050565b600060208284031215610dce57600080fd5b5035919050565b6000815180845260005b81811015610dfb57602081850181015186830182015201610ddf565b506000602082860101526020601f19601f83011685010191505092915050565b878152866020820152851515604082015284606082015260e060808201526000610e4860e0830186610dd5565b60a08301949094525060c0015295945050505050565b634e487b7160e01b600052604160045260246000fd5b604051601f8201601f1916810167ffffffffffffffff81118282101715610e9d57610e9d610e5e565b604052919050565b80356001600160a01b0381168114610ebc57600080fd5b919050565b60008060408385031215610ed457600080fd5b8235915060208084013567ffffffffffffffff80821115610ef457600080fd5b818601915086601f830112610f0857600080fd5b813581811115610f1a57610f1a610e5e565b8060051b9150610f2b848301610e74565b8181529183018401918481019089841115610f4557600080fd5b938501935b83851015610f6a57610f5b85610ea5565b82529385019390850190610f4a565b8096505050505050509250929050565b60008060408385031215610f8d57600080fd5b82359150610f9d60208401610ea5565b90509250929050565b600080600080600060a08688031215610fbe57600080fd5b853594506020860135935060408601359250610fdc60608701610ea5565b949793965091946080013592915050565b8060005b6002811015610d7a5781511515845260209384019390910190600101610ff1565b60006101408083526110268184018a610dd5565b915050602087818401528660408401526110436060840187610fed565b61105060a0840186610fed565b60e083018460005b600381101561107557815183529183019190830190600101611058565b50505050979650505050505050565b60006101008083526110988184018c610dd5565b602084019a909a52505060408101969096529315156060860152911515608085015260a084015260c083015260e090910152919050565b6000806000606084860312156110e457600080fd5b8335925060208085013567ffffffffffffffff8082111561110457600080fd5b818701915087601f83011261111857600080fd5b81358181111561112a5761112a610e5e565b61113c601f8201601f19168501610e74565b9150808252888482850101111561115257600080fd5b8084840185840137600084828401015250809450505050604084013590509250925092565b600181811c9082168061118b57607f821691505b6020821081036111ab57634e487b7160e01b600052602260045260246000fd5b50919050565b601f82111561034f57600081815260208120601f850160051c810160208610156111d85750805b601f850160051c820191505b818110156111f7578281556001016111e4565b505050505050565b815167ffffffffffffffff81111561121957611219610e5e565b61122d816112278454611177565b846111b1565b602080601f831160018114611262576000841561124a5750858301515b600019600386901b1c1916600185901b1785556111f7565b600085815260208120601f198616915b8281101561129157888601518255948401946001909101908401611272565b50858210156112af5787850151600019600388901b60f8161c191681555b5050505050600190811b01905550565b634e487b7160e01b600052603260045260246000fd5b634e487b7160e01b600052601160045260246000fd5b6000600182016112fd576112fd6112d5565b5060010190565b80820180821115611317576113176112d5565b92915050565b928352608060208401819052600890840152673937ba30ba34b7b760c11b60a08401526001600160a01b03919091166040830152606082015260c00190565b928352608060208401819052600290840152610e8f60f31b60a08401526001600160a01b03919091166040830152606082015260c00190565b9283526080602084018190526005908401526430b236b4b760d91b60a08401526001600160a01b03919091166040830152606082015260c00190565b60008083546113df81611177565b600182811680156113f7576001811461140c5761143b565b60ff198416875282151583028701945061143b565b8760005260208060002060005b858110156114325781548a820152908401908201611419565b50505082870194505b50929695505050505050565b838152600060208481840152606060408401526000845461146781611177565b806060870152608060018084166000811461148957600181146114a3576114d1565b60ff1985168984015283151560051b8901830195506114d1565b896000528660002060005b858110156114c95781548b82018601529083019088016114ae565b8a0184019650505b50939a995050505050505050505056fe02ae4592210a584d71d61736abf58333c71df720f578e63708a39e7b52e9e4bba26469706673582212201b33ccc0fbfdd03d905f1e0431147647b9e69ca8c07712824ac7d7b01eed5db664736f6c63430008100033",
  "linkReferences": {},
  "deployedLinkReferences": {}
}