{
  "contractName": "AaveV3ERC4626",
  "abi": [
    {
      "inputs": [
        {
          "internalType": "contract ERC20",
          "name": "asset_",
          "type": "address"
        },
        {
          "internalType": "contract ERC20",
          "name": "aToken_",
          "type": "address"
        },
        {
          "internalType": "contract IPool",
          "name": "lendingPool_",
          "type": "address"
        },
        {
          "internalType": "address",
          "name": "rewardRecipient_",
          "type": "address"
        },
        {
          "internalType": "contract IRewardsController",
          "name": "rewardsController_",
          "type": "address"
        }
      ],
      "stateMutability": "nonpayable",
      "type": "constructor"
    },
    {
      "anonymous": false,
      "inputs": [
        {
          "indexed": true,
          "internalType": "address",
          "name": "owner",
          "type": "address"
        },
        {
          "indexed": true,
          "internalType": "address",
          "name": "spender",
          "type": "address"
        },
        {
          "indexed": false,
          "internalType": "uint256",
          "name": "amount",
          "type": "uint256"
        }
      ],
      "name": "Approval",
      "type": "event"
    },
    {
      "anonymous": false,
      "inputs": [
        {
          "indexed": false,
          "internalType": "uint256",
          "name": "amount",
          "type": "uint256"
        }
      ],
      "name": "ClaimRewards",
      "type": "event"
    },
    {
      "anonymous": false,
      "inputs": [
        {
          "indexed": true,
          "internalType": "address",
          "name": "caller",
          "type": "address"
        },
        {
          "indexed": true,
          "internalType": "address",
          "name": "owner",
          "type": "address"
        },
        {
          "indexed": false,
          "internalType": "uint256",
          "name": "assets",
          "type": "uint256"
        },
        {
          "indexed": false,
          "internalType": "uint256",
          "name": "shares",
          "type": "uint256"
        }
      ],
      "name": "Deposit",
      "type": "event"
    },
    {
      "anonymous": false,
      "inputs": [
        {
          "indexed": true,
          "internalType": "address",
          "name": "from",
          "type": "address"
        },
        {
          "indexed": true,
          "internalType": "address",
          "name": "to",
          "type": "address"
        },
        {
          "indexed": false,
          "internalType": "uint256",
          "name": "amount",
          "type": "uint256"
        }
      ],
      "name": "Transfer",
      "type": "event"
    },
    {
      "anonymous": false,
      "inputs": [
        {
          "indexed": true,
          "internalType": "address",
          "name": "caller",
          "type": "address"
        },
        {
          "indexed": true,
          "internalType": "address",
          "name": "receiver",
          "type": "address"
        },
        {
          "indexed": true,
          "internalType": "address",
          "name": "owner",
          "type": "address"
        },
        {
          "indexed": false,
          "internalType": "uint256",
          "name": "assets",
          "type": "uint256"
        },
        {
          "indexed": false,
          "internalType": "uint256",
          "name": "shares",
          "type": "uint256"
        }
      ],
      "name": "Withdraw",
      "type": "event"
    },
    {
      "inputs": [],
      "name": "DOMAIN_SEPARATOR",
      "outputs": [
        {
          "internalType": "bytes32",
          "name": "",
          "type": "bytes32"
        }
      ],
      "stateMutability": "view",
      "type": "function"
    },
    {
      "inputs": [],
      "name": "aToken",
      "outputs": [
        {
          "internalType": "contract ERC20",
          "name": "",
          "type": "address"
        }
      ],
      "stateMutability": "view",
      "type": "function"
    },
    {
      "inputs": [
        {
          "internalType": "address",
          "name": "",
          "type": "address"
        },
        {
          "internalType": "address",
          "name": "",
          "type": "address"
        }
      ],
      "name": "allowance",
      "outputs": [
        {
          "internalType": "uint256",
          "name": "",
          "type": "uint256"
        }
      ],
      "stateMutability": "view",
      "type": "function"
    },
    {
      "inputs": [
        {
          "internalType": "address",
          "name": "spender",
          "type": "address"
        },
        {
          "internalType": "uint256",
          "name": "amount",
          "type": "uint256"
        }
      ],
      "name": "approve",
      "outputs": [
        {
          "internalType": "bool",
          "name": "",
          "type": "bool"
        }
      ],
      "stateMutability": "nonpayable",
      "type": "function"
    },
    {
      "inputs": [],
      "name": "asset",
      "outputs": [
        {
          "internalType": "contract ERC20",
          "name": "",
          "type": "address"
        }
      ],
      "stateMutability": "view",
      "type": "function"
    },
    {
      "inputs": [
        {
          "internalType": "address",
          "name": "",
          "type": "address"
        }
      ],
      "name": "balanceOf",
      "outputs": [
        {
          "internalType": "uint256",
          "name": "",
          "type": "uint256"
        }
      ],
      "stateMutability": "view",
      "type": "function"
    },
    {
      "inputs": [
        {
          "internalType": "uint256",
          "name": "shares",
          "type": "uint256"
        }
      ],
      "name": "convertToAssets",
      "outputs": [
        {
          "internalType": "uint256",
          "name": "",
          "type": "uint256"
        }
      ],
      "stateMutability": "view",
      "type": "function"
    },
    {
      "inputs": [
        {
          "internalType": "uint256",
          "name": "assets",
          "type": "uint256"
        }
      ],
      "name": "convertToShares",
      "outputs": [
        {
          "internalType": "uint256",
          "name": "",
          "type": "uint256"
        }
      ],
      "stateMutability": "view",
      "type": "function"
    },
    {
      "inputs": [],
      "name": "decimals",
      "outputs": [
        {
          "internalType": "uint8",
          "name": "",
          "type": "uint8"
        }
      ],
      "stateMutability": "view",
      "type": "function"
    },
    {
      "inputs": [
        {
          "internalType": "uint256",
          "name": "assets",
          "type": "uint256"
        },
        {
          "internalType": "address",
          "name": "receiver",
          "type": "address"
        }
      ],
      "name": "deposit",
      "outputs": [
        {
          "internalType": "uint256",
          "name": "shares",
          "type": "uint256"
        }
      ],
      "stateMutability": "nonpayable",
      "type": "function"
    },
    {
      "inputs": [],
      "name": "lendingPool",
      "outputs": [
        {
          "internalType": "contract IPool",
          "name": "",
          "type": "address"
        }
      ],
      "stateMutability": "view",
      "type": "function"
    },
    {
      "inputs": [
        {
          "internalType": "uint256",
          "name": "shares",
          "type": "uint256"
        },
        {
          "internalType": "address",
          "name": "receiver",
          "type": "address"
        }
      ],
      "name": "mint",
      "outputs": [
        {
          "internalType": "uint256",
          "name": "assets",
          "type": "uint256"
        }
      ],
      "stateMutability": "nonpayable",
      "type": "function"
    },
    {
      "inputs": [],
      "name": "name",
      "outputs": [
        {
          "internalType": "string",
          "name": "",
          "type": "string"
        }
      ],
      "stateMutability": "view",
      "type": "function"
    },
    {
      "inputs": [
        {
          "internalType": "address",
          "name": "",
          "type": "address"
        }
      ],
      "name": "nonces",
      "outputs": [
        {
          "internalType": "uint256",
          "name": "",
          "type": "uint256"
        }
      ],
      "stateMutability": "view",
      "type": "function"
    },
    {
      "inputs": [
        {
          "internalType": "address",
          "name": "owner",
          "type": "address"
        },
        {
          "internalType": "address",
          "name": "spender",
          "type": "address"
        },
        {
          "internalType": "uint256",
          "name": "value",
          "type": "uint256"
        },
        {
          "internalType": "uint256",
          "name": "deadline",
          "type": "uint256"
        },
        {
          "internalType": "uint8",
          "name": "v",
          "type": "uint8"
        },
        {
          "internalType": "bytes32",
          "name": "r",
          "type": "bytes32"
        },
        {
          "internalType": "bytes32",
          "name": "s",
          "type": "bytes32"
        }
      ],
      "name": "permit",
      "outputs": [],
      "stateMutability": "nonpayable",
      "type": "function"
    },
    {
      "inputs": [
        {
          "internalType": "uint256",
          "name": "assets",
          "type": "uint256"
        }
      ],
      "name": "previewDeposit",
      "outputs": [
        {
          "internalType": "uint256",
          "name": "",
          "type": "uint256"
        }
      ],
      "stateMutability": "view",
      "type": "function"
    },
    {
      "inputs": [
        {
          "internalType": "uint256",
          "name": "shares",
          "type": "uint256"
        }
      ],
      "name": "previewMint",
      "outputs": [
        {
          "internalType": "uint256",
          "name": "",
          "type": "uint256"
        }
      ],
      "stateMutability": "view",
      "type": "function"
    },
    {
      "inputs": [
        {
          "internalType": "uint256",
          "name": "shares",
          "type": "uint256"
        }
      ],
      "name": "previewRedeem",
      "outputs": [
        {
          "internalType": "uint256",
          "name": "",
          "type": "uint256"
        }
      ],
      "stateMutability": "view",
      "type": "function"
    },
    {
      "inputs": [
        {
          "internalType": "uint256",
          "name": "assets",
          "type": "uint256"
        }
      ],
      "name": "previewWithdraw",
      "outputs": [
        {
          "internalType": "uint256",
          "name": "",
          "type": "uint256"
        }
      ],
      "stateMutability": "view",
      "type": "function"
    },
    {
      "inputs": [],
      "name": "rewardRecipient",
      "outputs": [
        {
          "internalType": "address",
          "name": "",
          "type": "address"
        }
      ],
      "stateMutability": "view",
      "type": "function"
    },
    {
      "inputs": [],
      "name": "rewardsController",
      "outputs": [
        {
          "internalType": "contract IRewardsController",
          "name": "",
          "type": "address"
        }
      ],
      "stateMutability": "view",
      "type": "function"
    },
    {
      "inputs": [],
      "name": "symbol",
      "outputs": [
        {
          "internalType": "string",
          "name": "",
          "type": "string"
        }
      ],
      "stateMutability": "view",
      "type": "function"
    },
    {
      "inputs": [],
      "name": "totalSupply",
      "outputs": [
        {
          "internalType": "uint256",
          "name": "",
          "type": "uint256"
        }
      ],
      "stateMutability": "view",
      "type": "function"
    },
    {
      "inputs": [
        {
          "internalType": "address",
          "name": "to",
          "type": "address"
        },
        {
          "internalType": "uint256",
          "name": "amount",
          "type": "uint256"
        }
      ],
      "name": "transfer",
      "outputs": [
        {
          "internalType": "bool",
          "name": "",
          "type": "bool"
        }
      ],
      "stateMutability": "nonpayable",
      "type": "function"
    },
    {
      "inputs": [
        {
          "internalType": "address",
          "name": "from",
          "type": "address"
        },
        {
          "internalType": "address",
          "name": "to",
          "type": "address"
        },
        {
          "internalType": "uint256",
          "name": "amount",
          "type": "uint256"
        }
      ],
      "name": "transferFrom",
      "outputs": [
        {
          "internalType": "bool",
          "name": "",
          "type": "bool"
        }
      ],
      "stateMutability": "nonpayable",
      "type": "function"
    },
    {
      "inputs": [],
      "name": "claimRewards",
      "outputs": [],
      "stateMutability": "nonpayable",
      "type": "function"
    },
    {
      "inputs": [
        {
          "internalType": "uint256",
          "name": "assets",
          "type": "uint256"
        },
        {
          "internalType": "address",
          "name": "receiver",
          "type": "address"
        },
        {
          "internalType": "address",
          "name": "owner",
          "type": "address"
        }
      ],
      "name": "withdraw",
      "outputs": [
        {
          "internalType": "uint256",
          "name": "shares",
          "type": "uint256"
        }
      ],
      "stateMutability": "nonpayable",
      "type": "function"
    },
    {
      "inputs": [
        {
          "internalType": "uint256",
          "name": "shares",
          "type": "uint256"
        },
        {
          "internalType": "address",
          "name": "receiver",
          "type": "address"
        },
        {
          "internalType": "address",
          "name": "owner",
          "type": "address"
        }
      ],
      "name": "redeem",
      "outputs": [
        {
          "internalType": "uint256",
          "name": "assets",
          "type": "uint256"
        }
      ],
      "stateMutability": "nonpayable",
      "type": "function"
    },
    {
      "inputs": [],
      "name": "totalAssets",
      "outputs": [
        {
          "internalType": "uint256",
          "name": "",
          "type": "uint256"
        }
      ],
      "stateMutability": "view",
      "type": "function"
    },
    {
      "inputs": [
        {
          "internalType": "address",
          "name": "",
          "type": "address"
        }
      ],
      "name": "maxDeposit",
      "outputs": [
        {
          "internalType": "uint256",
          "name": "",
          "type": "uint256"
        }
      ],
      "stateMutability": "view",
      "type": "function"
    },
    {
      "inputs": [
        {
          "internalType": "address",
          "name": "",
          "type": "address"
        }
      ],
      "name": "maxMint",
      "outputs": [
        {
          "internalType": "uint256",
          "name": "",
          "type": "uint256"
        }
      ],
      "stateMutability": "view",
      "type": "function"
    },
    {
      "inputs": [
        {
          "internalType": "address",
          "name": "owner",
          "type": "address"
        }
      ],
      "name": "maxWithdraw",
      "outputs": [
        {
          "internalType": "uint256",
          "name": "",
          "type": "uint256"
        }
      ],
      "stateMutability": "view",
      "type": "function"
    },
    {
      "inputs": [
        {
          "internalType": "address",
          "name": "owner",
          "type": "address"
        }
      ],
      "name": "maxRedeem",
      "outputs": [
        {
          "internalType": "uint256",
          "name": "",
          "type": "uint256"
        }
      ],
      "stateMutability": "view",
      "type": "function"
    }
  ],
  "bytecode": "0x6101806040523480156200001257600080fd5b5060405162004ee738038062004ee7833981810160405281019062000038919062000553565b846200004a866200023960201b60201c565b6200005b87620002da60201b60201c565b81818473ffffffffffffffffffffffffffffffffffffffff1663313ce5676040518163ffffffff1660e01b8152600401602060405180830381865afa158015620000a9573d6000803e3d6000fd5b505050506040513d601f19601f82011682018060405250810190620000cf919062000619565b8260009081620000e09190620008c5565b508160019081620000f29190620008c5565b508060ff1660808160ff16815250504660a08181525050620001196200037b60201b60201c565b60c081815250505050508273ffffffffffffffffffffffffffffffffffffffff1660e08173ffffffffffffffffffffffffffffffffffffffff16815250505050508373ffffffffffffffffffffffffffffffffffffffff166101008173ffffffffffffffffffffffffffffffffffffffff16815250508273ffffffffffffffffffffffffffffffffffffffff166101208173ffffffffffffffffffffffffffffffffffffffff16815250508173ffffffffffffffffffffffffffffffffffffffff166101408173ffffffffffffffffffffffffffffffffffffffff16815250508073ffffffffffffffffffffffffffffffffffffffff166101608173ffffffffffffffffffffffffffffffffffffffff1681525050505050505062000d91565b60608173ffffffffffffffffffffffffffffffffffffffff166395d89b416040518163ffffffff1660e01b8152600401600060405180830381865afa15801562000287573d6000803e3d6000fd5b505050506040513d6000823e3d601f19601f82011682018060405250810190620002b2919062000afc565b604051602001620002c4919062000bb5565b6040516020818303038152906040529050919050565b60608173ffffffffffffffffffffffffffffffffffffffff166395d89b416040518163ffffffff1660e01b8152600401600060405180830381865afa15801562000328573d6000803e3d6000fd5b505050506040513d6000823e3d601f19601f8201168201806040525081019062000353919062000afc565b60405160200162000365919062000c05565b6040516020818303038152906040529050919050565b60007f8b73c3c69bb8fe3d512ecc4cf759cc79239f7b179b0ffacaa9a75d522b39400f6000604051620003af919062000cde565b60405180910390207fc89efdaa54c0f20c7adf612882df0950f5a951637e0307cdcb4c672f298b8bc64630604051602001620003f095949392919062000d34565b60405160208183030381529060405280519060200120905090565b6000604051905090565b600080fd5b600080fd5b600073ffffffffffffffffffffffffffffffffffffffff82169050919050565b60006200044c826200041f565b9050919050565b600062000460826200043f565b9050919050565b620004728162000453565b81146200047e57600080fd5b50565b600081519050620004928162000467565b92915050565b6000620004a5826200043f565b9050919050565b620004b78162000498565b8114620004c357600080fd5b50565b600081519050620004d781620004ac565b92915050565b620004e8816200043f565b8114620004f457600080fd5b50565b6000815190506200050881620004dd565b92915050565b60006200051b826200043f565b9050919050565b6200052d816200050e565b81146200053957600080fd5b50565b6000815190506200054d8162000522565b92915050565b600080600080600060a0868803121562000572576200057162000415565b5b6000620005828882890162000481565b9550506020620005958882890162000481565b9450506040620005a888828901620004c6565b9350506060620005bb88828901620004f7565b9250506080620005ce888289016200053c565b9150509295509295909350565b600060ff82169050919050565b620005f381620005db565b8114620005ff57600080fd5b50565b6000815190506200061381620005e8565b92915050565b60006020828403121562000632576200063162000415565b5b6000620006428482850162000602565b91505092915050565b600081519050919050565b7f4e487b7100000000000000000000000000000000000000000000000000000000600052604160045260246000fd5b7f4e487b7100000000000000000000000000000000000000000000000000000000600052602260045260246000fd5b60006002820490506001821680620006cd57607f821691505b602082108103620006e357620006e262000685565b5b50919050565b60008190508160005260206000209050919050565b60006020601f8301049050919050565b600082821b905092915050565b6000600883026200074d7fffffffffffffffffffffffffffffffffffffffffffffffffffffffffffffffff826200070e565b6200075986836200070e565b95508019841693508086168417925050509392505050565b6000819050919050565b6000819050919050565b6000620007a6620007a06200079a8462000771565b6200077b565b62000771565b9050919050565b6000819050919050565b620007c28362000785565b620007da620007d182620007ad565b8484546200071b565b825550505050565b600090565b620007f1620007e2565b620007fe818484620007b7565b505050565b5b8181101562000826576200081a600082620007e7565b60018101905062000804565b5050565b601f82111562000875576200083f81620006e9565b6200084a84620006fe565b810160208510156200085a578190505b620008726200086985620006fe565b83018262000803565b50505b505050565b600082821c905092915050565b60006200089a600019846008026200087a565b1980831691505092915050565b6000620008b5838362000887565b9150826002028217905092915050565b620008d0826200064b565b67ffffffffffffffff811115620008ec57620008eb62000656565b5b620008f88254620006b4565b620009058282856200082a565b600060209050601f8311600181146200093d576000841562000928578287015190505b620009348582620008a7565b865550620009a4565b601f1984166200094d86620006e9565b60005b82811015620009775784890151825560018201915060208501945060208101905062000950565b8683101562000997578489015162000993601f89168262000887565b8355505b6001600288020188555050505b505050505050565b600080fd5b600080fd5b6000601f19601f8301169050919050565b620009d282620009b6565b810181811067ffffffffffffffff82111715620009f457620009f362000656565b5b80604052505050565b600062000a096200040b565b905062000a178282620009c7565b919050565b600067ffffffffffffffff82111562000a3a5762000a3962000656565b5b62000a4582620009b6565b9050602081019050919050565b60005b8381101562000a7257808201518184015260208101905062000a55565b60008484015250505050565b600062000a9562000a8f8462000a1c565b620009fd565b90508281526020810184848401111562000ab45762000ab3620009b1565b5b62000ac184828562000a52565b509392505050565b600082601f83011262000ae15762000ae0620009ac565b5b815162000af384826020860162000a7e565b91505092915050565b60006020828403121562000b155762000b1462000415565b5b600082015167ffffffffffffffff81111562000b365762000b356200041a565b5b62000b448482850162000ac9565b91505092915050565b7f455243343632362d577261707065642041617665207633200000000000000000815250565b600081905092915050565b600062000b8b826200064b565b62000b97818562000b73565b935062000ba981856020860162000a52565b80840191505092915050565b600062000bc28262000b4d565b60188201915062000bd4828462000b7e565b915081905092915050565b7f7761000000000000000000000000000000000000000000000000000000000000815250565b600062000c128262000bdf565b60028201915062000c24828462000b7e565b915081905092915050565b600081905092915050565b60008190508160005260206000209050919050565b6000815462000c5e81620006b4565b62000c6a818662000c2f565b9450600182166000811462000c88576001811462000c9e5762000cd5565b60ff198316865281151582028601935062000cd5565b62000ca98562000c3a565b60005b8381101562000ccd5781548189015260018201915060208101905062000cac565b838801955050505b50505092915050565b600062000cec828462000c4f565b915081905092915050565b6000819050919050565b62000d0c8162000cf7565b82525050565b62000d1d8162000771565b82525050565b62000d2e816200043f565b82525050565b600060a08201905062000d4b600083018862000d01565b62000d5a602083018762000d01565b62000d69604083018662000d01565b62000d78606083018562000d12565b62000d87608083018462000d23565b9695505050505050565b60805160a05160c05160e0516101005161012051610140516101605161402c62000ebb60003960008181610d7d01526110e00152600081816109c90152610dba015260008181610ec0015281816113de0152818161175a01528181611a6e01528181611b3901528181611d8d0152818161229b0152818161286901526128d101526000818161073401528181610d0c01528181611028015281816113ba01528181611ca401528181611eb901526123c7015260008181610e9901528181610efc01528181611159015281816112640152818161179601528181611aaa01528181611b7501528181611dc901528181611e7d015281816122d70152818161238b0152818161288b015261290d01526000610c9701526000610c6301526000610c3d015261402c6000f3fe608060405234801561001057600080fd5b50600436106101fb5760003560e01c806370a082311161011a578063b460af94116100ad578063ce96cb771161007c578063ce96cb7714610654578063d505accf14610684578063d905777e146106a0578063dd62ed3e146106d0578063ef8b30f714610700576101fb565b8063b460af9414610594578063ba087652146105c4578063c63d75b6146105f4578063c6e6f59214610624576101fb565b8063a0c1f15e116100e9578063a0c1f15e146104f8578063a59a997314610516578063a9059cbb14610534578063b3d7f6b914610564576101fb565b806370a082311461044a5780637ecebe001461047a57806394bf804d146104aa57806395d89b41146104da576101fb565b8063313ce56711610192578063402d267d11610161578063402d267d1461039c5780634cdad506146103cc5780636bb65f53146103fc5780636e553f651461041a576101fb565b8063313ce567146103385780633644e51514610356578063372500ab1461037457806338d52e0f1461037e576101fb565b80630a28a477116101ce5780630a28a4771461029c57806317f33340146102cc57806318160ddd146102ea57806323b872dd14610308576101fb565b806301e1d1141461020057806306fdde031461021e57806307a2d13a1461023c578063095ea7b31461026c575b600080fd5b610208610730565b6040516102159190612b0a565b60405180910390f35b6102266107d1565b6040516102339190612bb5565b60405180910390f35b61025660048036038101906102519190612c17565b61085f565b6040516102639190612b0a565b60405180910390f35b61028660048036038101906102819190612ca2565b61089a565b6040516102939190612cfd565b60405180910390f35b6102b660048036038101906102b19190612c17565b61098c565b6040516102c39190612b0a565b60405180910390f35b6102d46109c7565b6040516102e19190612d27565b60405180910390f35b6102f26109eb565b6040516102ff9190612b0a565b60405180910390f35b610322600480360381019061031d9190612d42565b6109f1565b60405161032f9190612cfd565b60405180910390f35b610340610c3b565b60405161034d9190612db1565b60405180910390f35b61035e610c5f565b60405161036b9190612de5565b60405180910390f35b61037c610cbc565b005b610386610e97565b6040516103939190612e5f565b60405180910390f35b6103b660048036038101906103b19190612e7a565b610ebb565b6040516103c39190612b0a565b60405180910390f35b6103e660048036038101906103e19190612c17565b6110cc565b6040516103f39190612b0a565b60405180910390f35b6104046110de565b6040516104119190612ec8565b60405180910390f35b610434600480360381019061042f9190612ee3565b611102565b6040516104419190612b0a565b60405180910390f35b610464600480360381019061045f9190612e7a565b61121f565b6040516104719190612b0a565b60405180910390f35b610494600480360381019061048f9190612e7a565b611237565b6040516104a19190612b0a565b60405180910390f35b6104c460048036038101906104bf9190612ee3565b61124f565b6040516104d19190612b0a565b60405180910390f35b6104e261132a565b6040516104ef9190612bb5565b60405180910390f35b6105006113b8565b60405161050d9190612e5f565b60405180910390f35b61051e6113dc565b60405161052b9190612f44565b60405180910390f35b61054e60048036038101906105499190612ca2565b611400565b60405161055b9190612cfd565b60405180910390f35b61057e60048036038101906105799190612c17565b611514565b60405161058b9190612b0a565b60405180910390f35b6105ae60048036038101906105a99190612f5f565b61154f565b6040516105bb9190612b0a565b60405180910390f35b6105de60048036038101906105d99190612f5f565b611820565b6040516105eb9190612b0a565b60405180910390f35b61060e60048036038101906106099190612e7a565b611b34565b60405161061b9190612b0a565b60405180910390f35b61063e60048036038101906106399190612c17565b611d4d565b60405161064b9190612b0a565b60405180910390f35b61066e60048036038101906106699190612e7a565b611d88565b60405161067b9190612b0a565b60405180910390f35b61069e6004803603810190610699919061300a565b611f9d565b005b6106ba60048036038101906106b59190612e7a565b612296565b6040516106c79190612b0a565b60405180910390f35b6106ea60048036038101906106e591906130ac565b6124b1565b6040516106f79190612b0a565b60405180910390f35b61071a60048036038101906107159190612c17565b6124d6565b6040516107279190612b0a565b60405180910390f35b60007f000000000000000000000000000000000000000000000000000000000000000073ffffffffffffffffffffffffffffffffffffffff166370a08231306040518263ffffffff1660e01b815260040161078b9190612d27565b602060405180830381865afa1580156107a8573d6000803e3d6000fd5b505050506040513d601f19601f820116820180604052508101906107cc9190613101565b905090565b600080546107de9061315d565b80601f016020809104026020016040519081016040528092919081815260200182805461080a9061315d565b80156108575780601f1061082c57610100808354040283529160200191610857565b820191906000526020600020905b81548152906001019060200180831161083a57829003601f168201915b505050505081565b6000806002549050600081146108905761088b61087a610730565b82856124e89092919063ffffffff16565b610892565b825b915050919050565b600081600460003373ffffffffffffffffffffffffffffffffffffffff1673ffffffffffffffffffffffffffffffffffffffff16815260200190815260200160002060008573ffffffffffffffffffffffffffffffffffffffff1673ffffffffffffffffffffffffffffffffffffffff168152602001908152602001600020819055508273ffffffffffffffffffffffffffffffffffffffff163373ffffffffffffffffffffffffffffffffffffffff167f8c5be1e5ebec7d5bd14f71427d1e84f3dd0314c0f7b2291e5b200ac8c7c3b9258460405161097a9190612b0a565b60405180910390a36001905092915050565b6000806002549050600081146109bd576109b8816109a8610730565b8561252b9092919063ffffffff16565b6109bf565b825b915050919050565b7f000000000000000000000000000000000000000000000000000000000000000081565b60025481565b600080600460008673ffffffffffffffffffffffffffffffffffffffff1673ffffffffffffffffffffffffffffffffffffffff16815260200190815260200160002060003373ffffffffffffffffffffffffffffffffffffffff1673ffffffffffffffffffffffffffffffffffffffff1681526020019081526020016000205490507fffffffffffffffffffffffffffffffffffffffffffffffffffffffffffffffff8114610b27578281610aa691906131bd565b600460008773ffffffffffffffffffffffffffffffffffffffff1673ffffffffffffffffffffffffffffffffffffffff16815260200190815260200160002060003373ffffffffffffffffffffffffffffffffffffffff1673ffffffffffffffffffffffffffffffffffffffff168152602001908152602001600020819055505b82600360008773ffffffffffffffffffffffffffffffffffffffff1673ffffffffffffffffffffffffffffffffffffffff1681526020019081526020016000206000828254610b7691906131bd565b9250508190555082600360008673ffffffffffffffffffffffffffffffffffffffff1673ffffffffffffffffffffffffffffffffffffffff168152602001908152602001600020600082825401925050819055508373ffffffffffffffffffffffffffffffffffffffff168573ffffffffffffffffffffffffffffffffffffffff167fddf252ad1be2c89b69c2b068fc378daa952ba7f163c4a11628f55a4df523b3ef85604051610c279190612b0a565b60405180910390a360019150509392505050565b7f000000000000000000000000000000000000000000000000000000000000000081565b60007f00000000000000000000000000000000000000000000000000000000000000004614610c9557610c90612577565b610cb7565b7f00000000000000000000000000000000000000000000000000000000000000005b905090565b6000600167ffffffffffffffff811115610cd957610cd86131f1565b5b604051908082528060200260200182016040528015610d075781602001602082028036833780820191505090505b5090507f000000000000000000000000000000000000000000000000000000000000000081600081518110610d3f57610d3e613220565b5b602002602001019073ffffffffffffffffffffffffffffffffffffffff16908173ffffffffffffffffffffffffffffffffffffffff168152505060007f000000000000000000000000000000000000000000000000000000000000000073ffffffffffffffffffffffffffffffffffffffff1663bb492bf5837f00000000000000000000000000000000000000000000000000000000000000006040518363ffffffff1660e01b8152600401610df692919061330d565b6000604051808303816000875af1158015610e15573d6000803e3d6000fd5b505050506040513d6000823e3d601f19601f82011682018060405250810190610e3e919061352e565b9150507fbacfa9662d479c707dae707c358323f0c7711ef382007957dc9935e629da36b281600081518110610e7657610e75613220565b5b6020026020010151604051610e8b9190612b0a565b60405180910390a15050565b7f000000000000000000000000000000000000000000000000000000000000000081565b6000807f000000000000000000000000000000000000000000000000000000000000000073ffffffffffffffffffffffffffffffffffffffff166335ea6a757f00000000000000000000000000000000000000000000000000000000000000006040518263ffffffff1660e01b8152600401610f379190612d27565b6101e060405180830381865afa158015610f55573d6000803e3d6000fd5b505050506040513d601f19601f82011682018060405250810190610f79919061380a565b60000151600001519050610f8c81612603565b8015610f9e5750610f9c81612633565b155b8015610fb05750610fae81612663565b155b610fbe5760009150506110c7565b6000610fc982612693565b905060008103610ffd577fffffffffffffffffffffffffffffffffffffffffffffffffffffffffffffffff925050506110c7565b6000611008836126c4565b9050600081600a611019919061396b565b8361102491906139b6565b90507f000000000000000000000000000000000000000000000000000000000000000073ffffffffffffffffffffffffffffffffffffffff166318160ddd6040518163ffffffff1660e01b8152600401602060405180830381865afa158015611091573d6000803e3d6000fd5b505050506040513d601f19601f820116820180604052508101906110b59190613101565b816110c091906131bd565b9450505050505b919050565b60006110d78261085f565b9050919050565b7f000000000000000000000000000000000000000000000000000000000000000081565b60008061110e846124d6565b91508103611151576040517f08c379a000000000000000000000000000000000000000000000000000000000815260040161114890613a44565b60405180910390fd5b61119e3330857f000000000000000000000000000000000000000000000000000000000000000073ffffffffffffffffffffffffffffffffffffffff166126f5909392919063ffffffff16565b6111a88282612794565b8173ffffffffffffffffffffffffffffffffffffffff163373ffffffffffffffffffffffffffffffffffffffff167fdcbc1c05240f31ff3ad067ef1ee35ce4997762752e3a095284754544f4c709d78584604051611207929190613a64565b60405180910390a36112198382612864565b92915050565b60036020528060005260406000206000915090505481565b60056020528060005260406000206000915090505481565b600061125a83611514565b90506112a93330837f000000000000000000000000000000000000000000000000000000000000000073ffffffffffffffffffffffffffffffffffffffff166126f5909392919063ffffffff16565b6112b38284612794565b8173ffffffffffffffffffffffffffffffffffffffff163373ffffffffffffffffffffffffffffffffffffffff167fdcbc1c05240f31ff3ad067ef1ee35ce4997762752e3a095284754544f4c709d78386604051611312929190613a64565b60405180910390a36113248184612864565b92915050565b600180546113379061315d565b80601f01602080910402602001604051908101604052809291908181526020018280546113639061315d565b80156113b05780601f10611385576101008083540402835291602001916113b0565b820191906000526020600020905b81548152906001019060200180831161139357829003601f168201915b505050505081565b7f000000000000000000000000000000000000000000000000000000000000000081565b7f000000000000000000000000000000000000000000000000000000000000000081565b600081600360003373ffffffffffffffffffffffffffffffffffffffff1673ffffffffffffffffffffffffffffffffffffffff168152602001908152602001600020600082825461145191906131bd565b9250508190555081600360008573ffffffffffffffffffffffffffffffffffffffff1673ffffffffffffffffffffffffffffffffffffffff168152602001908152602001600020600082825401925050819055508273ffffffffffffffffffffffffffffffffffffffff163373ffffffffffffffffffffffffffffffffffffffff167fddf252ad1be2c89b69c2b068fc378daa952ba7f163c4a11628f55a4df523b3ef846040516115029190612b0a565b60405180910390a36001905092915050565b6000806002549050600081146115455761154061152f610730565b828561252b9092919063ffffffff16565b611547565b825b915050919050565b600061155a8461098c565b90508173ffffffffffffffffffffffffffffffffffffffff163373ffffffffffffffffffffffffffffffffffffffff16146116c6576000600460008473ffffffffffffffffffffffffffffffffffffffff1673ffffffffffffffffffffffffffffffffffffffff16815260200190815260200160002060003373ffffffffffffffffffffffffffffffffffffffff1673ffffffffffffffffffffffffffffffffffffffff1681526020019081526020016000205490507fffffffffffffffffffffffffffffffffffffffffffffffffffffffffffffffff81146116c457818161164391906131bd565b600460008573ffffffffffffffffffffffffffffffffffffffff1673ffffffffffffffffffffffffffffffffffffffff16815260200190815260200160002060003373ffffffffffffffffffffffffffffffffffffffff1673ffffffffffffffffffffffffffffffffffffffff168152602001908152602001600020819055505b505b6116d08482612985565b6116da8282612989565b8173ffffffffffffffffffffffffffffffffffffffff168373ffffffffffffffffffffffffffffffffffffffff163373ffffffffffffffffffffffffffffffffffffffff167ffbde797d201c681b91056529119e0b02407c7bb96a4a2c75c01fc9667232c8db8785604051611750929190613a64565b60405180910390a47f000000000000000000000000000000000000000000000000000000000000000073ffffffffffffffffffffffffffffffffffffffff166369328dec7f000000000000000000000000000000000000000000000000000000000000000086866040518463ffffffff1660e01b81526004016117d593929190613a8d565b6020604051808303816000875af11580156117f4573d6000803e3d6000fd5b505050506040513d601f19601f820116820180604052508101906118189190613101565b509392505050565b60008173ffffffffffffffffffffffffffffffffffffffff163373ffffffffffffffffffffffffffffffffffffffff161461198c576000600460008473ffffffffffffffffffffffffffffffffffffffff1673ffffffffffffffffffffffffffffffffffffffff16815260200190815260200160002060003373ffffffffffffffffffffffffffffffffffffffff1673ffffffffffffffffffffffffffffffffffffffff1681526020019081526020016000205490507fffffffffffffffffffffffffffffffffffffffffffffffffffffffffffffffff811461198a57848161190991906131bd565b600460008573ffffffffffffffffffffffffffffffffffffffff1673ffffffffffffffffffffffffffffffffffffffff16815260200190815260200160002060003373ffffffffffffffffffffffffffffffffffffffff1673ffffffffffffffffffffffffffffffffffffffff168152602001908152602001600020819055505b505b6000611997856110cc565b915081036119da576040517f08c379a00000000000000000000000000000000000000000000000000000000081526004016119d190613b10565b60405180910390fd5b6119e48185612985565b6119ee8285612989565b8173ffffffffffffffffffffffffffffffffffffffff168373ffffffffffffffffffffffffffffffffffffffff163373ffffffffffffffffffffffffffffffffffffffff167ffbde797d201c681b91056529119e0b02407c7bb96a4a2c75c01fc9667232c8db8488604051611a64929190613a64565b60405180910390a47f000000000000000000000000000000000000000000000000000000000000000073ffffffffffffffffffffffffffffffffffffffff166369328dec7f000000000000000000000000000000000000000000000000000000000000000083866040518463ffffffff1660e01b8152600401611ae993929190613a8d565b6020604051808303816000875af1158015611b08573d6000803e3d6000fd5b505050506040513d601f19601f82011682018060405250810190611b2c9190613101565b509392505050565b6000807f000000000000000000000000000000000000000000000000000000000000000073ffffffffffffffffffffffffffffffffffffffff166335ea6a757f00000000000000000000000000000000000000000000000000000000000000006040518263ffffffff1660e01b8152600401611bb09190612d27565b6101e060405180830381865afa158015611bce573d6000803e3d6000fd5b505050506040513d601f19601f82011682018060405250810190611bf2919061380a565b60000151600001519050611c0581612603565b8015611c175750611c1581612633565b155b8015611c295750611c2781612663565b155b611c37576000915050611d48565b6000611c4282612693565b905060008103611c76577fffffffffffffffffffffffffffffffffffffffffffffffffffffffffffffffff92505050611d48565b6000611c81836126c4565b9050600081600a611c92919061396b565b83611c9d91906139b6565b9050611d417f000000000000000000000000000000000000000000000000000000000000000073ffffffffffffffffffffffffffffffffffffffff166318160ddd6040518163ffffffff1660e01b8152600401602060405180830381865afa158015611d0d573d6000803e3d6000fd5b505050506040513d601f19601f82011682018060405250810190611d319190613101565b82611d3c91906131bd565b611d4d565b9450505050505b919050565b600080600254905060008114611d7e57611d7981611d69610730565b856124e89092919063ffffffff16565b611d80565b825b915050919050565b6000807f000000000000000000000000000000000000000000000000000000000000000073ffffffffffffffffffffffffffffffffffffffff166335ea6a757f00000000000000000000000000000000000000000000000000000000000000006040518263ffffffff1660e01b8152600401611e049190612d27565b6101e060405180830381865afa158015611e22573d6000803e3d6000fd5b505050506040513d601f19601f82011682018060405250810190611e46919061380a565b60000151600001519050611e5981612603565b8015611e6b5750611e6981612663565b155b611e79576000915050611f98565b60007f000000000000000000000000000000000000000000000000000000000000000073ffffffffffffffffffffffffffffffffffffffff166370a082317f00000000000000000000000000000000000000000000000000000000000000006040518263ffffffff1660e01b8152600401611ef49190612d27565b602060405180830381865afa158015611f11573d6000803e3d6000fd5b505050506040513d601f19601f82011682018060405250810190611f359190613101565b90506000611f81600360008773ffffffffffffffffffffffffffffffffffffffff1673ffffffffffffffffffffffffffffffffffffffff1681526020019081526020016000205461085f565b9050808210611f905780611f92565b815b93505050505b919050565b42841015611fe0576040517f08c379a0000000000000000000000000000000000000000000000000000000008152600401611fd790613b7c565b60405180910390fd5b60006001611fec610c5f565b7f6e71edae12b1b97f4d1f60370fef10105fa2faae0126114a169c64845d6126c98a8a8a600560008f73ffffffffffffffffffffffffffffffffffffffff1673ffffffffffffffffffffffffffffffffffffffff1681526020019081526020016000206000815480929190600101919050558b60405160200161207496959493929190613b9c565b6040516020818303038152906040528051906020012060405160200161209b929190613c75565b60405160208183030381529060405280519060200120858585604051600081526020016040526040516120d19493929190613cac565b6020604051602081039080840390855afa1580156120f3573d6000803e3d6000fd5b505050602060405103519050600073ffffffffffffffffffffffffffffffffffffffff168173ffffffffffffffffffffffffffffffffffffffff161415801561216757508773ffffffffffffffffffffffffffffffffffffffff168173ffffffffffffffffffffffffffffffffffffffff16145b6121a6576040517f08c379a000000000000000000000000000000000000000000000000000000000815260040161219d90613d3d565b60405180910390fd5b85600460008373ffffffffffffffffffffffffffffffffffffffff1673ffffffffffffffffffffffffffffffffffffffff16815260200190815260200160002060008973ffffffffffffffffffffffffffffffffffffffff1673ffffffffffffffffffffffffffffffffffffffff16815260200190815260200160002081905550508573ffffffffffffffffffffffffffffffffffffffff168773ffffffffffffffffffffffffffffffffffffffff167f8c5be1e5ebec7d5bd14f71427d1e84f3dd0314c0f7b2291e5b200ac8c7c3b925876040516122859190612b0a565b60405180910390a350505050505050565b6000807f000000000000000000000000000000000000000000000000000000000000000073ffffffffffffffffffffffffffffffffffffffff166335ea6a757f00000000000000000000000000000000000000000000000000000000000000006040518263ffffffff1660e01b81526004016123129190612d27565b6101e060405180830381865afa158015612330573d6000803e3d6000fd5b505050506040513d601f19601f82011682018060405250810190612354919061380a565b6000015160000151905061236781612603565b8015612379575061237781612663565b155b6123875760009150506124ac565b60007f000000000000000000000000000000000000000000000000000000000000000073ffffffffffffffffffffffffffffffffffffffff166370a082317f00000000000000000000000000000000000000000000000000000000000000006040518263ffffffff1660e01b81526004016124029190612d27565b602060405180830381865afa15801561241f573d6000803e3d6000fd5b505050506040513d601f19601f820116820180604052508101906124439190613101565b9050600061245082611d4d565b90506000600360008773ffffffffffffffffffffffffffffffffffffffff1673ffffffffffffffffffffffffffffffffffffffff1681526020019081526020016000205490508082106124a357806124a5565b815b9450505050505b919050565b6004602052816000526040600020602052806000526040600020600091509150505481565b60006124e182611d4d565b9050919050565b6000827fffffffffffffffffffffffffffffffffffffffffffffffffffffffffffffffff048411830215820261251d57600080fd5b818385020490509392505050565b6000827fffffffffffffffffffffffffffffffffffffffffffffffffffffffffffffffff048411830215820261256057600080fd5b818385020460008385870206110190509392505050565b60007f8b73c3c69bb8fe3d512ecc4cf759cc79239f7b179b0ffacaa9a75d522b39400f60006040516125a99190613e00565b60405180910390207fc89efdaa54c0f20c7adf612882df0950f5a951637e0307cdcb4c672f298b8bc646306040516020016125e8959493929190613e17565b60405160208183030381529060405280519060200120905090565b6000807ffffffffffffffffffffffffffffffffffffffffffffffffffeffffffffffffff19831614159050919050565b6000807ffffffffffffffffffffffffffffffffffffffffffffffffffdffffffffffffff19831614159050919050565b6000807fffffffffffffffffffffffffffffffffffffffffffffffffefffffffffffffff19831614159050919050565b600060747fffffffffffffffffffffffffff000000000fffffffffffffffffffffffffffff198316901c9050919050565b600060307fffffffffffffffffffffffffffffffffffffffffffffffffff00ffffffffffff198316901c9050919050565b60006040517f23b872dd0000000000000000000000000000000000000000000000000000000081528460048201528360248201528260448201526020600060648360008a5af13d15601f3d116001600051141617169150508061278d576040517f08c379a000000000000000000000000000000000000000000000000000000000815260040161278490613eb6565b60405180910390fd5b5050505050565b80600260008282546127a69190613ed6565b9250508190555080600360008473ffffffffffffffffffffffffffffffffffffffff1673ffffffffffffffffffffffffffffffffffffffff168152602001908152602001600020600082825401925050819055508173ffffffffffffffffffffffffffffffffffffffff16600073ffffffffffffffffffffffffffffffffffffffff167fddf252ad1be2c89b69c2b068fc378daa952ba7f163c4a11628f55a4df523b3ef836040516128589190612b0a565b60405180910390a35050565b6128cf7f0000000000000000000000000000000000000000000000000000000000000000837f000000000000000000000000000000000000000000000000000000000000000073ffffffffffffffffffffffffffffffffffffffff16612a599092919063ffffffff16565b7f000000000000000000000000000000000000000000000000000000000000000073ffffffffffffffffffffffffffffffffffffffff1663617ba0377f0000000000000000000000000000000000000000000000000000000000000000843060006040518563ffffffff1660e01b815260040161294f9493929190613f45565b600060405180830381600087803b15801561296957600080fd5b505af115801561297d573d6000803e3d6000fd5b505050505050565b5050565b80600360008473ffffffffffffffffffffffffffffffffffffffff1673ffffffffffffffffffffffffffffffffffffffff16815260200190815260200160002060008282546129d891906131bd565b9250508190555080600260008282540392505081905550600073ffffffffffffffffffffffffffffffffffffffff168273ffffffffffffffffffffffffffffffffffffffff167fddf252ad1be2c89b69c2b068fc378daa952ba7f163c4a11628f55a4df523b3ef83604051612a4d9190612b0a565b60405180910390a35050565b60006040517f095ea7b3000000000000000000000000000000000000000000000000000000008152836004820152826024820152602060006044836000895af13d15601f3d1160016000511416171691505080612aeb576040517f08c379a0000000000000000000000000000000000000000000000000000000008152600401612ae290613fd6565b60405180910390fd5b50505050565b6000819050919050565b612b0481612af1565b82525050565b6000602082019050612b1f6000830184612afb565b92915050565b600081519050919050565b600082825260208201905092915050565b60005b83811015612b5f578082015181840152602081019050612b44565b60008484015250505050565b6000601f19601f8301169050919050565b6000612b8782612b25565b612b918185612b30565b9350612ba1818560208601612b41565b612baa81612b6b565b840191505092915050565b60006020820190508181036000830152612bcf8184612b7c565b905092915050565b6000604051905090565b600080fd5b600080fd5b612bf481612af1565b8114612bff57600080fd5b50565b600081359050612c1181612beb565b92915050565b600060208284031215612c2d57612c2c612be1565b5b6000612c3b84828501612c02565b91505092915050565b600073ffffffffffffffffffffffffffffffffffffffff82169050919050565b6000612c6f82612c44565b9050919050565b612c7f81612c64565b8114612c8a57600080fd5b50565b600081359050612c9c81612c76565b92915050565b60008060408385031215612cb957612cb8612be1565b5b6000612cc785828601612c8d565b9250506020612cd885828601612c02565b9150509250929050565b60008115159050919050565b612cf781612ce2565b82525050565b6000602082019050612d126000830184612cee565b92915050565b612d2181612c64565b82525050565b6000602082019050612d3c6000830184612d18565b92915050565b600080600060608486031215612d5b57612d5a612be1565b5b6000612d6986828701612c8d565b9350506020612d7a86828701612c8d565b9250506040612d8b86828701612c02565b9150509250925092565b600060ff82169050919050565b612dab81612d95565b82525050565b6000602082019050612dc66000830184612da2565b92915050565b6000819050919050565b612ddf81612dcc565b82525050565b6000602082019050612dfa6000830184612dd6565b92915050565b6000819050919050565b6000612e25612e20612e1b84612c44565b612e00565b612c44565b9050919050565b6000612e3782612e0a565b9050919050565b6000612e4982612e2c565b9050919050565b612e5981612e3e565b82525050565b6000602082019050612e746000830184612e50565b92915050565b600060208284031215612e9057612e8f612be1565b5b6000612e9e84828501612c8d565b91505092915050565b6000612eb282612e2c565b9050919050565b612ec281612ea7565b82525050565b6000602082019050612edd6000830184612eb9565b92915050565b60008060408385031215612efa57612ef9612be1565b5b6000612f0885828601612c02565b9250506020612f1985828601612c8d565b9150509250929050565b6000612f2e82612e2c565b9050919050565b612f3e81612f23565b82525050565b6000602082019050612f596000830184612f35565b92915050565b600080600060608486031215612f7857612f77612be1565b5b6000612f8686828701612c02565b9350506020612f9786828701612c8d565b9250506040612fa886828701612c8d565b9150509250925092565b612fbb81612d95565b8114612fc657600080fd5b50565b600081359050612fd881612fb2565b92915050565b612fe781612dcc565b8114612ff257600080fd5b50565b60008135905061300481612fde565b92915050565b600080600080600080600060e0888a03121561302957613028612be1565b5b60006130378a828b01612c8d565b97505060206130488a828b01612c8d565b96505060406130598a828b01612c02565b955050606061306a8a828b01612c02565b945050608061307b8a828b01612fc9565b93505060a061308c8a828b01612ff5565b92505060c061309d8a828b01612ff5565b91505092959891949750929550565b600080604083850312156130c3576130c2612be1565b5b60006130d185828601612c8d565b92505060206130e285828601612c8d565b9150509250929050565b6000815190506130fb81612beb565b92915050565b60006020828403121561311757613116612be1565b5b6000613125848285016130ec565b91505092915050565b7f4e487b7100000000000000000000000000000000000000000000000000000000600052602260045260246000fd5b6000600282049050600182168061317557607f821691505b6020821081036131885761318761312e565b5b50919050565b7f4e487b7100000000000000000000000000000000000000000000000000000000600052601160045260246000fd5b60006131c882612af1565b91506131d383612af1565b92508282039050818111156131eb576131ea61318e565b5b92915050565b7f4e487b7100000000000000000000000000000000000000000000000000000000600052604160045260246000fd5b7f4e487b7100000000000000000000000000000000000000000000000000000000600052603260045260246000fd5b600081519050919050565b600082825260208201905092915050565b6000819050602082019050919050565b61328481612c64565b82525050565b6000613296838361327b565b60208301905092915050565b6000602082019050919050565b60006132ba8261324f565b6132c4818561325a565b93506132cf8361326b565b8060005b838110156133005781516132e7888261328a565b97506132f2836132a2565b9250506001810190506132d3565b5085935050505092915050565b6000604082019050818103600083015261332781856132af565b90506133366020830184612d18565b9392505050565b600080fd5b61334b82612b6b565b810181811067ffffffffffffffff8211171561336a576133696131f1565b5b80604052505050565b600061337d612bd7565b90506133898282613342565b919050565b600067ffffffffffffffff8211156133a9576133a86131f1565b5b602082029050602081019050919050565b600080fd5b6000815190506133ce81612c76565b92915050565b60006133e76133e28461338e565b613373565b9050808382526020820190506020840283018581111561340a576134096133ba565b5b835b81811015613433578061341f88826133bf565b84526020840193505060208101905061340c565b5050509392505050565b600082601f8301126134525761345161333d565b5b81516134628482602086016133d4565b91505092915050565b600067ffffffffffffffff821115613486576134856131f1565b5b602082029050602081019050919050565b60006134aa6134a58461346b565b613373565b905080838252602082019050602084028301858111156134cd576134cc6133ba565b5b835b818110156134f657806134e288826130ec565b8452602084019350506020810190506134cf565b5050509392505050565b600082601f8301126135155761351461333d565b5b8151613525848260208601613497565b91505092915050565b6000806040838503121561354557613544612be1565b5b600083015167ffffffffffffffff81111561356357613562612be6565b5b61356f8582860161343d565b925050602083015167ffffffffffffffff8111156135905761358f612be6565b5b61359c85828601613500565b9150509250929050565b600080fd5b6000602082840312156135c1576135c06135a6565b5b6135cb6020613373565b905060006135db848285016130ec565b60008301525092915050565b60006fffffffffffffffffffffffffffffffff82169050919050565b61360c816135e7565b811461361757600080fd5b50565b60008151905061362981613603565b92915050565b600064ffffffffff82169050919050565b6136498161362f565b811461365457600080fd5b50565b60008151905061366681613640565b92915050565b600061ffff82169050919050565b6136838161366c565b811461368e57600080fd5b50565b6000815190506136a08161367a565b92915050565b60006101e082840312156136bd576136bc6135a6565b5b6136c86101e0613373565b905060006136d8848285016135ab565b60008301525060206136ec8482850161361a565b60208301525060406137008482850161361a565b60408301525060606137148482850161361a565b60608301525060806137288482850161361a565b60808301525060a061373c8482850161361a565b60a08301525060c061375084828501613657565b60c08301525060e061376484828501613691565b60e083015250610100613779848285016133bf565b6101008301525061012061378f848285016133bf565b610120830152506101406137a5848285016133bf565b610140830152506101606137bb848285016133bf565b610160830152506101806137d18482850161361a565b610180830152506101a06137e78482850161361a565b6101a0830152506101c06137fd8482850161361a565b6101c08301525092915050565b60006101e0828403121561382157613820612be1565b5b600061382f848285016136a6565b91505092915050565b60008160011c9050919050565b6000808291508390505b600185111561388f5780860481111561386b5761386a61318e565b5b600185161561387a5780820291505b808102905061388885613838565b945061384f565b94509492505050565b6000826138a85760019050613964565b816138b65760009050613964565b81600181146138cc57600281146138d657613905565b6001915050613964565b60ff8411156138e8576138e761318e565b5b8360020a9150848211156138ff576138fe61318e565b5b50613964565b5060208310610133831016604e8410600b841016171561393a5782820a9050838111156139355761393461318e565b5b613964565b6139478484846001613845565b9250905081840481111561395e5761395d61318e565b5b81810290505b9392505050565b600061397682612af1565b915061398183612d95565b92506139ae7fffffffffffffffffffffffffffffffffffffffffffffffffffffffffffffffff8484613898565b905092915050565b60006139c182612af1565b91506139cc83612af1565b92508282026139da81612af1565b915082820484148315176139f1576139f061318e565b5b5092915050565b7f5a45524f5f534841524553000000000000000000000000000000000000000000600082015250565b6000613a2e600b83612b30565b9150613a39826139f8565b602082019050919050565b60006020820190508181036000830152613a5d81613a21565b9050919050565b6000604082019050613a796000830185612afb565b613a866020830184612afb565b9392505050565b6000606082019050613aa26000830186612d18565b613aaf6020830185612afb565b613abc6040830184612d18565b949350505050565b7f5a45524f5f415353455453000000000000000000000000000000000000000000600082015250565b6000613afa600b83612b30565b9150613b0582613ac4565b602082019050919050565b60006020820190508181036000830152613b2981613aed565b9050919050565b7f5045524d49545f444541444c494e455f45585049524544000000000000000000600082015250565b6000613b66601783612b30565b9150613b7182613b30565b602082019050919050565b60006020820190508181036000830152613b9581613b59565b9050919050565b600060c082019050613bb16000830189612dd6565b613bbe6020830188612d18565b613bcb6040830187612d18565b613bd86060830186612afb565b613be56080830185612afb565b613bf260a0830184612afb565b979650505050505050565b600081905092915050565b7f1901000000000000000000000000000000000000000000000000000000000000600082015250565b6000613c3e600283613bfd565b9150613c4982613c08565b600282019050919050565b6000819050919050565b613c6f613c6a82612dcc565b613c54565b82525050565b6000613c8082613c31565b9150613c8c8285613c5e565b602082019150613c9c8284613c5e565b6020820191508190509392505050565b6000608082019050613cc16000830187612dd6565b613cce6020830186612da2565b613cdb6040830185612dd6565b613ce86060830184612dd6565b95945050505050565b7f494e56414c49445f5349474e4552000000000000000000000000000000000000600082015250565b6000613d27600e83612b30565b9150613d3282613cf1565b602082019050919050565b60006020820190508181036000830152613d5681613d1a565b9050919050565b600081905092915050565b60008190508160005260206000209050919050565b60008154613d8a8161315d565b613d948186613d5d565b94506001821660008114613daf5760018114613dc457613df7565b60ff1983168652811515820286019350613df7565b613dcd85613d68565b60005b83811015613def57815481890152600182019150602081019050613dd0565b838801955050505b50505092915050565b6000613e0c8284613d7d565b915081905092915050565b600060a082019050613e2c6000830188612dd6565b613e396020830187612dd6565b613e466040830186612dd6565b613e536060830185612afb565b613e606080830184612d18565b9695505050505050565b7f5452414e534645525f46524f4d5f4641494c4544000000000000000000000000600082015250565b6000613ea0601483612b30565b9150613eab82613e6a565b602082019050919050565b60006020820190508181036000830152613ecf81613e93565b9050919050565b6000613ee182612af1565b9150613eec83612af1565b9250828201905080821115613f0457613f0361318e565b5b92915050565b6000819050919050565b6000613f2f613f2a613f2584613f0a565b612e00565b61366c565b9050919050565b613f3f81613f14565b82525050565b6000608082019050613f5a6000830187612d18565b613f676020830186612afb565b613f746040830185612d18565b613f816060830184613f36565b95945050505050565b7f415050524f56455f4641494c4544000000000000000000000000000000000000600082015250565b6000613fc0600e83612b30565b9150613fcb82613f8a565b602082019050919050565b60006020820190508181036000830152613fef81613fb3565b905091905056fea26469706673582212203bd8b268f60ed515630c7f74bbf780f505073e084b766f7347363fdba0927dae64736f6c63430008130033",
  "immutableReferences": {
    "2312": [
      {
        "length": 32,
        "start": 3737
      },
      {
        "length": 32,
        "start": 3836
      },
      {
        "length": 32,
        "start": 4441
      },
      {
        "length": 32,
        "start": 4708
      },
      {
        "length": 32,
        "start": 6038
      },
      {
        "length": 32,
        "start": 6826
      },
      {
        "length": 32,
        "start": 7029
      },
      {
        "length": 32,
        "start": 7625
      },
      {
        "length": 32,
        "start": 7805
      },
      {
        "length": 32,
        "start": 8919
      },
      {
        "length": 32,
        "start": 9099
      },
      {
        "length": 32,
        "start": 10379
      },
      {
        "length": 32,
        "start": 10509
      }
    ],
    "2815": [
      {
        "length": 32,
        "start": 3133
      }
    ],
    "2829": [
      {
        "length": 32,
        "start": 3171
      }
    ],
    "2831": [
      {
        "length": 32,
        "start": 3223
      }
    ],
    "3511": [
      {
        "length": 32,
        "start": 1844
      },
      {
        "length": 32,
        "start": 3340
      },
      {
        "length": 32,
        "start": 4136
      },
      {
        "length": 32,
        "start": 5050
      },
      {
        "length": 32,
        "start": 7332
      },
      {
        "length": 32,
        "start": 7865
      },
      {
        "length": 32,
        "start": 9159
      }
    ],
    "3515": [
      {
        "length": 32,
        "start": 3776
      },
      {
        "length": 32,
        "start": 5086
      },
      {
        "length": 32,
        "start": 5978
      },
      {
        "length": 32,
        "start": 6766
      },
      {
        "length": 32,
        "start": 6969
      },
      {
        "length": 32,
        "start": 7565
      },
      {
        "length": 32,
        "start": 8859
      },
      {
        "length": 32,
        "start": 10345
      },
      {
        "length": 32,
        "start": 10449
      }
    ],
    "3518": [
      {
        "length": 32,
        "start": 2505
      },
      {
        "length": 32,
        "start": 3514
      }
    ],
    "3522": [
      {
        "length": 32,
        "start": 3453
      },
      {
        "length": 32,
        "start": 4320
      }
    ]
  },
  "source": "// SPDX-License-Identifier: AGPL-3.0\npragma solidity ^0.8.13;\n\nimport {ERC20} from \"../../solmate/tokens/ERC20.sol\";\nimport {ERC4626} from \"../../solmate/mixins/ERC4626.sol\";\nimport {SafeTransferLib} from \"../../solmate/utils/SafeTransferLib.sol\";\n\nimport {IPool} from \"./external/IPool.sol\";\nimport {IRewardsController} from \"./external/IRewardsController.sol\";\n\n/// @title AaveV3ERC4626\n/// @author zefram.eth\n/// @notice ERC4626 wrapper for Aave V3\n/// @dev Important security note: due to Aave using a rebasing model for aTokens,\n/// this contract cannot independently keep track of the deposited funds, so it is possible\n/// for an attacker to directly transfer aTokens to this contract, increase the vault share\n/// price atomically, and then exploit an external lending market that uses this contract\n/// as collateral.\ncontract AaveV3ERC4626 is ERC4626 {\n    /// -----------------------------------------------------------------------\n    /// Libraries usage\n    /// -----------------------------------------------------------------------\n\n    using SafeTransferLib for ERC20;\n\n    /// -----------------------------------------------------------------------\n    /// Events\n    /// -----------------------------------------------------------------------\n\n    event ClaimRewards(uint256 amount);\n\n    /// -----------------------------------------------------------------------\n    /// Constants\n    /// -----------------------------------------------------------------------\n\n    uint256 internal constant DECIMALS_MASK = 0xFFFFFFFFFFFFFFFFFFFFFFFFFFFFFFFFFFFFFFFFFFFFFFFFFF00FFFFFFFFFFFF;\n    uint256 internal constant ACTIVE_MASK = 0xFFFFFFFFFFFFFFFFFFFFFFFFFFFFFFFFFFFFFFFFFFFFFFFFFEFFFFFFFFFFFFFF;\n    uint256 internal constant FROZEN_MASK = 0xFFFFFFFFFFFFFFFFFFFFFFFFFFFFFFFFFFFFFFFFFFFFFFFFFDFFFFFFFFFFFFFF;\n    uint256 internal constant PAUSED_MASK = 0xFFFFFFFFFFFFFFFFFFFFFFFFFFFFFFFFFFFFFFFFFFFFFFFFEFFFFFFFFFFFFFFF;\n    uint256 internal constant SUPPLY_CAP_MASK = 0xFFFFFFFFFFFFFFFFFFFFFFFFFF000000000FFFFFFFFFFFFFFFFFFFFFFFFFFFFF;\n\n    uint256 internal constant SUPPLY_CAP_START_BIT_POSITION = 116;\n    uint256 internal constant RESERVE_DECIMALS_START_BIT_POSITION = 48;\n\n    /// -----------------------------------------------------------------------\n    /// Immutable params\n    /// -----------------------------------------------------------------------\n\n    /// @notice The Aave aToken contract\n    ERC20 public immutable aToken;\n\n    /// @notice The Aave Pool contract\n    IPool public immutable lendingPool;\n\n    /// @notice The address that will receive the liquidity mining rewards (if any)\n    address public immutable rewardRecipient;\n\n    /// @notice The Aave RewardsController contract\n    IRewardsController public immutable rewardsController;\n\n    /// -----------------------------------------------------------------------\n    /// Constructor\n    /// -----------------------------------------------------------------------\n\n    constructor(\n        ERC20 asset_,\n        ERC20 aToken_,\n        IPool lendingPool_,\n        address rewardRecipient_,\n        IRewardsController rewardsController_\n    ) ERC4626(asset_, _vaultName(asset_), _vaultSymbol(asset_)) {\n        aToken = aToken_;\n        lendingPool = lendingPool_;\n        rewardRecipient = rewardRecipient_;\n        rewardsController = rewardsController_;\n    }\n\n    /// -----------------------------------------------------------------------\n    /// Aave liquidity mining\n    /// -----------------------------------------------------------------------\n\n    /// @notice Claims liquidity mining rewards from Aave and sends it to rewardRecipient\n    function claimRewards() external {\n        address[] memory assets = new address[](1);\n        assets[0] = address(aToken);\n        (, uint256[] memory claimedAmounts) = rewardsController.claimAllRewards(assets, rewardRecipient);\n        emit ClaimRewards(claimedAmounts[0]);\n    }\n\n    /// -----------------------------------------------------------------------\n    /// ERC4626 overrides\n    /// -----------------------------------------------------------------------\n\n    function withdraw(uint256 assets, address receiver, address owner)\n        public\n        virtual\n        override\n        returns (uint256 shares)\n    {\n        shares = previewWithdraw(assets); // No need to check for rounding error, previewWithdraw rounds up.\n\n        if (msg.sender != owner) {\n            uint256 allowed = allowance[owner][msg.sender]; // Saves gas for limited approvals.\n\n            if (allowed != type(uint256).max) {\n                allowance[owner][msg.sender] = allowed - shares;\n            }\n        }\n\n        beforeWithdraw(assets, shares);\n\n        _burn(owner, shares);\n\n        emit Withdraw(msg.sender, receiver, owner, assets, shares);\n\n        // withdraw assets directly from Aave\n        lendingPool.withdraw(address(asset), assets, receiver);\n    }\n\n    function redeem(uint256 shares, address receiver, address owner) public virtual override returns (uint256 assets) {\n        if (msg.sender != owner) {\n            uint256 allowed = allowance[owner][msg.sender]; // Saves gas for limited approvals.\n\n            if (allowed != type(uint256).max) {\n                allowance[owner][msg.sender] = allowed - shares;\n            }\n        }\n\n        // Check for rounding error since we round down in previewRedeem.\n        require((assets = previewRedeem(shares)) != 0, \"ZERO_ASSETS\");\n\n        beforeWithdraw(assets, shares);\n\n        _burn(owner, shares);\n\n        emit Withdraw(msg.sender, receiver, owner, assets, shares);\n\n        // withdraw assets directly from Aave\n        lendingPool.withdraw(address(asset), assets, receiver);\n    }\n\n    function totalAssets() public view virtual override returns (uint256) {\n        // aTokens use rebasing to accrue interest, so the total assets is just the aToken balance\n        return aToken.balanceOf(address(this));\n    }\n\n    function afterDeposit(uint256 assets, uint256 /*shares*/ ) internal virtual override {\n        /// -----------------------------------------------------------------------\n        /// Deposit assets into Aave\n        /// -----------------------------------------------------------------------\n\n        // approve to lendingPool\n        asset.safeApprove(address(lendingPool), assets);\n\n        // deposit into lendingPool\n        lendingPool.supply(address(asset), assets, address(this), 0);\n    }\n\n    function maxDeposit(address) public view virtual override returns (uint256) {\n        // check if asset is paused\n        uint256 configData = lendingPool.getReserveData(address(asset)).configuration.data;\n        if (!(_getActive(configData) && !_getFrozen(configData) && !_getPaused(configData))) {\n            return 0;\n        }\n\n        // handle supply cap\n        uint256 supplyCapInWholeTokens = _getSupplyCap(configData);\n        if (supplyCapInWholeTokens == 0) {\n            return type(uint256).max;\n        }\n\n        uint8 tokenDecimals = _getDecimals(configData);\n        uint256 supplyCap = supplyCapInWholeTokens * 10 ** tokenDecimals;\n        return supplyCap - aToken.totalSupply();\n    }\n\n    function maxMint(address) public view virtual override returns (uint256) {\n        // check if asset is paused\n        uint256 configData = lendingPool.getReserveData(address(asset)).configuration.data;\n        if (!(_getActive(configData) && !_getFrozen(configData) && !_getPaused(configData))) {\n            return 0;\n        }\n\n        // handle supply cap\n        uint256 supplyCapInWholeTokens = _getSupplyCap(configData);\n        if (supplyCapInWholeTokens == 0) {\n            return type(uint256).max;\n        }\n\n        uint8 tokenDecimals = _getDecimals(configData);\n        uint256 supplyCap = supplyCapInWholeTokens * 10 ** tokenDecimals;\n        return convertToShares(supplyCap - aToken.totalSupply());\n    }\n\n    function maxWithdraw(address owner) public view virtual override returns (uint256) {\n        // check if asset is paused\n        uint256 configData = lendingPool.getReserveData(address(asset)).configuration.data;\n        if (!(_getActive(configData) && !_getPaused(configData))) {\n            return 0;\n        }\n\n        uint256 cash = asset.balanceOf(address(aToken));\n        uint256 assetsBalance = convertToAssets(balanceOf[owner]);\n        return cash < assetsBalance ? cash : assetsBalance;\n    }\n\n    function maxRedeem(address owner) public view virtual override returns (uint256) {\n        // check if asset is paused\n        uint256 configData = lendingPool.getReserveData(address(asset)).configuration.data;\n        if (!(_getActive(configData) && !_getPaused(configData))) {\n            return 0;\n        }\n\n        uint256 cash = asset.balanceOf(address(aToken));\n        uint256 cashInShares = convertToShares(cash);\n        uint256 shareBalance = balanceOf[owner];\n        return cashInShares < shareBalance ? cashInShares : shareBalance;\n    }\n\n    /// -----------------------------------------------------------------------\n    /// ERC20 metadata generation\n    /// -----------------------------------------------------------------------\n\n    function _vaultName(ERC20 asset_) internal view virtual returns (string memory vaultName) {\n        vaultName = string.concat(\"ERC4626-Wrapped Aave v3 \", asset_.symbol());\n    }\n\n    function _vaultSymbol(ERC20 asset_) internal view virtual returns (string memory vaultSymbol) {\n        vaultSymbol = string.concat(\"wa\", asset_.symbol());\n    }\n\n    /// -----------------------------------------------------------------------\n    /// Internal functions\n    /// -----------------------------------------------------------------------\n\n    function _getDecimals(uint256 configData) internal pure returns (uint8) {\n        return uint8((configData & ~DECIMALS_MASK) >> RESERVE_DECIMALS_START_BIT_POSITION);\n    }\n\n    function _getActive(uint256 configData) internal pure returns (bool) {\n        return configData & ~ACTIVE_MASK != 0;\n    }\n\n    function _getFrozen(uint256 configData) internal pure returns (bool) {\n        return configData & ~FROZEN_MASK != 0;\n    }\n\n    function _getPaused(uint256 configData) internal pure returns (bool) {\n        return configData & ~PAUSED_MASK != 0;\n    }\n\n    function _getSupplyCap(uint256 configData) internal pure returns (uint256) {\n        return (configData & ~SUPPLY_CAP_MASK) >> SUPPLY_CAP_START_BIT_POSITION;\n    }\n}",
  "sourcePath": "/Users/blabla/Documents/gelato_test/contracts/yield-daddy/aave-v3/AaveV3ERC4626.sol",
  "compiler": {
    "name": "solc",
    "version": "0.8.19+commit.7dd6d404.Emscripten.clang"
  },
  "schemaVersion": "3.4.11",
  "updatedAt": "2023-03-02T01:24:53.422Z",
  "devdoc": {
    "author": "zefram.eth",
    "details": "Important security note: due to Aave using a rebasing model for aTokens, this contract cannot independently keep track of the deposited funds, so it is possible for an attacker to directly transfer aTokens to this contract, increase the vault share price atomically, and then exploit an external lending market that uses this contract as collateral.",
    "kind": "dev",
    "methods": {},
    "title": "AaveV3ERC4626",
    "version": 1
  },
  "userdoc": {
    "events": {
      "ClaimRewards(uint256)": {
        "notice": "----------------------------------------------------------------------- Events -----------------------------------------------------------------------"
      }
    },
    "kind": "user",
    "methods": {
      "aToken()": {
        "notice": "The Aave aToken contract"
      },
      "claimRewards()": {
        "notice": "Claims liquidity mining rewards from Aave and sends it to rewardRecipient"
      },
      "constructor": {
        "notice": "----------------------------------------------------------------------- Constructor -----------------------------------------------------------------------"
      },
      "lendingPool()": {
        "notice": "The Aave Pool contract"
      },
      "rewardRecipient()": {
        "notice": "The address that will receive the liquidity mining rewards (if any)"
      },
      "rewardsController()": {
        "notice": "The Aave RewardsController contract"
      },
      "withdraw(uint256,address,address)": {
        "notice": "----------------------------------------------------------------------- ERC4626 overrides -----------------------------------------------------------------------"
      }
    },
    "notice": "ERC4626 wrapper for Aave V3",
    "version": 1
  }
}