{
  "contractName": "AaveV3ERC4626",
  "abi": [
    {
      "inputs": [
        {
          "internalType": "contract ERC20",
          "name": "asset_",
          "type": "address"
        },
        {
          "internalType": "contract ERC20",
          "name": "aToken_",
          "type": "address"
        },
        {
          "internalType": "contract IPool",
          "name": "lendingPool_",
          "type": "address"
        }
      ],
      "stateMutability": "nonpayable",
      "type": "constructor"
    },
    {
      "anonymous": false,
      "inputs": [
        {
          "indexed": true,
          "internalType": "address",
          "name": "owner",
          "type": "address"
        },
        {
          "indexed": true,
          "internalType": "address",
          "name": "spender",
          "type": "address"
        },
        {
          "indexed": false,
          "internalType": "uint256",
          "name": "amount",
          "type": "uint256"
        }
      ],
      "name": "Approval",
      "type": "event"
    },
    {
      "anonymous": false,
      "inputs": [
        {
          "indexed": true,
          "internalType": "address",
          "name": "caller",
          "type": "address"
        },
        {
          "indexed": true,
          "internalType": "address",
          "name": "owner",
          "type": "address"
        },
        {
          "indexed": false,
          "internalType": "uint256",
          "name": "assets",
          "type": "uint256"
        },
        {
          "indexed": false,
          "internalType": "uint256",
          "name": "shares",
          "type": "uint256"
        }
      ],
      "name": "Deposit",
      "type": "event"
    },
    {
      "anonymous": false,
      "inputs": [
        {
          "indexed": true,
          "internalType": "address",
          "name": "from",
          "type": "address"
        },
        {
          "indexed": true,
          "internalType": "address",
          "name": "to",
          "type": "address"
        },
        {
          "indexed": false,
          "internalType": "uint256",
          "name": "amount",
          "type": "uint256"
        }
      ],
      "name": "Transfer",
      "type": "event"
    },
    {
      "anonymous": false,
      "inputs": [
        {
          "indexed": true,
          "internalType": "address",
          "name": "caller",
          "type": "address"
        },
        {
          "indexed": true,
          "internalType": "address",
          "name": "receiver",
          "type": "address"
        },
        {
          "indexed": true,
          "internalType": "address",
          "name": "owner",
          "type": "address"
        },
        {
          "indexed": false,
          "internalType": "uint256",
          "name": "assets",
          "type": "uint256"
        },
        {
          "indexed": false,
          "internalType": "uint256",
          "name": "shares",
          "type": "uint256"
        }
      ],
      "name": "Withdraw",
      "type": "event"
    },
    {
      "inputs": [],
      "name": "DOMAIN_SEPARATOR",
      "outputs": [
        {
          "internalType": "bytes32",
          "name": "",
          "type": "bytes32"
        }
      ],
      "stateMutability": "view",
      "type": "function"
    },
    {
      "inputs": [],
      "name": "aToken",
      "outputs": [
        {
          "internalType": "contract ERC20",
          "name": "",
          "type": "address"
        }
      ],
      "stateMutability": "view",
      "type": "function"
    },
    {
      "inputs": [
        {
          "internalType": "address",
          "name": "",
          "type": "address"
        },
        {
          "internalType": "address",
          "name": "",
          "type": "address"
        }
      ],
      "name": "allowance",
      "outputs": [
        {
          "internalType": "uint256",
          "name": "",
          "type": "uint256"
        }
      ],
      "stateMutability": "view",
      "type": "function"
    },
    {
      "inputs": [
        {
          "internalType": "address",
          "name": "spender",
          "type": "address"
        },
        {
          "internalType": "uint256",
          "name": "amount",
          "type": "uint256"
        }
      ],
      "name": "approve",
      "outputs": [
        {
          "internalType": "bool",
          "name": "",
          "type": "bool"
        }
      ],
      "stateMutability": "nonpayable",
      "type": "function"
    },
    {
      "inputs": [],
      "name": "asset",
      "outputs": [
        {
          "internalType": "contract ERC20",
          "name": "",
          "type": "address"
        }
      ],
      "stateMutability": "view",
      "type": "function"
    },
    {
      "inputs": [
        {
          "internalType": "address",
          "name": "",
          "type": "address"
        }
      ],
      "name": "balanceOf",
      "outputs": [
        {
          "internalType": "uint256",
          "name": "",
          "type": "uint256"
        }
      ],
      "stateMutability": "view",
      "type": "function"
    },
    {
      "inputs": [
        {
          "internalType": "uint256",
          "name": "shares",
          "type": "uint256"
        }
      ],
      "name": "convertToAssets",
      "outputs": [
        {
          "internalType": "uint256",
          "name": "",
          "type": "uint256"
        }
      ],
      "stateMutability": "view",
      "type": "function"
    },
    {
      "inputs": [
        {
          "internalType": "uint256",
          "name": "assets",
          "type": "uint256"
        }
      ],
      "name": "convertToShares",
      "outputs": [
        {
          "internalType": "uint256",
          "name": "",
          "type": "uint256"
        }
      ],
      "stateMutability": "view",
      "type": "function"
    },
    {
      "inputs": [],
      "name": "decimals",
      "outputs": [
        {
          "internalType": "uint8",
          "name": "",
          "type": "uint8"
        }
      ],
      "stateMutability": "view",
      "type": "function"
    },
    {
      "inputs": [
        {
          "internalType": "uint256",
          "name": "assets",
          "type": "uint256"
        },
        {
          "internalType": "address",
          "name": "receiver",
          "type": "address"
        }
      ],
      "name": "deposit",
      "outputs": [
        {
          "internalType": "uint256",
          "name": "shares",
          "type": "uint256"
        }
      ],
      "stateMutability": "nonpayable",
      "type": "function"
    },
    {
      "inputs": [],
      "name": "lendingPool",
      "outputs": [
        {
          "internalType": "contract IPool",
          "name": "",
          "type": "address"
        }
      ],
      "stateMutability": "view",
      "type": "function"
    },
    {
      "inputs": [
        {
          "internalType": "uint256",
          "name": "shares",
          "type": "uint256"
        },
        {
          "internalType": "address",
          "name": "receiver",
          "type": "address"
        }
      ],
      "name": "mint",
      "outputs": [
        {
          "internalType": "uint256",
          "name": "assets",
          "type": "uint256"
        }
      ],
      "stateMutability": "nonpayable",
      "type": "function"
    },
    {
      "inputs": [],
      "name": "name",
      "outputs": [
        {
          "internalType": "string",
          "name": "",
          "type": "string"
        }
      ],
      "stateMutability": "view",
      "type": "function"
    },
    {
      "inputs": [
        {
          "internalType": "address",
          "name": "",
          "type": "address"
        }
      ],
      "name": "nonces",
      "outputs": [
        {
          "internalType": "uint256",
          "name": "",
          "type": "uint256"
        }
      ],
      "stateMutability": "view",
      "type": "function"
    },
    {
      "inputs": [
        {
          "internalType": "address",
          "name": "owner",
          "type": "address"
        },
        {
          "internalType": "address",
          "name": "spender",
          "type": "address"
        },
        {
          "internalType": "uint256",
          "name": "value",
          "type": "uint256"
        },
        {
          "internalType": "uint256",
          "name": "deadline",
          "type": "uint256"
        },
        {
          "internalType": "uint8",
          "name": "v",
          "type": "uint8"
        },
        {
          "internalType": "bytes32",
          "name": "r",
          "type": "bytes32"
        },
        {
          "internalType": "bytes32",
          "name": "s",
          "type": "bytes32"
        }
      ],
      "name": "permit",
      "outputs": [],
      "stateMutability": "nonpayable",
      "type": "function"
    },
    {
      "inputs": [
        {
          "internalType": "uint256",
          "name": "assets",
          "type": "uint256"
        }
      ],
      "name": "previewDeposit",
      "outputs": [
        {
          "internalType": "uint256",
          "name": "",
          "type": "uint256"
        }
      ],
      "stateMutability": "view",
      "type": "function"
    },
    {
      "inputs": [
        {
          "internalType": "uint256",
          "name": "shares",
          "type": "uint256"
        }
      ],
      "name": "previewMint",
      "outputs": [
        {
          "internalType": "uint256",
          "name": "",
          "type": "uint256"
        }
      ],
      "stateMutability": "view",
      "type": "function"
    },
    {
      "inputs": [
        {
          "internalType": "uint256",
          "name": "shares",
          "type": "uint256"
        }
      ],
      "name": "previewRedeem",
      "outputs": [
        {
          "internalType": "uint256",
          "name": "",
          "type": "uint256"
        }
      ],
      "stateMutability": "view",
      "type": "function"
    },
    {
      "inputs": [
        {
          "internalType": "uint256",
          "name": "assets",
          "type": "uint256"
        }
      ],
      "name": "previewWithdraw",
      "outputs": [
        {
          "internalType": "uint256",
          "name": "",
          "type": "uint256"
        }
      ],
      "stateMutability": "view",
      "type": "function"
    },
    {
      "inputs": [],
      "name": "symbol",
      "outputs": [
        {
          "internalType": "string",
          "name": "",
          "type": "string"
        }
      ],
      "stateMutability": "view",
      "type": "function"
    },
    {
      "inputs": [],
      "name": "totalSupply",
      "outputs": [
        {
          "internalType": "uint256",
          "name": "",
          "type": "uint256"
        }
      ],
      "stateMutability": "view",
      "type": "function"
    },
    {
      "inputs": [
        {
          "internalType": "address",
          "name": "to",
          "type": "address"
        },
        {
          "internalType": "uint256",
          "name": "amount",
          "type": "uint256"
        }
      ],
      "name": "transfer",
      "outputs": [
        {
          "internalType": "bool",
          "name": "",
          "type": "bool"
        }
      ],
      "stateMutability": "nonpayable",
      "type": "function"
    },
    {
      "inputs": [
        {
          "internalType": "address",
          "name": "from",
          "type": "address"
        },
        {
          "internalType": "address",
          "name": "to",
          "type": "address"
        },
        {
          "internalType": "uint256",
          "name": "amount",
          "type": "uint256"
        }
      ],
      "name": "transferFrom",
      "outputs": [
        {
          "internalType": "bool",
          "name": "",
          "type": "bool"
        }
      ],
      "stateMutability": "nonpayable",
      "type": "function"
    },
    {
      "inputs": [
        {
          "internalType": "uint256",
          "name": "assets",
          "type": "uint256"
        },
        {
          "internalType": "address",
          "name": "receiver",
          "type": "address"
        },
        {
          "internalType": "address",
          "name": "owner",
          "type": "address"
        }
      ],
      "name": "withdraw",
      "outputs": [
        {
          "internalType": "uint256",
          "name": "shares",
          "type": "uint256"
        }
      ],
      "stateMutability": "nonpayable",
      "type": "function"
    },
    {
      "inputs": [
        {
          "internalType": "uint256",
          "name": "shares",
          "type": "uint256"
        },
        {
          "internalType": "address",
          "name": "receiver",
          "type": "address"
        },
        {
          "internalType": "address",
          "name": "owner",
          "type": "address"
        }
      ],
      "name": "redeem",
      "outputs": [
        {
          "internalType": "uint256",
          "name": "assets",
          "type": "uint256"
        }
      ],
      "stateMutability": "nonpayable",
      "type": "function"
    },
    {
      "inputs": [],
      "name": "totalAssets",
      "outputs": [
        {
          "internalType": "uint256",
          "name": "",
          "type": "uint256"
        }
      ],
      "stateMutability": "view",
      "type": "function"
    },
    {
      "inputs": [
        {
          "internalType": "address",
          "name": "",
          "type": "address"
        }
      ],
      "name": "maxDeposit",
      "outputs": [
        {
          "internalType": "uint256",
          "name": "",
          "type": "uint256"
        }
      ],
      "stateMutability": "view",
      "type": "function"
    },
    {
      "inputs": [
        {
          "internalType": "address",
          "name": "",
          "type": "address"
        }
      ],
      "name": "maxMint",
      "outputs": [
        {
          "internalType": "uint256",
          "name": "",
          "type": "uint256"
        }
      ],
      "stateMutability": "view",
      "type": "function"
    },
    {
      "inputs": [
        {
          "internalType": "address",
          "name": "owner",
          "type": "address"
        }
      ],
      "name": "maxWithdraw",
      "outputs": [
        {
          "internalType": "uint256",
          "name": "",
          "type": "uint256"
        }
      ],
      "stateMutability": "view",
      "type": "function"
    },
    {
      "inputs": [
        {
          "internalType": "address",
          "name": "owner",
          "type": "address"
        }
      ],
      "name": "maxRedeem",
      "outputs": [
        {
          "internalType": "uint256",
          "name": "",
          "type": "uint256"
        }
      ],
      "stateMutability": "view",
      "type": "function"
    }
  ],
  "bytecode": "0x6101406040523480156200001257600080fd5b50604051620047be380380620047be833981810160405281019062000038919062000471565b826200004a84620001cd60201b60201c565b6200005b856200026e60201b60201c565b81818473ffffffffffffffffffffffffffffffffffffffff1663313ce5676040518163ffffffff1660e01b8152600401602060405180830381865afa158015620000a9573d6000803e3d6000fd5b505050506040513d601f19601f82011682018060405250810190620000cf91906200050b565b8260009081620000e09190620007b7565b508160019081620000f29190620007b7565b508060ff1660808160ff16815250504660a08181525050620001196200030f60201b60201c565b60c081815250505050508273ffffffffffffffffffffffffffffffffffffffff1660e08173ffffffffffffffffffffffffffffffffffffffff16815250505050508173ffffffffffffffffffffffffffffffffffffffff166101008173ffffffffffffffffffffffffffffffffffffffff16815250508073ffffffffffffffffffffffffffffffffffffffff166101208173ffffffffffffffffffffffffffffffffffffffff168152505050505062000c83565b60608173ffffffffffffffffffffffffffffffffffffffff166395d89b416040518163ffffffff1660e01b8152600401600060405180830381865afa1580156200021b573d6000803e3d6000fd5b505050506040513d6000823e3d601f19601f82011682018060405250810190620002469190620009ee565b60405160200162000258919062000aa7565b6040516020818303038152906040529050919050565b60608173ffffffffffffffffffffffffffffffffffffffff166395d89b416040518163ffffffff1660e01b8152600401600060405180830381865afa158015620002bc573d6000803e3d6000fd5b505050506040513d6000823e3d601f19601f82011682018060405250810190620002e79190620009ee565b604051602001620002f9919062000af7565b6040516020818303038152906040529050919050565b60007f8b73c3c69bb8fe3d512ecc4cf759cc79239f7b179b0ffacaa9a75d522b39400f600060405162000343919062000bd0565b60405180910390207fc89efdaa54c0f20c7adf612882df0950f5a951637e0307cdcb4c672f298b8bc646306040516020016200038495949392919062000c26565b60405160208183030381529060405280519060200120905090565b6000604051905090565b600080fd5b600080fd5b600073ffffffffffffffffffffffffffffffffffffffff82169050919050565b6000620003e082620003b3565b9050919050565b6000620003f482620003d3565b9050919050565b6200040681620003e7565b81146200041257600080fd5b50565b6000815190506200042681620003fb565b92915050565b60006200043982620003d3565b9050919050565b6200044b816200042c565b81146200045757600080fd5b50565b6000815190506200046b8162000440565b92915050565b6000806000606084860312156200048d576200048c620003a9565b5b60006200049d8682870162000415565b9350506020620004b08682870162000415565b9250506040620004c3868287016200045a565b9150509250925092565b600060ff82169050919050565b620004e581620004cd565b8114620004f157600080fd5b50565b6000815190506200050581620004da565b92915050565b600060208284031215620005245762000523620003a9565b5b60006200053484828501620004f4565b91505092915050565b600081519050919050565b7f4e487b7100000000000000000000000000000000000000000000000000000000600052604160045260246000fd5b7f4e487b7100000000000000000000000000000000000000000000000000000000600052602260045260246000fd5b60006002820490506001821680620005bf57607f821691505b602082108103620005d557620005d462000577565b5b50919050565b60008190508160005260206000209050919050565b60006020601f8301049050919050565b600082821b905092915050565b6000600883026200063f7fffffffffffffffffffffffffffffffffffffffffffffffffffffffffffffffff8262000600565b6200064b868362000600565b95508019841693508086168417925050509392505050565b6000819050919050565b6000819050919050565b600062000698620006926200068c8462000663565b6200066d565b62000663565b9050919050565b6000819050919050565b620006b48362000677565b620006cc620006c3826200069f565b8484546200060d565b825550505050565b600090565b620006e3620006d4565b620006f0818484620006a9565b505050565b5b8181101562000718576200070c600082620006d9565b600181019050620006f6565b5050565b601f82111562000767576200073181620005db565b6200073c84620005f0565b810160208510156200074c578190505b620007646200075b85620005f0565b830182620006f5565b50505b505050565b600082821c905092915050565b60006200078c600019846008026200076c565b1980831691505092915050565b6000620007a7838362000779565b9150826002028217905092915050565b620007c2826200053d565b67ffffffffffffffff811115620007de57620007dd62000548565b5b620007ea8254620005a6565b620007f78282856200071c565b600060209050601f8311600181146200082f57600084156200081a578287015190505b62000826858262000799565b86555062000896565b601f1984166200083f86620005db565b60005b82811015620008695784890151825560018201915060208501945060208101905062000842565b8683101562000889578489015162000885601f89168262000779565b8355505b6001600288020188555050505b505050505050565b600080fd5b600080fd5b6000601f19601f8301169050919050565b620008c482620008a8565b810181811067ffffffffffffffff82111715620008e657620008e562000548565b5b80604052505050565b6000620008fb6200039f565b9050620009098282620008b9565b919050565b600067ffffffffffffffff8211156200092c576200092b62000548565b5b6200093782620008a8565b9050602081019050919050565b60005b838110156200096457808201518184015260208101905062000947565b60008484015250505050565b60006200098762000981846200090e565b620008ef565b905082815260208101848484011115620009a657620009a5620008a3565b5b620009b384828562000944565b509392505050565b600082601f830112620009d357620009d26200089e565b5b8151620009e584826020860162000970565b91505092915050565b60006020828403121562000a075762000a06620003a9565b5b600082015167ffffffffffffffff81111562000a285762000a27620003ae565b5b62000a3684828501620009bb565b91505092915050565b7f455243343632362d577261707065642041617665207633200000000000000000815250565b600081905092915050565b600062000a7d826200053d565b62000a89818562000a65565b935062000a9b81856020860162000944565b80840191505092915050565b600062000ab48262000a3f565b60188201915062000ac6828462000a70565b915081905092915050565b7f7761000000000000000000000000000000000000000000000000000000000000815250565b600062000b048262000ad1565b60028201915062000b16828462000a70565b915081905092915050565b600081905092915050565b60008190508160005260206000209050919050565b6000815462000b5081620005a6565b62000b5c818662000b21565b9450600182166000811462000b7a576001811462000b905762000bc7565b60ff198316865281151582028601935062000bc7565b62000b9b8562000b2c565b60005b8381101562000bbf5781548189015260018201915060208101905062000b9e565b838801955050505b50505092915050565b600062000bde828462000b41565b915081905092915050565b6000819050919050565b62000bfe8162000be9565b82525050565b62000c0f8162000663565b82525050565b62000c2081620003d3565b82525050565b600060a08201905062000c3d600083018862000bf3565b62000c4c602083018762000bf3565b62000c5b604083018662000bf3565b62000c6a606083018562000c04565b62000c79608083018462000c15565b9695505050505050565b60805160a05160c05160e0516101005161012051613a3c62000d8260003960008181610c5a01528181611154015281816114d0015281816117e4015281816118af01528181611b0301528181612011015281816125df01526126470152600081816106cd01528181610dc20152818161113001528181611a1a01528181611c2f015261213d015260008181610c3301528181610c9601528181610ecf01528181610fda0152818161150c01528181611820015281816118eb01528181611b3f01528181611bf30152818161204d0152818161210101528181612601015261268301526000610c0c01526000610bd801526000610bb20152613a3c6000f3fe608060405234801561001057600080fd5b50600436106101da5760003560e01c806394bf804d11610104578063ba087652116100a2578063d505accf11610071578063d505accf1461061d578063d905777e14610639578063dd62ed3e14610669578063ef8b30f714610699576101da565b8063ba0876521461055d578063c63d75b61461058d578063c6e6f592146105bd578063ce96cb77146105ed576101da565b8063a59a9973116100de578063a59a9973146104af578063a9059cbb146104cd578063b3d7f6b9146104fd578063b460af941461052d576101da565b806394bf804d1461044357806395d89b4114610473578063a0c1f15e14610491576101da565b8063313ce5671161017c5780634cdad5061161014b5780634cdad506146103835780636e553f65146103b357806370a08231146103e35780637ecebe0014610413576101da565b8063313ce567146102f95780633644e5151461031757806338d52e0f14610335578063402d267d14610353576101da565b8063095ea7b3116101b8578063095ea7b31461024b5780630a28a4771461027b57806318160ddd146102ab57806323b872dd146102c9576101da565b806301e1d114146101df57806306fdde03146101fd57806307a2d13a1461021b575b600080fd5b6101e76106c9565b6040516101f49190612880565b60405180910390f35b61020561076a565b604051610212919061292b565b60405180910390f35b61023560048036038101906102309190612988565b6107f8565b6040516102429190612880565b60405180910390f35b61026560048036038101906102609190612a13565b610833565b6040516102729190612a6e565b60405180910390f35b61029560048036038101906102909190612988565b610925565b6040516102a29190612880565b60405180910390f35b6102b3610960565b6040516102c09190612880565b60405180910390f35b6102e360048036038101906102de9190612a89565b610966565b6040516102f09190612a6e565b60405180910390f35b610301610bb0565b60405161030e9190612af8565b60405180910390f35b61031f610bd4565b60405161032c9190612b2c565b60405180910390f35b61033d610c31565b60405161034a9190612ba6565b60405180910390f35b61036d60048036038101906103689190612bc1565b610c55565b60405161037a9190612880565b60405180910390f35b61039d60048036038101906103989190612988565b610e66565b6040516103aa9190612880565b60405180910390f35b6103cd60048036038101906103c89190612bee565b610e78565b6040516103da9190612880565b60405180910390f35b6103fd60048036038101906103f89190612bc1565b610f95565b60405161040a9190612880565b60405180910390f35b61042d60048036038101906104289190612bc1565b610fad565b60405161043a9190612880565b60405180910390f35b61045d60048036038101906104589190612bee565b610fc5565b60405161046a9190612880565b60405180910390f35b61047b6110a0565b604051610488919061292b565b60405180910390f35b61049961112e565b6040516104a69190612ba6565b60405180910390f35b6104b7611152565b6040516104c49190612c4f565b60405180910390f35b6104e760048036038101906104e29190612a13565b611176565b6040516104f49190612a6e565b60405180910390f35b61051760048036038101906105129190612988565b61128a565b6040516105249190612880565b60405180910390f35b61054760048036038101906105429190612c6a565b6112c5565b6040516105549190612880565b60405180910390f35b61057760048036038101906105729190612c6a565b611596565b6040516105849190612880565b60405180910390f35b6105a760048036038101906105a29190612bc1565b6118aa565b6040516105b49190612880565b60405180910390f35b6105d760048036038101906105d29190612988565b611ac3565b6040516105e49190612880565b60405180910390f35b61060760048036038101906106029190612bc1565b611afe565b6040516106149190612880565b60405180910390f35b61063760048036038101906106329190612d15565b611d13565b005b610653600480360381019061064e9190612bc1565b61200c565b6040516106609190612880565b60405180910390f35b610683600480360381019061067e9190612db7565b612227565b6040516106909190612880565b60405180910390f35b6106b360048036038101906106ae9190612988565b61224c565b6040516106c09190612880565b60405180910390f35b60007f000000000000000000000000000000000000000000000000000000000000000073ffffffffffffffffffffffffffffffffffffffff166370a08231306040518263ffffffff1660e01b81526004016107249190612e06565b602060405180830381865afa158015610741573d6000803e3d6000fd5b505050506040513d601f19601f820116820180604052508101906107659190612e36565b905090565b6000805461077790612e92565b80601f01602080910402602001604051908101604052809291908181526020018280546107a390612e92565b80156107f05780601f106107c5576101008083540402835291602001916107f0565b820191906000526020600020905b8154815290600101906020018083116107d357829003601f168201915b505050505081565b600080600254905060008114610829576108246108136106c9565b828561225e9092919063ffffffff16565b61082b565b825b915050919050565b600081600460003373ffffffffffffffffffffffffffffffffffffffff1673ffffffffffffffffffffffffffffffffffffffff16815260200190815260200160002060008573ffffffffffffffffffffffffffffffffffffffff1673ffffffffffffffffffffffffffffffffffffffff168152602001908152602001600020819055508273ffffffffffffffffffffffffffffffffffffffff163373ffffffffffffffffffffffffffffffffffffffff167f8c5be1e5ebec7d5bd14f71427d1e84f3dd0314c0f7b2291e5b200ac8c7c3b925846040516109139190612880565b60405180910390a36001905092915050565b60008060025490506000811461095657610951816109416106c9565b856122a19092919063ffffffff16565b610958565b825b915050919050565b60025481565b600080600460008673ffffffffffffffffffffffffffffffffffffffff1673ffffffffffffffffffffffffffffffffffffffff16815260200190815260200160002060003373ffffffffffffffffffffffffffffffffffffffff1673ffffffffffffffffffffffffffffffffffffffff1681526020019081526020016000205490507fffffffffffffffffffffffffffffffffffffffffffffffffffffffffffffffff8114610a9c578281610a1b9190612ef2565b600460008773ffffffffffffffffffffffffffffffffffffffff1673ffffffffffffffffffffffffffffffffffffffff16815260200190815260200160002060003373ffffffffffffffffffffffffffffffffffffffff1673ffffffffffffffffffffffffffffffffffffffff168152602001908152602001600020819055505b82600360008773ffffffffffffffffffffffffffffffffffffffff1673ffffffffffffffffffffffffffffffffffffffff1681526020019081526020016000206000828254610aeb9190612ef2565b9250508190555082600360008673ffffffffffffffffffffffffffffffffffffffff1673ffffffffffffffffffffffffffffffffffffffff168152602001908152602001600020600082825401925050819055508373ffffffffffffffffffffffffffffffffffffffff168573ffffffffffffffffffffffffffffffffffffffff167fddf252ad1be2c89b69c2b068fc378daa952ba7f163c4a11628f55a4df523b3ef85604051610b9c9190612880565b60405180910390a360019150509392505050565b7f000000000000000000000000000000000000000000000000000000000000000081565b60007f00000000000000000000000000000000000000000000000000000000000000004614610c0a57610c056122ed565b610c2c565b7f00000000000000000000000000000000000000000000000000000000000000005b905090565b7f000000000000000000000000000000000000000000000000000000000000000081565b6000807f000000000000000000000000000000000000000000000000000000000000000073ffffffffffffffffffffffffffffffffffffffff166335ea6a757f00000000000000000000000000000000000000000000000000000000000000006040518263ffffffff1660e01b8152600401610cd19190612e06565b6101e060405180830381865afa158015610cef573d6000803e3d6000fd5b505050506040513d601f19601f82011682018060405250810190610d13919061321a565b60000151600001519050610d2681612379565b8015610d385750610d36816123a9565b155b8015610d4a5750610d48816123d9565b155b610d58576000915050610e61565b6000610d6382612409565b905060008103610d97577fffffffffffffffffffffffffffffffffffffffffffffffffffffffffffffffff92505050610e61565b6000610da28361243a565b9050600081600a610db3919061337b565b83610dbe91906133c6565b90507f000000000000000000000000000000000000000000000000000000000000000073ffffffffffffffffffffffffffffffffffffffff166318160ddd6040518163ffffffff1660e01b8152600401602060405180830381865afa158015610e2b573d6000803e3d6000fd5b505050506040513d601f19601f82011682018060405250810190610e4f9190612e36565b81610e5a9190612ef2565b9450505050505b919050565b6000610e71826107f8565b9050919050565b600080610e848461224c565b91508103610ec7576040517f08c379a0000000000000000000000000000000000000000000000000000000008152600401610ebe90613454565b60405180910390fd5b610f143330857f000000000000000000000000000000000000000000000000000000000000000073ffffffffffffffffffffffffffffffffffffffff1661246b909392919063ffffffff16565b610f1e828261250a565b8173ffffffffffffffffffffffffffffffffffffffff163373ffffffffffffffffffffffffffffffffffffffff167fdcbc1c05240f31ff3ad067ef1ee35ce4997762752e3a095284754544f4c709d78584604051610f7d929190613474565b60405180910390a3610f8f83826125da565b92915050565b60036020528060005260406000206000915090505481565b60056020528060005260406000206000915090505481565b6000610fd08361128a565b905061101f3330837f000000000000000000000000000000000000000000000000000000000000000073ffffffffffffffffffffffffffffffffffffffff1661246b909392919063ffffffff16565b611029828461250a565b8173ffffffffffffffffffffffffffffffffffffffff163373ffffffffffffffffffffffffffffffffffffffff167fdcbc1c05240f31ff3ad067ef1ee35ce4997762752e3a095284754544f4c709d78386604051611088929190613474565b60405180910390a361109a81846125da565b92915050565b600180546110ad90612e92565b80601f01602080910402602001604051908101604052809291908181526020018280546110d990612e92565b80156111265780601f106110fb57610100808354040283529160200191611126565b820191906000526020600020905b81548152906001019060200180831161110957829003601f168201915b505050505081565b7f000000000000000000000000000000000000000000000000000000000000000081565b7f000000000000000000000000000000000000000000000000000000000000000081565b600081600360003373ffffffffffffffffffffffffffffffffffffffff1673ffffffffffffffffffffffffffffffffffffffff16815260200190815260200160002060008282546111c79190612ef2565b9250508190555081600360008573ffffffffffffffffffffffffffffffffffffffff1673ffffffffffffffffffffffffffffffffffffffff168152602001908152602001600020600082825401925050819055508273ffffffffffffffffffffffffffffffffffffffff163373ffffffffffffffffffffffffffffffffffffffff167fddf252ad1be2c89b69c2b068fc378daa952ba7f163c4a11628f55a4df523b3ef846040516112789190612880565b60405180910390a36001905092915050565b6000806002549050600081146112bb576112b66112a56106c9565b82856122a19092919063ffffffff16565b6112bd565b825b915050919050565b60006112d084610925565b90508173ffffffffffffffffffffffffffffffffffffffff163373ffffffffffffffffffffffffffffffffffffffff161461143c576000600460008473ffffffffffffffffffffffffffffffffffffffff1673ffffffffffffffffffffffffffffffffffffffff16815260200190815260200160002060003373ffffffffffffffffffffffffffffffffffffffff1673ffffffffffffffffffffffffffffffffffffffff1681526020019081526020016000205490507fffffffffffffffffffffffffffffffffffffffffffffffffffffffffffffffff811461143a5781816113b99190612ef2565b600460008573ffffffffffffffffffffffffffffffffffffffff1673ffffffffffffffffffffffffffffffffffffffff16815260200190815260200160002060003373ffffffffffffffffffffffffffffffffffffffff1673ffffffffffffffffffffffffffffffffffffffff168152602001908152602001600020819055505b505b61144684826126fb565b61145082826126ff565b8173ffffffffffffffffffffffffffffffffffffffff168373ffffffffffffffffffffffffffffffffffffffff163373ffffffffffffffffffffffffffffffffffffffff167ffbde797d201c681b91056529119e0b02407c7bb96a4a2c75c01fc9667232c8db87856040516114c6929190613474565b60405180910390a47f000000000000000000000000000000000000000000000000000000000000000073ffffffffffffffffffffffffffffffffffffffff166369328dec7f000000000000000000000000000000000000000000000000000000000000000086866040518463ffffffff1660e01b815260040161154b9392919061349d565b6020604051808303816000875af115801561156a573d6000803e3d6000fd5b505050506040513d601f19601f8201168201806040525081019061158e9190612e36565b509392505050565b60008173ffffffffffffffffffffffffffffffffffffffff163373ffffffffffffffffffffffffffffffffffffffff1614611702576000600460008473ffffffffffffffffffffffffffffffffffffffff1673ffffffffffffffffffffffffffffffffffffffff16815260200190815260200160002060003373ffffffffffffffffffffffffffffffffffffffff1673ffffffffffffffffffffffffffffffffffffffff1681526020019081526020016000205490507fffffffffffffffffffffffffffffffffffffffffffffffffffffffffffffffff811461170057848161167f9190612ef2565b600460008573ffffffffffffffffffffffffffffffffffffffff1673ffffffffffffffffffffffffffffffffffffffff16815260200190815260200160002060003373ffffffffffffffffffffffffffffffffffffffff1673ffffffffffffffffffffffffffffffffffffffff168152602001908152602001600020819055505b505b600061170d85610e66565b91508103611750576040517f08c379a000000000000000000000000000000000000000000000000000000000815260040161174790613520565b60405180910390fd5b61175a81856126fb565b61176482856126ff565b8173ffffffffffffffffffffffffffffffffffffffff168373ffffffffffffffffffffffffffffffffffffffff163373ffffffffffffffffffffffffffffffffffffffff167ffbde797d201c681b91056529119e0b02407c7bb96a4a2c75c01fc9667232c8db84886040516117da929190613474565b60405180910390a47f000000000000000000000000000000000000000000000000000000000000000073ffffffffffffffffffffffffffffffffffffffff166369328dec7f000000000000000000000000000000000000000000000000000000000000000083866040518463ffffffff1660e01b815260040161185f9392919061349d565b6020604051808303816000875af115801561187e573d6000803e3d6000fd5b505050506040513d601f19601f820116820180604052508101906118a29190612e36565b509392505050565b6000807f000000000000000000000000000000000000000000000000000000000000000073ffffffffffffffffffffffffffffffffffffffff166335ea6a757f00000000000000000000000000000000000000000000000000000000000000006040518263ffffffff1660e01b81526004016119269190612e06565b6101e060405180830381865afa158015611944573d6000803e3d6000fd5b505050506040513d601f19601f82011682018060405250810190611968919061321a565b6000015160000151905061197b81612379565b801561198d575061198b816123a9565b155b801561199f575061199d816123d9565b155b6119ad576000915050611abe565b60006119b882612409565b9050600081036119ec577fffffffffffffffffffffffffffffffffffffffffffffffffffffffffffffffff92505050611abe565b60006119f78361243a565b9050600081600a611a08919061337b565b83611a1391906133c6565b9050611ab77f000000000000000000000000000000000000000000000000000000000000000073ffffffffffffffffffffffffffffffffffffffff166318160ddd6040518163ffffffff1660e01b8152600401602060405180830381865afa158015611a83573d6000803e3d6000fd5b505050506040513d601f19601f82011682018060405250810190611aa79190612e36565b82611ab29190612ef2565b611ac3565b9450505050505b919050565b600080600254905060008114611af457611aef81611adf6106c9565b8561225e9092919063ffffffff16565b611af6565b825b915050919050565b6000807f000000000000000000000000000000000000000000000000000000000000000073ffffffffffffffffffffffffffffffffffffffff166335ea6a757f00000000000000000000000000000000000000000000000000000000000000006040518263ffffffff1660e01b8152600401611b7a9190612e06565b6101e060405180830381865afa158015611b98573d6000803e3d6000fd5b505050506040513d601f19601f82011682018060405250810190611bbc919061321a565b60000151600001519050611bcf81612379565b8015611be15750611bdf816123d9565b155b611bef576000915050611d0e565b60007f000000000000000000000000000000000000000000000000000000000000000073ffffffffffffffffffffffffffffffffffffffff166370a082317f00000000000000000000000000000000000000000000000000000000000000006040518263ffffffff1660e01b8152600401611c6a9190612e06565b602060405180830381865afa158015611c87573d6000803e3d6000fd5b505050506040513d601f19601f82011682018060405250810190611cab9190612e36565b90506000611cf7600360008773ffffffffffffffffffffffffffffffffffffffff1673ffffffffffffffffffffffffffffffffffffffff168152602001908152602001600020546107f8565b9050808210611d065780611d08565b815b93505050505b919050565b42841015611d56576040517f08c379a0000000000000000000000000000000000000000000000000000000008152600401611d4d9061358c565b60405180910390fd5b60006001611d62610bd4565b7f6e71edae12b1b97f4d1f60370fef10105fa2faae0126114a169c64845d6126c98a8a8a600560008f73ffffffffffffffffffffffffffffffffffffffff1673ffffffffffffffffffffffffffffffffffffffff1681526020019081526020016000206000815480929190600101919050558b604051602001611dea969594939291906135ac565b60405160208183030381529060405280519060200120604051602001611e11929190613685565b6040516020818303038152906040528051906020012085858560405160008152602001604052604051611e4794939291906136bc565b6020604051602081039080840390855afa158015611e69573d6000803e3d6000fd5b505050602060405103519050600073ffffffffffffffffffffffffffffffffffffffff168173ffffffffffffffffffffffffffffffffffffffff1614158015611edd57508773ffffffffffffffffffffffffffffffffffffffff168173ffffffffffffffffffffffffffffffffffffffff16145b611f1c576040517f08c379a0000000000000000000000000000000000000000000000000000000008152600401611f139061374d565b60405180910390fd5b85600460008373ffffffffffffffffffffffffffffffffffffffff1673ffffffffffffffffffffffffffffffffffffffff16815260200190815260200160002060008973ffffffffffffffffffffffffffffffffffffffff1673ffffffffffffffffffffffffffffffffffffffff16815260200190815260200160002081905550508573ffffffffffffffffffffffffffffffffffffffff168773ffffffffffffffffffffffffffffffffffffffff167f8c5be1e5ebec7d5bd14f71427d1e84f3dd0314c0f7b2291e5b200ac8c7c3b92587604051611ffb9190612880565b60405180910390a350505050505050565b6000807f000000000000000000000000000000000000000000000000000000000000000073ffffffffffffffffffffffffffffffffffffffff166335ea6a757f00000000000000000000000000000000000000000000000000000000000000006040518263ffffffff1660e01b81526004016120889190612e06565b6101e060405180830381865afa1580156120a6573d6000803e3d6000fd5b505050506040513d601f19601f820116820180604052508101906120ca919061321a565b600001516000015190506120dd81612379565b80156120ef57506120ed816123d9565b155b6120fd576000915050612222565b60007f000000000000000000000000000000000000000000000000000000000000000073ffffffffffffffffffffffffffffffffffffffff166370a082317f00000000000000000000000000000000000000000000000000000000000000006040518263ffffffff1660e01b81526004016121789190612e06565b602060405180830381865afa158015612195573d6000803e3d6000fd5b505050506040513d601f19601f820116820180604052508101906121b99190612e36565b905060006121c682611ac3565b90506000600360008773ffffffffffffffffffffffffffffffffffffffff1673ffffffffffffffffffffffffffffffffffffffff168152602001908152602001600020549050808210612219578061221b565b815b9450505050505b919050565b6004602052816000526040600020602052806000526040600020600091509150505481565b600061225782611ac3565b9050919050565b6000827fffffffffffffffffffffffffffffffffffffffffffffffffffffffffffffffff048411830215820261229357600080fd5b818385020490509392505050565b6000827fffffffffffffffffffffffffffffffffffffffffffffffffffffffffffffffff04841183021582026122d657600080fd5b818385020460008385870206110190509392505050565b60007f8b73c3c69bb8fe3d512ecc4cf759cc79239f7b179b0ffacaa9a75d522b39400f600060405161231f9190613810565b60405180910390207fc89efdaa54c0f20c7adf612882df0950f5a951637e0307cdcb4c672f298b8bc6463060405160200161235e959493929190613827565b60405160208183030381529060405280519060200120905090565b6000807ffffffffffffffffffffffffffffffffffffffffffffffffffeffffffffffffff19831614159050919050565b6000807ffffffffffffffffffffffffffffffffffffffffffffffffffdffffffffffffff19831614159050919050565b6000807fffffffffffffffffffffffffffffffffffffffffffffffffefffffffffffffff19831614159050919050565b600060747fffffffffffffffffffffffffff000000000fffffffffffffffffffffffffffff198316901c9050919050565b600060307fffffffffffffffffffffffffffffffffffffffffffffffffff00ffffffffffff198316901c9050919050565b60006040517f23b872dd0000000000000000000000000000000000000000000000000000000081528460048201528360248201528260448201526020600060648360008a5af13d15601f3d1160016000511416171691505080612503576040517f08c379a00000000000000000000000000000000000000000000000000000000081526004016124fa906138c6565b60405180910390fd5b5050505050565b806002600082825461251c91906138e6565b9250508190555080600360008473ffffffffffffffffffffffffffffffffffffffff1673ffffffffffffffffffffffffffffffffffffffff168152602001908152602001600020600082825401925050819055508173ffffffffffffffffffffffffffffffffffffffff16600073ffffffffffffffffffffffffffffffffffffffff167fddf252ad1be2c89b69c2b068fc378daa952ba7f163c4a11628f55a4df523b3ef836040516125ce9190612880565b60405180910390a35050565b6126457f0000000000000000000000000000000000000000000000000000000000000000837f000000000000000000000000000000000000000000000000000000000000000073ffffffffffffffffffffffffffffffffffffffff166127cf9092919063ffffffff16565b7f000000000000000000000000000000000000000000000000000000000000000073ffffffffffffffffffffffffffffffffffffffff1663617ba0377f0000000000000000000000000000000000000000000000000000000000000000843060006040518563ffffffff1660e01b81526004016126c59493929190613955565b600060405180830381600087803b1580156126df57600080fd5b505af11580156126f3573d6000803e3d6000fd5b505050505050565b5050565b80600360008473ffffffffffffffffffffffffffffffffffffffff1673ffffffffffffffffffffffffffffffffffffffff168152602001908152602001600020600082825461274e9190612ef2565b9250508190555080600260008282540392505081905550600073ffffffffffffffffffffffffffffffffffffffff168273ffffffffffffffffffffffffffffffffffffffff167fddf252ad1be2c89b69c2b068fc378daa952ba7f163c4a11628f55a4df523b3ef836040516127c39190612880565b60405180910390a35050565b60006040517f095ea7b3000000000000000000000000000000000000000000000000000000008152836004820152826024820152602060006044836000895af13d15601f3d1160016000511416171691505080612861576040517f08c379a0000000000000000000000000000000000000000000000000000000008152600401612858906139e6565b60405180910390fd5b50505050565b6000819050919050565b61287a81612867565b82525050565b60006020820190506128956000830184612871565b92915050565b600081519050919050565b600082825260208201905092915050565b60005b838110156128d55780820151818401526020810190506128ba565b60008484015250505050565b6000601f19601f8301169050919050565b60006128fd8261289b565b61290781856128a6565b93506129178185602086016128b7565b612920816128e1565b840191505092915050565b6000602082019050818103600083015261294581846128f2565b905092915050565b6000604051905090565b600080fd5b61296581612867565b811461297057600080fd5b50565b6000813590506129828161295c565b92915050565b60006020828403121561299e5761299d612957565b5b60006129ac84828501612973565b91505092915050565b600073ffffffffffffffffffffffffffffffffffffffff82169050919050565b60006129e0826129b5565b9050919050565b6129f0816129d5565b81146129fb57600080fd5b50565b600081359050612a0d816129e7565b92915050565b60008060408385031215612a2a57612a29612957565b5b6000612a38858286016129fe565b9250506020612a4985828601612973565b9150509250929050565b60008115159050919050565b612a6881612a53565b82525050565b6000602082019050612a836000830184612a5f565b92915050565b600080600060608486031215612aa257612aa1612957565b5b6000612ab0868287016129fe565b9350506020612ac1868287016129fe565b9250506040612ad286828701612973565b9150509250925092565b600060ff82169050919050565b612af281612adc565b82525050565b6000602082019050612b0d6000830184612ae9565b92915050565b6000819050919050565b612b2681612b13565b82525050565b6000602082019050612b416000830184612b1d565b92915050565b6000819050919050565b6000612b6c612b67612b62846129b5565b612b47565b6129b5565b9050919050565b6000612b7e82612b51565b9050919050565b6000612b9082612b73565b9050919050565b612ba081612b85565b82525050565b6000602082019050612bbb6000830184612b97565b92915050565b600060208284031215612bd757612bd6612957565b5b6000612be5848285016129fe565b91505092915050565b60008060408385031215612c0557612c04612957565b5b6000612c1385828601612973565b9250506020612c24858286016129fe565b9150509250929050565b6000612c3982612b73565b9050919050565b612c4981612c2e565b82525050565b6000602082019050612c646000830184612c40565b92915050565b600080600060608486031215612c8357612c82612957565b5b6000612c9186828701612973565b9350506020612ca2868287016129fe565b9250506040612cb3868287016129fe565b9150509250925092565b612cc681612adc565b8114612cd157600080fd5b50565b600081359050612ce381612cbd565b92915050565b612cf281612b13565b8114612cfd57600080fd5b50565b600081359050612d0f81612ce9565b92915050565b600080600080600080600060e0888a031215612d3457612d33612957565b5b6000612d428a828b016129fe565b9750506020612d538a828b016129fe565b9650506040612d648a828b01612973565b9550506060612d758a828b01612973565b9450506080612d868a828b01612cd4565b93505060a0612d978a828b01612d00565b92505060c0612da88a828b01612d00565b91505092959891949750929550565b60008060408385031215612dce57612dcd612957565b5b6000612ddc858286016129fe565b9250506020612ded858286016129fe565b9150509250929050565b612e00816129d5565b82525050565b6000602082019050612e1b6000830184612df7565b92915050565b600081519050612e308161295c565b92915050565b600060208284031215612e4c57612e4b612957565b5b6000612e5a84828501612e21565b91505092915050565b7f4e487b7100000000000000000000000000000000000000000000000000000000600052602260045260246000fd5b60006002820490506001821680612eaa57607f821691505b602082108103612ebd57612ebc612e63565b5b50919050565b7f4e487b7100000000000000000000000000000000000000000000000000000000600052601160045260246000fd5b6000612efd82612867565b9150612f0883612867565b9250828203905081811115612f2057612f1f612ec3565b5b92915050565b600080fd5b7f4e487b7100000000000000000000000000000000000000000000000000000000600052604160045260246000fd5b612f63826128e1565b810181811067ffffffffffffffff82111715612f8257612f81612f2b565b5b80604052505050565b6000612f9561294d565b9050612fa18282612f5a565b919050565b600060208284031215612fbc57612fbb612f26565b5b612fc66020612f8b565b90506000612fd684828501612e21565b60008301525092915050565b60006fffffffffffffffffffffffffffffffff82169050919050565b61300781612fe2565b811461301257600080fd5b50565b60008151905061302481612ffe565b92915050565b600064ffffffffff82169050919050565b6130448161302a565b811461304f57600080fd5b50565b6000815190506130618161303b565b92915050565b600061ffff82169050919050565b61307e81613067565b811461308957600080fd5b50565b60008151905061309b81613075565b92915050565b6000815190506130b0816129e7565b92915050565b60006101e082840312156130cd576130cc612f26565b5b6130d86101e0612f8b565b905060006130e884828501612fa6565b60008301525060206130fc84828501613015565b602083015250604061311084828501613015565b604083015250606061312484828501613015565b606083015250608061313884828501613015565b60808301525060a061314c84828501613015565b60a08301525060c061316084828501613052565b60c08301525060e06131748482850161308c565b60e083015250610100613189848285016130a1565b6101008301525061012061319f848285016130a1565b610120830152506101406131b5848285016130a1565b610140830152506101606131cb848285016130a1565b610160830152506101806131e184828501613015565b610180830152506101a06131f784828501613015565b6101a0830152506101c061320d84828501613015565b6101c08301525092915050565b60006101e0828403121561323157613230612957565b5b600061323f848285016130b6565b91505092915050565b60008160011c9050919050565b6000808291508390505b600185111561329f5780860481111561327b5761327a612ec3565b5b600185161561328a5780820291505b808102905061329885613248565b945061325f565b94509492505050565b6000826132b85760019050613374565b816132c65760009050613374565b81600181146132dc57600281146132e657613315565b6001915050613374565b60ff8411156132f8576132f7612ec3565b5b8360020a91508482111561330f5761330e612ec3565b5b50613374565b5060208310610133831016604e8410600b841016171561334a5782820a90508381111561334557613344612ec3565b5b613374565b6133578484846001613255565b9250905081840481111561336e5761336d612ec3565b5b81810290505b9392505050565b600061338682612867565b915061339183612adc565b92506133be7fffffffffffffffffffffffffffffffffffffffffffffffffffffffffffffffff84846132a8565b905092915050565b60006133d182612867565b91506133dc83612867565b92508282026133ea81612867565b9150828204841483151761340157613400612ec3565b5b5092915050565b7f5a45524f5f534841524553000000000000000000000000000000000000000000600082015250565b600061343e600b836128a6565b915061344982613408565b602082019050919050565b6000602082019050818103600083015261346d81613431565b9050919050565b60006040820190506134896000830185612871565b6134966020830184612871565b9392505050565b60006060820190506134b26000830186612df7565b6134bf6020830185612871565b6134cc6040830184612df7565b949350505050565b7f5a45524f5f415353455453000000000000000000000000000000000000000000600082015250565b600061350a600b836128a6565b9150613515826134d4565b602082019050919050565b60006020820190508181036000830152613539816134fd565b9050919050565b7f5045524d49545f444541444c494e455f45585049524544000000000000000000600082015250565b60006135766017836128a6565b915061358182613540565b602082019050919050565b600060208201905081810360008301526135a581613569565b9050919050565b600060c0820190506135c16000830189612b1d565b6135ce6020830188612df7565b6135db6040830187612df7565b6135e86060830186612871565b6135f56080830185612871565b61360260a0830184612871565b979650505050505050565b600081905092915050565b7f1901000000000000000000000000000000000000000000000000000000000000600082015250565b600061364e60028361360d565b915061365982613618565b600282019050919050565b6000819050919050565b61367f61367a82612b13565b613664565b82525050565b600061369082613641565b915061369c828561366e565b6020820191506136ac828461366e565b6020820191508190509392505050565b60006080820190506136d16000830187612b1d565b6136de6020830186612ae9565b6136eb6040830185612b1d565b6136f86060830184612b1d565b95945050505050565b7f494e56414c49445f5349474e4552000000000000000000000000000000000000600082015250565b6000613737600e836128a6565b915061374282613701565b602082019050919050565b600060208201905081810360008301526137668161372a565b9050919050565b600081905092915050565b60008190508160005260206000209050919050565b6000815461379a81612e92565b6137a4818661376d565b945060018216600081146137bf57600181146137d457613807565b60ff1983168652811515820286019350613807565b6137dd85613778565b60005b838110156137ff578154818901526001820191506020810190506137e0565b838801955050505b50505092915050565b600061381c828461378d565b915081905092915050565b600060a08201905061383c6000830188612b1d565b6138496020830187612b1d565b6138566040830186612b1d565b6138636060830185612871565b6138706080830184612df7565b9695505050505050565b7f5452414e534645525f46524f4d5f4641494c4544000000000000000000000000600082015250565b60006138b06014836128a6565b91506138bb8261387a565b602082019050919050565b600060208201905081810360008301526138df816138a3565b9050919050565b60006138f182612867565b91506138fc83612867565b925082820190508082111561391457613913612ec3565b5b92915050565b6000819050919050565b600061393f61393a6139358461391a565b612b47565b613067565b9050919050565b61394f81613924565b82525050565b600060808201905061396a6000830187612df7565b6139776020830186612871565b6139846040830185612df7565b6139916060830184613946565b95945050505050565b7f415050524f56455f4641494c4544000000000000000000000000000000000000600082015250565b60006139d0600e836128a6565b91506139db8261399a565b602082019050919050565b600060208201905081810360008301526139ff816139c3565b905091905056fea264697066735822122087103eb1669271d12f298e5e255f34f4e97eeded31549a36721c89e3eb42c14564736f6c63430008130033",
  "immutableReferences": {
    "1648": [
      {
        "length": 32,
        "start": 3123
      },
      {
        "length": 32,
        "start": 3222
      },
      {
        "length": 32,
        "start": 3791
      },
      {
        "length": 32,
        "start": 4058
      },
      {
        "length": 32,
        "start": 5388
      },
      {
        "length": 32,
        "start": 6176
      },
      {
        "length": 32,
        "start": 6379
      },
      {
        "length": 32,
        "start": 6975
      },
      {
        "length": 32,
        "start": 7155
      },
      {
        "length": 32,
        "start": 8269
      },
      {
        "length": 32,
        "start": 8449
      },
      {
        "length": 32,
        "start": 9729
      },
      {
        "length": 32,
        "start": 9859
      }
    ],
    "2151": [
      {
        "length": 32,
        "start": 2994
      }
    ],
    "2165": [
      {
        "length": 32,
        "start": 3032
      }
    ],
    "2167": [
      {
        "length": 32,
        "start": 3084
      }
    ],
    "2840": [
      {
        "length": 32,
        "start": 1741
      },
      {
        "length": 32,
        "start": 3522
      },
      {
        "length": 32,
        "start": 4400
      },
      {
        "length": 32,
        "start": 6682
      },
      {
        "length": 32,
        "start": 7215
      },
      {
        "length": 32,
        "start": 8509
      }
    ],
    "2844": [
      {
        "length": 32,
        "start": 3162
      },
      {
        "length": 32,
        "start": 4436
      },
      {
        "length": 32,
        "start": 5328
      },
      {
        "length": 32,
        "start": 6116
      },
      {
        "length": 32,
        "start": 6319
      },
      {
        "length": 32,
        "start": 6915
      },
      {
        "length": 32,
        "start": 8209
      },
      {
        "length": 32,
        "start": 9695
      },
      {
        "length": 32,
        "start": 9799
      }
    ]
  },
  "source": "// SPDX-License-Identifier: AGPL-3.0\npragma solidity ^0.8.19;\n\nimport {ERC20} from \"../../solmate/tokens/ERC20.sol\";\nimport {ERC4626} from \"../../solmate/mixins/ERC4626.sol\";\nimport {SafeTransferLib} from \"../../solmate/utils/SafeTransferLib.sol\";\n\nimport {IPool} from \"./external/IPool.sol\";\n\n/// @title AaveV3ERC4626\n/// @author zefram.eth\n/// @notice ERC4626 wrapper for Aave V3\n/// @dev Important security note: due to Aave using a rebasing model for aTokens,\n/// this contract cannot independently keep track of the deposited funds, so it is possible\n/// for an attacker to directly transfer aTokens to this contract, increase the vault share\n/// price atomically, and then exploit an external lending market that uses this contract\n/// as collateral.\ncontract AaveV3ERC4626 is ERC4626 {\n    /// -----------------------------------------------------------------------\n    /// Libraries usage\n    /// -----------------------------------------------------------------------\n\n    using SafeTransferLib for ERC20;\n\n    /// -----------------------------------------------------------------------\n    /// Constants\n    /// -----------------------------------------------------------------------\n\n    uint256 internal constant DECIMALS_MASK = 0xFFFFFFFFFFFFFFFFFFFFFFFFFFFFFFFFFFFFFFFFFFFFFFFFFF00FFFFFFFFFFFF;\n    uint256 internal constant ACTIVE_MASK = 0xFFFFFFFFFFFFFFFFFFFFFFFFFFFFFFFFFFFFFFFFFFFFFFFFFEFFFFFFFFFFFFFF;\n    uint256 internal constant FROZEN_MASK = 0xFFFFFFFFFFFFFFFFFFFFFFFFFFFFFFFFFFFFFFFFFFFFFFFFFDFFFFFFFFFFFFFF;\n    uint256 internal constant PAUSED_MASK = 0xFFFFFFFFFFFFFFFFFFFFFFFFFFFFFFFFFFFFFFFFFFFFFFFFEFFFFFFFFFFFFFFF;\n    uint256 internal constant SUPPLY_CAP_MASK = 0xFFFFFFFFFFFFFFFFFFFFFFFFFF000000000FFFFFFFFFFFFFFFFFFFFFFFFFFFFF;\n\n    uint256 internal constant SUPPLY_CAP_START_BIT_POSITION = 116;\n    uint256 internal constant RESERVE_DECIMALS_START_BIT_POSITION = 48;\n\n    /// -----------------------------------------------------------------------\n    /// Immutable params\n    /// -----------------------------------------------------------------------\n\n    /// @notice The Aave aToken contract\n    ERC20 public immutable aToken;\n\n    /// @notice The Aave Pool contract\n    IPool public immutable lendingPool;\n\n    /// -----------------------------------------------------------------------\n    /// Constructor\n    /// -----------------------------------------------------------------------\n\n    constructor(\n        ERC20 asset_,\n        ERC20 aToken_,\n        IPool lendingPool_\n    ) ERC4626(asset_, _vaultName(asset_), _vaultSymbol(asset_)) {\n        aToken = aToken_;\n        lendingPool = lendingPool_;\n    }\n\n    /// -----------------------------------------------------------------------\n    /// ERC4626 overrides\n    /// -----------------------------------------------------------------------\n\n    function withdraw(uint256 assets, address receiver, address owner)\n        public\n        virtual\n        override\n        returns (uint256 shares)\n    {\n        shares = previewWithdraw(assets); // No need to check for rounding error, previewWithdraw rounds up.\n\n        if (msg.sender != owner) {\n            uint256 allowed = allowance[owner][msg.sender]; // Saves gas for limited approvals.\n\n            if (allowed != type(uint256).max) {\n                allowance[owner][msg.sender] = allowed - shares;\n            }\n        }\n\n        beforeWithdraw(assets, shares);\n\n        _burn(owner, shares);\n\n        emit Withdraw(msg.sender, receiver, owner, assets, shares);\n\n        // withdraw assets directly from Aave\n        lendingPool.withdraw(address(asset), assets, receiver);\n    }\n\n    function redeem(uint256 shares, address receiver, address owner) public virtual override returns (uint256 assets) {\n        if (msg.sender != owner) {\n            uint256 allowed = allowance[owner][msg.sender]; // Saves gas for limited approvals.\n\n            if (allowed != type(uint256).max) {\n                allowance[owner][msg.sender] = allowed - shares;\n            }\n        }\n\n        // Check for rounding error since we round down in previewRedeem.\n        require((assets = previewRedeem(shares)) != 0, \"ZERO_ASSETS\");\n\n        beforeWithdraw(assets, shares);\n\n        _burn(owner, shares);\n\n        emit Withdraw(msg.sender, receiver, owner, assets, shares);\n\n        // withdraw assets directly from Aave\n        lendingPool.withdraw(address(asset), assets, receiver);\n    }\n\n    function totalAssets() public view virtual override returns (uint256) {\n        // aTokens use rebasing to accrue interest, so the total assets is just the aToken balance\n        return aToken.balanceOf(address(this));\n    }\n\n    function afterDeposit(uint256 assets, uint256 /*shares*/ ) internal virtual override {\n        /// -----------------------------------------------------------------------\n        /// Deposit assets into Aave\n        /// -----------------------------------------------------------------------\n\n        // approve to lendingPool\n        asset.safeApprove(address(lendingPool), assets);\n\n        // deposit into lendingPool\n        lendingPool.supply(address(asset), assets, address(this), 0);\n    }\n\n    function maxDeposit(address) public view virtual override returns (uint256) {\n        // check if asset is paused\n        uint256 configData = lendingPool.getReserveData(address(asset)).configuration.data;\n        if (!(_getActive(configData) && !_getFrozen(configData) && !_getPaused(configData))) {\n            return 0;\n        }\n\n        // handle supply cap\n        uint256 supplyCapInWholeTokens = _getSupplyCap(configData);\n        if (supplyCapInWholeTokens == 0) {\n            return type(uint256).max;\n        }\n\n        uint8 tokenDecimals = _getDecimals(configData);\n        uint256 supplyCap = supplyCapInWholeTokens * 10 ** tokenDecimals;\n        return supplyCap - aToken.totalSupply();\n    }\n\n    function maxMint(address) public view virtual override returns (uint256) {\n        // check if asset is paused\n        uint256 configData = lendingPool.getReserveData(address(asset)).configuration.data;\n        if (!(_getActive(configData) && !_getFrozen(configData) && !_getPaused(configData))) {\n            return 0;\n        }\n\n        // handle supply cap\n        uint256 supplyCapInWholeTokens = _getSupplyCap(configData);\n        if (supplyCapInWholeTokens == 0) {\n            return type(uint256).max;\n        }\n\n        uint8 tokenDecimals = _getDecimals(configData);\n        uint256 supplyCap = supplyCapInWholeTokens * 10 ** tokenDecimals;\n        return convertToShares(supplyCap - aToken.totalSupply());\n    }\n\n    function maxWithdraw(address owner) public view virtual override returns (uint256) {\n        // check if asset is paused\n        uint256 configData = lendingPool.getReserveData(address(asset)).configuration.data;\n        if (!(_getActive(configData) && !_getPaused(configData))) {\n            return 0;\n        }\n\n        uint256 cash = asset.balanceOf(address(aToken));\n        uint256 assetsBalance = convertToAssets(balanceOf[owner]);\n        return cash < assetsBalance ? cash : assetsBalance;\n    }\n\n    function maxRedeem(address owner) public view virtual override returns (uint256) {\n        // check if asset is paused\n        uint256 configData = lendingPool.getReserveData(address(asset)).configuration.data;\n        if (!(_getActive(configData) && !_getPaused(configData))) {\n            return 0;\n        }\n\n        uint256 cash = asset.balanceOf(address(aToken));\n        uint256 cashInShares = convertToShares(cash);\n        uint256 shareBalance = balanceOf[owner];\n        return cashInShares < shareBalance ? cashInShares : shareBalance;\n    }\n\n    /// -----------------------------------------------------------------------\n    /// ERC20 metadata generation\n    /// -----------------------------------------------------------------------\n\n    function _vaultName(ERC20 asset_) internal view virtual returns (string memory vaultName) {\n        vaultName = string.concat(\"ERC4626-Wrapped Aave v3 \", asset_.symbol());\n    }\n\n    function _vaultSymbol(ERC20 asset_) internal view virtual returns (string memory vaultSymbol) {\n        vaultSymbol = string.concat(\"wa\", asset_.symbol());\n    }\n\n    /// -----------------------------------------------------------------------\n    /// Internal functions\n    /// -----------------------------------------------------------------------\n\n    function _getDecimals(uint256 configData) internal pure returns (uint8) {\n        return uint8((configData & ~DECIMALS_MASK) >> RESERVE_DECIMALS_START_BIT_POSITION);\n    }\n\n    function _getActive(uint256 configData) internal pure returns (bool) {\n        return configData & ~ACTIVE_MASK != 0;\n    }\n\n    function _getFrozen(uint256 configData) internal pure returns (bool) {\n        return configData & ~FROZEN_MASK != 0;\n    }\n\n    function _getPaused(uint256 configData) internal pure returns (bool) {\n        return configData & ~PAUSED_MASK != 0;\n    }\n\n    function _getSupplyCap(uint256 configData) internal pure returns (uint256) {\n        return (configData & ~SUPPLY_CAP_MASK) >> SUPPLY_CAP_START_BIT_POSITION;\n    }\n}",
  "sourcePath": "/Users/blabla/Documents/gelato_test/contracts/yield-daddy/aave-v3/AaveV3ERC4626.sol",
  "compiler": {
    "name": "solc",
    "version": "0.8.19+commit.7dd6d404.Emscripten.clang"
  },
  "schemaVersion": "3.4.11",
  "updatedAt": "2023-03-03T02:53:06.383Z",
  "devdoc": {
    "author": "zefram.eth",
    "details": "Important security note: due to Aave using a rebasing model for aTokens, this contract cannot independently keep track of the deposited funds, so it is possible for an attacker to directly transfer aTokens to this contract, increase the vault share price atomically, and then exploit an external lending market that uses this contract as collateral.",
    "kind": "dev",
    "methods": {},
    "title": "AaveV3ERC4626",
    "version": 1
  },
  "userdoc": {
    "kind": "user",
    "methods": {
      "aToken()": {
        "notice": "The Aave aToken contract"
      },
      "constructor": {
        "notice": "----------------------------------------------------------------------- Constructor -----------------------------------------------------------------------"
      },
      "lendingPool()": {
        "notice": "The Aave Pool contract"
      },
      "withdraw(uint256,address,address)": {
        "notice": "----------------------------------------------------------------------- ERC4626 overrides -----------------------------------------------------------------------"
      }
    },
    "notice": "ERC4626 wrapper for Aave V3",
    "version": 1
  }
}