{
  "contractName": "CounterSingleExecTaskCreator",
  "abi": [
    {
      "inputs": [
        {
          "internalType": "address",
          "name": "_ops",
          "type": "address"
        },
        {
          "internalType": "address",
          "name": "_fundsOwner",
          "type": "address"
        }
      ],
      "stateMutability": "nonpayable",
      "type": "constructor"
    },
    {
      "anonymous": false,
      "inputs": [
        {
          "indexed": false,
          "internalType": "bytes32",
          "name": "taskId",
          "type": "bytes32"
        }
      ],
      "name": "CounterTaskCreated",
      "type": "event"
    },
    {
      "inputs": [],
      "name": "INTERVAL",
      "outputs": [
        {
          "internalType": "uint256",
          "name": "",
          "type": "uint256"
        }
      ],
      "stateMutability": "view",
      "type": "function"
    },
    {
      "inputs": [],
      "name": "MAX_COUNT",
      "outputs": [
        {
          "internalType": "uint256",
          "name": "",
          "type": "uint256"
        }
      ],
      "stateMutability": "view",
      "type": "function"
    },
    {
      "inputs": [],
      "name": "count",
      "outputs": [
        {
          "internalType": "uint256",
          "name": "",
          "type": "uint256"
        }
      ],
      "stateMutability": "view",
      "type": "function"
    },
    {
      "inputs": [],
      "name": "dedicatedMsgSender",
      "outputs": [
        {
          "internalType": "address",
          "name": "",
          "type": "address"
        }
      ],
      "stateMutability": "view",
      "type": "function"
    },
    {
      "inputs": [],
      "name": "fundsOwner",
      "outputs": [
        {
          "internalType": "address",
          "name": "",
          "type": "address"
        }
      ],
      "stateMutability": "view",
      "type": "function"
    },
    {
      "inputs": [],
      "name": "lastExecuted",
      "outputs": [
        {
          "internalType": "uint256",
          "name": "",
          "type": "uint256"
        }
      ],
      "stateMutability": "view",
      "type": "function"
    },
    {
      "inputs": [],
      "name": "ops",
      "outputs": [
        {
          "internalType": "contract IOps",
          "name": "",
          "type": "address"
        }
      ],
      "stateMutability": "view",
      "type": "function"
    },
    {
      "inputs": [],
      "name": "taskId",
      "outputs": [
        {
          "internalType": "bytes32",
          "name": "",
          "type": "bytes32"
        }
      ],
      "stateMutability": "view",
      "type": "function"
    },
    {
      "inputs": [],
      "name": "taskTreasury",
      "outputs": [
        {
          "internalType": "contract ITaskTreasuryUpgradable",
          "name": "",
          "type": "address"
        }
      ],
      "stateMutability": "view",
      "type": "function"
    },
    {
      "inputs": [
        {
          "internalType": "uint256",
          "name": "_amount",
          "type": "uint256"
        },
        {
          "internalType": "address",
          "name": "_token",
          "type": "address"
        }
      ],
      "name": "withdrawFunds",
      "outputs": [],
      "stateMutability": "nonpayable",
      "type": "function"
    },
    {
      "inputs": [],
      "name": "createTask",
      "outputs": [],
      "stateMutability": "nonpayable",
      "type": "function"
    },
    {
      "inputs": [
        {
          "internalType": "uint256",
          "name": "_amount",
          "type": "uint256"
        }
      ],
      "name": "increaseCount",
      "outputs": [],
      "stateMutability": "nonpayable",
      "type": "function"
    }
  ],
  "bytecode": "0x6101206040523480156200001257600080fd5b50604051620016c1380380620016c183398181016040528101906200003891906200032e565b818181308173ffffffffffffffffffffffffffffffffffffffff1660808173ffffffffffffffffffffffffffffffffffffffff16815250508173ffffffffffffffffffffffffffffffffffffffff1663573ea5756040518163ffffffff1660e01b8152600401602060405180830381865afa158015620000bc573d6000803e3d6000fd5b505050506040513d601f19601f82011682018060405250810190620000e29190620003ba565b73ffffffffffffffffffffffffffffffffffffffff1660c08173ffffffffffffffffffffffffffffffffffffffff168152505073c815db16d4be6ddf2685c201937905abf338f5d773ffffffffffffffffffffffffffffffffffffffff1663ded89a7c826040518263ffffffff1660e01b8152600401620001649190620003fd565b6040805180830381865afa15801562000181573d6000803e3d6000fd5b505050506040513d601f19601f82011682018060405250810190620001a7919062000457565b508073ffffffffffffffffffffffffffffffffffffffff1660a09073ffffffffffffffffffffffffffffffffffffffff168152505050508073ffffffffffffffffffffffffffffffffffffffff1660e08173ffffffffffffffffffffffffffffffffffffffff168152505060805173ffffffffffffffffffffffffffffffffffffffff1663e60a32136040518163ffffffff1660e01b8152600401602060405180830381865afa15801562000260573d6000803e3d6000fd5b505050506040513d601f19601f82011682018060405250810190620002869190620004e3565b73ffffffffffffffffffffffffffffffffffffffff166101008173ffffffffffffffffffffffffffffffffffffffff16815250505050505062000515565b600080fd5b600073ffffffffffffffffffffffffffffffffffffffff82169050919050565b6000620002f682620002c9565b9050919050565b6200030881620002e9565b81146200031457600080fd5b50565b6000815190506200032881620002fd565b92915050565b60008060408385031215620003485762000347620002c4565b5b6000620003588582860162000317565b92505060206200036b8582860162000317565b9150509250929050565b60006200038282620002c9565b9050919050565b620003948162000375565b8114620003a057600080fd5b50565b600081519050620003b48162000389565b92915050565b600060208284031215620003d357620003d2620002c4565b5b6000620003e384828501620003a3565b91505092915050565b620003f781620002e9565b82525050565b6000602082019050620004146000830184620003ec565b92915050565b60008115159050919050565b62000431816200041a565b81146200043d57600080fd5b50565b600081519050620004518162000426565b92915050565b60008060408385031215620004715762000470620002c4565b5b6000620004818582860162000317565b9250506020620004948582860162000440565b9150509250929050565b6000620004ab82620002e9565b9050919050565b620004bd816200049e565b8114620004c957600080fd5b50565b600081519050620004dd81620004b2565b92915050565b600060208284031215620004fc57620004fb620002c4565b5b60006200050c84828501620004cc565b91505092915050565b60805160a05160c05160e051610100516111476200057a600039600081816103a4015261070f0152600081816102f20152818161031601526103e0015260005050600081816102170152610241015260008181610733015261078701526111476000f3fe608060405234801561001057600080fd5b50600436106100b45760003560e01c8063744bfe6111610071578063744bfe611461016b57806377163c1d1461018757806389facb20146101a5578063a7476493146101c3578063e60a3213146101cd578063e70abe92146101eb576100b4565b806306661abd146100b95780631c15ff77146100d757806328f150eb146100f55780633322b23d1461011357806346d4adf21461013157806346ee3c591461014d575b600080fd5b6100c1610209565b6040516100ce919061084a565b60405180910390f35b6100df61020f565b6040516100ec919061084a565b60405180910390f35b6100fd610215565b60405161010a91906108a6565b60405180910390f35b61011b610239565b60405161012891906108da565b60405180910390f35b61014b60048036038101906101469190610926565b61023f565b005b6101556102f0565b60405161016291906108a6565b60405180910390f35b6101856004803603810190610180919061097f565b610314565b005b61018f610455565b60405161019c919061084a565b60405180910390f35b6101ad61045a565b6040516101ba919061084a565b60405180910390f35b6101cb61045f565b005b6101d561070d565b6040516101e29190610a1e565b60405180910390f35b6101f3610731565b6040516102009190610a5a565b60405180910390f35b60005481565b60015481565b7f000000000000000000000000000000000000000000000000000000000000000081565b60025481565b7f000000000000000000000000000000000000000000000000000000000000000073ffffffffffffffffffffffffffffffffffffffff163373ffffffffffffffffffffffffffffffffffffffff16146102cd576040517f08c379a00000000000000000000000000000000000000000000000000000000081526004016102c490610ad2565b60405180910390fd5b806000808282546102de9190610b21565b92505081905550600060028190555050565b7f000000000000000000000000000000000000000000000000000000000000000081565b7f000000000000000000000000000000000000000000000000000000000000000073ffffffffffffffffffffffffffffffffffffffff163373ffffffffffffffffffffffffffffffffffffffff16146103a2576040517f08c379a000000000000000000000000000000000000000000000000000000000815260040161039990610bc7565b60405180910390fd5b7f000000000000000000000000000000000000000000000000000000000000000073ffffffffffffffffffffffffffffffffffffffff16631c20fadd7f000000000000000000000000000000000000000000000000000000000000000083856040518463ffffffff1660e01b815260040161041f93929190610c08565b600060405180830381600087803b15801561043957600080fd5b505af115801561044d573d6000803e3d6000fd5b505050505050565b600581565b60b481565b6000801916600254146104a7576040517f08c379a000000000000000000000000000000000000000000000000000000000815260040161049e90610c8b565b60405180910390fd5b60003073ffffffffffffffffffffffffffffffffffffffff166346d4adf260016040516024016104d79190610ce6565b604051602081830303815290604052915060e01b6020820180517bffffffffffffffffffffffffffffffffffffffffffffffffffffffff8381831617835250505050905060006040518060400160405280600267ffffffffffffffff81111561054357610542610d01565b5b6040519080825280602002602001820160405280156105715781602001602082028036833780820191505090505b508152602001600267ffffffffffffffff81111561059257610591610d01565b5b6040519080825280602002602001820160405280156105c557816020015b60608152602001906001900390816105b05790505b508152509050600281600001516000815181106105e5576105e4610d30565b5b602002602001019060038111156105ff576105fe610d5f565b5b9081600381111561061357610612610d5f565b5b815250506003816000015160018151811061063157610630610d30565b5b6020026020010190600381111561064b5761064a610d5f565b5b9081600381111561065f5761065e610d5f565b5b8152505061066b610755565b816020015160008151811061068357610682610d30565b5b602002602001018190525061069661076c565b81602001516001815181106106ae576106ad610d30565b5b602002602001018190525060006106c83084846000610783565b9050806002819055507fa585557108354aa3685e5fe0424ad88ab5bcabc78119a3d599ae901ccb1999938160405161070091906108da565b60405180910390a1505050565b7f000000000000000000000000000000000000000000000000000000000000000081565b7f000000000000000000000000000000000000000000000000000000000000000081565b606060405180602001604052806000815250905090565b606060405180602001604052806000815250905090565b60007f000000000000000000000000000000000000000000000000000000000000000073ffffffffffffffffffffffffffffffffffffffff16633323b467868686866040518563ffffffff1660e01b81526004016107e49493929190611065565b6020604051808303816000875af1158015610803573d6000803e3d6000fd5b505050506040513d601f19601f8201168201806040525081019061082791906110e4565b9050949350505050565b6000819050919050565b61084481610831565b82525050565b600060208201905061085f600083018461083b565b92915050565b600073ffffffffffffffffffffffffffffffffffffffff82169050919050565b600061089082610865565b9050919050565b6108a081610885565b82525050565b60006020820190506108bb6000830184610897565b92915050565b6000819050919050565b6108d4816108c1565b82525050565b60006020820190506108ef60008301846108cb565b92915050565b600080fd5b61090381610831565b811461090e57600080fd5b50565b600081359050610920816108fa565b92915050565b60006020828403121561093c5761093b6108f5565b5b600061094a84828501610911565b91505092915050565b61095c81610885565b811461096757600080fd5b50565b60008135905061097981610953565b92915050565b60008060408385031215610996576109956108f5565b5b60006109a485828601610911565b92505060206109b58582860161096a565b9150509250929050565b6000819050919050565b60006109e46109df6109da84610865565b6109bf565b610865565b9050919050565b60006109f6826109c9565b9050919050565b6000610a08826109eb565b9050919050565b610a18816109fd565b82525050565b6000602082019050610a336000830184610a0f565b92915050565b6000610a44826109eb565b9050919050565b610a5481610a39565b82525050565b6000602082019050610a6f6000830184610a4b565b92915050565b600082825260208201905092915050565b7f4f6e6c7920646564696361746564206d73672e73656e64657200000000000000600082015250565b6000610abc601983610a75565b9150610ac782610a86565b602082019050919050565b60006020820190508181036000830152610aeb81610aaf565b9050919050565b7f4e487b7100000000000000000000000000000000000000000000000000000000600052601160045260246000fd5b6000610b2c82610831565b9150610b3783610831565b9250828201905080821115610b4f57610b4e610af2565b5b92915050565b7f4f6e6c792066756e6473206f776e65722063616e20776974686472617720667560008201527f6e64730000000000000000000000000000000000000000000000000000000000602082015250565b6000610bb1602383610a75565b9150610bbc82610b55565b604082019050919050565b60006020820190508181036000830152610be081610ba4565b9050919050565b6000610bf282610865565b9050919050565b610c0281610be7565b82525050565b6000606082019050610c1d6000830186610bf9565b610c2a6020830185610897565b610c37604083018461083b565b949350505050565b7f416c72656164792073746172746564207461736b000000000000000000000000600082015250565b6000610c75601483610a75565b9150610c8082610c3f565b602082019050919050565b60006020820190508181036000830152610ca481610c68565b9050919050565b6000819050919050565b6000610cd0610ccb610cc684610cab565b6109bf565b610831565b9050919050565b610ce081610cb5565b82525050565b6000602082019050610cfb6000830184610cd7565b92915050565b7f4e487b7100000000000000000000000000000000000000000000000000000000600052604160045260246000fd5b7f4e487b7100000000000000000000000000000000000000000000000000000000600052603260045260246000fd5b7f4e487b7100000000000000000000000000000000000000000000000000000000600052602160045260246000fd5b600081519050919050565b600082825260208201905092915050565b60005b83811015610dc8578082015181840152602081019050610dad565b60008484015250505050565b6000601f19601f8301169050919050565b6000610df082610d8e565b610dfa8185610d99565b9350610e0a818560208601610daa565b610e1381610dd4565b840191505092915050565b600081519050919050565b600082825260208201905092915050565b6000819050602082019050919050565b60048110610e5b57610e5a610d5f565b5b50565b6000819050610e6c82610e4a565b919050565b6000610e7c82610e5e565b9050919050565b610e8c81610e71565b82525050565b6000610e9e8383610e83565b60208301905092915050565b6000602082019050919050565b6000610ec282610e1e565b610ecc8185610e29565b9350610ed783610e3a565b8060005b83811015610f08578151610eef8882610e92565b9750610efa83610eaa565b925050600181019050610edb565b5085935050505092915050565b600081519050919050565b600082825260208201905092915050565b6000819050602082019050919050565b600082825260208201905092915050565b6000610f5d82610d8e565b610f678185610f41565b9350610f77818560208601610daa565b610f8081610dd4565b840191505092915050565b6000610f978383610f52565b905092915050565b6000602082019050919050565b6000610fb782610f15565b610fc18185610f20565b935083602082028501610fd385610f31565b8060005b8581101561100f5784840389528151610ff08582610f8b565b9450610ffb83610f9f565b925060208a01995050600181019050610fd7565b50829750879550505050505092915050565b6000604083016000830151848203600086015261103e8282610eb7565b915050602083015184820360208601526110588282610fac565b9150508091505092915050565b600060808201905061107a6000830187610897565b818103602083015261108c8186610de5565b905081810360408301526110a08185611021565b90506110af6060830184610897565b95945050505050565b6110c1816108c1565b81146110cc57600080fd5b50565b6000815190506110de816110b8565b92915050565b6000602082840312156110fa576110f96108f5565b5b6000611108848285016110cf565b9150509291505056fea26469706673582212203410317bcac5eaf7bc2bc108838a7a9cba0d5847a51a474bfd5cdce31f2c19ee64736f6c63430008130033",
  "immutableReferences": {
    "1254": [
      {
        "length": 32,
        "start": 1843
      },
      {
        "length": 32,
        "start": 1927
      }
    ],
    "1256": [
      {
        "length": 32,
        "start": 535
      },
      {
        "length": 32,
        "start": 577
      }
    ],
    "1378": [
      {
        "length": 32,
        "start": 754
      },
      {
        "length": 32,
        "start": 790
      },
      {
        "length": 32,
        "start": 992
      }
    ],
    "1381": [
      {
        "length": 32,
        "start": 932
      },
      {
        "length": 32,
        "start": 1807
      }
    ]
  },
  "source": "// SPDX-License-Identifier: UNLICENSED\npragma solidity ^0.8.19;\n\nimport \"./OpsTaskCreator.sol\";\n\n/**\n * @dev\n * Example contract that creates a single exec task.\n */\n// solhint-disable not-rely-on-time\n// solhint-disable no-empty-blocks\ncontract CounterSingleExecTaskCreator is OpsTaskCreator {\n    uint256 public count;\n    uint256 public lastExecuted;\n    bytes32 public taskId;\n    uint256 public constant MAX_COUNT = 5;\n    uint256 public constant INTERVAL = 3 minutes;\n\n    event CounterTaskCreated(bytes32 taskId);\n\n    constructor(address _ops, address _fundsOwner)\n        OpsTaskCreator(_ops, _fundsOwner)\n    {}\n\n    function createTask() external {\n        require(taskId == bytes32(\"\"), \"Already started task\");\n\n        bytes memory execData = abi.encodeCall(this.increaseCount, (1));\n\n        ModuleData memory moduleData = ModuleData({\n            modules: new Module[](2),\n            args: new bytes[](2)\n        });\n        moduleData.modules[0] = Module.PROXY;\n        moduleData.modules[1] = Module.SINGLE_EXEC;\n\n        moduleData.args[0] = _proxyModuleArg();\n        moduleData.args[1] = _singleExecModuleArg();\n\n        bytes32 id = _createTask(\n            address(this),\n            execData,\n            moduleData,\n            address(0)\n        );\n\n        taskId = id;\n        emit CounterTaskCreated(id);\n    }\n\n    function increaseCount(uint256 _amount) external onlyDedicatedMsgSender {\n        count += _amount;\n        taskId = bytes32(\"\");\n    }\n}",
  "sourcePath": "/Users/blabla/Documents/gelato_test/contracts/CounterSingleExecTaskCreator.sol",
  "compiler": {
    "name": "solc",
    "version": "0.8.19+commit.7dd6d404.Emscripten.clang"
  },
  "schemaVersion": "3.4.11",
  "updatedAt": "2023-03-02T04:38:59.942Z",
  "devdoc": {
    "details": "Example contract that creates a single exec task.",
    "kind": "dev",
    "methods": {
      "withdrawFunds(uint256,address)": {
        "details": "Withdraw funds from this contract's Gelato balance to fundsOwner."
      }
    },
    "version": 1
  },
  "userdoc": {
    "kind": "user",
    "methods": {},
    "version": 1
  }
}