{
  "contractName": "CounterWT",
  "abi": [
    {
      "inputs": [
        {
          "internalType": "address",
          "name": "_ops",
          "type": "address"
        },
        {
          "internalType": "address",
          "name": "_taskCreator",
          "type": "address"
        }
      ],
      "stateMutability": "nonpayable",
      "type": "constructor"
    },
    {
      "inputs": [],
      "name": "count",
      "outputs": [
        {
          "internalType": "uint256",
          "name": "",
          "type": "uint256"
        }
      ],
      "stateMutability": "view",
      "type": "function",
      "constant": true
    },
    {
      "inputs": [],
      "name": "counter",
      "outputs": [
        {
          "internalType": "contract ICounter",
          "name": "",
          "type": "address"
        }
      ],
      "stateMutability": "view",
      "type": "function",
      "constant": true
    },
    {
      "inputs": [],
      "name": "dedicatedMsgSender",
      "outputs": [
        {
          "internalType": "address",
          "name": "",
          "type": "address"
        }
      ],
      "stateMutability": "view",
      "type": "function",
      "constant": true
    },
    {
      "inputs": [],
      "name": "lastExecuted",
      "outputs": [
        {
          "internalType": "uint256",
          "name": "",
          "type": "uint256"
        }
      ],
      "stateMutability": "view",
      "type": "function",
      "constant": true
    },
    {
      "inputs": [],
      "name": "ops",
      "outputs": [
        {
          "internalType": "contract IOps",
          "name": "",
          "type": "address"
        }
      ],
      "stateMutability": "view",
      "type": "function",
      "constant": true
    },
    {
      "stateMutability": "payable",
      "type": "receive",
      "payable": true
    },
    {
      "inputs": [],
      "name": "togglePrice",
      "outputs": [],
      "stateMutability": "nonpayable",
      "type": "function"
    },
    {
      "inputs": [
        {
          "internalType": "uint256",
          "name": "amount",
          "type": "uint256"
        }
      ],
      "name": "increaseCount",
      "outputs": [],
      "stateMutability": "nonpayable",
      "type": "function"
    },
    {
      "inputs": [],
      "name": "withdrawFunds",
      "outputs": [],
      "stateMutability": "nonpayable",
      "type": "function"
    },
    {
      "inputs": [],
      "name": "checker",
      "outputs": [
        {
          "internalType": "bool",
          "name": "canExec",
          "type": "bool"
        },
        {
          "internalType": "bytes",
          "name": "execPayload",
          "type": "bytes"
        }
      ],
      "stateMutability": "view",
      "type": "function",
      "constant": true
    }
  ],
  "bytecode": "0x6101006040523480156200001257600080fd5b506040516200155b3803806200155b83398181016040528101906200003891906200029d565b81818173ffffffffffffffffffffffffffffffffffffffff1660808173ffffffffffffffffffffffffffffffffffffffff16815250508173ffffffffffffffffffffffffffffffffffffffff1663573ea5756040518163ffffffff1660e01b8152600401602060405180830381865afa158015620000ba573d6000803e3d6000fd5b505050506040513d601f19601f82011682018060405250810190620000e0919062000329565b73ffffffffffffffffffffffffffffffffffffffff1660c08173ffffffffffffffffffffffffffffffffffffffff168152505073c815db16d4be6ddf2685c201937905abf338f5d773ffffffffffffffffffffffffffffffffffffffff1663ded89a7c826040518263ffffffff1660e01b81526004016200016291906200036c565b6040805180830381865afa1580156200017f573d6000803e3d6000fd5b505050506040513d601f19601f82011682018060405250810190620001a59190620003c6565b508073ffffffffffffffffffffffffffffffffffffffff1660a09073ffffffffffffffffffffffffffffffffffffffff168152505050503073ffffffffffffffffffffffffffffffffffffffff1660e08173ffffffffffffffffffffffffffffffffffffffff16815250506000600260006101000a81548160ff02191690831515021790555050506200040d565b600080fd5b600073ffffffffffffffffffffffffffffffffffffffff82169050919050565b6000620002658262000238565b9050919050565b620002778162000258565b81146200028357600080fd5b50565b60008151905062000297816200026c565b92915050565b60008060408385031215620002b757620002b662000233565b5b6000620002c78582860162000286565b9250506020620002da8582860162000286565b9150509250929050565b6000620002f18262000238565b9050919050565b6200030381620002e4565b81146200030f57600080fd5b50565b6000815190506200032381620002f8565b92915050565b60006020828403121562000342576200034162000233565b5b6000620003528482850162000312565b91505092915050565b620003668162000258565b82525050565b60006020820190506200038360008301846200035b565b92915050565b60008115159050919050565b620003a08162000389565b8114620003ac57600080fd5b50565b600081519050620003c08162000395565b92915050565b60008060408385031215620003e057620003df62000233565b5b6000620003f08582860162000286565b92505060206200040385828601620003af565b9150509250929050565b60805160a05160c05160e0516110ff6200045c600039600061033c01526000818161050901526105dd01526000818161024d01526102710152600081816103ff015261042601526110ff6000f3fe60806040526004361061008a5760003560e01c806346d4adf21161005957806346d4adf21461012e57806361bc221a146101575780639cd3235714610182578063cf5303cf14610199578063e70abe92146101c557610091565b806306661abd146100965780631c15ff77146100c157806324600fc3146100ec57806328f150eb1461010357610091565b3661009157005b600080fd5b3480156100a257600080fd5b506100ab6101f0565b6040516100b8919061093a565b60405180910390f35b3480156100cd57600080fd5b506100d66101f6565b6040516100e3919061093a565b60405180910390f35b3480156100f857600080fd5b506101016101fc565b005b34801561010f57600080fd5b5061011861024b565b6040516101259190610996565b60405180910390f35b34801561013a57600080fd5b50610155600480360381019061015091906109e2565b61026f565b005b34801561016357600080fd5b5061016c61033a565b6040516101799190610a6e565b60405180910390f35b34801561018e57600080fd5b5061019761035e565b005b3480156101a557600080fd5b506101ae61038a565b6040516101bc929190610b34565b60405180910390f35b3480156101d157600080fd5b506101da6103fd565b6040516101e79190610b85565b60405180910390f35b60005481565b60015481565b60003390508073ffffffffffffffffffffffffffffffffffffffff166108fc479081150290604051600060405180830381858888f19350505050158015610247573d6000803e3d6000fd5b5050565b7f000000000000000000000000000000000000000000000000000000000000000081565b7f000000000000000000000000000000000000000000000000000000000000000073ffffffffffffffffffffffffffffffffffffffff163373ffffffffffffffffffffffffffffffffffffffff16146102fd576040517f08c379a00000000000000000000000000000000000000000000000000000000081526004016102f490610bfd565b60405180910390fd5b8060008082825461030e9190610c4c565b9250508190555042600181905550600080610327610421565b9150915061033582826104be565b505050565b7f000000000000000000000000000000000000000000000000000000000000000081565b600260009054906101000a900460ff1615600260006101000a81548160ff021916908315150217905550565b60006060600260009054906101000a900460ff16915060016040516024016103b29190610cbb565b6040516020818303038152906040526346d4adf260e01b6020820180517bffffffffffffffffffffffffffffffffffffffffffffffffffffffff838183161783525050505090509091565b7f000000000000000000000000000000000000000000000000000000000000000081565b6000807f000000000000000000000000000000000000000000000000000000000000000073ffffffffffffffffffffffffffffffffffffffff1663b810c6366040518163ffffffff1660e01b81526004016040805180830381865afa15801561048e573d6000803e3d6000fd5b505050506040513d601f19601f820116820180604052508101906104b29190610d17565b80925081935050509091565b73eeeeeeeeeeeeeeeeeeeeeeeeeeeeeeeeeeeeeeee73ffffffffffffffffffffffffffffffffffffffff168173ffffffffffffffffffffffffffffffffffffffff16036105d75760007f000000000000000000000000000000000000000000000000000000000000000073ffffffffffffffffffffffffffffffffffffffff168360405161054b90610d88565b60006040518083038185875af1925050503d8060008114610588576040519150601f19603f3d011682016040523d82523d6000602084013e61058d565b606091505b50509050806105d1576040517f08c379a00000000000000000000000000000000000000000000000000000000081526004016105c890610de9565b60405180910390fd5b50610603565b610602817f000000000000000000000000000000000000000000000000000000000000000084610607565b5b5050565b6106888363a9059cbb60e01b8484604051602401610626929190610e09565b604051602081830303815290604052907bffffffffffffffffffffffffffffffffffffffffffffffffffffffff19166020820180517bffffffffffffffffffffffffffffffffffffffffffffffffffffffff838183161783525050505061068d565b505050565b60006106ef826040518060400160405280602081526020017f5361666545524332303a206c6f772d6c6576656c2063616c6c206661696c65648152508573ffffffffffffffffffffffffffffffffffffffff166107549092919063ffffffff16565b905060008151111561074f578080602001905181019061070f9190610e5e565b61074e576040517f08c379a000000000000000000000000000000000000000000000000000000000815260040161074590610efd565b60405180910390fd5b5b505050565b6060610763848460008561076c565b90509392505050565b6060824710156107b1576040517f08c379a00000000000000000000000000000000000000000000000000000000081526004016107a890610f8f565b60405180910390fd5b6000808673ffffffffffffffffffffffffffffffffffffffff1685876040516107da9190610fe0565b60006040518083038185875af1925050503d8060008114610817576040519150601f19603f3d011682016040523d82523d6000602084013e61081c565b606091505b509150915061082d87838387610839565b92505050949350505050565b6060831561089b57600083510361089357610853856108ae565b610892576040517f08c379a000000000000000000000000000000000000000000000000000000000815260040161088990611043565b60405180910390fd5b5b8290506108a6565b6108a583836108d1565b5b949350505050565b6000808273ffffffffffffffffffffffffffffffffffffffff163b119050919050565b6000825111156108e45781518083602001fd5b806040517f08c379a000000000000000000000000000000000000000000000000000000000815260040161091891906110a7565b60405180910390fd5b6000819050919050565b61093481610921565b82525050565b600060208201905061094f600083018461092b565b92915050565b600073ffffffffffffffffffffffffffffffffffffffff82169050919050565b600061098082610955565b9050919050565b61099081610975565b82525050565b60006020820190506109ab6000830184610987565b92915050565b600080fd5b6109bf81610921565b81146109ca57600080fd5b50565b6000813590506109dc816109b6565b92915050565b6000602082840312156109f8576109f76109b1565b5b6000610a06848285016109cd565b91505092915050565b6000819050919050565b6000610a34610a2f610a2a84610955565b610a0f565b610955565b9050919050565b6000610a4682610a19565b9050919050565b6000610a5882610a3b565b9050919050565b610a6881610a4d565b82525050565b6000602082019050610a836000830184610a5f565b92915050565b60008115159050919050565b610a9e81610a89565b82525050565b600081519050919050565b600082825260208201905092915050565b60005b83811015610ade578082015181840152602081019050610ac3565b60008484015250505050565b6000601f19601f8301169050919050565b6000610b0682610aa4565b610b108185610aaf565b9350610b20818560208601610ac0565b610b2981610aea565b840191505092915050565b6000604082019050610b496000830185610a95565b8181036020830152610b5b8184610afb565b90509392505050565b6000610b6f82610a3b565b9050919050565b610b7f81610b64565b82525050565b6000602082019050610b9a6000830184610b76565b92915050565b600082825260208201905092915050565b7f4f6e6c7920646564696361746564206d73672e73656e64657200000000000000600082015250565b6000610be7601983610ba0565b9150610bf282610bb1565b602082019050919050565b60006020820190508181036000830152610c1681610bda565b9050919050565b7f4e487b7100000000000000000000000000000000000000000000000000000000600052601160045260246000fd5b6000610c5782610921565b9150610c6283610921565b9250828201905080821115610c7a57610c79610c1d565b5b92915050565b6000819050919050565b6000610ca5610ca0610c9b84610c80565b610a0f565b610921565b9050919050565b610cb581610c8a565b82525050565b6000602082019050610cd06000830184610cac565b92915050565b600081519050610ce5816109b6565b92915050565b610cf481610975565b8114610cff57600080fd5b50565b600081519050610d1181610ceb565b92915050565b60008060408385031215610d2e57610d2d6109b1565b5b6000610d3c85828601610cd6565b9250506020610d4d85828601610d02565b9150509250929050565b600081905092915050565b50565b6000610d72600083610d57565b9150610d7d82610d62565b600082019050919050565b6000610d9382610d65565b9150819050919050565b7f5f7472616e736665723a20455448207472616e73666572206661696c65640000600082015250565b6000610dd3601e83610ba0565b9150610dde82610d9d565b602082019050919050565b60006020820190508181036000830152610e0281610dc6565b9050919050565b6000604082019050610e1e6000830185610987565b610e2b602083018461092b565b9392505050565b610e3b81610a89565b8114610e4657600080fd5b50565b600081519050610e5881610e32565b92915050565b600060208284031215610e7457610e736109b1565b5b6000610e8284828501610e49565b91505092915050565b7f5361666545524332303a204552433230206f7065726174696f6e20646964206e60008201527f6f74207375636365656400000000000000000000000000000000000000000000602082015250565b6000610ee7602a83610ba0565b9150610ef282610e8b565b604082019050919050565b60006020820190508181036000830152610f1681610eda565b9050919050565b7f416464726573733a20696e73756666696369656e742062616c616e636520666f60008201527f722063616c6c0000000000000000000000000000000000000000000000000000602082015250565b6000610f79602683610ba0565b9150610f8482610f1d565b604082019050919050565b60006020820190508181036000830152610fa881610f6c565b9050919050565b6000610fba82610aa4565b610fc48185610d57565b9350610fd4818560208601610ac0565b80840191505092915050565b6000610fec8284610faf565b915081905092915050565b7f416464726573733a2063616c6c20746f206e6f6e2d636f6e7472616374000000600082015250565b600061102d601d83610ba0565b915061103882610ff7565b602082019050919050565b6000602082019050818103600083015261105c81611020565b9050919050565b600081519050919050565b600061107982611063565b6110838185610ba0565b9350611093818560208601610ac0565b61109c81610aea565b840191505092915050565b600060208201905081810360008301526110c1818461106e565b90509291505056fea26469706673582212206b63ce1aafa007e0c1d7d8b9bffc51f7b664a826e738b7a1ef6b457f337095b864736f6c63430008130033",
  "immutableReferences": {
    "749": [
      {
        "length": 32,
        "start": 828
      }
    ],
    "869": [
      {
        "length": 32,
        "start": 1023
      },
      {
        "length": 32,
        "start": 1062
      }
    ],
    "871": [
      {
        "length": 32,
        "start": 589
      },
      {
        "length": 32,
        "start": 625
      }
    ],
    "873": [
      {
        "length": 32,
        "start": 1289
      },
      {
        "length": 32,
        "start": 1501
      }
    ]
  },
  "source": "// SPDX-License-Identifier: UNLICENSED\npragma solidity ^0.8.19;\n\nimport \"./OpsReady.sol\";\n\ninterface ICounter {\n    function increaseCount(uint256 amount) external;\n\n    function lastExecuted() external view returns (uint256);\n}\n\ncontract CounterWT is OpsReady {\n    uint256 public count;\n    uint256 public lastExecuted;\n    bool isPriceOkay;\n    ICounter public immutable counter;\n\n    constructor(address _ops, address _taskCreator)  OpsReady(_ops, _taskCreator) {\n        counter = ICounter(address(this));\n        isPriceOkay = false;\n    }\n\n    function togglePrice() public {\n        isPriceOkay = !isPriceOkay;\n    }\n\n    receive() external payable {}\n\n    function increaseCount(uint256 amount) external onlyDedicatedMsgSender {\n        count += amount;\n        lastExecuted = block.timestamp;\n\n        (uint256 fee, address feeToken) = _getFeeDetails();\n\n        _transfer(fee, feeToken);\n    }\n\n    function withdrawFunds() public {\n        address payable recipient = payable(msg.sender);\n        recipient.transfer(address(this).balance);\n    }\n\n    function checker() external view returns (bool canExec, bytes memory execPayload) {\n        canExec = isPriceOkay; // The condition that needs to be true for the task to be executed\n        execPayload = abi.encodeCall(ICounter.increaseCount, (1)); // The function that you want to call on the contract\n    }\n\n}\n\n\n",
  "sourcePath": "/Users/blabla/Documents/gelato_test/contracts/CounterWT.sol",
  "compiler": {
    "name": "solc",
    "version": "0.8.19+commit.7dd6d404.Emscripten.clang"
  },
  "schemaVersion": "3.4.11",
  "updatedAt": "2023-02-26T05:49:03.478Z",
  "networkType": "ethereum",
  "devdoc": {
    "kind": "dev",
    "methods": {},
    "version": 1
  },
  "userdoc": {
    "kind": "user",
    "methods": {},
    "version": 1
  }
}