{
  "contractName": "CounterResolver",
  "abi": [
    {
      "inputs": [
        {
          "internalType": "contract ICounter",
          "name": "_counter",
          "type": "address"
        }
      ],
      "stateMutability": "nonpayable",
      "type": "constructor"
    },
    {
      "inputs": [],
      "name": "counter",
      "outputs": [
        {
          "internalType": "contract ICounter",
          "name": "",
          "type": "address"
        }
      ],
      "stateMutability": "view",
      "type": "function"
    },
    {
      "inputs": [],
      "name": "togglePrice",
      "outputs": [],
      "stateMutability": "nonpayable",
      "type": "function"
    },
    {
      "inputs": [],
      "name": "checker",
      "outputs": [
        {
          "internalType": "bool",
          "name": "canExec",
          "type": "bool"
        },
        {
          "internalType": "bytes",
          "name": "execPayload",
          "type": "bytes"
        }
      ],
      "stateMutability": "view",
      "type": "function"
    }
  ],
  "bytecode": "0x60a060405234801561001057600080fd5b50604051610498380380610498833981810160405281019061003291906100fb565b8073ffffffffffffffffffffffffffffffffffffffff1660808173ffffffffffffffffffffffffffffffffffffffff168152505060008060006101000a81548160ff02191690831515021790555050610128565b600080fd5b600073ffffffffffffffffffffffffffffffffffffffff82169050919050565b60006100b68261008b565b9050919050565b60006100c8826100ab565b9050919050565b6100d8816100bd565b81146100e357600080fd5b50565b6000815190506100f5816100cf565b92915050565b60006020828403121561011157610110610086565b5b600061011f848285016100e6565b91505092915050565b6080516103566101426000396000608f01526103566000f3fe608060405234801561001057600080fd5b50600436106100415760003560e01c806361bc221a146100465780639cd3235714610064578063cf5303cf1461006e575b600080fd5b61004e61008d565b60405161005b91906101ca565b60405180910390f35b61006c6100b1565b005b6100766100da565b604051610084929190610290565b60405180910390f35b7f000000000000000000000000000000000000000000000000000000000000000081565b60008054906101000a900460ff16156000806101000a81548160ff021916908315150217905550565b6000606060008054906101000a900460ff16915060016040516024016101009190610305565b6040516020818303038152906040526346d4adf260e01b6020820180517bffffffffffffffffffffffffffffffffffffffffffffffffffffffff838183161783525050505090509091565b600073ffffffffffffffffffffffffffffffffffffffff82169050919050565b6000819050919050565b600061019061018b6101868461014b565b61016b565b61014b565b9050919050565b60006101a282610175565b9050919050565b60006101b482610197565b9050919050565b6101c4816101a9565b82525050565b60006020820190506101df60008301846101bb565b92915050565b60008115159050919050565b6101fa816101e5565b82525050565b600081519050919050565b600082825260208201905092915050565b60005b8381101561023a57808201518184015260208101905061021f565b60008484015250505050565b6000601f19601f8301169050919050565b600061026282610200565b61026c818561020b565b935061027c81856020860161021c565b61028581610246565b840191505092915050565b60006040820190506102a560008301856101f1565b81810360208301526102b78184610257565b90509392505050565b6000819050919050565b6000819050919050565b60006102ef6102ea6102e5846102c0565b61016b565b6102ca565b9050919050565b6102ff816102d4565b82525050565b600060208201905061031a60008301846102f6565b9291505056fea2646970667358221220eadefc290bd153afa72df02c819149598b6dd97410d6d2fd36a59f4e341c8f8364736f6c63430008130033",
  "immutableReferences": {
    "742": [
      {
        "length": 32,
        "start": 143
      }
    ]
  },
  "source": "// SPDX-License-Identifier: UNLICENSED\npragma solidity ^0.8.19;\n\ninterface ICounter {\n    function increaseCount(uint256 amount) external;\n\n    function lastExecuted() external view returns (uint256);\n}\n\n// solhint-disable not-rely-on-time\ncontract CounterResolver {\n    bool isPriceOkay;\n    ICounter public immutable counter;\n\n    constructor(ICounter _counter) {\n        counter = _counter;\n        isPriceOkay = false;\n    }\n\n    function togglePrice() public {\n        isPriceOkay = !isPriceOkay;\n    }\n\n\n    function checker()\n        external\n        view\n        returns (bool canExec, bytes memory execPayload)\n    {\n\n        canExec = isPriceOkay;\n\n        execPayload = abi.encodeCall(ICounter.increaseCount, (1));\n    }\n}",
  "sourcePath": "/Users/blabla/Documents/gelato_test/contracts/CounterResolver.sol",
  "compiler": {
    "name": "solc",
    "version": "0.8.19+commit.7dd6d404.Emscripten.clang"
  },
  "schemaVersion": "3.4.11",
  "updatedAt": "2023-03-02T04:38:59.936Z",
  "devdoc": {
    "kind": "dev",
    "methods": {},
    "version": 1
  },
  "userdoc": {
    "kind": "user",
    "methods": {},
    "version": 1
  }
}