{
  "contractName": "LendingVault",
  "abi": [
    {
      "inputs": [],
      "stateMutability": "nonpayable",
      "type": "constructor"
    },
    {
      "inputs": [],
      "name": "aavePool",
      "outputs": [
        {
          "internalType": "contract IPool",
          "name": "",
          "type": "address"
        }
      ],
      "stateMutability": "view",
      "type": "function"
    },
    {
      "inputs": [],
      "name": "aavePoolAddressesProvider",
      "outputs": [
        {
          "internalType": "contract IPoolAddressesProvider",
          "name": "",
          "type": "address"
        }
      ],
      "stateMutability": "view",
      "type": "function"
    },
    {
      "inputs": [
        {
          "internalType": "uint256",
          "name": "_amount",
          "type": "uint256"
        }
      ],
      "name": "deposit",
      "outputs": [],
      "stateMutability": "nonpayable",
      "type": "function"
    }
  ],
  "bytecode": "0x60c060405234801561001057600080fd5b5073c911b590248d127ad18546b186cc6b324e99f02c73ffffffffffffffffffffffffffffffffffffffff1660a08173ffffffffffffffffffffffffffffffffffffffff168152505060a05173ffffffffffffffffffffffffffffffffffffffff1663026b1d5f6040518163ffffffff1660e01b8152600401602060405180830381865afa1580156100a6573d6000803e3d6000fd5b505050506040513d601f19601f820116820180604052508101906100ca9190610165565b73ffffffffffffffffffffffffffffffffffffffff1660808173ffffffffffffffffffffffffffffffffffffffff1681525050610192565b600080fd5b600073ffffffffffffffffffffffffffffffffffffffff82169050919050565b600061013282610107565b9050919050565b61014281610127565b811461014d57600080fd5b50565b60008151905061015f81610139565b92915050565b60006020828403121561017b5761017a610102565b5b600061018984828501610150565b91505092915050565b60805160a05161025d6101b5600039600060a00152600060c4015261025d6000f3fe608060405234801561001057600080fd5b50600436106100415760003560e01c806369e4e00514610046578063a03e4bc314610064578063b6b55f2514610082575b600080fd5b61004e61009e565b60405161005b9190610168565b60405180910390f35b61006c6100c2565b60405161007991906101a4565b60405180910390f35b61009c600480360381019061009791906101fa565b6100e6565b005b7f000000000000000000000000000000000000000000000000000000000000000081565b7f000000000000000000000000000000000000000000000000000000000000000081565b50565b600073ffffffffffffffffffffffffffffffffffffffff82169050919050565b6000819050919050565b600061012e610129610124846100e9565b610109565b6100e9565b9050919050565b600061014082610113565b9050919050565b600061015282610135565b9050919050565b61016281610147565b82525050565b600060208201905061017d6000830184610159565b92915050565b600061018e82610135565b9050919050565b61019e81610183565b82525050565b60006020820190506101b96000830184610195565b92915050565b600080fd5b6000819050919050565b6101d7816101c4565b81146101e257600080fd5b50565b6000813590506101f4816101ce565b92915050565b6000602082840312156102105761020f6101bf565b5b600061021e848285016101e5565b9150509291505056fea2646970667358221220ea33cd1792ebf21420745589ec93ea8f99d9851e1645a0b3908036abea43eb6564736f6c63430008130033",
  "immutableReferences": {
    "1218": [
      {
        "length": 32,
        "start": 196
      }
    ],
    "1221": [
      {
        "length": 32,
        "start": 160
      }
    ]
  },
  "source": "// SPDX-License-Identifier: UNLICENSED\npragma solidity ^0.8.19;\n\nimport \"./yield-daddy/aave-v3/AaveV3ERC4626Factory.sol\";\nimport \"./yield-daddy/aave-v3/IPoolAddressesProvider.sol\";\n\ncontract LendingVault {\n\n    //AaveV3ERC4626Factory public immutable aaveFactory;\n    IPool public immutable aavePool;\n    IPoolAddressesProvider public immutable aavePoolAddressesProvider;\n\n    constructor() {\n        // Working in Goerli\n        aavePoolAddressesProvider = IPoolAddressesProvider(0xC911B590248d127aD18546B186cC6B324e99F02c);\n        aavePool = IPool(aavePoolAddressesProvider.getPool());\n        //aaveFactory = new AaveV3ERC4626Factory(aavePool, ); // will continue aave integration later\n    }\n\n    function deposit(uint256 _amount) external {\n        //aaveFactory.createERC4626(address(this), _amount);\n    }\n\n}",
  "sourcePath": "/Users/blabla/Documents/gelato_test/contracts/LendingVault.sol",
  "compiler": {
    "name": "solc",
    "version": "0.8.19+commit.7dd6d404.Emscripten.clang"
  },
  "schemaVersion": "3.4.11",
  "updatedAt": "2023-03-02T04:38:59.949Z",
  "devdoc": {
    "kind": "dev",
    "methods": {},
    "version": 1
  },
  "userdoc": {
    "kind": "user",
    "methods": {},
    "version": 1
  }
}