{
  "contractName": "LendingVault",
  "abi": [
    {
      "inputs": [
        {
          "internalType": "address",
          "name": "_iPoolAddressesProviderAddress",
          "type": "address"
        },
        {
          "internalType": "address",
          "name": "_temporaryTokenAddress",
          "type": "address"
        }
      ],
      "stateMutability": "nonpayable",
      "type": "constructor"
    },
    {
      "inputs": [],
      "name": "aaveFactory",
      "outputs": [
        {
          "internalType": "contract AaveV3ERC4626Factory",
          "name": "",
          "type": "address"
        }
      ],
      "stateMutability": "view",
      "type": "function",
      "constant": true
    },
    {
      "inputs": [],
      "name": "aavePool",
      "outputs": [
        {
          "internalType": "contract IPool",
          "name": "",
          "type": "address"
        }
      ],
      "stateMutability": "view",
      "type": "function",
      "constant": true
    },
    {
      "inputs": [],
      "name": "aavePoolAddressesProvider",
      "outputs": [
        {
          "internalType": "contract IPoolAddressesProvider",
          "name": "",
          "type": "address"
        }
      ],
      "stateMutability": "view",
      "type": "function",
      "constant": true
    },
    {
      "inputs": [
        {
          "internalType": "contract ERC20",
          "name": "",
          "type": "address"
        }
      ],
      "name": "erc4626s",
      "outputs": [
        {
          "internalType": "contract ERC4626",
          "name": "",
          "type": "address"
        }
      ],
      "stateMutability": "view",
      "type": "function",
      "constant": true
    },
    {
      "inputs": [
        {
          "internalType": "address",
          "name": "tokenAddress",
          "type": "address"
        },
        {
          "internalType": "uint256",
          "name": "_amount",
          "type": "uint256"
        },
        {
          "internalType": "address",
          "name": "_receiver",
          "type": "address"
        }
      ],
      "name": "deposit",
      "outputs": [],
      "stateMutability": "nonpayable",
      "type": "function"
    },
    {
      "inputs": [
        {
          "internalType": "address",
          "name": "tokenAddress",
          "type": "address"
        },
        {
          "internalType": "uint256",
          "name": "_amount",
          "type": "uint256"
        },
        {
          "internalType": "address",
          "name": "_receiver",
          "type": "address"
        }
      ],
      "name": "withdraw",
      "outputs": [],
      "stateMutability": "nonpayable",
      "type": "function"
    }
  ],
  "bytecode": "0x60e06040523480156200001157600080fd5b506040516200640338038062006403833981810160405281019062000037919062000305565b8173ffffffffffffffffffffffffffffffffffffffff1660c08173ffffffffffffffffffffffffffffffffffffffff168152505060c05173ffffffffffffffffffffffffffffffffffffffff1663026b1d5f6040518163ffffffff1660e01b8152600401602060405180830381865afa158015620000b9573d6000803e3d6000fd5b505050506040513d601f19601f82011682018060405250810190620000df91906200034c565b73ffffffffffffffffffffffffffffffffffffffff1660a08173ffffffffffffffffffffffffffffffffffffffff168152505060a05160405162000123906200028d565b6200012f9190620003e9565b604051809103906000f0801580156200014c573d6000803e3d6000fd5b5073ffffffffffffffffffffffffffffffffffffffff1660808173ffffffffffffffffffffffffffffffffffffffff1681525050600081905060805173ffffffffffffffffffffffffffffffffffffffff1663abeccaa4826040518263ffffffff1660e01b8152600401620001c291906200042b565b6020604051808303816000875af1158015620001e2573d6000803e3d6000fd5b505050506040513d601f19601f820116820180604052508101906200020891906200048d565b6000808373ffffffffffffffffffffffffffffffffffffffff1673ffffffffffffffffffffffffffffffffffffffff16815260200190815260200160002060006101000a81548173ffffffffffffffffffffffffffffffffffffffff021916908373ffffffffffffffffffffffffffffffffffffffff160217905550505050620004bf565b6156a08062000d6383390190565b600080fd5b600073ffffffffffffffffffffffffffffffffffffffff82169050919050565b6000620002cd82620002a0565b9050919050565b620002df81620002c0565b8114620002eb57600080fd5b50565b600081519050620002ff81620002d4565b92915050565b600080604083850312156200031f576200031e6200029b565b5b60006200032f85828601620002ee565b92505060206200034285828601620002ee565b9150509250929050565b6000602082840312156200036557620003646200029b565b5b60006200037584828501620002ee565b91505092915050565b6000819050919050565b6000620003a9620003a36200039d84620002a0565b6200037e565b620002a0565b9050919050565b6000620003bd8262000388565b9050919050565b6000620003d182620003b0565b9050919050565b620003e381620003c4565b82525050565b6000602082019050620004006000830184620003d8565b92915050565b60006200041382620003b0565b9050919050565b620004258162000406565b82525050565b60006020820190506200044260008301846200041a565b92915050565b60006200045582620002c0565b9050919050565b620004678162000448565b81146200047357600080fd5b50565b60008151905062000487816200045c565b92915050565b600060208284031215620004a657620004a56200029b565b5b6000620004b68482850162000476565b91505092915050565b60805160a05160c051610874620004ef6000396000610242015260006102660152600061028a01526108746000f3fe608060405234801561001057600080fd5b50600436106100625760003560e01c8063379548161461006757806369328dec1461009757806369e4e005146100b3578063a03e4bc3146100d1578063a820e18c146100ef578063f45346dc1461010d575b600080fd5b610081600480360381019061007c91906104e0565b610129565b60405161008e919061056c565b60405180910390f35b6100b160048036038101906100ac91906105e9565b61015c565b005b6100bb610240565b6040516100c8919061065d565b60405180910390f35b6100d9610264565b6040516100e69190610699565b60405180910390f35b6100f7610288565b60405161010491906106d5565b60405180910390f35b610127600480360381019061012291906105e9565b6102ac565b005b60006020528060005260406000206000915054906101000a900473ffffffffffffffffffffffffffffffffffffffff1681565b6000808473ffffffffffffffffffffffffffffffffffffffff1673ffffffffffffffffffffffffffffffffffffffff16815260200190815260200160002060009054906101000a900473ffffffffffffffffffffffffffffffffffffffff1673ffffffffffffffffffffffffffffffffffffffff1663b460af948383306040518463ffffffff1660e01b81526004016101f79392919061070e565b6020604051808303816000875af1158015610216573d6000803e3d6000fd5b505050506040513d601f19601f8201168201806040525081019061023a919061075a565b50505050565b7f000000000000000000000000000000000000000000000000000000000000000081565b7f000000000000000000000000000000000000000000000000000000000000000081565b7f000000000000000000000000000000000000000000000000000000000000000081565b8273ffffffffffffffffffffffffffffffffffffffff1663095ea7b36000808673ffffffffffffffffffffffffffffffffffffffff1673ffffffffffffffffffffffffffffffffffffffff16815260200190815260200160002060009054906101000a900473ffffffffffffffffffffffffffffffffffffffff16846040518363ffffffff1660e01b8152600401610345929190610787565b6020604051808303816000875af1158015610364573d6000803e3d6000fd5b505050506040513d601f19601f8201168201806040525081019061038891906107e8565b506000808473ffffffffffffffffffffffffffffffffffffffff1673ffffffffffffffffffffffffffffffffffffffff16815260200190815260200160002060009054906101000a900473ffffffffffffffffffffffffffffffffffffffff1673ffffffffffffffffffffffffffffffffffffffff16636e553f6583836040518363ffffffff1660e01b8152600401610422929190610815565b6020604051808303816000875af1158015610441573d6000803e3d6000fd5b505050506040513d601f19601f82011682018060405250810190610465919061075a565b50505050565b600080fd5b600073ffffffffffffffffffffffffffffffffffffffff82169050919050565b600061049b82610470565b9050919050565b60006104ad82610490565b9050919050565b6104bd816104a2565b81146104c857600080fd5b50565b6000813590506104da816104b4565b92915050565b6000602082840312156104f6576104f561046b565b5b6000610504848285016104cb565b91505092915050565b6000819050919050565b600061053261052d61052884610470565b61050d565b610470565b9050919050565b600061054482610517565b9050919050565b600061055682610539565b9050919050565b6105668161054b565b82525050565b6000602082019050610581600083018461055d565b92915050565b61059081610490565b811461059b57600080fd5b50565b6000813590506105ad81610587565b92915050565b6000819050919050565b6105c6816105b3565b81146105d157600080fd5b50565b6000813590506105e3816105bd565b92915050565b6000806000606084860312156106025761060161046b565b5b60006106108682870161059e565b9350506020610621868287016105d4565b92505060406106328682870161059e565b9150509250925092565b600061064782610539565b9050919050565b6106578161063c565b82525050565b6000602082019050610672600083018461064e565b92915050565b600061068382610539565b9050919050565b61069381610678565b82525050565b60006020820190506106ae600083018461068a565b92915050565b60006106bf82610539565b9050919050565b6106cf816106b4565b82525050565b60006020820190506106ea60008301846106c6565b92915050565b6106f9816105b3565b82525050565b61070881610490565b82525050565b600060608201905061072360008301866106f0565b61073060208301856106ff565b61073d60408301846106ff565b949350505050565b600081519050610754816105bd565b92915050565b6000602082840312156107705761076f61046b565b5b600061077e84828501610745565b91505092915050565b600060408201905061079c60008301856106ff565b6107a960208301846106f0565b9392505050565b60008115159050919050565b6107c5816107b0565b81146107d057600080fd5b50565b6000815190506107e2816107bc565b92915050565b6000602082840312156107fe576107fd61046b565b5b600061080c848285016107d3565b91505092915050565b600060408201905061082a60008301856106f0565b61083760208301846106ff565b939250505056fea264697066735822122093157c8d806bd357a31db3ae66bdeaf99a15b8e0f53e4dd6e2adc39d58b94d1564736f6c6343000813003360a06040523480156200001157600080fd5b50604051620056a0380380620056a0833981810160405281019062000037919062000162565b600073ffffffffffffffffffffffffffffffffffffffff168173ffffffffffffffffffffffffffffffffffffffff1603620000a9576040517f08c379a0000000000000000000000000000000000000000000000000000000008152600401620000a0906200021b565b60405180910390fd5b8073ffffffffffffffffffffffffffffffffffffffff1660808173ffffffffffffffffffffffffffffffffffffffff1681525050506200023d565b600080fd5b600073ffffffffffffffffffffffffffffffffffffffff82169050919050565b60006200011682620000e9565b9050919050565b60006200012a8262000109565b9050919050565b6200013c816200011d565b81146200014857600080fd5b50565b6000815190506200015c8162000131565b92915050565b6000602082840312156200017b576200017a620000e4565b5b60006200018b848285016200014b565b91505092915050565b600082825260208201905092915050565b7f41617665563345524334363236466163746f72793a206c656e64696e67506f6f60008201527f6c2063616e6e6f74206265207a65726f20616464726573730000000000000000602082015250565b60006200020360388362000194565b91506200021082620001a5565b604082019050919050565b600060208201905081810360008301526200023681620001f4565b9050919050565b60805161542c620002746000396000818160de015281816101b601528181610232015281816102590152610372015261542c6000f3fe60806040523480156200001157600080fd5b5060043610620000465760003560e01c806380cfde3c146200004b578063a59a99731462000081578063abeccaa414620000a3575b600080fd5b62000069600480360381019062000063919062000514565b620000d9565b604051620000789190620005b1565b60405180910390f35b6200008b62000230565b6040516200009a9190620005f3565b60405180910390f35b620000c16004803603810190620000bb919062000514565b62000254565b604051620000d09190620005b1565b60405180910390f35b6000807f000000000000000000000000000000000000000000000000000000000000000073ffffffffffffffffffffffffffffffffffffffff166335ea6a75846040518263ffffffff1660e01b815260040162000137919062000621565b6101e060405180830381865afa15801562000156573d6000803e3d6000fd5b505050506040513d601f19601f820116820180604052508101906200017c9190620009dc565b90506000816101000151905062000227604051806020016200019e906200047e565b6020820181038252601f19601f8201166040525085837f0000000000000000000000000000000000000000000000000000000000000000604051602001620001e99392919062000a34565b6040516020818303038152906040526040516020016200020b92919062000aea565b6040516020818303038152906040528051906020012062000428565b92505050919050565b7f000000000000000000000000000000000000000000000000000000000000000081565b6000807f000000000000000000000000000000000000000000000000000000000000000073ffffffffffffffffffffffffffffffffffffffff166335ea6a75846040518263ffffffff1660e01b8152600401620002b2919062000621565b6101e060405180830381865afa158015620002d1573d6000803e3d6000fd5b505050506040513d601f19601f82011682018060405250810190620002f79190620009dc565b905060008161010001519050600073ffffffffffffffffffffffffffffffffffffffff168173ffffffffffffffffffffffffffffffffffffffff16036200036a576040517f8de99e2500000000000000000000000000000000000000000000000000000000815260040160405180910390fd5b6000801b84827f00000000000000000000000000000000000000000000000000000000000000006040516200039f906200047e565b620003ad9392919062000a34565b8190604051809103906000f5905080158015620003ce573d6000803e3d6000fd5b5092508373ffffffffffffffffffffffffffffffffffffffff167fcbd4e5d1362721c7fd10daaabb1a046344447d4798be55684b8a6b4fc1765d7284604051620004199190620005b1565b60405180910390a25050919050565b60006200046a60ff60f81b306000801b856040516020016200044e949392919062000be2565b6040516020818303038152906040528051906020012062000471565b9050919050565b60008160001c9050919050565b6147be8062000c3983390190565b6000604051905090565b600080fd5b600073ffffffffffffffffffffffffffffffffffffffff82169050919050565b6000620004c8826200049b565b9050919050565b6000620004dc82620004bb565b9050919050565b620004ee81620004cf565b8114620004fa57600080fd5b50565b6000813590506200050e81620004e3565b92915050565b6000602082840312156200052d576200052c62000496565b5b60006200053d84828501620004fd565b91505092915050565b6000819050919050565b6000620005716200056b62000565846200049b565b62000546565b6200049b565b9050919050565b6000620005858262000550565b9050919050565b6000620005998262000578565b9050919050565b620005ab816200058c565b82525050565b6000602082019050620005c86000830184620005a0565b92915050565b6000620005db8262000578565b9050919050565b620005ed81620005ce565b82525050565b60006020820190506200060a6000830184620005e2565b92915050565b6200061b81620004bb565b82525050565b600060208201905062000638600083018462000610565b92915050565b600080fd5b6000601f19601f8301169050919050565b7f4e487b7100000000000000000000000000000000000000000000000000000000600052604160045260246000fd5b6200068e8262000643565b810181811067ffffffffffffffff82111715620006b057620006af62000654565b5b80604052505050565b6000620006c56200048c565b9050620006d3828262000683565b919050565b6000819050919050565b620006ed81620006d8565b8114620006f957600080fd5b50565b6000815190506200070d81620006e2565b92915050565b6000602082840312156200072c576200072b6200063e565b5b620007386020620006b9565b905060006200074a84828501620006fc565b60008301525092915050565b60006fffffffffffffffffffffffffffffffff82169050919050565b6200077d8162000756565b81146200078957600080fd5b50565b6000815190506200079d8162000772565b92915050565b600064ffffffffff82169050919050565b620007bf81620007a3565b8114620007cb57600080fd5b50565b600081519050620007df81620007b4565b92915050565b600061ffff82169050919050565b620007fe81620007e5565b81146200080a57600080fd5b50565b6000815190506200081e81620007f3565b92915050565b6200082f81620004bb565b81146200083b57600080fd5b50565b6000815190506200084f8162000824565b92915050565b60006101e082840312156200086f576200086e6200063e565b5b6200087c6101e0620006b9565b905060006200088e8482850162000713565b6000830152506020620008a4848285016200078c565b6020830152506040620008ba848285016200078c565b6040830152506060620008d0848285016200078c565b6060830152506080620008e6848285016200078c565b60808301525060a0620008fc848285016200078c565b60a08301525060c06200091284828501620007ce565b60c08301525060e062000928848285016200080d565b60e0830152506101006200093f848285016200083e565b6101008301525061012062000957848285016200083e565b610120830152506101406200096f848285016200083e565b6101408301525061016062000987848285016200083e565b610160830152506101806200099f848285016200078c565b610180830152506101a0620009b7848285016200078c565b6101a0830152506101c0620009cf848285016200078c565b6101c08301525092915050565b60006101e08284031215620009f657620009f562000496565b5b600062000a068482850162000855565b91505092915050565b600062000a1c8262000578565b9050919050565b62000a2e8162000a0f565b82525050565b600060608201905062000a4b600083018662000a23565b62000a5a602083018562000a23565b62000a696040830184620005e2565b949350505050565b600081519050919050565b600081905092915050565b60005b8381101562000aa757808201518184015260208101905062000a8a565b60008484015250505050565b600062000ac08262000a71565b62000acc818562000a7c565b935062000ade81856020860162000a87565b80840191505092915050565b600062000af8828562000ab3565b915062000b06828462000ab3565b91508190509392505050565b60007fff0000000000000000000000000000000000000000000000000000000000000082169050919050565b6000819050919050565b62000b5d62000b578262000b12565b62000b3e565b82525050565b60008160601b9050919050565b600062000b7d8262000b63565b9050919050565b600062000b918262000b70565b9050919050565b62000bad62000ba782620004bb565b62000b84565b82525050565b6000819050919050565b6000819050919050565b62000bdc62000bd68262000bb3565b62000bbd565b82525050565b600062000bf0828762000b48565b60018201915062000c02828662000b98565b60148201915062000c14828562000bc7565b60208201915062000c26828462000bc7565b6020820191508190509594505050505056fe6101406040523480156200001257600080fd5b50604051620047be380380620047be833981810160405281019062000038919062000471565b826200004a84620001cd60201b60201c565b6200005b856200026e60201b60201c565b81818473ffffffffffffffffffffffffffffffffffffffff1663313ce5676040518163ffffffff1660e01b8152600401602060405180830381865afa158015620000a9573d6000803e3d6000fd5b505050506040513d601f19601f82011682018060405250810190620000cf91906200050b565b8260009081620000e09190620007b7565b508160019081620000f29190620007b7565b508060ff1660808160ff16815250504660a08181525050620001196200030f60201b60201c565b60c081815250505050508273ffffffffffffffffffffffffffffffffffffffff1660e08173ffffffffffffffffffffffffffffffffffffffff16815250505050508173ffffffffffffffffffffffffffffffffffffffff166101008173ffffffffffffffffffffffffffffffffffffffff16815250508073ffffffffffffffffffffffffffffffffffffffff166101208173ffffffffffffffffffffffffffffffffffffffff168152505050505062000c83565b60608173ffffffffffffffffffffffffffffffffffffffff166395d89b416040518163ffffffff1660e01b8152600401600060405180830381865afa1580156200021b573d6000803e3d6000fd5b505050506040513d6000823e3d601f19601f82011682018060405250810190620002469190620009ee565b60405160200162000258919062000aa7565b6040516020818303038152906040529050919050565b60608173ffffffffffffffffffffffffffffffffffffffff166395d89b416040518163ffffffff1660e01b8152600401600060405180830381865afa158015620002bc573d6000803e3d6000fd5b505050506040513d6000823e3d601f19601f82011682018060405250810190620002e79190620009ee565b604051602001620002f9919062000af7565b6040516020818303038152906040529050919050565b60007f8b73c3c69bb8fe3d512ecc4cf759cc79239f7b179b0ffacaa9a75d522b39400f600060405162000343919062000bd0565b60405180910390207fc89efdaa54c0f20c7adf612882df0950f5a951637e0307cdcb4c672f298b8bc646306040516020016200038495949392919062000c26565b60405160208183030381529060405280519060200120905090565b6000604051905090565b600080fd5b600080fd5b600073ffffffffffffffffffffffffffffffffffffffff82169050919050565b6000620003e082620003b3565b9050919050565b6000620003f482620003d3565b9050919050565b6200040681620003e7565b81146200041257600080fd5b50565b6000815190506200042681620003fb565b92915050565b60006200043982620003d3565b9050919050565b6200044b816200042c565b81146200045757600080fd5b50565b6000815190506200046b8162000440565b92915050565b6000806000606084860312156200048d576200048c620003a9565b5b60006200049d8682870162000415565b9350506020620004b08682870162000415565b9250506040620004c3868287016200045a565b9150509250925092565b600060ff82169050919050565b620004e581620004cd565b8114620004f157600080fd5b50565b6000815190506200050581620004da565b92915050565b600060208284031215620005245762000523620003a9565b5b60006200053484828501620004f4565b91505092915050565b600081519050919050565b7f4e487b7100000000000000000000000000000000000000000000000000000000600052604160045260246000fd5b7f4e487b7100000000000000000000000000000000000000000000000000000000600052602260045260246000fd5b60006002820490506001821680620005bf57607f821691505b602082108103620005d557620005d462000577565b5b50919050565b60008190508160005260206000209050919050565b60006020601f8301049050919050565b600082821b905092915050565b6000600883026200063f7fffffffffffffffffffffffffffffffffffffffffffffffffffffffffffffffff8262000600565b6200064b868362000600565b95508019841693508086168417925050509392505050565b6000819050919050565b6000819050919050565b600062000698620006926200068c8462000663565b6200066d565b62000663565b9050919050565b6000819050919050565b620006b48362000677565b620006cc620006c3826200069f565b8484546200060d565b825550505050565b600090565b620006e3620006d4565b620006f0818484620006a9565b505050565b5b8181101562000718576200070c600082620006d9565b600181019050620006f6565b5050565b601f82111562000767576200073181620005db565b6200073c84620005f0565b810160208510156200074c578190505b620007646200075b85620005f0565b830182620006f5565b50505b505050565b600082821c905092915050565b60006200078c600019846008026200076c565b1980831691505092915050565b6000620007a7838362000779565b9150826002028217905092915050565b620007c2826200053d565b67ffffffffffffffff811115620007de57620007dd62000548565b5b620007ea8254620005a6565b620007f78282856200071c565b600060209050601f8311600181146200082f57600084156200081a578287015190505b62000826858262000799565b86555062000896565b601f1984166200083f86620005db565b60005b82811015620008695784890151825560018201915060208501945060208101905062000842565b8683101562000889578489015162000885601f89168262000779565b8355505b6001600288020188555050505b505050505050565b600080fd5b600080fd5b6000601f19601f8301169050919050565b620008c482620008a8565b810181811067ffffffffffffffff82111715620008e657620008e562000548565b5b80604052505050565b6000620008fb6200039f565b9050620009098282620008b9565b919050565b600067ffffffffffffffff8211156200092c576200092b62000548565b5b6200093782620008a8565b9050602081019050919050565b60005b838110156200096457808201518184015260208101905062000947565b60008484015250505050565b60006200098762000981846200090e565b620008ef565b905082815260208101848484011115620009a657620009a5620008a3565b5b620009b384828562000944565b509392505050565b600082601f830112620009d357620009d26200089e565b5b8151620009e584826020860162000970565b91505092915050565b60006020828403121562000a075762000a06620003a9565b5b600082015167ffffffffffffffff81111562000a285762000a27620003ae565b5b62000a3684828501620009bb565b91505092915050565b7f455243343632362d577261707065642041617665207633200000000000000000815250565b600081905092915050565b600062000a7d826200053d565b62000a89818562000a65565b935062000a9b81856020860162000944565b80840191505092915050565b600062000ab48262000a3f565b60188201915062000ac6828462000a70565b915081905092915050565b7f7761000000000000000000000000000000000000000000000000000000000000815250565b600062000b048262000ad1565b60028201915062000b16828462000a70565b915081905092915050565b600081905092915050565b60008190508160005260206000209050919050565b6000815462000b5081620005a6565b62000b5c818662000b21565b9450600182166000811462000b7a576001811462000b905762000bc7565b60ff198316865281151582028601935062000bc7565b62000b9b8562000b2c565b60005b8381101562000bbf5781548189015260018201915060208101905062000b9e565b838801955050505b50505092915050565b600062000bde828462000b41565b915081905092915050565b6000819050919050565b62000bfe8162000be9565b82525050565b62000c0f8162000663565b82525050565b62000c2081620003d3565b82525050565b600060a08201905062000c3d600083018862000bf3565b62000c4c602083018762000bf3565b62000c5b604083018662000bf3565b62000c6a606083018562000c04565b62000c79608083018462000c15565b9695505050505050565b60805160a05160c05160e0516101005161012051613a3c62000d8260003960008181610c5a01528181611154015281816114d0015281816117e4015281816118af01528181611b0301528181612011015281816125df01526126470152600081816106cd01528181610dc20152818161113001528181611a1a01528181611c2f015261213d015260008181610c3301528181610c9601528181610ecf01528181610fda0152818161150c01528181611820015281816118eb01528181611b3f01528181611bf30152818161204d0152818161210101528181612601015261268301526000610c0c01526000610bd801526000610bb20152613a3c6000f3fe608060405234801561001057600080fd5b50600436106101da5760003560e01c806394bf804d11610104578063ba087652116100a2578063d505accf11610071578063d505accf1461061d578063d905777e14610639578063dd62ed3e14610669578063ef8b30f714610699576101da565b8063ba0876521461055d578063c63d75b61461058d578063c6e6f592146105bd578063ce96cb77146105ed576101da565b8063a59a9973116100de578063a59a9973146104af578063a9059cbb146104cd578063b3d7f6b9146104fd578063b460af941461052d576101da565b806394bf804d1461044357806395d89b4114610473578063a0c1f15e14610491576101da565b8063313ce5671161017c5780634cdad5061161014b5780634cdad506146103835780636e553f65146103b357806370a08231146103e35780637ecebe0014610413576101da565b8063313ce567146102f95780633644e5151461031757806338d52e0f14610335578063402d267d14610353576101da565b8063095ea7b3116101b8578063095ea7b31461024b5780630a28a4771461027b57806318160ddd146102ab57806323b872dd146102c9576101da565b806301e1d114146101df57806306fdde03146101fd57806307a2d13a1461021b575b600080fd5b6101e76106c9565b6040516101f49190612880565b60405180910390f35b61020561076a565b604051610212919061292b565b60405180910390f35b61023560048036038101906102309190612988565b6107f8565b6040516102429190612880565b60405180910390f35b61026560048036038101906102609190612a13565b610833565b6040516102729190612a6e565b60405180910390f35b61029560048036038101906102909190612988565b610925565b6040516102a29190612880565b60405180910390f35b6102b3610960565b6040516102c09190612880565b60405180910390f35b6102e360048036038101906102de9190612a89565b610966565b6040516102f09190612a6e565b60405180910390f35b610301610bb0565b60405161030e9190612af8565b60405180910390f35b61031f610bd4565b60405161032c9190612b2c565b60405180910390f35b61033d610c31565b60405161034a9190612ba6565b60405180910390f35b61036d60048036038101906103689190612bc1565b610c55565b60405161037a9190612880565b60405180910390f35b61039d60048036038101906103989190612988565b610e66565b6040516103aa9190612880565b60405180910390f35b6103cd60048036038101906103c89190612bee565b610e78565b6040516103da9190612880565b60405180910390f35b6103fd60048036038101906103f89190612bc1565b610f95565b60405161040a9190612880565b60405180910390f35b61042d60048036038101906104289190612bc1565b610fad565b60405161043a9190612880565b60405180910390f35b61045d60048036038101906104589190612bee565b610fc5565b60405161046a9190612880565b60405180910390f35b61047b6110a0565b604051610488919061292b565b60405180910390f35b61049961112e565b6040516104a69190612ba6565b60405180910390f35b6104b7611152565b6040516104c49190612c4f565b60405180910390f35b6104e760048036038101906104e29190612a13565b611176565b6040516104f49190612a6e565b60405180910390f35b61051760048036038101906105129190612988565b61128a565b6040516105249190612880565b60405180910390f35b61054760048036038101906105429190612c6a565b6112c5565b6040516105549190612880565b60405180910390f35b61057760048036038101906105729190612c6a565b611596565b6040516105849190612880565b60405180910390f35b6105a760048036038101906105a29190612bc1565b6118aa565b6040516105b49190612880565b60405180910390f35b6105d760048036038101906105d29190612988565b611ac3565b6040516105e49190612880565b60405180910390f35b61060760048036038101906106029190612bc1565b611afe565b6040516106149190612880565b60405180910390f35b61063760048036038101906106329190612d15565b611d13565b005b610653600480360381019061064e9190612bc1565b61200c565b6040516106609190612880565b60405180910390f35b610683600480360381019061067e9190612db7565b612227565b6040516106909190612880565b60405180910390f35b6106b360048036038101906106ae9190612988565b61224c565b6040516106c09190612880565b60405180910390f35b60007f000000000000000000000000000000000000000000000000000000000000000073ffffffffffffffffffffffffffffffffffffffff166370a08231306040518263ffffffff1660e01b81526004016107249190612e06565b602060405180830381865afa158015610741573d6000803e3d6000fd5b505050506040513d601f19601f820116820180604052508101906107659190612e36565b905090565b6000805461077790612e92565b80601f01602080910402602001604051908101604052809291908181526020018280546107a390612e92565b80156107f05780601f106107c5576101008083540402835291602001916107f0565b820191906000526020600020905b8154815290600101906020018083116107d357829003601f168201915b505050505081565b600080600254905060008114610829576108246108136106c9565b828561225e9092919063ffffffff16565b61082b565b825b915050919050565b600081600460003373ffffffffffffffffffffffffffffffffffffffff1673ffffffffffffffffffffffffffffffffffffffff16815260200190815260200160002060008573ffffffffffffffffffffffffffffffffffffffff1673ffffffffffffffffffffffffffffffffffffffff168152602001908152602001600020819055508273ffffffffffffffffffffffffffffffffffffffff163373ffffffffffffffffffffffffffffffffffffffff167f8c5be1e5ebec7d5bd14f71427d1e84f3dd0314c0f7b2291e5b200ac8c7c3b925846040516109139190612880565b60405180910390a36001905092915050565b60008060025490506000811461095657610951816109416106c9565b856122a19092919063ffffffff16565b610958565b825b915050919050565b60025481565b600080600460008673ffffffffffffffffffffffffffffffffffffffff1673ffffffffffffffffffffffffffffffffffffffff16815260200190815260200160002060003373ffffffffffffffffffffffffffffffffffffffff1673ffffffffffffffffffffffffffffffffffffffff1681526020019081526020016000205490507fffffffffffffffffffffffffffffffffffffffffffffffffffffffffffffffff8114610a9c578281610a1b9190612ef2565b600460008773ffffffffffffffffffffffffffffffffffffffff1673ffffffffffffffffffffffffffffffffffffffff16815260200190815260200160002060003373ffffffffffffffffffffffffffffffffffffffff1673ffffffffffffffffffffffffffffffffffffffff168152602001908152602001600020819055505b82600360008773ffffffffffffffffffffffffffffffffffffffff1673ffffffffffffffffffffffffffffffffffffffff1681526020019081526020016000206000828254610aeb9190612ef2565b9250508190555082600360008673ffffffffffffffffffffffffffffffffffffffff1673ffffffffffffffffffffffffffffffffffffffff168152602001908152602001600020600082825401925050819055508373ffffffffffffffffffffffffffffffffffffffff168573ffffffffffffffffffffffffffffffffffffffff167fddf252ad1be2c89b69c2b068fc378daa952ba7f163c4a11628f55a4df523b3ef85604051610b9c9190612880565b60405180910390a360019150509392505050565b7f000000000000000000000000000000000000000000000000000000000000000081565b60007f00000000000000000000000000000000000000000000000000000000000000004614610c0a57610c056122ed565b610c2c565b7f00000000000000000000000000000000000000000000000000000000000000005b905090565b7f000000000000000000000000000000000000000000000000000000000000000081565b6000807f000000000000000000000000000000000000000000000000000000000000000073ffffffffffffffffffffffffffffffffffffffff166335ea6a757f00000000000000000000000000000000000000000000000000000000000000006040518263ffffffff1660e01b8152600401610cd19190612e06565b6101e060405180830381865afa158015610cef573d6000803e3d6000fd5b505050506040513d601f19601f82011682018060405250810190610d13919061321a565b60000151600001519050610d2681612379565b8015610d385750610d36816123a9565b155b8015610d4a5750610d48816123d9565b155b610d58576000915050610e61565b6000610d6382612409565b905060008103610d97577fffffffffffffffffffffffffffffffffffffffffffffffffffffffffffffffff92505050610e61565b6000610da28361243a565b9050600081600a610db3919061337b565b83610dbe91906133c6565b90507f000000000000000000000000000000000000000000000000000000000000000073ffffffffffffffffffffffffffffffffffffffff166318160ddd6040518163ffffffff1660e01b8152600401602060405180830381865afa158015610e2b573d6000803e3d6000fd5b505050506040513d601f19601f82011682018060405250810190610e4f9190612e36565b81610e5a9190612ef2565b9450505050505b919050565b6000610e71826107f8565b9050919050565b600080610e848461224c565b91508103610ec7576040517f08c379a0000000000000000000000000000000000000000000000000000000008152600401610ebe90613454565b60405180910390fd5b610f143330857f000000000000000000000000000000000000000000000000000000000000000073ffffffffffffffffffffffffffffffffffffffff1661246b909392919063ffffffff16565b610f1e828261250a565b8173ffffffffffffffffffffffffffffffffffffffff163373ffffffffffffffffffffffffffffffffffffffff167fdcbc1c05240f31ff3ad067ef1ee35ce4997762752e3a095284754544f4c709d78584604051610f7d929190613474565b60405180910390a3610f8f83826125da565b92915050565b60036020528060005260406000206000915090505481565b60056020528060005260406000206000915090505481565b6000610fd08361128a565b905061101f3330837f000000000000000000000000000000000000000000000000000000000000000073ffffffffffffffffffffffffffffffffffffffff1661246b909392919063ffffffff16565b611029828461250a565b8173ffffffffffffffffffffffffffffffffffffffff163373ffffffffffffffffffffffffffffffffffffffff167fdcbc1c05240f31ff3ad067ef1ee35ce4997762752e3a095284754544f4c709d78386604051611088929190613474565b60405180910390a361109a81846125da565b92915050565b600180546110ad90612e92565b80601f01602080910402602001604051908101604052809291908181526020018280546110d990612e92565b80156111265780601f106110fb57610100808354040283529160200191611126565b820191906000526020600020905b81548152906001019060200180831161110957829003601f168201915b505050505081565b7f000000000000000000000000000000000000000000000000000000000000000081565b7f000000000000000000000000000000000000000000000000000000000000000081565b600081600360003373ffffffffffffffffffffffffffffffffffffffff1673ffffffffffffffffffffffffffffffffffffffff16815260200190815260200160002060008282546111c79190612ef2565b9250508190555081600360008573ffffffffffffffffffffffffffffffffffffffff1673ffffffffffffffffffffffffffffffffffffffff168152602001908152602001600020600082825401925050819055508273ffffffffffffffffffffffffffffffffffffffff163373ffffffffffffffffffffffffffffffffffffffff167fddf252ad1be2c89b69c2b068fc378daa952ba7f163c4a11628f55a4df523b3ef846040516112789190612880565b60405180910390a36001905092915050565b6000806002549050600081146112bb576112b66112a56106c9565b82856122a19092919063ffffffff16565b6112bd565b825b915050919050565b60006112d084610925565b90508173ffffffffffffffffffffffffffffffffffffffff163373ffffffffffffffffffffffffffffffffffffffff161461143c576000600460008473ffffffffffffffffffffffffffffffffffffffff1673ffffffffffffffffffffffffffffffffffffffff16815260200190815260200160002060003373ffffffffffffffffffffffffffffffffffffffff1673ffffffffffffffffffffffffffffffffffffffff1681526020019081526020016000205490507fffffffffffffffffffffffffffffffffffffffffffffffffffffffffffffffff811461143a5781816113b99190612ef2565b600460008573ffffffffffffffffffffffffffffffffffffffff1673ffffffffffffffffffffffffffffffffffffffff16815260200190815260200160002060003373ffffffffffffffffffffffffffffffffffffffff1673ffffffffffffffffffffffffffffffffffffffff168152602001908152602001600020819055505b505b61144684826126fb565b61145082826126ff565b8173ffffffffffffffffffffffffffffffffffffffff168373ffffffffffffffffffffffffffffffffffffffff163373ffffffffffffffffffffffffffffffffffffffff167ffbde797d201c681b91056529119e0b02407c7bb96a4a2c75c01fc9667232c8db87856040516114c6929190613474565b60405180910390a47f000000000000000000000000000000000000000000000000000000000000000073ffffffffffffffffffffffffffffffffffffffff166369328dec7f000000000000000000000000000000000000000000000000000000000000000086866040518463ffffffff1660e01b815260040161154b9392919061349d565b6020604051808303816000875af115801561156a573d6000803e3d6000fd5b505050506040513d601f19601f8201168201806040525081019061158e9190612e36565b509392505050565b60008173ffffffffffffffffffffffffffffffffffffffff163373ffffffffffffffffffffffffffffffffffffffff1614611702576000600460008473ffffffffffffffffffffffffffffffffffffffff1673ffffffffffffffffffffffffffffffffffffffff16815260200190815260200160002060003373ffffffffffffffffffffffffffffffffffffffff1673ffffffffffffffffffffffffffffffffffffffff1681526020019081526020016000205490507fffffffffffffffffffffffffffffffffffffffffffffffffffffffffffffffff811461170057848161167f9190612ef2565b600460008573ffffffffffffffffffffffffffffffffffffffff1673ffffffffffffffffffffffffffffffffffffffff16815260200190815260200160002060003373ffffffffffffffffffffffffffffffffffffffff1673ffffffffffffffffffffffffffffffffffffffff168152602001908152602001600020819055505b505b600061170d85610e66565b91508103611750576040517f08c379a000000000000000000000000000000000000000000000000000000000815260040161174790613520565b60405180910390fd5b61175a81856126fb565b61176482856126ff565b8173ffffffffffffffffffffffffffffffffffffffff168373ffffffffffffffffffffffffffffffffffffffff163373ffffffffffffffffffffffffffffffffffffffff167ffbde797d201c681b91056529119e0b02407c7bb96a4a2c75c01fc9667232c8db84886040516117da929190613474565b60405180910390a47f000000000000000000000000000000000000000000000000000000000000000073ffffffffffffffffffffffffffffffffffffffff166369328dec7f000000000000000000000000000000000000000000000000000000000000000083866040518463ffffffff1660e01b815260040161185f9392919061349d565b6020604051808303816000875af115801561187e573d6000803e3d6000fd5b505050506040513d601f19601f820116820180604052508101906118a29190612e36565b509392505050565b6000807f000000000000000000000000000000000000000000000000000000000000000073ffffffffffffffffffffffffffffffffffffffff166335ea6a757f00000000000000000000000000000000000000000000000000000000000000006040518263ffffffff1660e01b81526004016119269190612e06565b6101e060405180830381865afa158015611944573d6000803e3d6000fd5b505050506040513d601f19601f82011682018060405250810190611968919061321a565b6000015160000151905061197b81612379565b801561198d575061198b816123a9565b155b801561199f575061199d816123d9565b155b6119ad576000915050611abe565b60006119b882612409565b9050600081036119ec577fffffffffffffffffffffffffffffffffffffffffffffffffffffffffffffffff92505050611abe565b60006119f78361243a565b9050600081600a611a08919061337b565b83611a1391906133c6565b9050611ab77f000000000000000000000000000000000000000000000000000000000000000073ffffffffffffffffffffffffffffffffffffffff166318160ddd6040518163ffffffff1660e01b8152600401602060405180830381865afa158015611a83573d6000803e3d6000fd5b505050506040513d601f19601f82011682018060405250810190611aa79190612e36565b82611ab29190612ef2565b611ac3565b9450505050505b919050565b600080600254905060008114611af457611aef81611adf6106c9565b8561225e9092919063ffffffff16565b611af6565b825b915050919050565b6000807f000000000000000000000000000000000000000000000000000000000000000073ffffffffffffffffffffffffffffffffffffffff166335ea6a757f00000000000000000000000000000000000000000000000000000000000000006040518263ffffffff1660e01b8152600401611b7a9190612e06565b6101e060405180830381865afa158015611b98573d6000803e3d6000fd5b505050506040513d601f19601f82011682018060405250810190611bbc919061321a565b60000151600001519050611bcf81612379565b8015611be15750611bdf816123d9565b155b611bef576000915050611d0e565b60007f000000000000000000000000000000000000000000000000000000000000000073ffffffffffffffffffffffffffffffffffffffff166370a082317f00000000000000000000000000000000000000000000000000000000000000006040518263ffffffff1660e01b8152600401611c6a9190612e06565b602060405180830381865afa158015611c87573d6000803e3d6000fd5b505050506040513d601f19601f82011682018060405250810190611cab9190612e36565b90506000611cf7600360008773ffffffffffffffffffffffffffffffffffffffff1673ffffffffffffffffffffffffffffffffffffffff168152602001908152602001600020546107f8565b9050808210611d065780611d08565b815b93505050505b919050565b42841015611d56576040517f08c379a0000000000000000000000000000000000000000000000000000000008152600401611d4d9061358c565b60405180910390fd5b60006001611d62610bd4565b7f6e71edae12b1b97f4d1f60370fef10105fa2faae0126114a169c64845d6126c98a8a8a600560008f73ffffffffffffffffffffffffffffffffffffffff1673ffffffffffffffffffffffffffffffffffffffff1681526020019081526020016000206000815480929190600101919050558b604051602001611dea969594939291906135ac565b60405160208183030381529060405280519060200120604051602001611e11929190613685565b6040516020818303038152906040528051906020012085858560405160008152602001604052604051611e4794939291906136bc565b6020604051602081039080840390855afa158015611e69573d6000803e3d6000fd5b505050602060405103519050600073ffffffffffffffffffffffffffffffffffffffff168173ffffffffffffffffffffffffffffffffffffffff1614158015611edd57508773ffffffffffffffffffffffffffffffffffffffff168173ffffffffffffffffffffffffffffffffffffffff16145b611f1c576040517f08c379a0000000000000000000000000000000000000000000000000000000008152600401611f139061374d565b60405180910390fd5b85600460008373ffffffffffffffffffffffffffffffffffffffff1673ffffffffffffffffffffffffffffffffffffffff16815260200190815260200160002060008973ffffffffffffffffffffffffffffffffffffffff1673ffffffffffffffffffffffffffffffffffffffff16815260200190815260200160002081905550508573ffffffffffffffffffffffffffffffffffffffff168773ffffffffffffffffffffffffffffffffffffffff167f8c5be1e5ebec7d5bd14f71427d1e84f3dd0314c0f7b2291e5b200ac8c7c3b92587604051611ffb9190612880565b60405180910390a350505050505050565b6000807f000000000000000000000000000000000000000000000000000000000000000073ffffffffffffffffffffffffffffffffffffffff166335ea6a757f00000000000000000000000000000000000000000000000000000000000000006040518263ffffffff1660e01b81526004016120889190612e06565b6101e060405180830381865afa1580156120a6573d6000803e3d6000fd5b505050506040513d601f19601f820116820180604052508101906120ca919061321a565b600001516000015190506120dd81612379565b80156120ef57506120ed816123d9565b155b6120fd576000915050612222565b60007f000000000000000000000000000000000000000000000000000000000000000073ffffffffffffffffffffffffffffffffffffffff166370a082317f00000000000000000000000000000000000000000000000000000000000000006040518263ffffffff1660e01b81526004016121789190612e06565b602060405180830381865afa158015612195573d6000803e3d6000fd5b505050506040513d601f19601f820116820180604052508101906121b99190612e36565b905060006121c682611ac3565b90506000600360008773ffffffffffffffffffffffffffffffffffffffff1673ffffffffffffffffffffffffffffffffffffffff168152602001908152602001600020549050808210612219578061221b565b815b9450505050505b919050565b6004602052816000526040600020602052806000526040600020600091509150505481565b600061225782611ac3565b9050919050565b6000827fffffffffffffffffffffffffffffffffffffffffffffffffffffffffffffffff048411830215820261229357600080fd5b818385020490509392505050565b6000827fffffffffffffffffffffffffffffffffffffffffffffffffffffffffffffffff04841183021582026122d657600080fd5b818385020460008385870206110190509392505050565b60007f8b73c3c69bb8fe3d512ecc4cf759cc79239f7b179b0ffacaa9a75d522b39400f600060405161231f9190613810565b60405180910390207fc89efdaa54c0f20c7adf612882df0950f5a951637e0307cdcb4c672f298b8bc6463060405160200161235e959493929190613827565b60405160208183030381529060405280519060200120905090565b6000807ffffffffffffffffffffffffffffffffffffffffffffffffffeffffffffffffff19831614159050919050565b6000807ffffffffffffffffffffffffffffffffffffffffffffffffffdffffffffffffff19831614159050919050565b6000807fffffffffffffffffffffffffffffffffffffffffffffffffefffffffffffffff19831614159050919050565b600060747fffffffffffffffffffffffffff000000000fffffffffffffffffffffffffffff198316901c9050919050565b600060307fffffffffffffffffffffffffffffffffffffffffffffffffff00ffffffffffff198316901c9050919050565b60006040517f23b872dd0000000000000000000000000000000000000000000000000000000081528460048201528360248201528260448201526020600060648360008a5af13d15601f3d1160016000511416171691505080612503576040517f08c379a00000000000000000000000000000000000000000000000000000000081526004016124fa906138c6565b60405180910390fd5b5050505050565b806002600082825461251c91906138e6565b9250508190555080600360008473ffffffffffffffffffffffffffffffffffffffff1673ffffffffffffffffffffffffffffffffffffffff168152602001908152602001600020600082825401925050819055508173ffffffffffffffffffffffffffffffffffffffff16600073ffffffffffffffffffffffffffffffffffffffff167fddf252ad1be2c89b69c2b068fc378daa952ba7f163c4a11628f55a4df523b3ef836040516125ce9190612880565b60405180910390a35050565b6126457f0000000000000000000000000000000000000000000000000000000000000000837f000000000000000000000000000000000000000000000000000000000000000073ffffffffffffffffffffffffffffffffffffffff166127cf9092919063ffffffff16565b7f000000000000000000000000000000000000000000000000000000000000000073ffffffffffffffffffffffffffffffffffffffff1663617ba0377f0000000000000000000000000000000000000000000000000000000000000000843060006040518563ffffffff1660e01b81526004016126c59493929190613955565b600060405180830381600087803b1580156126df57600080fd5b505af11580156126f3573d6000803e3d6000fd5b505050505050565b5050565b80600360008473ffffffffffffffffffffffffffffffffffffffff1673ffffffffffffffffffffffffffffffffffffffff168152602001908152602001600020600082825461274e9190612ef2565b9250508190555080600260008282540392505081905550600073ffffffffffffffffffffffffffffffffffffffff168273ffffffffffffffffffffffffffffffffffffffff167fddf252ad1be2c89b69c2b068fc378daa952ba7f163c4a11628f55a4df523b3ef836040516127c39190612880565b60405180910390a35050565b60006040517f095ea7b3000000000000000000000000000000000000000000000000000000008152836004820152826024820152602060006044836000895af13d15601f3d1160016000511416171691505080612861576040517f08c379a0000000000000000000000000000000000000000000000000000000008152600401612858906139e6565b60405180910390fd5b50505050565b6000819050919050565b61287a81612867565b82525050565b60006020820190506128956000830184612871565b92915050565b600081519050919050565b600082825260208201905092915050565b60005b838110156128d55780820151818401526020810190506128ba565b60008484015250505050565b6000601f19601f8301169050919050565b60006128fd8261289b565b61290781856128a6565b93506129178185602086016128b7565b612920816128e1565b840191505092915050565b6000602082019050818103600083015261294581846128f2565b905092915050565b6000604051905090565b600080fd5b61296581612867565b811461297057600080fd5b50565b6000813590506129828161295c565b92915050565b60006020828403121561299e5761299d612957565b5b60006129ac84828501612973565b91505092915050565b600073ffffffffffffffffffffffffffffffffffffffff82169050919050565b60006129e0826129b5565b9050919050565b6129f0816129d5565b81146129fb57600080fd5b50565b600081359050612a0d816129e7565b92915050565b60008060408385031215612a2a57612a29612957565b5b6000612a38858286016129fe565b9250506020612a4985828601612973565b9150509250929050565b60008115159050919050565b612a6881612a53565b82525050565b6000602082019050612a836000830184612a5f565b92915050565b600080600060608486031215612aa257612aa1612957565b5b6000612ab0868287016129fe565b9350506020612ac1868287016129fe565b9250506040612ad286828701612973565b9150509250925092565b600060ff82169050919050565b612af281612adc565b82525050565b6000602082019050612b0d6000830184612ae9565b92915050565b6000819050919050565b612b2681612b13565b82525050565b6000602082019050612b416000830184612b1d565b92915050565b6000819050919050565b6000612b6c612b67612b62846129b5565b612b47565b6129b5565b9050919050565b6000612b7e82612b51565b9050919050565b6000612b9082612b73565b9050919050565b612ba081612b85565b82525050565b6000602082019050612bbb6000830184612b97565b92915050565b600060208284031215612bd757612bd6612957565b5b6000612be5848285016129fe565b91505092915050565b60008060408385031215612c0557612c04612957565b5b6000612c1385828601612973565b9250506020612c24858286016129fe565b9150509250929050565b6000612c3982612b73565b9050919050565b612c4981612c2e565b82525050565b6000602082019050612c646000830184612c40565b92915050565b600080600060608486031215612c8357612c82612957565b5b6000612c9186828701612973565b9350506020612ca2868287016129fe565b9250506040612cb3868287016129fe565b9150509250925092565b612cc681612adc565b8114612cd157600080fd5b50565b600081359050612ce381612cbd565b92915050565b612cf281612b13565b8114612cfd57600080fd5b50565b600081359050612d0f81612ce9565b92915050565b600080600080600080600060e0888a031215612d3457612d33612957565b5b6000612d428a828b016129fe565b9750506020612d538a828b016129fe565b9650506040612d648a828b01612973565b9550506060612d758a828b01612973565b9450506080612d868a828b01612cd4565b93505060a0612d978a828b01612d00565b92505060c0612da88a828b01612d00565b91505092959891949750929550565b60008060408385031215612dce57612dcd612957565b5b6000612ddc858286016129fe565b9250506020612ded858286016129fe565b9150509250929050565b612e00816129d5565b82525050565b6000602082019050612e1b6000830184612df7565b92915050565b600081519050612e308161295c565b92915050565b600060208284031215612e4c57612e4b612957565b5b6000612e5a84828501612e21565b91505092915050565b7f4e487b7100000000000000000000000000000000000000000000000000000000600052602260045260246000fd5b60006002820490506001821680612eaa57607f821691505b602082108103612ebd57612ebc612e63565b5b50919050565b7f4e487b7100000000000000000000000000000000000000000000000000000000600052601160045260246000fd5b6000612efd82612867565b9150612f0883612867565b9250828203905081811115612f2057612f1f612ec3565b5b92915050565b600080fd5b7f4e487b7100000000000000000000000000000000000000000000000000000000600052604160045260246000fd5b612f63826128e1565b810181811067ffffffffffffffff82111715612f8257612f81612f2b565b5b80604052505050565b6000612f9561294d565b9050612fa18282612f5a565b919050565b600060208284031215612fbc57612fbb612f26565b5b612fc66020612f8b565b90506000612fd684828501612e21565b60008301525092915050565b60006fffffffffffffffffffffffffffffffff82169050919050565b61300781612fe2565b811461301257600080fd5b50565b60008151905061302481612ffe565b92915050565b600064ffffffffff82169050919050565b6130448161302a565b811461304f57600080fd5b50565b6000815190506130618161303b565b92915050565b600061ffff82169050919050565b61307e81613067565b811461308957600080fd5b50565b60008151905061309b81613075565b92915050565b6000815190506130b0816129e7565b92915050565b60006101e082840312156130cd576130cc612f26565b5b6130d86101e0612f8b565b905060006130e884828501612fa6565b60008301525060206130fc84828501613015565b602083015250604061311084828501613015565b604083015250606061312484828501613015565b606083015250608061313884828501613015565b60808301525060a061314c84828501613015565b60a08301525060c061316084828501613052565b60c08301525060e06131748482850161308c565b60e083015250610100613189848285016130a1565b6101008301525061012061319f848285016130a1565b610120830152506101406131b5848285016130a1565b610140830152506101606131cb848285016130a1565b610160830152506101806131e184828501613015565b610180830152506101a06131f784828501613015565b6101a0830152506101c061320d84828501613015565b6101c08301525092915050565b60006101e0828403121561323157613230612957565b5b600061323f848285016130b6565b91505092915050565b60008160011c9050919050565b6000808291508390505b600185111561329f5780860481111561327b5761327a612ec3565b5b600185161561328a5780820291505b808102905061329885613248565b945061325f565b94509492505050565b6000826132b85760019050613374565b816132c65760009050613374565b81600181146132dc57600281146132e657613315565b6001915050613374565b60ff8411156132f8576132f7612ec3565b5b8360020a91508482111561330f5761330e612ec3565b5b50613374565b5060208310610133831016604e8410600b841016171561334a5782820a90508381111561334557613344612ec3565b5b613374565b6133578484846001613255565b9250905081840481111561336e5761336d612ec3565b5b81810290505b9392505050565b600061338682612867565b915061339183612adc565b92506133be7fffffffffffffffffffffffffffffffffffffffffffffffffffffffffffffffff84846132a8565b905092915050565b60006133d182612867565b91506133dc83612867565b92508282026133ea81612867565b9150828204841483151761340157613400612ec3565b5b5092915050565b7f5a45524f5f534841524553000000000000000000000000000000000000000000600082015250565b600061343e600b836128a6565b915061344982613408565b602082019050919050565b6000602082019050818103600083015261346d81613431565b9050919050565b60006040820190506134896000830185612871565b6134966020830184612871565b9392505050565b60006060820190506134b26000830186612df7565b6134bf6020830185612871565b6134cc6040830184612df7565b949350505050565b7f5a45524f5f415353455453000000000000000000000000000000000000000000600082015250565b600061350a600b836128a6565b9150613515826134d4565b602082019050919050565b60006020820190508181036000830152613539816134fd565b9050919050565b7f5045524d49545f444541444c494e455f45585049524544000000000000000000600082015250565b60006135766017836128a6565b915061358182613540565b602082019050919050565b600060208201905081810360008301526135a581613569565b9050919050565b600060c0820190506135c16000830189612b1d565b6135ce6020830188612df7565b6135db6040830187612df7565b6135e86060830186612871565b6135f56080830185612871565b61360260a0830184612871565b979650505050505050565b600081905092915050565b7f1901000000000000000000000000000000000000000000000000000000000000600082015250565b600061364e60028361360d565b915061365982613618565b600282019050919050565b6000819050919050565b61367f61367a82612b13565b613664565b82525050565b600061369082613641565b915061369c828561366e565b6020820191506136ac828461366e565b6020820191508190509392505050565b60006080820190506136d16000830187612b1d565b6136de6020830186612ae9565b6136eb6040830185612b1d565b6136f86060830184612b1d565b95945050505050565b7f494e56414c49445f5349474e4552000000000000000000000000000000000000600082015250565b6000613737600e836128a6565b915061374282613701565b602082019050919050565b600060208201905081810360008301526137668161372a565b9050919050565b600081905092915050565b60008190508160005260206000209050919050565b6000815461379a81612e92565b6137a4818661376d565b945060018216600081146137bf57600181146137d457613807565b60ff1983168652811515820286019350613807565b6137dd85613778565b60005b838110156137ff578154818901526001820191506020810190506137e0565b838801955050505b50505092915050565b600061381c828461378d565b915081905092915050565b600060a08201905061383c6000830188612b1d565b6138496020830187612b1d565b6138566040830186612b1d565b6138636060830185612871565b6138706080830184612df7565b9695505050505050565b7f5452414e534645525f46524f4d5f4641494c4544000000000000000000000000600082015250565b60006138b06014836128a6565b91506138bb8261387a565b602082019050919050565b600060208201905081810360008301526138df816138a3565b9050919050565b60006138f182612867565b91506138fc83612867565b925082820190508082111561391457613913612ec3565b5b92915050565b6000819050919050565b600061393f61393a6139358461391a565b612b47565b613067565b9050919050565b61394f81613924565b82525050565b600060808201905061396a6000830187612df7565b6139776020830186612871565b6139846040830185612df7565b6139916060830184613946565b95945050505050565b7f415050524f56455f4641494c4544000000000000000000000000000000000000600082015250565b60006139d0600e836128a6565b91506139db8261399a565b602082019050919050565b600060208201905081810360008301526139ff816139c3565b905091905056fea2646970667358221220156325e2bc28ce7ae86256cc94dedbf0d37d2a3fecde8e1c96493c2c7aeaf11264736f6c63430008130033a2646970667358221220f520bba3706c25111318844a3c10c0b8054876a8033fa02bcbeb000ab1ad08d164736f6c63430008130033",
  "immutableReferences": {
    "731": [
      {
        "length": 32,
        "start": 650
      }
    ],
    "734": [
      {
        "length": 32,
        "start": 614
      }
    ],
    "737": [
      {
        "length": 32,
        "start": 578
      }
    ]
  },
  "source": "// SPDX-License-Identifier: UNLICENSED\npragma solidity ^0.8.19;\n\nimport \"./yield-daddy/aave-v3/AaveV3ERC4626Factory.sol\";\nimport \"./yield-daddy/aave-v3/IPoolAddressesProvider.sol\";\n\ncontract LendingVault {\n\n    AaveV3ERC4626Factory public immutable aaveFactory;\n    IPool public immutable aavePool;\n    IPoolAddressesProvider public immutable aavePoolAddressesProvider;\n    mapping(ERC20 => ERC4626) public erc4626s;\n    //IRewardsController public immutable rewardsController;\n    //address public constant rewardRecipient = address(0x01);\n\n    constructor(address _iPoolAddressesProviderAddress, address _temporaryTokenAddress) {\n        // Working in Goerli\n        aavePoolAddressesProvider = IPoolAddressesProvider(_iPoolAddressesProviderAddress);\n        aavePool = IPool(aavePoolAddressesProvider.getPool());\n        //rewardsController = IRewardsController(aavePoolAddressesProvider.getRewardsController());\n        aaveFactory = new AaveV3ERC4626Factory(aavePool); // will continue aave integration later\n        //testAsset\n        ERC20 usdcERC20 = ERC20(_temporaryTokenAddress);\n        erc4626s[usdcERC20] = aaveFactory.createERC4626(usdcERC20);\n    }\n\n    function deposit(address tokenAddress, uint256 _amount, address _receiver) external {\n        ERC20(tokenAddress).approve(address(erc4626s[ERC20(tokenAddress)]), _amount);\n        erc4626s[ERC20(tokenAddress)].deposit(_amount, _receiver);\n        //aaveFactory.createERC4626(address(this), _amount);\n    }\n\n    function withdraw(address tokenAddress, uint256 _amount, address _receiver) external {\n        erc4626s[ERC20(tokenAddress)].withdraw(_amount, _receiver, address(this));\n    }\n\n}",
  "sourcePath": "/Users/blabla/Documents/gelato_test/contracts/LendingVault.sol",
  "compiler": {
    "name": "solc",
    "version": "0.8.19+commit.7dd6d404.Emscripten.clang"
  },
  "schemaVersion": "3.4.11",
  "updatedAt": "2023-03-04T04:42:01.134Z",
  "networkType": "ethereum",
  "devdoc": {
    "kind": "dev",
    "methods": {},
    "version": 1
  },
  "userdoc": {
    "kind": "user",
    "methods": {},
    "version": 1
  }
}