{
  "contractName": "OrderExecutor",
  "abi": [
    {
      "inputs": [
        {
          "internalType": "address",
          "name": "_ops",
          "type": "address"
        },
        {
          "internalType": "address",
          "name": "_taskCreator",
          "type": "address"
        },
        {
          "internalType": "address",
          "name": "_swapRouter",
          "type": "address"
        }
      ],
      "stateMutability": "nonpayable",
      "type": "constructor"
    },
    {
      "anonymous": false,
      "inputs": [
        {
          "indexed": false,
          "internalType": "string",
          "name": "",
          "type": "string"
        },
        {
          "indexed": false,
          "internalType": "uint256",
          "name": "",
          "type": "uint256"
        }
      ],
      "name": "OrderDone",
      "type": "event"
    },
    {
      "inputs": [],
      "name": "dedicatedMsgSender",
      "outputs": [
        {
          "internalType": "address",
          "name": "",
          "type": "address"
        }
      ],
      "stateMutability": "view",
      "type": "function",
      "constant": true
    },
    {
      "inputs": [],
      "name": "deployer",
      "outputs": [
        {
          "internalType": "address",
          "name": "",
          "type": "address"
        }
      ],
      "stateMutability": "view",
      "type": "function",
      "constant": true
    },
    {
      "inputs": [],
      "name": "lendingVault",
      "outputs": [
        {
          "internalType": "contract LendingVault",
          "name": "",
          "type": "address"
        }
      ],
      "stateMutability": "view",
      "type": "function",
      "constant": true
    },
    {
      "inputs": [],
      "name": "ops",
      "outputs": [
        {
          "internalType": "contract IOps",
          "name": "",
          "type": "address"
        }
      ],
      "stateMutability": "view",
      "type": "function",
      "constant": true
    },
    {
      "inputs": [],
      "name": "orderBook",
      "outputs": [
        {
          "internalType": "contract OrderBook",
          "name": "",
          "type": "address"
        }
      ],
      "stateMutability": "view",
      "type": "function",
      "constant": true
    },
    {
      "inputs": [],
      "name": "price",
      "outputs": [
        {
          "internalType": "uint256",
          "name": "",
          "type": "uint256"
        }
      ],
      "stateMutability": "view",
      "type": "function",
      "constant": true
    },
    {
      "inputs": [],
      "name": "swapRouter",
      "outputs": [
        {
          "internalType": "contract ISwapRouter",
          "name": "",
          "type": "address"
        }
      ],
      "stateMutability": "view",
      "type": "function",
      "constant": true
    },
    {
      "stateMutability": "payable",
      "type": "receive",
      "payable": true
    },
    {
      "inputs": [
        {
          "internalType": "uint256",
          "name": "_price",
          "type": "uint256"
        }
      ],
      "name": "setPrice",
      "outputs": [],
      "stateMutability": "nonpayable",
      "type": "function"
    },
    {
      "inputs": [
        {
          "internalType": "address",
          "name": "_lendingVault",
          "type": "address"
        }
      ],
      "name": "setLendingVault",
      "outputs": [],
      "stateMutability": "nonpayable",
      "type": "function"
    },
    {
      "inputs": [
        {
          "internalType": "uint256",
          "name": "orderNonce",
          "type": "uint256"
        }
      ],
      "name": "executeOrder",
      "outputs": [],
      "stateMutability": "nonpayable",
      "type": "function"
    },
    {
      "inputs": [
        {
          "internalType": "uint256",
          "name": "orderNonce",
          "type": "uint256"
        }
      ],
      "name": "checker",
      "outputs": [
        {
          "internalType": "bool",
          "name": "canExec",
          "type": "bool"
        },
        {
          "internalType": "bytes",
          "name": "execPayload",
          "type": "bytes"
        }
      ],
      "stateMutability": "view",
      "type": "function",
      "constant": true
    },
    {
      "inputs": [],
      "name": "withdraw",
      "outputs": [],
      "stateMutability": "nonpayable",
      "type": "function"
    }
  ],
  "bytecode": "0x6101006040523480156200001257600080fd5b50604051620023d4380380620023d483398181016040528101906200003891906200030d565b82828173ffffffffffffffffffffffffffffffffffffffff1660808173ffffffffffffffffffffffffffffffffffffffff16815250508173ffffffffffffffffffffffffffffffffffffffff1663573ea5756040518163ffffffff1660e01b8152600401602060405180830381865afa158015620000ba573d6000803e3d6000fd5b505050506040513d601f19601f82011682018060405250810190620000e09190620003ae565b73ffffffffffffffffffffffffffffffffffffffff1660c08173ffffffffffffffffffffffffffffffffffffffff168152505073c815db16d4be6ddf2685c201937905abf338f5d773ffffffffffffffffffffffffffffffffffffffff1663ded89a7c826040518263ffffffff1660e01b8152600401620001629190620003f1565b6040805180830381865afa1580156200017f573d6000803e3d6000fd5b505050506040513d601f19601f82011682018060405250810190620001a591906200044b565b508073ffffffffffffffffffffffffffffffffffffffff1660a09073ffffffffffffffffffffffffffffffffffffffff16815250505050606460008190555033600160006101000a81548173ffffffffffffffffffffffffffffffffffffffff021916908373ffffffffffffffffffffffffffffffffffffffff16021790555081600260006101000a81548173ffffffffffffffffffffffffffffffffffffffff021916908373ffffffffffffffffffffffffffffffffffffffff1602179055508073ffffffffffffffffffffffffffffffffffffffff1660e08173ffffffffffffffffffffffffffffffffffffffff168152505050505062000492565b600080fd5b600073ffffffffffffffffffffffffffffffffffffffff82169050919050565b6000620002d582620002a8565b9050919050565b620002e781620002c8565b8114620002f357600080fd5b50565b6000815190506200030781620002dc565b92915050565b600080600060608486031215620003295762000328620002a3565b5b60006200033986828701620002f6565b93505060206200034c86828701620002f6565b92505060406200035f86828701620002f6565b9150509250925092565b60006200037682620002a8565b9050919050565b620003888162000369565b81146200039457600080fd5b50565b600081519050620003a8816200037d565b92915050565b600060208284031215620003c757620003c6620002a3565b5b6000620003d78482850162000397565b91505092915050565b620003eb81620002c8565b82525050565b6000602082019050620004086000830184620003e0565b92915050565b60008115159050919050565b62000425816200040e565b81146200043157600080fd5b50565b60008151905062000445816200041a565b92915050565b60008060408385031215620004655762000464620002a3565b5b60006200047585828601620002f6565b9250506020620004888582860162000434565b9150509250929050565b60805160a05160c05160e051611ee5620004ef600039600081816108db01528181610bda0152610d61015260008181610edb0152610faf0152600081816102b6015261064e015260008181610dd10152610df80152611ee56000f3fe6080604052600436106100ab5760003560e01c806394f611341161006457806394f61134146101b4578063a035b1fe146101dd578063c31c9c0714610208578063cb8c5a3a14610233578063d5f394881461025e578063e70abe9214610289576100b2565b806328f150eb146100b75780633ccfd60b146100e2578063408a03d8146100f9578063776af5ba1461012257806391b7f5ed1461014d57806394e05b2c14610176576100b2565b366100b257005b600080fd5b3480156100c357600080fd5b506100cc6102b4565b6040516100d99190611334565b60405180910390f35b3480156100ee57600080fd5b506100f76102d8565b005b34801561010557600080fd5b50610120600480360381019061011b919061138a565b6103b1565b005b34801561012e57600080fd5b50610137610485565b6040516101449190611416565b60405180910390f35b34801561015957600080fd5b50610174600480360381019061016f9190611467565b6104ab565b005b34801561018257600080fd5b5061019d60048036038101906101989190611467565b610545565b6040516101ab92919061153f565b60405180910390f35b3480156101c057600080fd5b506101db60048036038101906101d69190611467565b61064c565b005b3480156101e957600080fd5b506101f2610d59565b6040516101ff919061157e565b60405180910390f35b34801561021457600080fd5b5061021d610d5f565b60405161022a91906115ba565b60405180910390f35b34801561023f57600080fd5b50610248610d83565b60405161025591906115f6565b60405180910390f35b34801561026a57600080fd5b50610273610da9565b6040516102809190611334565b60405180910390f35b34801561029557600080fd5b5061029e610dcf565b6040516102ab9190611632565b60405180910390f35b7f000000000000000000000000000000000000000000000000000000000000000081565b600160009054906101000a900473ffffffffffffffffffffffffffffffffffffffff1673ffffffffffffffffffffffffffffffffffffffff163373ffffffffffffffffffffffffffffffffffffffff1614610368576040517f08c379a000000000000000000000000000000000000000000000000000000000815260040161035f906116aa565b60405180910390fd5b3373ffffffffffffffffffffffffffffffffffffffff166108fc479081150290604051600060405180830381858888f193505050501580156103ae573d6000803e3d6000fd5b50565b600160009054906101000a900473ffffffffffffffffffffffffffffffffffffffff1673ffffffffffffffffffffffffffffffffffffffff163373ffffffffffffffffffffffffffffffffffffffff1614610441576040517f08c379a0000000000000000000000000000000000000000000000000000000008152600401610438906116aa565b60405180910390fd5b80600360006101000a81548173ffffffffffffffffffffffffffffffffffffffff021916908373ffffffffffffffffffffffffffffffffffffffff16021790555050565b600260009054906101000a900473ffffffffffffffffffffffffffffffffffffffff1681565b600160009054906101000a900473ffffffffffffffffffffffffffffffffffffffff1673ffffffffffffffffffffffffffffffffffffffff163373ffffffffffffffffffffffffffffffffffffffff161461053b576040517f08c379a0000000000000000000000000000000000000000000000000000000008152600401610532906116aa565b60405180910390fd5b8060008190555050565b60006060600054600260009054906101000a900473ffffffffffffffffffffffffffffffffffffffff1673ffffffffffffffffffffffffffffffffffffffff1663d09ef241856040518263ffffffff1660e01b81526004016105a7919061157e565b60e060405180830381865afa1580156105c4573d6000803e3d6000fd5b505050506040513d601f19601f820116820180604052508101906105e8919061188a565b6020015114915082604051602401610600919061157e565b6040516020818303038152906040526394f6113460e01b6020820180517bffffffffffffffffffffffffffffffffffffffffffffffffffffffff83818316178352505050509050915091565b7f000000000000000000000000000000000000000000000000000000000000000073ffffffffffffffffffffffffffffffffffffffff163373ffffffffffffffffffffffffffffffffffffffff16146106da576040517f08c379a00000000000000000000000000000000000000000000000000000000081526004016106d190611903565b60405180910390fd5b6000600360009054906101000a900473ffffffffffffffffffffffffffffffffffffffff1673ffffffffffffffffffffffffffffffffffffffff1663f3fef3a3600260009054906101000a900473ffffffffffffffffffffffffffffffffffffffff1673ffffffffffffffffffffffffffffffffffffffff1663d09ef241856040518263ffffffff1660e01b8152600401610775919061157e565b60e060405180830381865afa158015610792573d6000803e3d6000fd5b505050506040513d601f19601f820116820180604052508101906107b6919061188a565b60600151846040518363ffffffff1660e01b81526004016107d8929190611923565b6020604051808303816000875af11580156107f7573d6000803e3d6000fd5b505050506040513d601f19601f8201168201806040525081019061081b919061194c565b9050600260009054906101000a900473ffffffffffffffffffffffffffffffffffffffff1673ffffffffffffffffffffffffffffffffffffffff1663d09ef24160006040518263ffffffff1660e01b815260040161087991906119b4565b60e060405180830381865afa158015610896573d6000803e3d6000fd5b505050506040513d601f19601f820116820180604052508101906108ba919061188a565b6060015173ffffffffffffffffffffffffffffffffffffffff1663095ea7b37f0000000000000000000000000000000000000000000000000000000000000000836040518363ffffffff1660e01b8152600401610918929190611923565b6020604051808303816000875af1158015610937573d6000803e3d6000fd5b505050506040513d601f19601f8201168201806040525081019061095b91906119cf565b506000604051806101000160405280600260009054906101000a900473ffffffffffffffffffffffffffffffffffffffff1673ffffffffffffffffffffffffffffffffffffffff1663d09ef241866040518263ffffffff1660e01b81526004016109c5919061157e565b60e060405180830381865afa1580156109e2573d6000803e3d6000fd5b505050506040513d601f19601f82011682018060405250810190610a06919061188a565b6060015173ffffffffffffffffffffffffffffffffffffffff168152602001600260009054906101000a900473ffffffffffffffffffffffffffffffffffffffff1673ffffffffffffffffffffffffffffffffffffffff1663d09ef241866040518263ffffffff1660e01b8152600401610a80919061157e565b60e060405180830381865afa158015610a9d573d6000803e3d6000fd5b505050506040513d601f19601f82011682018060405250810190610ac1919061188a565b6080015173ffffffffffffffffffffffffffffffffffffffff168152602001610bb862ffffff168152602001600260009054906101000a900473ffffffffffffffffffffffffffffffffffffffff1673ffffffffffffffffffffffffffffffffffffffff1663d09ef241866040518263ffffffff1660e01b8152600401610b48919061157e565b60e060405180830381865afa158015610b65573d6000803e3d6000fd5b505050506040513d601f19601f82011682018060405250810190610b89919061188a565b6000015173ffffffffffffffffffffffffffffffffffffffff16815260200142815260200183815260200160008152602001600073ffffffffffffffffffffffffffffffffffffffff1681525090507f000000000000000000000000000000000000000000000000000000000000000073ffffffffffffffffffffffffffffffffffffffff1663414bf389826040518263ffffffff1660e01b8152600401610c319190611ae9565b6020604051808303816000875af1158015610c50573d6000803e3d6000fd5b505050506040513d601f19601f82011682018060405250810190610c74919061194c565b50600260009054906101000a900473ffffffffffffffffffffffffffffffffffffffff1673ffffffffffffffffffffffffffffffffffffffff16632993c690846040518263ffffffff1660e01b8152600401610cd0919061157e565b600060405180830381600087803b158015610cea57600080fd5b505af1158015610cfe573d6000803e3d6000fd5b505050507f9e86ce0485ddb047dd0f8fde14218156b79c2832f3c1ae9d2a05aa746cb6e3be83604051610d319190611b51565b60405180910390a1600080610d44610df3565b91509150610d528282610e90565b5050505050565b60005481565b7f000000000000000000000000000000000000000000000000000000000000000081565b600360009054906101000a900473ffffffffffffffffffffffffffffffffffffffff1681565b600160009054906101000a900473ffffffffffffffffffffffffffffffffffffffff1681565b7f000000000000000000000000000000000000000000000000000000000000000081565b6000807f000000000000000000000000000000000000000000000000000000000000000073ffffffffffffffffffffffffffffffffffffffff1663b810c6366040518163ffffffff1660e01b81526004016040805180830381865afa158015610e60573d6000803e3d6000fd5b505050506040513d601f19601f82011682018060405250810190610e849190611b7f565b80925081935050509091565b73eeeeeeeeeeeeeeeeeeeeeeeeeeeeeeeeeeeeeeee73ffffffffffffffffffffffffffffffffffffffff168173ffffffffffffffffffffffffffffffffffffffff1603610fa95760007f000000000000000000000000000000000000000000000000000000000000000073ffffffffffffffffffffffffffffffffffffffff1683604051610f1d90611bf0565b60006040518083038185875af1925050503d8060008114610f5a576040519150601f19603f3d011682016040523d82523d6000602084013e610f5f565b606091505b5050905080610fa3576040517f08c379a0000000000000000000000000000000000000000000000000000000008152600401610f9a90611c51565b60405180910390fd5b50610fd5565b610fd4817f000000000000000000000000000000000000000000000000000000000000000084610fd9565b5b5050565b61105a8363a9059cbb60e01b8484604051602401610ff8929190611923565b604051602081830303815290604052907bffffffffffffffffffffffffffffffffffffffffffffffffffffffff19166020820180517bffffffffffffffffffffffffffffffffffffffffffffffffffffffff838183161783525050505061105f565b505050565b60006110c1826040518060400160405280602081526020017f5361666545524332303a206c6f772d6c6576656c2063616c6c206661696c65648152508573ffffffffffffffffffffffffffffffffffffffff166111269092919063ffffffff16565b905060008151111561112157808060200190518101906110e191906119cf565b611120576040517f08c379a000000000000000000000000000000000000000000000000000000000815260040161111790611ce3565b60405180910390fd5b5b505050565b6060611135848460008561113e565b90509392505050565b606082471015611183576040517f08c379a000000000000000000000000000000000000000000000000000000000815260040161117a90611d75565b60405180910390fd5b6000808673ffffffffffffffffffffffffffffffffffffffff1685876040516111ac9190611dc6565b60006040518083038185875af1925050503d80600081146111e9576040519150601f19603f3d011682016040523d82523d6000602084013e6111ee565b606091505b50915091506111ff8783838761120b565b92505050949350505050565b6060831561126d5760008351036112655761122585611280565b611264576040517f08c379a000000000000000000000000000000000000000000000000000000000815260040161125b90611e29565b60405180910390fd5b5b829050611278565b61127783836112a3565b5b949350505050565b6000808273ffffffffffffffffffffffffffffffffffffffff163b119050919050565b6000825111156112b65781518083602001fd5b806040517f08c379a00000000000000000000000000000000000000000000000000000000081526004016112ea9190611e8d565b60405180910390fd5b600073ffffffffffffffffffffffffffffffffffffffff82169050919050565b600061131e826112f3565b9050919050565b61132e81611313565b82525050565b60006020820190506113496000830184611325565b92915050565b6000604051905090565b600080fd5b61136781611313565b811461137257600080fd5b50565b6000813590506113848161135e565b92915050565b6000602082840312156113a05761139f611359565b5b60006113ae84828501611375565b91505092915050565b6000819050919050565b60006113dc6113d76113d2846112f3565b6113b7565b6112f3565b9050919050565b60006113ee826113c1565b9050919050565b6000611400826113e3565b9050919050565b611410816113f5565b82525050565b600060208201905061142b6000830184611407565b92915050565b6000819050919050565b61144481611431565b811461144f57600080fd5b50565b6000813590506114618161143b565b92915050565b60006020828403121561147d5761147c611359565b5b600061148b84828501611452565b91505092915050565b60008115159050919050565b6114a981611494565b82525050565b600081519050919050565b600082825260208201905092915050565b60005b838110156114e95780820151818401526020810190506114ce565b60008484015250505050565b6000601f19601f8301169050919050565b6000611511826114af565b61151b81856114ba565b935061152b8185602086016114cb565b611534816114f5565b840191505092915050565b600060408201905061155460008301856114a0565b81810360208301526115668184611506565b90509392505050565b61157881611431565b82525050565b6000602082019050611593600083018461156f565b92915050565b60006115a4826113e3565b9050919050565b6115b481611599565b82525050565b60006020820190506115cf60008301846115ab565b92915050565b60006115e0826113e3565b9050919050565b6115f0816115d5565b82525050565b600060208201905061160b60008301846115e7565b92915050565b600061161c826113e3565b9050919050565b61162c81611611565b82525050565b60006020820190506116476000830184611623565b92915050565b600082825260208201905092915050565b7f4e6f7420616c6c6f77656420616464726573732e000000000000000000000000600082015250565b600061169460148361164d565b915061169f8261165e565b602082019050919050565b600060208201905081810360008301526116c381611687565b9050919050565b600080fd5b7f4e487b7100000000000000000000000000000000000000000000000000000000600052604160045260246000fd5b611707826114f5565b810181811067ffffffffffffffff82111715611726576117256116cf565b5b80604052505050565b600061173961134f565b905061174582826116fe565b919050565b6000815190506117598161135e565b92915050565b60008151905061176e8161143b565b92915050565b6000819050919050565b61178781611774565b811461179257600080fd5b50565b6000815190506117a48161177e565b92915050565b6117b381611494565b81146117be57600080fd5b50565b6000815190506117d0816117aa565b92915050565b600060e082840312156117ec576117eb6116ca565b5b6117f660e061172f565b905060006118068482850161174a565b600083015250602061181a8482850161175f565b602083015250604061182e8482850161175f565b60408301525060606118428482850161174a565b60608301525060806118568482850161174a565b60808301525060a061186a84828501611795565b60a08301525060c061187e848285016117c1565b60c08301525092915050565b600060e082840312156118a05761189f611359565b5b60006118ae848285016117d6565b91505092915050565b7f4f6e6c7920646564696361746564206d73672e73656e64657200000000000000600082015250565b60006118ed60198361164d565b91506118f8826118b7565b602082019050919050565b6000602082019050818103600083015261191c816118e0565b9050919050565b60006040820190506119386000830185611325565b611945602083018461156f565b9392505050565b60006020828403121561196257611961611359565b5b60006119708482850161175f565b91505092915050565b6000819050919050565b600061199e61199961199484611979565b6113b7565b611431565b9050919050565b6119ae81611983565b82525050565b60006020820190506119c960008301846119a5565b92915050565b6000602082840312156119e5576119e4611359565b5b60006119f3848285016117c1565b91505092915050565b611a0581611313565b82525050565b600062ffffff82169050919050565b611a2381611a0b565b82525050565b611a3281611431565b82525050565b611a41816112f3565b82525050565b61010082016000820151611a5e60008501826119fc565b506020820151611a7160208501826119fc565b506040820151611a846040850182611a1a565b506060820151611a9760608501826119fc565b506080820151611aaa6080850182611a29565b5060a0820151611abd60a0850182611a29565b5060c0820151611ad060c0850182611a29565b5060e0820151611ae360e0850182611a38565b50505050565b600061010082019050611aff6000830184611a47565b92915050565b7f6f726465725f6578656375746564000000000000000000000000000000000000600082015250565b6000611b3b600e8361164d565b9150611b4682611b05565b602082019050919050565b60006040820190508181036000830152611b6a81611b2e565b9050611b79602083018461156f565b92915050565b60008060408385031215611b9657611b95611359565b5b6000611ba48582860161175f565b9250506020611bb58582860161174a565b9150509250929050565b600081905092915050565b50565b6000611bda600083611bbf565b9150611be582611bca565b600082019050919050565b6000611bfb82611bcd565b9150819050919050565b7f5f7472616e736665723a20455448207472616e73666572206661696c65640000600082015250565b6000611c3b601e8361164d565b9150611c4682611c05565b602082019050919050565b60006020820190508181036000830152611c6a81611c2e565b9050919050565b7f5361666545524332303a204552433230206f7065726174696f6e20646964206e60008201527f6f74207375636365656400000000000000000000000000000000000000000000602082015250565b6000611ccd602a8361164d565b9150611cd882611c71565b604082019050919050565b60006020820190508181036000830152611cfc81611cc0565b9050919050565b7f416464726573733a20696e73756666696369656e742062616c616e636520666f60008201527f722063616c6c0000000000000000000000000000000000000000000000000000602082015250565b6000611d5f60268361164d565b9150611d6a82611d03565b604082019050919050565b60006020820190508181036000830152611d8e81611d52565b9050919050565b6000611da0826114af565b611daa8185611bbf565b9350611dba8185602086016114cb565b80840191505092915050565b6000611dd28284611d95565b915081905092915050565b7f416464726573733a2063616c6c20746f206e6f6e2d636f6e7472616374000000600082015250565b6000611e13601d8361164d565b9150611e1e82611ddd565b602082019050919050565b60006020820190508181036000830152611e4281611e06565b9050919050565b600081519050919050565b6000611e5f82611e49565b611e69818561164d565b9350611e798185602086016114cb565b611e82816114f5565b840191505092915050565b60006020820190508181036000830152611ea78184611e54565b90509291505056fea264697066735822122024d93ed3bcb6b0d9acf36b1061d1b1d07f55c219001afa9c7234675b4f58720264736f6c63430008130033",
  "immutableReferences": {
    "1285": [
      {
        "length": 32,
        "start": 2267
      },
      {
        "length": 32,
        "start": 3034
      },
      {
        "length": 32,
        "start": 3425
      }
    ],
    "1522": [
      {
        "length": 32,
        "start": 3537
      },
      {
        "length": 32,
        "start": 3576
      }
    ],
    "1524": [
      {
        "length": 32,
        "start": 694
      },
      {
        "length": 32,
        "start": 1614
      }
    ],
    "1526": [
      {
        "length": 32,
        "start": 3803
      },
      {
        "length": 32,
        "start": 4015
      }
    ]
  },
  "source": "// SPDX-License-Identifier: UNLICENSED\npragma solidity ^0.8.19;\n\nimport \"./gelato/OpsReady.sol\";\nimport \"./OrderBook.sol\";\nimport './LendingVault.sol';\nimport \"./uniswap/ISwapRouter.sol\";\n\ncontract OrderExecutor is OpsReady {\n\n    uint public price; // temporary, testing purposes only\n    address public deployer;\n\n    OrderBook public orderBook;\n    ISwapRouter public immutable swapRouter;\n    LendingVault public lendingVault;\n\n    event OrderDone(string, uint256);\n\n    modifier onlyDeployer {\n        require(msg.sender == deployer, \"Not allowed address.\");\n        _; // Continue the execution of the function called\n    }\n\n    constructor(address _ops, address _taskCreator, address _swapRouter) OpsReady(_ops, _taskCreator) {\n        price = 100; // arbitrary price for testing\n        deployer = msg.sender;\n        orderBook = OrderBook(_taskCreator);\n        swapRouter = ISwapRouter(_swapRouter);\n    }\n\n    function setPrice(uint _price) public onlyDeployer {\n        price = _price;\n    }\n\n    receive() external payable {}\n\n    function setLendingVault(address _lendingVault) public onlyDeployer {\n        lendingVault = LendingVault(_lendingVault);\n    }\n\n    function executeOrder(uint orderNonce) external onlyDedicatedMsgSender {\n        // execute order with orderNonce here\n        uint256 amountWithdrawed = lendingVault.withdraw(orderBook.getOrder(orderNonce).tokenIn, orderNonce);\n\n        // Approving the appropriate amount that uniswap is gonna take on order to make the swap\n        IERC20(orderBook.getOrder(0).tokenIn).approve(address(swapRouter), amountWithdrawed);\n        // Naively set amountOutMinimum to 0. In production, use an oracle or other data source to choose a safer value for amountOutMinimum.\n        // We also set the sqrtPriceLimitx96 to be 0 to ensure we swap our exact input amount.\n        ISwapRouter.ExactInputSingleParams memory params =\n            ISwapRouter.ExactInputSingleParams({\n                tokenIn: orderBook.getOrder(orderNonce).tokenIn,\n                tokenOut: orderBook.getOrder(orderNonce).tokenOut,\n                fee: 3000, // For this example, we will set the pool fee to 0.3%.\n                recipient: orderBook.getOrder(orderNonce).user,\n                deadline: block.timestamp,\n                amountIn: amountWithdrawed,\n                amountOutMinimum: 0, // NOT IN PRODUCTION\n                sqrtPriceLimitX96: 0 // NOT IN PRODUCTION\n            });\n\n        // The call to `exactInputSingle` executes the swap.\n        swapRouter.exactInputSingle(params);\n\n        orderBook.setExecuted(orderNonce);\n        emit OrderDone(\"order_executed\", orderNonce);\n        // \n        (uint256 fee, address feeToken) = _getFeeDetails();\n        // on a les fees jusqu' l\n        _transfer(fee, feeToken);\n    }\n\n    function checker(uint orderNonce) external view returns (bool canExec, bytes memory execPayload) {\n        canExec = orderBook.getOrder(orderNonce).price == price; // The condition that needs to be true for the task to be executed, you can filter the condition with the orderId\n        execPayload = abi.encodeCall(OrderExecutor.executeOrder, orderNonce); // The function that you want to call on the contract\n    }\n\n    // Only used for testing\n    function withdraw() public onlyDeployer {\n        payable(msg.sender).transfer(address(this).balance);\n    }\n\n}\n",
  "sourcePath": "/Users/blabla/Documents/gelato_test/contracts/OrderExecutor.sol",
  "compiler": {
    "name": "solc",
    "version": "0.8.19+commit.7dd6d404.Emscripten.clang"
  },
  "schemaVersion": "3.4.11",
  "updatedAt": "2023-03-05T10:13:37.183Z",
  "networkType": "ethereum",
  "devdoc": {
    "kind": "dev",
    "methods": {},
    "version": 1
  },
  "userdoc": {
    "kind": "user",
    "methods": {},
    "version": 1
  }
}