{
  "contractName": "OrderExecutor",
  "abi": [
    {
      "inputs": [
        {
          "internalType": "address",
          "name": "_ops",
          "type": "address"
        },
        {
          "internalType": "address",
          "name": "_taskCreator",
          "type": "address"
        },
        {
          "internalType": "address",
          "name": "_swapRouter",
          "type": "address"
        }
      ],
      "stateMutability": "nonpayable",
      "type": "constructor"
    },
    {
      "anonymous": false,
      "inputs": [
        {
          "indexed": false,
          "internalType": "string",
          "name": "",
          "type": "string"
        },
        {
          "indexed": false,
          "internalType": "uint256",
          "name": "",
          "type": "uint256"
        }
      ],
      "name": "OrderDone",
      "type": "event"
    },
    {
      "anonymous": false,
      "inputs": [
        {
          "indexed": false,
          "internalType": "string",
          "name": "",
          "type": "string"
        },
        {
          "indexed": false,
          "internalType": "uint256",
          "name": "",
          "type": "uint256"
        }
      ],
      "name": "SwapPreparation",
      "type": "event"
    },
    {
      "inputs": [],
      "name": "dedicatedMsgSender",
      "outputs": [
        {
          "internalType": "address",
          "name": "",
          "type": "address"
        }
      ],
      "stateMutability": "view",
      "type": "function"
    },
    {
      "inputs": [],
      "name": "ops",
      "outputs": [
        {
          "internalType": "contract IOps",
          "name": "",
          "type": "address"
        }
      ],
      "stateMutability": "view",
      "type": "function"
    },
    {
      "inputs": [],
      "name": "orderBook",
      "outputs": [
        {
          "internalType": "contract OrderBook",
          "name": "",
          "type": "address"
        }
      ],
      "stateMutability": "view",
      "type": "function"
    },
    {
      "inputs": [],
      "name": "swapRouter",
      "outputs": [
        {
          "internalType": "contract ISwapRouter",
          "name": "",
          "type": "address"
        }
      ],
      "stateMutability": "view",
      "type": "function"
    },
    {
      "inputs": [
        {
          "internalType": "uint256",
          "name": "_price",
          "type": "uint256"
        }
      ],
      "name": "setPrice",
      "outputs": [],
      "stateMutability": "nonpayable",
      "type": "function"
    },
    {
      "inputs": [
        {
          "internalType": "uint256",
          "name": "orderNonce",
          "type": "uint256"
        }
      ],
      "name": "executeOrder",
      "outputs": [],
      "stateMutability": "nonpayable",
      "type": "function"
    },
    {
      "inputs": [
        {
          "internalType": "uint256",
          "name": "orderNonce",
          "type": "uint256"
        }
      ],
      "name": "checker",
      "outputs": [
        {
          "internalType": "bool",
          "name": "canExec",
          "type": "bool"
        },
        {
          "internalType": "bytes",
          "name": "execPayload",
          "type": "bytes"
        }
      ],
      "stateMutability": "view",
      "type": "function"
    },
    {
      "inputs": [],
      "name": "withdraw",
      "outputs": [],
      "stateMutability": "nonpayable",
      "type": "function"
    }
  ],
  "bytecode": "0x6101006040523480156200001257600080fd5b5060405162001c2a38038062001c2a83398181016040528101906200003891906200030d565b82828173ffffffffffffffffffffffffffffffffffffffff1660808173ffffffffffffffffffffffffffffffffffffffff16815250508173ffffffffffffffffffffffffffffffffffffffff1663573ea5756040518163ffffffff1660e01b8152600401602060405180830381865afa158015620000ba573d6000803e3d6000fd5b505050506040513d601f19601f82011682018060405250810190620000e09190620003ae565b73ffffffffffffffffffffffffffffffffffffffff1660c08173ffffffffffffffffffffffffffffffffffffffff168152505073c815db16d4be6ddf2685c201937905abf338f5d773ffffffffffffffffffffffffffffffffffffffff1663ded89a7c826040518263ffffffff1660e01b8152600401620001629190620003f1565b6040805180830381865afa1580156200017f573d6000803e3d6000fd5b505050506040513d601f19601f82011682018060405250810190620001a591906200044b565b508073ffffffffffffffffffffffffffffffffffffffff1660a09073ffffffffffffffffffffffffffffffffffffffff16815250505050606460008190555033600160006101000a81548173ffffffffffffffffffffffffffffffffffffffff021916908373ffffffffffffffffffffffffffffffffffffffff16021790555081600260006101000a81548173ffffffffffffffffffffffffffffffffffffffff021916908373ffffffffffffffffffffffffffffffffffffffff1602179055508073ffffffffffffffffffffffffffffffffffffffff1660e08173ffffffffffffffffffffffffffffffffffffffff168152505050505062000492565b600080fd5b600073ffffffffffffffffffffffffffffffffffffffff82169050919050565b6000620002d582620002a8565b9050919050565b620002e781620002c8565b8114620002f357600080fd5b50565b6000815190506200030781620002dc565b92915050565b600080600060608486031215620003295762000328620002a3565b5b60006200033986828701620002f6565b93505060206200034c86828701620002f6565b92505060406200035f86828701620002f6565b9150509250925092565b60006200037682620002a8565b9050919050565b620003888162000369565b81146200039457600080fd5b50565b600081519050620003a8816200037d565b92915050565b600060208284031215620003c757620003c6620002a3565b5b6000620003d78482850162000397565b91505092915050565b620003eb81620002c8565b82525050565b6000602082019050620004086000830184620003e0565b92915050565b60008115159050919050565b62000425816200040e565b81146200043157600080fd5b50565b60008151905062000445816200041a565b92915050565b60008060408385031215620004655762000464620002a3565b5b60006200047585828601620002f6565b9250506020620004888582860162000434565b9150509250929050565b60805160a05160c05160e051611750620004da60003960006107e701526000818161091501526109e90152600061017a01526000818161080b015261083201526117506000f3fe608060405234801561001057600080fd5b50600436106100885760003560e01c806394e05b2c1161005b57806394e05b2c146100ef57806394f6113414610120578063c31c9c071461013c578063e70abe921461015a57610088565b806328f150eb1461008d5780633ccfd60b146100ab578063776af5ba146100b557806391b7f5ed146100d3575b600080fd5b610095610178565b6040516100a29190610d6e565b60405180910390f35b6100b361019c565b005b6100bd610275565b6040516100ca9190610de8565b60405180910390f35b6100ed60048036038101906100e89190610e48565b61029b565b005b61010960048036038101906101049190610e48565b6102a5565b604051610117929190610f20565b60405180910390f35b61013a60048036038101906101359190610e48565b6103ac565b005b6101446107e5565b6040516101519190610f71565b60405180910390f35b610162610809565b60405161016f9190610fad565b60405180910390f35b7f000000000000000000000000000000000000000000000000000000000000000081565b600160009054906101000a900473ffffffffffffffffffffffffffffffffffffffff1673ffffffffffffffffffffffffffffffffffffffff163373ffffffffffffffffffffffffffffffffffffffff161461022c576040517f08c379a000000000000000000000000000000000000000000000000000000000815260040161022390611025565b60405180910390fd5b3373ffffffffffffffffffffffffffffffffffffffff166108fc479081150290604051600060405180830381858888f19350505050158015610272573d6000803e3d6000fd5b50565b600260009054906101000a900473ffffffffffffffffffffffffffffffffffffffff1681565b8060008190555050565b60006060600054600260009054906101000a900473ffffffffffffffffffffffffffffffffffffffff1673ffffffffffffffffffffffffffffffffffffffff1663d09ef241856040518263ffffffff1660e01b81526004016103079190611054565b60e060405180830381865afa158015610324573d6000803e3d6000fd5b505050506040513d601f19601f820116820180604052508101906103489190611246565b60200151149150826040516024016103609190611054565b6040516020818303038152906040526394f6113460e01b6020820180517bffffffffffffffffffffffffffffffffffffffffffffffffffffffff83818316178352505050509050915091565b6000600260009054906101000a900473ffffffffffffffffffffffffffffffffffffffff1673ffffffffffffffffffffffffffffffffffffffff16630f80042b836040518263ffffffff1660e01b81526004016104099190611054565b6020604051808303816000875af1158015610428573d6000803e3d6000fd5b505050506040513d601f19601f8201168201806040525081019061044c9190611273565b90506000604051806101000160405280600260009054906101000a900473ffffffffffffffffffffffffffffffffffffffff1673ffffffffffffffffffffffffffffffffffffffff1663d09ef241866040518263ffffffff1660e01b81526004016104b79190611054565b60e060405180830381865afa1580156104d4573d6000803e3d6000fd5b505050506040513d601f19601f820116820180604052508101906104f89190611246565b6060015173ffffffffffffffffffffffffffffffffffffffff168152602001600260009054906101000a900473ffffffffffffffffffffffffffffffffffffffff1673ffffffffffffffffffffffffffffffffffffffff1663d09ef241866040518263ffffffff1660e01b81526004016105729190611054565b60e060405180830381865afa15801561058f573d6000803e3d6000fd5b505050506040513d601f19601f820116820180604052508101906105b39190611246565b6080015173ffffffffffffffffffffffffffffffffffffffff168152602001610bb862ffffff168152602001600260009054906101000a900473ffffffffffffffffffffffffffffffffffffffff1673ffffffffffffffffffffffffffffffffffffffff1663d09ef241866040518263ffffffff1660e01b815260040161063a9190611054565b60e060405180830381865afa158015610657573d6000803e3d6000fd5b505050506040513d601f19601f8201168201806040525081019061067b9190611246565b6000015173ffffffffffffffffffffffffffffffffffffffff16815260200142815260200183815260200160008152602001600073ffffffffffffffffffffffffffffffffffffffff1681525090507f968acf6ef80a9ea667e82e4115baa66625b32e527ec6f673ac940f3a43e89678826040516106f991906112ec565b60405180910390a1600260009054906101000a900473ffffffffffffffffffffffffffffffffffffffff1673ffffffffffffffffffffffffffffffffffffffff16632993c690846040518263ffffffff1660e01b815260040161075c9190611054565b600060405180830381600087803b15801561077657600080fd5b505af115801561078a573d6000803e3d6000fd5b505050507f9e86ce0485ddb047dd0f8fde14218156b79c2832f3c1ae9d2a05aa746cb6e3be836040516107bd9190611366565b60405180910390a16000806107d061082d565b915091506107de82826108ca565b5050505050565b7f000000000000000000000000000000000000000000000000000000000000000081565b7f000000000000000000000000000000000000000000000000000000000000000081565b6000807f000000000000000000000000000000000000000000000000000000000000000073ffffffffffffffffffffffffffffffffffffffff1663b810c6366040518163ffffffff1660e01b81526004016040805180830381865afa15801561089a573d6000803e3d6000fd5b505050506040513d601f19601f820116820180604052508101906108be9190611394565b80925081935050509091565b73eeeeeeeeeeeeeeeeeeeeeeeeeeeeeeeeeeeeeeee73ffffffffffffffffffffffffffffffffffffffff168173ffffffffffffffffffffffffffffffffffffffff16036109e35760007f000000000000000000000000000000000000000000000000000000000000000073ffffffffffffffffffffffffffffffffffffffff168360405161095790611405565b60006040518083038185875af1925050503d8060008114610994576040519150601f19603f3d011682016040523d82523d6000602084013e610999565b606091505b50509050806109dd576040517f08c379a00000000000000000000000000000000000000000000000000000000081526004016109d490611466565b60405180910390fd5b50610a0f565b610a0e817f000000000000000000000000000000000000000000000000000000000000000084610a13565b5b5050565b610a948363a9059cbb60e01b8484604051602401610a32929190611486565b604051602081830303815290604052907bffffffffffffffffffffffffffffffffffffffffffffffffffffffff19166020820180517bffffffffffffffffffffffffffffffffffffffffffffffffffffffff8381831617835250505050610a99565b505050565b6000610afb826040518060400160405280602081526020017f5361666545524332303a206c6f772d6c6576656c2063616c6c206661696c65648152508573ffffffffffffffffffffffffffffffffffffffff16610b609092919063ffffffff16565b9050600081511115610b5b5780806020019051810190610b1b91906114af565b610b5a576040517f08c379a0000000000000000000000000000000000000000000000000000000008152600401610b519061154e565b60405180910390fd5b5b505050565b6060610b6f8484600085610b78565b90509392505050565b606082471015610bbd576040517f08c379a0000000000000000000000000000000000000000000000000000000008152600401610bb4906115e0565b60405180910390fd5b6000808673ffffffffffffffffffffffffffffffffffffffff168587604051610be69190611631565b60006040518083038185875af1925050503d8060008114610c23576040519150601f19603f3d011682016040523d82523d6000602084013e610c28565b606091505b5091509150610c3987838387610c45565b92505050949350505050565b60608315610ca7576000835103610c9f57610c5f85610cba565b610c9e576040517f08c379a0000000000000000000000000000000000000000000000000000000008152600401610c9590611694565b60405180910390fd5b5b829050610cb2565b610cb18383610cdd565b5b949350505050565b6000808273ffffffffffffffffffffffffffffffffffffffff163b119050919050565b600082511115610cf05781518083602001fd5b806040517f08c379a0000000000000000000000000000000000000000000000000000000008152600401610d2491906116f8565b60405180910390fd5b600073ffffffffffffffffffffffffffffffffffffffff82169050919050565b6000610d5882610d2d565b9050919050565b610d6881610d4d565b82525050565b6000602082019050610d836000830184610d5f565b92915050565b6000819050919050565b6000610dae610da9610da484610d2d565b610d89565b610d2d565b9050919050565b6000610dc082610d93565b9050919050565b6000610dd282610db5565b9050919050565b610de281610dc7565b82525050565b6000602082019050610dfd6000830184610dd9565b92915050565b6000604051905090565b600080fd5b6000819050919050565b610e2581610e12565b8114610e3057600080fd5b50565b600081359050610e4281610e1c565b92915050565b600060208284031215610e5e57610e5d610e0d565b5b6000610e6c84828501610e33565b91505092915050565b60008115159050919050565b610e8a81610e75565b82525050565b600081519050919050565b600082825260208201905092915050565b60005b83811015610eca578082015181840152602081019050610eaf565b60008484015250505050565b6000601f19601f8301169050919050565b6000610ef282610e90565b610efc8185610e9b565b9350610f0c818560208601610eac565b610f1581610ed6565b840191505092915050565b6000604082019050610f356000830185610e81565b8181036020830152610f478184610ee7565b90509392505050565b6000610f5b82610db5565b9050919050565b610f6b81610f50565b82525050565b6000602082019050610f866000830184610f62565b92915050565b6000610f9782610db5565b9050919050565b610fa781610f8c565b82525050565b6000602082019050610fc26000830184610f9e565b92915050565b600082825260208201905092915050565b7f6e6f7420616c6c6f776564206164647265737300000000000000000000000000600082015250565b600061100f601383610fc8565b915061101a82610fd9565b602082019050919050565b6000602082019050818103600083015261103e81611002565b9050919050565b61104e81610e12565b82525050565b60006020820190506110696000830184611045565b92915050565b600080fd5b7f4e487b7100000000000000000000000000000000000000000000000000000000600052604160045260246000fd5b6110ac82610ed6565b810181811067ffffffffffffffff821117156110cb576110ca611074565b5b80604052505050565b60006110de610e03565b90506110ea82826110a3565b919050565b6110f881610d4d565b811461110357600080fd5b50565b600081519050611115816110ef565b92915050565b60008151905061112a81610e1c565b92915050565b6000819050919050565b61114381611130565b811461114e57600080fd5b50565b6000815190506111608161113a565b92915050565b61116f81610e75565b811461117a57600080fd5b50565b60008151905061118c81611166565b92915050565b600060e082840312156111a8576111a761106f565b5b6111b260e06110d4565b905060006111c284828501611106565b60008301525060206111d68482850161111b565b60208301525060406111ea8482850161111b565b60408301525060606111fe84828501611106565b606083015250608061121284828501611106565b60808301525060a061122684828501611151565b60a08301525060c061123a8482850161117d565b60c08301525092915050565b600060e0828403121561125c5761125b610e0d565b5b600061126a84828501611192565b91505092915050565b60006020828403121561128957611288610e0d565b5b60006112978482850161111b565b91505092915050565b7f537761705f7072657061726174696f6e3d000000000000000000000000000000600082015250565b60006112d6601183610fc8565b91506112e1826112a0565b602082019050919050565b60006040820190508181036000830152611305816112c9565b90506113146020830184611045565b92915050565b7f6f726465725f6578656375746564000000000000000000000000000000000000600082015250565b6000611350600e83610fc8565b915061135b8261131a565b602082019050919050565b6000604082019050818103600083015261137f81611343565b905061138e6020830184611045565b92915050565b600080604083850312156113ab576113aa610e0d565b5b60006113b98582860161111b565b92505060206113ca85828601611106565b9150509250929050565b600081905092915050565b50565b60006113ef6000836113d4565b91506113fa826113df565b600082019050919050565b6000611410826113e2565b9150819050919050565b7f5f7472616e736665723a20455448207472616e73666572206661696c65640000600082015250565b6000611450601e83610fc8565b915061145b8261141a565b602082019050919050565b6000602082019050818103600083015261147f81611443565b9050919050565b600060408201905061149b6000830185610d5f565b6114a86020830184611045565b9392505050565b6000602082840312156114c5576114c4610e0d565b5b60006114d38482850161117d565b91505092915050565b7f5361666545524332303a204552433230206f7065726174696f6e20646964206e60008201527f6f74207375636365656400000000000000000000000000000000000000000000602082015250565b6000611538602a83610fc8565b9150611543826114dc565b604082019050919050565b600060208201905081810360008301526115678161152b565b9050919050565b7f416464726573733a20696e73756666696369656e742062616c616e636520666f60008201527f722063616c6c0000000000000000000000000000000000000000000000000000602082015250565b60006115ca602683610fc8565b91506115d58261156e565b604082019050919050565b600060208201905081810360008301526115f9816115bd565b9050919050565b600061160b82610e90565b61161581856113d4565b9350611625818560208601610eac565b80840191505092915050565b600061163d8284611600565b915081905092915050565b7f416464726573733a2063616c6c20746f206e6f6e2d636f6e7472616374000000600082015250565b600061167e601d83610fc8565b915061168982611648565b602082019050919050565b600060208201905081810360008301526116ad81611671565b9050919050565b600081519050919050565b60006116ca826116b4565b6116d48185610fc8565b93506116e4818560208601610eac565b6116ed81610ed6565b840191505092915050565b6000602082019050818103600083015261171281846116bf565b90509291505056fea2646970667358221220592b82a14a98cfd4aded61a5ab57263d51980ace495132f370a7ae3a613510e064736f6c63430008130033",
  "immutableReferences": {
    "917": [
      {
        "length": 32,
        "start": 2059
      },
      {
        "length": 32,
        "start": 2098
      }
    ],
    "919": [
      {
        "length": 32,
        "start": 378
      }
    ],
    "921": [
      {
        "length": 32,
        "start": 2325
      },
      {
        "length": 32,
        "start": 2537
      }
    ],
    "1625": [
      {
        "length": 32,
        "start": 2023
      }
    ]
  },
  "source": "// SPDX-License-Identifier: UNLICENSED\npragma solidity ^0.8.19;\n\nimport \"./OpsReady.sol\";\nimport \"./OrderBook.sol\";\nimport \"./uniswap/ISwapRouter.sol\";\n\ncontract OrderExecutor is OpsReady {\n\n    uint price;\n    address deployer;\n\n    OrderBook public orderBook;\n    ISwapRouter public immutable swapRouter;\n\n    event OrderDone(string, uint256);\n    event SwapPreparation(string, uint256);\n\n    constructor(address _ops, address _taskCreator, address _swapRouter) OpsReady(_ops, _taskCreator) {\n        price = 100; // arbitrary price\n        deployer = msg.sender;\n        orderBook = OrderBook(_taskCreator);\n        swapRouter = ISwapRouter(_swapRouter);\n    }\n\n    function setPrice(uint _price) public {\n        price = _price;\n    }\n\n    function executeOrder(uint orderNonce) external /*onlyDedicatedMsgSender*/ {\n        // execute order with orderNonce here\n        uint256 amountOut = orderBook.closeYieldStrategy(orderNonce);\n        \n        // Naively set amountOutMinimum to 0. In production, use an oracle or other data source to choose a safer value for amountOutMinimum.\n        // We also set the sqrtPriceLimitx96 to be 0 to ensure we swap our exact input amount.\n        ISwapRouter.ExactInputSingleParams memory params =\n            ISwapRouter.ExactInputSingleParams({\n                tokenIn: orderBook.getOrder(orderNonce).tokenIn,\n                tokenOut: orderBook.getOrder(orderNonce).tokenOut,\n                fee: 3000, // For this example, we will set the pool fee to 0.3%.\n                recipient: orderBook.getOrder(orderNonce).user,\n                deadline: block.timestamp,\n                amountIn: amountOut,\n                amountOutMinimum: 0, // NOT IN PRODUCTION\n                sqrtPriceLimitX96: 0 // NOT IN PRODUCTION\n            });\n        emit SwapPreparation(\"Swap_preparation=\", amountOut);\n        // The call to `exactInputSingle` executes the swap.\n        //amountOut = swapRouter.exactInputSingle(params);\n        //IERC20(orderBook.getOrder(orderNonce).tokenOut).transfer(orderBook.getOrder(orderNonce).user, amountOut);\n\n        orderBook.setExecuted(orderNonce);\n        emit OrderDone(\"order_executed\", orderNonce);\n        // \n        (uint256 fee, address feeToken) = _getFeeDetails();\n        // on a les fees jusqu' l\n        _transfer(fee, feeToken);\n    }\n\n    function checker(uint orderNonce) external view returns (bool canExec, bytes memory execPayload) {\n        // check that liquidity is still into the vault\n        // require(vault.getLiquidity() > 0, \"No liquidity\");\n        canExec = orderBook.getOrder(orderNonce).price == price; // The condition that needs to be true for the task to be executed, you can filter the condition with the orderId\n        execPayload = abi.encodeCall(OrderExecutor.executeOrder, orderNonce); // The function that you want to call on the contract\n    }\n\n    // Only used for testing\n    function withdraw() public {\n        require(msg.sender == deployer, \"not allowed address\");\n        payable(msg.sender).transfer(address(this).balance);\n    }\n\n}\n",
  "sourcePath": "/Users/blabla/Documents/gelato_test/contracts/OrderExecutor.sol",
  "compiler": {
    "name": "solc",
    "version": "0.8.19+commit.7dd6d404.Emscripten.clang"
  },
  "schemaVersion": "3.4.11",
  "updatedAt": "2023-03-05T03:44:30.165Z",
  "devdoc": {
    "kind": "dev",
    "methods": {},
    "version": 1
  },
  "userdoc": {
    "kind": "user",
    "methods": {},
    "version": 1
  }
}