{
  "contractName": "OrderExecutor",
  "abi": [
    {
      "inputs": [
        {
          "internalType": "address",
          "name": "_ops",
          "type": "address"
        },
        {
          "internalType": "address",
          "name": "_taskCreator",
          "type": "address"
        },
        {
          "internalType": "address",
          "name": "_swapRouter",
          "type": "address"
        }
      ],
      "stateMutability": "nonpayable",
      "type": "constructor"
    },
    {
      "anonymous": false,
      "inputs": [
        {
          "indexed": false,
          "internalType": "string",
          "name": "",
          "type": "string"
        },
        {
          "indexed": false,
          "internalType": "uint256",
          "name": "",
          "type": "uint256"
        }
      ],
      "name": "OrderDone",
      "type": "event"
    },
    {
      "inputs": [],
      "name": "dedicatedMsgSender",
      "outputs": [
        {
          "internalType": "address",
          "name": "",
          "type": "address"
        }
      ],
      "stateMutability": "view",
      "type": "function",
      "constant": true
    },
    {
      "inputs": [],
      "name": "ops",
      "outputs": [
        {
          "internalType": "contract IOps",
          "name": "",
          "type": "address"
        }
      ],
      "stateMutability": "view",
      "type": "function",
      "constant": true
    },
    {
      "inputs": [],
      "name": "orderBook",
      "outputs": [
        {
          "internalType": "contract OrderBook",
          "name": "",
          "type": "address"
        }
      ],
      "stateMutability": "view",
      "type": "function",
      "constant": true
    },
    {
      "inputs": [],
      "name": "poolFee",
      "outputs": [
        {
          "internalType": "uint24",
          "name": "",
          "type": "uint24"
        }
      ],
      "stateMutability": "view",
      "type": "function",
      "constant": true
    },
    {
      "inputs": [],
      "name": "swapRouter",
      "outputs": [
        {
          "internalType": "contract ISwapRouter",
          "name": "",
          "type": "address"
        }
      ],
      "stateMutability": "view",
      "type": "function",
      "constant": true
    },
    {
      "stateMutability": "payable",
      "type": "receive",
      "payable": true
    },
    {
      "inputs": [
        {
          "internalType": "uint256",
          "name": "_price",
          "type": "uint256"
        }
      ],
      "name": "setPrice",
      "outputs": [],
      "stateMutability": "nonpayable",
      "type": "function"
    },
    {
      "inputs": [
        {
          "internalType": "uint256",
          "name": "orderNonce",
          "type": "uint256"
        }
      ],
      "name": "executeOrder",
      "outputs": [],
      "stateMutability": "nonpayable",
      "type": "function"
    },
    {
      "inputs": [
        {
          "internalType": "uint256",
          "name": "orderNonce",
          "type": "uint256"
        }
      ],
      "name": "checker",
      "outputs": [
        {
          "internalType": "bool",
          "name": "canExec",
          "type": "bool"
        },
        {
          "internalType": "bytes",
          "name": "execPayload",
          "type": "bytes"
        }
      ],
      "stateMutability": "view",
      "type": "function",
      "constant": true
    },
    {
      "inputs": [],
      "name": "withdraw",
      "outputs": [],
      "stateMutability": "nonpayable",
      "type": "function"
    }
  ],
  "bytecode": "0x6101006040523480156200001257600080fd5b50604051620019d7380380620019d783398181016040528101906200003891906200030d565b82828173ffffffffffffffffffffffffffffffffffffffff1660808173ffffffffffffffffffffffffffffffffffffffff16815250508173ffffffffffffffffffffffffffffffffffffffff1663573ea5756040518163ffffffff1660e01b8152600401602060405180830381865afa158015620000ba573d6000803e3d6000fd5b505050506040513d601f19601f82011682018060405250810190620000e09190620003ae565b73ffffffffffffffffffffffffffffffffffffffff1660c08173ffffffffffffffffffffffffffffffffffffffff168152505073c815db16d4be6ddf2685c201937905abf338f5d773ffffffffffffffffffffffffffffffffffffffff1663ded89a7c826040518263ffffffff1660e01b8152600401620001629190620003f1565b6040805180830381865afa1580156200017f573d6000803e3d6000fd5b505050506040513d601f19601f82011682018060405250810190620001a591906200044b565b508073ffffffffffffffffffffffffffffffffffffffff1660a09073ffffffffffffffffffffffffffffffffffffffff16815250505050606460008190555033600160006101000a81548173ffffffffffffffffffffffffffffffffffffffff021916908373ffffffffffffffffffffffffffffffffffffffff16021790555081600260006101000a81548173ffffffffffffffffffffffffffffffffffffffff021916908373ffffffffffffffffffffffffffffffffffffffff1602179055508073ffffffffffffffffffffffffffffffffffffffff1660e08173ffffffffffffffffffffffffffffffffffffffff168152505050505062000492565b600080fd5b600073ffffffffffffffffffffffffffffffffffffffff82169050919050565b6000620002d582620002a8565b9050919050565b620002e781620002c8565b8114620002f357600080fd5b50565b6000815190506200030781620002dc565b92915050565b600080600060608486031215620003295762000328620002a3565b5b60006200033986828701620002f6565b93505060206200034c86828701620002f6565b92505060406200035f86828701620002f6565b9150509250925092565b60006200037682620002a8565b9050919050565b620003888162000369565b81146200039457600080fd5b50565b600081519050620003a8816200037d565b92915050565b600060208284031215620003c757620003c6620002a3565b5b6000620003d78482850162000397565b91505092915050565b620003eb81620002c8565b82525050565b6000602082019050620004086000830184620003e0565b92915050565b60008115159050919050565b62000425816200040e565b81146200043157600080fd5b50565b60008151905062000445816200041a565b92915050565b60008060408385031215620004655762000464620002a3565b5b60006200047585828601620002f6565b9250506020620004888582860162000434565b9150509250929050565b60805160a05160c05160e0516114fd620004da60003960006105d501526000818161070301526107d70152600061021c0152600081816105f9015261062001526114fd6000f3fe60806040526004361061008a5760003560e01c806391b7f5ed1161005957806391b7f5ed1461012e57806394e05b2c1461015757806394f6113414610195578063c31c9c07146101be578063e70abe92146101e957610091565b8063089fe6aa1461009657806328f150eb146100c15780633ccfd60b146100ec578063776af5ba1461010357610091565b3661009157005b600080fd5b3480156100a257600080fd5b506100ab610214565b6040516100b89190610b39565b60405180910390f35b3480156100cd57600080fd5b506100d661021a565b6040516100e39190610b95565b60405180910390f35b3480156100f857600080fd5b5061010161023e565b005b34801561010f57600080fd5b50610118610317565b6040516101259190610c0f565b60405180910390f35b34801561013a57600080fd5b5061015560048036038101906101509190610c6f565b61033d565b005b34801561016357600080fd5b5061017e60048036038101906101799190610c6f565b610347565b60405161018c929190610d47565b60405180910390f35b3480156101a157600080fd5b506101bc60048036038101906101b79190610c6f565b61044e565b005b3480156101ca57600080fd5b506101d36105d3565b6040516101e09190610d98565b60405180910390f35b3480156101f557600080fd5b506101fe6105f7565b60405161020b9190610dd4565b60405180910390f35b610bb881565b7f000000000000000000000000000000000000000000000000000000000000000081565b600160009054906101000a900473ffffffffffffffffffffffffffffffffffffffff1673ffffffffffffffffffffffffffffffffffffffff163373ffffffffffffffffffffffffffffffffffffffff16146102ce576040517f08c379a00000000000000000000000000000000000000000000000000000000081526004016102c590610e4c565b60405180910390fd5b3373ffffffffffffffffffffffffffffffffffffffff166108fc479081150290604051600060405180830381858888f19350505050158015610314573d6000803e3d6000fd5b50565b600260009054906101000a900473ffffffffffffffffffffffffffffffffffffffff1681565b8060008190555050565b60006060600054600260009054906101000a900473ffffffffffffffffffffffffffffffffffffffff1673ffffffffffffffffffffffffffffffffffffffff1663d09ef241856040518263ffffffff1660e01b81526004016103a99190610e7b565b60e060405180830381865afa1580156103c6573d6000803e3d6000fd5b505050506040513d601f19601f820116820180604052508101906103ea919061106d565b60200151149150826040516024016104029190610e7b565b6040516020818303038152906040526394f6113460e01b6020820180517bffffffffffffffffffffffffffffffffffffffffffffffffffffffff83818316178352505050509050915091565b6000600260009054906101000a900473ffffffffffffffffffffffffffffffffffffffff1673ffffffffffffffffffffffffffffffffffffffff16630f80042b836040518263ffffffff1660e01b81526004016104ab9190610e7b565b6020604051808303816000875af11580156104ca573d6000803e3d6000fd5b505050506040513d601f19601f820116820180604052508101906104ee919061109a565b9050600260009054906101000a900473ffffffffffffffffffffffffffffffffffffffff1673ffffffffffffffffffffffffffffffffffffffff16632993c690836040518263ffffffff1660e01b815260040161054b9190610e7b565b600060405180830381600087803b15801561056557600080fd5b505af1158015610579573d6000803e3d6000fd5b505050507f9e86ce0485ddb047dd0f8fde14218156b79c2832f3c1ae9d2a05aa746cb6e3be826040516105ac9190611113565b60405180910390a16000806105bf61061b565b915091506105cd82826106b8565b50505050565b7f000000000000000000000000000000000000000000000000000000000000000081565b7f000000000000000000000000000000000000000000000000000000000000000081565b6000807f000000000000000000000000000000000000000000000000000000000000000073ffffffffffffffffffffffffffffffffffffffff1663b810c6366040518163ffffffff1660e01b81526004016040805180830381865afa158015610688573d6000803e3d6000fd5b505050506040513d601f19601f820116820180604052508101906106ac9190611141565b80925081935050509091565b73eeeeeeeeeeeeeeeeeeeeeeeeeeeeeeeeeeeeeeee73ffffffffffffffffffffffffffffffffffffffff168173ffffffffffffffffffffffffffffffffffffffff16036107d15760007f000000000000000000000000000000000000000000000000000000000000000073ffffffffffffffffffffffffffffffffffffffff1683604051610745906111b2565b60006040518083038185875af1925050503d8060008114610782576040519150601f19603f3d011682016040523d82523d6000602084013e610787565b606091505b50509050806107cb576040517f08c379a00000000000000000000000000000000000000000000000000000000081526004016107c290611213565b60405180910390fd5b506107fd565b6107fc817f000000000000000000000000000000000000000000000000000000000000000084610801565b5b5050565b6108828363a9059cbb60e01b8484604051602401610820929190611233565b604051602081830303815290604052907bffffffffffffffffffffffffffffffffffffffffffffffffffffffff19166020820180517bffffffffffffffffffffffffffffffffffffffffffffffffffffffff8381831617835250505050610887565b505050565b60006108e9826040518060400160405280602081526020017f5361666545524332303a206c6f772d6c6576656c2063616c6c206661696c65648152508573ffffffffffffffffffffffffffffffffffffffff1661094e9092919063ffffffff16565b90506000815111156109495780806020019051810190610909919061125c565b610948576040517f08c379a000000000000000000000000000000000000000000000000000000000815260040161093f906112fb565b60405180910390fd5b5b505050565b606061095d8484600085610966565b90509392505050565b6060824710156109ab576040517f08c379a00000000000000000000000000000000000000000000000000000000081526004016109a29061138d565b60405180910390fd5b6000808673ffffffffffffffffffffffffffffffffffffffff1685876040516109d491906113de565b60006040518083038185875af1925050503d8060008114610a11576040519150601f19603f3d011682016040523d82523d6000602084013e610a16565b606091505b5091509150610a2787838387610a33565b92505050949350505050565b60608315610a95576000835103610a8d57610a4d85610aa8565b610a8c576040517f08c379a0000000000000000000000000000000000000000000000000000000008152600401610a8390611441565b60405180910390fd5b5b829050610aa0565b610a9f8383610acb565b5b949350505050565b6000808273ffffffffffffffffffffffffffffffffffffffff163b119050919050565b600082511115610ade5781518083602001fd5b806040517f08c379a0000000000000000000000000000000000000000000000000000000008152600401610b1291906114a5565b60405180910390fd5b600062ffffff82169050919050565b610b3381610b1b565b82525050565b6000602082019050610b4e6000830184610b2a565b92915050565b600073ffffffffffffffffffffffffffffffffffffffff82169050919050565b6000610b7f82610b54565b9050919050565b610b8f81610b74565b82525050565b6000602082019050610baa6000830184610b86565b92915050565b6000819050919050565b6000610bd5610bd0610bcb84610b54565b610bb0565b610b54565b9050919050565b6000610be782610bba565b9050919050565b6000610bf982610bdc565b9050919050565b610c0981610bee565b82525050565b6000602082019050610c246000830184610c00565b92915050565b6000604051905090565b600080fd5b6000819050919050565b610c4c81610c39565b8114610c5757600080fd5b50565b600081359050610c6981610c43565b92915050565b600060208284031215610c8557610c84610c34565b5b6000610c9384828501610c5a565b91505092915050565b60008115159050919050565b610cb181610c9c565b82525050565b600081519050919050565b600082825260208201905092915050565b60005b83811015610cf1578082015181840152602081019050610cd6565b60008484015250505050565b6000601f19601f8301169050919050565b6000610d1982610cb7565b610d238185610cc2565b9350610d33818560208601610cd3565b610d3c81610cfd565b840191505092915050565b6000604082019050610d5c6000830185610ca8565b8181036020830152610d6e8184610d0e565b90509392505050565b6000610d8282610bdc565b9050919050565b610d9281610d77565b82525050565b6000602082019050610dad6000830184610d89565b92915050565b6000610dbe82610bdc565b9050919050565b610dce81610db3565b82525050565b6000602082019050610de96000830184610dc5565b92915050565b600082825260208201905092915050565b7f6e6f7420616c6c6f776564206164647265737300000000000000000000000000600082015250565b6000610e36601383610def565b9150610e4182610e00565b602082019050919050565b60006020820190508181036000830152610e6581610e29565b9050919050565b610e7581610c39565b82525050565b6000602082019050610e906000830184610e6c565b92915050565b600080fd5b7f4e487b7100000000000000000000000000000000000000000000000000000000600052604160045260246000fd5b610ed382610cfd565b810181811067ffffffffffffffff82111715610ef257610ef1610e9b565b5b80604052505050565b6000610f05610c2a565b9050610f118282610eca565b919050565b610f1f81610b74565b8114610f2a57600080fd5b50565b600081519050610f3c81610f16565b92915050565b600081519050610f5181610c43565b92915050565b6000819050919050565b610f6a81610f57565b8114610f7557600080fd5b50565b600081519050610f8781610f61565b92915050565b610f9681610c9c565b8114610fa157600080fd5b50565b600081519050610fb381610f8d565b92915050565b600060e08284031215610fcf57610fce610e96565b5b610fd960e0610efb565b90506000610fe984828501610f2d565b6000830152506020610ffd84828501610f42565b602083015250604061101184828501610f42565b604083015250606061102584828501610f2d565b606083015250608061103984828501610f2d565b60808301525060a061104d84828501610f78565b60a08301525060c061106184828501610fa4565b60c08301525092915050565b600060e0828403121561108357611082610c34565b5b600061109184828501610fb9565b91505092915050565b6000602082840312156110b0576110af610c34565b5b60006110be84828501610f42565b91505092915050565b7f6f726465725f6578656375746564000000000000000000000000000000000000600082015250565b60006110fd600e83610def565b9150611108826110c7565b602082019050919050565b6000604082019050818103600083015261112c816110f0565b905061113b6020830184610e6c565b92915050565b6000806040838503121561115857611157610c34565b5b600061116685828601610f42565b925050602061117785828601610f2d565b9150509250929050565b600081905092915050565b50565b600061119c600083611181565b91506111a78261118c565b600082019050919050565b60006111bd8261118f565b9150819050919050565b7f5f7472616e736665723a20455448207472616e73666572206661696c65640000600082015250565b60006111fd601e83610def565b9150611208826111c7565b602082019050919050565b6000602082019050818103600083015261122c816111f0565b9050919050565b60006040820190506112486000830185610b86565b6112556020830184610e6c565b9392505050565b60006020828403121561127257611271610c34565b5b600061128084828501610fa4565b91505092915050565b7f5361666545524332303a204552433230206f7065726174696f6e20646964206e60008201527f6f74207375636365656400000000000000000000000000000000000000000000602082015250565b60006112e5602a83610def565b91506112f082611289565b604082019050919050565b60006020820190508181036000830152611314816112d8565b9050919050565b7f416464726573733a20696e73756666696369656e742062616c616e636520666f60008201527f722063616c6c0000000000000000000000000000000000000000000000000000602082015250565b6000611377602683610def565b91506113828261131b565b604082019050919050565b600060208201905081810360008301526113a68161136a565b9050919050565b60006113b882610cb7565b6113c28185611181565b93506113d2818560208601610cd3565b80840191505092915050565b60006113ea82846113ad565b915081905092915050565b7f416464726573733a2063616c6c20746f206e6f6e2d636f6e7472616374000000600082015250565b600061142b601d83610def565b9150611436826113f5565b602082019050919050565b6000602082019050818103600083015261145a8161141e565b9050919050565b600081519050919050565b600061147782611461565b6114818185610def565b9350611491818560208601610cd3565b61149a81610cfd565b840191505092915050565b600060208201905081810360008301526114bf818461146c565b90509291505056fea264697066735822122024660fd41a8eb6ae73d9bee3bba2dea591fbcbc41ccb36ee1ebf905f46f546dc64736f6c63430008130033",
  "immutableReferences": {
    "917": [
      {
        "length": 32,
        "start": 1529
      },
      {
        "length": 32,
        "start": 1568
      }
    ],
    "919": [
      {
        "length": 32,
        "start": 540
      }
    ],
    "921": [
      {
        "length": 32,
        "start": 1795
      },
      {
        "length": 32,
        "start": 2007
      }
    ],
    "1625": [
      {
        "length": 32,
        "start": 1493
      }
    ]
  },
  "source": "// SPDX-License-Identifier: UNLICENSED\npragma solidity ^0.8.19;\n\nimport \"./OpsReady.sol\";\nimport \"./OrderBook.sol\";\nimport \"./uniswap/ISwapRouter.sol\";\n\ncontract OrderExecutor is OpsReady {\n\n    uint price;\n    address deployer;\n\n    OrderBook public orderBook;\n    ISwapRouter public immutable swapRouter;\n\n    event OrderDone(string, uint256);\n\n    constructor(address _ops, address _taskCreator, address _swapRouter) OpsReady(_ops, _taskCreator) {\n        price = 100; // arbitrary price\n        deployer = msg.sender;\n        orderBook = OrderBook(_taskCreator);\n        swapRouter = ISwapRouter(_swapRouter);\n    }\n\n    // For this example, we will set the pool fee to 0.3%.\n    uint24 public constant poolFee = 3000;\n\n    function setPrice(uint _price) public {\n        price = _price;\n    }\n\n    receive() external payable {}\n\n    function executeOrder(uint orderNonce) external /*onlyDedicatedMsgSender*/ {\n        // execute order with orderNonce here\n        uint256 amountOut = orderBook.closeYieldStrategy(orderNonce);\n        \n        // Naively set amountOutMinimum to 0. In production, use an oracle or other data source to choose a safer value for amountOutMinimum.\n        // We also set the sqrtPriceLimitx96 to be 0 to ensure we swap our exact input amount.\n        /*ISwapRouter.ExactInputSingleParams memory params =\n            ISwapRouter.ExactInputSingleParams({\n                tokenIn: orderBook.getOrder(orderNonce).tokenIn,\n                tokenOut: orderBook.getOrder(orderNonce).tokenOut,\n                fee: poolFee,\n                recipient: orderBook.getOrder(orderNonce).user,\n                deadline: block.timestamp,\n                amountIn: amountOut,\n                amountOutMinimum: 0, // NOT IN PRODUCTION\n                sqrtPriceLimitX96: 0 // NOT IN PRODUCTION\n            });\n\n        // The call to `exactInputSingle` executes the swap.\n        amountOut = swapRouter.exactInputSingle(params);\n        IERC20(orderBook.getOrder(orderNonce).tokenOut).transfer(orderBook.getOrder(orderNonce).user, amountOut);*/\n\n        orderBook.setExecuted(orderNonce);\n        emit OrderDone(\"order_executed\", orderNonce);\n        // \n        (uint256 fee, address feeToken) = _getFeeDetails();\n        // on a les fees jusqu' l\n        _transfer(fee, feeToken);\n    }\n\n    function checker(uint orderNonce) external view returns (bool canExec, bytes memory execPayload) {\n        // check that liquidity is still into the vault\n        // require(vault.getLiquidity() > 0, \"No liquidity\");\n        canExec = orderBook.getOrder(orderNonce).price == price; // The condition that needs to be true for the task to be executed, you can filter the condition with the orderId\n        execPayload = abi.encodeCall(OrderExecutor.executeOrder, orderNonce); // The function that you want to call on the contract\n    }\n\n    // Only used for testing\n    function withdraw() public {\n        require(msg.sender == deployer, \"not allowed address\");\n        payable(msg.sender).transfer(address(this).balance);\n    }\n\n}\n",
  "sourcePath": "/Users/blabla/Documents/gelato_test/contracts/OrderExecutor.sol",
  "compiler": {
    "name": "solc",
    "version": "0.8.19+commit.7dd6d404.Emscripten.clang"
  },
  "schemaVersion": "3.4.11",
  "updatedAt": "2023-03-05T01:58:01.009Z",
  "networkType": "ethereum",
  "devdoc": {
    "kind": "dev",
    "methods": {},
    "version": 1
  },
  "userdoc": {
    "kind": "user",
    "methods": {},
    "version": 1
  }
}