{
  "contractName": "OrderBook",
  "abi": [
    {
      "inputs": [
        {
          "internalType": "address",
          "name": "_opsAddress",
          "type": "address"
        }
      ],
      "stateMutability": "nonpayable",
      "type": "constructor"
    },
    {
      "anonymous": false,
      "inputs": [
        {
          "indexed": false,
          "internalType": "string",
          "name": "",
          "type": "string"
        },
        {
          "indexed": false,
          "internalType": "uint256",
          "name": "",
          "type": "uint256"
        }
      ],
      "name": "orderCreated",
      "type": "event"
    },
    {
      "inputs": [],
      "name": "dedicatedMsgSender",
      "outputs": [
        {
          "internalType": "address",
          "name": "",
          "type": "address"
        }
      ],
      "stateMutability": "view",
      "type": "function",
      "constant": true
    },
    {
      "inputs": [],
      "name": "fundsOwner",
      "outputs": [
        {
          "internalType": "address",
          "name": "",
          "type": "address"
        }
      ],
      "stateMutability": "view",
      "type": "function",
      "constant": true
    },
    {
      "inputs": [],
      "name": "ops",
      "outputs": [
        {
          "internalType": "contract IOps",
          "name": "",
          "type": "address"
        }
      ],
      "stateMutability": "view",
      "type": "function",
      "constant": true
    },
    {
      "inputs": [],
      "name": "taskTreasury",
      "outputs": [
        {
          "internalType": "contract ITaskTreasuryUpgradable",
          "name": "",
          "type": "address"
        }
      ],
      "stateMutability": "view",
      "type": "function",
      "constant": true
    },
    {
      "inputs": [
        {
          "internalType": "uint256",
          "name": "_amount",
          "type": "uint256"
        },
        {
          "internalType": "address",
          "name": "_token",
          "type": "address"
        }
      ],
      "name": "withdrawFunds",
      "outputs": [],
      "stateMutability": "nonpayable",
      "type": "function"
    },
    {
      "inputs": [
        {
          "internalType": "contract OrderExecutor",
          "name": "_orderExecutorAddress",
          "type": "address"
        }
      ],
      "name": "setOrderExecutor",
      "outputs": [],
      "stateMutability": "nonpayable",
      "type": "function"
    },
    {
      "inputs": [
        {
          "internalType": "address",
          "name": "_lendingVaultAddress",
          "type": "address"
        }
      ],
      "name": "setLendingVault",
      "outputs": [],
      "stateMutability": "nonpayable",
      "type": "function"
    },
    {
      "inputs": [
        {
          "internalType": "uint256",
          "name": "price",
          "type": "uint256"
        },
        {
          "internalType": "uint256",
          "name": "amount",
          "type": "uint256"
        },
        {
          "internalType": "address",
          "name": "_tokenIn",
          "type": "address"
        },
        {
          "internalType": "address",
          "name": "tokenOut",
          "type": "address"
        }
      ],
      "name": "createOrder",
      "outputs": [
        {
          "internalType": "uint256",
          "name": "",
          "type": "uint256"
        }
      ],
      "stateMutability": "nonpayable",
      "type": "function"
    },
    {
      "inputs": [
        {
          "internalType": "uint256",
          "name": "_orderNonce",
          "type": "uint256"
        }
      ],
      "name": "cancelOrder",
      "outputs": [],
      "stateMutability": "nonpayable",
      "type": "function"
    },
    {
      "inputs": [
        {
          "internalType": "uint256",
          "name": "_orderNonce",
          "type": "uint256"
        }
      ],
      "name": "setExecuted",
      "outputs": [],
      "stateMutability": "nonpayable",
      "type": "function"
    },
    {
      "inputs": [
        {
          "internalType": "uint256",
          "name": "_orderNonce",
          "type": "uint256"
        }
      ],
      "name": "getOrder",
      "outputs": [
        {
          "components": [
            {
              "internalType": "address",
              "name": "user",
              "type": "address"
            },
            {
              "internalType": "uint256",
              "name": "price",
              "type": "uint256"
            },
            {
              "internalType": "uint256",
              "name": "amount",
              "type": "uint256"
            },
            {
              "internalType": "address",
              "name": "tokenIn",
              "type": "address"
            },
            {
              "internalType": "address",
              "name": "tokenOut",
              "type": "address"
            },
            {
              "internalType": "bytes32",
              "name": "orderId",
              "type": "bytes32"
            },
            {
              "internalType": "bool",
              "name": "isExecuted",
              "type": "bool"
            }
          ],
          "internalType": "struct OrderDatas",
          "name": "",
          "type": "tuple"
        }
      ],
      "stateMutability": "view",
      "type": "function",
      "constant": true
    },
    {
      "inputs": [],
      "name": "getExecutorAddress",
      "outputs": [
        {
          "internalType": "address",
          "name": "",
          "type": "address"
        }
      ],
      "stateMutability": "view",
      "type": "function",
      "constant": true
    }
  ],
  "bytecode": "0x6101206040523480156200001257600080fd5b506040516200243d3803806200243d83398181016040528101906200003891906200036e565b803081308173ffffffffffffffffffffffffffffffffffffffff1660808173ffffffffffffffffffffffffffffffffffffffff16815250508173ffffffffffffffffffffffffffffffffffffffff1663573ea5756040518163ffffffff1660e01b8152600401602060405180830381865afa158015620000bc573d6000803e3d6000fd5b505050506040513d601f19601f82011682018060405250810190620000e29190620003e5565b73ffffffffffffffffffffffffffffffffffffffff1660c08173ffffffffffffffffffffffffffffffffffffffff168152505073c815db16d4be6ddf2685c201937905abf338f5d773ffffffffffffffffffffffffffffffffffffffff1663ded89a7c826040518263ffffffff1660e01b815260040162000164919062000428565b6040805180830381865afa15801562000181573d6000803e3d6000fd5b505050506040513d601f19601f82011682018060405250810190620001a7919062000482565b508073ffffffffffffffffffffffffffffffffffffffff1660a09073ffffffffffffffffffffffffffffffffffffffff168152505050508073ffffffffffffffffffffffffffffffffffffffff1660e08173ffffffffffffffffffffffffffffffffffffffff168152505060805173ffffffffffffffffffffffffffffffffffffffff1663e60a32136040518163ffffffff1660e01b8152600401602060405180830381865afa15801562000260573d6000803e3d6000fd5b505050506040513d601f19601f820116820180604052508101906200028691906200050e565b73ffffffffffffffffffffffffffffffffffffffff166101008173ffffffffffffffffffffffffffffffffffffffff1681525050505033600260006101000a81548173ffffffffffffffffffffffffffffffffffffffff021916908373ffffffffffffffffffffffffffffffffffffffff1602179055505062000540565b600080fd5b600073ffffffffffffffffffffffffffffffffffffffff82169050919050565b6000620003368262000309565b9050919050565b620003488162000329565b81146200035457600080fd5b50565b60008151905062000368816200033d565b92915050565b60006020828403121562000387576200038662000304565b5b6000620003978482850162000357565b91505092915050565b6000620003ad8262000309565b9050919050565b620003bf81620003a0565b8114620003cb57600080fd5b50565b600081519050620003df81620003b4565b92915050565b600060208284031215620003fe57620003fd62000304565b5b60006200040e84828501620003ce565b91505092915050565b620004228162000329565b82525050565b60006020820190506200043f600083018462000417565b92915050565b60008115159050919050565b6200045c8162000445565b81146200046857600080fd5b50565b6000815190506200047c8162000451565b92915050565b600080604083850312156200049c576200049b62000304565b5b6000620004ac8582860162000357565b9250506020620004bf858286016200046b565b9150509250929050565b6000620004d68262000329565b9050919050565b620004e881620004c9565b8114620004f457600080fd5b50565b6000815190506200050881620004dd565b92915050565b60006020828403121562000527576200052662000304565b5b60006200053784828501620004f7565b91505092915050565b60805160a05160c05160e05161010051611e98620005a560003960008181610e0201526110f001526000818161042001528181610d740152610e3e015260005050600061023d0152600081816104d40152818161096201526111140152611e986000f3fe608060405234801561001057600080fd5b50600436106100b45760003560e01c806358b91f0d1161007157806358b91f0d14610167578063744bfe6114610197578063756677a1146101b3578063d09ef241146101cf578063e60a3213146101ff578063e70abe921461021d576100b4565b806328f150eb146100b95780632993c690146100d7578063350157a8146100f3578063408a03d81461011157806346ee3c591461012d578063514fcac71461014b575b600080fd5b6100c161023b565b6040516100ce9190611255565b60405180910390f35b6100f160048036038101906100ec91906112ab565b61025f565b005b6100fb610320565b6040516101089190611255565b60405180910390f35b61012b60048036038101906101269190611304565b61034a565b005b61013561041e565b6040516101429190611255565b60405180910390f35b610165600480360381019061016091906112ab565b610442565b005b610181600480360381019061017c9190611331565b610575565b60405161018e91906113a7565b60405180910390f35b6101b160048036038101906101ac91906113c2565b610d72565b005b6101cd60048036038101906101c89190611452565b610eb3565b005b6101e960048036038101906101e491906112ab565b610f87565b6040516101f6919061155f565b60405180910390f35b6102076110ee565b60405161021491906115d9565b60405180910390f35b610225611112565b6040516102329190611615565b60405180910390f35b7f000000000000000000000000000000000000000000000000000000000000000081565b600360009054906101000a900473ffffffffffffffffffffffffffffffffffffffff1673ffffffffffffffffffffffffffffffffffffffff163373ffffffffffffffffffffffffffffffffffffffff16146102ef576040517f08c379a00000000000000000000000000000000000000000000000000000000081526004016102e6906116b3565b60405180910390fd5b600160008083815260200190815260200160002060060160006101000a81548160ff02191690831515021790555050565b6000600360009054906101000a900473ffffffffffffffffffffffffffffffffffffffff16905090565b600260009054906101000a900473ffffffffffffffffffffffffffffffffffffffff1673ffffffffffffffffffffffffffffffffffffffff163373ffffffffffffffffffffffffffffffffffffffff16146103da576040517f08c379a00000000000000000000000000000000000000000000000000000000081526004016103d19061171f565b60405180910390fd5b80600460006101000a81548173ffffffffffffffffffffffffffffffffffffffff021916908373ffffffffffffffffffffffffffffffffffffffff16021790555050565b7f000000000000000000000000000000000000000000000000000000000000000081565b600260009054906101000a900473ffffffffffffffffffffffffffffffffffffffff1673ffffffffffffffffffffffffffffffffffffffff163373ffffffffffffffffffffffffffffffffffffffff16146104d2576040517f08c379a00000000000000000000000000000000000000000000000000000000081526004016104c99061171f565b60405180910390fd5b7f000000000000000000000000000000000000000000000000000000000000000073ffffffffffffffffffffffffffffffffffffffff1663ee8ca3b5600080848152602001908152602001600020600501546040518263ffffffff1660e01b8152600401610540919061174e565b600060405180830381600087803b15801561055a57600080fd5b505af115801561056e573d6000803e3d6000fd5b5050505050565b6000808390508073ffffffffffffffffffffffffffffffffffffffff166323b872dd3330886040518463ffffffff1660e01b81526004016105b893929190611769565b6020604051808303816000875af11580156105d7573d6000803e3d6000fd5b505050506040513d601f19601f820116820180604052508101906105fb91906117cc565b506000600360009054906101000a900473ffffffffffffffffffffffffffffffffffffffff1673ffffffffffffffffffffffffffffffffffffffff166394f6113460015460405160240161064f91906113a7565b604051602081830303815290604052915060e01b6020820180517bffffffffffffffffffffffffffffffffffffffffffffffffffffffff8381831617835250505050905060006040518060400160405280600367ffffffffffffffff8111156106bb576106ba6117f9565b5b6040519080825280602002602001820160405280156106e95781602001602082028036833780820191505090505b508152602001600367ffffffffffffffff81111561070a576107096117f9565b5b60405190808252806020026020018201604052801561073d57816020015b60608152602001906001900390816107285790505b5081525090506000816000015160008151811061075d5761075c611828565b5b6020026020010190600381111561077757610776611857565b5b9081600381111561078b5761078a611857565b5b81525050600281600001516001815181106107a9576107a8611828565b5b602002602001019060038111156107c3576107c2611857565b5b908160038111156107d7576107d6611857565b5b81525050600381600001516002815181106107f5576107f4611828565b5b6020026020010190600381111561080f5761080e611857565b5b9081600381111561082357610822611857565b5b815250506108e5600360009054906101000a900473ffffffffffffffffffffffffffffffffffffffff16600360009054906101000a900473ffffffffffffffffffffffffffffffffffffffff1673ffffffffffffffffffffffffffffffffffffffff166394e05b2c60015460405160240161089e91906113a7565b604051602081830303815290604052915060e01b6020820180517bffffffffffffffffffffffffffffffffffffffffffffffffffffffff8381831617835250505050611136565b81602001516000815181106108fd576108fc611828565b5b6020026020010181905250610910611162565b816020015160018151811061092857610927611828565b5b602002602001018190525061093b611179565b816020015160028151811061095357610952611828565b5b602002602001018190525060007f000000000000000000000000000000000000000000000000000000000000000073ffffffffffffffffffffffffffffffffffffffff16633323b467600360009054906101000a900473ffffffffffffffffffffffffffffffffffffffff16858573eeeeeeeeeeeeeeeeeeeeeeeeeeeeeeeeeeeeeeee6040518563ffffffff1660e01b81526004016109f59493929190611b5d565b6020604051808303816000875af1158015610a14573d6000803e3d6000fd5b505050506040513d601f19601f82011682018060405250810190610a389190611bdc565b90506040518060e001604052803373ffffffffffffffffffffffffffffffffffffffff1681526020018a81526020018981526020018873ffffffffffffffffffffffffffffffffffffffff1681526020018773ffffffffffffffffffffffffffffffffffffffff16815260200182815260200160001515815250600080600154815260200190815260200160002060008201518160000160006101000a81548173ffffffffffffffffffffffffffffffffffffffff021916908373ffffffffffffffffffffffffffffffffffffffff160217905550602082015181600101556040820151816002015560608201518160030160006101000a81548173ffffffffffffffffffffffffffffffffffffffff021916908373ffffffffffffffffffffffffffffffffffffffff16021790555060808201518160040160006101000a81548173ffffffffffffffffffffffffffffffffffffffff021916908373ffffffffffffffffffffffffffffffffffffffff16021790555060a0820151816005015560c08201518160060160006101000a81548160ff0219169083151502179055509050508373ffffffffffffffffffffffffffffffffffffffff1663a9059cbb600460009054906101000a900473ffffffffffffffffffffffffffffffffffffffff168a6040518363ffffffff1660e01b8152600401610c39929190611c09565b6020604051808303816000875af1158015610c58573d6000803e3d6000fd5b505050506040513d601f19601f82011682018060405250810190610c7c91906117cc565b50600460009054906101000a900473ffffffffffffffffffffffffffffffffffffffff1673ffffffffffffffffffffffffffffffffffffffff16630efe6a8b888a6001546040518463ffffffff1660e01b8152600401610cde93929190611c32565b600060405180830381600087803b158015610cf857600080fd5b505af1158015610d0c573d6000803e3d6000fd5b5050505060016000815480929190610d2390611c98565b91905055507ff29bb1c73c1b34ece9e10cb136610579d9b7cb3f424e0e58c2d22e958092e615600154604051610d599190611d2c565b60405180910390a1600154945050505050949350505050565b7f000000000000000000000000000000000000000000000000000000000000000073ffffffffffffffffffffffffffffffffffffffff163373ffffffffffffffffffffffffffffffffffffffff1614610e00576040517f08c379a0000000000000000000000000000000000000000000000000000000008152600401610df790611dcc565b60405180910390fd5b7f000000000000000000000000000000000000000000000000000000000000000073ffffffffffffffffffffffffffffffffffffffff16631c20fadd7f000000000000000000000000000000000000000000000000000000000000000083856040518463ffffffff1660e01b8152600401610e7d93929190611dfb565b600060405180830381600087803b158015610e9757600080fd5b505af1158015610eab573d6000803e3d6000fd5b505050505050565b600260009054906101000a900473ffffffffffffffffffffffffffffffffffffffff1673ffffffffffffffffffffffffffffffffffffffff163373ffffffffffffffffffffffffffffffffffffffff1614610f43576040517f08c379a0000000000000000000000000000000000000000000000000000000008152600401610f3a9061171f565b60405180910390fd5b80600360006101000a81548173ffffffffffffffffffffffffffffffffffffffff021916908373ffffffffffffffffffffffffffffffffffffffff16021790555050565b610f8f611190565b6000808381526020019081526020016000206040518060e00160405290816000820160009054906101000a900473ffffffffffffffffffffffffffffffffffffffff1673ffffffffffffffffffffffffffffffffffffffff1673ffffffffffffffffffffffffffffffffffffffff16815260200160018201548152602001600282015481526020016003820160009054906101000a900473ffffffffffffffffffffffffffffffffffffffff1673ffffffffffffffffffffffffffffffffffffffff1673ffffffffffffffffffffffffffffffffffffffff1681526020016004820160009054906101000a900473ffffffffffffffffffffffffffffffffffffffff1673ffffffffffffffffffffffffffffffffffffffff1673ffffffffffffffffffffffffffffffffffffffff168152602001600582015481526020016006820160009054906101000a900460ff1615151515815250509050919050565b7f000000000000000000000000000000000000000000000000000000000000000081565b7f000000000000000000000000000000000000000000000000000000000000000081565b6060828260405160200161114b929190611e32565b604051602081830303815290604052905092915050565b606060405180602001604052806000815250905090565b606060405180602001604052806000815250905090565b6040518060e00160405280600073ffffffffffffffffffffffffffffffffffffffff1681526020016000815260200160008152602001600073ffffffffffffffffffffffffffffffffffffffff168152602001600073ffffffffffffffffffffffffffffffffffffffff168152602001600080191681526020016000151581525090565b600073ffffffffffffffffffffffffffffffffffffffff82169050919050565b600061123f82611214565b9050919050565b61124f81611234565b82525050565b600060208201905061126a6000830184611246565b92915050565b600080fd5b6000819050919050565b61128881611275565b811461129357600080fd5b50565b6000813590506112a58161127f565b92915050565b6000602082840312156112c1576112c0611270565b5b60006112cf84828501611296565b91505092915050565b6112e181611234565b81146112ec57600080fd5b50565b6000813590506112fe816112d8565b92915050565b60006020828403121561131a57611319611270565b5b6000611328848285016112ef565b91505092915050565b6000806000806080858703121561134b5761134a611270565b5b600061135987828801611296565b945050602061136a87828801611296565b935050604061137b878288016112ef565b925050606061138c878288016112ef565b91505092959194509250565b6113a181611275565b82525050565b60006020820190506113bc6000830184611398565b92915050565b600080604083850312156113d9576113d8611270565b5b60006113e785828601611296565b92505060206113f8858286016112ef565b9150509250929050565b600061140d82611214565b9050919050565b600061141f82611402565b9050919050565b61142f81611414565b811461143a57600080fd5b50565b60008135905061144c81611426565b92915050565b60006020828403121561146857611467611270565b5b60006114768482850161143d565b91505092915050565b61148881611234565b82525050565b61149781611275565b82525050565b6000819050919050565b6114b08161149d565b82525050565b60008115159050919050565b6114cb816114b6565b82525050565b60e0820160008201516114e7600085018261147f565b5060208201516114fa602085018261148e565b50604082015161150d604085018261148e565b506060820151611520606085018261147f565b506080820151611533608085018261147f565b5060a082015161154660a08501826114a7565b5060c082015161155960c08501826114c2565b50505050565b600060e08201905061157460008301846114d1565b92915050565b6000819050919050565b600061159f61159a61159584611214565b61157a565b611214565b9050919050565b60006115b182611584565b9050919050565b60006115c3826115a6565b9050919050565b6115d3816115b8565b82525050565b60006020820190506115ee60008301846115ca565b92915050565b60006115ff826115a6565b9050919050565b61160f816115f4565b82525050565b600060208201905061162a6000830184611606565b92915050565b600082825260208201905092915050565b7f4f6e6c7920746865206578656375746f722063616e2073657420746865206f7260008201527f6465722061732065786563757465640000000000000000000000000000000000602082015250565b600061169d602f83611630565b91506116a882611641565b604082019050919050565b600060208201905081810360008301526116cc81611690565b9050919050565b7f4e6f7420616c6c6f77656420616464726573732e000000000000000000000000600082015250565b6000611709601483611630565b9150611714826116d3565b602082019050919050565b60006020820190508181036000830152611738816116fc565b9050919050565b6117488161149d565b82525050565b6000602082019050611763600083018461173f565b92915050565b600060608201905061177e6000830186611246565b61178b6020830185611246565b6117986040830184611398565b949350505050565b6117a9816114b6565b81146117b457600080fd5b50565b6000815190506117c6816117a0565b92915050565b6000602082840312156117e2576117e1611270565b5b60006117f0848285016117b7565b91505092915050565b7f4e487b7100000000000000000000000000000000000000000000000000000000600052604160045260246000fd5b7f4e487b7100000000000000000000000000000000000000000000000000000000600052603260045260246000fd5b7f4e487b7100000000000000000000000000000000000000000000000000000000600052602160045260246000fd5b600081519050919050565b600082825260208201905092915050565b60005b838110156118c05780820151818401526020810190506118a5565b60008484015250505050565b6000601f19601f8301169050919050565b60006118e882611886565b6118f28185611891565b93506119028185602086016118a2565b61190b816118cc565b840191505092915050565b600081519050919050565b600082825260208201905092915050565b6000819050602082019050919050565b6004811061195357611952611857565b5b50565b600081905061196482611942565b919050565b600061197482611956565b9050919050565b61198481611969565b82525050565b6000611996838361197b565b60208301905092915050565b6000602082019050919050565b60006119ba82611916565b6119c48185611921565b93506119cf83611932565b8060005b83811015611a005781516119e7888261198a565b97506119f2836119a2565b9250506001810190506119d3565b5085935050505092915050565b600081519050919050565b600082825260208201905092915050565b6000819050602082019050919050565b600082825260208201905092915050565b6000611a5582611886565b611a5f8185611a39565b9350611a6f8185602086016118a2565b611a78816118cc565b840191505092915050565b6000611a8f8383611a4a565b905092915050565b6000602082019050919050565b6000611aaf82611a0d565b611ab98185611a18565b935083602082028501611acb85611a29565b8060005b85811015611b075784840389528151611ae88582611a83565b9450611af383611a97565b925060208a01995050600181019050611acf565b50829750879550505050505092915050565b60006040830160008301518482036000860152611b3682826119af565b91505060208301518482036020860152611b508282611aa4565b9150508091505092915050565b6000608082019050611b726000830187611246565b8181036020830152611b8481866118dd565b90508181036040830152611b988185611b19565b9050611ba76060830184611246565b95945050505050565b611bb98161149d565b8114611bc457600080fd5b50565b600081519050611bd681611bb0565b92915050565b600060208284031215611bf257611bf1611270565b5b6000611c0084828501611bc7565b91505092915050565b6000604082019050611c1e6000830185611246565b611c2b6020830184611398565b9392505050565b6000606082019050611c476000830186611246565b611c546020830185611398565b611c616040830184611398565b949350505050565b7f4e487b7100000000000000000000000000000000000000000000000000000000600052601160045260246000fd5b6000611ca382611275565b91507fffffffffffffffffffffffffffffffffffffffffffffffffffffffffffffffff8203611cd557611cd4611c69565b5b600182019050919050565b7f6f726465724e6f6e636500000000000000000000000000000000000000000000600082015250565b6000611d16600a83611630565b9150611d2182611ce0565b602082019050919050565b60006040820190508181036000830152611d4581611d09565b9050611d546020830184611398565b92915050565b7f4f6e6c792066756e6473206f776e65722063616e20776974686472617720667560008201527f6e64730000000000000000000000000000000000000000000000000000000000602082015250565b6000611db6602383611630565b9150611dc182611d5a565b604082019050919050565b60006020820190508181036000830152611de581611da9565b9050919050565b611df581611402565b82525050565b6000606082019050611e106000830186611dec565b611e1d6020830185611246565b611e2a6040830184611398565b949350505050565b6000604082019050611e476000830185611246565b8181036020830152611e5981846118dd565b9050939250505056fea264697066735822122012e5813d9b942cfbb800017fbc9ec93330af21d87f9a27213950c3b354874efc64736f6c63430008130033",
  "immutableReferences": {
    "1554": [
      {
        "length": 32,
        "start": 1236
      },
      {
        "length": 32,
        "start": 2402
      },
      {
        "length": 32,
        "start": 4372
      }
    ],
    "1556": [
      {
        "length": 32,
        "start": 573
      }
    ],
    "1678": [
      {
        "length": 32,
        "start": 1056
      },
      {
        "length": 32,
        "start": 3444
      },
      {
        "length": 32,
        "start": 3646
      }
    ],
    "1681": [
      {
        "length": 32,
        "start": 3586
      },
      {
        "length": 32,
        "start": 4336
      }
    ]
  },
  "source": "// SPDX-License-Identifier: UNLICENSED\npragma solidity ^0.8.19;\n\nimport \"./gelato/Types.sol\";\nimport \"./OrderExecutor.sol\";\nimport \"./gelato/OpsTaskCreator.sol\";\nimport './LendingVault.sol';\n\nstruct OrderDatas {\n    address user;\n    uint256 price;\n    uint256 amount;\n    address tokenIn;\n    address tokenOut;\n    bytes32 orderId;\n    bool isExecuted;\n}\n\ncontract OrderBook is OpsTaskCreator {\n    mapping (uint => OrderDatas) private orders; // returns order data\n    uint private orderNonce;\n    address private admin;\n    OrderExecutor private orderExecutor;\n    LendingVault private lendingVault;\n    event orderCreated(string, uint256);\n\n    modifier onlyAdmin {\n        require(msg.sender == admin, \"Not allowed address.\");\n        _; // Continue the execution of the function called\n    }\n\n    constructor(address _opsAddress) OpsTaskCreator(_opsAddress, address(this)) {\n        admin = msg.sender;\n    }\n\n    function setOrderExecutor(OrderExecutor _orderExecutorAddress) public onlyAdmin {\n        orderExecutor = _orderExecutorAddress;\n    }\n\n    function setLendingVault(address _lendingVaultAddress) public onlyAdmin {\n        lendingVault = LendingVault(_lendingVaultAddress);\n    } \n\n    function createOrder(uint price, uint amount, address _tokenIn, address tokenOut) external returns (uint) {\n        IERC20 TokenIn = IERC20(_tokenIn);\n\n        // The user needs to approve this contract for the appropriate amount\n        TokenIn.transferFrom(msg.sender, address(this), amount);\n\n        bytes memory execData = abi.encodeCall(orderExecutor.executeOrder, (orderNonce));\n\n        ModuleData memory moduleData = ModuleData({\n            modules: new Module[](3),\n            args: new bytes[](3)\n        });\n\n        moduleData.modules[0] = Module.RESOLVER;\n        moduleData.modules[1] = Module.PROXY;\n        moduleData.modules[2] = Module.SINGLE_EXEC;\n\n        moduleData.args[0] = _resolverModuleArg(address(orderExecutor), abi.encodeCall(orderExecutor.checker, (orderNonce)));\n        moduleData.args[1] = _proxyModuleArg();\n        moduleData.args[2] = _singleExecModuleArg();\n\n        bytes32 orderId = ops.createTask(\n            address(orderExecutor), // contract to execute\n            execData, // function to execute\n            moduleData,\n            0xEeeeeEeeeEeEeeEeEeEeeEEEeeeeEeeeeeeeEEeE\n        );\n\n        orders[orderNonce] = OrderDatas(msg.sender, price, amount, _tokenIn, tokenOut, orderId, false);\n\n        // Transfer tokens to the vault\n        TokenIn.transfer(address(lendingVault), amount); // approval needed to be able to swap liquidity\n        lendingVault.deposit(_tokenIn, amount, orderNonce); // depositing liquidity into the vault\n\n        orderNonce++;\n\n        emit orderCreated(\"orderNonce\", orderNonce);\n\n        return orderNonce;\n    }\n\n    function cancelOrder(uint _orderNonce) external onlyAdmin {\n        ops.cancelTask(orders[_orderNonce].orderId);\n    }\n    \n    function setExecuted(uint _orderNonce) external {\n        require(msg.sender == address(orderExecutor), \"Only the executor can set the order as executed\");\n        orders[_orderNonce].isExecuted = true;\n    }\n\n    function getOrder(uint _orderNonce) public view returns (OrderDatas memory) {\n        return orders[_orderNonce];\n    }\n\n    function getExecutorAddress() public view returns (address) {\n        return address(orderExecutor);\n    }\n\n}\n\n\n",
  "sourcePath": "/Users/blabla/Documents/gelato_test/contracts/OrderBook.sol",
  "compiler": {
    "name": "solc",
    "version": "0.8.19+commit.7dd6d404.Emscripten.clang"
  },
  "schemaVersion": "3.4.11",
  "updatedAt": "2023-03-05T10:27:23.202Z",
  "networkType": "ethereum",
  "devdoc": {
    "kind": "dev",
    "methods": {
      "withdrawFunds(uint256,address)": {
        "details": "Withdraw funds from this contract's Gelato balance to fundsOwner."
      }
    },
    "version": 1
  },
  "userdoc": {
    "kind": "user",
    "methods": {},
    "version": 1
  }
}