{
  "contractName": "OrderBook",
  "abi": [
    {
      "inputs": [],
      "stateMutability": "nonpayable",
      "type": "constructor"
    },
    {
      "anonymous": false,
      "inputs": [
        {
          "indexed": false,
          "internalType": "string",
          "name": "",
          "type": "string"
        },
        {
          "indexed": false,
          "internalType": "address",
          "name": "",
          "type": "address"
        }
      ],
      "name": "construct",
      "type": "event"
    },
    {
      "inputs": [],
      "name": "admin",
      "outputs": [
        {
          "internalType": "address",
          "name": "",
          "type": "address"
        }
      ],
      "stateMutability": "view",
      "type": "function"
    },
    {
      "inputs": [],
      "name": "dedicatedMsgSender",
      "outputs": [
        {
          "internalType": "address",
          "name": "",
          "type": "address"
        }
      ],
      "stateMutability": "view",
      "type": "function"
    },
    {
      "inputs": [],
      "name": "fundsOwner",
      "outputs": [
        {
          "internalType": "address",
          "name": "",
          "type": "address"
        }
      ],
      "stateMutability": "view",
      "type": "function"
    },
    {
      "inputs": [],
      "name": "lendingVault",
      "outputs": [
        {
          "internalType": "contract LendingVault",
          "name": "",
          "type": "address"
        }
      ],
      "stateMutability": "view",
      "type": "function"
    },
    {
      "inputs": [],
      "name": "ops",
      "outputs": [
        {
          "internalType": "contract IOps",
          "name": "",
          "type": "address"
        }
      ],
      "stateMutability": "view",
      "type": "function"
    },
    {
      "inputs": [],
      "name": "orderExecutor",
      "outputs": [
        {
          "internalType": "contract OrderExecutor",
          "name": "",
          "type": "address"
        }
      ],
      "stateMutability": "view",
      "type": "function"
    },
    {
      "inputs": [
        {
          "internalType": "uint256",
          "name": "",
          "type": "uint256"
        }
      ],
      "name": "orders",
      "outputs": [
        {
          "internalType": "address",
          "name": "user",
          "type": "address"
        },
        {
          "internalType": "uint256",
          "name": "price",
          "type": "uint256"
        },
        {
          "internalType": "uint256",
          "name": "amount",
          "type": "uint256"
        },
        {
          "internalType": "address",
          "name": "fromToken",
          "type": "address"
        },
        {
          "internalType": "address",
          "name": "toToken",
          "type": "address"
        },
        {
          "internalType": "bytes32",
          "name": "orderId",
          "type": "bytes32"
        },
        {
          "internalType": "bool",
          "name": "isExecuted",
          "type": "bool"
        }
      ],
      "stateMutability": "view",
      "type": "function"
    },
    {
      "inputs": [],
      "name": "taskTreasury",
      "outputs": [
        {
          "internalType": "contract ITaskTreasuryUpgradable",
          "name": "",
          "type": "address"
        }
      ],
      "stateMutability": "view",
      "type": "function"
    },
    {
      "inputs": [
        {
          "internalType": "uint256",
          "name": "_amount",
          "type": "uint256"
        },
        {
          "internalType": "address",
          "name": "_token",
          "type": "address"
        }
      ],
      "name": "withdrawFunds",
      "outputs": [],
      "stateMutability": "nonpayable",
      "type": "function"
    },
    {
      "inputs": [
        {
          "internalType": "uint256",
          "name": "price",
          "type": "uint256"
        },
        {
          "internalType": "uint256",
          "name": "amount",
          "type": "uint256"
        },
        {
          "internalType": "address",
          "name": "fromToken",
          "type": "address"
        },
        {
          "internalType": "address",
          "name": "toToken",
          "type": "address"
        }
      ],
      "name": "createOrder",
      "outputs": [
        {
          "internalType": "uint256",
          "name": "",
          "type": "uint256"
        }
      ],
      "stateMutability": "nonpayable",
      "type": "function"
    },
    {
      "inputs": [
        {
          "internalType": "uint256",
          "name": "_orderNonce",
          "type": "uint256"
        }
      ],
      "name": "cancelOrder",
      "outputs": [],
      "stateMutability": "nonpayable",
      "type": "function"
    },
    {
      "inputs": [],
      "name": "getExecutorAddress",
      "outputs": [
        {
          "internalType": "address",
          "name": "",
          "type": "address"
        }
      ],
      "stateMutability": "view",
      "type": "function"
    },
    {
      "inputs": [
        {
          "internalType": "uint256",
          "name": "price",
          "type": "uint256"
        }
      ],
      "name": "setPrice",
      "outputs": [],
      "stateMutability": "nonpayable",
      "type": "function"
    },
    {
      "inputs": [
        {
          "internalType": "uint256",
          "name": "orderNonce",
          "type": "uint256"
        }
      ],
      "name": "setExecuted",
      "outputs": [],
      "stateMutability": "nonpayable",
      "type": "function"
    },
    {
      "inputs": [
        {
          "internalType": "uint256",
          "name": "orderNonce",
          "type": "uint256"
        }
      ],
      "name": "getOrder",
      "outputs": [
        {
          "components": [
            {
              "internalType": "address",
              "name": "user",
              "type": "address"
            },
            {
              "internalType": "uint256",
              "name": "price",
              "type": "uint256"
            },
            {
              "internalType": "uint256",
              "name": "amount",
              "type": "uint256"
            },
            {
              "internalType": "address",
              "name": "fromToken",
              "type": "address"
            },
            {
              "internalType": "address",
              "name": "toToken",
              "type": "address"
            },
            {
              "internalType": "bytes32",
              "name": "orderId",
              "type": "bytes32"
            },
            {
              "internalType": "bool",
              "name": "isExecuted",
              "type": "bool"
            }
          ],
          "internalType": "struct OrderDatas",
          "name": "",
          "type": "tuple"
        }
      ],
      "stateMutability": "view",
      "type": "function"
    }
  ],
  "bytecode": "0x6101206040523480156200001257600080fd5b5073c1c6805b857bef1f412519c4a842522431afed393081308173ffffffffffffffffffffffffffffffffffffffff1660808173ffffffffffffffffffffffffffffffffffffffff16815250508173ffffffffffffffffffffffffffffffffffffffff1663573ea5756040518163ffffffff1660e01b8152600401602060405180830381865afa158015620000ab573d6000803e3d6000fd5b505050506040513d601f19601f82011682018060405250810190620000d19190620004b0565b73ffffffffffffffffffffffffffffffffffffffff1660c08173ffffffffffffffffffffffffffffffffffffffff168152505073c815db16d4be6ddf2685c201937905abf338f5d773ffffffffffffffffffffffffffffffffffffffff1663ded89a7c826040518263ffffffff1660e01b815260040162000153919062000507565b6040805180830381865afa15801562000170573d6000803e3d6000fd5b505050506040513d601f19601f8201168201806040525081019062000196919062000592565b508073ffffffffffffffffffffffffffffffffffffffff1660a09073ffffffffffffffffffffffffffffffffffffffff168152505050508073ffffffffffffffffffffffffffffffffffffffff1660e08173ffffffffffffffffffffffffffffffffffffffff168152505060805173ffffffffffffffffffffffffffffffffffffffff1663e60a32136040518163ffffffff1660e01b8152600401602060405180830381865afa1580156200024f573d6000803e3d6000fd5b505050506040513d601f19601f820116820180604052508101906200027591906200061e565b73ffffffffffffffffffffffffffffffffffffffff166101008173ffffffffffffffffffffffffffffffffffffffff168152505050507fa55e372fa26b20bbe8d4e783b3a8b5cdccb78af8e27dac035fdb2b1b9ba0ead6608051604051620002de9190620006b1565b60405180910390a16080517308f6dde16166f06e1d486749452dc3a44f1754566040516200030c906200042a565b62000319929190620006e3565b604051809103906000f08015801562000336573d6000803e3d6000fd5b50600360006101000a81548173ffffffffffffffffffffffffffffffffffffffff021916908373ffffffffffffffffffffffffffffffffffffffff160217905550604051620003859062000438565b604051809103906000f080158015620003a2573d6000803e3d6000fd5b50600460006101000a81548173ffffffffffffffffffffffffffffffffffffffff021916908373ffffffffffffffffffffffffffffffffffffffff16021790555033600260006101000a81548173ffffffffffffffffffffffffffffffffffffffff021916908373ffffffffffffffffffffffffffffffffffffffff16021790555062000710565b6115df806200259b83390190565b6104128062003b7a83390190565b600080fd5b600073ffffffffffffffffffffffffffffffffffffffff82169050919050565b600062000478826200044b565b9050919050565b6200048a816200046b565b81146200049657600080fd5b50565b600081519050620004aa816200047f565b92915050565b600060208284031215620004c957620004c862000446565b5b6000620004d98482850162000499565b91505092915050565b6000620004ef826200044b565b9050919050565b6200050181620004e2565b82525050565b60006020820190506200051e6000830184620004f6565b92915050565b6200052f81620004e2565b81146200053b57600080fd5b50565b6000815190506200054f8162000524565b92915050565b60008115159050919050565b6200056c8162000555565b81146200057857600080fd5b50565b6000815190506200058c8162000561565b92915050565b60008060408385031215620005ac57620005ab62000446565b5b6000620005bc858286016200053e565b9250506020620005cf858286016200057b565b9150509250929050565b6000620005e682620004e2565b9050919050565b620005f881620005d9565b81146200060457600080fd5b50565b6000815190506200061881620005ed565b92915050565b60006020828403121562000637576200063662000446565b5b6000620006478482850162000607565b91505092915050565b600082825260208201905092915050565b7f61646472657373286f7073290000000000000000000000000000000000000000600082015250565b600062000699600c8362000650565b9150620006a68262000661565b602082019050919050565b60006040820190508181036000830152620006cc816200068a565b9050620006dd6020830184620004f6565b92915050565b6000604082019050620006fa6000830185620004f6565b620007096020830184620004f6565b9392505050565b60805160a05160c05160e05161010051611e266200077560003960008181610d0b01526110b001526000818161040101528181610c7d0152610d4701526000505060006102f20152600081816105200152818161093701526110d40152611e266000f3fe608060405234801561001057600080fd5b50600436106100f55760003560e01c806391b7f5ed11610097578063d09ef24111610066578063d09ef24114610266578063e60a321314610296578063e70abe92146102b4578063f851a440146102d2576100f5565b806391b7f5ed146101d8578063a849d644146101f4578063a85c38ef14610212578063cb8c5a3a14610248576100f5565b806346ee3c59116100d357806346ee3c5914610152578063514fcac71461017057806358b91f0d1461018c578063744bfe61146101bc576100f5565b806328f150eb146100fa5780632993c69014610118578063350157a814610134575b600080fd5b6101026102f0565b60405161010f9190611224565b60405180910390f35b610132600480360381019061012d919061127a565b610314565b005b61013c6103d5565b6040516101499190611224565b60405180910390f35b61015a6103ff565b6040516101679190611224565b60405180910390f35b61018a6004803603810190610185919061127a565b610423565b005b6101a660048036038101906101a191906112d3565b6105c1565b6040516101b39190611349565b60405180910390f35b6101d660048036038101906101d19190611364565b610c7b565b005b6101f260048036038101906101ed919061127a565b610dbc565b005b6101fc610e4c565b6040516102099190611403565b60405180910390f35b61022c6004803603810190610227919061127a565b610e72565b60405161023f9796959493929190611452565b60405180910390f35b610250610f21565b60405161025d91906114f4565b60405180910390f35b610280600480360381019061027b919061127a565b610f47565b60405161028d91906115d9565b60405180910390f35b61029e6110ae565b6040516102ab9190611615565b60405180910390f35b6102bc6110d2565b6040516102c99190611651565b60405180910390f35b6102da6110f6565b6040516102e79190611224565b60405180910390f35b7f000000000000000000000000000000000000000000000000000000000000000081565b600360009054906101000a900473ffffffffffffffffffffffffffffffffffffffff1673ffffffffffffffffffffffffffffffffffffffff163373ffffffffffffffffffffffffffffffffffffffff16146103a4576040517f08c379a000000000000000000000000000000000000000000000000000000000815260040161039b906116ef565b60405180910390fd5b600160008083815260200190815260200160002060060160006101000a81548160ff02191690831515021790555050565b6000600360009054906101000a900473ffffffffffffffffffffffffffffffffffffffff16905090565b7f000000000000000000000000000000000000000000000000000000000000000081565b600260009054906101000a900473ffffffffffffffffffffffffffffffffffffffff1673ffffffffffffffffffffffffffffffffffffffff163373ffffffffffffffffffffffffffffffffffffffff1614806104df57503373ffffffffffffffffffffffffffffffffffffffff1660008083815260200190815260200160002060000160009054906101000a900473ffffffffffffffffffffffffffffffffffffffff1673ffffffffffffffffffffffffffffffffffffffff16145b61051e576040517f08c379a00000000000000000000000000000000000000000000000000000000081526004016105159061175b565b60405180910390fd5b7f000000000000000000000000000000000000000000000000000000000000000073ffffffffffffffffffffffffffffffffffffffff1663ee8ca3b5600080848152602001908152602001600020600501546040518263ffffffff1660e01b815260040161058c919061177b565b600060405180830381600087803b1580156105a657600080fd5b505af11580156105ba573d6000803e3d6000fd5b5050505050565b6000808390508073ffffffffffffffffffffffffffffffffffffffff166323b872dd3330886040518463ffffffff1660e01b815260040161060493929190611796565b6020604051808303816000875af1158015610623573d6000803e3d6000fd5b505050506040513d601f19601f8201168201806040525081019061064791906117f9565b506000600360009054906101000a900473ffffffffffffffffffffffffffffffffffffffff1673ffffffffffffffffffffffffffffffffffffffff166394f6113460015460405160240161069b9190611349565b604051602081830303815290604052915060e01b6020820180517bffffffffffffffffffffffffffffffffffffffffffffffffffffffff8381831617835250505050905060006040518060400160405280600267ffffffffffffffff81111561070757610706611826565b5b6040519080825280602002602001820160405280156107355781602001602082028036833780820191505090505b508152602001600267ffffffffffffffff81111561075657610755611826565b5b60405190808252806020026020018201604052801561078957816020015b60608152602001906001900390816107745790505b508152509050600081600001516000815181106107a9576107a8611855565b5b602002602001019060038111156107c3576107c2611884565b5b908160038111156107d7576107d6611884565b5b81525050600381600001516001815181106107f5576107f4611855565b5b6020026020010190600381111561080f5761080e611884565b5b9081600381111561082357610822611884565b5b815250506108e5600360009054906101000a900473ffffffffffffffffffffffffffffffffffffffff16600360009054906101000a900473ffffffffffffffffffffffffffffffffffffffff1673ffffffffffffffffffffffffffffffffffffffff166394e05b2c60015460405160240161089e9190611349565b604051602081830303815290604052915060e01b6020820180517bffffffffffffffffffffffffffffffffffffffffffffffffffffffff838183161783525050505061111c565b81602001516000815181106108fd576108fc611855565b5b6020026020010181905250610910611148565b816020015160018151811061092857610927611855565b5b602002602001018190525060007f000000000000000000000000000000000000000000000000000000000000000073ffffffffffffffffffffffffffffffffffffffff16633323b467600360009054906101000a900473ffffffffffffffffffffffffffffffffffffffff16858573eeeeeeeeeeeeeeeeeeeeeeeeeeeeeeeeeeeeeeee6040518563ffffffff1660e01b81526004016109ca9493929190611b8a565b6020604051808303816000875af11580156109e9573d6000803e3d6000fd5b505050506040513d601f19601f82011682018060405250810190610a0d9190611c09565b90506040518060e001604052803373ffffffffffffffffffffffffffffffffffffffff1681526020018a81526020018981526020018873ffffffffffffffffffffffffffffffffffffffff1681526020018773ffffffffffffffffffffffffffffffffffffffff16815260200182815260200160001515815250600080600154815260200190815260200160002060008201518160000160006101000a81548173ffffffffffffffffffffffffffffffffffffffff021916908373ffffffffffffffffffffffffffffffffffffffff160217905550602082015181600101556040820151816002015560608201518160030160006101000a81548173ffffffffffffffffffffffffffffffffffffffff021916908373ffffffffffffffffffffffffffffffffffffffff16021790555060808201518160040160006101000a81548173ffffffffffffffffffffffffffffffffffffffff021916908373ffffffffffffffffffffffffffffffffffffffff16021790555060a0820151816005015560c08201518160060160006101000a81548160ff0219169083151502179055509050508373ffffffffffffffffffffffffffffffffffffffff1663095ea7b3600460009054906101000a900473ffffffffffffffffffffffffffffffffffffffff168a6040518363ffffffff1660e01b8152600401610c0e929190611c36565b6020604051808303816000875af1158015610c2d573d6000803e3d6000fd5b505050506040513d601f19601f82011682018060405250810190610c5191906117f9565b5060016000815480929190610c6590611c8e565b9190505550600154945050505050949350505050565b7f000000000000000000000000000000000000000000000000000000000000000073ffffffffffffffffffffffffffffffffffffffff163373ffffffffffffffffffffffffffffffffffffffff1614610d09576040517f08c379a0000000000000000000000000000000000000000000000000000000008152600401610d0090611d48565b60405180910390fd5b7f000000000000000000000000000000000000000000000000000000000000000073ffffffffffffffffffffffffffffffffffffffff16631c20fadd7f000000000000000000000000000000000000000000000000000000000000000083856040518463ffffffff1660e01b8152600401610d8693929190611d89565b600060405180830381600087803b158015610da057600080fd5b505af1158015610db4573d6000803e3d6000fd5b505050505050565b600360009054906101000a900473ffffffffffffffffffffffffffffffffffffffff1673ffffffffffffffffffffffffffffffffffffffff166391b7f5ed826040518263ffffffff1660e01b8152600401610e179190611349565b600060405180830381600087803b158015610e3157600080fd5b505af1158015610e45573d6000803e3d6000fd5b5050505050565b600360009054906101000a900473ffffffffffffffffffffffffffffffffffffffff1681565b60006020528060005260406000206000915090508060000160009054906101000a900473ffffffffffffffffffffffffffffffffffffffff16908060010154908060020154908060030160009054906101000a900473ffffffffffffffffffffffffffffffffffffffff16908060040160009054906101000a900473ffffffffffffffffffffffffffffffffffffffff16908060050154908060060160009054906101000a900460ff16905087565b600460009054906101000a900473ffffffffffffffffffffffffffffffffffffffff1681565b610f4f61115f565b6000808381526020019081526020016000206040518060e00160405290816000820160009054906101000a900473ffffffffffffffffffffffffffffffffffffffff1673ffffffffffffffffffffffffffffffffffffffff1673ffffffffffffffffffffffffffffffffffffffff16815260200160018201548152602001600282015481526020016003820160009054906101000a900473ffffffffffffffffffffffffffffffffffffffff1673ffffffffffffffffffffffffffffffffffffffff1673ffffffffffffffffffffffffffffffffffffffff1681526020016004820160009054906101000a900473ffffffffffffffffffffffffffffffffffffffff1673ffffffffffffffffffffffffffffffffffffffff1673ffffffffffffffffffffffffffffffffffffffff168152602001600582015481526020016006820160009054906101000a900460ff1615151515815250509050919050565b7f000000000000000000000000000000000000000000000000000000000000000081565b7f000000000000000000000000000000000000000000000000000000000000000081565b600260009054906101000a900473ffffffffffffffffffffffffffffffffffffffff1681565b60608282604051602001611131929190611dc0565b604051602081830303815290604052905092915050565b606060405180602001604052806000815250905090565b6040518060e00160405280600073ffffffffffffffffffffffffffffffffffffffff1681526020016000815260200160008152602001600073ffffffffffffffffffffffffffffffffffffffff168152602001600073ffffffffffffffffffffffffffffffffffffffff168152602001600080191681526020016000151581525090565b600073ffffffffffffffffffffffffffffffffffffffff82169050919050565b600061120e826111e3565b9050919050565b61121e81611203565b82525050565b60006020820190506112396000830184611215565b92915050565b600080fd5b6000819050919050565b61125781611244565b811461126257600080fd5b50565b6000813590506112748161124e565b92915050565b6000602082840312156112905761128f61123f565b5b600061129e84828501611265565b91505092915050565b6112b081611203565b81146112bb57600080fd5b50565b6000813590506112cd816112a7565b92915050565b600080600080608085870312156112ed576112ec61123f565b5b60006112fb87828801611265565b945050602061130c87828801611265565b935050604061131d878288016112be565b925050606061132e878288016112be565b91505092959194509250565b61134381611244565b82525050565b600060208201905061135e600083018461133a565b92915050565b6000806040838503121561137b5761137a61123f565b5b600061138985828601611265565b925050602061139a858286016112be565b9150509250929050565b6000819050919050565b60006113c96113c46113bf846111e3565b6113a4565b6111e3565b9050919050565b60006113db826113ae565b9050919050565b60006113ed826113d0565b9050919050565b6113fd816113e2565b82525050565b600060208201905061141860008301846113f4565b92915050565b6000819050919050565b6114318161141e565b82525050565b60008115159050919050565b61144c81611437565b82525050565b600060e082019050611467600083018a611215565b611474602083018961133a565b611481604083018861133a565b61148e6060830187611215565b61149b6080830186611215565b6114a860a0830185611428565b6114b560c0830184611443565b98975050505050505050565b60006114cc826113ae565b9050919050565b60006114de826114c1565b9050919050565b6114ee816114d3565b82525050565b600060208201905061150960008301846114e5565b92915050565b61151881611203565b82525050565b61152781611244565b82525050565b6115368161141e565b82525050565b61154581611437565b82525050565b60e082016000820151611561600085018261150f565b506020820151611574602085018261151e565b506040820151611587604085018261151e565b50606082015161159a606085018261150f565b5060808201516115ad608085018261150f565b5060a08201516115c060a085018261152d565b5060c08201516115d360c085018261153c565b50505050565b600060e0820190506115ee600083018461154b565b92915050565b60006115ff826114c1565b9050919050565b61160f816115f4565b82525050565b600060208201905061162a6000830184611606565b92915050565b600061163b826114c1565b9050919050565b61164b81611630565b82525050565b60006020820190506116666000830184611642565b92915050565b600082825260208201905092915050565b7f4f6e6c7920746865206578656375746f722063616e2073657420746865206f7260008201527f6465722061732065786563757465640000000000000000000000000000000000602082015250565b60006116d9602f8361166c565b91506116e48261167d565b604082019050919050565b60006020820190508181036000830152611708816116cc565b9050919050565b7f4e6f7420616c6c6f77656420746f2063616e63656c2074686973206f72646572600082015250565b600061174560208361166c565b91506117508261170f565b602082019050919050565b6000602082019050818103600083015261177481611738565b9050919050565b60006020820190506117906000830184611428565b92915050565b60006060820190506117ab6000830186611215565b6117b86020830185611215565b6117c5604083018461133a565b949350505050565b6117d681611437565b81146117e157600080fd5b50565b6000815190506117f3816117cd565b92915050565b60006020828403121561180f5761180e61123f565b5b600061181d848285016117e4565b91505092915050565b7f4e487b7100000000000000000000000000000000000000000000000000000000600052604160045260246000fd5b7f4e487b7100000000000000000000000000000000000000000000000000000000600052603260045260246000fd5b7f4e487b7100000000000000000000000000000000000000000000000000000000600052602160045260246000fd5b600081519050919050565b600082825260208201905092915050565b60005b838110156118ed5780820151818401526020810190506118d2565b60008484015250505050565b6000601f19601f8301169050919050565b6000611915826118b3565b61191f81856118be565b935061192f8185602086016118cf565b611938816118f9565b840191505092915050565b600081519050919050565b600082825260208201905092915050565b6000819050602082019050919050565b600481106119805761197f611884565b5b50565b60008190506119918261196f565b919050565b60006119a182611983565b9050919050565b6119b181611996565b82525050565b60006119c383836119a8565b60208301905092915050565b6000602082019050919050565b60006119e782611943565b6119f1818561194e565b93506119fc8361195f565b8060005b83811015611a2d578151611a1488826119b7565b9750611a1f836119cf565b925050600181019050611a00565b5085935050505092915050565b600081519050919050565b600082825260208201905092915050565b6000819050602082019050919050565b600082825260208201905092915050565b6000611a82826118b3565b611a8c8185611a66565b9350611a9c8185602086016118cf565b611aa5816118f9565b840191505092915050565b6000611abc8383611a77565b905092915050565b6000602082019050919050565b6000611adc82611a3a565b611ae68185611a45565b935083602082028501611af885611a56565b8060005b85811015611b345784840389528151611b158582611ab0565b9450611b2083611ac4565b925060208a01995050600181019050611afc565b50829750879550505050505092915050565b60006040830160008301518482036000860152611b6382826119dc565b91505060208301518482036020860152611b7d8282611ad1565b9150508091505092915050565b6000608082019050611b9f6000830187611215565b8181036020830152611bb1818661190a565b90508181036040830152611bc58185611b46565b9050611bd46060830184611215565b95945050505050565b611be68161141e565b8114611bf157600080fd5b50565b600081519050611c0381611bdd565b92915050565b600060208284031215611c1f57611c1e61123f565b5b6000611c2d84828501611bf4565b91505092915050565b6000604082019050611c4b6000830185611215565b611c58602083018461133a565b9392505050565b7f4e487b7100000000000000000000000000000000000000000000000000000000600052601160045260246000fd5b6000611c9982611244565b91507fffffffffffffffffffffffffffffffffffffffffffffffffffffffffffffffff8203611ccb57611cca611c5f565b5b600182019050919050565b7f4f6e6c792066756e6473206f776e65722063616e20776974686472617720667560008201527f6e64730000000000000000000000000000000000000000000000000000000000602082015250565b6000611d3260238361166c565b9150611d3d82611cd6565b604082019050919050565b60006020820190508181036000830152611d6181611d25565b9050919050565b6000611d73826111e3565b9050919050565b611d8381611d68565b82525050565b6000606082019050611d9e6000830186611d7a565b611dab6020830185611215565b611db8604083018461133a565b949350505050565b6000604082019050611dd56000830185611215565b8181036020830152611de7818461190a565b9050939250505056fea2646970667358221220f7b1781ad75a3250275c22ce8ab45ae434c97e40b9d49af4e7ff9c044c67ac4264736f6c6343000813003360e06040523480156200001157600080fd5b50604051620015df380380620015df833981810160405281019062000037919062000296565b81818173ffffffffffffffffffffffffffffffffffffffff1660808173ffffffffffffffffffffffffffffffffffffffff16815250508173ffffffffffffffffffffffffffffffffffffffff1663573ea5756040518163ffffffff1660e01b8152600401602060405180830381865afa158015620000b9573d6000803e3d6000fd5b505050506040513d601f19601f82011682018060405250810190620000df919062000322565b73ffffffffffffffffffffffffffffffffffffffff1660c08173ffffffffffffffffffffffffffffffffffffffff168152505073c815db16d4be6ddf2685c201937905abf338f5d773ffffffffffffffffffffffffffffffffffffffff1663ded89a7c826040518263ffffffff1660e01b815260040162000161919062000365565b6040805180830381865afa1580156200017e573d6000803e3d6000fd5b505050506040513d601f19601f82011682018060405250810190620001a49190620003bf565b508073ffffffffffffffffffffffffffffffffffffffff1660a09073ffffffffffffffffffffffffffffffffffffffff16815250505050606460008190555033600160006101000a81548173ffffffffffffffffffffffffffffffffffffffff021916908373ffffffffffffffffffffffffffffffffffffffff160217905550505062000406565b600080fd5b600073ffffffffffffffffffffffffffffffffffffffff82169050919050565b60006200025e8262000231565b9050919050565b620002708162000251565b81146200027c57600080fd5b50565b600081519050620002908162000265565b92915050565b60008060408385031215620002b057620002af6200022c565b5b6000620002c0858286016200027f565b9250506020620002d3858286016200027f565b9150509250929050565b6000620002ea8262000231565b9050919050565b620002fc81620002dd565b81146200030857600080fd5b50565b6000815190506200031c81620002f1565b92915050565b6000602082840312156200033b576200033a6200022c565b5b60006200034b848285016200030b565b91505092915050565b6200035f8162000251565b82525050565b60006020820190506200037c600083018462000354565b92915050565b60008115159050919050565b620003998162000382565b8114620003a557600080fd5b50565b600081519050620003b9816200038e565b92915050565b60008060408385031215620003d957620003d86200022c565b5b6000620003e9858286016200027f565b9250506020620003fc85828601620003a8565b9150509250929050565b60805160a05160c05161119b62000444600039600081816104bd0152610591015260006101780152600081816103b301526103da015261119b6000f3fe6080604052600436106100595760003560e01c806328f150eb14610065578063776af5ba1461009057806391b7f5ed146100bb57806394e05b2c146100e457806394f6113414610122578063e70abe921461014b57610060565b3661006057005b600080fd5b34801561007157600080fd5b5061007a610176565b6040516100879190610916565b60405180910390f35b34801561009c57600080fd5b506100a561019a565b6040516100b29190610990565b60405180910390f35b3480156100c757600080fd5b506100e260048036038101906100dd91906109f0565b6101c0565b005b3480156100f057600080fd5b5061010b600480360381019061010691906109f0565b6101ca565b604051610119929190610ac8565b60405180910390f35b34801561012e57600080fd5b50610149600480360381019061014491906109f0565b6102d1565b005b34801561015757600080fd5b506101606103b1565b60405161016d9190610b19565b60405180910390f35b7f000000000000000000000000000000000000000000000000000000000000000081565b600160009054906101000a900473ffffffffffffffffffffffffffffffffffffffff1681565b8060008190555050565b60006060600054600160009054906101000a900473ffffffffffffffffffffffffffffffffffffffff1673ffffffffffffffffffffffffffffffffffffffff1663d09ef241856040518263ffffffff1660e01b815260040161022c9190610b43565b60e060405180830381865afa158015610249573d6000803e3d6000fd5b505050506040513d601f19601f8201168201806040525081019061026d9190610d35565b60200151149150826040516024016102859190610b43565b6040516020818303038152906040526394f6113460e01b6020820180517bffffffffffffffffffffffffffffffffffffffffffffffffffffffff83818316178352505050509050915091565b600160009054906101000a900473ffffffffffffffffffffffffffffffffffffffff1673ffffffffffffffffffffffffffffffffffffffff16632993c690826040518263ffffffff1660e01b815260040161032c9190610b43565b600060405180830381600087803b15801561034657600080fd5b505af115801561035a573d6000803e3d6000fd5b505050507fee02c8198e15339d816eee1c984a22b43d97a3fd967befcfdb05b9b1c98eda3f60405161038b90610dbf565b60405180910390a160008061039e6103d5565b915091506103ac8282610472565b505050565b7f000000000000000000000000000000000000000000000000000000000000000081565b6000807f000000000000000000000000000000000000000000000000000000000000000073ffffffffffffffffffffffffffffffffffffffff1663b810c6366040518163ffffffff1660e01b81526004016040805180830381865afa158015610442573d6000803e3d6000fd5b505050506040513d601f19601f820116820180604052508101906104669190610ddf565b80925081935050509091565b73eeeeeeeeeeeeeeeeeeeeeeeeeeeeeeeeeeeeeeee73ffffffffffffffffffffffffffffffffffffffff168173ffffffffffffffffffffffffffffffffffffffff160361058b5760007f000000000000000000000000000000000000000000000000000000000000000073ffffffffffffffffffffffffffffffffffffffff16836040516104ff90610e50565b60006040518083038185875af1925050503d806000811461053c576040519150601f19603f3d011682016040523d82523d6000602084013e610541565b606091505b5050905080610585576040517f08c379a000000000000000000000000000000000000000000000000000000000815260040161057c90610eb1565b60405180910390fd5b506105b7565b6105b6817f0000000000000000000000000000000000000000000000000000000000000000846105bb565b5b5050565b61063c8363a9059cbb60e01b84846040516024016105da929190610ed1565b604051602081830303815290604052907bffffffffffffffffffffffffffffffffffffffffffffffffffffffff19166020820180517bffffffffffffffffffffffffffffffffffffffffffffffffffffffff8381831617835250505050610641565b505050565b60006106a3826040518060400160405280602081526020017f5361666545524332303a206c6f772d6c6576656c2063616c6c206661696c65648152508573ffffffffffffffffffffffffffffffffffffffff166107089092919063ffffffff16565b905060008151111561070357808060200190518101906106c39190610efa565b610702576040517f08c379a00000000000000000000000000000000000000000000000000000000081526004016106f990610f99565b60405180910390fd5b5b505050565b60606107178484600085610720565b90509392505050565b606082471015610765576040517f08c379a000000000000000000000000000000000000000000000000000000000815260040161075c9061102b565b60405180910390fd5b6000808673ffffffffffffffffffffffffffffffffffffffff16858760405161078e919061107c565b60006040518083038185875af1925050503d80600081146107cb576040519150601f19603f3d011682016040523d82523d6000602084013e6107d0565b606091505b50915091506107e1878383876107ed565b92505050949350505050565b6060831561084f5760008351036108475761080785610862565b610846576040517f08c379a000000000000000000000000000000000000000000000000000000000815260040161083d906110df565b60405180910390fd5b5b82905061085a565b6108598383610885565b5b949350505050565b6000808273ffffffffffffffffffffffffffffffffffffffff163b119050919050565b6000825111156108985781518083602001fd5b806040517f08c379a00000000000000000000000000000000000000000000000000000000081526004016108cc9190611143565b60405180910390fd5b600073ffffffffffffffffffffffffffffffffffffffff82169050919050565b6000610900826108d5565b9050919050565b610910816108f5565b82525050565b600060208201905061092b6000830184610907565b92915050565b6000819050919050565b600061095661095161094c846108d5565b610931565b6108d5565b9050919050565b60006109688261093b565b9050919050565b600061097a8261095d565b9050919050565b61098a8161096f565b82525050565b60006020820190506109a56000830184610981565b92915050565b6000604051905090565b600080fd5b6000819050919050565b6109cd816109ba565b81146109d857600080fd5b50565b6000813590506109ea816109c4565b92915050565b600060208284031215610a0657610a056109b5565b5b6000610a14848285016109db565b91505092915050565b60008115159050919050565b610a3281610a1d565b82525050565b600081519050919050565b600082825260208201905092915050565b60005b83811015610a72578082015181840152602081019050610a57565b60008484015250505050565b6000601f19601f8301169050919050565b6000610a9a82610a38565b610aa48185610a43565b9350610ab4818560208601610a54565b610abd81610a7e565b840191505092915050565b6000604082019050610add6000830185610a29565b8181036020830152610aef8184610a8f565b90509392505050565b6000610b038261095d565b9050919050565b610b1381610af8565b82525050565b6000602082019050610b2e6000830184610b0a565b92915050565b610b3d816109ba565b82525050565b6000602082019050610b586000830184610b34565b92915050565b600080fd5b7f4e487b7100000000000000000000000000000000000000000000000000000000600052604160045260246000fd5b610b9b82610a7e565b810181811067ffffffffffffffff82111715610bba57610bb9610b63565b5b80604052505050565b6000610bcd6109ab565b9050610bd98282610b92565b919050565b610be7816108f5565b8114610bf257600080fd5b50565b600081519050610c0481610bde565b92915050565b600081519050610c19816109c4565b92915050565b6000819050919050565b610c3281610c1f565b8114610c3d57600080fd5b50565b600081519050610c4f81610c29565b92915050565b610c5e81610a1d565b8114610c6957600080fd5b50565b600081519050610c7b81610c55565b92915050565b600060e08284031215610c9757610c96610b5e565b5b610ca160e0610bc3565b90506000610cb184828501610bf5565b6000830152506020610cc584828501610c0a565b6020830152506040610cd984828501610c0a565b6040830152506060610ced84828501610bf5565b6060830152506080610d0184828501610bf5565b60808301525060a0610d1584828501610c40565b60a08301525060c0610d2984828501610c6c565b60c08301525092915050565b600060e08284031215610d4b57610d4a6109b5565b5b6000610d5984828501610c81565b91505092915050565b600082825260208201905092915050565b7f6f72646572206578656375746564000000000000000000000000000000000000600082015250565b6000610da9600e83610d62565b9150610db482610d73565b602082019050919050565b60006020820190508181036000830152610dd881610d9c565b9050919050565b60008060408385031215610df657610df56109b5565b5b6000610e0485828601610c0a565b9250506020610e1585828601610bf5565b9150509250929050565b600081905092915050565b50565b6000610e3a600083610e1f565b9150610e4582610e2a565b600082019050919050565b6000610e5b82610e2d565b9150819050919050565b7f5f7472616e736665723a20455448207472616e73666572206661696c65640000600082015250565b6000610e9b601e83610d62565b9150610ea682610e65565b602082019050919050565b60006020820190508181036000830152610eca81610e8e565b9050919050565b6000604082019050610ee66000830185610907565b610ef36020830184610b34565b9392505050565b600060208284031215610f1057610f0f6109b5565b5b6000610f1e84828501610c6c565b91505092915050565b7f5361666545524332303a204552433230206f7065726174696f6e20646964206e60008201527f6f74207375636365656400000000000000000000000000000000000000000000602082015250565b6000610f83602a83610d62565b9150610f8e82610f27565b604082019050919050565b60006020820190508181036000830152610fb281610f76565b9050919050565b7f416464726573733a20696e73756666696369656e742062616c616e636520666f60008201527f722063616c6c0000000000000000000000000000000000000000000000000000602082015250565b6000611015602683610d62565b915061102082610fb9565b604082019050919050565b6000602082019050818103600083015261104481611008565b9050919050565b600061105682610a38565b6110608185610e1f565b9350611070818560208601610a54565b80840191505092915050565b6000611088828461104b565b915081905092915050565b7f416464726573733a2063616c6c20746f206e6f6e2d636f6e7472616374000000600082015250565b60006110c9601d83610d62565b91506110d482611093565b602082019050919050565b600060208201905081810360008301526110f8816110bc565b9050919050565b600081519050919050565b6000611115826110ff565b61111f8185610d62565b935061112f818560208601610a54565b61113881610a7e565b840191505092915050565b6000602082019050818103600083015261115d818461110a565b90509291505056fea2646970667358221220cd7ac78dd57ccedda2ddafe1447b9882a53e4b4ae83bcb2759817a72015557d064736f6c6343000813003360c060405234801561001057600080fd5b5073c911b590248d127ad18546b186cc6b324e99f02c73ffffffffffffffffffffffffffffffffffffffff1660a08173ffffffffffffffffffffffffffffffffffffffff168152505060a05173ffffffffffffffffffffffffffffffffffffffff1663026b1d5f6040518163ffffffff1660e01b8152600401602060405180830381865afa1580156100a6573d6000803e3d6000fd5b505050506040513d601f19601f820116820180604052508101906100ca9190610165565b73ffffffffffffffffffffffffffffffffffffffff1660808173ffffffffffffffffffffffffffffffffffffffff1681525050610192565b600080fd5b600073ffffffffffffffffffffffffffffffffffffffff82169050919050565b600061013282610107565b9050919050565b61014281610127565b811461014d57600080fd5b50565b60008151905061015f81610139565b92915050565b60006020828403121561017b5761017a610102565b5b600061018984828501610150565b91505092915050565b60805160a05161025d6101b5600039600060a00152600060c4015261025d6000f3fe608060405234801561001057600080fd5b50600436106100415760003560e01c806369e4e00514610046578063a03e4bc314610064578063b6b55f2514610082575b600080fd5b61004e61009e565b60405161005b9190610168565b60405180910390f35b61006c6100c2565b60405161007991906101a4565b60405180910390f35b61009c600480360381019061009791906101fa565b6100e6565b005b7f000000000000000000000000000000000000000000000000000000000000000081565b7f000000000000000000000000000000000000000000000000000000000000000081565b50565b600073ffffffffffffffffffffffffffffffffffffffff82169050919050565b6000819050919050565b600061012e610129610124846100e9565b610109565b6100e9565b9050919050565b600061014082610113565b9050919050565b600061015282610135565b9050919050565b61016281610147565b82525050565b600060208201905061017d6000830184610159565b92915050565b600061018e82610135565b9050919050565b61019e81610183565b82525050565b60006020820190506101b96000830184610195565b92915050565b600080fd5b6000819050919050565b6101d7816101c4565b81146101e257600080fd5b50565b6000813590506101f4816101ce565b92915050565b6000602082840312156102105761020f6101bf565b5b600061021e848285016101e5565b9150509291505056fea2646970667358221220ea33cd1792ebf21420745589ec93ea8f99d9851e1645a0b3908036abea43eb6564736f6c63430008130033",
  "immutableReferences": {
    "1254": [
      {
        "length": 32,
        "start": 1312
      },
      {
        "length": 32,
        "start": 2359
      },
      {
        "length": 32,
        "start": 4308
      }
    ],
    "1256": [
      {
        "length": 32,
        "start": 754
      }
    ],
    "1378": [
      {
        "length": 32,
        "start": 1025
      },
      {
        "length": 32,
        "start": 3197
      },
      {
        "length": 32,
        "start": 3399
      }
    ],
    "1381": [
      {
        "length": 32,
        "start": 3339
      },
      {
        "length": 32,
        "start": 4272
      }
    ]
  },
  "source": "// SPDX-License-Identifier: UNLICENSED\npragma solidity ^0.8.19;\n\nimport \"./Types.sol\";\nimport \"./OrderExecutor.sol\";\nimport \"./OpsTaskCreator.sol\";\nimport './LendingVault.sol';\n\nstruct OrderDatas {\n    address user;\n    uint256 price;\n    uint256 amount;\n    address fromToken;\n    address toToken;\n    bytes32 orderId;\n    bool isExecuted;\n}\n\ncontract OrderBook is OpsTaskCreator {\n    mapping (uint => OrderDatas) public orders; // returns order data\n    uint orderNonce;\n    address public admin;\n    OrderExecutor public orderExecutor;\n    LendingVault public lendingVault;\n    event construct(string, address);\n\n    constructor() OpsTaskCreator(0xc1C6805B857Bef1f412519C4A842522431aFed39, address(this)) {\n        emit construct(\"address(ops)\", address(ops));\n        orderExecutor = new OrderExecutor(address(ops), 0x08f6dDE16166F06e1d486749452dc3A44f175456);\n        // we create new \"LendingVault\" contract here\n        lendingVault = new LendingVault();\n        admin = msg.sender;\n    }\n\n    function createOrder(uint price, uint amount, address fromToken, address toToken) external returns (uint) {\n        IERC20 FromToken = IERC20(fromToken);\n        FromToken.transferFrom(msg.sender, address(this), amount);\n\n        bytes memory execData = abi.encodeCall(orderExecutor.executeOrder, (orderNonce));\n\n        ModuleData memory moduleData = ModuleData({\n            modules: new Module[](2),\n            args: new bytes[](2)\n        });\n\n        moduleData.modules[0] = Module.RESOLVER;\n        moduleData.modules[1] = Module.SINGLE_EXEC;\n\n        moduleData.args[0] = _resolverModuleArg(address(orderExecutor), abi.encodeCall(orderExecutor.checker, (orderNonce)));\n        moduleData.args[1] = _singleExecModuleArg();\n\n        // Faulty\n        bytes32 orderId = ops.createTask(\n            address(orderExecutor), // contract to execute\n            execData, // function to execute\n            moduleData,\n            0xEeeeeEeeeEeEeeEeEeEeeEEEeeeeEeeeeeeeEEeE\n        );\n\n        orders[orderNonce] = OrderDatas(msg.sender, price, amount, fromToken, toToken, orderId, false);\n\n        FromToken.approve(address(lendingVault), amount); // approval needed to be able to swap liquidity\n        //lendingVault.deposit(fromToken, amount); // depositing liquidity into the vault\n        //FromToken.transfer(address(lendingVault), amount);\n\n        orderNonce++;\n\n        return orderNonce;\n    }\n\n    function cancelOrder(uint _orderNonce) external {\n        require(\n            msg.sender == admin || orders[_orderNonce].user == msg.sender,\n            \"Not allowed to cancel this order\"\n        );\n        ops.cancelTask(orders[_orderNonce].orderId);\n    }\n\n    // function to return executor address in order to check the txs\n    function getExecutorAddress() public view returns (address) {\n        return address(orderExecutor);\n    }\n\n    function setPrice(uint price) public {\n        orderExecutor.setPrice(price);\n    }\n\n    \n    function setExecuted(uint orderNonce) public {\n        require(msg.sender == address(orderExecutor), \"Only the executor can set the order as executed\");\n        orders[orderNonce].isExecuted = true;\n    }\n\n    function getOrder(uint orderNonce) public view returns (OrderDatas memory) {\n        return orders[orderNonce];\n    }\n\n}\n\n\n",
  "sourcePath": "/Users/blabla/Documents/gelato_test/contracts/OrderBook.sol",
  "compiler": {
    "name": "solc",
    "version": "0.8.19+commit.7dd6d404.Emscripten.clang"
  },
  "schemaVersion": "3.4.11",
  "updatedAt": "2023-03-02T04:38:59.955Z",
  "devdoc": {
    "kind": "dev",
    "methods": {
      "withdrawFunds(uint256,address)": {
        "details": "Withdraw funds from this contract's Gelato balance to fundsOwner."
      }
    },
    "version": 1
  },
  "userdoc": {
    "kind": "user",
    "methods": {},
    "version": 1
  }
}