{
  "contractName": "OrderExecutor",
  "abi": [
    {
      "inputs": [
        {
          "internalType": "address",
          "name": "_ops",
          "type": "address"
        },
        {
          "internalType": "address",
          "name": "_taskCreator",
          "type": "address"
        }
      ],
      "stateMutability": "nonpayable",
      "type": "constructor"
    },
    {
      "inputs": [],
      "name": "dedicatedMsgSender",
      "outputs": [
        {
          "internalType": "address",
          "name": "",
          "type": "address"
        }
      ],
      "stateMutability": "view",
      "type": "function"
    },
    {
      "inputs": [],
      "name": "ops",
      "outputs": [
        {
          "internalType": "contract IOps",
          "name": "",
          "type": "address"
        }
      ],
      "stateMutability": "view",
      "type": "function"
    },
    {
      "stateMutability": "payable",
      "type": "receive"
    },
    {
      "inputs": [],
      "name": "togglePrice",
      "outputs": [],
      "stateMutability": "nonpayable",
      "type": "function"
    },
    {
      "inputs": [
        {
          "internalType": "uint256",
          "name": "orderNonce",
          "type": "uint256"
        }
      ],
      "name": "executeOrder",
      "outputs": [],
      "stateMutability": "nonpayable",
      "type": "function"
    },
    {
      "inputs": [],
      "name": "withdrawFunds",
      "outputs": [],
      "stateMutability": "nonpayable",
      "type": "function"
    },
    {
      "inputs": [
        {
          "internalType": "uint256",
          "name": "orderNonce",
          "type": "uint256"
        }
      ],
      "name": "checker",
      "outputs": [
        {
          "internalType": "bool",
          "name": "canExec",
          "type": "bool"
        },
        {
          "internalType": "bytes",
          "name": "execPayload",
          "type": "bytes"
        }
      ],
      "stateMutability": "view",
      "type": "function"
    }
  ],
  "bytecode": "0x60e06040523480156200001157600080fd5b506040516200123138038062001231833981810160405281019062000037919062000267565b81818173ffffffffffffffffffffffffffffffffffffffff1660808173ffffffffffffffffffffffffffffffffffffffff16815250508173ffffffffffffffffffffffffffffffffffffffff1663573ea5756040518163ffffffff1660e01b8152600401602060405180830381865afa158015620000b9573d6000803e3d6000fd5b505050506040513d601f19601f82011682018060405250810190620000df9190620002f3565b73ffffffffffffffffffffffffffffffffffffffff1660c08173ffffffffffffffffffffffffffffffffffffffff168152505073c815db16d4be6ddf2685c201937905abf338f5d773ffffffffffffffffffffffffffffffffffffffff1663ded89a7c826040518263ffffffff1660e01b815260040162000161919062000336565b6040805180830381865afa1580156200017e573d6000803e3d6000fd5b505050506040513d601f19601f82011682018060405250810190620001a4919062000390565b508073ffffffffffffffffffffffffffffffffffffffff1660a09073ffffffffffffffffffffffffffffffffffffffff1681525050505060008060006101000a81548160ff0219169083151502179055505050620003d7565b600080fd5b600073ffffffffffffffffffffffffffffffffffffffff82169050919050565b60006200022f8262000202565b9050919050565b620002418162000222565b81146200024d57600080fd5b50565b600081519050620002618162000236565b92915050565b60008060408385031215620002815762000280620001fd565b5b6000620002918582860162000250565b9250506020620002a48582860162000250565b9150509250929050565b6000620002bb8262000202565b9050919050565b620002cd81620002ae565b8114620002d957600080fd5b50565b600081519050620002ed81620002c2565b92915050565b6000602082840312156200030c576200030b620001fd565b5b60006200031c84828501620002dc565b91505092915050565b620003308162000222565b82525050565b60006020820190506200034d600083018462000325565b92915050565b60008115159050919050565b6200036a8162000353565b81146200037657600080fd5b50565b6000815190506200038a816200035f565b92915050565b60008060408385031215620003aa57620003a9620001fd565b5b6000620003ba8582860162000250565b9250506020620003cd8582860162000379565b9150509250929050565b60805160a05160c051610e1c6200041560003960008181610387015261045b015260006101a101526000818161027d01526102a40152610e1c6000f3fe6080604052600436106100595760003560e01c806324600fc31461006557806328f150eb1461007c57806394e05b2c146100a757806394f61134146100e55780639cd323571461010e578063e70abe921461012557610060565b3661006057005b600080fd5b34801561007157600080fd5b5061007a610150565b005b34801561008857600080fd5b5061009161019f565b60405161009e91906107e0565b60405180910390f35b3480156100b357600080fd5b506100ce60048036038101906100c99190610836565b6101c3565b6040516100dc92919061090e565b60405180910390f35b3480156100f157600080fd5b5061010c60048036038101906101079190610836565b610234565b005b34801561011a57600080fd5b50610123610252565b005b34801561013157600080fd5b5061013a61027b565b604051610147919061099d565b60405180910390f35b60003390508073ffffffffffffffffffffffffffffffffffffffff166108fc479081150290604051600060405180830381858888f1935050505015801561019b573d6000803e3d6000fd5b5050565b7f000000000000000000000000000000000000000000000000000000000000000081565b6000606060008054906101000a900460ff169150826040516024016101e891906109c7565b6040516020818303038152906040526394f6113460e01b6020820180517bffffffffffffffffffffffffffffffffffffffffffffffffffffffff83818316178352505050509050915091565b60008061023f61029f565b9150915061024d828261033c565b505050565b60008054906101000a900460ff16156000806101000a81548160ff021916908315150217905550565b7f000000000000000000000000000000000000000000000000000000000000000081565b6000807f000000000000000000000000000000000000000000000000000000000000000073ffffffffffffffffffffffffffffffffffffffff1663b810c6366040518163ffffffff1660e01b81526004016040805180830381865afa15801561030c573d6000803e3d6000fd5b505050506040513d601f19601f820116820180604052508101906103309190610a23565b80925081935050509091565b73eeeeeeeeeeeeeeeeeeeeeeeeeeeeeeeeeeeeeeee73ffffffffffffffffffffffffffffffffffffffff168173ffffffffffffffffffffffffffffffffffffffff16036104555760007f000000000000000000000000000000000000000000000000000000000000000073ffffffffffffffffffffffffffffffffffffffff16836040516103c990610a94565b60006040518083038185875af1925050503d8060008114610406576040519150601f19603f3d011682016040523d82523d6000602084013e61040b565b606091505b505090508061044f576040517f08c379a000000000000000000000000000000000000000000000000000000000815260040161044690610b06565b60405180910390fd5b50610481565b610480817f000000000000000000000000000000000000000000000000000000000000000084610485565b5b5050565b6105068363a9059cbb60e01b84846040516024016104a4929190610b26565b604051602081830303815290604052907bffffffffffffffffffffffffffffffffffffffffffffffffffffffff19166020820180517bffffffffffffffffffffffffffffffffffffffffffffffffffffffff838183161783525050505061050b565b505050565b600061056d826040518060400160405280602081526020017f5361666545524332303a206c6f772d6c6576656c2063616c6c206661696c65648152508573ffffffffffffffffffffffffffffffffffffffff166105d29092919063ffffffff16565b90506000815111156105cd578080602001905181019061058d9190610b7b565b6105cc576040517f08c379a00000000000000000000000000000000000000000000000000000000081526004016105c390610c1a565b60405180910390fd5b5b505050565b60606105e184846000856105ea565b90509392505050565b60608247101561062f576040517f08c379a000000000000000000000000000000000000000000000000000000000815260040161062690610cac565b60405180910390fd5b6000808673ffffffffffffffffffffffffffffffffffffffff1685876040516106589190610cfd565b60006040518083038185875af1925050503d8060008114610695576040519150601f19603f3d011682016040523d82523d6000602084013e61069a565b606091505b50915091506106ab878383876106b7565b92505050949350505050565b60608315610719576000835103610711576106d18561072c565b610710576040517f08c379a000000000000000000000000000000000000000000000000000000000815260040161070790610d60565b60405180910390fd5b5b829050610724565b610723838361074f565b5b949350505050565b6000808273ffffffffffffffffffffffffffffffffffffffff163b119050919050565b6000825111156107625781518083602001fd5b806040517f08c379a00000000000000000000000000000000000000000000000000000000081526004016107969190610dc4565b60405180910390fd5b600073ffffffffffffffffffffffffffffffffffffffff82169050919050565b60006107ca8261079f565b9050919050565b6107da816107bf565b82525050565b60006020820190506107f560008301846107d1565b92915050565b600080fd5b6000819050919050565b61081381610800565b811461081e57600080fd5b50565b6000813590506108308161080a565b92915050565b60006020828403121561084c5761084b6107fb565b5b600061085a84828501610821565b91505092915050565b60008115159050919050565b61087881610863565b82525050565b600081519050919050565b600082825260208201905092915050565b60005b838110156108b857808201518184015260208101905061089d565b60008484015250505050565b6000601f19601f8301169050919050565b60006108e08261087e565b6108ea8185610889565b93506108fa81856020860161089a565b610903816108c4565b840191505092915050565b6000604082019050610923600083018561086f565b818103602083015261093581846108d5565b90509392505050565b6000819050919050565b600061096361095e6109598461079f565b61093e565b61079f565b9050919050565b600061097582610948565b9050919050565b60006109878261096a565b9050919050565b6109978161097c565b82525050565b60006020820190506109b2600083018461098e565b92915050565b6109c181610800565b82525050565b60006020820190506109dc60008301846109b8565b92915050565b6000815190506109f18161080a565b92915050565b610a00816107bf565b8114610a0b57600080fd5b50565b600081519050610a1d816109f7565b92915050565b60008060408385031215610a3a57610a396107fb565b5b6000610a48858286016109e2565b9250506020610a5985828601610a0e565b9150509250929050565b600081905092915050565b50565b6000610a7e600083610a63565b9150610a8982610a6e565b600082019050919050565b6000610a9f82610a71565b9150819050919050565b600082825260208201905092915050565b7f5f7472616e736665723a20455448207472616e73666572206661696c65640000600082015250565b6000610af0601e83610aa9565b9150610afb82610aba565b602082019050919050565b60006020820190508181036000830152610b1f81610ae3565b9050919050565b6000604082019050610b3b60008301856107d1565b610b4860208301846109b8565b9392505050565b610b5881610863565b8114610b6357600080fd5b50565b600081519050610b7581610b4f565b92915050565b600060208284031215610b9157610b906107fb565b5b6000610b9f84828501610b66565b91505092915050565b7f5361666545524332303a204552433230206f7065726174696f6e20646964206e60008201527f6f74207375636365656400000000000000000000000000000000000000000000602082015250565b6000610c04602a83610aa9565b9150610c0f82610ba8565b604082019050919050565b60006020820190508181036000830152610c3381610bf7565b9050919050565b7f416464726573733a20696e73756666696369656e742062616c616e636520666f60008201527f722063616c6c0000000000000000000000000000000000000000000000000000602082015250565b6000610c96602683610aa9565b9150610ca182610c3a565b604082019050919050565b60006020820190508181036000830152610cc581610c89565b9050919050565b6000610cd78261087e565b610ce18185610a63565b9350610cf181856020860161089a565b80840191505092915050565b6000610d098284610ccc565b915081905092915050565b7f416464726573733a2063616c6c20746f206e6f6e2d636f6e7472616374000000600082015250565b6000610d4a601d83610aa9565b9150610d5582610d14565b602082019050919050565b60006020820190508181036000830152610d7981610d3d565b9050919050565b600081519050919050565b6000610d9682610d80565b610da08185610aa9565b9350610db081856020860161089a565b610db9816108c4565b840191505092915050565b60006020820190508181036000830152610dde8184610d8b565b90509291505056fea2646970667358221220ecf4ab55ea6efa53e7ad4446f7e5e05b5865399082e5eaf2d571d8f04d1d9e3464736f6c63430008130033",
  "immutableReferences": {
    "732": [
      {
        "length": 32,
        "start": 637
      },
      {
        "length": 32,
        "start": 676
      }
    ],
    "734": [
      {
        "length": 32,
        "start": 417
      }
    ],
    "736": [
      {
        "length": 32,
        "start": 903
      },
      {
        "length": 32,
        "start": 1115
      }
    ]
  },
  "source": "// SPDX-License-Identifier: UNLICENSED\npragma solidity ^0.8.19;\n\nimport \"./OpsReady.sol\";\n\n\ncontract OrderExecutor is OpsReady {\n    bool isPriceOkay;\n\n    constructor(address _ops, address _taskCreator) OpsReady(_ops, _taskCreator) {\n        isPriceOkay = false;\n    }\n\n    function togglePrice() public {\n        isPriceOkay = !isPriceOkay;\n    }\n\n    receive() external payable {}\n\n    function executeOrder(uint orderNonce) external /*onlyDedicatedMsgSender*/ {\n        // execute order with orderNonce here\n        (uint256 fee, address feeToken) = _getFeeDetails();\n        _transfer(fee, feeToken);\n    }\n\n    function withdrawFunds() public {\n        address payable recipient = payable(msg.sender);\n        recipient.transfer(address(this).balance);\n    }\n\n    function checker(uint orderNonce) external view returns (bool canExec, bytes memory execPayload) {\n        canExec = isPriceOkay; // The condition that needs to be true for the task to be executed, you can filter the condition with the orderId\n        execPayload = abi.encodeCall(OrderExecutor.executeOrder, (orderNonce)); // The function that you want to call on the contract\n    }\n\n}\n\n\n",
  "sourcePath": "/Users/blabla/Documents/gelato_test/contracts/OrderExecutor.sol",
  "compiler": {
    "name": "solc",
    "version": "0.8.19+commit.7dd6d404.Emscripten.clang"
  },
  "schemaVersion": "3.4.11",
  "updatedAt": "2023-02-27T15:39:57.787Z",
  "devdoc": {
    "kind": "dev",
    "methods": {},
    "version": 1
  },
  "userdoc": {
    "kind": "user",
    "methods": {},
    "version": 1
  }
}