{
  "contractName": "OrderExecutor",
  "abi": [
    {
      "inputs": [
        {
          "internalType": "address",
          "name": "_ops",
          "type": "address"
        },
        {
          "internalType": "address",
          "name": "_taskCreator",
          "type": "address"
        }
      ],
      "stateMutability": "nonpayable",
      "type": "constructor"
    },
    {
      "anonymous": false,
      "inputs": [
        {
          "indexed": false,
          "internalType": "string",
          "name": "",
          "type": "string"
        }
      ],
      "name": "OrderDone",
      "type": "event"
    },
    {
      "inputs": [],
      "name": "dedicatedMsgSender",
      "outputs": [
        {
          "internalType": "address",
          "name": "",
          "type": "address"
        }
      ],
      "stateMutability": "view",
      "type": "function"
    },
    {
      "inputs": [],
      "name": "ops",
      "outputs": [
        {
          "internalType": "contract IOps",
          "name": "",
          "type": "address"
        }
      ],
      "stateMutability": "view",
      "type": "function"
    },
    {
      "inputs": [],
      "name": "orderBook",
      "outputs": [
        {
          "internalType": "contract OrderBook",
          "name": "",
          "type": "address"
        }
      ],
      "stateMutability": "view",
      "type": "function"
    },
    {
      "stateMutability": "payable",
      "type": "receive"
    },
    {
      "inputs": [
        {
          "internalType": "uint256",
          "name": "_price",
          "type": "uint256"
        }
      ],
      "name": "setPrice",
      "outputs": [],
      "stateMutability": "nonpayable",
      "type": "function"
    },
    {
      "inputs": [
        {
          "internalType": "uint256",
          "name": "orderNonce",
          "type": "uint256"
        }
      ],
      "name": "executeOrder",
      "outputs": [],
      "stateMutability": "nonpayable",
      "type": "function"
    },
    {
      "inputs": [],
      "name": "withdrawFunds",
      "outputs": [],
      "stateMutability": "nonpayable",
      "type": "function"
    },
    {
      "inputs": [
        {
          "internalType": "uint256",
          "name": "orderNonce",
          "type": "uint256"
        }
      ],
      "name": "checker",
      "outputs": [
        {
          "internalType": "bool",
          "name": "canExec",
          "type": "bool"
        },
        {
          "internalType": "bytes",
          "name": "execPayload",
          "type": "bytes"
        }
      ],
      "stateMutability": "view",
      "type": "function"
    }
  ],
  "bytecode": "0x60e06040523480156200001157600080fd5b506040516200164c3803806200164c833981810160405281019062000037919062000296565b81818173ffffffffffffffffffffffffffffffffffffffff1660808173ffffffffffffffffffffffffffffffffffffffff16815250508173ffffffffffffffffffffffffffffffffffffffff1663573ea5756040518163ffffffff1660e01b8152600401602060405180830381865afa158015620000b9573d6000803e3d6000fd5b505050506040513d601f19601f82011682018060405250810190620000df919062000322565b73ffffffffffffffffffffffffffffffffffffffff1660c08173ffffffffffffffffffffffffffffffffffffffff168152505073c815db16d4be6ddf2685c201937905abf338f5d773ffffffffffffffffffffffffffffffffffffffff1663ded89a7c826040518263ffffffff1660e01b815260040162000161919062000365565b6040805180830381865afa1580156200017e573d6000803e3d6000fd5b505050506040513d601f19601f82011682018060405250810190620001a49190620003bf565b508073ffffffffffffffffffffffffffffffffffffffff1660a09073ffffffffffffffffffffffffffffffffffffffff16815250505050606460008190555033600160006101000a81548173ffffffffffffffffffffffffffffffffffffffff021916908373ffffffffffffffffffffffffffffffffffffffff160217905550505062000406565b600080fd5b600073ffffffffffffffffffffffffffffffffffffffff82169050919050565b60006200025e8262000231565b9050919050565b620002708162000251565b81146200027c57600080fd5b50565b600081519050620002908162000265565b92915050565b60008060408385031215620002b057620002af6200022c565b5b6000620002c0858286016200027f565b9250506020620002d3858286016200027f565b9150509250929050565b6000620002ea8262000231565b9050919050565b620002fc81620002dd565b81146200030857600080fd5b50565b6000815190506200031c81620002f1565b92915050565b6000602082840312156200033b576200033a6200022c565b5b60006200034b848285016200030b565b91505092915050565b6200035f8162000251565b82525050565b60006020820190506200037c600083018462000354565b92915050565b60008115159050919050565b620003998162000382565b8114620003a557600080fd5b50565b600081519050620003b9816200038e565b92915050565b60008060408385031215620003d957620003d86200022c565b5b6000620003e9858286016200027f565b9250506020620003fc85828601620003a8565b9150509250929050565b60805160a05160c051611208620004446000396000818161053e0152610612015260006101f9015260008181610434015261045b01526112086000f3fe6080604052600436106100745760003560e01c806391b7f5ed1161004e57806391b7f5ed146100ed57806394e05b2c1461011657806394f6113414610154578063e70abe921461017d5761007b565b806324600fc31461008057806328f150eb14610097578063776af5ba146100c25761007b565b3661007b57005b600080fd5b34801561008c57600080fd5b506100956101a8565b005b3480156100a357600080fd5b506100ac6101f7565b6040516100b99190610997565b60405180910390f35b3480156100ce57600080fd5b506100d761021b565b6040516100e49190610a11565b60405180910390f35b3480156100f957600080fd5b50610114600480360381019061010f9190610a71565b610241565b005b34801561012257600080fd5b5061013d60048036038101906101389190610a71565b61024b565b60405161014b929190610b49565b60405180910390f35b34801561016057600080fd5b5061017b60048036038101906101769190610a71565b610352565b005b34801561018957600080fd5b50610192610432565b60405161019f9190610b9a565b60405180910390f35b60003390508073ffffffffffffffffffffffffffffffffffffffff166108fc479081150290604051600060405180830381858888f193505050501580156101f3573d6000803e3d6000fd5b5050565b7f000000000000000000000000000000000000000000000000000000000000000081565b600160009054906101000a900473ffffffffffffffffffffffffffffffffffffffff1681565b8060008190555050565b60006060600054600160009054906101000a900473ffffffffffffffffffffffffffffffffffffffff1673ffffffffffffffffffffffffffffffffffffffff1663d09ef241856040518263ffffffff1660e01b81526004016102ad9190610bc4565b60c060405180830381865afa1580156102ca573d6000803e3d6000fd5b505050506040513d601f19601f820116820180604052508101906102ee9190610da2565b60200151149150826040516024016103069190610bc4565b6040516020818303038152906040526394f6113460e01b6020820180517bffffffffffffffffffffffffffffffffffffffffffffffffffffffff83818316178352505050509050915091565b600160009054906101000a900473ffffffffffffffffffffffffffffffffffffffff1673ffffffffffffffffffffffffffffffffffffffff16632993c690826040518263ffffffff1660e01b81526004016103ad9190610bc4565b600060405180830381600087803b1580156103c757600080fd5b505af11580156103db573d6000803e3d6000fd5b505050507fee02c8198e15339d816eee1c984a22b43d97a3fd967befcfdb05b9b1c98eda3f60405161040c90610e2c565b60405180910390a160008061041f610456565b9150915061042d82826104f3565b505050565b7f000000000000000000000000000000000000000000000000000000000000000081565b6000807f000000000000000000000000000000000000000000000000000000000000000073ffffffffffffffffffffffffffffffffffffffff1663b810c6366040518163ffffffff1660e01b81526004016040805180830381865afa1580156104c3573d6000803e3d6000fd5b505050506040513d601f19601f820116820180604052508101906104e79190610e4c565b80925081935050509091565b73eeeeeeeeeeeeeeeeeeeeeeeeeeeeeeeeeeeeeeee73ffffffffffffffffffffffffffffffffffffffff168173ffffffffffffffffffffffffffffffffffffffff160361060c5760007f000000000000000000000000000000000000000000000000000000000000000073ffffffffffffffffffffffffffffffffffffffff168360405161058090610ebd565b60006040518083038185875af1925050503d80600081146105bd576040519150601f19603f3d011682016040523d82523d6000602084013e6105c2565b606091505b5050905080610606576040517f08c379a00000000000000000000000000000000000000000000000000000000081526004016105fd90610f1e565b60405180910390fd5b50610638565b610637817f00000000000000000000000000000000000000000000000000000000000000008461063c565b5b5050565b6106bd8363a9059cbb60e01b848460405160240161065b929190610f3e565b604051602081830303815290604052907bffffffffffffffffffffffffffffffffffffffffffffffffffffffff19166020820180517bffffffffffffffffffffffffffffffffffffffffffffffffffffffff83818316178352505050506106c2565b505050565b6000610724826040518060400160405280602081526020017f5361666545524332303a206c6f772d6c6576656c2063616c6c206661696c65648152508573ffffffffffffffffffffffffffffffffffffffff166107899092919063ffffffff16565b905060008151111561078457808060200190518101906107449190610f67565b610783576040517f08c379a000000000000000000000000000000000000000000000000000000000815260040161077a90611006565b60405180910390fd5b5b505050565b606061079884846000856107a1565b90509392505050565b6060824710156107e6576040517f08c379a00000000000000000000000000000000000000000000000000000000081526004016107dd90611098565b60405180910390fd5b6000808673ffffffffffffffffffffffffffffffffffffffff16858760405161080f91906110e9565b60006040518083038185875af1925050503d806000811461084c576040519150601f19603f3d011682016040523d82523d6000602084013e610851565b606091505b50915091506108628783838761086e565b92505050949350505050565b606083156108d05760008351036108c857610888856108e3565b6108c7576040517f08c379a00000000000000000000000000000000000000000000000000000000081526004016108be9061114c565b60405180910390fd5b5b8290506108db565b6108da8383610906565b5b949350505050565b6000808273ffffffffffffffffffffffffffffffffffffffff163b119050919050565b6000825111156109195781518083602001fd5b806040517f08c379a000000000000000000000000000000000000000000000000000000000815260040161094d91906111b0565b60405180910390fd5b600073ffffffffffffffffffffffffffffffffffffffff82169050919050565b600061098182610956565b9050919050565b61099181610976565b82525050565b60006020820190506109ac6000830184610988565b92915050565b6000819050919050565b60006109d76109d26109cd84610956565b6109b2565b610956565b9050919050565b60006109e9826109bc565b9050919050565b60006109fb826109de565b9050919050565b610a0b816109f0565b82525050565b6000602082019050610a266000830184610a02565b92915050565b6000604051905090565b600080fd5b6000819050919050565b610a4e81610a3b565b8114610a5957600080fd5b50565b600081359050610a6b81610a45565b92915050565b600060208284031215610a8757610a86610a36565b5b6000610a9584828501610a5c565b91505092915050565b60008115159050919050565b610ab381610a9e565b82525050565b600081519050919050565b600082825260208201905092915050565b60005b83811015610af3578082015181840152602081019050610ad8565b60008484015250505050565b6000601f19601f8301169050919050565b6000610b1b82610ab9565b610b258185610ac4565b9350610b35818560208601610ad5565b610b3e81610aff565b840191505092915050565b6000604082019050610b5e6000830185610aaa565b8181036020830152610b708184610b10565b90509392505050565b6000610b84826109de565b9050919050565b610b9481610b79565b82525050565b6000602082019050610baf6000830184610b8b565b92915050565b610bbe81610a3b565b82525050565b6000602082019050610bd96000830184610bb5565b92915050565b600080fd5b7f4e487b7100000000000000000000000000000000000000000000000000000000600052604160045260246000fd5b610c1c82610aff565b810181811067ffffffffffffffff82111715610c3b57610c3a610be4565b5b80604052505050565b6000610c4e610a2c565b9050610c5a8282610c13565b919050565b610c6881610976565b8114610c7357600080fd5b50565b600081519050610c8581610c5f565b92915050565b600081519050610c9a81610a45565b92915050565b6000819050919050565b610cb381610ca0565b8114610cbe57600080fd5b50565b600081519050610cd081610caa565b92915050565b610cdf81610a9e565b8114610cea57600080fd5b50565b600081519050610cfc81610cd6565b92915050565b600060c08284031215610d1857610d17610bdf565b5b610d2260c0610c44565b90506000610d3284828501610c76565b6000830152506020610d4684828501610c8b565b6020830152506040610d5a84828501610c76565b6040830152506060610d6e84828501610c76565b6060830152506080610d8284828501610cc1565b60808301525060a0610d9684828501610ced565b60a08301525092915050565b600060c08284031215610db857610db7610a36565b5b6000610dc684828501610d02565b91505092915050565b600082825260208201905092915050565b7f6f72646572206578656375746564000000000000000000000000000000000000600082015250565b6000610e16600e83610dcf565b9150610e2182610de0565b602082019050919050565b60006020820190508181036000830152610e4581610e09565b9050919050565b60008060408385031215610e6357610e62610a36565b5b6000610e7185828601610c8b565b9250506020610e8285828601610c76565b9150509250929050565b600081905092915050565b50565b6000610ea7600083610e8c565b9150610eb282610e97565b600082019050919050565b6000610ec882610e9a565b9150819050919050565b7f5f7472616e736665723a20455448207472616e73666572206661696c65640000600082015250565b6000610f08601e83610dcf565b9150610f1382610ed2565b602082019050919050565b60006020820190508181036000830152610f3781610efb565b9050919050565b6000604082019050610f536000830185610988565b610f606020830184610bb5565b9392505050565b600060208284031215610f7d57610f7c610a36565b5b6000610f8b84828501610ced565b91505092915050565b7f5361666545524332303a204552433230206f7065726174696f6e20646964206e60008201527f6f74207375636365656400000000000000000000000000000000000000000000602082015250565b6000610ff0602a83610dcf565b9150610ffb82610f94565b604082019050919050565b6000602082019050818103600083015261101f81610fe3565b9050919050565b7f416464726573733a20696e73756666696369656e742062616c616e636520666f60008201527f722063616c6c0000000000000000000000000000000000000000000000000000602082015250565b6000611082602683610dcf565b915061108d82611026565b604082019050919050565b600060208201905081810360008301526110b181611075565b9050919050565b60006110c382610ab9565b6110cd8185610e8c565b93506110dd818560208601610ad5565b80840191505092915050565b60006110f582846110b8565b915081905092915050565b7f416464726573733a2063616c6c20746f206e6f6e2d636f6e7472616374000000600082015250565b6000611136601d83610dcf565b915061114182611100565b602082019050919050565b6000602082019050818103600083015261116581611129565b9050919050565b600081519050919050565b60006111828261116c565b61118c8185610dcf565b935061119c818560208601610ad5565b6111a581610aff565b840191505092915050565b600060208201905081810360008301526111ca8184611177565b90509291505056fea2646970667358221220b86ef155cdb6d900e544bb933e85a4c34fc7651773084040bc003e4ac180423464736f6c63430008130033",
  "immutableReferences": {
    "732": [
      {
        "length": 32,
        "start": 1076
      },
      {
        "length": 32,
        "start": 1115
      }
    ],
    "734": [
      {
        "length": 32,
        "start": 505
      }
    ],
    "736": [
      {
        "length": 32,
        "start": 1342
      },
      {
        "length": 32,
        "start": 1554
      }
    ]
  },
  "source": "// SPDX-License-Identifier: UNLICENSED\npragma solidity ^0.8.19;\n\nimport \"./OpsReady.sol\";\nimport \"./OrderBook.sol\";\n\ncontract OrderExecutor is OpsReady {\n    uint price;\n    OrderBook public orderBook;\n    event OrderDone(string);\n\n\n    constructor(address _ops, address _taskCreator) OpsReady(_ops, _taskCreator) {\n        price = 100; // arbitrary price\n        orderBook = OrderBook(msg.sender);\n    }\n\n    function setPrice(uint _price) public {\n        price = _price;\n    }\n\n    receive() external payable {}\n\n    function executeOrder(uint orderNonce) external /*onlyDedicatedMsgSender*/ {\n        // execute order with orderNonce here\n        orderBook.setExecuted(orderNonce);\n        emit OrderDone(\"order executed\");\n        // \n        (uint256 fee, address feeToken) = _getFeeDetails();\n        _transfer(fee, feeToken);\n    }\n\n    function withdrawFunds() public {\n        address payable recipient = payable(msg.sender);\n        recipient.transfer(address(this).balance);\n    }\n\n    function checker(uint orderNonce) external view returns (bool canExec, bytes memory execPayload) {\n        canExec = orderBook.getOrder(orderNonce).price == price; // The condition that needs to be true for the task to be executed, you can filter the condition with the orderId\n        execPayload = abi.encodeCall(OrderExecutor.executeOrder, orderNonce); // The function that you want to call on the contract\n    }\n\n}\n\n\n",
  "sourcePath": "/Users/blabla/Documents/gelato_test/contracts/OrderExecutor.sol",
  "compiler": {
    "name": "solc",
    "version": "0.8.19+commit.7dd6d404.Emscripten.clang"
  },
  "schemaVersion": "3.4.11",
  "updatedAt": "2023-02-28T06:31:41.863Z",
  "devdoc": {
    "kind": "dev",
    "methods": {},
    "version": 1
  },
  "userdoc": {
    "kind": "user",
    "methods": {},
    "version": 1
  }
}