{
  "contractName": "OrderBook",
  "abi": [
    {
      "inputs": [
        {
          "internalType": "address",
          "name": "_opsAddress",
          "type": "address"
        }
      ],
      "stateMutability": "nonpayable",
      "type": "constructor"
    },
    {
      "anonymous": false,
      "inputs": [
        {
          "indexed": false,
          "internalType": "string",
          "name": "",
          "type": "string"
        },
        {
          "indexed": false,
          "internalType": "address",
          "name": "",
          "type": "address"
        }
      ],
      "name": "construct",
      "type": "event"
    },
    {
      "anonymous": false,
      "inputs": [
        {
          "indexed": false,
          "internalType": "string",
          "name": "",
          "type": "string"
        },
        {
          "indexed": false,
          "internalType": "uint256",
          "name": "",
          "type": "uint256"
        }
      ],
      "name": "orderCreated",
      "type": "event"
    },
    {
      "inputs": [],
      "name": "admin",
      "outputs": [
        {
          "internalType": "address",
          "name": "",
          "type": "address"
        }
      ],
      "stateMutability": "view",
      "type": "function"
    },
    {
      "inputs": [],
      "name": "dedicatedMsgSender",
      "outputs": [
        {
          "internalType": "address",
          "name": "",
          "type": "address"
        }
      ],
      "stateMutability": "view",
      "type": "function"
    },
    {
      "inputs": [],
      "name": "fundsOwner",
      "outputs": [
        {
          "internalType": "address",
          "name": "",
          "type": "address"
        }
      ],
      "stateMutability": "view",
      "type": "function"
    },
    {
      "inputs": [],
      "name": "lendingVault",
      "outputs": [
        {
          "internalType": "contract LendingVault",
          "name": "",
          "type": "address"
        }
      ],
      "stateMutability": "view",
      "type": "function"
    },
    {
      "inputs": [],
      "name": "ops",
      "outputs": [
        {
          "internalType": "contract IOps",
          "name": "",
          "type": "address"
        }
      ],
      "stateMutability": "view",
      "type": "function"
    },
    {
      "inputs": [],
      "name": "orderExecutor",
      "outputs": [
        {
          "internalType": "contract OrderExecutor",
          "name": "",
          "type": "address"
        }
      ],
      "stateMutability": "view",
      "type": "function"
    },
    {
      "inputs": [
        {
          "internalType": "uint256",
          "name": "",
          "type": "uint256"
        }
      ],
      "name": "orders",
      "outputs": [
        {
          "internalType": "address",
          "name": "user",
          "type": "address"
        },
        {
          "internalType": "uint256",
          "name": "price",
          "type": "uint256"
        },
        {
          "internalType": "uint256",
          "name": "amount",
          "type": "uint256"
        },
        {
          "internalType": "address",
          "name": "fromToken",
          "type": "address"
        },
        {
          "internalType": "address",
          "name": "toToken",
          "type": "address"
        },
        {
          "internalType": "bytes32",
          "name": "orderId",
          "type": "bytes32"
        },
        {
          "internalType": "bool",
          "name": "isExecuted",
          "type": "bool"
        }
      ],
      "stateMutability": "view",
      "type": "function"
    },
    {
      "inputs": [],
      "name": "taskTreasury",
      "outputs": [
        {
          "internalType": "contract ITaskTreasuryUpgradable",
          "name": "",
          "type": "address"
        }
      ],
      "stateMutability": "view",
      "type": "function"
    },
    {
      "inputs": [
        {
          "internalType": "uint256",
          "name": "_amount",
          "type": "uint256"
        },
        {
          "internalType": "address",
          "name": "_token",
          "type": "address"
        }
      ],
      "name": "withdrawFunds",
      "outputs": [],
      "stateMutability": "nonpayable",
      "type": "function"
    },
    {
      "inputs": [
        {
          "internalType": "contract OrderExecutor",
          "name": "_orderExecutorAddress",
          "type": "address"
        }
      ],
      "name": "setOrderExecutor",
      "outputs": [],
      "stateMutability": "nonpayable",
      "type": "function"
    },
    {
      "inputs": [
        {
          "internalType": "address",
          "name": "_lendingVaultAddress",
          "type": "address"
        }
      ],
      "name": "setLendingVault",
      "outputs": [],
      "stateMutability": "nonpayable",
      "type": "function"
    },
    {
      "inputs": [
        {
          "internalType": "uint256",
          "name": "price",
          "type": "uint256"
        },
        {
          "internalType": "uint256",
          "name": "amount",
          "type": "uint256"
        },
        {
          "internalType": "address",
          "name": "fromToken",
          "type": "address"
        },
        {
          "internalType": "address",
          "name": "toToken",
          "type": "address"
        }
      ],
      "name": "createOrder",
      "outputs": [
        {
          "internalType": "uint256",
          "name": "",
          "type": "uint256"
        }
      ],
      "stateMutability": "nonpayable",
      "type": "function"
    },
    {
      "inputs": [
        {
          "internalType": "uint256",
          "name": "_orderNonce",
          "type": "uint256"
        }
      ],
      "name": "closeYieldStrategy",
      "outputs": [],
      "stateMutability": "nonpayable",
      "type": "function"
    },
    {
      "inputs": [
        {
          "internalType": "uint256",
          "name": "_orderNonce",
          "type": "uint256"
        }
      ],
      "name": "cancelOrder",
      "outputs": [],
      "stateMutability": "nonpayable",
      "type": "function"
    },
    {
      "inputs": [],
      "name": "getExecutorAddress",
      "outputs": [
        {
          "internalType": "address",
          "name": "",
          "type": "address"
        }
      ],
      "stateMutability": "view",
      "type": "function"
    },
    {
      "inputs": [
        {
          "internalType": "uint256",
          "name": "price",
          "type": "uint256"
        }
      ],
      "name": "setPrice",
      "outputs": [],
      "stateMutability": "nonpayable",
      "type": "function"
    },
    {
      "inputs": [
        {
          "internalType": "uint256",
          "name": "orderNonce",
          "type": "uint256"
        }
      ],
      "name": "setExecuted",
      "outputs": [],
      "stateMutability": "nonpayable",
      "type": "function"
    },
    {
      "inputs": [
        {
          "internalType": "uint256",
          "name": "orderNonce",
          "type": "uint256"
        }
      ],
      "name": "getOrder",
      "outputs": [
        {
          "components": [
            {
              "internalType": "address",
              "name": "user",
              "type": "address"
            },
            {
              "internalType": "uint256",
              "name": "price",
              "type": "uint256"
            },
            {
              "internalType": "uint256",
              "name": "amount",
              "type": "uint256"
            },
            {
              "internalType": "address",
              "name": "fromToken",
              "type": "address"
            },
            {
              "internalType": "address",
              "name": "toToken",
              "type": "address"
            },
            {
              "internalType": "bytes32",
              "name": "orderId",
              "type": "bytes32"
            },
            {
              "internalType": "bool",
              "name": "isExecuted",
              "type": "bool"
            }
          ],
          "internalType": "struct OrderDatas",
          "name": "",
          "type": "tuple"
        }
      ],
      "stateMutability": "view",
      "type": "function"
    }
  ],
  "bytecode": "0x6101206040523480156200001257600080fd5b506040516200297a3803806200297a83398181016040528101906200003891906200036e565b803081308173ffffffffffffffffffffffffffffffffffffffff1660808173ffffffffffffffffffffffffffffffffffffffff16815250508173ffffffffffffffffffffffffffffffffffffffff1663573ea5756040518163ffffffff1660e01b8152600401602060405180830381865afa158015620000bc573d6000803e3d6000fd5b505050506040513d601f19601f82011682018060405250810190620000e29190620003e5565b73ffffffffffffffffffffffffffffffffffffffff1660c08173ffffffffffffffffffffffffffffffffffffffff168152505073c815db16d4be6ddf2685c201937905abf338f5d773ffffffffffffffffffffffffffffffffffffffff1663ded89a7c826040518263ffffffff1660e01b815260040162000164919062000428565b6040805180830381865afa15801562000181573d6000803e3d6000fd5b505050506040513d601f19601f82011682018060405250810190620001a7919062000482565b508073ffffffffffffffffffffffffffffffffffffffff1660a09073ffffffffffffffffffffffffffffffffffffffff168152505050508073ffffffffffffffffffffffffffffffffffffffff1660e08173ffffffffffffffffffffffffffffffffffffffff168152505060805173ffffffffffffffffffffffffffffffffffffffff1663e60a32136040518163ffffffff1660e01b8152600401602060405180830381865afa15801562000260573d6000803e3d6000fd5b505050506040513d601f19601f820116820180604052508101906200028691906200050e565b73ffffffffffffffffffffffffffffffffffffffff166101008173ffffffffffffffffffffffffffffffffffffffff1681525050505033600260006101000a81548173ffffffffffffffffffffffffffffffffffffffff021916908373ffffffffffffffffffffffffffffffffffffffff1602179055505062000540565b600080fd5b600073ffffffffffffffffffffffffffffffffffffffff82169050919050565b6000620003368262000309565b9050919050565b620003488162000329565b81146200035457600080fd5b50565b60008151905062000368816200033d565b92915050565b60006020828403121562000387576200038662000304565b5b6000620003978482850162000357565b91505092915050565b6000620003ad8262000309565b9050919050565b620003bf81620003a0565b8114620003cb57600080fd5b50565b600081519050620003df81620003b4565b92915050565b600060208284031215620003fe57620003fd62000304565b5b60006200040e84828501620003ce565b91505092915050565b620004228162000329565b82525050565b60006020820190506200043f600083018462000417565b92915050565b60008115159050919050565b6200045c8162000445565b81146200046857600080fd5b50565b6000815190506200047c8162000451565b92915050565b600080604083850312156200049c576200049b62000304565b5b6000620004ac8582860162000357565b9250506020620004bf858286016200046b565b9150509250929050565b6000620004d68262000329565b9050919050565b620004e881620004c9565b8114620004f457600080fd5b50565b6000815190506200050881620004dd565b92915050565b60006020828403121562000527576200052662000304565b5b60006200053784828501620004f7565b91505092915050565b60805160a05160c05160e051610100516123d5620005a56000396000818161103101526114aa01526000818161065d01528181610fa3015261106d015260005050600061047a01526000818161077c01528181610b9301526114ce01526123d56000f3fe608060405234801561001057600080fd5b50600436106101165760003560e01c8063756677a1116100a2578063cb8c5a3a11610071578063cb8c5a3a146102bd578063d09ef241146102db578063e60a32131461030b578063e70abe9214610329578063f851a4401461034757610116565b8063756677a11461023157806391b7f5ed1461024d578063a849d64414610269578063a85c38ef1461028757610116565b8063408a03d8116100e9578063408a03d81461018f57806346ee3c59146101ab578063514fcac7146101c957806358b91f0d146101e5578063744bfe611461021557610116565b80630f80042b1461011b57806328f150eb146101375780632993c69014610155578063350157a814610171575b600080fd5b61013560048036038101906101309190611618565b610365565b005b61013f610478565b60405161014c9190611686565b60405180910390f35b61016f600480360381019061016a9190611618565b61049c565b005b61017961055d565b6040516101869190611686565b60405180910390f35b6101a960048036038101906101a491906116cd565b610587565b005b6101b361065b565b6040516101c09190611686565b60405180910390f35b6101e360048036038101906101de9190611618565b61067f565b005b6101ff60048036038101906101fa91906116fa565b61081d565b60405161020c9190611770565b60405180910390f35b61022f600480360381019061022a919061178b565b610fa1565b005b61024b6004803603810190610246919061181b565b6110e2565b005b61026760048036038101906102629190611618565b6111b6565b005b610271611246565b60405161027e91906118a7565b60405180910390f35b6102a1600480360381019061029c9190611618565b61126c565b6040516102b497969594939291906118f6565b60405180910390f35b6102c561131b565b6040516102d29190611998565b60405180910390f35b6102f560048036038101906102f09190611618565b611341565b6040516103029190611a7d565b60405180910390f35b6103136114a8565b6040516103209190611ab9565b60405180910390f35b6103316114cc565b60405161033e9190611af5565b60405180910390f35b61034f6114f0565b60405161035c9190611686565b60405180910390f35b600460009054906101000a900473ffffffffffffffffffffffffffffffffffffffff1673ffffffffffffffffffffffffffffffffffffffff166369328dec60008084815260200190815260200160002060030160009054906101000a900473ffffffffffffffffffffffffffffffffffffffff166000808581526020019081526020016000206002015460008086815260200190815260200160002060000160009054906101000a900473ffffffffffffffffffffffffffffffffffffffff166040518463ffffffff1660e01b815260040161044393929190611b10565b600060405180830381600087803b15801561045d57600080fd5b505af1158015610471573d6000803e3d6000fd5b5050505050565b7f000000000000000000000000000000000000000000000000000000000000000081565b600360009054906101000a900473ffffffffffffffffffffffffffffffffffffffff1673ffffffffffffffffffffffffffffffffffffffff163373ffffffffffffffffffffffffffffffffffffffff161461052c576040517f08c379a000000000000000000000000000000000000000000000000000000000815260040161052390611bca565b60405180910390fd5b600160008083815260200190815260200160002060060160006101000a81548160ff02191690831515021790555050565b6000600360009054906101000a900473ffffffffffffffffffffffffffffffffffffffff16905090565b600260009054906101000a900473ffffffffffffffffffffffffffffffffffffffff1673ffffffffffffffffffffffffffffffffffffffff163373ffffffffffffffffffffffffffffffffffffffff1614610617576040517f08c379a000000000000000000000000000000000000000000000000000000000815260040161060e90611c36565b60405180910390fd5b80600460006101000a81548173ffffffffffffffffffffffffffffffffffffffff021916908373ffffffffffffffffffffffffffffffffffffffff16021790555050565b7f000000000000000000000000000000000000000000000000000000000000000081565b600260009054906101000a900473ffffffffffffffffffffffffffffffffffffffff1673ffffffffffffffffffffffffffffffffffffffff163373ffffffffffffffffffffffffffffffffffffffff16148061073b57503373ffffffffffffffffffffffffffffffffffffffff1660008083815260200190815260200160002060000160009054906101000a900473ffffffffffffffffffffffffffffffffffffffff1673ffffffffffffffffffffffffffffffffffffffff16145b61077a576040517f08c379a000000000000000000000000000000000000000000000000000000000815260040161077190611ca2565b60405180910390fd5b7f000000000000000000000000000000000000000000000000000000000000000073ffffffffffffffffffffffffffffffffffffffff1663ee8ca3b5600080848152602001908152602001600020600501546040518263ffffffff1660e01b81526004016107e89190611cc2565b600060405180830381600087803b15801561080257600080fd5b505af1158015610816573d6000803e3d6000fd5b5050505050565b6000808390508073ffffffffffffffffffffffffffffffffffffffff166323b872dd3330886040518463ffffffff1660e01b815260040161086093929190611cdd565b6020604051808303816000875af115801561087f573d6000803e3d6000fd5b505050506040513d601f19601f820116820180604052508101906108a39190611d40565b506000600360009054906101000a900473ffffffffffffffffffffffffffffffffffffffff1673ffffffffffffffffffffffffffffffffffffffff166394f611346001546040516024016108f79190611770565b604051602081830303815290604052915060e01b6020820180517bffffffffffffffffffffffffffffffffffffffffffffffffffffffff8381831617835250505050905060006040518060400160405280600267ffffffffffffffff81111561096357610962611d6d565b5b6040519080825280602002602001820160405280156109915781602001602082028036833780820191505090505b508152602001600267ffffffffffffffff8111156109b2576109b1611d6d565b5b6040519080825280602002602001820160405280156109e557816020015b60608152602001906001900390816109d05790505b50815250905060008160000151600081518110610a0557610a04611d9c565b5b60200260200101906003811115610a1f57610a1e611dcb565b5b90816003811115610a3357610a32611dcb565b5b8152505060038160000151600181518110610a5157610a50611d9c565b5b60200260200101906003811115610a6b57610a6a611dcb565b5b90816003811115610a7f57610a7e611dcb565b5b81525050610b41600360009054906101000a900473ffffffffffffffffffffffffffffffffffffffff16600360009054906101000a900473ffffffffffffffffffffffffffffffffffffffff1673ffffffffffffffffffffffffffffffffffffffff166394e05b2c600154604051602401610afa9190611770565b604051602081830303815290604052915060e01b6020820180517bffffffffffffffffffffffffffffffffffffffffffffffffffffffff8381831617835250505050611516565b8160200151600081518110610b5957610b58611d9c565b5b6020026020010181905250610b6c611542565b8160200151600181518110610b8457610b83611d9c565b5b602002602001018190525060007f000000000000000000000000000000000000000000000000000000000000000073ffffffffffffffffffffffffffffffffffffffff16633323b467600360009054906101000a900473ffffffffffffffffffffffffffffffffffffffff16858573eeeeeeeeeeeeeeeeeeeeeeeeeeeeeeeeeeeeeeee6040518563ffffffff1660e01b8152600401610c2694939291906120d1565b6020604051808303816000875af1158015610c45573d6000803e3d6000fd5b505050506040513d601f19601f82011682018060405250810190610c699190612150565b90506040518060e001604052803373ffffffffffffffffffffffffffffffffffffffff1681526020018a81526020018981526020018873ffffffffffffffffffffffffffffffffffffffff1681526020018773ffffffffffffffffffffffffffffffffffffffff16815260200182815260200160001515815250600080600154815260200190815260200160002060008201518160000160006101000a81548173ffffffffffffffffffffffffffffffffffffffff021916908373ffffffffffffffffffffffffffffffffffffffff160217905550602082015181600101556040820151816002015560608201518160030160006101000a81548173ffffffffffffffffffffffffffffffffffffffff021916908373ffffffffffffffffffffffffffffffffffffffff16021790555060808201518160040160006101000a81548173ffffffffffffffffffffffffffffffffffffffff021916908373ffffffffffffffffffffffffffffffffffffffff16021790555060a0820151816005015560c08201518160060160006101000a81548160ff0219169083151502179055509050508373ffffffffffffffffffffffffffffffffffffffff1663a9059cbb600460009054906101000a900473ffffffffffffffffffffffffffffffffffffffff168a6040518363ffffffff1660e01b8152600401610e6a92919061217d565b6020604051808303816000875af1158015610e89573d6000803e3d6000fd5b505050506040513d601f19601f82011682018060405250810190610ead9190611d40565b50600460009054906101000a900473ffffffffffffffffffffffffffffffffffffffff1673ffffffffffffffffffffffffffffffffffffffff1663f45346dc888a336040518463ffffffff1660e01b8152600401610f0d93929190611b10565b600060405180830381600087803b158015610f2757600080fd5b505af1158015610f3b573d6000803e3d6000fd5b5050505060016000815480929190610f52906121d5565b91905055507ff29bb1c73c1b34ece9e10cb136610579d9b7cb3f424e0e58c2d22e958092e615600154604051610f889190612269565b60405180910390a1600154945050505050949350505050565b7f000000000000000000000000000000000000000000000000000000000000000073ffffffffffffffffffffffffffffffffffffffff163373ffffffffffffffffffffffffffffffffffffffff161461102f576040517f08c379a000000000000000000000000000000000000000000000000000000000815260040161102690612309565b60405180910390fd5b7f000000000000000000000000000000000000000000000000000000000000000073ffffffffffffffffffffffffffffffffffffffff16631c20fadd7f000000000000000000000000000000000000000000000000000000000000000083856040518463ffffffff1660e01b81526004016110ac93929190612338565b600060405180830381600087803b1580156110c657600080fd5b505af11580156110da573d6000803e3d6000fd5b505050505050565b600260009054906101000a900473ffffffffffffffffffffffffffffffffffffffff1673ffffffffffffffffffffffffffffffffffffffff163373ffffffffffffffffffffffffffffffffffffffff1614611172576040517f08c379a000000000000000000000000000000000000000000000000000000000815260040161116990611c36565b60405180910390fd5b80600360006101000a81548173ffffffffffffffffffffffffffffffffffffffff021916908373ffffffffffffffffffffffffffffffffffffffff16021790555050565b600360009054906101000a900473ffffffffffffffffffffffffffffffffffffffff1673ffffffffffffffffffffffffffffffffffffffff166391b7f5ed826040518263ffffffff1660e01b81526004016112119190611770565b600060405180830381600087803b15801561122b57600080fd5b505af115801561123f573d6000803e3d6000fd5b5050505050565b600360009054906101000a900473ffffffffffffffffffffffffffffffffffffffff1681565b60006020528060005260406000206000915090508060000160009054906101000a900473ffffffffffffffffffffffffffffffffffffffff16908060010154908060020154908060030160009054906101000a900473ffffffffffffffffffffffffffffffffffffffff16908060040160009054906101000a900473ffffffffffffffffffffffffffffffffffffffff16908060050154908060060160009054906101000a900460ff16905087565b600460009054906101000a900473ffffffffffffffffffffffffffffffffffffffff1681565b611349611559565b6000808381526020019081526020016000206040518060e00160405290816000820160009054906101000a900473ffffffffffffffffffffffffffffffffffffffff1673ffffffffffffffffffffffffffffffffffffffff1673ffffffffffffffffffffffffffffffffffffffff16815260200160018201548152602001600282015481526020016003820160009054906101000a900473ffffffffffffffffffffffffffffffffffffffff1673ffffffffffffffffffffffffffffffffffffffff1673ffffffffffffffffffffffffffffffffffffffff1681526020016004820160009054906101000a900473ffffffffffffffffffffffffffffffffffffffff1673ffffffffffffffffffffffffffffffffffffffff1673ffffffffffffffffffffffffffffffffffffffff168152602001600582015481526020016006820160009054906101000a900460ff1615151515815250509050919050565b7f000000000000000000000000000000000000000000000000000000000000000081565b7f000000000000000000000000000000000000000000000000000000000000000081565b600260009054906101000a900473ffffffffffffffffffffffffffffffffffffffff1681565b6060828260405160200161152b92919061236f565b604051602081830303815290604052905092915050565b606060405180602001604052806000815250905090565b6040518060e00160405280600073ffffffffffffffffffffffffffffffffffffffff1681526020016000815260200160008152602001600073ffffffffffffffffffffffffffffffffffffffff168152602001600073ffffffffffffffffffffffffffffffffffffffff168152602001600080191681526020016000151581525090565b600080fd5b6000819050919050565b6115f5816115e2565b811461160057600080fd5b50565b600081359050611612816115ec565b92915050565b60006020828403121561162e5761162d6115dd565b5b600061163c84828501611603565b91505092915050565b600073ffffffffffffffffffffffffffffffffffffffff82169050919050565b600061167082611645565b9050919050565b61168081611665565b82525050565b600060208201905061169b6000830184611677565b92915050565b6116aa81611665565b81146116b557600080fd5b50565b6000813590506116c7816116a1565b92915050565b6000602082840312156116e3576116e26115dd565b5b60006116f1848285016116b8565b91505092915050565b60008060008060808587031215611714576117136115dd565b5b600061172287828801611603565b945050602061173387828801611603565b9350506040611744878288016116b8565b9250506060611755878288016116b8565b91505092959194509250565b61176a816115e2565b82525050565b60006020820190506117856000830184611761565b92915050565b600080604083850312156117a2576117a16115dd565b5b60006117b085828601611603565b92505060206117c1858286016116b8565b9150509250929050565b60006117d682611645565b9050919050565b60006117e8826117cb565b9050919050565b6117f8816117dd565b811461180357600080fd5b50565b600081359050611815816117ef565b92915050565b600060208284031215611831576118306115dd565b5b600061183f84828501611806565b91505092915050565b6000819050919050565b600061186d61186861186384611645565b611848565b611645565b9050919050565b600061187f82611852565b9050919050565b600061189182611874565b9050919050565b6118a181611886565b82525050565b60006020820190506118bc6000830184611898565b92915050565b6000819050919050565b6118d5816118c2565b82525050565b60008115159050919050565b6118f0816118db565b82525050565b600060e08201905061190b600083018a611677565b6119186020830189611761565b6119256040830188611761565b6119326060830187611677565b61193f6080830186611677565b61194c60a08301856118cc565b61195960c08301846118e7565b98975050505050505050565b600061197082611852565b9050919050565b600061198282611965565b9050919050565b61199281611977565b82525050565b60006020820190506119ad6000830184611989565b92915050565b6119bc81611665565b82525050565b6119cb816115e2565b82525050565b6119da816118c2565b82525050565b6119e9816118db565b82525050565b60e082016000820151611a0560008501826119b3565b506020820151611a1860208501826119c2565b506040820151611a2b60408501826119c2565b506060820151611a3e60608501826119b3565b506080820151611a5160808501826119b3565b5060a0820151611a6460a08501826119d1565b5060c0820151611a7760c08501826119e0565b50505050565b600060e082019050611a9260008301846119ef565b92915050565b6000611aa382611965565b9050919050565b611ab381611a98565b82525050565b6000602082019050611ace6000830184611aaa565b92915050565b6000611adf82611965565b9050919050565b611aef81611ad4565b82525050565b6000602082019050611b0a6000830184611ae6565b92915050565b6000606082019050611b256000830186611677565b611b326020830185611761565b611b3f6040830184611677565b949350505050565b600082825260208201905092915050565b7f4f6e6c7920746865206578656375746f722063616e2073657420746865206f7260008201527f6465722061732065786563757465640000000000000000000000000000000000602082015250565b6000611bb4602f83611b47565b9150611bbf82611b58565b604082019050919050565b60006020820190508181036000830152611be381611ba7565b9050919050565b7f596f7520617265206e6f7420616c6c6f77656420746f20646f20746861740000600082015250565b6000611c20601e83611b47565b9150611c2b82611bea565b602082019050919050565b60006020820190508181036000830152611c4f81611c13565b9050919050565b7f4e6f7420616c6c6f77656420746f2063616e63656c2074686973206f72646572600082015250565b6000611c8c602083611b47565b9150611c9782611c56565b602082019050919050565b60006020820190508181036000830152611cbb81611c7f565b9050919050565b6000602082019050611cd760008301846118cc565b92915050565b6000606082019050611cf26000830186611677565b611cff6020830185611677565b611d0c6040830184611761565b949350505050565b611d1d816118db565b8114611d2857600080fd5b50565b600081519050611d3a81611d14565b92915050565b600060208284031215611d5657611d556115dd565b5b6000611d6484828501611d2b565b91505092915050565b7f4e487b7100000000000000000000000000000000000000000000000000000000600052604160045260246000fd5b7f4e487b7100000000000000000000000000000000000000000000000000000000600052603260045260246000fd5b7f4e487b7100000000000000000000000000000000000000000000000000000000600052602160045260246000fd5b600081519050919050565b600082825260208201905092915050565b60005b83811015611e34578082015181840152602081019050611e19565b60008484015250505050565b6000601f19601f8301169050919050565b6000611e5c82611dfa565b611e668185611e05565b9350611e76818560208601611e16565b611e7f81611e40565b840191505092915050565b600081519050919050565b600082825260208201905092915050565b6000819050602082019050919050565b60048110611ec757611ec6611dcb565b5b50565b6000819050611ed882611eb6565b919050565b6000611ee882611eca565b9050919050565b611ef881611edd565b82525050565b6000611f0a8383611eef565b60208301905092915050565b6000602082019050919050565b6000611f2e82611e8a565b611f388185611e95565b9350611f4383611ea6565b8060005b83811015611f74578151611f5b8882611efe565b9750611f6683611f16565b925050600181019050611f47565b5085935050505092915050565b600081519050919050565b600082825260208201905092915050565b6000819050602082019050919050565b600082825260208201905092915050565b6000611fc982611dfa565b611fd38185611fad565b9350611fe3818560208601611e16565b611fec81611e40565b840191505092915050565b60006120038383611fbe565b905092915050565b6000602082019050919050565b600061202382611f81565b61202d8185611f8c565b93508360208202850161203f85611f9d565b8060005b8581101561207b578484038952815161205c8582611ff7565b94506120678361200b565b925060208a01995050600181019050612043565b50829750879550505050505092915050565b600060408301600083015184820360008601526120aa8282611f23565b915050602083015184820360208601526120c48282612018565b9150508091505092915050565b60006080820190506120e66000830187611677565b81810360208301526120f88186611e51565b9050818103604083015261210c818561208d565b905061211b6060830184611677565b95945050505050565b61212d816118c2565b811461213857600080fd5b50565b60008151905061214a81612124565b92915050565b600060208284031215612166576121656115dd565b5b60006121748482850161213b565b91505092915050565b60006040820190506121926000830185611677565b61219f6020830184611761565b9392505050565b7f4e487b7100000000000000000000000000000000000000000000000000000000600052601160045260246000fd5b60006121e0826115e2565b91507fffffffffffffffffffffffffffffffffffffffffffffffffffffffffffffffff8203612212576122116121a6565b5b600182019050919050565b7f6f726465724e6f6e636500000000000000000000000000000000000000000000600082015250565b6000612253600a83611b47565b915061225e8261221d565b602082019050919050565b6000604082019050818103600083015261228281612246565b90506122916020830184611761565b92915050565b7f4f6e6c792066756e6473206f776e65722063616e20776974686472617720667560008201527f6e64730000000000000000000000000000000000000000000000000000000000602082015250565b60006122f3602383611b47565b91506122fe82612297565b604082019050919050565b60006020820190508181036000830152612322816122e6565b9050919050565b612332816117cb565b82525050565b600060608201905061234d6000830186612329565b61235a6020830185611677565b6123676040830184611761565b949350505050565b60006040820190506123846000830185611677565b81810360208301526123968184611e51565b9050939250505056fea264697066735822122055580f5375d2ec2b36444181a7f69acb474d573097cf38582389e9b77e12659264736f6c63430008130033",
  "immutableReferences": {
    "857": [
      {
        "length": 32,
        "start": 1916
      },
      {
        "length": 32,
        "start": 2963
      },
      {
        "length": 32,
        "start": 5326
      }
    ],
    "859": [
      {
        "length": 32,
        "start": 1146
      }
    ],
    "981": [
      {
        "length": 32,
        "start": 1629
      },
      {
        "length": 32,
        "start": 4003
      },
      {
        "length": 32,
        "start": 4205
      }
    ],
    "984": [
      {
        "length": 32,
        "start": 4145
      },
      {
        "length": 32,
        "start": 5290
      }
    ]
  },
  "source": "// SPDX-License-Identifier: UNLICENSED\npragma solidity ^0.8.19;\n\nimport \"./Types.sol\";\nimport \"./OrderExecutor.sol\";\nimport \"./OpsTaskCreator.sol\";\nimport './LendingVault.sol';\n\nstruct OrderDatas {\n    address user;\n    uint256 price;\n    uint256 amount;\n    address fromToken;\n    address toToken;\n    bytes32 orderId;\n    bool isExecuted;\n}\n\ncontract OrderBook is OpsTaskCreator {\n    mapping (uint => OrderDatas) public orders; // returns order data\n    uint orderNonce;\n    address public admin;\n    OrderExecutor public orderExecutor;\n    LendingVault public lendingVault;\n    event construct(string, address);\n    event orderCreated(string, uint256);\n\n    constructor(address _opsAddress) OpsTaskCreator(_opsAddress, address(this)) {\n        admin = msg.sender;\n    }\n\n    function setOrderExecutor(OrderExecutor _orderExecutorAddress) public {\n        require(msg.sender == admin, \"You are not allowed to do that\");\n        orderExecutor = _orderExecutorAddress;\n    }\n\n    function setLendingVault(address _lendingVaultAddress) public {\n        require(msg.sender == admin, \"You are not allowed to do that\");\n        lendingVault = LendingVault(_lendingVaultAddress);\n    } \n\n    function createOrder(uint price, uint amount, address fromToken, address toToken) external returns (uint) {\n        IERC20 FromToken = IERC20(fromToken);\n\n        // The user needs to approve this contract for the appropriate amount\n        FromToken.transferFrom(msg.sender, address(this), amount);\n\n        bytes memory execData = abi.encodeCall(orderExecutor.executeOrder, (orderNonce));\n\n        ModuleData memory moduleData = ModuleData({\n            modules: new Module[](2),\n            args: new bytes[](2)\n        });\n\n        moduleData.modules[0] = Module.RESOLVER;\n        moduleData.modules[1] = Module.SINGLE_EXEC;\n\n        moduleData.args[0] = _resolverModuleArg(address(orderExecutor), abi.encodeCall(orderExecutor.checker, (orderNonce)));\n        moduleData.args[1] = _singleExecModuleArg();\n\n        // Faulty\n        bytes32 orderId = ops.createTask(\n            address(orderExecutor), // contract to execute\n            execData, // function to execute\n            moduleData,\n            0xEeeeeEeeeEeEeeEeEeEeeEEEeeeeEeeeeeeeEEeE\n        );\n\n        orders[orderNonce] = OrderDatas(msg.sender, price, amount, fromToken, toToken, orderId, false);\n\n        // Transfer tokens to the vault\n        FromToken.transfer(address(lendingVault), amount); // approval needed to be able to swap liquidity\n        lendingVault.deposit(fromToken, amount, msg.sender); // depositing liquidity into the vault\n        //FromToken.transfer(address(lendingVault), amount);\n\n        orderNonce++;\n\n        emit orderCreated(\"orderNonce\", orderNonce);\n\n        return orderNonce;\n    }\n\n    function closeYieldStrategy(uint _orderNonce) public {\n        lendingVault.withdraw(orders[_orderNonce].fromToken, orders[_orderNonce].amount, orders[_orderNonce].user);\n    }\n\n    function cancelOrder(uint _orderNonce) external {\n        require(\n            msg.sender == admin || orders[_orderNonce].user == msg.sender,\n            \"Not allowed to cancel this order\"\n        );\n        ops.cancelTask(orders[_orderNonce].orderId);\n    }\n\n    // function to return executor address in order to check the txs\n    function getExecutorAddress() public view returns (address) {\n        return address(orderExecutor);\n    }\n\n    function setPrice(uint price) public {\n        orderExecutor.setPrice(price);\n    }\n\n    \n    function setExecuted(uint orderNonce) public {\n        require(msg.sender == address(orderExecutor), \"Only the executor can set the order as executed\");\n        orders[orderNonce].isExecuted = true;\n    }\n\n    function getOrder(uint orderNonce) public view returns (OrderDatas memory) {\n        return orders[orderNonce];\n    }\n\n}\n\n\n",
  "sourcePath": "/Users/blabla/Documents/gelato_test/contracts/OrderBook.sol",
  "compiler": {
    "name": "solc",
    "version": "0.8.19+commit.7dd6d404.Emscripten.clang"
  },
  "schemaVersion": "3.4.11",
  "updatedAt": "2023-03-04T04:57:56.440Z",
  "devdoc": {
    "kind": "dev",
    "methods": {
      "withdrawFunds(uint256,address)": {
        "details": "Withdraw funds from this contract's Gelato balance to fundsOwner."
      }
    },
    "version": 1
  },
  "userdoc": {
    "kind": "user",
    "methods": {},
    "version": 1
  }
}