{
  "contractName": "OrderExecutor",
  "abi": [
    {
      "inputs": [
        {
          "internalType": "address",
          "name": "_ops",
          "type": "address"
        },
        {
          "internalType": "address",
          "name": "_taskCreator",
          "type": "address"
        }
      ],
      "stateMutability": "nonpayable",
      "type": "constructor"
    },
    {
      "anonymous": false,
      "inputs": [
        {
          "indexed": false,
          "internalType": "string",
          "name": "",
          "type": "string"
        },
        {
          "indexed": false,
          "internalType": "uint256",
          "name": "",
          "type": "uint256"
        }
      ],
      "name": "OrderDone",
      "type": "event"
    },
    {
      "inputs": [],
      "name": "dedicatedMsgSender",
      "outputs": [
        {
          "internalType": "address",
          "name": "",
          "type": "address"
        }
      ],
      "stateMutability": "view",
      "type": "function"
    },
    {
      "inputs": [],
      "name": "ops",
      "outputs": [
        {
          "internalType": "contract IOps",
          "name": "",
          "type": "address"
        }
      ],
      "stateMutability": "view",
      "type": "function"
    },
    {
      "inputs": [],
      "name": "orderBook",
      "outputs": [
        {
          "internalType": "contract OrderBook",
          "name": "",
          "type": "address"
        }
      ],
      "stateMutability": "view",
      "type": "function"
    },
    {
      "stateMutability": "payable",
      "type": "receive"
    },
    {
      "inputs": [
        {
          "internalType": "uint256",
          "name": "_price",
          "type": "uint256"
        }
      ],
      "name": "setPrice",
      "outputs": [],
      "stateMutability": "nonpayable",
      "type": "function"
    },
    {
      "inputs": [
        {
          "internalType": "uint256",
          "name": "orderNonce",
          "type": "uint256"
        }
      ],
      "name": "executeOrder",
      "outputs": [],
      "stateMutability": "nonpayable",
      "type": "function"
    },
    {
      "inputs": [
        {
          "internalType": "uint256",
          "name": "orderNonce",
          "type": "uint256"
        }
      ],
      "name": "checker",
      "outputs": [
        {
          "internalType": "bool",
          "name": "canExec",
          "type": "bool"
        },
        {
          "internalType": "bytes",
          "name": "execPayload",
          "type": "bytes"
        }
      ],
      "stateMutability": "view",
      "type": "function"
    }
  ],
  "bytecode": "0x60e06040523480156200001157600080fd5b50604051620015ef380380620015ef833981810160405281019062000037919062000296565b81818173ffffffffffffffffffffffffffffffffffffffff1660808173ffffffffffffffffffffffffffffffffffffffff16815250508173ffffffffffffffffffffffffffffffffffffffff1663573ea5756040518163ffffffff1660e01b8152600401602060405180830381865afa158015620000b9573d6000803e3d6000fd5b505050506040513d601f19601f82011682018060405250810190620000df919062000322565b73ffffffffffffffffffffffffffffffffffffffff1660c08173ffffffffffffffffffffffffffffffffffffffff168152505073c815db16d4be6ddf2685c201937905abf338f5d773ffffffffffffffffffffffffffffffffffffffff1663ded89a7c826040518263ffffffff1660e01b815260040162000161919062000365565b6040805180830381865afa1580156200017e573d6000803e3d6000fd5b505050506040513d601f19601f82011682018060405250810190620001a49190620003bf565b508073ffffffffffffffffffffffffffffffffffffffff1660a09073ffffffffffffffffffffffffffffffffffffffff16815250505050606460008190555033600160006101000a81548173ffffffffffffffffffffffffffffffffffffffff021916908373ffffffffffffffffffffffffffffffffffffffff160217905550505062000406565b600080fd5b600073ffffffffffffffffffffffffffffffffffffffff82169050919050565b60006200025e8262000231565b9050919050565b620002708162000251565b81146200027c57600080fd5b50565b600081519050620002908162000265565b92915050565b60008060408385031215620002b057620002af6200022c565b5b6000620002c0858286016200027f565b9250506020620002d3858286016200027f565b9150509250929050565b6000620002ea8262000231565b9050919050565b620002fc81620002dd565b81146200030857600080fd5b50565b6000815190506200031c81620002f1565b92915050565b6000602082840312156200033b576200033a6200022c565b5b60006200034b848285016200030b565b91505092915050565b6200035f8162000251565b82525050565b60006020820190506200037c600083018462000354565b92915050565b60008115159050919050565b620003998162000382565b8114620003a557600080fd5b50565b600081519050620003b9816200038e565b92915050565b60008060408385031215620003d957620003d86200022c565b5b6000620003e9858286016200027f565b9250506020620003fc85828601620003a8565b9150509250929050565b60805160a05160c0516111ab62000444600039600081816104bf0152610593015260006101780152600081816103b501526103dc01526111ab6000f3fe6080604052600436106100595760003560e01c806328f150eb14610065578063776af5ba1461009057806391b7f5ed146100bb57806394e05b2c146100e457806394f6113414610122578063e70abe921461014b57610060565b3661006057005b600080fd5b34801561007157600080fd5b5061007a610176565b6040516100879190610918565b60405180910390f35b34801561009c57600080fd5b506100a561019a565b6040516100b29190610992565b60405180910390f35b3480156100c757600080fd5b506100e260048036038101906100dd91906109f2565b6101c0565b005b3480156100f057600080fd5b5061010b600480360381019061010691906109f2565b6101ca565b604051610119929190610aca565b60405180910390f35b34801561012e57600080fd5b50610149600480360381019061014491906109f2565b6102d1565b005b34801561015757600080fd5b506101606103b3565b60405161016d9190610b1b565b60405180910390f35b7f000000000000000000000000000000000000000000000000000000000000000081565b600160009054906101000a900473ffffffffffffffffffffffffffffffffffffffff1681565b8060008190555050565b60006060600054600160009054906101000a900473ffffffffffffffffffffffffffffffffffffffff1673ffffffffffffffffffffffffffffffffffffffff1663d09ef241856040518263ffffffff1660e01b815260040161022c9190610b45565b60e060405180830381865afa158015610249573d6000803e3d6000fd5b505050506040513d601f19601f8201168201806040525081019061026d9190610d37565b60200151149150826040516024016102859190610b45565b6040516020818303038152906040526394f6113460e01b6020820180517bffffffffffffffffffffffffffffffffffffffffffffffffffffffff83818316178352505050509050915091565b600160009054906101000a900473ffffffffffffffffffffffffffffffffffffffff1673ffffffffffffffffffffffffffffffffffffffff16632993c690826040518263ffffffff1660e01b815260040161032c9190610b45565b600060405180830381600087803b15801561034657600080fd5b505af115801561035a573d6000803e3d6000fd5b505050507f9e86ce0485ddb047dd0f8fde14218156b79c2832f3c1ae9d2a05aa746cb6e3be8160405161038d9190610dc1565b60405180910390a16000806103a06103d7565b915091506103ae8282610474565b505050565b7f000000000000000000000000000000000000000000000000000000000000000081565b6000807f000000000000000000000000000000000000000000000000000000000000000073ffffffffffffffffffffffffffffffffffffffff1663b810c6366040518163ffffffff1660e01b81526004016040805180830381865afa158015610444573d6000803e3d6000fd5b505050506040513d601f19601f820116820180604052508101906104689190610def565b80925081935050509091565b73eeeeeeeeeeeeeeeeeeeeeeeeeeeeeeeeeeeeeeee73ffffffffffffffffffffffffffffffffffffffff168173ffffffffffffffffffffffffffffffffffffffff160361058d5760007f000000000000000000000000000000000000000000000000000000000000000073ffffffffffffffffffffffffffffffffffffffff168360405161050190610e60565b60006040518083038185875af1925050503d806000811461053e576040519150601f19603f3d011682016040523d82523d6000602084013e610543565b606091505b5050905080610587576040517f08c379a000000000000000000000000000000000000000000000000000000000815260040161057e90610ec1565b60405180910390fd5b506105b9565b6105b8817f0000000000000000000000000000000000000000000000000000000000000000846105bd565b5b5050565b61063e8363a9059cbb60e01b84846040516024016105dc929190610ee1565b604051602081830303815290604052907bffffffffffffffffffffffffffffffffffffffffffffffffffffffff19166020820180517bffffffffffffffffffffffffffffffffffffffffffffffffffffffff8381831617835250505050610643565b505050565b60006106a5826040518060400160405280602081526020017f5361666545524332303a206c6f772d6c6576656c2063616c6c206661696c65648152508573ffffffffffffffffffffffffffffffffffffffff1661070a9092919063ffffffff16565b905060008151111561070557808060200190518101906106c59190610f0a565b610704576040517f08c379a00000000000000000000000000000000000000000000000000000000081526004016106fb90610fa9565b60405180910390fd5b5b505050565b60606107198484600085610722565b90509392505050565b606082471015610767576040517f08c379a000000000000000000000000000000000000000000000000000000000815260040161075e9061103b565b60405180910390fd5b6000808673ffffffffffffffffffffffffffffffffffffffff168587604051610790919061108c565b60006040518083038185875af1925050503d80600081146107cd576040519150601f19603f3d011682016040523d82523d6000602084013e6107d2565b606091505b50915091506107e3878383876107ef565b92505050949350505050565b606083156108515760008351036108495761080985610864565b610848576040517f08c379a000000000000000000000000000000000000000000000000000000000815260040161083f906110ef565b60405180910390fd5b5b82905061085c565b61085b8383610887565b5b949350505050565b6000808273ffffffffffffffffffffffffffffffffffffffff163b119050919050565b60008251111561089a5781518083602001fd5b806040517f08c379a00000000000000000000000000000000000000000000000000000000081526004016108ce9190611153565b60405180910390fd5b600073ffffffffffffffffffffffffffffffffffffffff82169050919050565b6000610902826108d7565b9050919050565b610912816108f7565b82525050565b600060208201905061092d6000830184610909565b92915050565b6000819050919050565b600061095861095361094e846108d7565b610933565b6108d7565b9050919050565b600061096a8261093d565b9050919050565b600061097c8261095f565b9050919050565b61098c81610971565b82525050565b60006020820190506109a76000830184610983565b92915050565b6000604051905090565b600080fd5b6000819050919050565b6109cf816109bc565b81146109da57600080fd5b50565b6000813590506109ec816109c6565b92915050565b600060208284031215610a0857610a076109b7565b5b6000610a16848285016109dd565b91505092915050565b60008115159050919050565b610a3481610a1f565b82525050565b600081519050919050565b600082825260208201905092915050565b60005b83811015610a74578082015181840152602081019050610a59565b60008484015250505050565b6000601f19601f8301169050919050565b6000610a9c82610a3a565b610aa68185610a45565b9350610ab6818560208601610a56565b610abf81610a80565b840191505092915050565b6000604082019050610adf6000830185610a2b565b8181036020830152610af18184610a91565b90509392505050565b6000610b058261095f565b9050919050565b610b1581610afa565b82525050565b6000602082019050610b306000830184610b0c565b92915050565b610b3f816109bc565b82525050565b6000602082019050610b5a6000830184610b36565b92915050565b600080fd5b7f4e487b7100000000000000000000000000000000000000000000000000000000600052604160045260246000fd5b610b9d82610a80565b810181811067ffffffffffffffff82111715610bbc57610bbb610b65565b5b80604052505050565b6000610bcf6109ad565b9050610bdb8282610b94565b919050565b610be9816108f7565b8114610bf457600080fd5b50565b600081519050610c0681610be0565b92915050565b600081519050610c1b816109c6565b92915050565b6000819050919050565b610c3481610c21565b8114610c3f57600080fd5b50565b600081519050610c5181610c2b565b92915050565b610c6081610a1f565b8114610c6b57600080fd5b50565b600081519050610c7d81610c57565b92915050565b600060e08284031215610c9957610c98610b60565b5b610ca360e0610bc5565b90506000610cb384828501610bf7565b6000830152506020610cc784828501610c0c565b6020830152506040610cdb84828501610c0c565b6040830152506060610cef84828501610bf7565b6060830152506080610d0384828501610bf7565b60808301525060a0610d1784828501610c42565b60a08301525060c0610d2b84828501610c6e565b60c08301525092915050565b600060e08284031215610d4d57610d4c6109b7565b5b6000610d5b84828501610c83565b91505092915050565b600082825260208201905092915050565b7f6f726465725f6578656375746564000000000000000000000000000000000000600082015250565b6000610dab600e83610d64565b9150610db682610d75565b602082019050919050565b60006040820190508181036000830152610dda81610d9e565b9050610de96020830184610b36565b92915050565b60008060408385031215610e0657610e056109b7565b5b6000610e1485828601610c0c565b9250506020610e2585828601610bf7565b9150509250929050565b600081905092915050565b50565b6000610e4a600083610e2f565b9150610e5582610e3a565b600082019050919050565b6000610e6b82610e3d565b9150819050919050565b7f5f7472616e736665723a20455448207472616e73666572206661696c65640000600082015250565b6000610eab601e83610d64565b9150610eb682610e75565b602082019050919050565b60006020820190508181036000830152610eda81610e9e565b9050919050565b6000604082019050610ef66000830185610909565b610f036020830184610b36565b9392505050565b600060208284031215610f2057610f1f6109b7565b5b6000610f2e84828501610c6e565b91505092915050565b7f5361666545524332303a204552433230206f7065726174696f6e20646964206e60008201527f6f74207375636365656400000000000000000000000000000000000000000000602082015250565b6000610f93602a83610d64565b9150610f9e82610f37565b604082019050919050565b60006020820190508181036000830152610fc281610f86565b9050919050565b7f416464726573733a20696e73756666696369656e742062616c616e636520666f60008201527f722063616c6c0000000000000000000000000000000000000000000000000000602082015250565b6000611025602683610d64565b915061103082610fc9565b604082019050919050565b6000602082019050818103600083015261105481611018565b9050919050565b600061106682610a3a565b6110708185610e2f565b9350611080818560208601610a56565b80840191505092915050565b6000611098828461105b565b915081905092915050565b7f416464726573733a2063616c6c20746f206e6f6e2d636f6e7472616374000000600082015250565b60006110d9601d83610d64565b91506110e4826110a3565b602082019050919050565b60006020820190508181036000830152611108816110cc565b9050919050565b600081519050919050565b60006111258261110f565b61112f8185610d64565b935061113f818560208601610a56565b61114881610a80565b840191505092915050565b6000602082019050818103600083015261116d818461111a565b90509291505056fea2646970667358221220a64f7a493cf887a5ba2cb7dfaaeef1738b3b4f299ef17c159fc035070960fe5e64736f6c63430008130033",
  "immutableReferences": {
    "853": [
      {
        "length": 32,
        "start": 949
      },
      {
        "length": 32,
        "start": 988
      }
    ],
    "855": [
      {
        "length": 32,
        "start": 376
      }
    ],
    "857": [
      {
        "length": 32,
        "start": 1215
      },
      {
        "length": 32,
        "start": 1427
      }
    ]
  },
  "source": "// SPDX-License-Identifier: UNLICENSED\npragma solidity ^0.8.19;\n\nimport \"./OpsReady.sol\";\nimport \"./OrderBook.sol\";\n\ncontract OrderExecutor is OpsReady {\n    uint price;\n    OrderBook public orderBook;\n    event OrderDone(string, uint256);\n\n    constructor(address _ops, address _taskCreator) OpsReady(_ops, _taskCreator) {\n        price = 100; // arbitrary price\n        orderBook = OrderBook(msg.sender);\n    }\n\n    function setPrice(uint _price) public {\n        price = _price;\n    }\n\n    receive() external payable {}\n\n    function executeOrder(uint orderNonce) external /*onlyDedicatedMsgSender*/ {\n        // execute order with orderNonce here\n        //orderBook.closeYieldStrategy(orderNonce);\n        orderBook.setExecuted(orderNonce);\n        emit OrderDone(\"order_executed\", orderNonce);\n        // \n        (uint256 fee, address feeToken) = _getFeeDetails();\n        _transfer(fee, feeToken);\n    }\n\n    function checker(uint orderNonce) external view returns (bool canExec, bytes memory execPayload) {\n        // check that liquidity is still into the vault\n        // require(vault.getLiquidity() > 0, \"No liquidity\");\n        canExec = orderBook.getOrder(orderNonce).price == price; // The condition that needs to be true for the task to be executed, you can filter the condition with the orderId\n        execPayload = abi.encodeCall(OrderExecutor.executeOrder, orderNonce); // The function that you want to call on the contract\n    }\n\n}\n",
  "sourcePath": "/Users/blabla/Documents/gelato_test/contracts/OrderExecutor.sol",
  "compiler": {
    "name": "solc",
    "version": "0.8.19+commit.7dd6d404.Emscripten.clang"
  },
  "schemaVersion": "3.4.11",
  "updatedAt": "2023-03-03T18:22:29.496Z",
  "devdoc": {
    "kind": "dev",
    "methods": {},
    "version": 1
  },
  "userdoc": {
    "kind": "user",
    "methods": {},
    "version": 1
  }
}