{
  "contractName": "OrderExecutor",
  "abi": [
    {
      "inputs": [
        {
          "internalType": "address",
          "name": "_ops",
          "type": "address"
        },
        {
          "internalType": "address",
          "name": "_taskCreator",
          "type": "address"
        },
        {
          "internalType": "address",
          "name": "_swapRouter",
          "type": "address"
        }
      ],
      "stateMutability": "nonpayable",
      "type": "constructor"
    },
    {
      "anonymous": false,
      "inputs": [
        {
          "indexed": false,
          "internalType": "string",
          "name": "",
          "type": "string"
        },
        {
          "indexed": false,
          "internalType": "uint256",
          "name": "",
          "type": "uint256"
        }
      ],
      "name": "OrderDone",
      "type": "event"
    },
    {
      "anonymous": false,
      "inputs": [
        {
          "indexed": false,
          "internalType": "string",
          "name": "",
          "type": "string"
        },
        {
          "indexed": false,
          "internalType": "uint256",
          "name": "",
          "type": "uint256"
        }
      ],
      "name": "SwapPreparation",
      "type": "event"
    },
    {
      "inputs": [],
      "name": "dedicatedMsgSender",
      "outputs": [
        {
          "internalType": "address",
          "name": "",
          "type": "address"
        }
      ],
      "stateMutability": "view",
      "type": "function",
      "constant": true
    },
    {
      "inputs": [],
      "name": "lendingVault",
      "outputs": [
        {
          "internalType": "contract LendingVault",
          "name": "",
          "type": "address"
        }
      ],
      "stateMutability": "view",
      "type": "function",
      "constant": true
    },
    {
      "inputs": [],
      "name": "ops",
      "outputs": [
        {
          "internalType": "contract IOps",
          "name": "",
          "type": "address"
        }
      ],
      "stateMutability": "view",
      "type": "function",
      "constant": true
    },
    {
      "inputs": [],
      "name": "orderBook",
      "outputs": [
        {
          "internalType": "contract OrderBook",
          "name": "",
          "type": "address"
        }
      ],
      "stateMutability": "view",
      "type": "function",
      "constant": true
    },
    {
      "inputs": [],
      "name": "swapRouter",
      "outputs": [
        {
          "internalType": "contract ISwapRouter",
          "name": "",
          "type": "address"
        }
      ],
      "stateMutability": "view",
      "type": "function",
      "constant": true
    },
    {
      "stateMutability": "payable",
      "type": "receive",
      "payable": true
    },
    {
      "inputs": [
        {
          "internalType": "uint256",
          "name": "_price",
          "type": "uint256"
        }
      ],
      "name": "setPrice",
      "outputs": [],
      "stateMutability": "nonpayable",
      "type": "function"
    },
    {
      "inputs": [],
      "name": "swapTest",
      "outputs": [],
      "stateMutability": "nonpayable",
      "type": "function"
    },
    {
      "inputs": [
        {
          "internalType": "address",
          "name": "_lendingVault",
          "type": "address"
        }
      ],
      "name": "setLendingVault",
      "outputs": [],
      "stateMutability": "nonpayable",
      "type": "function"
    },
    {
      "inputs": [
        {
          "internalType": "uint256",
          "name": "orderNonce",
          "type": "uint256"
        }
      ],
      "name": "executeOrder",
      "outputs": [],
      "stateMutability": "nonpayable",
      "type": "function"
    },
    {
      "inputs": [
        {
          "internalType": "uint256",
          "name": "orderNonce",
          "type": "uint256"
        }
      ],
      "name": "checker",
      "outputs": [
        {
          "internalType": "bool",
          "name": "canExec",
          "type": "bool"
        },
        {
          "internalType": "bytes",
          "name": "execPayload",
          "type": "bytes"
        }
      ],
      "stateMutability": "view",
      "type": "function",
      "constant": true
    },
    {
      "inputs": [],
      "name": "withdraw",
      "outputs": [],
      "stateMutability": "nonpayable",
      "type": "function"
    }
  ],
  "bytecode": "0x6101006040523480156200001257600080fd5b50604051620023333803806200233383398181016040528101906200003891906200030d565b82828173ffffffffffffffffffffffffffffffffffffffff1660808173ffffffffffffffffffffffffffffffffffffffff16815250508173ffffffffffffffffffffffffffffffffffffffff1663573ea5756040518163ffffffff1660e01b8152600401602060405180830381865afa158015620000ba573d6000803e3d6000fd5b505050506040513d601f19601f82011682018060405250810190620000e09190620003ae565b73ffffffffffffffffffffffffffffffffffffffff1660c08173ffffffffffffffffffffffffffffffffffffffff168152505073c815db16d4be6ddf2685c201937905abf338f5d773ffffffffffffffffffffffffffffffffffffffff1663ded89a7c826040518263ffffffff1660e01b8152600401620001629190620003f1565b6040805180830381865afa1580156200017f573d6000803e3d6000fd5b505050506040513d601f19601f82011682018060405250810190620001a591906200044b565b508073ffffffffffffffffffffffffffffffffffffffff1660a09073ffffffffffffffffffffffffffffffffffffffff16815250505050606460008190555033600160006101000a81548173ffffffffffffffffffffffffffffffffffffffff021916908373ffffffffffffffffffffffffffffffffffffffff16021790555081600260006101000a81548173ffffffffffffffffffffffffffffffffffffffff021916908373ffffffffffffffffffffffffffffffffffffffff1602179055508073ffffffffffffffffffffffffffffffffffffffff1660e08173ffffffffffffffffffffffffffffffffffffffff168152505050505062000492565b600080fd5b600073ffffffffffffffffffffffffffffffffffffffff82169050919050565b6000620002d582620002a8565b9050919050565b620002e781620002c8565b8114620002f357600080fd5b50565b6000815190506200030781620002dc565b92915050565b600080600060608486031215620003295762000328620002a3565b5b60006200033986828701620002f6565b93505060206200034c86828701620002f6565b92505060406200035f86828701620002f6565b9150509250925092565b60006200037682620002a8565b9050919050565b620003888162000369565b81146200039457600080fd5b50565b600081519050620003a8816200037d565b92915050565b600060208284031215620003c757620003c6620002a3565b5b6000620003d78482850162000397565b91505092915050565b620003eb81620002c8565b82525050565b6000602082019050620004086000830184620003e0565b92915050565b60008115159050919050565b62000425816200040e565b81146200043157600080fd5b50565b60008151905062000445816200041a565b92915050565b60008060408385031215620004655762000464620002a3565b5b60006200047585828601620002f6565b9250506020620004888582860162000434565b9150509250929050565b60805160a05160c05160e051611e52620004e1600039600081816104ed0152610ce6015260008181610e3a0152610f0e0152600061058d015260008181610d300152610d570152611e526000f3fe6080604052600436106100a05760003560e01c806391b7f5ed1161006457806391b7f5ed1461015957806394e05b2c1461018257806394f61134146101c0578063c31c9c07146101e9578063cb8c5a3a14610214578063e70abe921461023f576100a7565b8063176e1c0d146100ac57806328f150eb146100c35780633ccfd60b146100ee578063408a03d814610105578063776af5ba1461012e576100a7565b366100a757005b600080fd5b3480156100b857600080fd5b506100c161026a565b005b3480156100cf57600080fd5b506100d861058b565b6040516100e59190611293565b60405180910390f35b3480156100fa57600080fd5b506101036105af565b005b34801561011157600080fd5b5061012c600480360381019061012791906112e9565b610688565b005b34801561013a57600080fd5b506101436106cc565b6040516101509190611375565b60405180910390f35b34801561016557600080fd5b50610180600480360381019061017b91906113c6565b6106f2565b005b34801561018e57600080fd5b506101a960048036038101906101a491906113c6565b6106fc565b6040516101b792919061149e565b60405180910390f35b3480156101cc57600080fd5b506101e760048036038101906101e291906113c6565b610803565b005b3480156101f557600080fd5b506101fe610ce4565b60405161020b91906114ef565b60405180910390f35b34801561022057600080fd5b50610229610d08565b604051610236919061152b565b60405180910390f35b34801561024b57600080fd5b50610254610d2e565b6040516102619190611567565b60405180910390f35b6000604051806101000160405280600260009054906101000a900473ffffffffffffffffffffffffffffffffffffffff1673ffffffffffffffffffffffffffffffffffffffff1663d09ef24160006040518263ffffffff1660e01b81526004016102d491906115bd565b60e060405180830381865afa1580156102f1573d6000803e3d6000fd5b505050506040513d601f19601f820116820180604052508101906103159190611798565b6060015173ffffffffffffffffffffffffffffffffffffffff168152602001600260009054906101000a900473ffffffffffffffffffffffffffffffffffffffff1673ffffffffffffffffffffffffffffffffffffffff1663d09ef24160006040518263ffffffff1660e01b815260040161039091906115bd565b60e060405180830381865afa1580156103ad573d6000803e3d6000fd5b505050506040513d601f19601f820116820180604052508101906103d19190611798565b6080015173ffffffffffffffffffffffffffffffffffffffff168152602001610bb862ffffff168152602001600260009054906101000a900473ffffffffffffffffffffffffffffffffffffffff1673ffffffffffffffffffffffffffffffffffffffff1663d09ef24160006040518263ffffffff1660e01b815260040161045991906115bd565b60e060405180830381865afa158015610476573d6000803e3d6000fd5b505050506040513d601f19601f8201168201806040525081019061049a9190611798565b6000015173ffffffffffffffffffffffffffffffffffffffff168152602001428152602001600454815260200160008152602001600073ffffffffffffffffffffffffffffffffffffffff1681525090507f000000000000000000000000000000000000000000000000000000000000000073ffffffffffffffffffffffffffffffffffffffff1663414bf389826040518263ffffffff1660e01b815260040161054491906118b2565b6020604051808303816000875af1158015610563573d6000803e3d6000fd5b505050506040513d601f19601f8201168201806040525081019061058791906118ce565b5050565b7f000000000000000000000000000000000000000000000000000000000000000081565b600160009054906101000a900473ffffffffffffffffffffffffffffffffffffffff1673ffffffffffffffffffffffffffffffffffffffff163373ffffffffffffffffffffffffffffffffffffffff161461063f576040517f08c379a000000000000000000000000000000000000000000000000000000000815260040161063690611958565b60405180910390fd5b3373ffffffffffffffffffffffffffffffffffffffff166108fc479081150290604051600060405180830381858888f19350505050158015610685573d6000803e3d6000fd5b50565b80600360006101000a81548173ffffffffffffffffffffffffffffffffffffffff021916908373ffffffffffffffffffffffffffffffffffffffff16021790555050565b600260009054906101000a900473ffffffffffffffffffffffffffffffffffffffff1681565b8060008190555050565b60006060600054600260009054906101000a900473ffffffffffffffffffffffffffffffffffffffff1673ffffffffffffffffffffffffffffffffffffffff1663d09ef241856040518263ffffffff1660e01b815260040161075e9190611987565b60e060405180830381865afa15801561077b573d6000803e3d6000fd5b505050506040513d601f19601f8201168201806040525081019061079f9190611798565b60200151149150826040516024016107b79190611987565b6040516020818303038152906040526394f6113460e01b6020820180517bffffffffffffffffffffffffffffffffffffffffffffffffffffffff83818316178352505050509050915091565b6000600360009054906101000a900473ffffffffffffffffffffffffffffffffffffffff1673ffffffffffffffffffffffffffffffffffffffff1663f3fef3a3600260009054906101000a900473ffffffffffffffffffffffffffffffffffffffff1673ffffffffffffffffffffffffffffffffffffffff1663d09ef241856040518263ffffffff1660e01b815260040161089e9190611987565b60e060405180830381865afa1580156108bb573d6000803e3d6000fd5b505050506040513d601f19601f820116820180604052508101906108df9190611798565b60600151846040518363ffffffff1660e01b81526004016109019291906119a2565b6020604051808303816000875af1158015610920573d6000803e3d6000fd5b505050506040513d601f19601f8201168201806040525081019061094491906118ce565b9050806004819055506000604051806101000160405280600260009054906101000a900473ffffffffffffffffffffffffffffffffffffffff1673ffffffffffffffffffffffffffffffffffffffff1663d09ef241866040518263ffffffff1660e01b81526004016109b69190611987565b60e060405180830381865afa1580156109d3573d6000803e3d6000fd5b505050506040513d601f19601f820116820180604052508101906109f79190611798565b6060015173ffffffffffffffffffffffffffffffffffffffff168152602001600260009054906101000a900473ffffffffffffffffffffffffffffffffffffffff1673ffffffffffffffffffffffffffffffffffffffff1663d09ef241866040518263ffffffff1660e01b8152600401610a719190611987565b60e060405180830381865afa158015610a8e573d6000803e3d6000fd5b505050506040513d601f19601f82011682018060405250810190610ab29190611798565b6080015173ffffffffffffffffffffffffffffffffffffffff168152602001610bb862ffffff168152602001600260009054906101000a900473ffffffffffffffffffffffffffffffffffffffff1673ffffffffffffffffffffffffffffffffffffffff1663d09ef241866040518263ffffffff1660e01b8152600401610b399190611987565b60e060405180830381865afa158015610b56573d6000803e3d6000fd5b505050506040513d601f19601f82011682018060405250810190610b7a9190611798565b6000015173ffffffffffffffffffffffffffffffffffffffff16815260200142815260200183815260200160008152602001600073ffffffffffffffffffffffffffffffffffffffff1681525090507f968acf6ef80a9ea667e82e4115baa66625b32e527ec6f673ac940f3a43e8967882604051610bf89190611a17565b60405180910390a1600260009054906101000a900473ffffffffffffffffffffffffffffffffffffffff1673ffffffffffffffffffffffffffffffffffffffff16632993c690846040518263ffffffff1660e01b8152600401610c5b9190611987565b600060405180830381600087803b158015610c7557600080fd5b505af1158015610c89573d6000803e3d6000fd5b505050507f9e86ce0485ddb047dd0f8fde14218156b79c2832f3c1ae9d2a05aa746cb6e3be83604051610cbc9190611a91565b60405180910390a1600080610ccf610d52565b91509150610cdd8282610def565b5050505050565b7f000000000000000000000000000000000000000000000000000000000000000081565b600360009054906101000a900473ffffffffffffffffffffffffffffffffffffffff1681565b7f000000000000000000000000000000000000000000000000000000000000000081565b6000807f000000000000000000000000000000000000000000000000000000000000000073ffffffffffffffffffffffffffffffffffffffff1663b810c6366040518163ffffffff1660e01b81526004016040805180830381865afa158015610dbf573d6000803e3d6000fd5b505050506040513d601f19601f82011682018060405250810190610de39190611abf565b80925081935050509091565b73eeeeeeeeeeeeeeeeeeeeeeeeeeeeeeeeeeeeeeee73ffffffffffffffffffffffffffffffffffffffff168173ffffffffffffffffffffffffffffffffffffffff1603610f085760007f000000000000000000000000000000000000000000000000000000000000000073ffffffffffffffffffffffffffffffffffffffff1683604051610e7c90611b30565b60006040518083038185875af1925050503d8060008114610eb9576040519150601f19603f3d011682016040523d82523d6000602084013e610ebe565b606091505b5050905080610f02576040517f08c379a0000000000000000000000000000000000000000000000000000000008152600401610ef990611b91565b60405180910390fd5b50610f34565b610f33817f000000000000000000000000000000000000000000000000000000000000000084610f38565b5b5050565b610fb98363a9059cbb60e01b8484604051602401610f579291906119a2565b604051602081830303815290604052907bffffffffffffffffffffffffffffffffffffffffffffffffffffffff19166020820180517bffffffffffffffffffffffffffffffffffffffffffffffffffffffff8381831617835250505050610fbe565b505050565b6000611020826040518060400160405280602081526020017f5361666545524332303a206c6f772d6c6576656c2063616c6c206661696c65648152508573ffffffffffffffffffffffffffffffffffffffff166110859092919063ffffffff16565b905060008151111561108057808060200190518101906110409190611bb1565b61107f576040517f08c379a000000000000000000000000000000000000000000000000000000000815260040161107690611c50565b60405180910390fd5b5b505050565b6060611094848460008561109d565b90509392505050565b6060824710156110e2576040517f08c379a00000000000000000000000000000000000000000000000000000000081526004016110d990611ce2565b60405180910390fd5b6000808673ffffffffffffffffffffffffffffffffffffffff16858760405161110b9190611d33565b60006040518083038185875af1925050503d8060008114611148576040519150601f19603f3d011682016040523d82523d6000602084013e61114d565b606091505b509150915061115e8783838761116a565b92505050949350505050565b606083156111cc5760008351036111c457611184856111df565b6111c3576040517f08c379a00000000000000000000000000000000000000000000000000000000081526004016111ba90611d96565b60405180910390fd5b5b8290506111d7565b6111d68383611202565b5b949350505050565b6000808273ffffffffffffffffffffffffffffffffffffffff163b119050919050565b6000825111156112155781518083602001fd5b806040517f08c379a00000000000000000000000000000000000000000000000000000000081526004016112499190611dfa565b60405180910390fd5b600073ffffffffffffffffffffffffffffffffffffffff82169050919050565b600061127d82611252565b9050919050565b61128d81611272565b82525050565b60006020820190506112a86000830184611284565b92915050565b6000604051905090565b600080fd5b6112c681611272565b81146112d157600080fd5b50565b6000813590506112e3816112bd565b92915050565b6000602082840312156112ff576112fe6112b8565b5b600061130d848285016112d4565b91505092915050565b6000819050919050565b600061133b61133661133184611252565b611316565b611252565b9050919050565b600061134d82611320565b9050919050565b600061135f82611342565b9050919050565b61136f81611354565b82525050565b600060208201905061138a6000830184611366565b92915050565b6000819050919050565b6113a381611390565b81146113ae57600080fd5b50565b6000813590506113c08161139a565b92915050565b6000602082840312156113dc576113db6112b8565b5b60006113ea848285016113b1565b91505092915050565b60008115159050919050565b611408816113f3565b82525050565b600081519050919050565b600082825260208201905092915050565b60005b8381101561144857808201518184015260208101905061142d565b60008484015250505050565b6000601f19601f8301169050919050565b60006114708261140e565b61147a8185611419565b935061148a81856020860161142a565b61149381611454565b840191505092915050565b60006040820190506114b360008301856113ff565b81810360208301526114c58184611465565b90509392505050565b60006114d982611342565b9050919050565b6114e9816114ce565b82525050565b600060208201905061150460008301846114e0565b92915050565b600061151582611342565b9050919050565b6115258161150a565b82525050565b6000602082019050611540600083018461151c565b92915050565b600061155182611342565b9050919050565b61156181611546565b82525050565b600060208201905061157c6000830184611558565b92915050565b6000819050919050565b60006115a76115a261159d84611582565b611316565b611390565b9050919050565b6115b78161158c565b82525050565b60006020820190506115d260008301846115ae565b92915050565b600080fd5b7f4e487b7100000000000000000000000000000000000000000000000000000000600052604160045260246000fd5b61161582611454565b810181811067ffffffffffffffff82111715611634576116336115dd565b5b80604052505050565b60006116476112ae565b9050611653828261160c565b919050565b600081519050611667816112bd565b92915050565b60008151905061167c8161139a565b92915050565b6000819050919050565b61169581611682565b81146116a057600080fd5b50565b6000815190506116b28161168c565b92915050565b6116c1816113f3565b81146116cc57600080fd5b50565b6000815190506116de816116b8565b92915050565b600060e082840312156116fa576116f96115d8565b5b61170460e061163d565b9050600061171484828501611658565b60008301525060206117288482850161166d565b602083015250604061173c8482850161166d565b604083015250606061175084828501611658565b606083015250608061176484828501611658565b60808301525060a0611778848285016116a3565b60a08301525060c061178c848285016116cf565b60c08301525092915050565b600060e082840312156117ae576117ad6112b8565b5b60006117bc848285016116e4565b91505092915050565b6117ce81611272565b82525050565b600062ffffff82169050919050565b6117ec816117d4565b82525050565b6117fb81611390565b82525050565b61180a81611252565b82525050565b6101008201600082015161182760008501826117c5565b50602082015161183a60208501826117c5565b50604082015161184d60408501826117e3565b50606082015161186060608501826117c5565b50608082015161187360808501826117f2565b5060a082015161188660a08501826117f2565b5060c082015161189960c08501826117f2565b5060e08201516118ac60e0850182611801565b50505050565b6000610100820190506118c86000830184611810565b92915050565b6000602082840312156118e4576118e36112b8565b5b60006118f28482850161166d565b91505092915050565b600082825260208201905092915050565b7f6e6f7420616c6c6f776564206164647265737300000000000000000000000000600082015250565b60006119426013836118fb565b915061194d8261190c565b602082019050919050565b6000602082019050818103600083015261197181611935565b9050919050565b61198181611390565b82525050565b600060208201905061199c6000830184611978565b92915050565b60006040820190506119b76000830185611284565b6119c46020830184611978565b9392505050565b7f537761705f7072657061726174696f6e3d000000000000000000000000000000600082015250565b6000611a016011836118fb565b9150611a0c826119cb565b602082019050919050565b60006040820190508181036000830152611a30816119f4565b9050611a3f6020830184611978565b92915050565b7f6f726465725f6578656375746564000000000000000000000000000000000000600082015250565b6000611a7b600e836118fb565b9150611a8682611a45565b602082019050919050565b60006040820190508181036000830152611aaa81611a6e565b9050611ab96020830184611978565b92915050565b60008060408385031215611ad657611ad56112b8565b5b6000611ae48582860161166d565b9250506020611af585828601611658565b9150509250929050565b600081905092915050565b50565b6000611b1a600083611aff565b9150611b2582611b0a565b600082019050919050565b6000611b3b82611b0d565b9150819050919050565b7f5f7472616e736665723a20455448207472616e73666572206661696c65640000600082015250565b6000611b7b601e836118fb565b9150611b8682611b45565b602082019050919050565b60006020820190508181036000830152611baa81611b6e565b9050919050565b600060208284031215611bc757611bc66112b8565b5b6000611bd5848285016116cf565b91505092915050565b7f5361666545524332303a204552433230206f7065726174696f6e20646964206e60008201527f6f74207375636365656400000000000000000000000000000000000000000000602082015250565b6000611c3a602a836118fb565b9150611c4582611bde565b604082019050919050565b60006020820190508181036000830152611c6981611c2d565b9050919050565b7f416464726573733a20696e73756666696369656e742062616c616e636520666f60008201527f722063616c6c0000000000000000000000000000000000000000000000000000602082015250565b6000611ccc6026836118fb565b9150611cd782611c70565b604082019050919050565b60006020820190508181036000830152611cfb81611cbf565b9050919050565b6000611d0d8261140e565b611d178185611aff565b9350611d2781856020860161142a565b80840191505092915050565b6000611d3f8284611d02565b915081905092915050565b7f416464726573733a2063616c6c20746f206e6f6e2d636f6e7472616374000000600082015250565b6000611d80601d836118fb565b9150611d8b82611d4a565b602082019050919050565b60006020820190508181036000830152611daf81611d73565b9050919050565b600081519050919050565b6000611dcc82611db6565b611dd681856118fb565b9350611de681856020860161142a565b611def81611454565b840191505092915050565b60006020820190508181036000830152611e148184611dc1565b90509291505056fea2646970667358221220b21fb6b645b4ae637afcfc95b4f9dfb18c4e7194a6695b624ee157da8f694fd064736f6c63430008130033",
  "immutableReferences": {
    "921": [
      {
        "length": 32,
        "start": 3376
      },
      {
        "length": 32,
        "start": 3415
      }
    ],
    "923": [
      {
        "length": 32,
        "start": 1421
      }
    ],
    "925": [
      {
        "length": 32,
        "start": 3642
      },
      {
        "length": 32,
        "start": 3854
      }
    ],
    "1613": [
      {
        "length": 32,
        "start": 1261
      },
      {
        "length": 32,
        "start": 3302
      }
    ]
  },
  "source": "// SPDX-License-Identifier: UNLICENSED\npragma solidity ^0.8.19;\n\nimport \"./OpsReady.sol\";\nimport \"./OrderBook.sol\";\nimport './LendingVault.sol';\nimport \"./uniswap/ISwapRouter.sol\";\n\ncontract OrderExecutor is OpsReady {\n\n    uint price;\n    address deployer;\n\n    OrderBook public orderBook;\n    ISwapRouter public immutable swapRouter;\n\n    LendingVault public lendingVault;\n\n    event OrderDone(string, uint256);\n    event SwapPreparation(string, uint256);\n\n    constructor(address _ops, address _taskCreator, address _swapRouter) OpsReady(_ops, _taskCreator) {\n        price = 100; // arbitrary price\n        deployer = msg.sender;\n        orderBook = OrderBook(_taskCreator);\n        swapRouter = ISwapRouter(_swapRouter);\n    }\n\n    function setPrice(uint _price) public {\n        price = _price;\n    }\n\n    receive() external payable {}\n\n    uint256 swapTestAm;\n    function swapTest() public {\n        ISwapRouter.ExactInputSingleParams memory params =\n            ISwapRouter.ExactInputSingleParams({\n                tokenIn: orderBook.getOrder(0).tokenIn,\n                tokenOut: orderBook.getOrder(0).tokenOut,\n                fee: 3000, // For this example, we will set the pool fee to 0.3%\n                recipient: orderBook.getOrder(0).user,\n                deadline: block.timestamp,\n                amountIn: swapTestAm,\n                amountOutMinimum: 0, // NOT IN PRODUCTION\n                sqrtPriceLimitX96: 0 // NOT IN PRODUCTION\n            });\n\n        swapRouter.exactInputSingle(params);\n    }\n\n    function setLendingVault(address _lendingVault) public {\n        lendingVault = LendingVault(_lendingVault);\n    }\n\n    function executeOrder(uint orderNonce) external /*onlyDedicatedMsgSender*/ {\n        // execute order with orderNonce here\n        uint256 amountWithdrawed = lendingVault.withdraw(orderBook.getOrder(orderNonce).tokenIn, orderNonce);\n        swapTestAm = amountWithdrawed;\n        // Naively set amountOutMinimum to 0. In production, use an oracle or other data source to choose a safer value for amountOutMinimum.\n        // We also set the sqrtPriceLimitx96 to be 0 to ensure we swap our exact input amount.\n        ISwapRouter.ExactInputSingleParams memory params =\n            ISwapRouter.ExactInputSingleParams({\n                tokenIn: orderBook.getOrder(orderNonce).tokenIn,\n                tokenOut: orderBook.getOrder(orderNonce).tokenOut,\n                fee: 3000, // For this example, we will set the pool fee to 0.3%.\n                recipient: orderBook.getOrder(orderNonce).user,\n                deadline: block.timestamp,\n                amountIn: amountWithdrawed,\n                amountOutMinimum: 0, // NOT IN PRODUCTION\n                sqrtPriceLimitX96: 0 // NOT IN PRODUCTION\n            });\n        emit SwapPreparation(\"Swap_preparation=\", amountWithdrawed);\n        // The call to `exactInputSingle` executes the swap.\n        //swapRouter.exactInputSingle(params);\n        //IERC20(orderBook.getOrder(orderNonce).tokenOut).transfer(orderBook.getOrder(orderNonce).user, amountOut);\n\n        orderBook.setExecuted(orderNonce);\n        emit OrderDone(\"order_executed\", orderNonce);\n        // \n        (uint256 fee, address feeToken) = _getFeeDetails();\n        // on a les fees jusqu' l\n        _transfer(fee, feeToken);\n    }\n\n    function checker(uint orderNonce) external view returns (bool canExec, bytes memory execPayload) {\n        // check that liquidity is still into the vault\n        // require(vault.getLiquidity() > 0, \"No liquidity\");\n        canExec = orderBook.getOrder(orderNonce).price == price; // The condition that needs to be true for the task to be executed, you can filter the condition with the orderId\n        execPayload = abi.encodeCall(OrderExecutor.executeOrder, orderNonce); // The function that you want to call on the contract\n    }\n\n    // Only used for testing\n    function withdraw() public {\n        require(msg.sender == deployer, \"not allowed address\");\n        payable(msg.sender).transfer(address(this).balance);\n    }\n\n}\n",
  "sourcePath": "/Users/blabla/Documents/gelato_test/contracts/OrderExecutor.sol",
  "compiler": {
    "name": "solc",
    "version": "0.8.19+commit.7dd6d404.Emscripten.clang"
  },
  "schemaVersion": "3.4.11",
  "updatedAt": "2023-03-05T05:49:50.109Z",
  "networkType": "ethereum",
  "devdoc": {
    "kind": "dev",
    "methods": {},
    "version": 1
  },
  "userdoc": {
    "kind": "user",
    "methods": {},
    "version": 1
  }
}