{
  "contractName": "OrderExecutor",
  "abi": [
    {
      "inputs": [
        {
          "internalType": "address",
          "name": "_ops",
          "type": "address"
        },
        {
          "internalType": "address",
          "name": "_taskCreator",
          "type": "address"
        }
      ],
      "stateMutability": "nonpayable",
      "type": "constructor"
    },
    {
      "anonymous": false,
      "inputs": [
        {
          "indexed": false,
          "internalType": "string",
          "name": "",
          "type": "string"
        }
      ],
      "name": "OrderDone",
      "type": "event"
    },
    {
      "inputs": [],
      "name": "dedicatedMsgSender",
      "outputs": [
        {
          "internalType": "address",
          "name": "",
          "type": "address"
        }
      ],
      "stateMutability": "view",
      "type": "function"
    },
    {
      "inputs": [],
      "name": "ops",
      "outputs": [
        {
          "internalType": "contract IOps",
          "name": "",
          "type": "address"
        }
      ],
      "stateMutability": "view",
      "type": "function"
    },
    {
      "inputs": [],
      "name": "orderBook",
      "outputs": [
        {
          "internalType": "contract OrderBook",
          "name": "",
          "type": "address"
        }
      ],
      "stateMutability": "view",
      "type": "function"
    },
    {
      "stateMutability": "payable",
      "type": "receive"
    },
    {
      "inputs": [
        {
          "internalType": "uint256",
          "name": "_price",
          "type": "uint256"
        }
      ],
      "name": "setPrice",
      "outputs": [],
      "stateMutability": "nonpayable",
      "type": "function"
    },
    {
      "inputs": [
        {
          "internalType": "uint256",
          "name": "orderNonce",
          "type": "uint256"
        }
      ],
      "name": "executeOrder",
      "outputs": [],
      "stateMutability": "nonpayable",
      "type": "function"
    },
    {
      "inputs": [
        {
          "internalType": "uint256",
          "name": "orderNonce",
          "type": "uint256"
        }
      ],
      "name": "checker",
      "outputs": [
        {
          "internalType": "bool",
          "name": "canExec",
          "type": "bool"
        },
        {
          "internalType": "bytes",
          "name": "execPayload",
          "type": "bytes"
        }
      ],
      "stateMutability": "view",
      "type": "function"
    }
  ],
  "bytecode": "0x60e06040523480156200001157600080fd5b50604051620015df380380620015df833981810160405281019062000037919062000296565b81818173ffffffffffffffffffffffffffffffffffffffff1660808173ffffffffffffffffffffffffffffffffffffffff16815250508173ffffffffffffffffffffffffffffffffffffffff1663573ea5756040518163ffffffff1660e01b8152600401602060405180830381865afa158015620000b9573d6000803e3d6000fd5b505050506040513d601f19601f82011682018060405250810190620000df919062000322565b73ffffffffffffffffffffffffffffffffffffffff1660c08173ffffffffffffffffffffffffffffffffffffffff168152505073c815db16d4be6ddf2685c201937905abf338f5d773ffffffffffffffffffffffffffffffffffffffff1663ded89a7c826040518263ffffffff1660e01b815260040162000161919062000365565b6040805180830381865afa1580156200017e573d6000803e3d6000fd5b505050506040513d601f19601f82011682018060405250810190620001a49190620003bf565b508073ffffffffffffffffffffffffffffffffffffffff1660a09073ffffffffffffffffffffffffffffffffffffffff16815250505050606460008190555033600160006101000a81548173ffffffffffffffffffffffffffffffffffffffff021916908373ffffffffffffffffffffffffffffffffffffffff160217905550505062000406565b600080fd5b600073ffffffffffffffffffffffffffffffffffffffff82169050919050565b60006200025e8262000231565b9050919050565b620002708162000251565b81146200027c57600080fd5b50565b600081519050620002908162000265565b92915050565b60008060408385031215620002b057620002af6200022c565b5b6000620002c0858286016200027f565b9250506020620002d3858286016200027f565b9150509250929050565b6000620002ea8262000231565b9050919050565b620002fc81620002dd565b81146200030857600080fd5b50565b6000815190506200031c81620002f1565b92915050565b6000602082840312156200033b576200033a6200022c565b5b60006200034b848285016200030b565b91505092915050565b6200035f8162000251565b82525050565b60006020820190506200037c600083018462000354565b92915050565b60008115159050919050565b620003998162000382565b8114620003a557600080fd5b50565b600081519050620003b9816200038e565b92915050565b60008060408385031215620003d957620003d86200022c565b5b6000620003e9858286016200027f565b9250506020620003fc85828601620003a8565b9150509250929050565b60805160a05160c05161119b62000444600039600081816104bd0152610591015260006101780152600081816103b301526103da015261119b6000f3fe6080604052600436106100595760003560e01c806328f150eb14610065578063776af5ba1461009057806391b7f5ed146100bb57806394e05b2c146100e457806394f6113414610122578063e70abe921461014b57610060565b3661006057005b600080fd5b34801561007157600080fd5b5061007a610176565b6040516100879190610916565b60405180910390f35b34801561009c57600080fd5b506100a561019a565b6040516100b29190610990565b60405180910390f35b3480156100c757600080fd5b506100e260048036038101906100dd91906109f0565b6101c0565b005b3480156100f057600080fd5b5061010b600480360381019061010691906109f0565b6101ca565b604051610119929190610ac8565b60405180910390f35b34801561012e57600080fd5b50610149600480360381019061014491906109f0565b6102d1565b005b34801561015757600080fd5b506101606103b1565b60405161016d9190610b19565b60405180910390f35b7f000000000000000000000000000000000000000000000000000000000000000081565b600160009054906101000a900473ffffffffffffffffffffffffffffffffffffffff1681565b8060008190555050565b60006060600054600160009054906101000a900473ffffffffffffffffffffffffffffffffffffffff1673ffffffffffffffffffffffffffffffffffffffff1663d09ef241856040518263ffffffff1660e01b815260040161022c9190610b43565b60e060405180830381865afa158015610249573d6000803e3d6000fd5b505050506040513d601f19601f8201168201806040525081019061026d9190610d35565b60200151149150826040516024016102859190610b43565b6040516020818303038152906040526394f6113460e01b6020820180517bffffffffffffffffffffffffffffffffffffffffffffffffffffffff83818316178352505050509050915091565b600160009054906101000a900473ffffffffffffffffffffffffffffffffffffffff1673ffffffffffffffffffffffffffffffffffffffff16632993c690826040518263ffffffff1660e01b815260040161032c9190610b43565b600060405180830381600087803b15801561034657600080fd5b505af115801561035a573d6000803e3d6000fd5b505050507fee02c8198e15339d816eee1c984a22b43d97a3fd967befcfdb05b9b1c98eda3f60405161038b90610dbf565b60405180910390a160008061039e6103d5565b915091506103ac8282610472565b505050565b7f000000000000000000000000000000000000000000000000000000000000000081565b6000807f000000000000000000000000000000000000000000000000000000000000000073ffffffffffffffffffffffffffffffffffffffff1663b810c6366040518163ffffffff1660e01b81526004016040805180830381865afa158015610442573d6000803e3d6000fd5b505050506040513d601f19601f820116820180604052508101906104669190610ddf565b80925081935050509091565b73eeeeeeeeeeeeeeeeeeeeeeeeeeeeeeeeeeeeeeee73ffffffffffffffffffffffffffffffffffffffff168173ffffffffffffffffffffffffffffffffffffffff160361058b5760007f000000000000000000000000000000000000000000000000000000000000000073ffffffffffffffffffffffffffffffffffffffff16836040516104ff90610e50565b60006040518083038185875af1925050503d806000811461053c576040519150601f19603f3d011682016040523d82523d6000602084013e610541565b606091505b5050905080610585576040517f08c379a000000000000000000000000000000000000000000000000000000000815260040161057c90610eb1565b60405180910390fd5b506105b7565b6105b6817f0000000000000000000000000000000000000000000000000000000000000000846105bb565b5b5050565b61063c8363a9059cbb60e01b84846040516024016105da929190610ed1565b604051602081830303815290604052907bffffffffffffffffffffffffffffffffffffffffffffffffffffffff19166020820180517bffffffffffffffffffffffffffffffffffffffffffffffffffffffff8381831617835250505050610641565b505050565b60006106a3826040518060400160405280602081526020017f5361666545524332303a206c6f772d6c6576656c2063616c6c206661696c65648152508573ffffffffffffffffffffffffffffffffffffffff166107089092919063ffffffff16565b905060008151111561070357808060200190518101906106c39190610efa565b610702576040517f08c379a00000000000000000000000000000000000000000000000000000000081526004016106f990610f99565b60405180910390fd5b5b505050565b60606107178484600085610720565b90509392505050565b606082471015610765576040517f08c379a000000000000000000000000000000000000000000000000000000000815260040161075c9061102b565b60405180910390fd5b6000808673ffffffffffffffffffffffffffffffffffffffff16858760405161078e919061107c565b60006040518083038185875af1925050503d80600081146107cb576040519150601f19603f3d011682016040523d82523d6000602084013e6107d0565b606091505b50915091506107e1878383876107ed565b92505050949350505050565b6060831561084f5760008351036108475761080785610862565b610846576040517f08c379a000000000000000000000000000000000000000000000000000000000815260040161083d906110df565b60405180910390fd5b5b82905061085a565b6108598383610885565b5b949350505050565b6000808273ffffffffffffffffffffffffffffffffffffffff163b119050919050565b6000825111156108985781518083602001fd5b806040517f08c379a00000000000000000000000000000000000000000000000000000000081526004016108cc9190611143565b60405180910390fd5b600073ffffffffffffffffffffffffffffffffffffffff82169050919050565b6000610900826108d5565b9050919050565b610910816108f5565b82525050565b600060208201905061092b6000830184610907565b92915050565b6000819050919050565b600061095661095161094c846108d5565b610931565b6108d5565b9050919050565b60006109688261093b565b9050919050565b600061097a8261095d565b9050919050565b61098a8161096f565b82525050565b60006020820190506109a56000830184610981565b92915050565b6000604051905090565b600080fd5b6000819050919050565b6109cd816109ba565b81146109d857600080fd5b50565b6000813590506109ea816109c4565b92915050565b600060208284031215610a0657610a056109b5565b5b6000610a14848285016109db565b91505092915050565b60008115159050919050565b610a3281610a1d565b82525050565b600081519050919050565b600082825260208201905092915050565b60005b83811015610a72578082015181840152602081019050610a57565b60008484015250505050565b6000601f19601f8301169050919050565b6000610a9a82610a38565b610aa48185610a43565b9350610ab4818560208601610a54565b610abd81610a7e565b840191505092915050565b6000604082019050610add6000830185610a29565b8181036020830152610aef8184610a8f565b90509392505050565b6000610b038261095d565b9050919050565b610b1381610af8565b82525050565b6000602082019050610b2e6000830184610b0a565b92915050565b610b3d816109ba565b82525050565b6000602082019050610b586000830184610b34565b92915050565b600080fd5b7f4e487b7100000000000000000000000000000000000000000000000000000000600052604160045260246000fd5b610b9b82610a7e565b810181811067ffffffffffffffff82111715610bba57610bb9610b63565b5b80604052505050565b6000610bcd6109ab565b9050610bd98282610b92565b919050565b610be7816108f5565b8114610bf257600080fd5b50565b600081519050610c0481610bde565b92915050565b600081519050610c19816109c4565b92915050565b6000819050919050565b610c3281610c1f565b8114610c3d57600080fd5b50565b600081519050610c4f81610c29565b92915050565b610c5e81610a1d565b8114610c6957600080fd5b50565b600081519050610c7b81610c55565b92915050565b600060e08284031215610c9757610c96610b5e565b5b610ca160e0610bc3565b90506000610cb184828501610bf5565b6000830152506020610cc584828501610c0a565b6020830152506040610cd984828501610c0a565b6040830152506060610ced84828501610bf5565b6060830152506080610d0184828501610bf5565b60808301525060a0610d1584828501610c40565b60a08301525060c0610d2984828501610c6c565b60c08301525092915050565b600060e08284031215610d4b57610d4a6109b5565b5b6000610d5984828501610c81565b91505092915050565b600082825260208201905092915050565b7f6f72646572206578656375746564000000000000000000000000000000000000600082015250565b6000610da9600e83610d62565b9150610db482610d73565b602082019050919050565b60006020820190508181036000830152610dd881610d9c565b9050919050565b60008060408385031215610df657610df56109b5565b5b6000610e0485828601610c0a565b9250506020610e1585828601610bf5565b9150509250929050565b600081905092915050565b50565b6000610e3a600083610e1f565b9150610e4582610e2a565b600082019050919050565b6000610e5b82610e2d565b9150819050919050565b7f5f7472616e736665723a20455448207472616e73666572206661696c65640000600082015250565b6000610e9b601e83610d62565b9150610ea682610e65565b602082019050919050565b60006020820190508181036000830152610eca81610e8e565b9050919050565b6000604082019050610ee66000830185610907565b610ef36020830184610b34565b9392505050565b600060208284031215610f1057610f0f6109b5565b5b6000610f1e84828501610c6c565b91505092915050565b7f5361666545524332303a204552433230206f7065726174696f6e20646964206e60008201527f6f74207375636365656400000000000000000000000000000000000000000000602082015250565b6000610f83602a83610d62565b9150610f8e82610f27565b604082019050919050565b60006020820190508181036000830152610fb281610f76565b9050919050565b7f416464726573733a20696e73756666696369656e742062616c616e636520666f60008201527f722063616c6c0000000000000000000000000000000000000000000000000000602082015250565b6000611015602683610d62565b915061102082610fb9565b604082019050919050565b6000602082019050818103600083015261104481611008565b9050919050565b600061105682610a38565b6110608185610e1f565b9350611070818560208601610a54565b80840191505092915050565b6000611088828461104b565b915081905092915050565b7f416464726573733a2063616c6c20746f206e6f6e2d636f6e7472616374000000600082015250565b60006110c9601d83610d62565b91506110d482611093565b602082019050919050565b600060208201905081810360008301526110f8816110bc565b9050919050565b600081519050919050565b6000611115826110ff565b61111f8185610d62565b935061112f818560208601610a54565b61113881610a7e565b840191505092915050565b6000602082019050818103600083015261115d818461110a565b90509291505056fea26469706673582212201f1e04c5b4df0b20c0c2fe1f009e280968a6f3431f11cc8bda40030295022e5b64736f6c63430008130033",
  "immutableReferences": {
    "1399": [
      {
        "length": 32,
        "start": 947
      },
      {
        "length": 32,
        "start": 986
      }
    ],
    "1401": [
      {
        "length": 32,
        "start": 376
      }
    ],
    "1403": [
      {
        "length": 32,
        "start": 1213
      },
      {
        "length": 32,
        "start": 1425
      }
    ]
  },
  "source": "// SPDX-License-Identifier: UNLICENSED\npragma solidity ^0.8.19;\n\nimport \"./OpsReady.sol\";\nimport \"./OrderBook.sol\";\n\ncontract OrderExecutor is OpsReady {\n    uint price;\n    OrderBook public orderBook;\n    event OrderDone(string);\n\n    constructor(address _ops, address _taskCreator) OpsReady(_ops, _taskCreator) {\n        price = 100; // arbitrary price\n        orderBook = OrderBook(msg.sender);\n    }\n\n    function setPrice(uint _price) public {\n        price = _price;\n    }\n\n    receive() external payable {}\n\n    function executeOrder(uint orderNonce) external /*onlyDedicatedMsgSender*/ {\n        // execute order with orderNonce here\n        orderBook.setExecuted(orderNonce);\n        emit OrderDone(\"order executed\");\n        // \n        (uint256 fee, address feeToken) = _getFeeDetails();\n        _transfer(fee, feeToken);\n    }\n\n    function checker(uint orderNonce) external view returns (bool canExec, bytes memory execPayload) {\n        canExec = orderBook.getOrder(orderNonce).price == price; // The condition that needs to be true for the task to be executed, you can filter the condition with the orderId\n        execPayload = abi.encodeCall(OrderExecutor.executeOrder, orderNonce); // The function that you want to call on the contract\n    }\n\n}\n\n\n",
  "sourcePath": "/Users/blabla/Documents/gelato_test/contracts/OrderExecutor.sol",
  "compiler": {
    "name": "solc",
    "version": "0.8.19+commit.7dd6d404.Emscripten.clang"
  },
  "schemaVersion": "3.4.11",
  "updatedAt": "2023-03-01T23:10:35.262Z",
  "devdoc": {
    "kind": "dev",
    "methods": {},
    "version": 1
  },
  "userdoc": {
    "kind": "user",
    "methods": {},
    "version": 1
  }
}