{
  "contractName": "OrderBook",
  "abi": [
    {
      "inputs": [],
      "stateMutability": "nonpayable",
      "type": "constructor"
    },
    {
      "inputs": [],
      "name": "admin",
      "outputs": [
        {
          "internalType": "address",
          "name": "",
          "type": "address"
        }
      ],
      "stateMutability": "view",
      "type": "function",
      "constant": true
    },
    {
      "inputs": [],
      "name": "dedicatedMsgSender",
      "outputs": [
        {
          "internalType": "address",
          "name": "",
          "type": "address"
        }
      ],
      "stateMutability": "view",
      "type": "function",
      "constant": true
    },
    {
      "inputs": [],
      "name": "fundsOwner",
      "outputs": [
        {
          "internalType": "address",
          "name": "",
          "type": "address"
        }
      ],
      "stateMutability": "view",
      "type": "function",
      "constant": true
    },
    {
      "inputs": [],
      "name": "ops",
      "outputs": [
        {
          "internalType": "contract IOps",
          "name": "",
          "type": "address"
        }
      ],
      "stateMutability": "view",
      "type": "function",
      "constant": true
    },
    {
      "inputs": [],
      "name": "orderExecutor",
      "outputs": [
        {
          "internalType": "contract OrderExecutor",
          "name": "",
          "type": "address"
        }
      ],
      "stateMutability": "view",
      "type": "function",
      "constant": true
    },
    {
      "inputs": [
        {
          "internalType": "uint256",
          "name": "",
          "type": "uint256"
        }
      ],
      "name": "orders",
      "outputs": [
        {
          "internalType": "address",
          "name": "user",
          "type": "address"
        },
        {
          "internalType": "uint256",
          "name": "price",
          "type": "uint256"
        },
        {
          "internalType": "address",
          "name": "fromToken",
          "type": "address"
        },
        {
          "internalType": "address",
          "name": "toToken",
          "type": "address"
        },
        {
          "internalType": "bytes32",
          "name": "orderId",
          "type": "bytes32"
        }
      ],
      "stateMutability": "view",
      "type": "function",
      "constant": true
    },
    {
      "inputs": [],
      "name": "taskTreasury",
      "outputs": [
        {
          "internalType": "contract ITaskTreasuryUpgradable",
          "name": "",
          "type": "address"
        }
      ],
      "stateMutability": "view",
      "type": "function",
      "constant": true
    },
    {
      "inputs": [
        {
          "internalType": "uint256",
          "name": "_amount",
          "type": "uint256"
        },
        {
          "internalType": "address",
          "name": "_token",
          "type": "address"
        }
      ],
      "name": "withdrawFunds",
      "outputs": [],
      "stateMutability": "nonpayable",
      "type": "function"
    },
    {
      "inputs": [
        {
          "internalType": "uint256",
          "name": "price",
          "type": "uint256"
        },
        {
          "internalType": "address",
          "name": "fromToken",
          "type": "address"
        },
        {
          "internalType": "address",
          "name": "toToken",
          "type": "address"
        }
      ],
      "name": "createOrder",
      "outputs": [
        {
          "internalType": "uint256",
          "name": "",
          "type": "uint256"
        }
      ],
      "stateMutability": "nonpayable",
      "type": "function"
    },
    {
      "inputs": [
        {
          "internalType": "uint256",
          "name": "_orderNonce",
          "type": "uint256"
        }
      ],
      "name": "cancelOrder",
      "outputs": [],
      "stateMutability": "nonpayable",
      "type": "function"
    },
    {
      "inputs": [],
      "name": "getExecutorAddress",
      "outputs": [
        {
          "internalType": "address",
          "name": "",
          "type": "address"
        }
      ],
      "stateMutability": "view",
      "type": "function",
      "constant": true
    },
    {
      "inputs": [],
      "name": "toggleExecutorCondition",
      "outputs": [],
      "stateMutability": "nonpayable",
      "type": "function"
    }
  ],
  "bytecode": "0x6101206040523480156200001257600080fd5b5073c1c6805b857bef1f412519c4a842522431afed393081308173ffffffffffffffffffffffffffffffffffffffff1660808173ffffffffffffffffffffffffffffffffffffffff16815250508173ffffffffffffffffffffffffffffffffffffffff1663573ea5756040518163ffffffff1660e01b8152600401602060405180830381865afa158015620000ab573d6000803e3d6000fd5b505050506040513d601f19601f82011682018060405250810190620000d1919062000403565b73ffffffffffffffffffffffffffffffffffffffff1660c08173ffffffffffffffffffffffffffffffffffffffff168152505073c815db16d4be6ddf2685c201937905abf338f5d773ffffffffffffffffffffffffffffffffffffffff1663ded89a7c826040518263ffffffff1660e01b81526004016200015391906200045a565b6040805180830381865afa15801562000170573d6000803e3d6000fd5b505050506040513d601f19601f82011682018060405250810190620001969190620004e5565b508073ffffffffffffffffffffffffffffffffffffffff1660a09073ffffffffffffffffffffffffffffffffffffffff168152505050508073ffffffffffffffffffffffffffffffffffffffff1660e08173ffffffffffffffffffffffffffffffffffffffff168152505060805173ffffffffffffffffffffffffffffffffffffffff1663e60a32136040518163ffffffff1660e01b8152600401602060405180830381865afa1580156200024f573d6000803e3d6000fd5b505050506040513d601f19601f8201168201806040525081019062000275919062000571565b73ffffffffffffffffffffffffffffffffffffffff166101008173ffffffffffffffffffffffffffffffffffffffff168152505050506080517308f6dde16166f06e1d486749452dc3a44f175456604051620002d1906200038b565b620002de929190620005a3565b604051809103906000f080158015620002fb573d6000803e3d6000fd5b50600360006101000a81548173ffffffffffffffffffffffffffffffffffffffff021916908373ffffffffffffffffffffffffffffffffffffffff16021790555033600260006101000a81548173ffffffffffffffffffffffffffffffffffffffff021916908373ffffffffffffffffffffffffffffffffffffffff1602179055506000600181905550620005d0565b6112318062001c7983390190565b600080fd5b600073ffffffffffffffffffffffffffffffffffffffff82169050919050565b6000620003cb826200039e565b9050919050565b620003dd81620003be565b8114620003e957600080fd5b50565b600081519050620003fd81620003d2565b92915050565b6000602082840312156200041c576200041b62000399565b5b60006200042c84828501620003ec565b91505092915050565b600062000442826200039e565b9050919050565b620004548162000435565b82525050565b600060208201905062000471600083018462000449565b92915050565b620004828162000435565b81146200048e57600080fd5b50565b600081519050620004a28162000477565b92915050565b60008115159050919050565b620004bf81620004a8565b8114620004cb57600080fd5b50565b600081519050620004df81620004b4565b92915050565b60008060408385031215620004ff57620004fe62000399565b5b60006200050f8582860162000491565b92505060206200052285828601620004ce565b9150509250929050565b6000620005398262000435565b9050919050565b6200054b816200052c565b81146200055757600080fd5b50565b6000815190506200056b8162000540565b92915050565b6000602082840312156200058a576200058962000399565b5b60006200059a848285016200055a565b91505092915050565b6000604082019050620005ba600083018562000449565b620005c9602083018462000449565b9392505050565b60805160a05160c05160e0516101005161164462000635600039600081816105550152610c09015260008181610305015281816104c701526105910152600050506000610233015260008181610424015281816109b20152610c2d01526116446000f3fe608060405234801561001057600080fd5b50600436106100b45760003560e01c8063a849d64411610071578063a849d64414610155578063a85c38ef14610173578063bf3cfc39146101a7578063e60a3213146101d7578063e70abe92146101f5578063f851a44014610213576100b4565b806328f150eb146100b9578063319a41a5146100d7578063350157a8146100e157806346ee3c59146100ff578063514fcac71461011d578063744bfe6114610139575b600080fd5b6100c1610231565b6040516100ce9190610cf9565b60405180910390f35b6100df610255565b005b6100e96102d9565b6040516100f69190610cf9565b60405180910390f35b610107610303565b6040516101149190610cf9565b60405180910390f35b61013760048036038101906101329190610d4f565b610327565b005b610153600480360381019061014e9190610da8565b6104c5565b005b61015d610606565b60405161016a9190610e47565b60405180910390f35b61018d60048036038101906101889190610d4f565b61062c565b60405161019e959493929190610e8a565b60405180910390f35b6101c160048036038101906101bc9190610edd565b6106c2565b6040516101ce9190610f30565b60405180910390f35b6101df610c07565b6040516101ec9190610f7e565b60405180910390f35b6101fd610c2b565b60405161020a9190610fba565b60405180910390f35b61021b610c4f565b6040516102289190610cf9565b60405180910390f35b7f000000000000000000000000000000000000000000000000000000000000000081565b600360009054906101000a900473ffffffffffffffffffffffffffffffffffffffff1673ffffffffffffffffffffffffffffffffffffffff16639cd323576040518163ffffffff1660e01b8152600401600060405180830381600087803b1580156102bf57600080fd5b505af11580156102d3573d6000803e3d6000fd5b50505050565b6000600360009054906101000a900473ffffffffffffffffffffffffffffffffffffffff16905090565b7f000000000000000000000000000000000000000000000000000000000000000081565b600260009054906101000a900473ffffffffffffffffffffffffffffffffffffffff1673ffffffffffffffffffffffffffffffffffffffff163373ffffffffffffffffffffffffffffffffffffffff1614806103e357503373ffffffffffffffffffffffffffffffffffffffff1660008083815260200190815260200160002060000160009054906101000a900473ffffffffffffffffffffffffffffffffffffffff1673ffffffffffffffffffffffffffffffffffffffff16145b610422576040517f08c379a000000000000000000000000000000000000000000000000000000000815260040161041990611032565b60405180910390fd5b7f000000000000000000000000000000000000000000000000000000000000000073ffffffffffffffffffffffffffffffffffffffff1663ee8ca3b5600080848152602001908152602001600020600401546040518263ffffffff1660e01b81526004016104909190611052565b600060405180830381600087803b1580156104aa57600080fd5b505af11580156104be573d6000803e3d6000fd5b5050505050565b7f000000000000000000000000000000000000000000000000000000000000000073ffffffffffffffffffffffffffffffffffffffff163373ffffffffffffffffffffffffffffffffffffffff1614610553576040517f08c379a000000000000000000000000000000000000000000000000000000000815260040161054a906110df565b60405180910390fd5b7f000000000000000000000000000000000000000000000000000000000000000073ffffffffffffffffffffffffffffffffffffffff16631c20fadd7f000000000000000000000000000000000000000000000000000000000000000083856040518463ffffffff1660e01b81526004016105d093929190611120565b600060405180830381600087803b1580156105ea57600080fd5b505af11580156105fe573d6000803e3d6000fd5b505050505050565b600360009054906101000a900473ffffffffffffffffffffffffffffffffffffffff1681565b60006020528060005260406000206000915090508060000160009054906101000a900473ffffffffffffffffffffffffffffffffffffffff16908060010154908060020160009054906101000a900473ffffffffffffffffffffffffffffffffffffffff16908060030160009054906101000a900473ffffffffffffffffffffffffffffffffffffffff16908060040154905085565b600080600360009054906101000a900473ffffffffffffffffffffffffffffffffffffffff1673ffffffffffffffffffffffffffffffffffffffff166394f611346001546040516024016107169190610f30565b604051602081830303815290604052915060e01b6020820180517bffffffffffffffffffffffffffffffffffffffffffffffffffffffff8381831617835250505050905060006040518060400160405280600267ffffffffffffffff81111561078257610781611157565b5b6040519080825280602002602001820160405280156107b05781602001602082028036833780820191505090505b508152602001600267ffffffffffffffff8111156107d1576107d0611157565b5b60405190808252806020026020018201604052801561080457816020015b60608152602001906001900390816107ef5790505b5081525090506000816000015160008151811061082457610823611186565b5b6020026020010190600381111561083e5761083d6111b5565b5b90816003811115610852576108516111b5565b5b81525050600381600001516001815181106108705761086f611186565b5b6020026020010190600381111561088a576108896111b5565b5b9081600381111561089e5761089d6111b5565b5b81525050610960600360009054906101000a900473ffffffffffffffffffffffffffffffffffffffff16600360009054906101000a900473ffffffffffffffffffffffffffffffffffffffff1673ffffffffffffffffffffffffffffffffffffffff166394e05b2c6001546040516024016109199190610f30565b604051602081830303815290604052915060e01b6020820180517bffffffffffffffffffffffffffffffffffffffffffffffffffffffff8381831617835250505050610c75565b816020015160008151811061097857610977611186565b5b602002602001018190525061098b610ca1565b81602001516001815181106109a3576109a2611186565b5b602002602001018190525060007f000000000000000000000000000000000000000000000000000000000000000073ffffffffffffffffffffffffffffffffffffffff16633323b467600360009054906101000a900473ffffffffffffffffffffffffffffffffffffffff16858560006040518563ffffffff1660e01b8152600401610a3294939291906114bb565b6020604051808303816000875af1158015610a51573d6000803e3d6000fd5b505050506040513d601f19601f82011682018060405250810190610a75919061153a565b905060016000815480929190610a8a90611596565b91905055506040518060a001604052803373ffffffffffffffffffffffffffffffffffffffff1681526020018881526020018773ffffffffffffffffffffffffffffffffffffffff1681526020018673ffffffffffffffffffffffffffffffffffffffff16815260200182815250600080600154815260200190815260200160002060008201518160000160006101000a81548173ffffffffffffffffffffffffffffffffffffffff021916908373ffffffffffffffffffffffffffffffffffffffff1602179055506020820151816001015560408201518160020160006101000a81548173ffffffffffffffffffffffffffffffffffffffff021916908373ffffffffffffffffffffffffffffffffffffffff16021790555060608201518160030160006101000a81548173ffffffffffffffffffffffffffffffffffffffff021916908373ffffffffffffffffffffffffffffffffffffffff1602179055506080820151816004015590505060015493505050509392505050565b7f000000000000000000000000000000000000000000000000000000000000000081565b7f000000000000000000000000000000000000000000000000000000000000000081565b600260009054906101000a900473ffffffffffffffffffffffffffffffffffffffff1681565b60608282604051602001610c8a9291906115de565b604051602081830303815290604052905092915050565b606060405180602001604052806000815250905090565b600073ffffffffffffffffffffffffffffffffffffffff82169050919050565b6000610ce382610cb8565b9050919050565b610cf381610cd8565b82525050565b6000602082019050610d0e6000830184610cea565b92915050565b600080fd5b6000819050919050565b610d2c81610d19565b8114610d3757600080fd5b50565b600081359050610d4981610d23565b92915050565b600060208284031215610d6557610d64610d14565b5b6000610d7384828501610d3a565b91505092915050565b610d8581610cd8565b8114610d9057600080fd5b50565b600081359050610da281610d7c565b92915050565b60008060408385031215610dbf57610dbe610d14565b5b6000610dcd85828601610d3a565b9250506020610dde85828601610d93565b9150509250929050565b6000819050919050565b6000610e0d610e08610e0384610cb8565b610de8565b610cb8565b9050919050565b6000610e1f82610df2565b9050919050565b6000610e3182610e14565b9050919050565b610e4181610e26565b82525050565b6000602082019050610e5c6000830184610e38565b92915050565b610e6b81610d19565b82525050565b6000819050919050565b610e8481610e71565b82525050565b600060a082019050610e9f6000830188610cea565b610eac6020830187610e62565b610eb96040830186610cea565b610ec66060830185610cea565b610ed36080830184610e7b565b9695505050505050565b600080600060608486031215610ef657610ef5610d14565b5b6000610f0486828701610d3a565b9350506020610f1586828701610d93565b9250506040610f2686828701610d93565b9150509250925092565b6000602082019050610f456000830184610e62565b92915050565b6000610f5682610df2565b9050919050565b6000610f6882610f4b565b9050919050565b610f7881610f5d565b82525050565b6000602082019050610f936000830184610f6f565b92915050565b6000610fa482610f4b565b9050919050565b610fb481610f99565b82525050565b6000602082019050610fcf6000830184610fab565b92915050565b600082825260208201905092915050565b7f4e6f7420616c6c6f77656420746f2063616e63656c2074686973206f72646572600082015250565b600061101c602083610fd5565b915061102782610fe6565b602082019050919050565b6000602082019050818103600083015261104b8161100f565b9050919050565b60006020820190506110676000830184610e7b565b92915050565b7f4f6e6c792066756e6473206f776e65722063616e20776974686472617720667560008201527f6e64730000000000000000000000000000000000000000000000000000000000602082015250565b60006110c9602383610fd5565b91506110d48261106d565b604082019050919050565b600060208201905081810360008301526110f8816110bc565b9050919050565b600061110a82610cb8565b9050919050565b61111a816110ff565b82525050565b60006060820190506111356000830186611111565b6111426020830185610cea565b61114f6040830184610e62565b949350505050565b7f4e487b7100000000000000000000000000000000000000000000000000000000600052604160045260246000fd5b7f4e487b7100000000000000000000000000000000000000000000000000000000600052603260045260246000fd5b7f4e487b7100000000000000000000000000000000000000000000000000000000600052602160045260246000fd5b600081519050919050565b600082825260208201905092915050565b60005b8381101561121e578082015181840152602081019050611203565b60008484015250505050565b6000601f19601f8301169050919050565b6000611246826111e4565b61125081856111ef565b9350611260818560208601611200565b6112698161122a565b840191505092915050565b600081519050919050565b600082825260208201905092915050565b6000819050602082019050919050565b600481106112b1576112b06111b5565b5b50565b60008190506112c2826112a0565b919050565b60006112d2826112b4565b9050919050565b6112e2816112c7565b82525050565b60006112f483836112d9565b60208301905092915050565b6000602082019050919050565b600061131882611274565b611322818561127f565b935061132d83611290565b8060005b8381101561135e57815161134588826112e8565b975061135083611300565b925050600181019050611331565b5085935050505092915050565b600081519050919050565b600082825260208201905092915050565b6000819050602082019050919050565b600082825260208201905092915050565b60006113b3826111e4565b6113bd8185611397565b93506113cd818560208601611200565b6113d68161122a565b840191505092915050565b60006113ed83836113a8565b905092915050565b6000602082019050919050565b600061140d8261136b565b6114178185611376565b93508360208202850161142985611387565b8060005b85811015611465578484038952815161144685826113e1565b9450611451836113f5565b925060208a0199505060018101905061142d565b50829750879550505050505092915050565b60006040830160008301518482036000860152611494828261130d565b915050602083015184820360208601526114ae8282611402565b9150508091505092915050565b60006080820190506114d06000830187610cea565b81810360208301526114e2818661123b565b905081810360408301526114f68185611477565b90506115056060830184610cea565b95945050505050565b61151781610e71565b811461152257600080fd5b50565b6000815190506115348161150e565b92915050565b6000602082840312156115505761154f610d14565b5b600061155e84828501611525565b91505092915050565b7f4e487b7100000000000000000000000000000000000000000000000000000000600052601160045260246000fd5b60006115a182610d19565b91507fffffffffffffffffffffffffffffffffffffffffffffffffffffffffffffffff82036115d3576115d2611567565b5b600182019050919050565b60006040820190506115f36000830185610cea565b8181036020830152611605818461123b565b9050939250505056fea26469706673582212208e6b635eecfe2af2c19c2546d4fe0bb18c569394746b94cd8d6259b1e22e12d464736f6c6343000813003360e06040523480156200001157600080fd5b506040516200123138038062001231833981810160405281019062000037919062000267565b81818173ffffffffffffffffffffffffffffffffffffffff1660808173ffffffffffffffffffffffffffffffffffffffff16815250508173ffffffffffffffffffffffffffffffffffffffff1663573ea5756040518163ffffffff1660e01b8152600401602060405180830381865afa158015620000b9573d6000803e3d6000fd5b505050506040513d601f19601f82011682018060405250810190620000df9190620002f3565b73ffffffffffffffffffffffffffffffffffffffff1660c08173ffffffffffffffffffffffffffffffffffffffff168152505073c815db16d4be6ddf2685c201937905abf338f5d773ffffffffffffffffffffffffffffffffffffffff1663ded89a7c826040518263ffffffff1660e01b815260040162000161919062000336565b6040805180830381865afa1580156200017e573d6000803e3d6000fd5b505050506040513d601f19601f82011682018060405250810190620001a4919062000390565b508073ffffffffffffffffffffffffffffffffffffffff1660a09073ffffffffffffffffffffffffffffffffffffffff1681525050505060008060006101000a81548160ff0219169083151502179055505050620003d7565b600080fd5b600073ffffffffffffffffffffffffffffffffffffffff82169050919050565b60006200022f8262000202565b9050919050565b620002418162000222565b81146200024d57600080fd5b50565b600081519050620002618162000236565b92915050565b60008060408385031215620002815762000280620001fd565b5b6000620002918582860162000250565b9250506020620002a48582860162000250565b9150509250929050565b6000620002bb8262000202565b9050919050565b620002cd81620002ae565b8114620002d957600080fd5b50565b600081519050620002ed81620002c2565b92915050565b6000602082840312156200030c576200030b620001fd565b5b60006200031c84828501620002dc565b91505092915050565b620003308162000222565b82525050565b60006020820190506200034d600083018462000325565b92915050565b60008115159050919050565b6200036a8162000353565b81146200037657600080fd5b50565b6000815190506200038a816200035f565b92915050565b60008060408385031215620003aa57620003a9620001fd565b5b6000620003ba8582860162000250565b9250506020620003cd8582860162000379565b9150509250929050565b60805160a05160c051610e1c6200041560003960008181610387015261045b015260006101a101526000818161027d01526102a40152610e1c6000f3fe6080604052600436106100595760003560e01c806324600fc31461006557806328f150eb1461007c57806394e05b2c146100a757806394f61134146100e55780639cd323571461010e578063e70abe921461012557610060565b3661006057005b600080fd5b34801561007157600080fd5b5061007a610150565b005b34801561008857600080fd5b5061009161019f565b60405161009e91906107e0565b60405180910390f35b3480156100b357600080fd5b506100ce60048036038101906100c99190610836565b6101c3565b6040516100dc92919061090e565b60405180910390f35b3480156100f157600080fd5b5061010c60048036038101906101079190610836565b610234565b005b34801561011a57600080fd5b50610123610252565b005b34801561013157600080fd5b5061013a61027b565b604051610147919061099d565b60405180910390f35b60003390508073ffffffffffffffffffffffffffffffffffffffff166108fc479081150290604051600060405180830381858888f1935050505015801561019b573d6000803e3d6000fd5b5050565b7f000000000000000000000000000000000000000000000000000000000000000081565b6000606060008054906101000a900460ff169150826040516024016101e891906109c7565b6040516020818303038152906040526394f6113460e01b6020820180517bffffffffffffffffffffffffffffffffffffffffffffffffffffffff83818316178352505050509050915091565b60008061023f61029f565b9150915061024d828261033c565b505050565b60008054906101000a900460ff16156000806101000a81548160ff021916908315150217905550565b7f000000000000000000000000000000000000000000000000000000000000000081565b6000807f000000000000000000000000000000000000000000000000000000000000000073ffffffffffffffffffffffffffffffffffffffff1663b810c6366040518163ffffffff1660e01b81526004016040805180830381865afa15801561030c573d6000803e3d6000fd5b505050506040513d601f19601f820116820180604052508101906103309190610a23565b80925081935050509091565b73eeeeeeeeeeeeeeeeeeeeeeeeeeeeeeeeeeeeeeee73ffffffffffffffffffffffffffffffffffffffff168173ffffffffffffffffffffffffffffffffffffffff16036104555760007f000000000000000000000000000000000000000000000000000000000000000073ffffffffffffffffffffffffffffffffffffffff16836040516103c990610a94565b60006040518083038185875af1925050503d8060008114610406576040519150601f19603f3d011682016040523d82523d6000602084013e61040b565b606091505b505090508061044f576040517f08c379a000000000000000000000000000000000000000000000000000000000815260040161044690610b06565b60405180910390fd5b50610481565b610480817f000000000000000000000000000000000000000000000000000000000000000084610485565b5b5050565b6105068363a9059cbb60e01b84846040516024016104a4929190610b26565b604051602081830303815290604052907bffffffffffffffffffffffffffffffffffffffffffffffffffffffff19166020820180517bffffffffffffffffffffffffffffffffffffffffffffffffffffffff838183161783525050505061050b565b505050565b600061056d826040518060400160405280602081526020017f5361666545524332303a206c6f772d6c6576656c2063616c6c206661696c65648152508573ffffffffffffffffffffffffffffffffffffffff166105d29092919063ffffffff16565b90506000815111156105cd578080602001905181019061058d9190610b7b565b6105cc576040517f08c379a00000000000000000000000000000000000000000000000000000000081526004016105c390610c1a565b60405180910390fd5b5b505050565b60606105e184846000856105ea565b90509392505050565b60608247101561062f576040517f08c379a000000000000000000000000000000000000000000000000000000000815260040161062690610cac565b60405180910390fd5b6000808673ffffffffffffffffffffffffffffffffffffffff1685876040516106589190610cfd565b60006040518083038185875af1925050503d8060008114610695576040519150601f19603f3d011682016040523d82523d6000602084013e61069a565b606091505b50915091506106ab878383876106b7565b92505050949350505050565b60608315610719576000835103610711576106d18561072c565b610710576040517f08c379a000000000000000000000000000000000000000000000000000000000815260040161070790610d60565b60405180910390fd5b5b829050610724565b610723838361074f565b5b949350505050565b6000808273ffffffffffffffffffffffffffffffffffffffff163b119050919050565b6000825111156107625781518083602001fd5b806040517f08c379a00000000000000000000000000000000000000000000000000000000081526004016107969190610dc4565b60405180910390fd5b600073ffffffffffffffffffffffffffffffffffffffff82169050919050565b60006107ca8261079f565b9050919050565b6107da816107bf565b82525050565b60006020820190506107f560008301846107d1565b92915050565b600080fd5b6000819050919050565b61081381610800565b811461081e57600080fd5b50565b6000813590506108308161080a565b92915050565b60006020828403121561084c5761084b6107fb565b5b600061085a84828501610821565b91505092915050565b60008115159050919050565b61087881610863565b82525050565b600081519050919050565b600082825260208201905092915050565b60005b838110156108b857808201518184015260208101905061089d565b60008484015250505050565b6000601f19601f8301169050919050565b60006108e08261087e565b6108ea8185610889565b93506108fa81856020860161089a565b610903816108c4565b840191505092915050565b6000604082019050610923600083018561086f565b818103602083015261093581846108d5565b90509392505050565b6000819050919050565b600061096361095e6109598461079f565b61093e565b61079f565b9050919050565b600061097582610948565b9050919050565b60006109878261096a565b9050919050565b6109978161097c565b82525050565b60006020820190506109b2600083018461098e565b92915050565b6109c181610800565b82525050565b60006020820190506109dc60008301846109b8565b92915050565b6000815190506109f18161080a565b92915050565b610a00816107bf565b8114610a0b57600080fd5b50565b600081519050610a1d816109f7565b92915050565b60008060408385031215610a3a57610a396107fb565b5b6000610a48858286016109e2565b9250506020610a5985828601610a0e565b9150509250929050565b600081905092915050565b50565b6000610a7e600083610a63565b9150610a8982610a6e565b600082019050919050565b6000610a9f82610a71565b9150819050919050565b600082825260208201905092915050565b7f5f7472616e736665723a20455448207472616e73666572206661696c65640000600082015250565b6000610af0601e83610aa9565b9150610afb82610aba565b602082019050919050565b60006020820190508181036000830152610b1f81610ae3565b9050919050565b6000604082019050610b3b60008301856107d1565b610b4860208301846109b8565b9392505050565b610b5881610863565b8114610b6357600080fd5b50565b600081519050610b7581610b4f565b92915050565b600060208284031215610b9157610b906107fb565b5b6000610b9f84828501610b66565b91505092915050565b7f5361666545524332303a204552433230206f7065726174696f6e20646964206e60008201527f6f74207375636365656400000000000000000000000000000000000000000000602082015250565b6000610c04602a83610aa9565b9150610c0f82610ba8565b604082019050919050565b60006020820190508181036000830152610c3381610bf7565b9050919050565b7f416464726573733a20696e73756666696369656e742062616c616e636520666f60008201527f722063616c6c0000000000000000000000000000000000000000000000000000602082015250565b6000610c96602683610aa9565b9150610ca182610c3a565b604082019050919050565b60006020820190508181036000830152610cc581610c89565b9050919050565b6000610cd78261087e565b610ce18185610a63565b9350610cf181856020860161089a565b80840191505092915050565b6000610d098284610ccc565b915081905092915050565b7f416464726573733a2063616c6c20746f206e6f6e2d636f6e7472616374000000600082015250565b6000610d4a601d83610aa9565b9150610d5582610d14565b602082019050919050565b60006020820190508181036000830152610d7981610d3d565b9050919050565b600081519050919050565b6000610d9682610d80565b610da08185610aa9565b9350610db081856020860161089a565b610db9816108c4565b840191505092915050565b60006020820190508181036000830152610dde8184610d8b565b90509291505056fea2646970667358221220ecf4ab55ea6efa53e7ad4446f7e5e05b5865399082e5eaf2d571d8f04d1d9e3464736f6c63430008130033",
  "immutableReferences": {
    "732": [
      {
        "length": 32,
        "start": 1060
      },
      {
        "length": 32,
        "start": 2482
      },
      {
        "length": 32,
        "start": 3117
      }
    ],
    "734": [
      {
        "length": 32,
        "start": 563
      }
    ],
    "856": [
      {
        "length": 32,
        "start": 773
      },
      {
        "length": 32,
        "start": 1223
      },
      {
        "length": 32,
        "start": 1425
      }
    ],
    "859": [
      {
        "length": 32,
        "start": 1365
      },
      {
        "length": 32,
        "start": 3081
      }
    ]
  },
  "source": "// SPDX-License-Identifier: UNLICENSED\npragma solidity ^0.8.19;\n\nimport \"./Types.sol\";\nimport \"./OrderExecutor.sol\";\nimport \"./OpsTaskCreator.sol\";\n\nstruct OrderDatas {\n    address user;\n    uint256 price;\n    address fromToken;\n    address toToken;\n    bytes32 orderId;\n}\n\ncontract OrderBook is OpsTaskCreator {\n    mapping (uint => OrderDatas) public orders; // returns order data\n    uint orderNonce;\n\n    address public admin;\n    OrderExecutor public orderExecutor;\n\n    constructor() OpsTaskCreator(0xc1C6805B857Bef1f412519C4A842522431aFed39, address(this)) {\n        orderExecutor = new OrderExecutor(address(ops), 0x08f6dDE16166F06e1d486749452dc3A44f175456);\n        admin = msg.sender;\n        orderNonce = 0;\n    }\n\n    function createOrder(uint price, address fromToken, address toToken) external returns (uint) {\n        \n        bytes memory execData = abi.encodeCall(orderExecutor.executeOrder, (orderNonce));\n\n        ModuleData memory moduleData = ModuleData({\n            modules: new Module[](2),\n            args: new bytes[](2)\n        });\n        moduleData.modules[0] = Module.RESOLVER;\n        moduleData.modules[1] = Module.SINGLE_EXEC;\n\n        moduleData.args[0] = _resolverModuleArg(address(orderExecutor), abi.encodeCall(orderExecutor.checker, orderNonce));\n        moduleData.args[1] = _singleExecModuleArg();\n\n        bytes32 orderId = ops.createTask(\n            address(orderExecutor), // contract to execute\n            execData, // function to execute\n            moduleData,\n            address(0)\n        );\n\n        orderNonce++;\n        orders[orderNonce] = OrderDatas(msg.sender, price, fromToken, toToken, orderId);\n\n        return orderNonce;\n    }\n\n    function cancelOrder(uint _orderNonce) external {\n        require(\n            msg.sender == admin || orders[_orderNonce].user == msg.sender,\n            \"Not allowed to cancel this order\"\n        );\n        ops.cancelTask(orders[_orderNonce].orderId);\n    }\n\n    // function to return executor address in order to check the txs\n    function getExecutorAddress() public view returns (address) {\n        return address(orderExecutor);\n    }\n\n    function toggleExecutorCondition() public {\n        orderExecutor.togglePrice();\n    }\n\n}\n\n\n",
  "sourcePath": "/Users/blabla/Documents/gelato_test/contracts/OrderBook.sol",
  "compiler": {
    "name": "solc",
    "version": "0.8.19+commit.7dd6d404.Emscripten.clang"
  },
  "schemaVersion": "3.4.11",
  "updatedAt": "2023-02-27T15:41:16.547Z",
  "networkType": "ethereum",
  "devdoc": {
    "kind": "dev",
    "methods": {
      "withdrawFunds(uint256,address)": {
        "details": "Withdraw funds from this contract's Gelato balance to fundsOwner."
      }
    },
    "version": 1
  },
  "userdoc": {
    "kind": "user",
    "methods": {},
    "version": 1
  }
}