{
  "contractName": "OrderBook",
  "abi": [
    {
      "inputs": [],
      "stateMutability": "nonpayable",
      "type": "constructor"
    },
    {
      "anonymous": false,
      "inputs": [
        {
          "indexed": false,
          "internalType": "string",
          "name": "",
          "type": "string"
        },
        {
          "indexed": false,
          "internalType": "address",
          "name": "",
          "type": "address"
        }
      ],
      "name": "construct",
      "type": "event"
    },
    {
      "inputs": [],
      "name": "admin",
      "outputs": [
        {
          "internalType": "address",
          "name": "",
          "type": "address"
        }
      ],
      "stateMutability": "view",
      "type": "function"
    },
    {
      "inputs": [],
      "name": "dedicatedMsgSender",
      "outputs": [
        {
          "internalType": "address",
          "name": "",
          "type": "address"
        }
      ],
      "stateMutability": "view",
      "type": "function"
    },
    {
      "inputs": [],
      "name": "fundsOwner",
      "outputs": [
        {
          "internalType": "address",
          "name": "",
          "type": "address"
        }
      ],
      "stateMutability": "view",
      "type": "function"
    },
    {
      "inputs": [],
      "name": "lendingVault",
      "outputs": [
        {
          "internalType": "contract LendingVault",
          "name": "",
          "type": "address"
        }
      ],
      "stateMutability": "view",
      "type": "function"
    },
    {
      "inputs": [],
      "name": "ops",
      "outputs": [
        {
          "internalType": "contract IOps",
          "name": "",
          "type": "address"
        }
      ],
      "stateMutability": "view",
      "type": "function"
    },
    {
      "inputs": [],
      "name": "orderExecutor",
      "outputs": [
        {
          "internalType": "contract OrderExecutor",
          "name": "",
          "type": "address"
        }
      ],
      "stateMutability": "view",
      "type": "function"
    },
    {
      "inputs": [
        {
          "internalType": "uint256",
          "name": "",
          "type": "uint256"
        }
      ],
      "name": "orders",
      "outputs": [
        {
          "internalType": "address",
          "name": "user",
          "type": "address"
        },
        {
          "internalType": "uint256",
          "name": "price",
          "type": "uint256"
        },
        {
          "internalType": "uint256",
          "name": "amount",
          "type": "uint256"
        },
        {
          "internalType": "address",
          "name": "fromToken",
          "type": "address"
        },
        {
          "internalType": "address",
          "name": "toToken",
          "type": "address"
        },
        {
          "internalType": "bytes32",
          "name": "orderId",
          "type": "bytes32"
        },
        {
          "internalType": "bool",
          "name": "isExecuted",
          "type": "bool"
        }
      ],
      "stateMutability": "view",
      "type": "function"
    },
    {
      "inputs": [],
      "name": "taskTreasury",
      "outputs": [
        {
          "internalType": "contract ITaskTreasuryUpgradable",
          "name": "",
          "type": "address"
        }
      ],
      "stateMutability": "view",
      "type": "function"
    },
    {
      "inputs": [
        {
          "internalType": "uint256",
          "name": "_amount",
          "type": "uint256"
        },
        {
          "internalType": "address",
          "name": "_token",
          "type": "address"
        }
      ],
      "name": "withdrawFunds",
      "outputs": [],
      "stateMutability": "nonpayable",
      "type": "function"
    },
    {
      "inputs": [
        {
          "internalType": "uint256",
          "name": "price",
          "type": "uint256"
        },
        {
          "internalType": "uint256",
          "name": "amount",
          "type": "uint256"
        },
        {
          "internalType": "address",
          "name": "fromToken",
          "type": "address"
        },
        {
          "internalType": "address",
          "name": "toToken",
          "type": "address"
        }
      ],
      "name": "createOrder",
      "outputs": [
        {
          "internalType": "uint256",
          "name": "",
          "type": "uint256"
        }
      ],
      "stateMutability": "nonpayable",
      "type": "function"
    },
    {
      "inputs": [
        {
          "internalType": "uint256",
          "name": "_orderNonce",
          "type": "uint256"
        }
      ],
      "name": "cancelOrder",
      "outputs": [],
      "stateMutability": "nonpayable",
      "type": "function"
    },
    {
      "inputs": [],
      "name": "getExecutorAddress",
      "outputs": [
        {
          "internalType": "address",
          "name": "",
          "type": "address"
        }
      ],
      "stateMutability": "view",
      "type": "function"
    },
    {
      "inputs": [
        {
          "internalType": "uint256",
          "name": "price",
          "type": "uint256"
        }
      ],
      "name": "setPrice",
      "outputs": [],
      "stateMutability": "nonpayable",
      "type": "function"
    },
    {
      "inputs": [
        {
          "internalType": "uint256",
          "name": "orderNonce",
          "type": "uint256"
        }
      ],
      "name": "setExecuted",
      "outputs": [],
      "stateMutability": "nonpayable",
      "type": "function"
    },
    {
      "inputs": [
        {
          "internalType": "uint256",
          "name": "orderNonce",
          "type": "uint256"
        }
      ],
      "name": "getOrder",
      "outputs": [
        {
          "components": [
            {
              "internalType": "address",
              "name": "user",
              "type": "address"
            },
            {
              "internalType": "uint256",
              "name": "price",
              "type": "uint256"
            },
            {
              "internalType": "uint256",
              "name": "amount",
              "type": "uint256"
            },
            {
              "internalType": "address",
              "name": "fromToken",
              "type": "address"
            },
            {
              "internalType": "address",
              "name": "toToken",
              "type": "address"
            },
            {
              "internalType": "bytes32",
              "name": "orderId",
              "type": "bytes32"
            },
            {
              "internalType": "bool",
              "name": "isExecuted",
              "type": "bool"
            }
          ],
          "internalType": "struct OrderDatas",
          "name": "",
          "type": "tuple"
        }
      ],
      "stateMutability": "view",
      "type": "function"
    }
  ],
  "bytecode": "0x6101206040523480156200001257600080fd5b5073c1c6805b857bef1f412519c4a842522431afed393081308173ffffffffffffffffffffffffffffffffffffffff1660808173ffffffffffffffffffffffffffffffffffffffff16815250508173ffffffffffffffffffffffffffffffffffffffff1663573ea5756040518163ffffffff1660e01b8152600401602060405180830381865afa158015620000ab573d6000803e3d6000fd5b505050506040513d601f19601f82011682018060405250810190620000d19190620004b0565b73ffffffffffffffffffffffffffffffffffffffff1660c08173ffffffffffffffffffffffffffffffffffffffff168152505073c815db16d4be6ddf2685c201937905abf338f5d773ffffffffffffffffffffffffffffffffffffffff1663ded89a7c826040518263ffffffff1660e01b815260040162000153919062000507565b6040805180830381865afa15801562000170573d6000803e3d6000fd5b505050506040513d601f19601f8201168201806040525081019062000196919062000592565b508073ffffffffffffffffffffffffffffffffffffffff1660a09073ffffffffffffffffffffffffffffffffffffffff168152505050508073ffffffffffffffffffffffffffffffffffffffff1660e08173ffffffffffffffffffffffffffffffffffffffff168152505060805173ffffffffffffffffffffffffffffffffffffffff1663e60a32136040518163ffffffff1660e01b8152600401602060405180830381865afa1580156200024f573d6000803e3d6000fd5b505050506040513d601f19601f820116820180604052508101906200027591906200061e565b73ffffffffffffffffffffffffffffffffffffffff166101008173ffffffffffffffffffffffffffffffffffffffff168152505050507fa55e372fa26b20bbe8d4e783b3a8b5cdccb78af8e27dac035fdb2b1b9ba0ead6608051604051620002de9190620006b1565b60405180910390a16080517308f6dde16166f06e1d486749452dc3a44f1754566040516200030c906200042a565b62000319929190620006e3565b604051809103906000f08015801562000336573d6000803e3d6000fd5b50600360006101000a81548173ffffffffffffffffffffffffffffffffffffffff021916908373ffffffffffffffffffffffffffffffffffffffff160217905550604051620003859062000438565b604051809103906000f080158015620003a2573d6000803e3d6000fd5b50600460006101000a81548173ffffffffffffffffffffffffffffffffffffffff021916908373ffffffffffffffffffffffffffffffffffffffff16021790555033600260006101000a81548173ffffffffffffffffffffffffffffffffffffffff021916908373ffffffffffffffffffffffffffffffffffffffff16021790555062000710565b6115df80620023c083390190565b610a8c806200399f83390190565b600080fd5b600073ffffffffffffffffffffffffffffffffffffffff82169050919050565b600062000478826200044b565b9050919050565b6200048a816200046b565b81146200049657600080fd5b50565b600081519050620004aa816200047f565b92915050565b600060208284031215620004c957620004c862000446565b5b6000620004d98482850162000499565b91505092915050565b6000620004ef826200044b565b9050919050565b6200050181620004e2565b82525050565b60006020820190506200051e6000830184620004f6565b92915050565b6200052f81620004e2565b81146200053b57600080fd5b50565b6000815190506200054f8162000524565b92915050565b60008115159050919050565b6200056c8162000555565b81146200057857600080fd5b50565b6000815190506200058c8162000561565b92915050565b60008060408385031215620005ac57620005ab62000446565b5b6000620005bc858286016200053e565b9250506020620005cf858286016200057b565b9150509250929050565b6000620005e682620004e2565b9050919050565b620005f881620005d9565b81146200060457600080fd5b50565b6000815190506200061881620005ed565b92915050565b60006020828403121562000637576200063662000446565b5b6000620006478482850162000607565b91505092915050565b600082825260208201905092915050565b7f61646472657373286f7073290000000000000000000000000000000000000000600082015250565b600062000699600c8362000650565b9150620006a68262000661565b602082019050919050565b60006040820190508181036000830152620006cc816200068a565b9050620006dd6020830184620004f6565b92915050565b6000604082019050620006fa6000830185620004f6565b620007096020830184620004f6565b9392505050565b60805160a05160c05160e05161010051611c4b6200077560003960008181610be90152610f8e01526000818161040101528181610b5b0152610c2501526000505060006102f2015260008181610520015281816108b60152610fb20152611c4b6000f3fe608060405234801561001057600080fd5b50600436106100f55760003560e01c806391b7f5ed11610097578063d09ef24111610066578063d09ef24114610266578063e60a321314610296578063e70abe92146102b4578063f851a440146102d2576100f5565b806391b7f5ed146101d8578063a849d644146101f4578063a85c38ef14610212578063cb8c5a3a14610248576100f5565b806346ee3c59116100d357806346ee3c5914610152578063514fcac71461017057806358b91f0d1461018c578063744bfe61146101bc576100f5565b806328f150eb146100fa5780632993c69014610118578063350157a814610134575b600080fd5b6101026102f0565b60405161010f9190611102565b60405180910390f35b610132600480360381019061012d9190611158565b610314565b005b61013c6103d5565b6040516101499190611102565b60405180910390f35b61015a6103ff565b6040516101679190611102565b60405180910390f35b61018a60048036038101906101859190611158565b610423565b005b6101a660048036038101906101a191906111b1565b6105c1565b6040516101b39190611227565b60405180910390f35b6101d660048036038101906101d19190611242565b610b59565b005b6101f260048036038101906101ed9190611158565b610c9a565b005b6101fc610d2a565b60405161020991906112e1565b60405180910390f35b61022c60048036038101906102279190611158565b610d50565b60405161023f9796959493929190611330565b60405180910390f35b610250610dff565b60405161025d91906113d2565b60405180910390f35b610280600480360381019061027b9190611158565b610e25565b60405161028d91906114b7565b60405180910390f35b61029e610f8c565b6040516102ab91906114f3565b60405180910390f35b6102bc610fb0565b6040516102c9919061152f565b60405180910390f35b6102da610fd4565b6040516102e79190611102565b60405180910390f35b7f000000000000000000000000000000000000000000000000000000000000000081565b600360009054906101000a900473ffffffffffffffffffffffffffffffffffffffff1673ffffffffffffffffffffffffffffffffffffffff163373ffffffffffffffffffffffffffffffffffffffff16146103a4576040517f08c379a000000000000000000000000000000000000000000000000000000000815260040161039b906115cd565b60405180910390fd5b600160008083815260200190815260200160002060060160006101000a81548160ff02191690831515021790555050565b6000600360009054906101000a900473ffffffffffffffffffffffffffffffffffffffff16905090565b7f000000000000000000000000000000000000000000000000000000000000000081565b600260009054906101000a900473ffffffffffffffffffffffffffffffffffffffff1673ffffffffffffffffffffffffffffffffffffffff163373ffffffffffffffffffffffffffffffffffffffff1614806104df57503373ffffffffffffffffffffffffffffffffffffffff1660008083815260200190815260200160002060000160009054906101000a900473ffffffffffffffffffffffffffffffffffffffff1673ffffffffffffffffffffffffffffffffffffffff16145b61051e576040517f08c379a000000000000000000000000000000000000000000000000000000000815260040161051590611639565b60405180910390fd5b7f000000000000000000000000000000000000000000000000000000000000000073ffffffffffffffffffffffffffffffffffffffff1663ee8ca3b5600080848152602001908152602001600020600501546040518263ffffffff1660e01b815260040161058c9190611659565b600060405180830381600087803b1580156105a657600080fd5b505af11580156105ba573d6000803e3d6000fd5b5050505050565b6000808390506000600360009054906101000a900473ffffffffffffffffffffffffffffffffffffffff1673ffffffffffffffffffffffffffffffffffffffff166394f6113460015460405160240161061a9190611227565b604051602081830303815290604052915060e01b6020820180517bffffffffffffffffffffffffffffffffffffffffffffffffffffffff8381831617835250505050905060006040518060400160405280600267ffffffffffffffff81111561068657610685611674565b5b6040519080825280602002602001820160405280156106b45781602001602082028036833780820191505090505b508152602001600267ffffffffffffffff8111156106d5576106d4611674565b5b60405190808252806020026020018201604052801561070857816020015b60608152602001906001900390816106f35790505b50815250905060008160000151600081518110610728576107276116a3565b5b60200260200101906003811115610742576107416116d2565b5b90816003811115610756576107556116d2565b5b8152505060038160000151600181518110610774576107736116a3565b5b6020026020010190600381111561078e5761078d6116d2565b5b908160038111156107a2576107a16116d2565b5b81525050610864600360009054906101000a900473ffffffffffffffffffffffffffffffffffffffff16600360009054906101000a900473ffffffffffffffffffffffffffffffffffffffff1673ffffffffffffffffffffffffffffffffffffffff166394e05b2c60015460405160240161081d9190611227565b604051602081830303815290604052915060e01b6020820180517bffffffffffffffffffffffffffffffffffffffffffffffffffffffff8381831617835250505050610ffa565b816020015160008151811061087c5761087b6116a3565b5b602002602001018190525061088f611026565b81602001516001815181106108a7576108a66116a3565b5b602002602001018190525060007f000000000000000000000000000000000000000000000000000000000000000073ffffffffffffffffffffffffffffffffffffffff16633323b467600360009054906101000a900473ffffffffffffffffffffffffffffffffffffffff16858573eeeeeeeeeeeeeeeeeeeeeeeeeeeeeeeeeeeeeeee6040518563ffffffff1660e01b815260040161094994939291906119d8565b6020604051808303816000875af1158015610968573d6000803e3d6000fd5b505050506040513d601f19601f8201168201806040525081019061098c9190611a57565b90506040518060e001604052803373ffffffffffffffffffffffffffffffffffffffff1681526020018a81526020018981526020018873ffffffffffffffffffffffffffffffffffffffff1681526020018773ffffffffffffffffffffffffffffffffffffffff16815260200182815260200160001515815250600080600154815260200190815260200160002060008201518160000160006101000a81548173ffffffffffffffffffffffffffffffffffffffff021916908373ffffffffffffffffffffffffffffffffffffffff160217905550602082015181600101556040820151816002015560608201518160030160006101000a81548173ffffffffffffffffffffffffffffffffffffffff021916908373ffffffffffffffffffffffffffffffffffffffff16021790555060808201518160040160006101000a81548173ffffffffffffffffffffffffffffffffffffffff021916908373ffffffffffffffffffffffffffffffffffffffff16021790555060a0820151816005015560c08201518160060160006101000a81548160ff02191690831515021790555090505060016000815480929190610b4390611ab3565b9190505550600154945050505050949350505050565b7f000000000000000000000000000000000000000000000000000000000000000073ffffffffffffffffffffffffffffffffffffffff163373ffffffffffffffffffffffffffffffffffffffff1614610be7576040517f08c379a0000000000000000000000000000000000000000000000000000000008152600401610bde90611b6d565b60405180910390fd5b7f000000000000000000000000000000000000000000000000000000000000000073ffffffffffffffffffffffffffffffffffffffff16631c20fadd7f000000000000000000000000000000000000000000000000000000000000000083856040518463ffffffff1660e01b8152600401610c6493929190611bae565b600060405180830381600087803b158015610c7e57600080fd5b505af1158015610c92573d6000803e3d6000fd5b505050505050565b600360009054906101000a900473ffffffffffffffffffffffffffffffffffffffff1673ffffffffffffffffffffffffffffffffffffffff166391b7f5ed826040518263ffffffff1660e01b8152600401610cf59190611227565b600060405180830381600087803b158015610d0f57600080fd5b505af1158015610d23573d6000803e3d6000fd5b5050505050565b600360009054906101000a900473ffffffffffffffffffffffffffffffffffffffff1681565b60006020528060005260406000206000915090508060000160009054906101000a900473ffffffffffffffffffffffffffffffffffffffff16908060010154908060020154908060030160009054906101000a900473ffffffffffffffffffffffffffffffffffffffff16908060040160009054906101000a900473ffffffffffffffffffffffffffffffffffffffff16908060050154908060060160009054906101000a900460ff16905087565b600460009054906101000a900473ffffffffffffffffffffffffffffffffffffffff1681565b610e2d61103d565b6000808381526020019081526020016000206040518060e00160405290816000820160009054906101000a900473ffffffffffffffffffffffffffffffffffffffff1673ffffffffffffffffffffffffffffffffffffffff1673ffffffffffffffffffffffffffffffffffffffff16815260200160018201548152602001600282015481526020016003820160009054906101000a900473ffffffffffffffffffffffffffffffffffffffff1673ffffffffffffffffffffffffffffffffffffffff1673ffffffffffffffffffffffffffffffffffffffff1681526020016004820160009054906101000a900473ffffffffffffffffffffffffffffffffffffffff1673ffffffffffffffffffffffffffffffffffffffff1673ffffffffffffffffffffffffffffffffffffffff168152602001600582015481526020016006820160009054906101000a900460ff1615151515815250509050919050565b7f000000000000000000000000000000000000000000000000000000000000000081565b7f000000000000000000000000000000000000000000000000000000000000000081565b600260009054906101000a900473ffffffffffffffffffffffffffffffffffffffff1681565b6060828260405160200161100f929190611be5565b604051602081830303815290604052905092915050565b606060405180602001604052806000815250905090565b6040518060e00160405280600073ffffffffffffffffffffffffffffffffffffffff1681526020016000815260200160008152602001600073ffffffffffffffffffffffffffffffffffffffff168152602001600073ffffffffffffffffffffffffffffffffffffffff168152602001600080191681526020016000151581525090565b600073ffffffffffffffffffffffffffffffffffffffff82169050919050565b60006110ec826110c1565b9050919050565b6110fc816110e1565b82525050565b600060208201905061111760008301846110f3565b92915050565b600080fd5b6000819050919050565b61113581611122565b811461114057600080fd5b50565b6000813590506111528161112c565b92915050565b60006020828403121561116e5761116d61111d565b5b600061117c84828501611143565b91505092915050565b61118e816110e1565b811461119957600080fd5b50565b6000813590506111ab81611185565b92915050565b600080600080608085870312156111cb576111ca61111d565b5b60006111d987828801611143565b94505060206111ea87828801611143565b93505060406111fb8782880161119c565b925050606061120c8782880161119c565b91505092959194509250565b61122181611122565b82525050565b600060208201905061123c6000830184611218565b92915050565b600080604083850312156112595761125861111d565b5b600061126785828601611143565b92505060206112788582860161119c565b9150509250929050565b6000819050919050565b60006112a76112a261129d846110c1565b611282565b6110c1565b9050919050565b60006112b98261128c565b9050919050565b60006112cb826112ae565b9050919050565b6112db816112c0565b82525050565b60006020820190506112f660008301846112d2565b92915050565b6000819050919050565b61130f816112fc565b82525050565b60008115159050919050565b61132a81611315565b82525050565b600060e082019050611345600083018a6110f3565b6113526020830189611218565b61135f6040830188611218565b61136c60608301876110f3565b61137960808301866110f3565b61138660a0830185611306565b61139360c0830184611321565b98975050505050505050565b60006113aa8261128c565b9050919050565b60006113bc8261139f565b9050919050565b6113cc816113b1565b82525050565b60006020820190506113e760008301846113c3565b92915050565b6113f6816110e1565b82525050565b61140581611122565b82525050565b611414816112fc565b82525050565b61142381611315565b82525050565b60e08201600082015161143f60008501826113ed565b50602082015161145260208501826113fc565b50604082015161146560408501826113fc565b50606082015161147860608501826113ed565b50608082015161148b60808501826113ed565b5060a082015161149e60a085018261140b565b5060c08201516114b160c085018261141a565b50505050565b600060e0820190506114cc6000830184611429565b92915050565b60006114dd8261139f565b9050919050565b6114ed816114d2565b82525050565b600060208201905061150860008301846114e4565b92915050565b60006115198261139f565b9050919050565b6115298161150e565b82525050565b60006020820190506115446000830184611520565b92915050565b600082825260208201905092915050565b7f4f6e6c7920746865206578656375746f722063616e2073657420746865206f7260008201527f6465722061732065786563757465640000000000000000000000000000000000602082015250565b60006115b7602f8361154a565b91506115c28261155b565b604082019050919050565b600060208201905081810360008301526115e6816115aa565b9050919050565b7f4e6f7420616c6c6f77656420746f2063616e63656c2074686973206f72646572600082015250565b600061162360208361154a565b915061162e826115ed565b602082019050919050565b6000602082019050818103600083015261165281611616565b9050919050565b600060208201905061166e6000830184611306565b92915050565b7f4e487b7100000000000000000000000000000000000000000000000000000000600052604160045260246000fd5b7f4e487b7100000000000000000000000000000000000000000000000000000000600052603260045260246000fd5b7f4e487b7100000000000000000000000000000000000000000000000000000000600052602160045260246000fd5b600081519050919050565b600082825260208201905092915050565b60005b8381101561173b578082015181840152602081019050611720565b60008484015250505050565b6000601f19601f8301169050919050565b600061176382611701565b61176d818561170c565b935061177d81856020860161171d565b61178681611747565b840191505092915050565b600081519050919050565b600082825260208201905092915050565b6000819050602082019050919050565b600481106117ce576117cd6116d2565b5b50565b60008190506117df826117bd565b919050565b60006117ef826117d1565b9050919050565b6117ff816117e4565b82525050565b600061181183836117f6565b60208301905092915050565b6000602082019050919050565b600061183582611791565b61183f818561179c565b935061184a836117ad565b8060005b8381101561187b5781516118628882611805565b975061186d8361181d565b92505060018101905061184e565b5085935050505092915050565b600081519050919050565b600082825260208201905092915050565b6000819050602082019050919050565b600082825260208201905092915050565b60006118d082611701565b6118da81856118b4565b93506118ea81856020860161171d565b6118f381611747565b840191505092915050565b600061190a83836118c5565b905092915050565b6000602082019050919050565b600061192a82611888565b6119348185611893565b935083602082028501611946856118a4565b8060005b85811015611982578484038952815161196385826118fe565b945061196e83611912565b925060208a0199505060018101905061194a565b50829750879550505050505092915050565b600060408301600083015184820360008601526119b1828261182a565b915050602083015184820360208601526119cb828261191f565b9150508091505092915050565b60006080820190506119ed60008301876110f3565b81810360208301526119ff8186611758565b90508181036040830152611a138185611994565b9050611a2260608301846110f3565b95945050505050565b611a34816112fc565b8114611a3f57600080fd5b50565b600081519050611a5181611a2b565b92915050565b600060208284031215611a6d57611a6c61111d565b5b6000611a7b84828501611a42565b91505092915050565b7f4e487b7100000000000000000000000000000000000000000000000000000000600052601160045260246000fd5b6000611abe82611122565b91507fffffffffffffffffffffffffffffffffffffffffffffffffffffffffffffffff8203611af057611aef611a84565b5b600182019050919050565b7f4f6e6c792066756e6473206f776e65722063616e20776974686472617720667560008201527f6e64730000000000000000000000000000000000000000000000000000000000602082015250565b6000611b5760238361154a565b9150611b6282611afb565b604082019050919050565b60006020820190508181036000830152611b8681611b4a565b9050919050565b6000611b98826110c1565b9050919050565b611ba881611b8d565b82525050565b6000606082019050611bc36000830186611b9f565b611bd060208301856110f3565b611bdd6040830184611218565b949350505050565b6000604082019050611bfa60008301856110f3565b8181036020830152611c0c8184611758565b9050939250505056fea26469706673582212202bc6b47330d74592db1125881852d59e7d41ef0fc05264e910670a82407bd7c564736f6c6343000813003360e06040523480156200001157600080fd5b50604051620015df380380620015df833981810160405281019062000037919062000296565b81818173ffffffffffffffffffffffffffffffffffffffff1660808173ffffffffffffffffffffffffffffffffffffffff16815250508173ffffffffffffffffffffffffffffffffffffffff1663573ea5756040518163ffffffff1660e01b8152600401602060405180830381865afa158015620000b9573d6000803e3d6000fd5b505050506040513d601f19601f82011682018060405250810190620000df919062000322565b73ffffffffffffffffffffffffffffffffffffffff1660c08173ffffffffffffffffffffffffffffffffffffffff168152505073c815db16d4be6ddf2685c201937905abf338f5d773ffffffffffffffffffffffffffffffffffffffff1663ded89a7c826040518263ffffffff1660e01b815260040162000161919062000365565b6040805180830381865afa1580156200017e573d6000803e3d6000fd5b505050506040513d601f19601f82011682018060405250810190620001a49190620003bf565b508073ffffffffffffffffffffffffffffffffffffffff1660a09073ffffffffffffffffffffffffffffffffffffffff16815250505050606460008190555033600160006101000a81548173ffffffffffffffffffffffffffffffffffffffff021916908373ffffffffffffffffffffffffffffffffffffffff160217905550505062000406565b600080fd5b600073ffffffffffffffffffffffffffffffffffffffff82169050919050565b60006200025e8262000231565b9050919050565b620002708162000251565b81146200027c57600080fd5b50565b600081519050620002908162000265565b92915050565b60008060408385031215620002b057620002af6200022c565b5b6000620002c0858286016200027f565b9250506020620002d3858286016200027f565b9150509250929050565b6000620002ea8262000231565b9050919050565b620002fc81620002dd565b81146200030857600080fd5b50565b6000815190506200031c81620002f1565b92915050565b6000602082840312156200033b576200033a6200022c565b5b60006200034b848285016200030b565b91505092915050565b6200035f8162000251565b82525050565b60006020820190506200037c600083018462000354565b92915050565b60008115159050919050565b620003998162000382565b8114620003a557600080fd5b50565b600081519050620003b9816200038e565b92915050565b60008060408385031215620003d957620003d86200022c565b5b6000620003e9858286016200027f565b9250506020620003fc85828601620003a8565b9150509250929050565b60805160a05160c05161119b62000444600039600081816104bd0152610591015260006101780152600081816103b301526103da015261119b6000f3fe6080604052600436106100595760003560e01c806328f150eb14610065578063776af5ba1461009057806391b7f5ed146100bb57806394e05b2c146100e457806394f6113414610122578063e70abe921461014b57610060565b3661006057005b600080fd5b34801561007157600080fd5b5061007a610176565b6040516100879190610916565b60405180910390f35b34801561009c57600080fd5b506100a561019a565b6040516100b29190610990565b60405180910390f35b3480156100c757600080fd5b506100e260048036038101906100dd91906109f0565b6101c0565b005b3480156100f057600080fd5b5061010b600480360381019061010691906109f0565b6101ca565b604051610119929190610ac8565b60405180910390f35b34801561012e57600080fd5b50610149600480360381019061014491906109f0565b6102d1565b005b34801561015757600080fd5b506101606103b1565b60405161016d9190610b19565b60405180910390f35b7f000000000000000000000000000000000000000000000000000000000000000081565b600160009054906101000a900473ffffffffffffffffffffffffffffffffffffffff1681565b8060008190555050565b60006060600054600160009054906101000a900473ffffffffffffffffffffffffffffffffffffffff1673ffffffffffffffffffffffffffffffffffffffff1663d09ef241856040518263ffffffff1660e01b815260040161022c9190610b43565b60e060405180830381865afa158015610249573d6000803e3d6000fd5b505050506040513d601f19601f8201168201806040525081019061026d9190610d35565b60200151149150826040516024016102859190610b43565b6040516020818303038152906040526394f6113460e01b6020820180517bffffffffffffffffffffffffffffffffffffffffffffffffffffffff83818316178352505050509050915091565b600160009054906101000a900473ffffffffffffffffffffffffffffffffffffffff1673ffffffffffffffffffffffffffffffffffffffff16632993c690826040518263ffffffff1660e01b815260040161032c9190610b43565b600060405180830381600087803b15801561034657600080fd5b505af115801561035a573d6000803e3d6000fd5b505050507fee02c8198e15339d816eee1c984a22b43d97a3fd967befcfdb05b9b1c98eda3f60405161038b90610dbf565b60405180910390a160008061039e6103d5565b915091506103ac8282610472565b505050565b7f000000000000000000000000000000000000000000000000000000000000000081565b6000807f000000000000000000000000000000000000000000000000000000000000000073ffffffffffffffffffffffffffffffffffffffff1663b810c6366040518163ffffffff1660e01b81526004016040805180830381865afa158015610442573d6000803e3d6000fd5b505050506040513d601f19601f820116820180604052508101906104669190610ddf565b80925081935050509091565b73eeeeeeeeeeeeeeeeeeeeeeeeeeeeeeeeeeeeeeee73ffffffffffffffffffffffffffffffffffffffff168173ffffffffffffffffffffffffffffffffffffffff160361058b5760007f000000000000000000000000000000000000000000000000000000000000000073ffffffffffffffffffffffffffffffffffffffff16836040516104ff90610e50565b60006040518083038185875af1925050503d806000811461053c576040519150601f19603f3d011682016040523d82523d6000602084013e610541565b606091505b5050905080610585576040517f08c379a000000000000000000000000000000000000000000000000000000000815260040161057c90610eb1565b60405180910390fd5b506105b7565b6105b6817f0000000000000000000000000000000000000000000000000000000000000000846105bb565b5b5050565b61063c8363a9059cbb60e01b84846040516024016105da929190610ed1565b604051602081830303815290604052907bffffffffffffffffffffffffffffffffffffffffffffffffffffffff19166020820180517bffffffffffffffffffffffffffffffffffffffffffffffffffffffff8381831617835250505050610641565b505050565b60006106a3826040518060400160405280602081526020017f5361666545524332303a206c6f772d6c6576656c2063616c6c206661696c65648152508573ffffffffffffffffffffffffffffffffffffffff166107089092919063ffffffff16565b905060008151111561070357808060200190518101906106c39190610efa565b610702576040517f08c379a00000000000000000000000000000000000000000000000000000000081526004016106f990610f99565b60405180910390fd5b5b505050565b60606107178484600085610720565b90509392505050565b606082471015610765576040517f08c379a000000000000000000000000000000000000000000000000000000000815260040161075c9061102b565b60405180910390fd5b6000808673ffffffffffffffffffffffffffffffffffffffff16858760405161078e919061107c565b60006040518083038185875af1925050503d80600081146107cb576040519150601f19603f3d011682016040523d82523d6000602084013e6107d0565b606091505b50915091506107e1878383876107ed565b92505050949350505050565b6060831561084f5760008351036108475761080785610862565b610846576040517f08c379a000000000000000000000000000000000000000000000000000000000815260040161083d906110df565b60405180910390fd5b5b82905061085a565b6108598383610885565b5b949350505050565b6000808273ffffffffffffffffffffffffffffffffffffffff163b119050919050565b6000825111156108985781518083602001fd5b806040517f08c379a00000000000000000000000000000000000000000000000000000000081526004016108cc9190611143565b60405180910390fd5b600073ffffffffffffffffffffffffffffffffffffffff82169050919050565b6000610900826108d5565b9050919050565b610910816108f5565b82525050565b600060208201905061092b6000830184610907565b92915050565b6000819050919050565b600061095661095161094c846108d5565b610931565b6108d5565b9050919050565b60006109688261093b565b9050919050565b600061097a8261095d565b9050919050565b61098a8161096f565b82525050565b60006020820190506109a56000830184610981565b92915050565b6000604051905090565b600080fd5b6000819050919050565b6109cd816109ba565b81146109d857600080fd5b50565b6000813590506109ea816109c4565b92915050565b600060208284031215610a0657610a056109b5565b5b6000610a14848285016109db565b91505092915050565b60008115159050919050565b610a3281610a1d565b82525050565b600081519050919050565b600082825260208201905092915050565b60005b83811015610a72578082015181840152602081019050610a57565b60008484015250505050565b6000601f19601f8301169050919050565b6000610a9a82610a38565b610aa48185610a43565b9350610ab4818560208601610a54565b610abd81610a7e565b840191505092915050565b6000604082019050610add6000830185610a29565b8181036020830152610aef8184610a8f565b90509392505050565b6000610b038261095d565b9050919050565b610b1381610af8565b82525050565b6000602082019050610b2e6000830184610b0a565b92915050565b610b3d816109ba565b82525050565b6000602082019050610b586000830184610b34565b92915050565b600080fd5b7f4e487b7100000000000000000000000000000000000000000000000000000000600052604160045260246000fd5b610b9b82610a7e565b810181811067ffffffffffffffff82111715610bba57610bb9610b63565b5b80604052505050565b6000610bcd6109ab565b9050610bd98282610b92565b919050565b610be7816108f5565b8114610bf257600080fd5b50565b600081519050610c0481610bde565b92915050565b600081519050610c19816109c4565b92915050565b6000819050919050565b610c3281610c1f565b8114610c3d57600080fd5b50565b600081519050610c4f81610c29565b92915050565b610c5e81610a1d565b8114610c6957600080fd5b50565b600081519050610c7b81610c55565b92915050565b600060e08284031215610c9757610c96610b5e565b5b610ca160e0610bc3565b90506000610cb184828501610bf5565b6000830152506020610cc584828501610c0a565b6020830152506040610cd984828501610c0a565b6040830152506060610ced84828501610bf5565b6060830152506080610d0184828501610bf5565b60808301525060a0610d1584828501610c40565b60a08301525060c0610d2984828501610c6c565b60c08301525092915050565b600060e08284031215610d4b57610d4a6109b5565b5b6000610d5984828501610c81565b91505092915050565b600082825260208201905092915050565b7f6f72646572206578656375746564000000000000000000000000000000000000600082015250565b6000610da9600e83610d62565b9150610db482610d73565b602082019050919050565b60006020820190508181036000830152610dd881610d9c565b9050919050565b60008060408385031215610df657610df56109b5565b5b6000610e0485828601610c0a565b9250506020610e1585828601610bf5565b9150509250929050565b600081905092915050565b50565b6000610e3a600083610e1f565b9150610e4582610e2a565b600082019050919050565b6000610e5b82610e2d565b9150819050919050565b7f5f7472616e736665723a20455448207472616e73666572206661696c65640000600082015250565b6000610e9b601e83610d62565b9150610ea682610e65565b602082019050919050565b60006020820190508181036000830152610eca81610e8e565b9050919050565b6000604082019050610ee66000830185610907565b610ef36020830184610b34565b9392505050565b600060208284031215610f1057610f0f6109b5565b5b6000610f1e84828501610c6c565b91505092915050565b7f5361666545524332303a204552433230206f7065726174696f6e20646964206e60008201527f6f74207375636365656400000000000000000000000000000000000000000000602082015250565b6000610f83602a83610d62565b9150610f8e82610f27565b604082019050919050565b60006020820190508181036000830152610fb281610f76565b9050919050565b7f416464726573733a20696e73756666696369656e742062616c616e636520666f60008201527f722063616c6c0000000000000000000000000000000000000000000000000000602082015250565b6000611015602683610d62565b915061102082610fb9565b604082019050919050565b6000602082019050818103600083015261104481611008565b9050919050565b600061105682610a38565b6110608185610e1f565b9350611070818560208601610a54565b80840191505092915050565b6000611088828461104b565b915081905092915050565b7f416464726573733a2063616c6c20746f206e6f6e2d636f6e7472616374000000600082015250565b60006110c9601d83610d62565b91506110d482611093565b602082019050919050565b600060208201905081810360008301526110f8816110bc565b9050919050565b600081519050919050565b6000611115826110ff565b61111f8185610d62565b935061112f818560208601610a54565b61113881610a7e565b840191505092915050565b6000602082019050818103600083015261115d818461110a565b90509291505056fea26469706673582212201f1e04c5b4df0b20c0c2fe1f009e280968a6f3431f11cc8bda40030295022e5b64736f6c63430008130033608060405234801561001057600080fd5b50610a6c806100206000396000f3fe608060405234801561001057600080fd5b50600436106101735760003560e01c806370a08231116100de578063ba08765211610097578063ce96cb7711610071578063ce96cb77146104fc578063d905777e1461052c578063dd62ed3e1461055c578063ef8b30f71461058c57610173565b8063ba0876521461046c578063c63d75b61461049c578063c6e6f592146104cc57610173565b806370a082311461035e57806394bf804d1461038e57806395d89b41146103be578063a9059cbb146103dc578063b3d7f6b91461040c578063b460af941461043c57610173565b806323b872dd1161013057806323b872dd14610262578063313ce5671461029257806338d52e0f146102b0578063402d267d146102ce5780634cdad506146102fe5780636e553f651461032e57610173565b806301e1d1141461017857806306fdde031461019657806307a2d13a146101b4578063095ea7b3146101e45780630a28a4771461021457806318160ddd14610244575b600080fd5b6101806105bc565b60405161018d9190610683565b60405180910390f35b61019e6105c1565b6040516101ab919061072e565b60405180910390f35b6101ce60048036038101906101c99190610781565b6105c6565b6040516101db9190610683565b60405180910390f35b6101fe60048036038101906101f9919061080c565b6105cd565b60405161020b9190610867565b60405180910390f35b61022e60048036038101906102299190610781565b6105d5565b60405161023b9190610683565b60405180910390f35b61024c6105dc565b6040516102599190610683565b60405180910390f35b61027c60048036038101906102779190610882565b6105e1565b6040516102899190610867565b60405180910390f35b61029a6105ea565b6040516102a791906108f1565b60405180910390f35b6102b86105ef565b6040516102c5919061091b565b60405180910390f35b6102e860048036038101906102e39190610936565b6105f4565b6040516102f59190610683565b60405180910390f35b61031860048036038101906103139190610781565b6105fb565b6040516103259190610683565b60405180910390f35b61034860048036038101906103439190610963565b610602565b6040516103559190610683565b60405180910390f35b61037860048036038101906103739190610936565b61060a565b6040516103859190610683565b60405180910390f35b6103a860048036038101906103a39190610963565b610611565b6040516103b59190610683565b60405180910390f35b6103c6610619565b6040516103d3919061072e565b60405180910390f35b6103f660048036038101906103f1919061080c565b61061e565b6040516104039190610867565b60405180910390f35b61042660048036038101906104219190610781565b610626565b6040516104339190610683565b60405180910390f35b610456600480360381019061045191906109a3565b61062d565b6040516104639190610683565b60405180910390f35b610486600480360381019061048191906109a3565b610636565b6040516104939190610683565b60405180910390f35b6104b660048036038101906104b19190610936565b61063f565b6040516104c39190610683565b60405180910390f35b6104e660048036038101906104e19190610781565b610646565b6040516104f39190610683565b60405180910390f35b61051660048036038101906105119190610936565b61064d565b6040516105239190610683565b60405180910390f35b61054660048036038101906105419190610936565b610654565b6040516105539190610683565b60405180910390f35b610576600480360381019061057191906109f6565b61065b565b6040516105839190610683565b60405180910390f35b6105a660048036038101906105a19190610781565b610663565b6040516105b39190610683565b60405180910390f35b600090565b606090565b6000919050565b600092915050565b6000919050565b600090565b60009392505050565b600090565b600090565b6000919050565b6000919050565b600092915050565b6000919050565b600092915050565b606090565b600092915050565b6000919050565b60009392505050565b60009392505050565b6000919050565b6000919050565b6000919050565b6000919050565b600092915050565b6000919050565b6000819050919050565b61067d8161066a565b82525050565b60006020820190506106986000830184610674565b92915050565b600081519050919050565b600082825260208201905092915050565b60005b838110156106d85780820151818401526020810190506106bd565b60008484015250505050565b6000601f19601f8301169050919050565b60006107008261069e565b61070a81856106a9565b935061071a8185602086016106ba565b610723816106e4565b840191505092915050565b6000602082019050818103600083015261074881846106f5565b905092915050565b600080fd5b61075e8161066a565b811461076957600080fd5b50565b60008135905061077b81610755565b92915050565b60006020828403121561079757610796610750565b5b60006107a58482850161076c565b91505092915050565b600073ffffffffffffffffffffffffffffffffffffffff82169050919050565b60006107d9826107ae565b9050919050565b6107e9816107ce565b81146107f457600080fd5b50565b600081359050610806816107e0565b92915050565b6000806040838503121561082357610822610750565b5b6000610831858286016107f7565b92505060206108428582860161076c565b9150509250929050565b60008115159050919050565b6108618161084c565b82525050565b600060208201905061087c6000830184610858565b92915050565b60008060006060848603121561089b5761089a610750565b5b60006108a9868287016107f7565b93505060206108ba868287016107f7565b92505060406108cb8682870161076c565b9150509250925092565b600060ff82169050919050565b6108eb816108d5565b82525050565b600060208201905061090660008301846108e2565b92915050565b610915816107ce565b82525050565b6000602082019050610930600083018461090c565b92915050565b60006020828403121561094c5761094b610750565b5b600061095a848285016107f7565b91505092915050565b6000806040838503121561097a57610979610750565b5b60006109888582860161076c565b9250506020610999858286016107f7565b9150509250929050565b6000806000606084860312156109bc576109bb610750565b5b60006109ca8682870161076c565b93505060206109db868287016107f7565b92505060406109ec868287016107f7565b9150509250925092565b60008060408385031215610a0d57610a0c610750565b5b6000610a1b858286016107f7565b9250506020610a2c858286016107f7565b915050925092905056fea26469706673582212204b1d45209becb22a8758a9ba4548b8eed6787a35e2cd754e7fb0c4a761d516c664736f6c63430008130033",
  "immutableReferences": {
    "1399": [
      {
        "length": 32,
        "start": 1312
      },
      {
        "length": 32,
        "start": 2230
      },
      {
        "length": 32,
        "start": 4018
      }
    ],
    "1401": [
      {
        "length": 32,
        "start": 754
      }
    ],
    "1523": [
      {
        "length": 32,
        "start": 1025
      },
      {
        "length": 32,
        "start": 2907
      },
      {
        "length": 32,
        "start": 3109
      }
    ],
    "1526": [
      {
        "length": 32,
        "start": 3049
      },
      {
        "length": 32,
        "start": 3982
      }
    ]
  },
  "source": "// SPDX-License-Identifier: UNLICENSED\npragma solidity ^0.8.19;\n\nimport \"./Types.sol\";\nimport \"./OrderExecutor.sol\";\nimport \"./OpsTaskCreator.sol\";\nimport './LendingVault.sol';\n\nstruct OrderDatas {\n    address user;\n    uint256 price;\n    uint256 amount;\n    address fromToken;\n    address toToken;\n    bytes32 orderId;\n    bool isExecuted;\n}\n\ncontract OrderBook is OpsTaskCreator {\n    mapping (uint => OrderDatas) public orders; // returns order data\n    uint orderNonce;\n    address public admin;\n    OrderExecutor public orderExecutor;\n    LendingVault public lendingVault;\n    event construct(string, address);\n\n    constructor() OpsTaskCreator(0xc1C6805B857Bef1f412519C4A842522431aFed39, address(this)) {\n        emit construct(\"address(ops)\", address(ops));\n        orderExecutor = new OrderExecutor(address(ops), 0x08f6dDE16166F06e1d486749452dc3A44f175456);\n        // we create new \"LendingVault\" contract here\n        lendingVault = new LendingVault();\n        admin = msg.sender;\n    }\n\n    function createOrder(uint price, uint amount, address fromToken, address toToken) external returns (uint) {\n        IERC20 FromToken = IERC20(fromToken);\n        //FromToken.transferFrom(fromToken, msg.sender, address(this), amount);\n        //FromToken.approve(address(orderExecutor), amount);\n        //FromToken.transfer(toToken, amount);\n\n        bytes memory execData = abi.encodeCall(orderExecutor.executeOrder, (orderNonce));\n\n        ModuleData memory moduleData = ModuleData({\n            modules: new Module[](2),\n            args: new bytes[](2)\n        });\n\n        moduleData.modules[0] = Module.RESOLVER;\n        moduleData.modules[1] = Module.SINGLE_EXEC;\n\n        moduleData.args[0] = _resolverModuleArg(address(orderExecutor), abi.encodeCall(orderExecutor.checker, (orderNonce)));\n        moduleData.args[1] = _singleExecModuleArg();\n\n        // Faulty\n        bytes32 orderId = ops.createTask(\n            address(orderExecutor), // contract to execute\n            execData, // function to execute\n            moduleData,\n            0xEeeeeEeeeEeEeeEeEeEeeEEEeeeeEeeeeeeeEEeE\n        );\n\n        orders[orderNonce] = OrderDatas(msg.sender, price, amount, fromToken, toToken, orderId, false);\n        orderNonce++;\n\n        return orderNonce;\n    }\n\n    function cancelOrder(uint _orderNonce) external {\n        require(\n            msg.sender == admin || orders[_orderNonce].user == msg.sender,\n            \"Not allowed to cancel this order\"\n        );\n        ops.cancelTask(orders[_orderNonce].orderId);\n    }\n\n    // function to return executor address in order to check the txs\n    function getExecutorAddress() public view returns (address) {\n        return address(orderExecutor);\n    }\n\n    function setPrice(uint price) public {\n        orderExecutor.setPrice(price);\n    }\n\n    \n    function setExecuted(uint orderNonce) public {\n        require(msg.sender == address(orderExecutor), \"Only the executor can set the order as executed\");\n        orders[orderNonce].isExecuted = true;\n    }\n\n    function getOrder(uint orderNonce) public view returns (OrderDatas memory) {\n        return orders[orderNonce];\n    }\n\n}\n\n\n",
  "sourcePath": "/Users/blabla/Documents/gelato_test/contracts/OrderBook.sol",
  "compiler": {
    "name": "solc",
    "version": "0.8.19+commit.7dd6d404.Emscripten.clang"
  },
  "schemaVersion": "3.4.11",
  "updatedAt": "2023-03-01T23:10:35.256Z",
  "devdoc": {
    "kind": "dev",
    "methods": {
      "withdrawFunds(uint256,address)": {
        "details": "Withdraw funds from this contract's Gelato balance to fundsOwner."
      }
    },
    "version": 1
  },
  "userdoc": {
    "kind": "user",
    "methods": {},
    "version": 1
  }
}