{
  "contractName": "OrderExecutor",
  "abi": [
    {
      "inputs": [
        {
          "internalType": "address",
          "name": "_ops",
          "type": "address"
        },
        {
          "internalType": "address",
          "name": "_taskCreator",
          "type": "address"
        },
        {
          "internalType": "address",
          "name": "_swapRouter",
          "type": "address"
        }
      ],
      "stateMutability": "nonpayable",
      "type": "constructor"
    },
    {
      "anonymous": false,
      "inputs": [
        {
          "indexed": false,
          "internalType": "string",
          "name": "",
          "type": "string"
        },
        {
          "indexed": false,
          "internalType": "uint256",
          "name": "",
          "type": "uint256"
        }
      ],
      "name": "OrderDone",
      "type": "event"
    },
    {
      "anonymous": false,
      "inputs": [
        {
          "indexed": false,
          "internalType": "string",
          "name": "",
          "type": "string"
        },
        {
          "indexed": false,
          "internalType": "uint256",
          "name": "",
          "type": "uint256"
        }
      ],
      "name": "SwapPreparation",
      "type": "event"
    },
    {
      "anonymous": false,
      "inputs": [
        {
          "indexed": false,
          "internalType": "string",
          "name": "",
          "type": "string"
        },
        {
          "indexed": false,
          "internalType": "uint256",
          "name": "",
          "type": "uint256"
        }
      ],
      "name": "SwapTestAm",
      "type": "event"
    },
    {
      "inputs": [],
      "name": "dedicatedMsgSender",
      "outputs": [
        {
          "internalType": "address",
          "name": "",
          "type": "address"
        }
      ],
      "stateMutability": "view",
      "type": "function",
      "constant": true
    },
    {
      "inputs": [],
      "name": "lendingVault",
      "outputs": [
        {
          "internalType": "contract LendingVault",
          "name": "",
          "type": "address"
        }
      ],
      "stateMutability": "view",
      "type": "function",
      "constant": true
    },
    {
      "inputs": [],
      "name": "ops",
      "outputs": [
        {
          "internalType": "contract IOps",
          "name": "",
          "type": "address"
        }
      ],
      "stateMutability": "view",
      "type": "function",
      "constant": true
    },
    {
      "inputs": [],
      "name": "orderBook",
      "outputs": [
        {
          "internalType": "contract OrderBook",
          "name": "",
          "type": "address"
        }
      ],
      "stateMutability": "view",
      "type": "function",
      "constant": true
    },
    {
      "inputs": [],
      "name": "swapRouter",
      "outputs": [
        {
          "internalType": "contract ISwapRouter",
          "name": "",
          "type": "address"
        }
      ],
      "stateMutability": "view",
      "type": "function",
      "constant": true
    },
    {
      "stateMutability": "payable",
      "type": "receive",
      "payable": true
    },
    {
      "inputs": [
        {
          "internalType": "uint256",
          "name": "_price",
          "type": "uint256"
        }
      ],
      "name": "setPrice",
      "outputs": [],
      "stateMutability": "nonpayable",
      "type": "function"
    },
    {
      "inputs": [
        {
          "internalType": "address",
          "name": "_lendingVault",
          "type": "address"
        }
      ],
      "name": "setLendingVault",
      "outputs": [],
      "stateMutability": "nonpayable",
      "type": "function"
    },
    {
      "inputs": [
        {
          "internalType": "uint256",
          "name": "orderNonce",
          "type": "uint256"
        }
      ],
      "name": "executeOrder",
      "outputs": [],
      "stateMutability": "nonpayable",
      "type": "function"
    },
    {
      "inputs": [
        {
          "internalType": "uint256",
          "name": "orderNonce",
          "type": "uint256"
        }
      ],
      "name": "checker",
      "outputs": [
        {
          "internalType": "bool",
          "name": "canExec",
          "type": "bool"
        },
        {
          "internalType": "bytes",
          "name": "execPayload",
          "type": "bytes"
        }
      ],
      "stateMutability": "view",
      "type": "function",
      "constant": true
    },
    {
      "inputs": [],
      "name": "withdraw",
      "outputs": [],
      "stateMutability": "nonpayable",
      "type": "function"
    }
  ],
  "bytecode": "0x6101006040523480156200001257600080fd5b506040516200211b3803806200211b83398181016040528101906200003891906200030d565b82828173ffffffffffffffffffffffffffffffffffffffff1660808173ffffffffffffffffffffffffffffffffffffffff16815250508173ffffffffffffffffffffffffffffffffffffffff1663573ea5756040518163ffffffff1660e01b8152600401602060405180830381865afa158015620000ba573d6000803e3d6000fd5b505050506040513d601f19601f82011682018060405250810190620000e09190620003ae565b73ffffffffffffffffffffffffffffffffffffffff1660c08173ffffffffffffffffffffffffffffffffffffffff168152505073c815db16d4be6ddf2685c201937905abf338f5d773ffffffffffffffffffffffffffffffffffffffff1663ded89a7c826040518263ffffffff1660e01b8152600401620001629190620003f1565b6040805180830381865afa1580156200017f573d6000803e3d6000fd5b505050506040513d601f19601f82011682018060405250810190620001a591906200044b565b508073ffffffffffffffffffffffffffffffffffffffff1660a09073ffffffffffffffffffffffffffffffffffffffff16815250505050606460008190555033600160006101000a81548173ffffffffffffffffffffffffffffffffffffffff021916908373ffffffffffffffffffffffffffffffffffffffff16021790555081600260006101000a81548173ffffffffffffffffffffffffffffffffffffffff021916908373ffffffffffffffffffffffffffffffffffffffff1602179055508073ffffffffffffffffffffffffffffffffffffffff1660e08173ffffffffffffffffffffffffffffffffffffffff168152505050505062000492565b600080fd5b600073ffffffffffffffffffffffffffffffffffffffff82169050919050565b6000620002d582620002a8565b9050919050565b620002e781620002c8565b8114620002f357600080fd5b50565b6000815190506200030781620002dc565b92915050565b600080600060608486031215620003295762000328620002a3565b5b60006200033986828701620002f6565b93505060206200034c86828701620002f6565b92505060406200035f86828701620002f6565b9150509250925092565b60006200037682620002a8565b9050919050565b620003888162000369565b81146200039457600080fd5b50565b600081519050620003a8816200037d565b92915050565b600060208284031215620003c757620003c6620002a3565b5b6000620003d78482850162000397565b91505092915050565b620003eb81620002c8565b82525050565b6000602082019050620004086000830184620003e0565b92915050565b60008115159050919050565b62000425816200040e565b81146200043157600080fd5b50565b60008151905062000445816200041a565b92915050565b60008060408385031215620004655762000464620002a3565b5b60006200047585828601620002f6565b9250506020620004888582860162000434565b9150509250929050565b60805160a05160c05160e051611c33620004e8600039600081816106c1015281816109c00152610b41015260008181610c950152610d690152600061024a015260008181610b8b0152610bb20152611c336000f3fe6080604052600436106100955760003560e01c806394e05b2c1161005957806394e05b2c1461016057806394f611341461019e578063c31c9c07146101c7578063cb8c5a3a146101f2578063e70abe921461021d5761009c565b806328f150eb146100a15780633ccfd60b146100cc578063408a03d8146100e3578063776af5ba1461010c57806391b7f5ed146101375761009c565b3661009c57005b600080fd5b3480156100ad57600080fd5b506100b6610248565b6040516100c391906110ee565b60405180910390f35b3480156100d857600080fd5b506100e161026c565b005b3480156100ef57600080fd5b5061010a60048036038101906101059190611144565b610345565b005b34801561011857600080fd5b50610121610389565b60405161012e91906111d0565b60405180910390f35b34801561014357600080fd5b5061015e60048036038101906101599190611221565b6103af565b005b34801561016c57600080fd5b5061018760048036038101906101829190611221565b6103b9565b6040516101959291906112f9565b60405180910390f35b3480156101aa57600080fd5b506101c560048036038101906101c09190611221565b6104c0565b005b3480156101d357600080fd5b506101dc610b3f565b6040516101e9919061134a565b60405180910390f35b3480156101fe57600080fd5b50610207610b63565b6040516102149190611386565b60405180910390f35b34801561022957600080fd5b50610232610b89565b60405161023f91906113c2565b60405180910390f35b7f000000000000000000000000000000000000000000000000000000000000000081565b600160009054906101000a900473ffffffffffffffffffffffffffffffffffffffff1673ffffffffffffffffffffffffffffffffffffffff163373ffffffffffffffffffffffffffffffffffffffff16146102fc576040517f08c379a00000000000000000000000000000000000000000000000000000000081526004016102f39061143a565b60405180910390fd5b3373ffffffffffffffffffffffffffffffffffffffff166108fc479081150290604051600060405180830381858888f19350505050158015610342573d6000803e3d6000fd5b50565b80600360006101000a81548173ffffffffffffffffffffffffffffffffffffffff021916908373ffffffffffffffffffffffffffffffffffffffff16021790555050565b600260009054906101000a900473ffffffffffffffffffffffffffffffffffffffff1681565b8060008190555050565b60006060600054600260009054906101000a900473ffffffffffffffffffffffffffffffffffffffff1673ffffffffffffffffffffffffffffffffffffffff1663d09ef241856040518263ffffffff1660e01b815260040161041b9190611469565b60e060405180830381865afa158015610438573d6000803e3d6000fd5b505050506040513d601f19601f8201168201806040525081019061045c9190611644565b60200151149150826040516024016104749190611469565b6040516020818303038152906040526394f6113460e01b6020820180517bffffffffffffffffffffffffffffffffffffffffffffffffffffffff83818316178352505050509050915091565b6000600360009054906101000a900473ffffffffffffffffffffffffffffffffffffffff1673ffffffffffffffffffffffffffffffffffffffff1663f3fef3a3600260009054906101000a900473ffffffffffffffffffffffffffffffffffffffff1673ffffffffffffffffffffffffffffffffffffffff1663d09ef241856040518263ffffffff1660e01b815260040161055b9190611469565b60e060405180830381865afa158015610578573d6000803e3d6000fd5b505050506040513d601f19601f8201168201806040525081019061059c9190611644565b60600151846040518363ffffffff1660e01b81526004016105be929190611671565b6020604051808303816000875af11580156105dd573d6000803e3d6000fd5b505050506040513d601f19601f82011682018060405250810190610601919061169a565b9050600260009054906101000a900473ffffffffffffffffffffffffffffffffffffffff1673ffffffffffffffffffffffffffffffffffffffff1663d09ef24160006040518263ffffffff1660e01b815260040161065f9190611702565b60e060405180830381865afa15801561067c573d6000803e3d6000fd5b505050506040513d601f19601f820116820180604052508101906106a09190611644565b6060015173ffffffffffffffffffffffffffffffffffffffff1663095ea7b37f0000000000000000000000000000000000000000000000000000000000000000836040518363ffffffff1660e01b81526004016106fe929190611671565b6020604051808303816000875af115801561071d573d6000803e3d6000fd5b505050506040513d601f19601f82011682018060405250810190610741919061171d565b506000604051806101000160405280600260009054906101000a900473ffffffffffffffffffffffffffffffffffffffff1673ffffffffffffffffffffffffffffffffffffffff1663d09ef241866040518263ffffffff1660e01b81526004016107ab9190611469565b60e060405180830381865afa1580156107c8573d6000803e3d6000fd5b505050506040513d601f19601f820116820180604052508101906107ec9190611644565b6060015173ffffffffffffffffffffffffffffffffffffffff168152602001600260009054906101000a900473ffffffffffffffffffffffffffffffffffffffff1673ffffffffffffffffffffffffffffffffffffffff1663d09ef241866040518263ffffffff1660e01b81526004016108669190611469565b60e060405180830381865afa158015610883573d6000803e3d6000fd5b505050506040513d601f19601f820116820180604052508101906108a79190611644565b6080015173ffffffffffffffffffffffffffffffffffffffff168152602001610bb862ffffff168152602001600260009054906101000a900473ffffffffffffffffffffffffffffffffffffffff1673ffffffffffffffffffffffffffffffffffffffff1663d09ef241866040518263ffffffff1660e01b815260040161092e9190611469565b60e060405180830381865afa15801561094b573d6000803e3d6000fd5b505050506040513d601f19601f8201168201806040525081019061096f9190611644565b6000015173ffffffffffffffffffffffffffffffffffffffff16815260200142815260200183815260200160008152602001600073ffffffffffffffffffffffffffffffffffffffff1681525090507f000000000000000000000000000000000000000000000000000000000000000073ffffffffffffffffffffffffffffffffffffffff1663414bf389826040518263ffffffff1660e01b8152600401610a179190611837565b6020604051808303816000875af1158015610a36573d6000803e3d6000fd5b505050506040513d601f19601f82011682018060405250810190610a5a919061169a565b50600260009054906101000a900473ffffffffffffffffffffffffffffffffffffffff1673ffffffffffffffffffffffffffffffffffffffff16632993c690846040518263ffffffff1660e01b8152600401610ab69190611469565b600060405180830381600087803b158015610ad057600080fd5b505af1158015610ae4573d6000803e3d6000fd5b505050507f9e86ce0485ddb047dd0f8fde14218156b79c2832f3c1ae9d2a05aa746cb6e3be83604051610b17919061189f565b60405180910390a1600080610b2a610bad565b91509150610b388282610c4a565b5050505050565b7f000000000000000000000000000000000000000000000000000000000000000081565b600360009054906101000a900473ffffffffffffffffffffffffffffffffffffffff1681565b7f000000000000000000000000000000000000000000000000000000000000000081565b6000807f000000000000000000000000000000000000000000000000000000000000000073ffffffffffffffffffffffffffffffffffffffff1663b810c6366040518163ffffffff1660e01b81526004016040805180830381865afa158015610c1a573d6000803e3d6000fd5b505050506040513d601f19601f82011682018060405250810190610c3e91906118cd565b80925081935050509091565b73eeeeeeeeeeeeeeeeeeeeeeeeeeeeeeeeeeeeeeee73ffffffffffffffffffffffffffffffffffffffff168173ffffffffffffffffffffffffffffffffffffffff1603610d635760007f000000000000000000000000000000000000000000000000000000000000000073ffffffffffffffffffffffffffffffffffffffff1683604051610cd79061193e565b60006040518083038185875af1925050503d8060008114610d14576040519150601f19603f3d011682016040523d82523d6000602084013e610d19565b606091505b5050905080610d5d576040517f08c379a0000000000000000000000000000000000000000000000000000000008152600401610d549061199f565b60405180910390fd5b50610d8f565b610d8e817f000000000000000000000000000000000000000000000000000000000000000084610d93565b5b5050565b610e148363a9059cbb60e01b8484604051602401610db2929190611671565b604051602081830303815290604052907bffffffffffffffffffffffffffffffffffffffffffffffffffffffff19166020820180517bffffffffffffffffffffffffffffffffffffffffffffffffffffffff8381831617835250505050610e19565b505050565b6000610e7b826040518060400160405280602081526020017f5361666545524332303a206c6f772d6c6576656c2063616c6c206661696c65648152508573ffffffffffffffffffffffffffffffffffffffff16610ee09092919063ffffffff16565b9050600081511115610edb5780806020019051810190610e9b919061171d565b610eda576040517f08c379a0000000000000000000000000000000000000000000000000000000008152600401610ed190611a31565b60405180910390fd5b5b505050565b6060610eef8484600085610ef8565b90509392505050565b606082471015610f3d576040517f08c379a0000000000000000000000000000000000000000000000000000000008152600401610f3490611ac3565b60405180910390fd5b6000808673ffffffffffffffffffffffffffffffffffffffff168587604051610f669190611b14565b60006040518083038185875af1925050503d8060008114610fa3576040519150601f19603f3d011682016040523d82523d6000602084013e610fa8565b606091505b5091509150610fb987838387610fc5565b92505050949350505050565b6060831561102757600083510361101f57610fdf8561103a565b61101e576040517f08c379a000000000000000000000000000000000000000000000000000000000815260040161101590611b77565b60405180910390fd5b5b829050611032565b611031838361105d565b5b949350505050565b6000808273ffffffffffffffffffffffffffffffffffffffff163b119050919050565b6000825111156110705781518083602001fd5b806040517f08c379a00000000000000000000000000000000000000000000000000000000081526004016110a49190611bdb565b60405180910390fd5b600073ffffffffffffffffffffffffffffffffffffffff82169050919050565b60006110d8826110ad565b9050919050565b6110e8816110cd565b82525050565b600060208201905061110360008301846110df565b92915050565b6000604051905090565b600080fd5b611121816110cd565b811461112c57600080fd5b50565b60008135905061113e81611118565b92915050565b60006020828403121561115a57611159611113565b5b60006111688482850161112f565b91505092915050565b6000819050919050565b600061119661119161118c846110ad565b611171565b6110ad565b9050919050565b60006111a88261117b565b9050919050565b60006111ba8261119d565b9050919050565b6111ca816111af565b82525050565b60006020820190506111e560008301846111c1565b92915050565b6000819050919050565b6111fe816111eb565b811461120957600080fd5b50565b60008135905061121b816111f5565b92915050565b60006020828403121561123757611236611113565b5b60006112458482850161120c565b91505092915050565b60008115159050919050565b6112638161124e565b82525050565b600081519050919050565b600082825260208201905092915050565b60005b838110156112a3578082015181840152602081019050611288565b60008484015250505050565b6000601f19601f8301169050919050565b60006112cb82611269565b6112d58185611274565b93506112e5818560208601611285565b6112ee816112af565b840191505092915050565b600060408201905061130e600083018561125a565b818103602083015261132081846112c0565b90509392505050565b60006113348261119d565b9050919050565b61134481611329565b82525050565b600060208201905061135f600083018461133b565b92915050565b60006113708261119d565b9050919050565b61138081611365565b82525050565b600060208201905061139b6000830184611377565b92915050565b60006113ac8261119d565b9050919050565b6113bc816113a1565b82525050565b60006020820190506113d760008301846113b3565b92915050565b600082825260208201905092915050565b7f6e6f7420616c6c6f776564206164647265737300000000000000000000000000600082015250565b60006114246013836113dd565b915061142f826113ee565b602082019050919050565b6000602082019050818103600083015261145381611417565b9050919050565b611463816111eb565b82525050565b600060208201905061147e600083018461145a565b92915050565b600080fd5b7f4e487b7100000000000000000000000000000000000000000000000000000000600052604160045260246000fd5b6114c1826112af565b810181811067ffffffffffffffff821117156114e0576114df611489565b5b80604052505050565b60006114f3611109565b90506114ff82826114b8565b919050565b60008151905061151381611118565b92915050565b600081519050611528816111f5565b92915050565b6000819050919050565b6115418161152e565b811461154c57600080fd5b50565b60008151905061155e81611538565b92915050565b61156d8161124e565b811461157857600080fd5b50565b60008151905061158a81611564565b92915050565b600060e082840312156115a6576115a5611484565b5b6115b060e06114e9565b905060006115c084828501611504565b60008301525060206115d484828501611519565b60208301525060406115e884828501611519565b60408301525060606115fc84828501611504565b606083015250608061161084828501611504565b60808301525060a06116248482850161154f565b60a08301525060c06116388482850161157b565b60c08301525092915050565b600060e0828403121561165a57611659611113565b5b600061166884828501611590565b91505092915050565b600060408201905061168660008301856110df565b611693602083018461145a565b9392505050565b6000602082840312156116b0576116af611113565b5b60006116be84828501611519565b91505092915050565b6000819050919050565b60006116ec6116e76116e2846116c7565b611171565b6111eb565b9050919050565b6116fc816116d1565b82525050565b600060208201905061171760008301846116f3565b92915050565b60006020828403121561173357611732611113565b5b60006117418482850161157b565b91505092915050565b611753816110cd565b82525050565b600062ffffff82169050919050565b61177181611759565b82525050565b611780816111eb565b82525050565b61178f816110ad565b82525050565b610100820160008201516117ac600085018261174a565b5060208201516117bf602085018261174a565b5060408201516117d26040850182611768565b5060608201516117e5606085018261174a565b5060808201516117f86080850182611777565b5060a082015161180b60a0850182611777565b5060c082015161181e60c0850182611777565b5060e082015161183160e0850182611786565b50505050565b60006101008201905061184d6000830184611795565b92915050565b7f6f726465725f6578656375746564000000000000000000000000000000000000600082015250565b6000611889600e836113dd565b915061189482611853565b602082019050919050565b600060408201905081810360008301526118b88161187c565b90506118c7602083018461145a565b92915050565b600080604083850312156118e4576118e3611113565b5b60006118f285828601611519565b925050602061190385828601611504565b9150509250929050565b600081905092915050565b50565b600061192860008361190d565b915061193382611918565b600082019050919050565b60006119498261191b565b9150819050919050565b7f5f7472616e736665723a20455448207472616e73666572206661696c65640000600082015250565b6000611989601e836113dd565b915061199482611953565b602082019050919050565b600060208201905081810360008301526119b88161197c565b9050919050565b7f5361666545524332303a204552433230206f7065726174696f6e20646964206e60008201527f6f74207375636365656400000000000000000000000000000000000000000000602082015250565b6000611a1b602a836113dd565b9150611a26826119bf565b604082019050919050565b60006020820190508181036000830152611a4a81611a0e565b9050919050565b7f416464726573733a20696e73756666696369656e742062616c616e636520666f60008201527f722063616c6c0000000000000000000000000000000000000000000000000000602082015250565b6000611aad6026836113dd565b9150611ab882611a51565b604082019050919050565b60006020820190508181036000830152611adc81611aa0565b9050919050565b6000611aee82611269565b611af8818561190d565b9350611b08818560208601611285565b80840191505092915050565b6000611b208284611ae3565b915081905092915050565b7f416464726573733a2063616c6c20746f206e6f6e2d636f6e7472616374000000600082015250565b6000611b61601d836113dd565b9150611b6c82611b2b565b602082019050919050565b60006020820190508181036000830152611b9081611b54565b9050919050565b600081519050919050565b6000611bad82611b97565b611bb781856113dd565b9350611bc7818560208601611285565b611bd0816112af565b840191505092915050565b60006020820190508181036000830152611bf58184611ba2565b90509291505056fea26469706673582212202dbbd6d6a63ea31fc5ea9ea605ae19294dcddc5fcefb0f1fd61f3201f992eebd64736f6c63430008130033",
  "immutableReferences": {
    "1299": [
      {
        "length": 32,
        "start": 1729
      },
      {
        "length": 32,
        "start": 2496
      },
      {
        "length": 32,
        "start": 2881
      }
    ],
    "1536": [
      {
        "length": 32,
        "start": 2955
      },
      {
        "length": 32,
        "start": 2994
      }
    ],
    "1538": [
      {
        "length": 32,
        "start": 586
      }
    ],
    "1540": [
      {
        "length": 32,
        "start": 3221
      },
      {
        "length": 32,
        "start": 3433
      }
    ]
  },
  "source": "// SPDX-License-Identifier: UNLICENSED\npragma solidity ^0.8.19;\n\nimport \"./gelato/OpsReady.sol\";\nimport \"./OrderBook.sol\";\nimport './LendingVault.sol';\nimport \"./uniswap/ISwapRouter.sol\";\n\ncontract OrderExecutor is OpsReady {\n\n    uint price;\n    address deployer;\n\n    OrderBook public orderBook;\n    ISwapRouter public immutable swapRouter;\n    LendingVault public lendingVault;\n\n    event OrderDone(string, uint256);\n    event SwapPreparation(string, uint256);\n    event SwapTestAm(string, uint256);\n\n    constructor(address _ops, address _taskCreator, address _swapRouter) OpsReady(_ops, _taskCreator) {\n        price = 100; // arbitrary price\n        deployer = msg.sender;\n        orderBook = OrderBook(_taskCreator);\n        swapRouter = ISwapRouter(_swapRouter);\n    }\n\n    function setPrice(uint _price) public {\n        price = _price;\n    }\n\n    receive() external payable {}\n\n    function setLendingVault(address _lendingVault) public {\n        lendingVault = LendingVault(_lendingVault);\n    }\n\n    function executeOrder(uint orderNonce) external /*onlyDedicatedMsgSender*/ {\n        // execute order with orderNonce here\n        uint256 amountWithdrawed = lendingVault.withdraw(orderBook.getOrder(orderNonce).tokenIn, orderNonce);\n\n        // Approving the appropriate amount that uniswap is gonna take on order to make the swap\n        IERC20(orderBook.getOrder(0).tokenIn).approve(address(swapRouter), amountWithdrawed);\n        // Naively set amountOutMinimum to 0. In production, use an oracle or other data source to choose a safer value for amountOutMinimum.\n        // We also set the sqrtPriceLimitx96 to be 0 to ensure we swap our exact input amount.\n        ISwapRouter.ExactInputSingleParams memory params =\n            ISwapRouter.ExactInputSingleParams({\n                tokenIn: orderBook.getOrder(orderNonce).tokenIn,\n                tokenOut: orderBook.getOrder(orderNonce).tokenOut,\n                fee: 3000, // For this example, we will set the pool fee to 0.3%.\n                recipient: orderBook.getOrder(orderNonce).user,\n                deadline: block.timestamp,\n                amountIn: amountWithdrawed,\n                amountOutMinimum: 0, // NOT IN PRODUCTION\n                sqrtPriceLimitX96: 0 // NOT IN PRODUCTION\n            });\n\n        // The call to `exactInputSingle` executes the swap.\n        swapRouter.exactInputSingle(params);\n\n        orderBook.setExecuted(orderNonce);\n        emit OrderDone(\"order_executed\", orderNonce);\n        // \n        (uint256 fee, address feeToken) = _getFeeDetails();\n        // on a les fees jusqu' l\n        _transfer(fee, feeToken);\n    }\n\n    function checker(uint orderNonce) external view returns (bool canExec, bytes memory execPayload) {\n        // check that liquidity is still into the vault\n        // require(vault.getLiquidity() > 0, \"No liquidity\");\n        canExec = orderBook.getOrder(orderNonce).price == price; // The condition that needs to be true for the task to be executed, you can filter the condition with the orderId\n        execPayload = abi.encodeCall(OrderExecutor.executeOrder, orderNonce); // The function that you want to call on the contract\n    }\n\n    // Only used for testing\n    function withdraw() public {\n        require(msg.sender == deployer, \"not allowed address\");\n        payable(msg.sender).transfer(address(this).balance);\n    }\n\n}\n",
  "sourcePath": "/Users/blabla/Documents/gelato_test/contracts/OrderExecutor.sol",
  "compiler": {
    "name": "solc",
    "version": "0.8.19+commit.7dd6d404.Emscripten.clang"
  },
  "schemaVersion": "3.4.11",
  "updatedAt": "2023-03-05T08:08:38.804Z",
  "networkType": "ethereum",
  "devdoc": {
    "kind": "dev",
    "methods": {},
    "version": 1
  },
  "userdoc": {
    "kind": "user",
    "methods": {},
    "version": 1
  }
}