{
  "contractName": "OrderBook",
  "abi": [
    {
      "inputs": [],
      "stateMutability": "nonpayable",
      "type": "constructor"
    },
    {
      "inputs": [],
      "name": "admin",
      "outputs": [
        {
          "internalType": "address",
          "name": "",
          "type": "address"
        }
      ],
      "stateMutability": "view",
      "type": "function",
      "constant": true
    },
    {
      "inputs": [],
      "name": "counter",
      "outputs": [
        {
          "internalType": "contract CounterWT",
          "name": "",
          "type": "address"
        }
      ],
      "stateMutability": "view",
      "type": "function",
      "constant": true
    },
    {
      "inputs": [],
      "name": "dedicatedMsgSender",
      "outputs": [
        {
          "internalType": "address",
          "name": "",
          "type": "address"
        }
      ],
      "stateMutability": "view",
      "type": "function",
      "constant": true
    },
    {
      "inputs": [],
      "name": "fundsOwner",
      "outputs": [
        {
          "internalType": "address",
          "name": "",
          "type": "address"
        }
      ],
      "stateMutability": "view",
      "type": "function",
      "constant": true
    },
    {
      "inputs": [],
      "name": "ops",
      "outputs": [
        {
          "internalType": "contract IOps",
          "name": "",
          "type": "address"
        }
      ],
      "stateMutability": "view",
      "type": "function",
      "constant": true
    },
    {
      "inputs": [],
      "name": "taskTreasury",
      "outputs": [
        {
          "internalType": "contract ITaskTreasuryUpgradable",
          "name": "",
          "type": "address"
        }
      ],
      "stateMutability": "view",
      "type": "function",
      "constant": true
    },
    {
      "inputs": [
        {
          "internalType": "bytes32",
          "name": "",
          "type": "bytes32"
        }
      ],
      "name": "userOrders",
      "outputs": [
        {
          "internalType": "address",
          "name": "",
          "type": "address"
        }
      ],
      "stateMutability": "view",
      "type": "function",
      "constant": true
    },
    {
      "inputs": [
        {
          "internalType": "uint256",
          "name": "_amount",
          "type": "uint256"
        },
        {
          "internalType": "address",
          "name": "_token",
          "type": "address"
        }
      ],
      "name": "withdrawFunds",
      "outputs": [],
      "stateMutability": "nonpayable",
      "type": "function"
    },
    {
      "inputs": [],
      "name": "createOrder",
      "outputs": [
        {
          "internalType": "bytes32",
          "name": "",
          "type": "bytes32"
        }
      ],
      "stateMutability": "nonpayable",
      "type": "function"
    },
    {
      "inputs": [
        {
          "internalType": "bytes32",
          "name": "_orderId",
          "type": "bytes32"
        }
      ],
      "name": "cancelOrder",
      "outputs": [],
      "stateMutability": "nonpayable",
      "type": "function"
    },
    {
      "inputs": [],
      "name": "getCounterAddress",
      "outputs": [
        {
          "internalType": "address",
          "name": "",
          "type": "address"
        }
      ],
      "stateMutability": "view",
      "type": "function",
      "constant": true
    },
    {
      "inputs": [],
      "name": "toggleCounter",
      "outputs": [],
      "stateMutability": "nonpayable",
      "type": "function"
    }
  ],
  "bytecode": "0x6101206040523480156200001257600080fd5b5073c1c6805b857bef1f412519c4a842522431afed393081308173ffffffffffffffffffffffffffffffffffffffff1660808173ffffffffffffffffffffffffffffffffffffffff16815250508173ffffffffffffffffffffffffffffffffffffffff1663573ea5756040518163ffffffff1660e01b8152600401602060405180830381865afa158015620000ab573d6000803e3d6000fd5b505050506040513d601f19601f82011682018060405250810190620000d19190620003fb565b73ffffffffffffffffffffffffffffffffffffffff1660c08173ffffffffffffffffffffffffffffffffffffffff168152505073c815db16d4be6ddf2685c201937905abf338f5d773ffffffffffffffffffffffffffffffffffffffff1663ded89a7c826040518263ffffffff1660e01b815260040162000153919062000452565b6040805180830381865afa15801562000170573d6000803e3d6000fd5b505050506040513d601f19601f82011682018060405250810190620001969190620004dd565b508073ffffffffffffffffffffffffffffffffffffffff1660a09073ffffffffffffffffffffffffffffffffffffffff168152505050508073ffffffffffffffffffffffffffffffffffffffff1660e08173ffffffffffffffffffffffffffffffffffffffff168152505060805173ffffffffffffffffffffffffffffffffffffffff1663e60a32136040518163ffffffff1660e01b8152600401602060405180830381865afa1580156200024f573d6000803e3d6000fd5b505050506040513d601f19601f8201168201806040525081019062000275919062000569565b73ffffffffffffffffffffffffffffffffffffffff166101008173ffffffffffffffffffffffffffffffffffffffff1681525050505033600160006101000a81548173ffffffffffffffffffffffffffffffffffffffff021916908373ffffffffffffffffffffffffffffffffffffffff1602179055506080517308f6dde16166f06e1d486749452dc3a44f175456604051620003129062000383565b6200031f9291906200059b565b604051809103906000f0801580156200033c573d6000803e3d6000fd5b50600260006101000a81548173ffffffffffffffffffffffffffffffffffffffff021916908373ffffffffffffffffffffffffffffffffffffffff160217905550620005c8565b61155b80620019cf83390190565b600080fd5b600073ffffffffffffffffffffffffffffffffffffffff82169050919050565b6000620003c38262000396565b9050919050565b620003d581620003b6565b8114620003e157600080fd5b50565b600081519050620003f581620003ca565b92915050565b60006020828403121562000414576200041362000391565b5b60006200042484828501620003e4565b91505092915050565b60006200043a8262000396565b9050919050565b6200044c816200042d565b82525050565b600060208201905062000469600083018462000441565b92915050565b6200047a816200042d565b81146200048657600080fd5b50565b6000815190506200049a816200046f565b92915050565b60008115159050919050565b620004b781620004a0565b8114620004c357600080fd5b50565b600081519050620004d781620004ac565b92915050565b60008060408385031215620004f757620004f662000391565b5b6000620005078582860162000489565b92505060206200051a85828601620004c6565b9150509250929050565b600062000531826200042d565b9050919050565b620005438162000524565b81146200054f57600080fd5b50565b600081519050620005638162000538565b92915050565b60006020828403121562000582576200058162000391565b5b6000620005928482850162000552565b91505092915050565b6000604082019050620005b2600083018562000441565b620005c1602083018462000441565b9392505050565b60805160a05160c05160e051610100516113a26200062d600039600081816107fb0152610a340152600081816102740152818161076d01526108370152600050506000610250015260008181610622015281816109a60152610a5801526113a26000f3fe608060405234801561001057600080fd5b50600436106100b45760003560e01c80636c1efc4e116100715780636c1efc4e1461016b578063744bfe61146101895780637489ec23146101a5578063e60a3213146101c1578063e70abe92146101df578063f851a440146101fd576100b4565b806306fde0d3146100b957806328f150eb146100e957806346ee3c5914610107578063474c05fb1461012557806361bc221a1461012f5780636512e6ec1461014d575b600080fd5b6100d360048036038101906100ce9190610b1e565b61021b565b6040516100e09190610b8c565b60405180910390f35b6100f161024e565b6040516100fe9190610b8c565b60405180910390f35b61010f610272565b60405161011c9190610b8c565b60405180910390f35b61012d610296565b005b61013761031a565b6040516101449190610c06565b60405180910390f35b610155610340565b6040516101629190610c30565b60405180910390f35b610173610741565b6040516101809190610b8c565b60405180910390f35b6101a3600480360381019061019e9190610cad565b61076b565b005b6101bf60048036038101906101ba9190610b1e565b6108ac565b005b6101c9610a32565b6040516101d69190610d20565b60405180910390f35b6101e7610a56565b6040516101f49190610d5c565b60405180910390f35b610205610a7a565b6040516102129190610b8c565b60405180910390f35b60006020528060005260406000206000915054906101000a900473ffffffffffffffffffffffffffffffffffffffff1681565b7f000000000000000000000000000000000000000000000000000000000000000081565b7f000000000000000000000000000000000000000000000000000000000000000081565b600260009054906101000a900473ffffffffffffffffffffffffffffffffffffffff1673ffffffffffffffffffffffffffffffffffffffff16639cd323576040518163ffffffff1660e01b8152600401600060405180830381600087803b15801561030057600080fd5b505af1158015610314573d6000803e3d6000fd5b50505050565b600260009054906101000a900473ffffffffffffffffffffffffffffffffffffffff1681565b600080600260009054906101000a900473ffffffffffffffffffffffffffffffffffffffff1673ffffffffffffffffffffffffffffffffffffffff166346d4adf260016040516024016103939190610db2565b604051602081830303815290604052915060e01b6020820180517bffffffffffffffffffffffffffffffffffffffffffffffffffffffff8381831617835250505050905060006040518060400160405280600267ffffffffffffffff8111156103ff576103fe610dcd565b5b60405190808252806020026020018201604052801561042d5781602001602082028036833780820191505090505b508152602001600267ffffffffffffffff81111561044e5761044d610dcd565b5b60405190808252806020026020018201604052801561048157816020015b606081526020019060019003908161046c5790505b508152509050600081600001516000815181106104a1576104a0610dfc565b5b602002602001019060038111156104bb576104ba610e2b565b5b908160038111156104cf576104ce610e2b565b5b81525050600381600001516001815181106104ed576104ec610dfc565b5b6020026020010190600381111561050757610506610e2b565b5b9081600381111561051b5761051a610e2b565b5b815250506105d0600260009054906101000a900473ffffffffffffffffffffffffffffffffffffffff16600260009054906101000a900473ffffffffffffffffffffffffffffffffffffffff1673ffffffffffffffffffffffffffffffffffffffff1663cf5303cf604051602401604051602081830303815290604052915060e01b6020820180517bffffffffffffffffffffffffffffffffffffffffffffffffffffffff8381831617835250505050610aa0565b81602001516000815181106105e8576105e7610dfc565b5b60200260200101819052506105fb610acc565b816020015160018151811061061357610612610dfc565b5b602002602001018190525060007f000000000000000000000000000000000000000000000000000000000000000073ffffffffffffffffffffffffffffffffffffffff16633323b467600260009054906101000a900473ffffffffffffffffffffffffffffffffffffffff16858560006040518563ffffffff1660e01b81526004016106a29493929190611131565b6020604051808303816000875af11580156106c1573d6000803e3d6000fd5b505050506040513d601f19601f820116820180604052508101906106e59190611199565b90503360008083815260200190815260200160002060006101000a81548173ffffffffffffffffffffffffffffffffffffffff021916908373ffffffffffffffffffffffffffffffffffffffff16021790555080935050505090565b6000600260009054906101000a900473ffffffffffffffffffffffffffffffffffffffff16905090565b7f000000000000000000000000000000000000000000000000000000000000000073ffffffffffffffffffffffffffffffffffffffff163373ffffffffffffffffffffffffffffffffffffffff16146107f9576040517f08c379a00000000000000000000000000000000000000000000000000000000081526004016107f090611249565b60405180910390fd5b7f000000000000000000000000000000000000000000000000000000000000000073ffffffffffffffffffffffffffffffffffffffff16631c20fadd7f000000000000000000000000000000000000000000000000000000000000000083856040518463ffffffff1660e01b815260040161087693929190611299565b600060405180830381600087803b15801561089057600080fd5b505af11580156108a4573d6000803e3d6000fd5b505050505050565b600160009054906101000a900473ffffffffffffffffffffffffffffffffffffffff1673ffffffffffffffffffffffffffffffffffffffff163373ffffffffffffffffffffffffffffffffffffffff16148061096557503373ffffffffffffffffffffffffffffffffffffffff1660008083815260200190815260200160002060009054906101000a900473ffffffffffffffffffffffffffffffffffffffff1673ffffffffffffffffffffffffffffffffffffffff16145b6109a4576040517f08c379a000000000000000000000000000000000000000000000000000000000815260040161099b9061131c565b60405180910390fd5b7f000000000000000000000000000000000000000000000000000000000000000073ffffffffffffffffffffffffffffffffffffffff1663ee8ca3b5826040518263ffffffff1660e01b81526004016109fd9190610c30565b600060405180830381600087803b158015610a1757600080fd5b505af1158015610a2b573d6000803e3d6000fd5b5050505050565b7f000000000000000000000000000000000000000000000000000000000000000081565b7f000000000000000000000000000000000000000000000000000000000000000081565b600160009054906101000a900473ffffffffffffffffffffffffffffffffffffffff1681565b60608282604051602001610ab592919061133c565b604051602081830303815290604052905092915050565b606060405180602001604052806000815250905090565b600080fd5b6000819050919050565b610afb81610ae8565b8114610b0657600080fd5b50565b600081359050610b1881610af2565b92915050565b600060208284031215610b3457610b33610ae3565b5b6000610b4284828501610b09565b91505092915050565b600073ffffffffffffffffffffffffffffffffffffffff82169050919050565b6000610b7682610b4b565b9050919050565b610b8681610b6b565b82525050565b6000602082019050610ba16000830184610b7d565b92915050565b6000819050919050565b6000610bcc610bc7610bc284610b4b565b610ba7565b610b4b565b9050919050565b6000610bde82610bb1565b9050919050565b6000610bf082610bd3565b9050919050565b610c0081610be5565b82525050565b6000602082019050610c1b6000830184610bf7565b92915050565b610c2a81610ae8565b82525050565b6000602082019050610c456000830184610c21565b92915050565b6000819050919050565b610c5e81610c4b565b8114610c6957600080fd5b50565b600081359050610c7b81610c55565b92915050565b610c8a81610b6b565b8114610c9557600080fd5b50565b600081359050610ca781610c81565b92915050565b60008060408385031215610cc457610cc3610ae3565b5b6000610cd285828601610c6c565b9250506020610ce385828601610c98565b9150509250929050565b6000610cf882610bb1565b9050919050565b6000610d0a82610ced565b9050919050565b610d1a81610cff565b82525050565b6000602082019050610d356000830184610d11565b92915050565b6000610d4682610ced565b9050919050565b610d5681610d3b565b82525050565b6000602082019050610d716000830184610d4d565b92915050565b6000819050919050565b6000610d9c610d97610d9284610d77565b610ba7565b610c4b565b9050919050565b610dac81610d81565b82525050565b6000602082019050610dc76000830184610da3565b92915050565b7f4e487b7100000000000000000000000000000000000000000000000000000000600052604160045260246000fd5b7f4e487b7100000000000000000000000000000000000000000000000000000000600052603260045260246000fd5b7f4e487b7100000000000000000000000000000000000000000000000000000000600052602160045260246000fd5b600081519050919050565b600082825260208201905092915050565b60005b83811015610e94578082015181840152602081019050610e79565b60008484015250505050565b6000601f19601f8301169050919050565b6000610ebc82610e5a565b610ec68185610e65565b9350610ed6818560208601610e76565b610edf81610ea0565b840191505092915050565b600081519050919050565b600082825260208201905092915050565b6000819050602082019050919050565b60048110610f2757610f26610e2b565b5b50565b6000819050610f3882610f16565b919050565b6000610f4882610f2a565b9050919050565b610f5881610f3d565b82525050565b6000610f6a8383610f4f565b60208301905092915050565b6000602082019050919050565b6000610f8e82610eea565b610f988185610ef5565b9350610fa383610f06565b8060005b83811015610fd4578151610fbb8882610f5e565b9750610fc683610f76565b925050600181019050610fa7565b5085935050505092915050565b600081519050919050565b600082825260208201905092915050565b6000819050602082019050919050565b600082825260208201905092915050565b600061102982610e5a565b611033818561100d565b9350611043818560208601610e76565b61104c81610ea0565b840191505092915050565b6000611063838361101e565b905092915050565b6000602082019050919050565b600061108382610fe1565b61108d8185610fec565b93508360208202850161109f85610ffd565b8060005b858110156110db57848403895281516110bc8582611057565b94506110c78361106b565b925060208a019950506001810190506110a3565b50829750879550505050505092915050565b6000604083016000830151848203600086015261110a8282610f83565b915050602083015184820360208601526111248282611078565b9150508091505092915050565b60006080820190506111466000830187610b7d565b81810360208301526111588186610eb1565b9050818103604083015261116c81856110ed565b905061117b6060830184610b7d565b95945050505050565b60008151905061119381610af2565b92915050565b6000602082840312156111af576111ae610ae3565b5b60006111bd84828501611184565b91505092915050565b600082825260208201905092915050565b7f4f6e6c792066756e6473206f776e65722063616e20776974686472617720667560008201527f6e64730000000000000000000000000000000000000000000000000000000000602082015250565b60006112336023836111c6565b915061123e826111d7565b604082019050919050565b6000602082019050818103600083015261126281611226565b9050919050565b600061127482610b4b565b9050919050565b61128481611269565b82525050565b61129381610c4b565b82525050565b60006060820190506112ae600083018661127b565b6112bb6020830185610b7d565b6112c8604083018461128a565b949350505050565b7f4e6f7420616c6c6f77656420746f2063616e63656c2074686973206f72646572600082015250565b60006113066020836111c6565b9150611311826112d0565b602082019050919050565b60006020820190508181036000830152611335816112f9565b9050919050565b60006040820190506113516000830185610b7d565b81810360208301526113638184610eb1565b9050939250505056fea26469706673582212206059dc592993fa6898f19d1434ab0a4f7d035cc04d73e1efb7d91d8088f171e564736f6c634300081300336101006040523480156200001257600080fd5b506040516200155b3803806200155b83398181016040528101906200003891906200029d565b81818173ffffffffffffffffffffffffffffffffffffffff1660808173ffffffffffffffffffffffffffffffffffffffff16815250508173ffffffffffffffffffffffffffffffffffffffff1663573ea5756040518163ffffffff1660e01b8152600401602060405180830381865afa158015620000ba573d6000803e3d6000fd5b505050506040513d601f19601f82011682018060405250810190620000e0919062000329565b73ffffffffffffffffffffffffffffffffffffffff1660c08173ffffffffffffffffffffffffffffffffffffffff168152505073c815db16d4be6ddf2685c201937905abf338f5d773ffffffffffffffffffffffffffffffffffffffff1663ded89a7c826040518263ffffffff1660e01b81526004016200016291906200036c565b6040805180830381865afa1580156200017f573d6000803e3d6000fd5b505050506040513d601f19601f82011682018060405250810190620001a59190620003c6565b508073ffffffffffffffffffffffffffffffffffffffff1660a09073ffffffffffffffffffffffffffffffffffffffff168152505050503073ffffffffffffffffffffffffffffffffffffffff1660e08173ffffffffffffffffffffffffffffffffffffffff16815250506000600260006101000a81548160ff02191690831515021790555050506200040d565b600080fd5b600073ffffffffffffffffffffffffffffffffffffffff82169050919050565b6000620002658262000238565b9050919050565b620002778162000258565b81146200028357600080fd5b50565b60008151905062000297816200026c565b92915050565b60008060408385031215620002b757620002b662000233565b5b6000620002c78582860162000286565b9250506020620002da8582860162000286565b9150509250929050565b6000620002f18262000238565b9050919050565b6200030381620002e4565b81146200030f57600080fd5b50565b6000815190506200032381620002f8565b92915050565b60006020828403121562000342576200034162000233565b5b6000620003528482850162000312565b91505092915050565b620003668162000258565b82525050565b60006020820190506200038360008301846200035b565b92915050565b60008115159050919050565b620003a08162000389565b8114620003ac57600080fd5b50565b600081519050620003c08162000395565b92915050565b60008060408385031215620003e057620003df62000233565b5b6000620003f08582860162000286565b92505060206200040385828601620003af565b9150509250929050565b60805160a05160c05160e0516110ff6200045c600039600061033c01526000818161050901526105dd01526000818161024d01526102710152600081816103ff015261042601526110ff6000f3fe60806040526004361061008a5760003560e01c806346d4adf21161005957806346d4adf21461012e57806361bc221a146101575780639cd3235714610182578063cf5303cf14610199578063e70abe92146101c557610091565b806306661abd146100965780631c15ff77146100c157806324600fc3146100ec57806328f150eb1461010357610091565b3661009157005b600080fd5b3480156100a257600080fd5b506100ab6101f0565b6040516100b8919061093a565b60405180910390f35b3480156100cd57600080fd5b506100d66101f6565b6040516100e3919061093a565b60405180910390f35b3480156100f857600080fd5b506101016101fc565b005b34801561010f57600080fd5b5061011861024b565b6040516101259190610996565b60405180910390f35b34801561013a57600080fd5b50610155600480360381019061015091906109e2565b61026f565b005b34801561016357600080fd5b5061016c61033a565b6040516101799190610a6e565b60405180910390f35b34801561018e57600080fd5b5061019761035e565b005b3480156101a557600080fd5b506101ae61038a565b6040516101bc929190610b34565b60405180910390f35b3480156101d157600080fd5b506101da6103fd565b6040516101e79190610b85565b60405180910390f35b60005481565b60015481565b60003390508073ffffffffffffffffffffffffffffffffffffffff166108fc479081150290604051600060405180830381858888f19350505050158015610247573d6000803e3d6000fd5b5050565b7f000000000000000000000000000000000000000000000000000000000000000081565b7f000000000000000000000000000000000000000000000000000000000000000073ffffffffffffffffffffffffffffffffffffffff163373ffffffffffffffffffffffffffffffffffffffff16146102fd576040517f08c379a00000000000000000000000000000000000000000000000000000000081526004016102f490610bfd565b60405180910390fd5b8060008082825461030e9190610c4c565b9250508190555042600181905550600080610327610421565b9150915061033582826104be565b505050565b7f000000000000000000000000000000000000000000000000000000000000000081565b600260009054906101000a900460ff1615600260006101000a81548160ff021916908315150217905550565b60006060600260009054906101000a900460ff16915060016040516024016103b29190610cbb565b6040516020818303038152906040526346d4adf260e01b6020820180517bffffffffffffffffffffffffffffffffffffffffffffffffffffffff838183161783525050505090509091565b7f000000000000000000000000000000000000000000000000000000000000000081565b6000807f000000000000000000000000000000000000000000000000000000000000000073ffffffffffffffffffffffffffffffffffffffff1663b810c6366040518163ffffffff1660e01b81526004016040805180830381865afa15801561048e573d6000803e3d6000fd5b505050506040513d601f19601f820116820180604052508101906104b29190610d17565b80925081935050509091565b73eeeeeeeeeeeeeeeeeeeeeeeeeeeeeeeeeeeeeeee73ffffffffffffffffffffffffffffffffffffffff168173ffffffffffffffffffffffffffffffffffffffff16036105d75760007f000000000000000000000000000000000000000000000000000000000000000073ffffffffffffffffffffffffffffffffffffffff168360405161054b90610d88565b60006040518083038185875af1925050503d8060008114610588576040519150601f19603f3d011682016040523d82523d6000602084013e61058d565b606091505b50509050806105d1576040517f08c379a00000000000000000000000000000000000000000000000000000000081526004016105c890610de9565b60405180910390fd5b50610603565b610602817f000000000000000000000000000000000000000000000000000000000000000084610607565b5b5050565b6106888363a9059cbb60e01b8484604051602401610626929190610e09565b604051602081830303815290604052907bffffffffffffffffffffffffffffffffffffffffffffffffffffffff19166020820180517bffffffffffffffffffffffffffffffffffffffffffffffffffffffff838183161783525050505061068d565b505050565b60006106ef826040518060400160405280602081526020017f5361666545524332303a206c6f772d6c6576656c2063616c6c206661696c65648152508573ffffffffffffffffffffffffffffffffffffffff166107549092919063ffffffff16565b905060008151111561074f578080602001905181019061070f9190610e5e565b61074e576040517f08c379a000000000000000000000000000000000000000000000000000000000815260040161074590610efd565b60405180910390fd5b5b505050565b6060610763848460008561076c565b90509392505050565b6060824710156107b1576040517f08c379a00000000000000000000000000000000000000000000000000000000081526004016107a890610f8f565b60405180910390fd5b6000808673ffffffffffffffffffffffffffffffffffffffff1685876040516107da9190610fe0565b60006040518083038185875af1925050503d8060008114610817576040519150601f19603f3d011682016040523d82523d6000602084013e61081c565b606091505b509150915061082d87838387610839565b92505050949350505050565b6060831561089b57600083510361089357610853856108ae565b610892576040517f08c379a000000000000000000000000000000000000000000000000000000000815260040161088990611043565b60405180910390fd5b5b8290506108a6565b6108a583836108d1565b5b949350505050565b6000808273ffffffffffffffffffffffffffffffffffffffff163b119050919050565b6000825111156108e45781518083602001fd5b806040517f08c379a000000000000000000000000000000000000000000000000000000000815260040161091891906110a7565b60405180910390fd5b6000819050919050565b61093481610921565b82525050565b600060208201905061094f600083018461092b565b92915050565b600073ffffffffffffffffffffffffffffffffffffffff82169050919050565b600061098082610955565b9050919050565b61099081610975565b82525050565b60006020820190506109ab6000830184610987565b92915050565b600080fd5b6109bf81610921565b81146109ca57600080fd5b50565b6000813590506109dc816109b6565b92915050565b6000602082840312156109f8576109f76109b1565b5b6000610a06848285016109cd565b91505092915050565b6000819050919050565b6000610a34610a2f610a2a84610955565b610a0f565b610955565b9050919050565b6000610a4682610a19565b9050919050565b6000610a5882610a3b565b9050919050565b610a6881610a4d565b82525050565b6000602082019050610a836000830184610a5f565b92915050565b60008115159050919050565b610a9e81610a89565b82525050565b600081519050919050565b600082825260208201905092915050565b60005b83811015610ade578082015181840152602081019050610ac3565b60008484015250505050565b6000601f19601f8301169050919050565b6000610b0682610aa4565b610b108185610aaf565b9350610b20818560208601610ac0565b610b2981610aea565b840191505092915050565b6000604082019050610b496000830185610a95565b8181036020830152610b5b8184610afb565b90509392505050565b6000610b6f82610a3b565b9050919050565b610b7f81610b64565b82525050565b6000602082019050610b9a6000830184610b76565b92915050565b600082825260208201905092915050565b7f4f6e6c7920646564696361746564206d73672e73656e64657200000000000000600082015250565b6000610be7601983610ba0565b9150610bf282610bb1565b602082019050919050565b60006020820190508181036000830152610c1681610bda565b9050919050565b7f4e487b7100000000000000000000000000000000000000000000000000000000600052601160045260246000fd5b6000610c5782610921565b9150610c6283610921565b9250828201905080821115610c7a57610c79610c1d565b5b92915050565b6000819050919050565b6000610ca5610ca0610c9b84610c80565b610a0f565b610921565b9050919050565b610cb581610c8a565b82525050565b6000602082019050610cd06000830184610cac565b92915050565b600081519050610ce5816109b6565b92915050565b610cf481610975565b8114610cff57600080fd5b50565b600081519050610d1181610ceb565b92915050565b60008060408385031215610d2e57610d2d6109b1565b5b6000610d3c85828601610cd6565b9250506020610d4d85828601610d02565b9150509250929050565b600081905092915050565b50565b6000610d72600083610d57565b9150610d7d82610d62565b600082019050919050565b6000610d9382610d65565b9150819050919050565b7f5f7472616e736665723a20455448207472616e73666572206661696c65640000600082015250565b6000610dd3601e83610ba0565b9150610dde82610d9d565b602082019050919050565b60006020820190508181036000830152610e0281610dc6565b9050919050565b6000604082019050610e1e6000830185610987565b610e2b602083018461092b565b9392505050565b610e3b81610a89565b8114610e4657600080fd5b50565b600081519050610e5881610e32565b92915050565b600060208284031215610e7457610e736109b1565b5b6000610e8284828501610e49565b91505092915050565b7f5361666545524332303a204552433230206f7065726174696f6e20646964206e60008201527f6f74207375636365656400000000000000000000000000000000000000000000602082015250565b6000610ee7602a83610ba0565b9150610ef282610e8b565b604082019050919050565b60006020820190508181036000830152610f1681610eda565b9050919050565b7f416464726573733a20696e73756666696369656e742062616c616e636520666f60008201527f722063616c6c0000000000000000000000000000000000000000000000000000602082015250565b6000610f79602683610ba0565b9150610f8482610f1d565b604082019050919050565b60006020820190508181036000830152610fa881610f6c565b9050919050565b6000610fba82610aa4565b610fc48185610d57565b9350610fd4818560208601610ac0565b80840191505092915050565b6000610fec8284610faf565b915081905092915050565b7f416464726573733a2063616c6c20746f206e6f6e2d636f6e7472616374000000600082015250565b600061102d601d83610ba0565b915061103882610ff7565b602082019050919050565b6000602082019050818103600083015261105c81611020565b9050919050565b600081519050919050565b600061107982611063565b6110838185610ba0565b9350611093818560208601610ac0565b61109c81610aea565b840191505092915050565b600060208201905081810360008301526110c1818461106e565b90509291505056fea26469706673582212206b63ce1aafa007e0c1d7d8b9bffc51f7b664a826e738b7a1ef6b457f337095b864736f6c63430008130033",
  "immutableReferences": {
    "869": [
      {
        "length": 32,
        "start": 1570
      },
      {
        "length": 32,
        "start": 2470
      },
      {
        "length": 32,
        "start": 2648
      }
    ],
    "871": [
      {
        "length": 32,
        "start": 592
      }
    ],
    "993": [
      {
        "length": 32,
        "start": 628
      },
      {
        "length": 32,
        "start": 1901
      },
      {
        "length": 32,
        "start": 2103
      }
    ],
    "996": [
      {
        "length": 32,
        "start": 2043
      },
      {
        "length": 32,
        "start": 2612
      }
    ]
  },
  "source": "// SPDX-License-Identifier: UNLICENSED\npragma solidity ^0.8.19;\n\nimport \"./Types.sol\";\nimport \"./CounterWT.sol\";\nimport \"./OpsTaskCreator.sol\";\n\ncontract OrderBook is OpsTaskCreator {\n    mapping (bytes32 => address) public userOrders; // returns array of orderIds/tasksIds\n    //IOps public immutable ops; // Gelato Automate proxy\n\n    address public admin;\n    CounterWT public counter;\n\n    constructor() OpsTaskCreator(0xc1C6805B857Bef1f412519C4A842522431aFed39, address(this)) {\n        admin = msg.sender;\n        counter = new CounterWT(address(ops), 0x08f6dDE16166F06e1d486749452dc3A44f175456);\n    }\n\n    function createOrder() external returns (bytes32) {\n        bytes memory execData = abi.encodeCall(counter.increaseCount, (1));\n\n        ModuleData memory moduleData = ModuleData({\n            modules: new Module[](2),\n            args: new bytes[](2)\n        });\n        moduleData.modules[0] = Module.RESOLVER;\n        moduleData.modules[1] = Module.SINGLE_EXEC;\n\n        moduleData.args[0] = _resolverModuleArg(address(counter), abi.encodeCall(counter.checker, ()));\n        moduleData.args[1] = _singleExecModuleArg();\n\n        bytes32 orderId = ops.createTask(\n            address(counter), // contract to execute\n            execData, // function to execute\n            moduleData,\n            address(0)\n        );\n\n        userOrders[orderId] = msg.sender;\n\n        return orderId;\n    }\n\n    function cancelOrder(bytes32 _orderId) external {\n        require(\n            msg.sender == admin || userOrders[_orderId] == msg.sender,\n            \"Not allowed to cancel this order\"\n        );\n        ops.cancelTask(_orderId);\n    }\n\n    // function to return counter address in order to check the txs\n    function getCounterAddress() public view returns (address) {\n        return address(counter);\n    }\n\n    function toggleCounter() public {\n        counter.togglePrice();\n    }\n\n}\n\n\n",
  "sourcePath": "/Users/blabla/Documents/gelato_test/contracts/OrderBook.sol",
  "compiler": {
    "name": "solc",
    "version": "0.8.19+commit.7dd6d404.Emscripten.clang"
  },
  "schemaVersion": "3.4.11",
  "updatedAt": "2023-02-27T05:21:17.660Z",
  "networkType": "ethereum",
  "devdoc": {
    "kind": "dev",
    "methods": {
      "withdrawFunds(uint256,address)": {
        "details": "Withdraw funds from this contract's Gelato balance to fundsOwner."
      }
    },
    "version": 1
  },
  "userdoc": {
    "kind": "user",
    "methods": {},
    "version": 1
  }
}