{
  "contractName": "OrderExecutor",
  "abi": [
    {
      "inputs": [
        {
          "internalType": "address",
          "name": "_ops",
          "type": "address"
        },
        {
          "internalType": "address",
          "name": "_taskCreator",
          "type": "address"
        },
        {
          "internalType": "address",
          "name": "_swapRouter",
          "type": "address"
        }
      ],
      "stateMutability": "nonpayable",
      "type": "constructor"
    },
    {
      "anonymous": false,
      "inputs": [
        {
          "indexed": false,
          "internalType": "string",
          "name": "",
          "type": "string"
        },
        {
          "indexed": false,
          "internalType": "uint256",
          "name": "",
          "type": "uint256"
        }
      ],
      "name": "OrderDone",
      "type": "event"
    },
    {
      "anonymous": false,
      "inputs": [
        {
          "indexed": false,
          "internalType": "string",
          "name": "",
          "type": "string"
        },
        {
          "indexed": false,
          "internalType": "uint256",
          "name": "",
          "type": "uint256"
        }
      ],
      "name": "SwapPreparation",
      "type": "event"
    },
    {
      "inputs": [],
      "name": "dedicatedMsgSender",
      "outputs": [
        {
          "internalType": "address",
          "name": "",
          "type": "address"
        }
      ],
      "stateMutability": "view",
      "type": "function"
    },
    {
      "inputs": [],
      "name": "ops",
      "outputs": [
        {
          "internalType": "contract IOps",
          "name": "",
          "type": "address"
        }
      ],
      "stateMutability": "view",
      "type": "function"
    },
    {
      "inputs": [],
      "name": "orderBook",
      "outputs": [
        {
          "internalType": "contract OrderBook",
          "name": "",
          "type": "address"
        }
      ],
      "stateMutability": "view",
      "type": "function"
    },
    {
      "inputs": [],
      "name": "swapRouter",
      "outputs": [
        {
          "internalType": "contract ISwapRouter",
          "name": "",
          "type": "address"
        }
      ],
      "stateMutability": "view",
      "type": "function"
    },
    {
      "stateMutability": "payable",
      "type": "receive"
    },
    {
      "inputs": [
        {
          "internalType": "uint256",
          "name": "_price",
          "type": "uint256"
        }
      ],
      "name": "setPrice",
      "outputs": [],
      "stateMutability": "nonpayable",
      "type": "function"
    },
    {
      "inputs": [],
      "name": "swapTest",
      "outputs": [],
      "stateMutability": "nonpayable",
      "type": "function"
    },
    {
      "inputs": [
        {
          "internalType": "uint256",
          "name": "orderNonce",
          "type": "uint256"
        }
      ],
      "name": "executeOrder",
      "outputs": [],
      "stateMutability": "nonpayable",
      "type": "function"
    },
    {
      "inputs": [
        {
          "internalType": "uint256",
          "name": "orderNonce",
          "type": "uint256"
        }
      ],
      "name": "checker",
      "outputs": [
        {
          "internalType": "bool",
          "name": "canExec",
          "type": "bool"
        },
        {
          "internalType": "bytes",
          "name": "execPayload",
          "type": "bytes"
        }
      ],
      "stateMutability": "view",
      "type": "function"
    },
    {
      "inputs": [],
      "name": "withdraw",
      "outputs": [],
      "stateMutability": "nonpayable",
      "type": "function"
    }
  ],
  "bytecode": "0x6101006040523480156200001257600080fd5b50604051620021403803806200214083398181016040528101906200003891906200030d565b82828173ffffffffffffffffffffffffffffffffffffffff1660808173ffffffffffffffffffffffffffffffffffffffff16815250508173ffffffffffffffffffffffffffffffffffffffff1663573ea5756040518163ffffffff1660e01b8152600401602060405180830381865afa158015620000ba573d6000803e3d6000fd5b505050506040513d601f19601f82011682018060405250810190620000e09190620003ae565b73ffffffffffffffffffffffffffffffffffffffff1660c08173ffffffffffffffffffffffffffffffffffffffff168152505073c815db16d4be6ddf2685c201937905abf338f5d773ffffffffffffffffffffffffffffffffffffffff1663ded89a7c826040518263ffffffff1660e01b8152600401620001629190620003f1565b6040805180830381865afa1580156200017f573d6000803e3d6000fd5b505050506040513d601f19601f82011682018060405250810190620001a591906200044b565b508073ffffffffffffffffffffffffffffffffffffffff1660a09073ffffffffffffffffffffffffffffffffffffffff16815250505050606460008190555033600160006101000a81548173ffffffffffffffffffffffffffffffffffffffff021916908373ffffffffffffffffffffffffffffffffffffffff16021790555081600260006101000a81548173ffffffffffffffffffffffffffffffffffffffff021916908373ffffffffffffffffffffffffffffffffffffffff1602179055508073ffffffffffffffffffffffffffffffffffffffff1660e08173ffffffffffffffffffffffffffffffffffffffff168152505050505062000492565b600080fd5b600073ffffffffffffffffffffffffffffffffffffffff82169050919050565b6000620002d582620002a8565b9050919050565b620002e781620002c8565b8114620002f357600080fd5b50565b6000815190506200030781620002dc565b92915050565b600080600060608486031215620003295762000328620002a3565b5b60006200033986828701620002f6565b93505060206200034c86828701620002f6565b92505060406200035f86828701620002f6565b9150509250925092565b60006200037682620002a8565b9050919050565b620003888162000369565b81146200039457600080fd5b50565b600081519050620003a8816200037d565b92915050565b600060208284031215620003c757620003c6620002a3565b5b6000620003d78482850162000397565b91505092915050565b620003eb81620002c8565b82525050565b6000602082019050620004086000830184620003e0565b92915050565b60008115159050919050565b62000425816200040e565b81146200043157600080fd5b50565b60008151905062000445816200041a565b92915050565b60008060408385031215620004655762000464620002a3565b5b60006200047585828601620002f6565b9250506020620004888582860162000434565b9150509250929050565b60805160a05160c05160e051611c5f620004e1600039600081816104830152610b97015260008181610cc50152610d9901526000610523015260008181610bbb0152610be20152611c5f6000f3fe60806040526004361061008a5760003560e01c806391b7f5ed1161005957806391b7f5ed1461011a57806394e05b2c1461014357806394f6113414610181578063c31c9c07146101aa578063e70abe92146101d557610091565b8063176e1c0d1461009657806328f150eb146100ad5780633ccfd60b146100d8578063776af5ba146100ef57610091565b3661009157005b600080fd5b3480156100a257600080fd5b506100ab610200565b005b3480156100b957600080fd5b506100c2610521565b6040516100cf919061111e565b60405180910390f35b3480156100e457600080fd5b506100ed610545565b005b3480156100fb57600080fd5b5061010461061e565b6040516101119190611198565b60405180910390f35b34801561012657600080fd5b50610141600480360381019061013c91906111f8565b610644565b005b34801561014f57600080fd5b5061016a600480360381019061016591906111f8565b61064e565b6040516101789291906112d0565b60405180910390f35b34801561018d57600080fd5b506101a860048036038101906101a391906111f8565b610755565b005b3480156101b657600080fd5b506101bf610b95565b6040516101cc9190611321565b60405180910390f35b3480156101e157600080fd5b506101ea610bb9565b6040516101f7919061135d565b60405180910390f35b6000604051806101000160405280600260009054906101000a900473ffffffffffffffffffffffffffffffffffffffff1673ffffffffffffffffffffffffffffffffffffffff1663d09ef24160006040518263ffffffff1660e01b815260040161026a91906113b3565b60e060405180830381865afa158015610287573d6000803e3d6000fd5b505050506040513d601f19601f820116820180604052508101906102ab91906115a5565b6060015173ffffffffffffffffffffffffffffffffffffffff168152602001600260009054906101000a900473ffffffffffffffffffffffffffffffffffffffff1673ffffffffffffffffffffffffffffffffffffffff1663d09ef24160006040518263ffffffff1660e01b815260040161032691906113b3565b60e060405180830381865afa158015610343573d6000803e3d6000fd5b505050506040513d601f19601f8201168201806040525081019061036791906115a5565b6080015173ffffffffffffffffffffffffffffffffffffffff168152602001610bb862ffffff168152602001600260009054906101000a900473ffffffffffffffffffffffffffffffffffffffff1673ffffffffffffffffffffffffffffffffffffffff1663d09ef24160006040518263ffffffff1660e01b81526004016103ef91906113b3565b60e060405180830381865afa15801561040c573d6000803e3d6000fd5b505050506040513d601f19601f8201168201806040525081019061043091906115a5565b6000015173ffffffffffffffffffffffffffffffffffffffff168152602001428152602001600354815260200160008152602001600073ffffffffffffffffffffffffffffffffffffffff1681525090507f000000000000000000000000000000000000000000000000000000000000000073ffffffffffffffffffffffffffffffffffffffff1663414bf389826040518263ffffffff1660e01b81526004016104da91906116bf565b6020604051808303816000875af11580156104f9573d6000803e3d6000fd5b505050506040513d601f19601f8201168201806040525081019061051d91906116db565b5050565b7f000000000000000000000000000000000000000000000000000000000000000081565b600160009054906101000a900473ffffffffffffffffffffffffffffffffffffffff1673ffffffffffffffffffffffffffffffffffffffff163373ffffffffffffffffffffffffffffffffffffffff16146105d5576040517f08c379a00000000000000000000000000000000000000000000000000000000081526004016105cc90611765565b60405180910390fd5b3373ffffffffffffffffffffffffffffffffffffffff166108fc479081150290604051600060405180830381858888f1935050505015801561061b573d6000803e3d6000fd5b50565b600260009054906101000a900473ffffffffffffffffffffffffffffffffffffffff1681565b8060008190555050565b60006060600054600260009054906101000a900473ffffffffffffffffffffffffffffffffffffffff1673ffffffffffffffffffffffffffffffffffffffff1663d09ef241856040518263ffffffff1660e01b81526004016106b09190611794565b60e060405180830381865afa1580156106cd573d6000803e3d6000fd5b505050506040513d601f19601f820116820180604052508101906106f191906115a5565b60200151149150826040516024016107099190611794565b6040516020818303038152906040526394f6113460e01b6020820180517bffffffffffffffffffffffffffffffffffffffffffffffffffffffff83818316178352505050509050915091565b6000600260009054906101000a900473ffffffffffffffffffffffffffffffffffffffff1673ffffffffffffffffffffffffffffffffffffffff16630f80042b836040518263ffffffff1660e01b81526004016107b29190611794565b6020604051808303816000875af11580156107d1573d6000803e3d6000fd5b505050506040513d601f19601f820116820180604052508101906107f591906116db565b9050806003819055506000604051806101000160405280600260009054906101000a900473ffffffffffffffffffffffffffffffffffffffff1673ffffffffffffffffffffffffffffffffffffffff1663d09ef241866040518263ffffffff1660e01b81526004016108679190611794565b60e060405180830381865afa158015610884573d6000803e3d6000fd5b505050506040513d601f19601f820116820180604052508101906108a891906115a5565b6060015173ffffffffffffffffffffffffffffffffffffffff168152602001600260009054906101000a900473ffffffffffffffffffffffffffffffffffffffff1673ffffffffffffffffffffffffffffffffffffffff1663d09ef241866040518263ffffffff1660e01b81526004016109229190611794565b60e060405180830381865afa15801561093f573d6000803e3d6000fd5b505050506040513d601f19601f8201168201806040525081019061096391906115a5565b6080015173ffffffffffffffffffffffffffffffffffffffff168152602001610bb862ffffff168152602001600260009054906101000a900473ffffffffffffffffffffffffffffffffffffffff1673ffffffffffffffffffffffffffffffffffffffff1663d09ef241866040518263ffffffff1660e01b81526004016109ea9190611794565b60e060405180830381865afa158015610a07573d6000803e3d6000fd5b505050506040513d601f19601f82011682018060405250810190610a2b91906115a5565b6000015173ffffffffffffffffffffffffffffffffffffffff16815260200142815260200183815260200160008152602001600073ffffffffffffffffffffffffffffffffffffffff1681525090507f968acf6ef80a9ea667e82e4115baa66625b32e527ec6f673ac940f3a43e8967882604051610aa991906117fb565b60405180910390a1600260009054906101000a900473ffffffffffffffffffffffffffffffffffffffff1673ffffffffffffffffffffffffffffffffffffffff16632993c690846040518263ffffffff1660e01b8152600401610b0c9190611794565b600060405180830381600087803b158015610b2657600080fd5b505af1158015610b3a573d6000803e3d6000fd5b505050507f9e86ce0485ddb047dd0f8fde14218156b79c2832f3c1ae9d2a05aa746cb6e3be83604051610b6d9190611875565b60405180910390a1600080610b80610bdd565b91509150610b8e8282610c7a565b5050505050565b7f000000000000000000000000000000000000000000000000000000000000000081565b7f000000000000000000000000000000000000000000000000000000000000000081565b6000807f000000000000000000000000000000000000000000000000000000000000000073ffffffffffffffffffffffffffffffffffffffff1663b810c6366040518163ffffffff1660e01b81526004016040805180830381865afa158015610c4a573d6000803e3d6000fd5b505050506040513d601f19601f82011682018060405250810190610c6e91906118a3565b80925081935050509091565b73eeeeeeeeeeeeeeeeeeeeeeeeeeeeeeeeeeeeeeee73ffffffffffffffffffffffffffffffffffffffff168173ffffffffffffffffffffffffffffffffffffffff1603610d935760007f000000000000000000000000000000000000000000000000000000000000000073ffffffffffffffffffffffffffffffffffffffff1683604051610d0790611914565b60006040518083038185875af1925050503d8060008114610d44576040519150601f19603f3d011682016040523d82523d6000602084013e610d49565b606091505b5050905080610d8d576040517f08c379a0000000000000000000000000000000000000000000000000000000008152600401610d8490611975565b60405180910390fd5b50610dbf565b610dbe817f000000000000000000000000000000000000000000000000000000000000000084610dc3565b5b5050565b610e448363a9059cbb60e01b8484604051602401610de2929190611995565b604051602081830303815290604052907bffffffffffffffffffffffffffffffffffffffffffffffffffffffff19166020820180517bffffffffffffffffffffffffffffffffffffffffffffffffffffffff8381831617835250505050610e49565b505050565b6000610eab826040518060400160405280602081526020017f5361666545524332303a206c6f772d6c6576656c2063616c6c206661696c65648152508573ffffffffffffffffffffffffffffffffffffffff16610f109092919063ffffffff16565b9050600081511115610f0b5780806020019051810190610ecb91906119be565b610f0a576040517f08c379a0000000000000000000000000000000000000000000000000000000008152600401610f0190611a5d565b60405180910390fd5b5b505050565b6060610f1f8484600085610f28565b90509392505050565b606082471015610f6d576040517f08c379a0000000000000000000000000000000000000000000000000000000008152600401610f6490611aef565b60405180910390fd5b6000808673ffffffffffffffffffffffffffffffffffffffff168587604051610f969190611b40565b60006040518083038185875af1925050503d8060008114610fd3576040519150601f19603f3d011682016040523d82523d6000602084013e610fd8565b606091505b5091509150610fe987838387610ff5565b92505050949350505050565b6060831561105757600083510361104f5761100f8561106a565b61104e576040517f08c379a000000000000000000000000000000000000000000000000000000000815260040161104590611ba3565b60405180910390fd5b5b829050611062565b611061838361108d565b5b949350505050565b6000808273ffffffffffffffffffffffffffffffffffffffff163b119050919050565b6000825111156110a05781518083602001fd5b806040517f08c379a00000000000000000000000000000000000000000000000000000000081526004016110d49190611c07565b60405180910390fd5b600073ffffffffffffffffffffffffffffffffffffffff82169050919050565b6000611108826110dd565b9050919050565b611118816110fd565b82525050565b6000602082019050611133600083018461110f565b92915050565b6000819050919050565b600061115e611159611154846110dd565b611139565b6110dd565b9050919050565b600061117082611143565b9050919050565b600061118282611165565b9050919050565b61119281611177565b82525050565b60006020820190506111ad6000830184611189565b92915050565b6000604051905090565b600080fd5b6000819050919050565b6111d5816111c2565b81146111e057600080fd5b50565b6000813590506111f2816111cc565b92915050565b60006020828403121561120e5761120d6111bd565b5b600061121c848285016111e3565b91505092915050565b60008115159050919050565b61123a81611225565b82525050565b600081519050919050565b600082825260208201905092915050565b60005b8381101561127a57808201518184015260208101905061125f565b60008484015250505050565b6000601f19601f8301169050919050565b60006112a282611240565b6112ac818561124b565b93506112bc81856020860161125c565b6112c581611286565b840191505092915050565b60006040820190506112e56000830185611231565b81810360208301526112f78184611297565b90509392505050565b600061130b82611165565b9050919050565b61131b81611300565b82525050565b60006020820190506113366000830184611312565b92915050565b600061134782611165565b9050919050565b6113578161133c565b82525050565b6000602082019050611372600083018461134e565b92915050565b6000819050919050565b600061139d61139861139384611378565b611139565b6111c2565b9050919050565b6113ad81611382565b82525050565b60006020820190506113c860008301846113a4565b92915050565b600080fd5b7f4e487b7100000000000000000000000000000000000000000000000000000000600052604160045260246000fd5b61140b82611286565b810181811067ffffffffffffffff8211171561142a576114296113d3565b5b80604052505050565b600061143d6111b3565b90506114498282611402565b919050565b611457816110fd565b811461146257600080fd5b50565b6000815190506114748161144e565b92915050565b600081519050611489816111cc565b92915050565b6000819050919050565b6114a28161148f565b81146114ad57600080fd5b50565b6000815190506114bf81611499565b92915050565b6114ce81611225565b81146114d957600080fd5b50565b6000815190506114eb816114c5565b92915050565b600060e08284031215611507576115066113ce565b5b61151160e0611433565b9050600061152184828501611465565b60008301525060206115358482850161147a565b60208301525060406115498482850161147a565b604083015250606061155d84828501611465565b606083015250608061157184828501611465565b60808301525060a0611585848285016114b0565b60a08301525060c0611599848285016114dc565b60c08301525092915050565b600060e082840312156115bb576115ba6111bd565b5b60006115c9848285016114f1565b91505092915050565b6115db816110fd565b82525050565b600062ffffff82169050919050565b6115f9816115e1565b82525050565b611608816111c2565b82525050565b611617816110dd565b82525050565b6101008201600082015161163460008501826115d2565b50602082015161164760208501826115d2565b50604082015161165a60408501826115f0565b50606082015161166d60608501826115d2565b50608082015161168060808501826115ff565b5060a082015161169360a08501826115ff565b5060c08201516116a660c08501826115ff565b5060e08201516116b960e085018261160e565b50505050565b6000610100820190506116d5600083018461161d565b92915050565b6000602082840312156116f1576116f06111bd565b5b60006116ff8482850161147a565b91505092915050565b600082825260208201905092915050565b7f6e6f7420616c6c6f776564206164647265737300000000000000000000000000600082015250565b600061174f601383611708565b915061175a82611719565b602082019050919050565b6000602082019050818103600083015261177e81611742565b9050919050565b61178e816111c2565b82525050565b60006020820190506117a96000830184611785565b92915050565b7f537761705f7072657061726174696f6e3d000000000000000000000000000000600082015250565b60006117e5601183611708565b91506117f0826117af565b602082019050919050565b60006040820190508181036000830152611814816117d8565b90506118236020830184611785565b92915050565b7f6f726465725f6578656375746564000000000000000000000000000000000000600082015250565b600061185f600e83611708565b915061186a82611829565b602082019050919050565b6000604082019050818103600083015261188e81611852565b905061189d6020830184611785565b92915050565b600080604083850312156118ba576118b96111bd565b5b60006118c88582860161147a565b92505060206118d985828601611465565b9150509250929050565b600081905092915050565b50565b60006118fe6000836118e3565b9150611909826118ee565b600082019050919050565b600061191f826118f1565b9150819050919050565b7f5f7472616e736665723a20455448207472616e73666572206661696c65640000600082015250565b600061195f601e83611708565b915061196a82611929565b602082019050919050565b6000602082019050818103600083015261198e81611952565b9050919050565b60006040820190506119aa600083018561110f565b6119b76020830184611785565b9392505050565b6000602082840312156119d4576119d36111bd565b5b60006119e2848285016114dc565b91505092915050565b7f5361666545524332303a204552433230206f7065726174696f6e20646964206e60008201527f6f74207375636365656400000000000000000000000000000000000000000000602082015250565b6000611a47602a83611708565b9150611a52826119eb565b604082019050919050565b60006020820190508181036000830152611a7681611a3a565b9050919050565b7f416464726573733a20696e73756666696369656e742062616c616e636520666f60008201527f722063616c6c0000000000000000000000000000000000000000000000000000602082015250565b6000611ad9602683611708565b9150611ae482611a7d565b604082019050919050565b60006020820190508181036000830152611b0881611acc565b9050919050565b6000611b1a82611240565b611b2481856118e3565b9350611b3481856020860161125c565b80840191505092915050565b6000611b4c8284611b0f565b915081905092915050565b7f416464726573733a2063616c6c20746f206e6f6e2d636f6e7472616374000000600082015250565b6000611b8d601d83611708565b9150611b9882611b57565b602082019050919050565b60006020820190508181036000830152611bbc81611b80565b9050919050565b600081519050919050565b6000611bd982611bc3565b611be38185611708565b9350611bf381856020860161125c565b611bfc81611286565b840191505092915050565b60006020820190508181036000830152611c218184611bce565b90509291505056fea2646970667358221220cc3c44210cc7acaa9a052580fe18ed03ab3c98f41cdc8c583b008a562ddb877d64736f6c63430008130033",
  "immutableReferences": {
    "917": [
      {
        "length": 32,
        "start": 3003
      },
      {
        "length": 32,
        "start": 3042
      }
    ],
    "919": [
      {
        "length": 32,
        "start": 1315
      }
    ],
    "921": [
      {
        "length": 32,
        "start": 3269
      },
      {
        "length": 32,
        "start": 3481
      }
    ],
    "1625": [
      {
        "length": 32,
        "start": 1155
      },
      {
        "length": 32,
        "start": 2967
      }
    ]
  },
  "source": "// SPDX-License-Identifier: UNLICENSED\npragma solidity ^0.8.19;\n\nimport \"./OpsReady.sol\";\nimport \"./OrderBook.sol\";\nimport \"./uniswap/ISwapRouter.sol\";\n\ncontract OrderExecutor is OpsReady {\n\n    uint price;\n    address deployer;\n\n    OrderBook public orderBook;\n    ISwapRouter public immutable swapRouter;\n\n    event OrderDone(string, uint256);\n    event SwapPreparation(string, uint256);\n\n    constructor(address _ops, address _taskCreator, address _swapRouter) OpsReady(_ops, _taskCreator) {\n        price = 100; // arbitrary price\n        deployer = msg.sender;\n        orderBook = OrderBook(_taskCreator);\n        swapRouter = ISwapRouter(_swapRouter);\n    }\n\n    function setPrice(uint _price) public {\n        price = _price;\n    }\n\n    receive() external payable {}\n\n    uint256 swapTestAm;\n    function swapTest() public {\n        ISwapRouter.ExactInputSingleParams memory params =\n            ISwapRouter.ExactInputSingleParams({\n                tokenIn: orderBook.getOrder(0).tokenIn,\n                tokenOut: orderBook.getOrder(0).tokenOut,\n                fee: 3000, // For this example, we will set the pool fee to 0.3%.\n                recipient: orderBook.getOrder(0).user,\n                deadline: block.timestamp,\n                amountIn: swapTestAm,\n                amountOutMinimum: 0, // NOT IN PRODUCTION\n                sqrtPriceLimitX96: 0 // NOT IN PRODUCTION\n            });\n\n        swapRouter.exactInputSingle(params);\n    }\n\n    function executeOrder(uint orderNonce) external /*onlyDedicatedMsgSender*/ {\n        // execute order with orderNonce here\n        uint256 amountWithdrawed = orderBook.closeYieldStrategy(orderNonce);\n        swapTestAm = amountWithdrawed;\n        // Naively set amountOutMinimum to 0. In production, use an oracle or other data source to choose a safer value for amountOutMinimum.\n        // We also set the sqrtPriceLimitx96 to be 0 to ensure we swap our exact input amount.\n        ISwapRouter.ExactInputSingleParams memory params =\n            ISwapRouter.ExactInputSingleParams({\n                tokenIn: orderBook.getOrder(orderNonce).tokenIn,\n                tokenOut: orderBook.getOrder(orderNonce).tokenOut,\n                fee: 3000, // For this example, we will set the pool fee to 0.3%.\n                recipient: orderBook.getOrder(orderNonce).user,\n                deadline: block.timestamp,\n                amountIn: amountWithdrawed,\n                amountOutMinimum: 0, // NOT IN PRODUCTION\n                sqrtPriceLimitX96: 0 // NOT IN PRODUCTION\n            });\n        emit SwapPreparation(\"Swap_preparation=\", amountWithdrawed);\n        // The call to `exactInputSingle` executes the swap.\n        //swapRouter.exactInputSingle(params);\n        //IERC20(orderBook.getOrder(orderNonce).tokenOut).transfer(orderBook.getOrder(orderNonce).user, amountOut);\n\n        orderBook.setExecuted(orderNonce);\n        emit OrderDone(\"order_executed\", orderNonce);\n        // \n        (uint256 fee, address feeToken) = _getFeeDetails();\n        // on a les fees jusqu' l\n        _transfer(fee, feeToken);\n    }\n\n    function checker(uint orderNonce) external view returns (bool canExec, bytes memory execPayload) {\n        // check that liquidity is still into the vault\n        // require(vault.getLiquidity() > 0, \"No liquidity\");\n        canExec = orderBook.getOrder(orderNonce).price == price; // The condition that needs to be true for the task to be executed, you can filter the condition with the orderId\n        execPayload = abi.encodeCall(OrderExecutor.executeOrder, orderNonce); // The function that you want to call on the contract\n    }\n\n    // Only used for testing\n    function withdraw() public {\n        require(msg.sender == deployer, \"not allowed address\");\n        payable(msg.sender).transfer(address(this).balance);\n    }\n\n}\n",
  "sourcePath": "/Users/blabla/Documents/gelato_test/contracts/OrderExecutor.sol",
  "compiler": {
    "name": "solc",
    "version": "0.8.19+commit.7dd6d404.Emscripten.clang"
  },
  "schemaVersion": "3.4.11",
  "updatedAt": "2023-03-05T05:12:04.175Z",
  "devdoc": {
    "kind": "dev",
    "methods": {},
    "version": 1
  },
  "userdoc": {
    "kind": "user",
    "methods": {},
    "version": 1
  }
}