{
  "contractName": "OrderExecutor",
  "abi": [
    {
      "inputs": [
        {
          "internalType": "address",
          "name": "_ops",
          "type": "address"
        },
        {
          "internalType": "address",
          "name": "_taskCreator",
          "type": "address"
        },
        {
          "internalType": "address",
          "name": "_swapRouter",
          "type": "address"
        }
      ],
      "stateMutability": "nonpayable",
      "type": "constructor"
    },
    {
      "anonymous": false,
      "inputs": [
        {
          "indexed": false,
          "internalType": "string",
          "name": "",
          "type": "string"
        },
        {
          "indexed": false,
          "internalType": "uint256",
          "name": "",
          "type": "uint256"
        }
      ],
      "name": "OrderDone",
      "type": "event"
    },
    {
      "anonymous": false,
      "inputs": [
        {
          "indexed": false,
          "internalType": "string",
          "name": "",
          "type": "string"
        },
        {
          "indexed": false,
          "internalType": "uint256",
          "name": "",
          "type": "uint256"
        }
      ],
      "name": "SwapPreparation",
      "type": "event"
    },
    {
      "anonymous": false,
      "inputs": [
        {
          "indexed": false,
          "internalType": "string",
          "name": "",
          "type": "string"
        },
        {
          "indexed": false,
          "internalType": "uint256",
          "name": "",
          "type": "uint256"
        }
      ],
      "name": "SwapTestAm",
      "type": "event"
    },
    {
      "inputs": [],
      "name": "dedicatedMsgSender",
      "outputs": [
        {
          "internalType": "address",
          "name": "",
          "type": "address"
        }
      ],
      "stateMutability": "view",
      "type": "function",
      "constant": true
    },
    {
      "inputs": [],
      "name": "lendingVault",
      "outputs": [
        {
          "internalType": "contract LendingVault",
          "name": "",
          "type": "address"
        }
      ],
      "stateMutability": "view",
      "type": "function",
      "constant": true
    },
    {
      "inputs": [],
      "name": "ops",
      "outputs": [
        {
          "internalType": "contract IOps",
          "name": "",
          "type": "address"
        }
      ],
      "stateMutability": "view",
      "type": "function",
      "constant": true
    },
    {
      "inputs": [],
      "name": "orderBook",
      "outputs": [
        {
          "internalType": "contract OrderBook",
          "name": "",
          "type": "address"
        }
      ],
      "stateMutability": "view",
      "type": "function",
      "constant": true
    },
    {
      "inputs": [],
      "name": "swapRouter",
      "outputs": [
        {
          "internalType": "contract ISwapRouter",
          "name": "",
          "type": "address"
        }
      ],
      "stateMutability": "view",
      "type": "function",
      "constant": true
    },
    {
      "stateMutability": "payable",
      "type": "receive",
      "payable": true
    },
    {
      "inputs": [
        {
          "internalType": "uint256",
          "name": "_price",
          "type": "uint256"
        }
      ],
      "name": "setPrice",
      "outputs": [],
      "stateMutability": "nonpayable",
      "type": "function"
    },
    {
      "inputs": [],
      "name": "swapTest",
      "outputs": [],
      "stateMutability": "nonpayable",
      "type": "function"
    },
    {
      "inputs": [
        {
          "internalType": "address",
          "name": "_lendingVault",
          "type": "address"
        }
      ],
      "name": "setLendingVault",
      "outputs": [],
      "stateMutability": "nonpayable",
      "type": "function"
    },
    {
      "inputs": [
        {
          "internalType": "uint256",
          "name": "orderNonce",
          "type": "uint256"
        }
      ],
      "name": "executeOrder",
      "outputs": [],
      "stateMutability": "nonpayable",
      "type": "function"
    },
    {
      "inputs": [
        {
          "internalType": "uint256",
          "name": "orderNonce",
          "type": "uint256"
        }
      ],
      "name": "checker",
      "outputs": [
        {
          "internalType": "bool",
          "name": "canExec",
          "type": "bool"
        },
        {
          "internalType": "bytes",
          "name": "execPayload",
          "type": "bytes"
        }
      ],
      "stateMutability": "view",
      "type": "function",
      "constant": true
    },
    {
      "inputs": [],
      "name": "withdraw",
      "outputs": [],
      "stateMutability": "nonpayable",
      "type": "function"
    }
  ],
  "bytecode": "0x6101006040523480156200001257600080fd5b50604051620029da380380620029da83398181016040528101906200003891906200030d565b82828173ffffffffffffffffffffffffffffffffffffffff1660808173ffffffffffffffffffffffffffffffffffffffff16815250508173ffffffffffffffffffffffffffffffffffffffff1663573ea5756040518163ffffffff1660e01b8152600401602060405180830381865afa158015620000ba573d6000803e3d6000fd5b505050506040513d601f19601f82011682018060405250810190620000e09190620003ae565b73ffffffffffffffffffffffffffffffffffffffff1660c08173ffffffffffffffffffffffffffffffffffffffff168152505073c815db16d4be6ddf2685c201937905abf338f5d773ffffffffffffffffffffffffffffffffffffffff1663ded89a7c826040518263ffffffff1660e01b8152600401620001629190620003f1565b6040805180830381865afa1580156200017f573d6000803e3d6000fd5b505050506040513d601f19601f82011682018060405250810190620001a591906200044b565b508073ffffffffffffffffffffffffffffffffffffffff1660a09073ffffffffffffffffffffffffffffffffffffffff16815250505050606460008190555033600160006101000a81548173ffffffffffffffffffffffffffffffffffffffff021916908373ffffffffffffffffffffffffffffffffffffffff16021790555081600260006101000a81548173ffffffffffffffffffffffffffffffffffffffff021916908373ffffffffffffffffffffffffffffffffffffffff1602179055508073ffffffffffffffffffffffffffffffffffffffff1660e08173ffffffffffffffffffffffffffffffffffffffff168152505050505062000492565b600080fd5b600073ffffffffffffffffffffffffffffffffffffffff82169050919050565b6000620002d582620002a8565b9050919050565b620002e781620002c8565b8114620002f357600080fd5b50565b6000815190506200030781620002dc565b92915050565b600080600060608486031215620003295762000328620002a3565b5b60006200033986828701620002f6565b93505060206200034c86828701620002f6565b92505060406200035f86828701620002f6565b9150509250925092565b60006200037682620002a8565b9050919050565b620003888162000369565b81146200039457600080fd5b50565b600081519050620003a8816200037d565b92915050565b600060208284031215620003c757620003c6620002a3565b5b6000620003d78482850162000397565b91505092915050565b620003eb81620002c8565b82525050565b6000602082019050620004086000830184620003e0565b92915050565b60008115159050919050565b62000425816200040e565b81146200043157600080fd5b50565b60008151905062000445816200041a565b92915050565b60008060408385031215620004655762000464620002a3565b5b60006200047585828601620002f6565b9250506020620004888582860162000434565b9150509250929050565b60805160a05160c05160e0516124f2620004e8600039600081816106d7015281816109dd01526111d601526000818161132a01526113fe01526000610a7d015260008181611220015261124701526124f26000f3fe6080604052600436106100a05760003560e01c806391b7f5ed1161006457806391b7f5ed1461015957806394e05b2c1461018257806394f61134146101c0578063c31c9c07146101e9578063cb8c5a3a14610214578063e70abe921461023f576100a7565b8063176e1c0d146100ac57806328f150eb146100c35780633ccfd60b146100ee578063408a03d814610105578063776af5ba1461012e576100a7565b366100a757005b600080fd5b3480156100b857600080fd5b506100c161026a565b005b3480156100cf57600080fd5b506100d8610a7b565b6040516100e59190611783565b60405180910390f35b3480156100fa57600080fd5b50610103610a9f565b005b34801561011157600080fd5b5061012c600480360381019061012791906117d9565b610b78565b005b34801561013a57600080fd5b50610143610bbc565b6040516101509190611865565b60405180910390f35b34801561016557600080fd5b50610180600480360381019061017b91906118b6565b610be2565b005b34801561018e57600080fd5b506101a960048036038101906101a491906118b6565b610bec565b6040516101b792919061198e565b60405180910390f35b3480156101cc57600080fd5b506101e760048036038101906101e291906118b6565b610cf3565b005b3480156101f557600080fd5b506101fe6111d4565b60405161020b91906119df565b60405180910390f35b34801561022057600080fd5b506102296111f8565b6040516102369190611a1b565b60405180910390f35b34801561024b57600080fd5b5061025461121e565b6040516102619190611a57565b60405180910390f35b6004546298968011156102b2576040517f08c379a00000000000000000000000000000000000000000000000000000000081526004016102a990611acf565b60405180910390fd5b73e9dce89b076ba6107bb64ef30678efec1193923473ffffffffffffffffffffffffffffffffffffffff16600260009054906101000a900473ffffffffffffffffffffffffffffffffffffffff1673ffffffffffffffffffffffffffffffffffffffff1663d09ef24160006040518263ffffffff1660e01b81526004016103399190611b2a565b60e060405180830381865afa158015610356573d6000803e3d6000fd5b505050506040513d601f19601f8201168201806040525081019061037a9190611d05565b6060015173ffffffffffffffffffffffffffffffffffffffff16146103d4576040517f08c379a00000000000000000000000000000000000000000000000000000000081526004016103cb90611d7e565b60405180910390fd5b73acde43b9e5f72a4f554d4346e69e8e7ac8f352f073ffffffffffffffffffffffffffffffffffffffff16600260009054906101000a900473ffffffffffffffffffffffffffffffffffffffff1673ffffffffffffffffffffffffffffffffffffffff1663d09ef24160006040518263ffffffff1660e01b815260040161045b9190611b2a565b60e060405180830381865afa158015610478573d6000803e3d6000fd5b505050506040513d601f19601f8201168201806040525081019061049c9190611d05565b6080015173ffffffffffffffffffffffffffffffffffffffff16146104f6576040517f08c379a00000000000000000000000000000000000000000000000000000000081526004016104ed90611dea565b60405180910390fd5b7308f6dde16166f06e1d486749452dc3a44f17545673ffffffffffffffffffffffffffffffffffffffff16600260009054906101000a900473ffffffffffffffffffffffffffffffffffffffff1673ffffffffffffffffffffffffffffffffffffffff1663d09ef24160006040518263ffffffff1660e01b815260040161057d9190611b2a565b60e060405180830381865afa15801561059a573d6000803e3d6000fd5b505050506040513d601f19601f820116820180604052508101906105be9190611d05565b6000015173ffffffffffffffffffffffffffffffffffffffff161115610619576040517f08c379a000000000000000000000000000000000000000000000000000000000815260040161061090611e56565b60405180910390fd5b600260009054906101000a900473ffffffffffffffffffffffffffffffffffffffff1673ffffffffffffffffffffffffffffffffffffffff1663d09ef24160006040518263ffffffff1660e01b81526004016106759190611b2a565b60e060405180830381865afa158015610692573d6000803e3d6000fd5b505050506040513d601f19601f820116820180604052508101906106b69190611d05565b6060015173ffffffffffffffffffffffffffffffffffffffff1663095ea7b37f00000000000000000000000000000000000000000000000000000000000000006004546040518363ffffffff1660e01b8152600401610716929190611e85565b6020604051808303816000875af1158015610735573d6000803e3d6000fd5b505050506040513d601f19601f820116820180604052508101906107599190611eae565b506000604051806101000160405280600260009054906101000a900473ffffffffffffffffffffffffffffffffffffffff1673ffffffffffffffffffffffffffffffffffffffff1663d09ef24160006040518263ffffffff1660e01b81526004016107c49190611b2a565b60e060405180830381865afa1580156107e1573d6000803e3d6000fd5b505050506040513d601f19601f820116820180604052508101906108059190611d05565b6060015173ffffffffffffffffffffffffffffffffffffffff168152602001600260009054906101000a900473ffffffffffffffffffffffffffffffffffffffff1673ffffffffffffffffffffffffffffffffffffffff1663d09ef24160006040518263ffffffff1660e01b81526004016108809190611b2a565b60e060405180830381865afa15801561089d573d6000803e3d6000fd5b505050506040513d601f19601f820116820180604052508101906108c19190611d05565b6080015173ffffffffffffffffffffffffffffffffffffffff168152602001610bb862ffffff168152602001600260009054906101000a900473ffffffffffffffffffffffffffffffffffffffff1673ffffffffffffffffffffffffffffffffffffffff1663d09ef24160006040518263ffffffff1660e01b81526004016109499190611b2a565b60e060405180830381865afa158015610966573d6000803e3d6000fd5b505050506040513d601f19601f8201168201806040525081019061098a9190611d05565b6000015173ffffffffffffffffffffffffffffffffffffffff168152602001428152602001600454815260200160008152602001600073ffffffffffffffffffffffffffffffffffffffff1681525090507f000000000000000000000000000000000000000000000000000000000000000073ffffffffffffffffffffffffffffffffffffffff1663414bf389826040518263ffffffff1660e01b8152600401610a349190611fc8565b6020604051808303816000875af1158015610a53573d6000803e3d6000fd5b505050506040513d601f19601f82011682018060405250810190610a779190611fe4565b5050565b7f000000000000000000000000000000000000000000000000000000000000000081565b600160009054906101000a900473ffffffffffffffffffffffffffffffffffffffff1673ffffffffffffffffffffffffffffffffffffffff163373ffffffffffffffffffffffffffffffffffffffff1614610b2f576040517f08c379a0000000000000000000000000000000000000000000000000000000008152600401610b269061205d565b60405180910390fd5b3373ffffffffffffffffffffffffffffffffffffffff166108fc479081150290604051600060405180830381858888f19350505050158015610b75573d6000803e3d6000fd5b50565b80600360006101000a81548173ffffffffffffffffffffffffffffffffffffffff021916908373ffffffffffffffffffffffffffffffffffffffff16021790555050565b600260009054906101000a900473ffffffffffffffffffffffffffffffffffffffff1681565b8060008190555050565b60006060600054600260009054906101000a900473ffffffffffffffffffffffffffffffffffffffff1673ffffffffffffffffffffffffffffffffffffffff1663d09ef241856040518263ffffffff1660e01b8152600401610c4e919061207d565b60e060405180830381865afa158015610c6b573d6000803e3d6000fd5b505050506040513d601f19601f82011682018060405250810190610c8f9190611d05565b6020015114915082604051602401610ca7919061207d565b6040516020818303038152906040526394f6113460e01b6020820180517bffffffffffffffffffffffffffffffffffffffffffffffffffffffff83818316178352505050509050915091565b6000600360009054906101000a900473ffffffffffffffffffffffffffffffffffffffff1673ffffffffffffffffffffffffffffffffffffffff1663f3fef3a3600260009054906101000a900473ffffffffffffffffffffffffffffffffffffffff1673ffffffffffffffffffffffffffffffffffffffff1663d09ef241856040518263ffffffff1660e01b8152600401610d8e919061207d565b60e060405180830381865afa158015610dab573d6000803e3d6000fd5b505050506040513d601f19601f82011682018060405250810190610dcf9190611d05565b60600151846040518363ffffffff1660e01b8152600401610df1929190611e85565b6020604051808303816000875af1158015610e10573d6000803e3d6000fd5b505050506040513d601f19601f82011682018060405250810190610e349190611fe4565b9050806004819055506000604051806101000160405280600260009054906101000a900473ffffffffffffffffffffffffffffffffffffffff1673ffffffffffffffffffffffffffffffffffffffff1663d09ef241866040518263ffffffff1660e01b8152600401610ea6919061207d565b60e060405180830381865afa158015610ec3573d6000803e3d6000fd5b505050506040513d601f19601f82011682018060405250810190610ee79190611d05565b6060015173ffffffffffffffffffffffffffffffffffffffff168152602001600260009054906101000a900473ffffffffffffffffffffffffffffffffffffffff1673ffffffffffffffffffffffffffffffffffffffff1663d09ef241866040518263ffffffff1660e01b8152600401610f61919061207d565b60e060405180830381865afa158015610f7e573d6000803e3d6000fd5b505050506040513d601f19601f82011682018060405250810190610fa29190611d05565b6080015173ffffffffffffffffffffffffffffffffffffffff168152602001610bb862ffffff168152602001600260009054906101000a900473ffffffffffffffffffffffffffffffffffffffff1673ffffffffffffffffffffffffffffffffffffffff1663d09ef241866040518263ffffffff1660e01b8152600401611029919061207d565b60e060405180830381865afa158015611046573d6000803e3d6000fd5b505050506040513d601f19601f8201168201806040525081019061106a9190611d05565b6000015173ffffffffffffffffffffffffffffffffffffffff16815260200142815260200183815260200160008152602001600073ffffffffffffffffffffffffffffffffffffffff1681525090507f968acf6ef80a9ea667e82e4115baa66625b32e527ec6f673ac940f3a43e89678826040516110e891906120e4565b60405180910390a1600260009054906101000a900473ffffffffffffffffffffffffffffffffffffffff1673ffffffffffffffffffffffffffffffffffffffff16632993c690846040518263ffffffff1660e01b815260040161114b919061207d565b600060405180830381600087803b15801561116557600080fd5b505af1158015611179573d6000803e3d6000fd5b505050507f9e86ce0485ddb047dd0f8fde14218156b79c2832f3c1ae9d2a05aa746cb6e3be836040516111ac919061215e565b60405180910390a16000806111bf611242565b915091506111cd82826112df565b5050505050565b7f000000000000000000000000000000000000000000000000000000000000000081565b600360009054906101000a900473ffffffffffffffffffffffffffffffffffffffff1681565b7f000000000000000000000000000000000000000000000000000000000000000081565b6000807f000000000000000000000000000000000000000000000000000000000000000073ffffffffffffffffffffffffffffffffffffffff1663b810c6366040518163ffffffff1660e01b81526004016040805180830381865afa1580156112af573d6000803e3d6000fd5b505050506040513d601f19601f820116820180604052508101906112d3919061218c565b80925081935050509091565b73eeeeeeeeeeeeeeeeeeeeeeeeeeeeeeeeeeeeeeee73ffffffffffffffffffffffffffffffffffffffff168173ffffffffffffffffffffffffffffffffffffffff16036113f85760007f000000000000000000000000000000000000000000000000000000000000000073ffffffffffffffffffffffffffffffffffffffff168360405161136c906121fd565b60006040518083038185875af1925050503d80600081146113a9576040519150601f19603f3d011682016040523d82523d6000602084013e6113ae565b606091505b50509050806113f2576040517f08c379a00000000000000000000000000000000000000000000000000000000081526004016113e99061225e565b60405180910390fd5b50611424565b611423817f000000000000000000000000000000000000000000000000000000000000000084611428565b5b5050565b6114a98363a9059cbb60e01b8484604051602401611447929190611e85565b604051602081830303815290604052907bffffffffffffffffffffffffffffffffffffffffffffffffffffffff19166020820180517bffffffffffffffffffffffffffffffffffffffffffffffffffffffff83818316178352505050506114ae565b505050565b6000611510826040518060400160405280602081526020017f5361666545524332303a206c6f772d6c6576656c2063616c6c206661696c65648152508573ffffffffffffffffffffffffffffffffffffffff166115759092919063ffffffff16565b905060008151111561157057808060200190518101906115309190611eae565b61156f576040517f08c379a0000000000000000000000000000000000000000000000000000000008152600401611566906122f0565b60405180910390fd5b5b505050565b6060611584848460008561158d565b90509392505050565b6060824710156115d2576040517f08c379a00000000000000000000000000000000000000000000000000000000081526004016115c990612382565b60405180910390fd5b6000808673ffffffffffffffffffffffffffffffffffffffff1685876040516115fb91906123d3565b60006040518083038185875af1925050503d8060008114611638576040519150601f19603f3d011682016040523d82523d6000602084013e61163d565b606091505b509150915061164e8783838761165a565b92505050949350505050565b606083156116bc5760008351036116b457611674856116cf565b6116b3576040517f08c379a00000000000000000000000000000000000000000000000000000000081526004016116aa90612436565b60405180910390fd5b5b8290506116c7565b6116c683836116f2565b5b949350505050565b6000808273ffffffffffffffffffffffffffffffffffffffff163b119050919050565b6000825111156117055781518083602001fd5b806040517f08c379a0000000000000000000000000000000000000000000000000000000008152600401611739919061249a565b60405180910390fd5b600073ffffffffffffffffffffffffffffffffffffffff82169050919050565b600061176d82611742565b9050919050565b61177d81611762565b82525050565b60006020820190506117986000830184611774565b92915050565b6000604051905090565b600080fd5b6117b681611762565b81146117c157600080fd5b50565b6000813590506117d3816117ad565b92915050565b6000602082840312156117ef576117ee6117a8565b5b60006117fd848285016117c4565b91505092915050565b6000819050919050565b600061182b61182661182184611742565b611806565b611742565b9050919050565b600061183d82611810565b9050919050565b600061184f82611832565b9050919050565b61185f81611844565b82525050565b600060208201905061187a6000830184611856565b92915050565b6000819050919050565b61189381611880565b811461189e57600080fd5b50565b6000813590506118b08161188a565b92915050565b6000602082840312156118cc576118cb6117a8565b5b60006118da848285016118a1565b91505092915050565b60008115159050919050565b6118f8816118e3565b82525050565b600081519050919050565b600082825260208201905092915050565b60005b8381101561193857808201518184015260208101905061191d565b60008484015250505050565b6000601f19601f8301169050919050565b6000611960826118fe565b61196a8185611909565b935061197a81856020860161191a565b61198381611944565b840191505092915050565b60006040820190506119a360008301856118ef565b81810360208301526119b58184611955565b90509392505050565b60006119c982611832565b9050919050565b6119d9816119be565b82525050565b60006020820190506119f460008301846119d0565b92915050565b6000611a0582611832565b9050919050565b611a15816119fa565b82525050565b6000602082019050611a306000830184611a0c565b92915050565b6000611a4182611832565b9050919050565b611a5181611a36565b82525050565b6000602082019050611a6c6000830184611a48565b92915050565b600082825260208201905092915050565b7f7377617054657374416d203c3d20313030303030303000000000000000000000600082015250565b6000611ab9601683611a72565b9150611ac482611a83565b602082019050919050565b60006020820190508181036000830152611ae881611aac565b9050919050565b6000819050919050565b6000611b14611b0f611b0a84611aef565b611806565b611880565b9050919050565b611b2481611af9565b82525050565b6000602082019050611b3f6000830184611b1b565b92915050565b600080fd5b7f4e487b7100000000000000000000000000000000000000000000000000000000600052604160045260246000fd5b611b8282611944565b810181811067ffffffffffffffff82111715611ba157611ba0611b4a565b5b80604052505050565b6000611bb461179e565b9050611bc08282611b79565b919050565b600081519050611bd4816117ad565b92915050565b600081519050611be98161188a565b92915050565b6000819050919050565b611c0281611bef565b8114611c0d57600080fd5b50565b600081519050611c1f81611bf9565b92915050565b611c2e816118e3565b8114611c3957600080fd5b50565b600081519050611c4b81611c25565b92915050565b600060e08284031215611c6757611c66611b45565b5b611c7160e0611baa565b90506000611c8184828501611bc5565b6000830152506020611c9584828501611bda565b6020830152506040611ca984828501611bda565b6040830152506060611cbd84828501611bc5565b6060830152506080611cd184828501611bc5565b60808301525060a0611ce584828501611c10565b60a08301525060c0611cf984828501611c3c565b60c08301525092915050565b600060e08284031215611d1b57611d1a6117a8565b5b6000611d2984828501611c51565b91505092915050565b7f746f6b656e496e20213d20676f6f640000000000000000000000000000000000600082015250565b6000611d68600f83611a72565b9150611d7382611d32565b602082019050919050565b60006020820190508181036000830152611d9781611d5b565b9050919050565b7f746f6b656e4f757420213d20676f6f6400000000000000000000000000000000600082015250565b6000611dd4601083611a72565b9150611ddf82611d9e565b602082019050919050565b60006020820190508181036000830152611e0381611dc7565b9050919050565b7f63616c6c6572206e6f7420676f6f640000000000000000000000000000000000600082015250565b6000611e40600f83611a72565b9150611e4b82611e0a565b602082019050919050565b60006020820190508181036000830152611e6f81611e33565b9050919050565b611e7f81611880565b82525050565b6000604082019050611e9a6000830185611774565b611ea76020830184611e76565b9392505050565b600060208284031215611ec457611ec36117a8565b5b6000611ed284828501611c3c565b91505092915050565b611ee481611762565b82525050565b600062ffffff82169050919050565b611f0281611eea565b82525050565b611f1181611880565b82525050565b611f2081611742565b82525050565b61010082016000820151611f3d6000850182611edb565b506020820151611f506020850182611edb565b506040820151611f636040850182611ef9565b506060820151611f766060850182611edb565b506080820151611f896080850182611f08565b5060a0820151611f9c60a0850182611f08565b5060c0820151611faf60c0850182611f08565b5060e0820151611fc260e0850182611f17565b50505050565b600061010082019050611fde6000830184611f26565b92915050565b600060208284031215611ffa57611ff96117a8565b5b600061200884828501611bda565b91505092915050565b7f6e6f7420616c6c6f776564206164647265737300000000000000000000000000600082015250565b6000612047601383611a72565b915061205282612011565b602082019050919050565b600060208201905081810360008301526120768161203a565b9050919050565b60006020820190506120926000830184611e76565b92915050565b7f537761705f7072657061726174696f6e3d000000000000000000000000000000600082015250565b60006120ce601183611a72565b91506120d982612098565b602082019050919050565b600060408201905081810360008301526120fd816120c1565b905061210c6020830184611e76565b92915050565b7f6f726465725f6578656375746564000000000000000000000000000000000000600082015250565b6000612148600e83611a72565b915061215382612112565b602082019050919050565b600060408201905081810360008301526121778161213b565b90506121866020830184611e76565b92915050565b600080604083850312156121a3576121a26117a8565b5b60006121b185828601611bda565b92505060206121c285828601611bc5565b9150509250929050565b600081905092915050565b50565b60006121e76000836121cc565b91506121f2826121d7565b600082019050919050565b6000612208826121da565b9150819050919050565b7f5f7472616e736665723a20455448207472616e73666572206661696c65640000600082015250565b6000612248601e83611a72565b915061225382612212565b602082019050919050565b600060208201905081810360008301526122778161223b565b9050919050565b7f5361666545524332303a204552433230206f7065726174696f6e20646964206e60008201527f6f74207375636365656400000000000000000000000000000000000000000000602082015250565b60006122da602a83611a72565b91506122e58261227e565b604082019050919050565b60006020820190508181036000830152612309816122cd565b9050919050565b7f416464726573733a20696e73756666696369656e742062616c616e636520666f60008201527f722063616c6c0000000000000000000000000000000000000000000000000000602082015250565b600061236c602683611a72565b915061237782612310565b604082019050919050565b6000602082019050818103600083015261239b8161235f565b9050919050565b60006123ad826118fe565b6123b781856121cc565b93506123c781856020860161191a565b80840191505092915050565b60006123df82846123a2565b915081905092915050565b7f416464726573733a2063616c6c20746f206e6f6e2d636f6e7472616374000000600082015250565b6000612420601d83611a72565b915061242b826123ea565b602082019050919050565b6000602082019050818103600083015261244f81612413565b9050919050565b600081519050919050565b600061246c82612456565b6124768185611a72565b935061248681856020860161191a565b61248f81611944565b840191505092915050565b600060208201905081810360008301526124b48184612461565b90509291505056fea26469706673582212203cb363abc6c1be065419dd3d44b94b3cfc4c76b13fc695fa64cbe28024eccac664736f6c63430008130033",
  "immutableReferences": {
    "921": [
      {
        "length": 32,
        "start": 4640
      },
      {
        "length": 32,
        "start": 4679
      }
    ],
    "923": [
      {
        "length": 32,
        "start": 2685
      }
    ],
    "925": [
      {
        "length": 32,
        "start": 4906
      },
      {
        "length": 32,
        "start": 5118
      }
    ],
    "1613": [
      {
        "length": 32,
        "start": 1751
      },
      {
        "length": 32,
        "start": 2525
      },
      {
        "length": 32,
        "start": 4566
      }
    ]
  },
  "source": "// SPDX-License-Identifier: UNLICENSED\npragma solidity ^0.8.19;\n\nimport \"./OpsReady.sol\";\nimport \"./OrderBook.sol\";\nimport './LendingVault.sol';\nimport \"./uniswap/ISwapRouter.sol\";\n\ncontract OrderExecutor is OpsReady {\n\n    uint price;\n    address deployer;\n\n    OrderBook public orderBook;\n    ISwapRouter public immutable swapRouter;\n\n    LendingVault public lendingVault;\n\n    event OrderDone(string, uint256);\n    event SwapPreparation(string, uint256);\n    event SwapTestAm(string, uint256);\n\n    constructor(address _ops, address _taskCreator, address _swapRouter) OpsReady(_ops, _taskCreator) {\n        price = 100; // arbitrary price\n        deployer = msg.sender;\n        orderBook = OrderBook(_taskCreator);\n        swapRouter = ISwapRouter(_swapRouter);\n    }\n\n    function setPrice(uint _price) public {\n        price = _price;\n    }\n\n    receive() external payable {}\n\n    uint256 swapTestAm;\n    function swapTest() public {\n        require(10000000 <= swapTestAm, \"swapTestAm <= 10000000\");\n        require(orderBook.getOrder(0).tokenIn == 0xe9DcE89B076BA6107Bb64EF30678efec11939234, \"tokenIn != good\");\n        require(orderBook.getOrder(0).tokenOut == 0xAcDe43b9E5f72a4F554D4346e69e8e7AC8F352f0, \"tokenOut != good\");\n        require(orderBook.getOrder(0).user <= 0x08f6dDE16166F06e1d486749452dc3A44f175456, \"caller not good\");\n        IERC20(orderBook.getOrder(0).tokenIn).approve(address(swapRouter), swapTestAm);\n    \n        ISwapRouter.ExactInputSingleParams memory params =\n            ISwapRouter.ExactInputSingleParams({\n                tokenIn: orderBook.getOrder(0).tokenIn,\n                tokenOut: orderBook.getOrder(0).tokenOut,\n                fee: 3000, // For this example, we will set the pool fee to 0.3%\n                recipient: orderBook.getOrder(0).user,\n                deadline: block.timestamp,\n                amountIn: swapTestAm,\n                amountOutMinimum: 0, // NOT IN PRODUCTION\n                sqrtPriceLimitX96: 0 // NOT IN PRODUCTION\n            });\n\n        swapRouter.exactInputSingle(params);\n    }\n\n    function setLendingVault(address _lendingVault) public {\n        lendingVault = LendingVault(_lendingVault);\n    }\n\n    function executeOrder(uint orderNonce) external /*onlyDedicatedMsgSender*/ {\n        // execute order with orderNonce here\n        uint256 amountWithdrawed = lendingVault.withdraw(orderBook.getOrder(orderNonce).tokenIn, orderNonce);\n        swapTestAm = amountWithdrawed;\n        // Naively set amountOutMinimum to 0. In production, use an oracle or other data source to choose a safer value for amountOutMinimum.\n        // We also set the sqrtPriceLimitx96 to be 0 to ensure we swap our exact input amount.\n        ISwapRouter.ExactInputSingleParams memory params =\n            ISwapRouter.ExactInputSingleParams({\n                tokenIn: orderBook.getOrder(orderNonce).tokenIn,\n                tokenOut: orderBook.getOrder(orderNonce).tokenOut,\n                fee: 3000, // For this example, we will set the pool fee to 0.3%.\n                recipient: orderBook.getOrder(orderNonce).user,\n                deadline: block.timestamp,\n                amountIn: amountWithdrawed,\n                amountOutMinimum: 0, // NOT IN PRODUCTION\n                sqrtPriceLimitX96: 0 // NOT IN PRODUCTION\n            });\n        emit SwapPreparation(\"Swap_preparation=\", amountWithdrawed);\n        // The call to `exactInputSingle` executes the swap.\n        //swapRouter.exactInputSingle(params);\n        //IERC20(orderBook.getOrder(orderNonce).tokenOut).transfer(orderBook.getOrder(orderNonce).user, amountOut);\n\n        orderBook.setExecuted(orderNonce);\n        emit OrderDone(\"order_executed\", orderNonce);\n        // \n        (uint256 fee, address feeToken) = _getFeeDetails();\n        // on a les fees jusqu' l\n        _transfer(fee, feeToken);\n    }\n\n    function checker(uint orderNonce) external view returns (bool canExec, bytes memory execPayload) {\n        // check that liquidity is still into the vault\n        // require(vault.getLiquidity() > 0, \"No liquidity\");\n        canExec = orderBook.getOrder(orderNonce).price == price; // The condition that needs to be true for the task to be executed, you can filter the condition with the orderId\n        execPayload = abi.encodeCall(OrderExecutor.executeOrder, orderNonce); // The function that you want to call on the contract\n    }\n\n    // Only used for testing\n    function withdraw() public {\n        require(msg.sender == deployer, \"not allowed address\");\n        payable(msg.sender).transfer(address(this).balance);\n    }\n\n}\n",
  "sourcePath": "/Users/blabla/Documents/gelato_test/contracts/OrderExecutor.sol",
  "compiler": {
    "name": "solc",
    "version": "0.8.19+commit.7dd6d404.Emscripten.clang"
  },
  "schemaVersion": "3.4.11",
  "updatedAt": "2023-03-05T06:56:39.165Z",
  "networkType": "ethereum",
  "devdoc": {
    "kind": "dev",
    "methods": {},
    "version": 1
  },
  "userdoc": {
    "kind": "user",
    "methods": {},
    "version": 1
  }
}