{
  "contractName": "OrderBook",
  "abi": [
    {
      "inputs": [
        {
          "internalType": "address",
          "name": "_opsAddress",
          "type": "address"
        }
      ],
      "stateMutability": "nonpayable",
      "type": "constructor"
    },
    {
      "anonymous": false,
      "inputs": [
        {
          "indexed": false,
          "internalType": "string",
          "name": "",
          "type": "string"
        },
        {
          "indexed": false,
          "internalType": "address",
          "name": "",
          "type": "address"
        }
      ],
      "name": "construct",
      "type": "event"
    },
    {
      "anonymous": false,
      "inputs": [
        {
          "indexed": false,
          "internalType": "string",
          "name": "",
          "type": "string"
        },
        {
          "indexed": false,
          "internalType": "uint256",
          "name": "",
          "type": "uint256"
        }
      ],
      "name": "orderCreated",
      "type": "event"
    },
    {
      "inputs": [],
      "name": "admin",
      "outputs": [
        {
          "internalType": "address",
          "name": "",
          "type": "address"
        }
      ],
      "stateMutability": "view",
      "type": "function",
      "constant": true
    },
    {
      "inputs": [],
      "name": "dedicatedMsgSender",
      "outputs": [
        {
          "internalType": "address",
          "name": "",
          "type": "address"
        }
      ],
      "stateMutability": "view",
      "type": "function",
      "constant": true
    },
    {
      "inputs": [],
      "name": "fundsOwner",
      "outputs": [
        {
          "internalType": "address",
          "name": "",
          "type": "address"
        }
      ],
      "stateMutability": "view",
      "type": "function",
      "constant": true
    },
    {
      "inputs": [],
      "name": "lendingVault",
      "outputs": [
        {
          "internalType": "contract LendingVault",
          "name": "",
          "type": "address"
        }
      ],
      "stateMutability": "view",
      "type": "function",
      "constant": true
    },
    {
      "inputs": [],
      "name": "ops",
      "outputs": [
        {
          "internalType": "contract IOps",
          "name": "",
          "type": "address"
        }
      ],
      "stateMutability": "view",
      "type": "function",
      "constant": true
    },
    {
      "inputs": [],
      "name": "orderExecutor",
      "outputs": [
        {
          "internalType": "contract OrderExecutor",
          "name": "",
          "type": "address"
        }
      ],
      "stateMutability": "view",
      "type": "function",
      "constant": true
    },
    {
      "inputs": [
        {
          "internalType": "uint256",
          "name": "",
          "type": "uint256"
        }
      ],
      "name": "orders",
      "outputs": [
        {
          "internalType": "address",
          "name": "user",
          "type": "address"
        },
        {
          "internalType": "uint256",
          "name": "price",
          "type": "uint256"
        },
        {
          "internalType": "uint256",
          "name": "amount",
          "type": "uint256"
        },
        {
          "internalType": "address",
          "name": "tokenIn",
          "type": "address"
        },
        {
          "internalType": "address",
          "name": "tokenOut",
          "type": "address"
        },
        {
          "internalType": "bytes32",
          "name": "orderId",
          "type": "bytes32"
        },
        {
          "internalType": "bool",
          "name": "isExecuted",
          "type": "bool"
        }
      ],
      "stateMutability": "view",
      "type": "function",
      "constant": true
    },
    {
      "inputs": [],
      "name": "taskTreasury",
      "outputs": [
        {
          "internalType": "contract ITaskTreasuryUpgradable",
          "name": "",
          "type": "address"
        }
      ],
      "stateMutability": "view",
      "type": "function",
      "constant": true
    },
    {
      "inputs": [
        {
          "internalType": "uint256",
          "name": "_amount",
          "type": "uint256"
        },
        {
          "internalType": "address",
          "name": "_token",
          "type": "address"
        }
      ],
      "name": "withdrawFunds",
      "outputs": [],
      "stateMutability": "nonpayable",
      "type": "function"
    },
    {
      "inputs": [
        {
          "internalType": "contract OrderExecutor",
          "name": "_orderExecutorAddress",
          "type": "address"
        }
      ],
      "name": "setOrderExecutor",
      "outputs": [],
      "stateMutability": "nonpayable",
      "type": "function"
    },
    {
      "inputs": [
        {
          "internalType": "address",
          "name": "_lendingVaultAddress",
          "type": "address"
        }
      ],
      "name": "setLendingVault",
      "outputs": [],
      "stateMutability": "nonpayable",
      "type": "function"
    },
    {
      "inputs": [
        {
          "internalType": "uint256",
          "name": "price",
          "type": "uint256"
        },
        {
          "internalType": "uint256",
          "name": "amount",
          "type": "uint256"
        },
        {
          "internalType": "address",
          "name": "tokenIn",
          "type": "address"
        },
        {
          "internalType": "address",
          "name": "tokenOut",
          "type": "address"
        }
      ],
      "name": "createOrder",
      "outputs": [
        {
          "internalType": "uint256",
          "name": "",
          "type": "uint256"
        }
      ],
      "stateMutability": "nonpayable",
      "type": "function"
    },
    {
      "inputs": [
        {
          "internalType": "uint256",
          "name": "_orderNonce",
          "type": "uint256"
        }
      ],
      "name": "cancelOrder",
      "outputs": [],
      "stateMutability": "nonpayable",
      "type": "function"
    },
    {
      "inputs": [],
      "name": "getExecutorAddress",
      "outputs": [
        {
          "internalType": "address",
          "name": "",
          "type": "address"
        }
      ],
      "stateMutability": "view",
      "type": "function",
      "constant": true
    },
    {
      "inputs": [
        {
          "internalType": "uint256",
          "name": "price",
          "type": "uint256"
        }
      ],
      "name": "setPrice",
      "outputs": [],
      "stateMutability": "nonpayable",
      "type": "function"
    },
    {
      "inputs": [
        {
          "internalType": "uint256",
          "name": "orderNonce",
          "type": "uint256"
        }
      ],
      "name": "setExecuted",
      "outputs": [],
      "stateMutability": "nonpayable",
      "type": "function"
    },
    {
      "inputs": [
        {
          "internalType": "uint256",
          "name": "orderNonce",
          "type": "uint256"
        }
      ],
      "name": "getOrder",
      "outputs": [
        {
          "components": [
            {
              "internalType": "address",
              "name": "user",
              "type": "address"
            },
            {
              "internalType": "uint256",
              "name": "price",
              "type": "uint256"
            },
            {
              "internalType": "uint256",
              "name": "amount",
              "type": "uint256"
            },
            {
              "internalType": "address",
              "name": "tokenIn",
              "type": "address"
            },
            {
              "internalType": "address",
              "name": "tokenOut",
              "type": "address"
            },
            {
              "internalType": "bytes32",
              "name": "orderId",
              "type": "bytes32"
            },
            {
              "internalType": "bool",
              "name": "isExecuted",
              "type": "bool"
            }
          ],
          "internalType": "struct OrderDatas",
          "name": "",
          "type": "tuple"
        }
      ],
      "stateMutability": "view",
      "type": "function",
      "constant": true
    }
  ],
  "bytecode": "0x6101206040523480156200001257600080fd5b50604051620028423803806200284283398181016040528101906200003891906200036e565b803081308173ffffffffffffffffffffffffffffffffffffffff1660808173ffffffffffffffffffffffffffffffffffffffff16815250508173ffffffffffffffffffffffffffffffffffffffff1663573ea5756040518163ffffffff1660e01b8152600401602060405180830381865afa158015620000bc573d6000803e3d6000fd5b505050506040513d601f19601f82011682018060405250810190620000e29190620003e5565b73ffffffffffffffffffffffffffffffffffffffff1660c08173ffffffffffffffffffffffffffffffffffffffff168152505073c815db16d4be6ddf2685c201937905abf338f5d773ffffffffffffffffffffffffffffffffffffffff1663ded89a7c826040518263ffffffff1660e01b815260040162000164919062000428565b6040805180830381865afa15801562000181573d6000803e3d6000fd5b505050506040513d601f19601f82011682018060405250810190620001a7919062000482565b508073ffffffffffffffffffffffffffffffffffffffff1660a09073ffffffffffffffffffffffffffffffffffffffff168152505050508073ffffffffffffffffffffffffffffffffffffffff1660e08173ffffffffffffffffffffffffffffffffffffffff168152505060805173ffffffffffffffffffffffffffffffffffffffff1663e60a32136040518163ffffffff1660e01b8152600401602060405180830381865afa15801562000260573d6000803e3d6000fd5b505050506040513d601f19601f820116820180604052508101906200028691906200050e565b73ffffffffffffffffffffffffffffffffffffffff166101008173ffffffffffffffffffffffffffffffffffffffff1681525050505033600260006101000a81548173ffffffffffffffffffffffffffffffffffffffff021916908373ffffffffffffffffffffffffffffffffffffffff1602179055505062000540565b600080fd5b600073ffffffffffffffffffffffffffffffffffffffff82169050919050565b6000620003368262000309565b9050919050565b620003488162000329565b81146200035457600080fd5b50565b60008151905062000368816200033d565b92915050565b60006020828403121562000387576200038662000304565b5b6000620003978482850162000357565b91505092915050565b6000620003ad8262000309565b9050919050565b620003bf81620003a0565b8114620003cb57600080fd5b50565b600081519050620003df81620003b4565b92915050565b600060208284031215620003fe57620003fd62000304565b5b60006200040e84828501620003ce565b91505092915050565b620004228162000329565b82525050565b60006020820190506200043f600083018462000417565b92915050565b60008115159050919050565b6200045c8162000445565b81146200046857600080fd5b50565b6000815190506200047c8162000451565b92915050565b600080604083850312156200049c576200049b62000304565b5b6000620004ac8582860162000357565b9250506020620004bf858286016200046b565b9150509250929050565b6000620004d68262000329565b9050919050565b620004e881620004c9565b8114620004f457600080fd5b50565b6000815190506200050881620004dd565b92915050565b60006020828403121562000527576200052662000304565b5b60006200053784828501620004f7565b91505092915050565b60805160a05160c05160e0516101005161229d620005a560003960008181610ef9015261137201526000818161052301528181610e6b0152610f35015260005050600061034001526000818161064201528181610a590152611396015261229d6000f3fe608060405234801561001057600080fd5b506004361061010b5760003560e01c8063756677a1116100a2578063cb8c5a3a11610071578063cb8c5a3a14610296578063d09ef241146102b4578063e60a3213146102e4578063e70abe9214610302578063f851a440146103205761010b565b8063756677a11461020a57806391b7f5ed14610226578063a849d64414610242578063a85c38ef146102605761010b565b806346ee3c59116100de57806346ee3c5914610184578063514fcac7146101a257806358b91f0d146101be578063744bfe61146101ee5761010b565b806328f150eb146101105780632993c6901461012e578063350157a81461014a578063408a03d814610168575b600080fd5b61011861033e565b60405161012591906114e6565b60405180910390f35b6101486004803603810190610143919061153c565b610362565b005b610152610423565b60405161015f91906114e6565b60405180910390f35b610182600480360381019061017d9190611595565b61044d565b005b61018c610521565b60405161019991906114e6565b60405180910390f35b6101bc60048036038101906101b7919061153c565b610545565b005b6101d860048036038101906101d391906115c2565b6106e3565b6040516101e59190611638565b60405180910390f35b61020860048036038101906102039190611653565b610e69565b005b610224600480360381019061021f91906116e3565b610faa565b005b610240600480360381019061023b919061153c565b61107e565b005b61024a61110e565b604051610257919061176f565b60405180910390f35b61027a6004803603810190610275919061153c565b611134565b60405161028d97969594939291906117be565b60405180910390f35b61029e6111e3565b6040516102ab9190611860565b60405180910390f35b6102ce60048036038101906102c9919061153c565b611209565b6040516102db9190611945565b60405180910390f35b6102ec611370565b6040516102f99190611981565b60405180910390f35b61030a611394565b60405161031791906119bd565b60405180910390f35b6103286113b8565b60405161033591906114e6565b60405180910390f35b7f000000000000000000000000000000000000000000000000000000000000000081565b600360009054906101000a900473ffffffffffffffffffffffffffffffffffffffff1673ffffffffffffffffffffffffffffffffffffffff163373ffffffffffffffffffffffffffffffffffffffff16146103f2576040517f08c379a00000000000000000000000000000000000000000000000000000000081526004016103e990611a5b565b60405180910390fd5b600160008083815260200190815260200160002060060160006101000a81548160ff02191690831515021790555050565b6000600360009054906101000a900473ffffffffffffffffffffffffffffffffffffffff16905090565b600260009054906101000a900473ffffffffffffffffffffffffffffffffffffffff1673ffffffffffffffffffffffffffffffffffffffff163373ffffffffffffffffffffffffffffffffffffffff16146104dd576040517f08c379a00000000000000000000000000000000000000000000000000000000081526004016104d490611ac7565b60405180910390fd5b80600460006101000a81548173ffffffffffffffffffffffffffffffffffffffff021916908373ffffffffffffffffffffffffffffffffffffffff16021790555050565b7f000000000000000000000000000000000000000000000000000000000000000081565b600260009054906101000a900473ffffffffffffffffffffffffffffffffffffffff1673ffffffffffffffffffffffffffffffffffffffff163373ffffffffffffffffffffffffffffffffffffffff16148061060157503373ffffffffffffffffffffffffffffffffffffffff1660008083815260200190815260200160002060000160009054906101000a900473ffffffffffffffffffffffffffffffffffffffff1673ffffffffffffffffffffffffffffffffffffffff16145b610640576040517f08c379a000000000000000000000000000000000000000000000000000000000815260040161063790611b33565b60405180910390fd5b7f000000000000000000000000000000000000000000000000000000000000000073ffffffffffffffffffffffffffffffffffffffff1663ee8ca3b5600080848152602001908152602001600020600501546040518263ffffffff1660e01b81526004016106ae9190611b53565b600060405180830381600087803b1580156106c857600080fd5b505af11580156106dc573d6000803e3d6000fd5b5050505050565b6000808390508073ffffffffffffffffffffffffffffffffffffffff166323b872dd3330886040518463ffffffff1660e01b815260040161072693929190611b6e565b6020604051808303816000875af1158015610745573d6000803e3d6000fd5b505050506040513d601f19601f820116820180604052508101906107699190611bd1565b506000600360009054906101000a900473ffffffffffffffffffffffffffffffffffffffff1673ffffffffffffffffffffffffffffffffffffffff166394f611346001546040516024016107bd9190611638565b604051602081830303815290604052915060e01b6020820180517bffffffffffffffffffffffffffffffffffffffffffffffffffffffff8381831617835250505050905060006040518060400160405280600267ffffffffffffffff81111561082957610828611bfe565b5b6040519080825280602002602001820160405280156108575781602001602082028036833780820191505090505b508152602001600267ffffffffffffffff81111561087857610877611bfe565b5b6040519080825280602002602001820160405280156108ab57816020015b60608152602001906001900390816108965790505b508152509050600081600001516000815181106108cb576108ca611c2d565b5b602002602001019060038111156108e5576108e4611c5c565b5b908160038111156108f9576108f8611c5c565b5b815250506003816000015160018151811061091757610916611c2d565b5b6020026020010190600381111561093157610930611c5c565b5b9081600381111561094557610944611c5c565b5b81525050610a07600360009054906101000a900473ffffffffffffffffffffffffffffffffffffffff16600360009054906101000a900473ffffffffffffffffffffffffffffffffffffffff1673ffffffffffffffffffffffffffffffffffffffff166394e05b2c6001546040516024016109c09190611638565b604051602081830303815290604052915060e01b6020820180517bffffffffffffffffffffffffffffffffffffffffffffffffffffffff83818316178352505050506113de565b8160200151600081518110610a1f57610a1e611c2d565b5b6020026020010181905250610a3261140a565b8160200151600181518110610a4a57610a49611c2d565b5b602002602001018190525060007f000000000000000000000000000000000000000000000000000000000000000073ffffffffffffffffffffffffffffffffffffffff16633323b467600360009054906101000a900473ffffffffffffffffffffffffffffffffffffffff16858573eeeeeeeeeeeeeeeeeeeeeeeeeeeeeeeeeeeeeeee6040518563ffffffff1660e01b8152600401610aec9493929190611f62565b6020604051808303816000875af1158015610b0b573d6000803e3d6000fd5b505050506040513d601f19601f82011682018060405250810190610b2f9190611fe1565b90506040518060e001604052803373ffffffffffffffffffffffffffffffffffffffff1681526020018a81526020018981526020018573ffffffffffffffffffffffffffffffffffffffff1681526020018773ffffffffffffffffffffffffffffffffffffffff16815260200182815260200160001515815250600080600154815260200190815260200160002060008201518160000160006101000a81548173ffffffffffffffffffffffffffffffffffffffff021916908373ffffffffffffffffffffffffffffffffffffffff160217905550602082015181600101556040820151816002015560608201518160030160006101000a81548173ffffffffffffffffffffffffffffffffffffffff021916908373ffffffffffffffffffffffffffffffffffffffff16021790555060808201518160040160006101000a81548173ffffffffffffffffffffffffffffffffffffffff021916908373ffffffffffffffffffffffffffffffffffffffff16021790555060a0820151816005015560c08201518160060160006101000a81548160ff0219169083151502179055509050508373ffffffffffffffffffffffffffffffffffffffff1663a9059cbb600460009054906101000a900473ffffffffffffffffffffffffffffffffffffffff168a6040518363ffffffff1660e01b8152600401610d3092919061200e565b6020604051808303816000875af1158015610d4f573d6000803e3d6000fd5b505050506040513d601f19601f82011682018060405250810190610d739190611bd1565b50600460009054906101000a900473ffffffffffffffffffffffffffffffffffffffff1673ffffffffffffffffffffffffffffffffffffffff16630efe6a8b858a6001546040518463ffffffff1660e01b8152600401610dd593929190612037565b600060405180830381600087803b158015610def57600080fd5b505af1158015610e03573d6000803e3d6000fd5b5050505060016000815480929190610e1a9061209d565b91905055507ff29bb1c73c1b34ece9e10cb136610579d9b7cb3f424e0e58c2d22e958092e615600154604051610e509190612131565b60405180910390a1600154945050505050949350505050565b7f000000000000000000000000000000000000000000000000000000000000000073ffffffffffffffffffffffffffffffffffffffff163373ffffffffffffffffffffffffffffffffffffffff1614610ef7576040517f08c379a0000000000000000000000000000000000000000000000000000000008152600401610eee906121d1565b60405180910390fd5b7f000000000000000000000000000000000000000000000000000000000000000073ffffffffffffffffffffffffffffffffffffffff16631c20fadd7f000000000000000000000000000000000000000000000000000000000000000083856040518463ffffffff1660e01b8152600401610f7493929190612200565b600060405180830381600087803b158015610f8e57600080fd5b505af1158015610fa2573d6000803e3d6000fd5b505050505050565b600260009054906101000a900473ffffffffffffffffffffffffffffffffffffffff1673ffffffffffffffffffffffffffffffffffffffff163373ffffffffffffffffffffffffffffffffffffffff161461103a576040517f08c379a000000000000000000000000000000000000000000000000000000000815260040161103190611ac7565b60405180910390fd5b80600360006101000a81548173ffffffffffffffffffffffffffffffffffffffff021916908373ffffffffffffffffffffffffffffffffffffffff16021790555050565b600360009054906101000a900473ffffffffffffffffffffffffffffffffffffffff1673ffffffffffffffffffffffffffffffffffffffff166391b7f5ed826040518263ffffffff1660e01b81526004016110d99190611638565b600060405180830381600087803b1580156110f357600080fd5b505af1158015611107573d6000803e3d6000fd5b5050505050565b600360009054906101000a900473ffffffffffffffffffffffffffffffffffffffff1681565b60006020528060005260406000206000915090508060000160009054906101000a900473ffffffffffffffffffffffffffffffffffffffff16908060010154908060020154908060030160009054906101000a900473ffffffffffffffffffffffffffffffffffffffff16908060040160009054906101000a900473ffffffffffffffffffffffffffffffffffffffff16908060050154908060060160009054906101000a900460ff16905087565b600460009054906101000a900473ffffffffffffffffffffffffffffffffffffffff1681565b611211611421565b6000808381526020019081526020016000206040518060e00160405290816000820160009054906101000a900473ffffffffffffffffffffffffffffffffffffffff1673ffffffffffffffffffffffffffffffffffffffff1673ffffffffffffffffffffffffffffffffffffffff16815260200160018201548152602001600282015481526020016003820160009054906101000a900473ffffffffffffffffffffffffffffffffffffffff1673ffffffffffffffffffffffffffffffffffffffff1673ffffffffffffffffffffffffffffffffffffffff1681526020016004820160009054906101000a900473ffffffffffffffffffffffffffffffffffffffff1673ffffffffffffffffffffffffffffffffffffffff1673ffffffffffffffffffffffffffffffffffffffff168152602001600582015481526020016006820160009054906101000a900460ff1615151515815250509050919050565b7f000000000000000000000000000000000000000000000000000000000000000081565b7f000000000000000000000000000000000000000000000000000000000000000081565b600260009054906101000a900473ffffffffffffffffffffffffffffffffffffffff1681565b606082826040516020016113f3929190612237565b604051602081830303815290604052905092915050565b606060405180602001604052806000815250905090565b6040518060e00160405280600073ffffffffffffffffffffffffffffffffffffffff1681526020016000815260200160008152602001600073ffffffffffffffffffffffffffffffffffffffff168152602001600073ffffffffffffffffffffffffffffffffffffffff168152602001600080191681526020016000151581525090565b600073ffffffffffffffffffffffffffffffffffffffff82169050919050565b60006114d0826114a5565b9050919050565b6114e0816114c5565b82525050565b60006020820190506114fb60008301846114d7565b92915050565b600080fd5b6000819050919050565b61151981611506565b811461152457600080fd5b50565b60008135905061153681611510565b92915050565b60006020828403121561155257611551611501565b5b600061156084828501611527565b91505092915050565b611572816114c5565b811461157d57600080fd5b50565b60008135905061158f81611569565b92915050565b6000602082840312156115ab576115aa611501565b5b60006115b984828501611580565b91505092915050565b600080600080608085870312156115dc576115db611501565b5b60006115ea87828801611527565b94505060206115fb87828801611527565b935050604061160c87828801611580565b925050606061161d87828801611580565b91505092959194509250565b61163281611506565b82525050565b600060208201905061164d6000830184611629565b92915050565b6000806040838503121561166a57611669611501565b5b600061167885828601611527565b925050602061168985828601611580565b9150509250929050565b600061169e826114a5565b9050919050565b60006116b082611693565b9050919050565b6116c0816116a5565b81146116cb57600080fd5b50565b6000813590506116dd816116b7565b92915050565b6000602082840312156116f9576116f8611501565b5b6000611707848285016116ce565b91505092915050565b6000819050919050565b600061173561173061172b846114a5565b611710565b6114a5565b9050919050565b60006117478261171a565b9050919050565b60006117598261173c565b9050919050565b6117698161174e565b82525050565b60006020820190506117846000830184611760565b92915050565b6000819050919050565b61179d8161178a565b82525050565b60008115159050919050565b6117b8816117a3565b82525050565b600060e0820190506117d3600083018a6114d7565b6117e06020830189611629565b6117ed6040830188611629565b6117fa60608301876114d7565b61180760808301866114d7565b61181460a0830185611794565b61182160c08301846117af565b98975050505050505050565b60006118388261171a565b9050919050565b600061184a8261182d565b9050919050565b61185a8161183f565b82525050565b60006020820190506118756000830184611851565b92915050565b611884816114c5565b82525050565b61189381611506565b82525050565b6118a28161178a565b82525050565b6118b1816117a3565b82525050565b60e0820160008201516118cd600085018261187b565b5060208201516118e0602085018261188a565b5060408201516118f3604085018261188a565b506060820151611906606085018261187b565b506080820151611919608085018261187b565b5060a082015161192c60a0850182611899565b5060c082015161193f60c08501826118a8565b50505050565b600060e08201905061195a60008301846118b7565b92915050565b600061196b8261182d565b9050919050565b61197b81611960565b82525050565b60006020820190506119966000830184611972565b92915050565b60006119a78261182d565b9050919050565b6119b78161199c565b82525050565b60006020820190506119d260008301846119ae565b92915050565b600082825260208201905092915050565b7f4f6e6c7920746865206578656375746f722063616e2073657420746865206f7260008201527f6465722061732065786563757465640000000000000000000000000000000000602082015250565b6000611a45602f836119d8565b9150611a50826119e9565b604082019050919050565b60006020820190508181036000830152611a7481611a38565b9050919050565b7f596f7520617265206e6f7420616c6c6f77656420746f20646f20746861740000600082015250565b6000611ab1601e836119d8565b9150611abc82611a7b565b602082019050919050565b60006020820190508181036000830152611ae081611aa4565b9050919050565b7f4e6f7420616c6c6f77656420746f2063616e63656c2074686973206f72646572600082015250565b6000611b1d6020836119d8565b9150611b2882611ae7565b602082019050919050565b60006020820190508181036000830152611b4c81611b10565b9050919050565b6000602082019050611b686000830184611794565b92915050565b6000606082019050611b8360008301866114d7565b611b9060208301856114d7565b611b9d6040830184611629565b949350505050565b611bae816117a3565b8114611bb957600080fd5b50565b600081519050611bcb81611ba5565b92915050565b600060208284031215611be757611be6611501565b5b6000611bf584828501611bbc565b91505092915050565b7f4e487b7100000000000000000000000000000000000000000000000000000000600052604160045260246000fd5b7f4e487b7100000000000000000000000000000000000000000000000000000000600052603260045260246000fd5b7f4e487b7100000000000000000000000000000000000000000000000000000000600052602160045260246000fd5b600081519050919050565b600082825260208201905092915050565b60005b83811015611cc5578082015181840152602081019050611caa565b60008484015250505050565b6000601f19601f8301169050919050565b6000611ced82611c8b565b611cf78185611c96565b9350611d07818560208601611ca7565b611d1081611cd1565b840191505092915050565b600081519050919050565b600082825260208201905092915050565b6000819050602082019050919050565b60048110611d5857611d57611c5c565b5b50565b6000819050611d6982611d47565b919050565b6000611d7982611d5b565b9050919050565b611d8981611d6e565b82525050565b6000611d9b8383611d80565b60208301905092915050565b6000602082019050919050565b6000611dbf82611d1b565b611dc98185611d26565b9350611dd483611d37565b8060005b83811015611e05578151611dec8882611d8f565b9750611df783611da7565b925050600181019050611dd8565b5085935050505092915050565b600081519050919050565b600082825260208201905092915050565b6000819050602082019050919050565b600082825260208201905092915050565b6000611e5a82611c8b565b611e648185611e3e565b9350611e74818560208601611ca7565b611e7d81611cd1565b840191505092915050565b6000611e948383611e4f565b905092915050565b6000602082019050919050565b6000611eb482611e12565b611ebe8185611e1d565b935083602082028501611ed085611e2e565b8060005b85811015611f0c5784840389528151611eed8582611e88565b9450611ef883611e9c565b925060208a01995050600181019050611ed4565b50829750879550505050505092915050565b60006040830160008301518482036000860152611f3b8282611db4565b91505060208301518482036020860152611f558282611ea9565b9150508091505092915050565b6000608082019050611f7760008301876114d7565b8181036020830152611f898186611ce2565b90508181036040830152611f9d8185611f1e565b9050611fac60608301846114d7565b95945050505050565b611fbe8161178a565b8114611fc957600080fd5b50565b600081519050611fdb81611fb5565b92915050565b600060208284031215611ff757611ff6611501565b5b600061200584828501611fcc565b91505092915050565b600060408201905061202360008301856114d7565b6120306020830184611629565b9392505050565b600060608201905061204c60008301866114d7565b6120596020830185611629565b6120666040830184611629565b949350505050565b7f4e487b7100000000000000000000000000000000000000000000000000000000600052601160045260246000fd5b60006120a882611506565b91507fffffffffffffffffffffffffffffffffffffffffffffffffffffffffffffffff82036120da576120d961206e565b5b600182019050919050565b7f6f726465724e6f6e636500000000000000000000000000000000000000000000600082015250565b600061211b600a836119d8565b9150612126826120e5565b602082019050919050565b6000604082019050818103600083015261214a8161210e565b90506121596020830184611629565b92915050565b7f4f6e6c792066756e6473206f776e65722063616e20776974686472617720667560008201527f6e64730000000000000000000000000000000000000000000000000000000000602082015250565b60006121bb6023836119d8565b91506121c68261215f565b604082019050919050565b600060208201905081810360008301526121ea816121ae565b9050919050565b6121fa81611693565b82525050565b600060608201905061221560008301866121f1565b61222260208301856114d7565b61222f6040830184611629565b949350505050565b600060408201905061224c60008301856114d7565b818103602083015261225e8184611ce2565b9050939250505056fea2646970667358221220e696c16c4d700d07b232a06f208593f28010ac9f14eee8c4ee4c2a6196fd037f64736f6c63430008130033",
  "immutableReferences": {
    "1536": [
      {
        "length": 32,
        "start": 1602
      },
      {
        "length": 32,
        "start": 2649
      },
      {
        "length": 32,
        "start": 5014
      }
    ],
    "1538": [
      {
        "length": 32,
        "start": 832
      }
    ],
    "1660": [
      {
        "length": 32,
        "start": 1315
      },
      {
        "length": 32,
        "start": 3691
      },
      {
        "length": 32,
        "start": 3893
      }
    ],
    "1663": [
      {
        "length": 32,
        "start": 3833
      },
      {
        "length": 32,
        "start": 4978
      }
    ]
  },
  "source": "// SPDX-License-Identifier: UNLICENSED\npragma solidity ^0.8.19;\n\nimport \"./gelato/Types.sol\";\nimport \"./OrderExecutor.sol\";\nimport \"./gelato/OpsTaskCreator.sol\";\nimport './LendingVault.sol';\n\nstruct OrderDatas {\n    address user;\n    uint256 price;\n    uint256 amount;\n    address tokenIn;\n    address tokenOut;\n    bytes32 orderId;\n    bool isExecuted;\n}\n\ncontract OrderBook is OpsTaskCreator {\n    mapping (uint => OrderDatas) public orders; // returns order data\n    uint orderNonce;\n    address public admin;\n    OrderExecutor public orderExecutor;\n    LendingVault public lendingVault;\n    event construct(string, address);\n    event orderCreated(string, uint256);\n\n    constructor(address _opsAddress) OpsTaskCreator(_opsAddress, address(this)) {\n        admin = msg.sender;\n    }\n\n    function setOrderExecutor(OrderExecutor _orderExecutorAddress) public {\n        require(msg.sender == admin, \"You are not allowed to do that\");\n        orderExecutor = _orderExecutorAddress;\n    }\n\n    function setLendingVault(address _lendingVaultAddress) public {\n        require(msg.sender == admin, \"You are not allowed to do that\");\n        lendingVault = LendingVault(_lendingVaultAddress);\n    } \n\n    function createOrder(uint price, uint amount, address tokenIn, address tokenOut) external returns (uint) {\n        IERC20 tokenIn = IERC20(tokenIn);\n\n        // The user needs to approve this contract for the appropriate amount\n        tokenIn.transferFrom(msg.sender, address(this), amount);\n\n        bytes memory execData = abi.encodeCall(orderExecutor.executeOrder, (orderNonce));\n\n        ModuleData memory moduleData = ModuleData({\n            modules: new Module[](2),\n            args: new bytes[](2)\n        });\n\n        moduleData.modules[0] = Module.RESOLVER;\n        moduleData.modules[1] = Module.SINGLE_EXEC;\n\n        moduleData.args[0] = _resolverModuleArg(address(orderExecutor), abi.encodeCall(orderExecutor.checker, (orderNonce)));\n        moduleData.args[1] = _singleExecModuleArg();\n\n        bytes32 orderId = ops.createTask(\n            address(orderExecutor), // contract to execute\n            execData, // function to execute\n            moduleData,\n            0xEeeeeEeeeEeEeeEeEeEeeEEEeeeeEeeeeeeeEEeE\n        );\n\n        orders[orderNonce] = OrderDatas(msg.sender, price, amount, address(tokenIn), tokenOut, orderId, false);\n\n        // Transfer tokens to the vault\n        tokenIn.transfer(address(lendingVault), amount); // approval needed to be able to swap liquidity\n        lendingVault.deposit(address(tokenIn), amount, orderNonce); // depositing liquidity into the vault\n        //tokenIn.transfer(address(lendingVault), amount);\n\n        orderNonce++;\n\n        emit orderCreated(\"orderNonce\", orderNonce);\n\n        return orderNonce;\n    }\n\n    function cancelOrder(uint _orderNonce) external {\n        require(\n            msg.sender == admin || orders[_orderNonce].user == msg.sender,\n            \"Not allowed to cancel this order\"\n        );\n        ops.cancelTask(orders[_orderNonce].orderId);\n    }\n\n    // function to return executor address in order to check the txs\n    function getExecutorAddress() public view returns (address) {\n        return address(orderExecutor);\n    }\n\n    function setPrice(uint price) public {\n        orderExecutor.setPrice(price);\n    }\n\n    \n    function setExecuted(uint orderNonce) public {\n        require(msg.sender == address(orderExecutor), \"Only the executor can set the order as executed\");\n        orders[orderNonce].isExecuted = true;\n    }\n\n    function getOrder(uint orderNonce) public view returns (OrderDatas memory) {\n        return orders[orderNonce];\n    }\n\n}\n\n\n",
  "sourcePath": "/Users/blabla/Documents/gelato_test/contracts/OrderBook.sol",
  "compiler": {
    "name": "solc",
    "version": "0.8.19+commit.7dd6d404.Emscripten.clang"
  },
  "schemaVersion": "3.4.11",
  "updatedAt": "2023-03-05T08:08:38.792Z",
  "networkType": "ethereum",
  "devdoc": {
    "kind": "dev",
    "methods": {
      "withdrawFunds(uint256,address)": {
        "details": "Withdraw funds from this contract's Gelato balance to fundsOwner."
      }
    },
    "version": 1
  },
  "userdoc": {
    "kind": "user",
    "methods": {},
    "version": 1
  }
}