{
  "contractName": "OrderBook",
  "abi": [
    {
      "inputs": [],
      "stateMutability": "nonpayable",
      "type": "constructor"
    },
    {
      "anonymous": false,
      "inputs": [
        {
          "indexed": false,
          "internalType": "string",
          "name": "",
          "type": "string"
        },
        {
          "indexed": false,
          "internalType": "address",
          "name": "",
          "type": "address"
        }
      ],
      "name": "construct",
      "type": "event"
    },
    {
      "inputs": [],
      "name": "admin",
      "outputs": [
        {
          "internalType": "address",
          "name": "",
          "type": "address"
        }
      ],
      "stateMutability": "view",
      "type": "function",
      "constant": true
    },
    {
      "inputs": [],
      "name": "dedicatedMsgSender",
      "outputs": [
        {
          "internalType": "address",
          "name": "",
          "type": "address"
        }
      ],
      "stateMutability": "view",
      "type": "function",
      "constant": true
    },
    {
      "inputs": [],
      "name": "fundsOwner",
      "outputs": [
        {
          "internalType": "address",
          "name": "",
          "type": "address"
        }
      ],
      "stateMutability": "view",
      "type": "function",
      "constant": true
    },
    {
      "inputs": [],
      "name": "ops",
      "outputs": [
        {
          "internalType": "contract IOps",
          "name": "",
          "type": "address"
        }
      ],
      "stateMutability": "view",
      "type": "function",
      "constant": true
    },
    {
      "inputs": [],
      "name": "orderExecutor",
      "outputs": [
        {
          "internalType": "contract OrderExecutor",
          "name": "",
          "type": "address"
        }
      ],
      "stateMutability": "view",
      "type": "function",
      "constant": true
    },
    {
      "inputs": [
        {
          "internalType": "uint256",
          "name": "",
          "type": "uint256"
        }
      ],
      "name": "orders",
      "outputs": [
        {
          "internalType": "address",
          "name": "user",
          "type": "address"
        },
        {
          "internalType": "uint256",
          "name": "price",
          "type": "uint256"
        },
        {
          "internalType": "address",
          "name": "fromToken",
          "type": "address"
        },
        {
          "internalType": "address",
          "name": "toToken",
          "type": "address"
        },
        {
          "internalType": "bytes32",
          "name": "orderId",
          "type": "bytes32"
        },
        {
          "internalType": "bool",
          "name": "isExecuted",
          "type": "bool"
        }
      ],
      "stateMutability": "view",
      "type": "function",
      "constant": true
    },
    {
      "inputs": [],
      "name": "taskTreasury",
      "outputs": [
        {
          "internalType": "contract ITaskTreasuryUpgradable",
          "name": "",
          "type": "address"
        }
      ],
      "stateMutability": "view",
      "type": "function",
      "constant": true
    },
    {
      "inputs": [
        {
          "internalType": "uint256",
          "name": "_amount",
          "type": "uint256"
        },
        {
          "internalType": "address",
          "name": "_token",
          "type": "address"
        }
      ],
      "name": "withdrawFunds",
      "outputs": [],
      "stateMutability": "nonpayable",
      "type": "function"
    },
    {
      "inputs": [
        {
          "internalType": "uint256",
          "name": "price",
          "type": "uint256"
        },
        {
          "internalType": "address",
          "name": "fromToken",
          "type": "address"
        },
        {
          "internalType": "address",
          "name": "toToken",
          "type": "address"
        }
      ],
      "name": "createOrder",
      "outputs": [
        {
          "internalType": "uint256",
          "name": "",
          "type": "uint256"
        }
      ],
      "stateMutability": "nonpayable",
      "type": "function"
    },
    {
      "inputs": [
        {
          "internalType": "uint256",
          "name": "_orderNonce",
          "type": "uint256"
        }
      ],
      "name": "cancelOrder",
      "outputs": [],
      "stateMutability": "nonpayable",
      "type": "function"
    },
    {
      "inputs": [],
      "name": "getExecutorAddress",
      "outputs": [
        {
          "internalType": "address",
          "name": "",
          "type": "address"
        }
      ],
      "stateMutability": "view",
      "type": "function",
      "constant": true
    },
    {
      "inputs": [
        {
          "internalType": "uint256",
          "name": "price",
          "type": "uint256"
        }
      ],
      "name": "setPrice",
      "outputs": [],
      "stateMutability": "nonpayable",
      "type": "function"
    },
    {
      "inputs": [
        {
          "internalType": "uint256",
          "name": "orderNonce",
          "type": "uint256"
        }
      ],
      "name": "setExecuted",
      "outputs": [],
      "stateMutability": "nonpayable",
      "type": "function"
    },
    {
      "inputs": [
        {
          "internalType": "uint256",
          "name": "orderNonce",
          "type": "uint256"
        }
      ],
      "name": "getOrder",
      "outputs": [
        {
          "components": [
            {
              "internalType": "address",
              "name": "user",
              "type": "address"
            },
            {
              "internalType": "uint256",
              "name": "price",
              "type": "uint256"
            },
            {
              "internalType": "address",
              "name": "fromToken",
              "type": "address"
            },
            {
              "internalType": "address",
              "name": "toToken",
              "type": "address"
            },
            {
              "internalType": "bytes32",
              "name": "orderId",
              "type": "bytes32"
            },
            {
              "internalType": "bool",
              "name": "isExecuted",
              "type": "bool"
            }
          ],
          "internalType": "struct OrderDatas",
          "name": "",
          "type": "tuple"
        }
      ],
      "stateMutability": "view",
      "type": "function",
      "constant": true
    }
  ],
  "bytecode": "0x6101206040523480156200001257600080fd5b5073c1c6805b857bef1f412519c4a842522431afed393081308173ffffffffffffffffffffffffffffffffffffffff1660808173ffffffffffffffffffffffffffffffffffffffff16815250508173ffffffffffffffffffffffffffffffffffffffff1663573ea5756040518163ffffffff1660e01b8152600401602060405180830381865afa158015620000ab573d6000803e3d6000fd5b505050506040513d601f19601f82011682018060405250810190620000d1919062000436565b73ffffffffffffffffffffffffffffffffffffffff1660c08173ffffffffffffffffffffffffffffffffffffffff168152505073c815db16d4be6ddf2685c201937905abf338f5d773ffffffffffffffffffffffffffffffffffffffff1663ded89a7c826040518263ffffffff1660e01b81526004016200015391906200048d565b6040805180830381865afa15801562000170573d6000803e3d6000fd5b505050506040513d601f19601f8201168201806040525081019062000196919062000518565b508073ffffffffffffffffffffffffffffffffffffffff1660a09073ffffffffffffffffffffffffffffffffffffffff168152505050508073ffffffffffffffffffffffffffffffffffffffff1660e08173ffffffffffffffffffffffffffffffffffffffff168152505060805173ffffffffffffffffffffffffffffffffffffffff1663e60a32136040518163ffffffff1660e01b8152600401602060405180830381865afa1580156200024f573d6000803e3d6000fd5b505050506040513d601f19601f82011682018060405250810190620002759190620005a4565b73ffffffffffffffffffffffffffffffffffffffff166101008173ffffffffffffffffffffffffffffffffffffffff168152505050507fa55e372fa26b20bbe8d4e783b3a8b5cdccb78af8e27dac035fdb2b1b9ba0ead6608051604051620002de919062000637565b60405180910390a16080517308f6dde16166f06e1d486749452dc3a44f1754566040516200030c90620003be565b6200031992919062000669565b604051809103906000f08015801562000336573d6000803e3d6000fd5b50600360006101000a81548173ffffffffffffffffffffffffffffffffffffffff021916908373ffffffffffffffffffffffffffffffffffffffff16021790555033600260006101000a81548173ffffffffffffffffffffffffffffffffffffffff021916908373ffffffffffffffffffffffffffffffffffffffff16021790555062000696565b6115cb806200225783390190565b600080fd5b600073ffffffffffffffffffffffffffffffffffffffff82169050919050565b6000620003fe82620003d1565b9050919050565b6200041081620003f1565b81146200041c57600080fd5b50565b600081519050620004308162000405565b92915050565b6000602082840312156200044f576200044e620003cc565b5b60006200045f848285016200041f565b91505092915050565b60006200047582620003d1565b9050919050565b620004878162000468565b82525050565b6000602082019050620004a460008301846200047c565b92915050565b620004b58162000468565b8114620004c157600080fd5b50565b600081519050620004d581620004aa565b92915050565b60008115159050919050565b620004f281620004db565b8114620004fe57600080fd5b50565b6000815190506200051281620004e7565b92915050565b60008060408385031215620005325762000531620003cc565b5b60006200054285828601620004c4565b9250506020620005558582860162000501565b9150509250929050565b60006200056c8262000468565b9050919050565b6200057e816200055f565b81146200058a57600080fd5b50565b6000815190506200059e8162000573565b92915050565b600060208284031215620005bd57620005bc620003cc565b5b6000620005cd848285016200058d565b91505092915050565b600082825260208201905092915050565b7f61646472657373286f7073290000000000000000000000000000000000000000600082015250565b60006200061f600c83620005d6565b91506200062c82620005e7565b602082019050919050565b60006040820190508181036000830152620006528162000610565b90506200066360208301846200047c565b92915050565b60006040820190506200068060008301856200047c565b6200068f60208301846200047c565b9392505050565b60805160a05160c05160e05161010051611b5c620006fb600039600081816106270152610f170152600081816103d701528181610599015261066301526000505060006102c80152600081816104f601528181610b270152610f3b0152611b5c6000f3fe608060405234801561001057600080fd5b50600436106100ea5760003560e01c8063a849d6441161008c578063d09ef24111610066578063d09ef2411461023c578063e60a32131461026c578063e70abe921461028a578063f851a440146102a8576100ea565b8063a849d644146101b9578063a85c38ef146101d7578063bf3cfc391461020c576100ea565b806346ee3c59116100c857806346ee3c5914610147578063514fcac714610165578063744bfe611461018157806391b7f5ed1461019d576100ea565b806328f150eb146100ef5780632993c6901461010d578063350157a814610129575b600080fd5b6100f76102c6565b6040516101049190611084565b60405180910390f35b610127600480360381019061012291906110da565b6102ea565b005b6101316103ab565b60405161013e9190611084565b60405180910390f35b61014f6103d5565b60405161015c9190611084565b60405180910390f35b61017f600480360381019061017a91906110da565b6103f9565b005b61019b60048036038101906101969190611133565b610597565b005b6101b760048036038101906101b291906110da565b6106d8565b005b6101c1610768565b6040516101ce91906111d2565b60405180910390f35b6101f160048036038101906101ec91906110da565b61078e565b60405161020396959493929190611230565b60405180910390f35b61022660048036038101906102219190611291565b610837565b60405161023391906112e4565b60405180910390f35b610256600480360381019061025191906110da565b610db8565b60405161026391906113b6565b60405180910390f35b610274610f15565b6040516102819190611404565b60405180910390f35b610292610f39565b60405161029f9190611440565b60405180910390f35b6102b0610f5d565b6040516102bd9190611084565b60405180910390f35b7f000000000000000000000000000000000000000000000000000000000000000081565b600360009054906101000a900473ffffffffffffffffffffffffffffffffffffffff1673ffffffffffffffffffffffffffffffffffffffff163373ffffffffffffffffffffffffffffffffffffffff161461037a576040517f08c379a0000000000000000000000000000000000000000000000000000000008152600401610371906114de565b60405180910390fd5b600160008083815260200190815260200160002060050160006101000a81548160ff02191690831515021790555050565b6000600360009054906101000a900473ffffffffffffffffffffffffffffffffffffffff16905090565b7f000000000000000000000000000000000000000000000000000000000000000081565b600260009054906101000a900473ffffffffffffffffffffffffffffffffffffffff1673ffffffffffffffffffffffffffffffffffffffff163373ffffffffffffffffffffffffffffffffffffffff1614806104b557503373ffffffffffffffffffffffffffffffffffffffff1660008083815260200190815260200160002060000160009054906101000a900473ffffffffffffffffffffffffffffffffffffffff1673ffffffffffffffffffffffffffffffffffffffff16145b6104f4576040517f08c379a00000000000000000000000000000000000000000000000000000000081526004016104eb9061154a565b60405180910390fd5b7f000000000000000000000000000000000000000000000000000000000000000073ffffffffffffffffffffffffffffffffffffffff1663ee8ca3b5600080848152602001908152602001600020600401546040518263ffffffff1660e01b8152600401610562919061156a565b600060405180830381600087803b15801561057c57600080fd5b505af1158015610590573d6000803e3d6000fd5b5050505050565b7f000000000000000000000000000000000000000000000000000000000000000073ffffffffffffffffffffffffffffffffffffffff163373ffffffffffffffffffffffffffffffffffffffff1614610625576040517f08c379a000000000000000000000000000000000000000000000000000000000815260040161061c906115f7565b60405180910390fd5b7f000000000000000000000000000000000000000000000000000000000000000073ffffffffffffffffffffffffffffffffffffffff16631c20fadd7f000000000000000000000000000000000000000000000000000000000000000083856040518463ffffffff1660e01b81526004016106a293929190611638565b600060405180830381600087803b1580156106bc57600080fd5b505af11580156106d0573d6000803e3d6000fd5b505050505050565b600360009054906101000a900473ffffffffffffffffffffffffffffffffffffffff1673ffffffffffffffffffffffffffffffffffffffff166391b7f5ed826040518263ffffffff1660e01b815260040161073391906112e4565b600060405180830381600087803b15801561074d57600080fd5b505af1158015610761573d6000803e3d6000fd5b5050505050565b600360009054906101000a900473ffffffffffffffffffffffffffffffffffffffff1681565b60006020528060005260406000206000915090508060000160009054906101000a900473ffffffffffffffffffffffffffffffffffffffff16908060010154908060020160009054906101000a900473ffffffffffffffffffffffffffffffffffffffff16908060030160009054906101000a900473ffffffffffffffffffffffffffffffffffffffff16908060040154908060050160009054906101000a900460ff16905086565b600080600360009054906101000a900473ffffffffffffffffffffffffffffffffffffffff1673ffffffffffffffffffffffffffffffffffffffff166394f6113460015460405160240161088b91906112e4565b604051602081830303815290604052915060e01b6020820180517bffffffffffffffffffffffffffffffffffffffffffffffffffffffff8381831617835250505050905060006040518060400160405280600267ffffffffffffffff8111156108f7576108f661166f565b5b6040519080825280602002602001820160405280156109255781602001602082028036833780820191505090505b508152602001600267ffffffffffffffff8111156109465761094561166f565b5b60405190808252806020026020018201604052801561097957816020015b60608152602001906001900390816109645790505b508152509050600081600001516000815181106109995761099861169e565b5b602002602001019060038111156109b3576109b26116cd565b5b908160038111156109c7576109c66116cd565b5b81525050600381600001516001815181106109e5576109e461169e565b5b602002602001019060038111156109ff576109fe6116cd565b5b90816003811115610a1357610a126116cd565b5b81525050610ad5600360009054906101000a900473ffffffffffffffffffffffffffffffffffffffff16600360009054906101000a900473ffffffffffffffffffffffffffffffffffffffff1673ffffffffffffffffffffffffffffffffffffffff166394e05b2c600154604051602401610a8e91906112e4565b604051602081830303815290604052915060e01b6020820180517bffffffffffffffffffffffffffffffffffffffffffffffffffffffff8381831617835250505050610f83565b8160200151600081518110610aed57610aec61169e565b5b6020026020010181905250610b00610faf565b8160200151600181518110610b1857610b1761169e565b5b602002602001018190525060007f000000000000000000000000000000000000000000000000000000000000000073ffffffffffffffffffffffffffffffffffffffff16633323b467600360009054906101000a900473ffffffffffffffffffffffffffffffffffffffff16858573eeeeeeeeeeeeeeeeeeeeeeeeeeeeeeeeeeeeeeee6040518563ffffffff1660e01b8152600401610bba94939291906119d3565b6020604051808303816000875af1158015610bd9573d6000803e3d6000fd5b505050506040513d601f19601f82011682018060405250810190610bfd9190611a52565b90506040518060c001604052803373ffffffffffffffffffffffffffffffffffffffff1681526020018881526020018773ffffffffffffffffffffffffffffffffffffffff1681526020018673ffffffffffffffffffffffffffffffffffffffff16815260200182815260200160001515815250600080600154815260200190815260200160002060008201518160000160006101000a81548173ffffffffffffffffffffffffffffffffffffffff021916908373ffffffffffffffffffffffffffffffffffffffff1602179055506020820151816001015560408201518160020160006101000a81548173ffffffffffffffffffffffffffffffffffffffff021916908373ffffffffffffffffffffffffffffffffffffffff16021790555060608201518160030160006101000a81548173ffffffffffffffffffffffffffffffffffffffff021916908373ffffffffffffffffffffffffffffffffffffffff1602179055506080820151816004015560a08201518160050160006101000a81548160ff02191690831515021790555090505060016000815480929190610da490611aae565b919050555060015493505050509392505050565b610dc0610fc6565b6000808381526020019081526020016000206040518060c00160405290816000820160009054906101000a900473ffffffffffffffffffffffffffffffffffffffff1673ffffffffffffffffffffffffffffffffffffffff1673ffffffffffffffffffffffffffffffffffffffff168152602001600182015481526020016002820160009054906101000a900473ffffffffffffffffffffffffffffffffffffffff1673ffffffffffffffffffffffffffffffffffffffff1673ffffffffffffffffffffffffffffffffffffffff1681526020016003820160009054906101000a900473ffffffffffffffffffffffffffffffffffffffff1673ffffffffffffffffffffffffffffffffffffffff1673ffffffffffffffffffffffffffffffffffffffff168152602001600482015481526020016005820160009054906101000a900460ff1615151515815250509050919050565b7f000000000000000000000000000000000000000000000000000000000000000081565b7f000000000000000000000000000000000000000000000000000000000000000081565b600260009054906101000a900473ffffffffffffffffffffffffffffffffffffffff1681565b60608282604051602001610f98929190611af6565b604051602081830303815290604052905092915050565b606060405180602001604052806000815250905090565b6040518060c00160405280600073ffffffffffffffffffffffffffffffffffffffff16815260200160008152602001600073ffffffffffffffffffffffffffffffffffffffff168152602001600073ffffffffffffffffffffffffffffffffffffffff168152602001600080191681526020016000151581525090565b600073ffffffffffffffffffffffffffffffffffffffff82169050919050565b600061106e82611043565b9050919050565b61107e81611063565b82525050565b60006020820190506110996000830184611075565b92915050565b600080fd5b6000819050919050565b6110b7816110a4565b81146110c257600080fd5b50565b6000813590506110d4816110ae565b92915050565b6000602082840312156110f0576110ef61109f565b5b60006110fe848285016110c5565b91505092915050565b61111081611063565b811461111b57600080fd5b50565b60008135905061112d81611107565b92915050565b6000806040838503121561114a5761114961109f565b5b6000611158858286016110c5565b92505060206111698582860161111e565b9150509250929050565b6000819050919050565b600061119861119361118e84611043565b611173565b611043565b9050919050565b60006111aa8261117d565b9050919050565b60006111bc8261119f565b9050919050565b6111cc816111b1565b82525050565b60006020820190506111e760008301846111c3565b92915050565b6111f6816110a4565b82525050565b6000819050919050565b61120f816111fc565b82525050565b60008115159050919050565b61122a81611215565b82525050565b600060c0820190506112456000830189611075565b61125260208301886111ed565b61125f6040830187611075565b61126c6060830186611075565b6112796080830185611206565b61128660a0830184611221565b979650505050505050565b6000806000606084860312156112aa576112a961109f565b5b60006112b8868287016110c5565b93505060206112c98682870161111e565b92505060406112da8682870161111e565b9150509250925092565b60006020820190506112f960008301846111ed565b92915050565b61130881611063565b82525050565b611317816110a4565b82525050565b611326816111fc565b82525050565b61133581611215565b82525050565b60c08201600082015161135160008501826112ff565b506020820151611364602085018261130e565b50604082015161137760408501826112ff565b50606082015161138a60608501826112ff565b50608082015161139d608085018261131d565b5060a08201516113b060a085018261132c565b50505050565b600060c0820190506113cb600083018461133b565b92915050565b60006113dc8261117d565b9050919050565b60006113ee826113d1565b9050919050565b6113fe816113e3565b82525050565b600060208201905061141960008301846113f5565b92915050565b600061142a826113d1565b9050919050565b61143a8161141f565b82525050565b60006020820190506114556000830184611431565b92915050565b600082825260208201905092915050565b7f4f6e6c7920746865206578656375746f722063616e2073657420746865206f7260008201527f6465722061732065786563757465640000000000000000000000000000000000602082015250565b60006114c8602f8361145b565b91506114d38261146c565b604082019050919050565b600060208201905081810360008301526114f7816114bb565b9050919050565b7f4e6f7420616c6c6f77656420746f2063616e63656c2074686973206f72646572600082015250565b600061153460208361145b565b915061153f826114fe565b602082019050919050565b6000602082019050818103600083015261156381611527565b9050919050565b600060208201905061157f6000830184611206565b92915050565b7f4f6e6c792066756e6473206f776e65722063616e20776974686472617720667560008201527f6e64730000000000000000000000000000000000000000000000000000000000602082015250565b60006115e160238361145b565b91506115ec82611585565b604082019050919050565b60006020820190508181036000830152611610816115d4565b9050919050565b600061162282611043565b9050919050565b61163281611617565b82525050565b600060608201905061164d6000830186611629565b61165a6020830185611075565b61166760408301846111ed565b949350505050565b7f4e487b7100000000000000000000000000000000000000000000000000000000600052604160045260246000fd5b7f4e487b7100000000000000000000000000000000000000000000000000000000600052603260045260246000fd5b7f4e487b7100000000000000000000000000000000000000000000000000000000600052602160045260246000fd5b600081519050919050565b600082825260208201905092915050565b60005b8381101561173657808201518184015260208101905061171b565b60008484015250505050565b6000601f19601f8301169050919050565b600061175e826116fc565b6117688185611707565b9350611778818560208601611718565b61178181611742565b840191505092915050565b600081519050919050565b600082825260208201905092915050565b6000819050602082019050919050565b600481106117c9576117c86116cd565b5b50565b60008190506117da826117b8565b919050565b60006117ea826117cc565b9050919050565b6117fa816117df565b82525050565b600061180c83836117f1565b60208301905092915050565b6000602082019050919050565b60006118308261178c565b61183a8185611797565b9350611845836117a8565b8060005b8381101561187657815161185d8882611800565b975061186883611818565b925050600181019050611849565b5085935050505092915050565b600081519050919050565b600082825260208201905092915050565b6000819050602082019050919050565b600082825260208201905092915050565b60006118cb826116fc565b6118d581856118af565b93506118e5818560208601611718565b6118ee81611742565b840191505092915050565b600061190583836118c0565b905092915050565b6000602082019050919050565b600061192582611883565b61192f818561188e565b9350836020820285016119418561189f565b8060005b8581101561197d578484038952815161195e85826118f9565b94506119698361190d565b925060208a01995050600181019050611945565b50829750879550505050505092915050565b600060408301600083015184820360008601526119ac8282611825565b915050602083015184820360208601526119c6828261191a565b9150508091505092915050565b60006080820190506119e86000830187611075565b81810360208301526119fa8186611753565b90508181036040830152611a0e818561198f565b9050611a1d6060830184611075565b95945050505050565b611a2f816111fc565b8114611a3a57600080fd5b50565b600081519050611a4c81611a26565b92915050565b600060208284031215611a6857611a6761109f565b5b6000611a7684828501611a3d565b91505092915050565b7f4e487b7100000000000000000000000000000000000000000000000000000000600052601160045260246000fd5b6000611ab9826110a4565b91507fffffffffffffffffffffffffffffffffffffffffffffffffffffffffffffffff8203611aeb57611aea611a7f565b5b600182019050919050565b6000604082019050611b0b6000830185611075565b8181036020830152611b1d8184611753565b9050939250505056fea2646970667358221220ae7b8f5d92d0e505399a0d12afddf201cc64172047bf3ac6a6aae486b8bdca9664736f6c6343000813003360e06040523480156200001157600080fd5b50604051620015cb380380620015cb833981810160405281019062000037919062000296565b81818173ffffffffffffffffffffffffffffffffffffffff1660808173ffffffffffffffffffffffffffffffffffffffff16815250508173ffffffffffffffffffffffffffffffffffffffff1663573ea5756040518163ffffffff1660e01b8152600401602060405180830381865afa158015620000b9573d6000803e3d6000fd5b505050506040513d601f19601f82011682018060405250810190620000df919062000322565b73ffffffffffffffffffffffffffffffffffffffff1660c08173ffffffffffffffffffffffffffffffffffffffff168152505073c815db16d4be6ddf2685c201937905abf338f5d773ffffffffffffffffffffffffffffffffffffffff1663ded89a7c826040518263ffffffff1660e01b815260040162000161919062000365565b6040805180830381865afa1580156200017e573d6000803e3d6000fd5b505050506040513d601f19601f82011682018060405250810190620001a49190620003bf565b508073ffffffffffffffffffffffffffffffffffffffff1660a09073ffffffffffffffffffffffffffffffffffffffff16815250505050606460008190555033600160006101000a81548173ffffffffffffffffffffffffffffffffffffffff021916908373ffffffffffffffffffffffffffffffffffffffff160217905550505062000406565b600080fd5b600073ffffffffffffffffffffffffffffffffffffffff82169050919050565b60006200025e8262000231565b9050919050565b620002708162000251565b81146200027c57600080fd5b50565b600081519050620002908162000265565b92915050565b60008060408385031215620002b057620002af6200022c565b5b6000620002c0858286016200027f565b9250506020620002d3858286016200027f565b9150509250929050565b6000620002ea8262000231565b9050919050565b620002fc81620002dd565b81146200030857600080fd5b50565b6000815190506200031c81620002f1565b92915050565b6000602082840312156200033b576200033a6200022c565b5b60006200034b848285016200030b565b91505092915050565b6200035f8162000251565b82525050565b60006020820190506200037c600083018462000354565b92915050565b60008115159050919050565b620003998162000382565b8114620003a557600080fd5b50565b600081519050620003b9816200038e565b92915050565b60008060408385031215620003d957620003d86200022c565b5b6000620003e9858286016200027f565b9250506020620003fc85828601620003a8565b9150509250929050565b60805160a05160c05161118762000444600039600081816104bd0152610591015260006101780152600081816103b301526103da01526111876000f3fe6080604052600436106100595760003560e01c806328f150eb14610065578063776af5ba1461009057806391b7f5ed146100bb57806394e05b2c146100e457806394f6113414610122578063e70abe921461014b57610060565b3661006057005b600080fd5b34801561007157600080fd5b5061007a610176565b6040516100879190610916565b60405180910390f35b34801561009c57600080fd5b506100a561019a565b6040516100b29190610990565b60405180910390f35b3480156100c757600080fd5b506100e260048036038101906100dd91906109f0565b6101c0565b005b3480156100f057600080fd5b5061010b600480360381019061010691906109f0565b6101ca565b604051610119929190610ac8565b60405180910390f35b34801561012e57600080fd5b50610149600480360381019061014491906109f0565b6102d1565b005b34801561015757600080fd5b506101606103b1565b60405161016d9190610b19565b60405180910390f35b7f000000000000000000000000000000000000000000000000000000000000000081565b600160009054906101000a900473ffffffffffffffffffffffffffffffffffffffff1681565b8060008190555050565b60006060600054600160009054906101000a900473ffffffffffffffffffffffffffffffffffffffff1673ffffffffffffffffffffffffffffffffffffffff1663d09ef241856040518263ffffffff1660e01b815260040161022c9190610b43565b60c060405180830381865afa158015610249573d6000803e3d6000fd5b505050506040513d601f19601f8201168201806040525081019061026d9190610d21565b60200151149150826040516024016102859190610b43565b6040516020818303038152906040526394f6113460e01b6020820180517bffffffffffffffffffffffffffffffffffffffffffffffffffffffff83818316178352505050509050915091565b600160009054906101000a900473ffffffffffffffffffffffffffffffffffffffff1673ffffffffffffffffffffffffffffffffffffffff16632993c690826040518263ffffffff1660e01b815260040161032c9190610b43565b600060405180830381600087803b15801561034657600080fd5b505af115801561035a573d6000803e3d6000fd5b505050507fee02c8198e15339d816eee1c984a22b43d97a3fd967befcfdb05b9b1c98eda3f60405161038b90610dab565b60405180910390a160008061039e6103d5565b915091506103ac8282610472565b505050565b7f000000000000000000000000000000000000000000000000000000000000000081565b6000807f000000000000000000000000000000000000000000000000000000000000000073ffffffffffffffffffffffffffffffffffffffff1663b810c6366040518163ffffffff1660e01b81526004016040805180830381865afa158015610442573d6000803e3d6000fd5b505050506040513d601f19601f820116820180604052508101906104669190610dcb565b80925081935050509091565b73eeeeeeeeeeeeeeeeeeeeeeeeeeeeeeeeeeeeeeee73ffffffffffffffffffffffffffffffffffffffff168173ffffffffffffffffffffffffffffffffffffffff160361058b5760007f000000000000000000000000000000000000000000000000000000000000000073ffffffffffffffffffffffffffffffffffffffff16836040516104ff90610e3c565b60006040518083038185875af1925050503d806000811461053c576040519150601f19603f3d011682016040523d82523d6000602084013e610541565b606091505b5050905080610585576040517f08c379a000000000000000000000000000000000000000000000000000000000815260040161057c90610e9d565b60405180910390fd5b506105b7565b6105b6817f0000000000000000000000000000000000000000000000000000000000000000846105bb565b5b5050565b61063c8363a9059cbb60e01b84846040516024016105da929190610ebd565b604051602081830303815290604052907bffffffffffffffffffffffffffffffffffffffffffffffffffffffff19166020820180517bffffffffffffffffffffffffffffffffffffffffffffffffffffffff8381831617835250505050610641565b505050565b60006106a3826040518060400160405280602081526020017f5361666545524332303a206c6f772d6c6576656c2063616c6c206661696c65648152508573ffffffffffffffffffffffffffffffffffffffff166107089092919063ffffffff16565b905060008151111561070357808060200190518101906106c39190610ee6565b610702576040517f08c379a00000000000000000000000000000000000000000000000000000000081526004016106f990610f85565b60405180910390fd5b5b505050565b60606107178484600085610720565b90509392505050565b606082471015610765576040517f08c379a000000000000000000000000000000000000000000000000000000000815260040161075c90611017565b60405180910390fd5b6000808673ffffffffffffffffffffffffffffffffffffffff16858760405161078e9190611068565b60006040518083038185875af1925050503d80600081146107cb576040519150601f19603f3d011682016040523d82523d6000602084013e6107d0565b606091505b50915091506107e1878383876107ed565b92505050949350505050565b6060831561084f5760008351036108475761080785610862565b610846576040517f08c379a000000000000000000000000000000000000000000000000000000000815260040161083d906110cb565b60405180910390fd5b5b82905061085a565b6108598383610885565b5b949350505050565b6000808273ffffffffffffffffffffffffffffffffffffffff163b119050919050565b6000825111156108985781518083602001fd5b806040517f08c379a00000000000000000000000000000000000000000000000000000000081526004016108cc919061112f565b60405180910390fd5b600073ffffffffffffffffffffffffffffffffffffffff82169050919050565b6000610900826108d5565b9050919050565b610910816108f5565b82525050565b600060208201905061092b6000830184610907565b92915050565b6000819050919050565b600061095661095161094c846108d5565b610931565b6108d5565b9050919050565b60006109688261093b565b9050919050565b600061097a8261095d565b9050919050565b61098a8161096f565b82525050565b60006020820190506109a56000830184610981565b92915050565b6000604051905090565b600080fd5b6000819050919050565b6109cd816109ba565b81146109d857600080fd5b50565b6000813590506109ea816109c4565b92915050565b600060208284031215610a0657610a056109b5565b5b6000610a14848285016109db565b91505092915050565b60008115159050919050565b610a3281610a1d565b82525050565b600081519050919050565b600082825260208201905092915050565b60005b83811015610a72578082015181840152602081019050610a57565b60008484015250505050565b6000601f19601f8301169050919050565b6000610a9a82610a38565b610aa48185610a43565b9350610ab4818560208601610a54565b610abd81610a7e565b840191505092915050565b6000604082019050610add6000830185610a29565b8181036020830152610aef8184610a8f565b90509392505050565b6000610b038261095d565b9050919050565b610b1381610af8565b82525050565b6000602082019050610b2e6000830184610b0a565b92915050565b610b3d816109ba565b82525050565b6000602082019050610b586000830184610b34565b92915050565b600080fd5b7f4e487b7100000000000000000000000000000000000000000000000000000000600052604160045260246000fd5b610b9b82610a7e565b810181811067ffffffffffffffff82111715610bba57610bb9610b63565b5b80604052505050565b6000610bcd6109ab565b9050610bd98282610b92565b919050565b610be7816108f5565b8114610bf257600080fd5b50565b600081519050610c0481610bde565b92915050565b600081519050610c19816109c4565b92915050565b6000819050919050565b610c3281610c1f565b8114610c3d57600080fd5b50565b600081519050610c4f81610c29565b92915050565b610c5e81610a1d565b8114610c6957600080fd5b50565b600081519050610c7b81610c55565b92915050565b600060c08284031215610c9757610c96610b5e565b5b610ca160c0610bc3565b90506000610cb184828501610bf5565b6000830152506020610cc584828501610c0a565b6020830152506040610cd984828501610bf5565b6040830152506060610ced84828501610bf5565b6060830152506080610d0184828501610c40565b60808301525060a0610d1584828501610c6c565b60a08301525092915050565b600060c08284031215610d3757610d366109b5565b5b6000610d4584828501610c81565b91505092915050565b600082825260208201905092915050565b7f6f72646572206578656375746564000000000000000000000000000000000000600082015250565b6000610d95600e83610d4e565b9150610da082610d5f565b602082019050919050565b60006020820190508181036000830152610dc481610d88565b9050919050565b60008060408385031215610de257610de16109b5565b5b6000610df085828601610c0a565b9250506020610e0185828601610bf5565b9150509250929050565b600081905092915050565b50565b6000610e26600083610e0b565b9150610e3182610e16565b600082019050919050565b6000610e4782610e19565b9150819050919050565b7f5f7472616e736665723a20455448207472616e73666572206661696c65640000600082015250565b6000610e87601e83610d4e565b9150610e9282610e51565b602082019050919050565b60006020820190508181036000830152610eb681610e7a565b9050919050565b6000604082019050610ed26000830185610907565b610edf6020830184610b34565b9392505050565b600060208284031215610efc57610efb6109b5565b5b6000610f0a84828501610c6c565b91505092915050565b7f5361666545524332303a204552433230206f7065726174696f6e20646964206e60008201527f6f74207375636365656400000000000000000000000000000000000000000000602082015250565b6000610f6f602a83610d4e565b9150610f7a82610f13565b604082019050919050565b60006020820190508181036000830152610f9e81610f62565b9050919050565b7f416464726573733a20696e73756666696369656e742062616c616e636520666f60008201527f722063616c6c0000000000000000000000000000000000000000000000000000602082015250565b6000611001602683610d4e565b915061100c82610fa5565b604082019050919050565b6000602082019050818103600083015261103081610ff4565b9050919050565b600061104282610a38565b61104c8185610e0b565b935061105c818560208601610a54565b80840191505092915050565b60006110748284611037565b915081905092915050565b7f416464726573733a2063616c6c20746f206e6f6e2d636f6e7472616374000000600082015250565b60006110b5601d83610d4e565b91506110c08261107f565b602082019050919050565b600060208201905081810360008301526110e4816110a8565b9050919050565b600081519050919050565b6000611101826110eb565b61110b8185610d4e565b935061111b818560208601610a54565b61112481610a7e565b840191505092915050565b6000602082019050818103600083015261114981846110f6565b90509291505056fea2646970667358221220978fac3a7f5508108cdf7c1ad60f7dc182ce04e63ddd109395b73189205a19ec64736f6c63430008130033",
  "immutableReferences": {
    "732": [
      {
        "length": 32,
        "start": 1270
      },
      {
        "length": 32,
        "start": 2855
      },
      {
        "length": 32,
        "start": 3899
      }
    ],
    "734": [
      {
        "length": 32,
        "start": 712
      }
    ],
    "856": [
      {
        "length": 32,
        "start": 983
      },
      {
        "length": 32,
        "start": 1433
      },
      {
        "length": 32,
        "start": 1635
      }
    ],
    "859": [
      {
        "length": 32,
        "start": 1575
      },
      {
        "length": 32,
        "start": 3863
      }
    ]
  },
  "source": "// SPDX-License-Identifier: UNLICENSED\npragma solidity ^0.8.19;\n\nimport \"./Types.sol\";\nimport \"./OrderExecutor.sol\";\nimport \"./OpsTaskCreator.sol\";\n\nstruct OrderDatas {\n    address user;\n    uint256 price;\n    address fromToken;\n    address toToken;\n    bytes32 orderId;\n    bool isExecuted;\n}\n\ncontract OrderBook is OpsTaskCreator {\n    mapping (uint => OrderDatas) public orders; // returns order data\n    uint orderNonce;\n    address public admin;\n    OrderExecutor public orderExecutor;\n\n    event construct(string, address);\n\n    constructor() OpsTaskCreator(0xc1C6805B857Bef1f412519C4A842522431aFed39, address(this)) {\n        emit construct(\"address(ops)\", address(ops));\n        orderExecutor = new OrderExecutor(address(ops), 0x08f6dDE16166F06e1d486749452dc3A44f175456);\n        admin = msg.sender;\n    }\n\n    function createOrder(uint price, address fromToken, address toToken) external returns (uint) {\n        \n        bytes memory execData = abi.encodeCall(orderExecutor.executeOrder, (orderNonce));\n\n        ModuleData memory moduleData = ModuleData({\n            modules: new Module[](2),\n            args: new bytes[](2)\n        });\n\n        moduleData.modules[0] = Module.RESOLVER;\n        moduleData.modules[1] = Module.SINGLE_EXEC;\n\n        moduleData.args[0] = _resolverModuleArg(address(orderExecutor), abi.encodeCall(orderExecutor.checker, (orderNonce)));\n        moduleData.args[1] = _singleExecModuleArg();\n\n        // Faulty\n        bytes32 orderId = ops.createTask(\n            address(orderExecutor), // contract to execute\n            execData, // function to execute\n            moduleData,\n            0xEeeeeEeeeEeEeeEeEeEeeEEEeeeeEeeeeeeeEEeE\n        );\n\n        orders[orderNonce] = OrderDatas(msg.sender, price, fromToken, toToken, orderId, false);\n        orderNonce++;\n\n        return orderNonce;\n    }\n\n    function cancelOrder(uint _orderNonce) external {\n        require(\n            msg.sender == admin || orders[_orderNonce].user == msg.sender,\n            \"Not allowed to cancel this order\"\n        );\n        ops.cancelTask(orders[_orderNonce].orderId);\n    }\n\n    // function to return executor address in order to check the txs\n    function getExecutorAddress() public view returns (address) {\n        return address(orderExecutor);\n    }\n\n    function setPrice(uint price) public {\n        orderExecutor.setPrice(price);\n    }\n\n    \n    function setExecuted(uint orderNonce) public {\n        require(msg.sender == address(orderExecutor), \"Only the executor can set the order as executed\");\n        orders[orderNonce].isExecuted = true;\n    }\n\n    function getOrder(uint orderNonce) public view returns (OrderDatas memory) {\n        return orders[orderNonce];\n    }\n\n}\n\n\n",
  "sourcePath": "/Users/blabla/Documents/gelato_test/contracts/OrderBook.sol",
  "compiler": {
    "name": "solc",
    "version": "0.8.19+commit.7dd6d404.Emscripten.clang"
  },
  "schemaVersion": "3.4.11",
  "updatedAt": "2023-02-28T18:27:27.574Z",
  "networkType": "ethereum",
  "devdoc": {
    "kind": "dev",
    "methods": {
      "withdrawFunds(uint256,address)": {
        "details": "Withdraw funds from this contract's Gelato balance to fundsOwner."
      }
    },
    "version": 1
  },
  "userdoc": {
    "kind": "user",
    "methods": {},
    "version": 1
  }
}