{
  "contractName": "OrderExecutor",
  "abi": [
    {
      "inputs": [
        {
          "internalType": "address",
          "name": "_ops",
          "type": "address"
        },
        {
          "internalType": "address",
          "name": "_taskCreator",
          "type": "address"
        }
      ],
      "stateMutability": "nonpayable",
      "type": "constructor"
    },
    {
      "anonymous": false,
      "inputs": [
        {
          "indexed": false,
          "internalType": "string",
          "name": "",
          "type": "string"
        },
        {
          "indexed": false,
          "internalType": "uint256",
          "name": "",
          "type": "uint256"
        }
      ],
      "name": "OrderDone",
      "type": "event"
    },
    {
      "inputs": [],
      "name": "dedicatedMsgSender",
      "outputs": [
        {
          "internalType": "address",
          "name": "",
          "type": "address"
        }
      ],
      "stateMutability": "view",
      "type": "function",
      "constant": true
    },
    {
      "inputs": [],
      "name": "ops",
      "outputs": [
        {
          "internalType": "contract IOps",
          "name": "",
          "type": "address"
        }
      ],
      "stateMutability": "view",
      "type": "function",
      "constant": true
    },
    {
      "inputs": [],
      "name": "orderBook",
      "outputs": [
        {
          "internalType": "contract OrderBook",
          "name": "",
          "type": "address"
        }
      ],
      "stateMutability": "view",
      "type": "function",
      "constant": true
    },
    {
      "stateMutability": "payable",
      "type": "receive",
      "payable": true
    },
    {
      "inputs": [
        {
          "internalType": "uint256",
          "name": "_price",
          "type": "uint256"
        }
      ],
      "name": "setPrice",
      "outputs": [],
      "stateMutability": "nonpayable",
      "type": "function"
    },
    {
      "inputs": [
        {
          "internalType": "uint256",
          "name": "orderNonce",
          "type": "uint256"
        }
      ],
      "name": "executeOrder",
      "outputs": [],
      "stateMutability": "nonpayable",
      "type": "function"
    },
    {
      "inputs": [
        {
          "internalType": "uint256",
          "name": "orderNonce",
          "type": "uint256"
        }
      ],
      "name": "checker",
      "outputs": [
        {
          "internalType": "bool",
          "name": "canExec",
          "type": "bool"
        },
        {
          "internalType": "bytes",
          "name": "execPayload",
          "type": "bytes"
        }
      ],
      "stateMutability": "view",
      "type": "function",
      "constant": true
    },
    {
      "inputs": [],
      "name": "withdraw",
      "outputs": [],
      "stateMutability": "nonpayable",
      "type": "function"
    }
  ],
  "bytecode": "0x60e06040523480156200001157600080fd5b5060405162001834380380620018348339818101604052810190620000379190620002d7565b81818173ffffffffffffffffffffffffffffffffffffffff1660808173ffffffffffffffffffffffffffffffffffffffff16815250508173ffffffffffffffffffffffffffffffffffffffff1663573ea5756040518163ffffffff1660e01b8152600401602060405180830381865afa158015620000b9573d6000803e3d6000fd5b505050506040513d601f19601f82011682018060405250810190620000df919062000363565b73ffffffffffffffffffffffffffffffffffffffff1660c08173ffffffffffffffffffffffffffffffffffffffff168152505073c815db16d4be6ddf2685c201937905abf338f5d773ffffffffffffffffffffffffffffffffffffffff1663ded89a7c826040518263ffffffff1660e01b8152600401620001619190620003a6565b6040805180830381865afa1580156200017e573d6000803e3d6000fd5b505050506040513d601f19601f82011682018060405250810190620001a4919062000400565b508073ffffffffffffffffffffffffffffffffffffffff1660a09073ffffffffffffffffffffffffffffffffffffffff16815250505050606460008190555033600160006101000a81548173ffffffffffffffffffffffffffffffffffffffff021916908373ffffffffffffffffffffffffffffffffffffffff16021790555080600260006101000a81548173ffffffffffffffffffffffffffffffffffffffff021916908373ffffffffffffffffffffffffffffffffffffffff160217905550505062000447565b600080fd5b600073ffffffffffffffffffffffffffffffffffffffff82169050919050565b60006200029f8262000272565b9050919050565b620002b18162000292565b8114620002bd57600080fd5b50565b600081519050620002d181620002a6565b92915050565b60008060408385031215620002f157620002f06200026d565b5b60006200030185828601620002c0565b92505060206200031485828601620002c0565b9150509250929050565b60006200032b8262000272565b9050919050565b6200033d816200031e565b81146200034957600080fd5b50565b6000815190506200035d8162000332565b92915050565b6000602082840312156200037c576200037b6200026d565b5b60006200038c848285016200034c565b91505092915050565b620003a08162000292565b82525050565b6000602082019050620003bd600083018462000395565b92915050565b60008115159050919050565b620003da81620003c3565b8114620003e657600080fd5b50565b600081519050620003fa81620003cf565b92915050565b600080604083850312156200041a57620004196200026d565b5b60006200042a85828601620002c0565b92505060206200043d85828601620003e9565b9150509250929050565b60805160a05160c0516113af6200048560003960008181610657015261072b015260006101aa01526000818161054d015261057401526113af6000f3fe6080604052600436106100745760003560e01c806391b7f5ed1161004e57806391b7f5ed146100ed57806394e05b2c1461011657806394f6113414610154578063e70abe921461017d5761007b565b806328f150eb146100805780633ccfd60b146100ab578063776af5ba146100c25761007b565b3661007b57005b600080fd5b34801561008c57600080fd5b506100956101a8565b6040516100a29190610ab0565b60405180910390f35b3480156100b757600080fd5b506100c06101cc565b005b3480156100ce57600080fd5b506100d76102a5565b6040516100e49190610b2a565b60405180910390f35b3480156100f957600080fd5b50610114600480360381019061010f9190610b8a565b6102cb565b005b34801561012257600080fd5b5061013d60048036038101906101389190610b8a565b6102d5565b60405161014b929190610c62565b60405180910390f35b34801561016057600080fd5b5061017b60048036038101906101769190610b8a565b6103dc565b005b34801561018957600080fd5b5061019261054b565b60405161019f9190610cb3565b60405180910390f35b7f000000000000000000000000000000000000000000000000000000000000000081565b600160009054906101000a900473ffffffffffffffffffffffffffffffffffffffff1673ffffffffffffffffffffffffffffffffffffffff163373ffffffffffffffffffffffffffffffffffffffff161461025c576040517f08c379a000000000000000000000000000000000000000000000000000000000815260040161025390610d2b565b60405180910390fd5b3373ffffffffffffffffffffffffffffffffffffffff166108fc479081150290604051600060405180830381858888f193505050501580156102a2573d6000803e3d6000fd5b50565b600260009054906101000a900473ffffffffffffffffffffffffffffffffffffffff1681565b8060008190555050565b60006060600054600260009054906101000a900473ffffffffffffffffffffffffffffffffffffffff1673ffffffffffffffffffffffffffffffffffffffff1663d09ef241856040518263ffffffff1660e01b81526004016103379190610d5a565b60e060405180830381865afa158015610354573d6000803e3d6000fd5b505050506040513d601f19601f820116820180604052508101906103789190610f4c565b60200151149150826040516024016103909190610d5a565b6040516020818303038152906040526394f6113460e01b6020820180517bffffffffffffffffffffffffffffffffffffffffffffffffffffffff83818316178352505050509050915091565b600260009054906101000a900473ffffffffffffffffffffffffffffffffffffffff1673ffffffffffffffffffffffffffffffffffffffff16630f80042b826040518263ffffffff1660e01b81526004016104379190610d5a565b600060405180830381600087803b15801561045157600080fd5b505af1158015610465573d6000803e3d6000fd5b50505050600260009054906101000a900473ffffffffffffffffffffffffffffffffffffffff1673ffffffffffffffffffffffffffffffffffffffff16632993c690826040518263ffffffff1660e01b81526004016104c49190610d5a565b600060405180830381600087803b1580156104de57600080fd5b505af11580156104f2573d6000803e3d6000fd5b505050507f9e86ce0485ddb047dd0f8fde14218156b79c2832f3c1ae9d2a05aa746cb6e3be816040516105259190610fc5565b60405180910390a160008061053861056f565b91509150610546828261060c565b505050565b7f000000000000000000000000000000000000000000000000000000000000000081565b6000807f000000000000000000000000000000000000000000000000000000000000000073ffffffffffffffffffffffffffffffffffffffff1663b810c6366040518163ffffffff1660e01b81526004016040805180830381865afa1580156105dc573d6000803e3d6000fd5b505050506040513d601f19601f820116820180604052508101906106009190610ff3565b80925081935050509091565b73eeeeeeeeeeeeeeeeeeeeeeeeeeeeeeeeeeeeeeee73ffffffffffffffffffffffffffffffffffffffff168173ffffffffffffffffffffffffffffffffffffffff16036107255760007f000000000000000000000000000000000000000000000000000000000000000073ffffffffffffffffffffffffffffffffffffffff168360405161069990611064565b60006040518083038185875af1925050503d80600081146106d6576040519150601f19603f3d011682016040523d82523d6000602084013e6106db565b606091505b505090508061071f576040517f08c379a0000000000000000000000000000000000000000000000000000000008152600401610716906110c5565b60405180910390fd5b50610751565b610750817f000000000000000000000000000000000000000000000000000000000000000084610755565b5b5050565b6107d68363a9059cbb60e01b84846040516024016107749291906110e5565b604051602081830303815290604052907bffffffffffffffffffffffffffffffffffffffffffffffffffffffff19166020820180517bffffffffffffffffffffffffffffffffffffffffffffffffffffffff83818316178352505050506107db565b505050565b600061083d826040518060400160405280602081526020017f5361666545524332303a206c6f772d6c6576656c2063616c6c206661696c65648152508573ffffffffffffffffffffffffffffffffffffffff166108a29092919063ffffffff16565b905060008151111561089d578080602001905181019061085d919061110e565b61089c576040517f08c379a0000000000000000000000000000000000000000000000000000000008152600401610893906111ad565b60405180910390fd5b5b505050565b60606108b184846000856108ba565b90509392505050565b6060824710156108ff576040517f08c379a00000000000000000000000000000000000000000000000000000000081526004016108f69061123f565b60405180910390fd5b6000808673ffffffffffffffffffffffffffffffffffffffff1685876040516109289190611290565b60006040518083038185875af1925050503d8060008114610965576040519150601f19603f3d011682016040523d82523d6000602084013e61096a565b606091505b509150915061097b87838387610987565b92505050949350505050565b606083156109e95760008351036109e1576109a1856109fc565b6109e0576040517f08c379a00000000000000000000000000000000000000000000000000000000081526004016109d7906112f3565b60405180910390fd5b5b8290506109f4565b6109f38383610a1f565b5b949350505050565b6000808273ffffffffffffffffffffffffffffffffffffffff163b119050919050565b600082511115610a325781518083602001fd5b806040517f08c379a0000000000000000000000000000000000000000000000000000000008152600401610a669190611357565b60405180910390fd5b600073ffffffffffffffffffffffffffffffffffffffff82169050919050565b6000610a9a82610a6f565b9050919050565b610aaa81610a8f565b82525050565b6000602082019050610ac56000830184610aa1565b92915050565b6000819050919050565b6000610af0610aeb610ae684610a6f565b610acb565b610a6f565b9050919050565b6000610b0282610ad5565b9050919050565b6000610b1482610af7565b9050919050565b610b2481610b09565b82525050565b6000602082019050610b3f6000830184610b1b565b92915050565b6000604051905090565b600080fd5b6000819050919050565b610b6781610b54565b8114610b7257600080fd5b50565b600081359050610b8481610b5e565b92915050565b600060208284031215610ba057610b9f610b4f565b5b6000610bae84828501610b75565b91505092915050565b60008115159050919050565b610bcc81610bb7565b82525050565b600081519050919050565b600082825260208201905092915050565b60005b83811015610c0c578082015181840152602081019050610bf1565b60008484015250505050565b6000601f19601f8301169050919050565b6000610c3482610bd2565b610c3e8185610bdd565b9350610c4e818560208601610bee565b610c5781610c18565b840191505092915050565b6000604082019050610c776000830185610bc3565b8181036020830152610c898184610c29565b90509392505050565b6000610c9d82610af7565b9050919050565b610cad81610c92565b82525050565b6000602082019050610cc86000830184610ca4565b92915050565b600082825260208201905092915050565b7f6e6f7420616c6c6f776564206164647265737300000000000000000000000000600082015250565b6000610d15601383610cce565b9150610d2082610cdf565b602082019050919050565b60006020820190508181036000830152610d4481610d08565b9050919050565b610d5481610b54565b82525050565b6000602082019050610d6f6000830184610d4b565b92915050565b600080fd5b7f4e487b7100000000000000000000000000000000000000000000000000000000600052604160045260246000fd5b610db282610c18565b810181811067ffffffffffffffff82111715610dd157610dd0610d7a565b5b80604052505050565b6000610de4610b45565b9050610df08282610da9565b919050565b610dfe81610a8f565b8114610e0957600080fd5b50565b600081519050610e1b81610df5565b92915050565b600081519050610e3081610b5e565b92915050565b6000819050919050565b610e4981610e36565b8114610e5457600080fd5b50565b600081519050610e6681610e40565b92915050565b610e7581610bb7565b8114610e8057600080fd5b50565b600081519050610e9281610e6c565b92915050565b600060e08284031215610eae57610ead610d75565b5b610eb860e0610dda565b90506000610ec884828501610e0c565b6000830152506020610edc84828501610e21565b6020830152506040610ef084828501610e21565b6040830152506060610f0484828501610e0c565b6060830152506080610f1884828501610e0c565b60808301525060a0610f2c84828501610e57565b60a08301525060c0610f4084828501610e83565b60c08301525092915050565b600060e08284031215610f6257610f61610b4f565b5b6000610f7084828501610e98565b91505092915050565b7f6f726465725f6578656375746564000000000000000000000000000000000000600082015250565b6000610faf600e83610cce565b9150610fba82610f79565b602082019050919050565b60006040820190508181036000830152610fde81610fa2565b9050610fed6020830184610d4b565b92915050565b6000806040838503121561100a57611009610b4f565b5b600061101885828601610e21565b925050602061102985828601610e0c565b9150509250929050565b600081905092915050565b50565b600061104e600083611033565b91506110598261103e565b600082019050919050565b600061106f82611041565b9150819050919050565b7f5f7472616e736665723a20455448207472616e73666572206661696c65640000600082015250565b60006110af601e83610cce565b91506110ba82611079565b602082019050919050565b600060208201905081810360008301526110de816110a2565b9050919050565b60006040820190506110fa6000830185610aa1565b6111076020830184610d4b565b9392505050565b60006020828403121561112457611123610b4f565b5b600061113284828501610e83565b91505092915050565b7f5361666545524332303a204552433230206f7065726174696f6e20646964206e60008201527f6f74207375636365656400000000000000000000000000000000000000000000602082015250565b6000611197602a83610cce565b91506111a28261113b565b604082019050919050565b600060208201905081810360008301526111c68161118a565b9050919050565b7f416464726573733a20696e73756666696369656e742062616c616e636520666f60008201527f722063616c6c0000000000000000000000000000000000000000000000000000602082015250565b6000611229602683610cce565b9150611234826111cd565b604082019050919050565b600060208201905081810360008301526112588161121c565b9050919050565b600061126a82610bd2565b6112748185611033565b9350611284818560208601610bee565b80840191505092915050565b600061129c828461125f565b915081905092915050565b7f416464726573733a2063616c6c20746f206e6f6e2d636f6e7472616374000000600082015250565b60006112dd601d83610cce565b91506112e8826112a7565b602082019050919050565b6000602082019050818103600083015261130c816112d0565b9050919050565b600081519050919050565b600061132982611313565b6113338185610cce565b9350611343818560208601610bee565b61134c81610c18565b840191505092915050565b60006020820190508181036000830152611371818461131e565b90509291505056fea2646970667358221220b7e6efbdd736d0b5eff405447729dde47ca0a8d63ae265149fbfd230aec3497564736f6c63430008130033",
  "immutableReferences": {
    "919": [
      {
        "length": 32,
        "start": 1357
      },
      {
        "length": 32,
        "start": 1396
      }
    ],
    "921": [
      {
        "length": 32,
        "start": 426
      }
    ],
    "923": [
      {
        "length": 32,
        "start": 1623
      },
      {
        "length": 32,
        "start": 1835
      }
    ]
  },
  "source": "// SPDX-License-Identifier: UNLICENSED\npragma solidity ^0.8.19;\n\nimport \"./OpsReady.sol\";\nimport \"./OrderBook.sol\";\n\ncontract OrderExecutor is OpsReady {\n    uint price;\n    address deployer;\n    OrderBook public orderBook;\n    event OrderDone(string, uint256);\n\n    constructor(address _ops, address _taskCreator) OpsReady(_ops, _taskCreator) {\n        price = 100; // arbitrary price\n        deployer = msg.sender;\n        orderBook = OrderBook(_taskCreator);\n    }\n\n    function setPrice(uint _price) public {\n        price = _price;\n    }\n\n    receive() external payable {}\n\n    function executeOrder(uint orderNonce) external /*onlyDedicatedMsgSender*/ {\n        // execute order with orderNonce here\n        orderBook.closeYieldStrategy(orderNonce);\n        orderBook.setExecuted(orderNonce);\n        emit OrderDone(\"order_executed\", orderNonce);\n        // \n        (uint256 fee, address feeToken) = _getFeeDetails();\n        _transfer(fee, feeToken);\n    }\n\n    function checker(uint orderNonce) external view returns (bool canExec, bytes memory execPayload) {\n        // check that liquidity is still into the vault\n        // require(vault.getLiquidity() > 0, \"No liquidity\");\n        canExec = orderBook.getOrder(orderNonce).price == price; // The condition that needs to be true for the task to be executed, you can filter the condition with the orderId\n        execPayload = abi.encodeCall(OrderExecutor.executeOrder, orderNonce); // The function that you want to call on the contract\n    }\n\n    function withdraw() public {\n        require(msg.sender == deployer, \"not allowed address\");\n        payable(msg.sender).transfer(address(this).balance);\n    }\n\n}\n",
  "sourcePath": "/Users/blabla/Documents/gelato_test/contracts/OrderExecutor.sol",
  "compiler": {
    "name": "solc",
    "version": "0.8.19+commit.7dd6d404.Emscripten.clang"
  },
  "schemaVersion": "3.4.11",
  "updatedAt": "2023-03-04T17:46:29.320Z",
  "networkType": "ethereum",
  "devdoc": {
    "kind": "dev",
    "methods": {},
    "version": 1
  },
  "userdoc": {
    "kind": "user",
    "methods": {},
    "version": 1
  }
}