{
  "contractName": "OrderExecutor",
  "abi": [
    {
      "inputs": [
        {
          "internalType": "address",
          "name": "_ops",
          "type": "address"
        },
        {
          "internalType": "address",
          "name": "_taskCreator",
          "type": "address"
        },
        {
          "internalType": "address",
          "name": "_swapRouter",
          "type": "address"
        }
      ],
      "stateMutability": "nonpayable",
      "type": "constructor"
    },
    {
      "anonymous": false,
      "inputs": [
        {
          "indexed": false,
          "internalType": "string",
          "name": "",
          "type": "string"
        },
        {
          "indexed": false,
          "internalType": "uint256",
          "name": "",
          "type": "uint256"
        }
      ],
      "name": "OrderDone",
      "type": "event"
    },
    {
      "inputs": [],
      "name": "dedicatedMsgSender",
      "outputs": [
        {
          "internalType": "address",
          "name": "",
          "type": "address"
        }
      ],
      "stateMutability": "view",
      "type": "function",
      "constant": true
    },
    {
      "inputs": [],
      "name": "ops",
      "outputs": [
        {
          "internalType": "contract IOps",
          "name": "",
          "type": "address"
        }
      ],
      "stateMutability": "view",
      "type": "function",
      "constant": true
    },
    {
      "inputs": [],
      "name": "orderBook",
      "outputs": [
        {
          "internalType": "contract OrderBook",
          "name": "",
          "type": "address"
        }
      ],
      "stateMutability": "view",
      "type": "function",
      "constant": true
    },
    {
      "inputs": [],
      "name": "poolFee",
      "outputs": [
        {
          "internalType": "uint24",
          "name": "",
          "type": "uint24"
        }
      ],
      "stateMutability": "view",
      "type": "function",
      "constant": true
    },
    {
      "inputs": [],
      "name": "swapRouter",
      "outputs": [
        {
          "internalType": "contract ISwapRouter",
          "name": "",
          "type": "address"
        }
      ],
      "stateMutability": "view",
      "type": "function",
      "constant": true
    },
    {
      "stateMutability": "payable",
      "type": "receive",
      "payable": true
    },
    {
      "inputs": [
        {
          "internalType": "uint256",
          "name": "_price",
          "type": "uint256"
        }
      ],
      "name": "setPrice",
      "outputs": [],
      "stateMutability": "nonpayable",
      "type": "function"
    },
    {
      "inputs": [
        {
          "internalType": "uint256",
          "name": "orderNonce",
          "type": "uint256"
        }
      ],
      "name": "executeOrder",
      "outputs": [],
      "stateMutability": "nonpayable",
      "type": "function"
    },
    {
      "inputs": [
        {
          "internalType": "uint256",
          "name": "orderNonce",
          "type": "uint256"
        }
      ],
      "name": "checker",
      "outputs": [
        {
          "internalType": "bool",
          "name": "canExec",
          "type": "bool"
        },
        {
          "internalType": "bytes",
          "name": "execPayload",
          "type": "bytes"
        }
      ],
      "stateMutability": "view",
      "type": "function",
      "constant": true
    },
    {
      "inputs": [],
      "name": "withdraw",
      "outputs": [],
      "stateMutability": "nonpayable",
      "type": "function"
    }
  ],
  "bytecode": "0x6101006040523480156200001257600080fd5b5060405162001fb038038062001fb083398181016040528101906200003891906200030d565b82828173ffffffffffffffffffffffffffffffffffffffff1660808173ffffffffffffffffffffffffffffffffffffffff16815250508173ffffffffffffffffffffffffffffffffffffffff1663573ea5756040518163ffffffff1660e01b8152600401602060405180830381865afa158015620000ba573d6000803e3d6000fd5b505050506040513d601f19601f82011682018060405250810190620000e09190620003ae565b73ffffffffffffffffffffffffffffffffffffffff1660c08173ffffffffffffffffffffffffffffffffffffffff168152505073c815db16d4be6ddf2685c201937905abf338f5d773ffffffffffffffffffffffffffffffffffffffff1663ded89a7c826040518263ffffffff1660e01b8152600401620001629190620003f1565b6040805180830381865afa1580156200017f573d6000803e3d6000fd5b505050506040513d601f19601f82011682018060405250810190620001a591906200044b565b508073ffffffffffffffffffffffffffffffffffffffff1660a09073ffffffffffffffffffffffffffffffffffffffff16815250505050606460008190555033600160006101000a81548173ffffffffffffffffffffffffffffffffffffffff021916908373ffffffffffffffffffffffffffffffffffffffff16021790555081600260006101000a81548173ffffffffffffffffffffffffffffffffffffffff021916908373ffffffffffffffffffffffffffffffffffffffff1602179055508073ffffffffffffffffffffffffffffffffffffffff1660e08173ffffffffffffffffffffffffffffffffffffffff168152505050505062000492565b600080fd5b600073ffffffffffffffffffffffffffffffffffffffff82169050919050565b6000620002d582620002a8565b9050919050565b620002e781620002c8565b8114620002f357600080fd5b50565b6000815190506200030781620002dc565b92915050565b600080600060608486031215620003295762000328620002a3565b5b60006200033986828701620002f6565b93505060206200034c86828701620002f6565b92505060406200035f86828701620002f6565b9150509250925092565b60006200037682620002a8565b9050919050565b620003888162000369565b81146200039457600080fd5b50565b600081519050620003a8816200037d565b92915050565b600060208284031215620003c757620003c6620002a3565b5b6000620003d78482850162000397565b91505092915050565b620003eb81620002c8565b82525050565b6000602082019050620004086000830184620003e0565b92915050565b60008115159050919050565b62000425816200040e565b81146200043157600080fd5b50565b60008151905062000445816200041a565b92915050565b60008060408385031215620004655762000464620002a3565b5b60006200047585828601620002f6565b9250506020620004888582860162000434565b9150509250929050565b60805160a05160c05160e051611acf620004e16000396000818161076e0152610aad015260008181610bdb0152610caf0152600061021c015260008181610ad10152610af80152611acf6000f3fe60806040526004361061008a5760003560e01c806391b7f5ed1161005957806391b7f5ed1461012e57806394e05b2c1461015757806394f6113414610195578063c31c9c07146101be578063e70abe92146101e957610091565b8063089fe6aa1461009657806328f150eb146100c15780633ccfd60b146100ec578063776af5ba1461010357610091565b3661009157005b600080fd5b3480156100a257600080fd5b506100ab610214565b6040516100b89190611011565b60405180910390f35b3480156100cd57600080fd5b506100d661021a565b6040516100e3919061106d565b60405180910390f35b3480156100f857600080fd5b5061010161023e565b005b34801561010f57600080fd5b50610118610317565b60405161012591906110e7565b60405180910390f35b34801561013a57600080fd5b5061015560048036038101906101509190611147565b61033d565b005b34801561016357600080fd5b5061017e60048036038101906101799190611147565b610347565b60405161018c92919061121f565b60405180910390f35b3480156101a157600080fd5b506101bc60048036038101906101b79190611147565b61044e565b005b3480156101ca57600080fd5b506101d3610aab565b6040516101e09190611270565b60405180910390f35b3480156101f557600080fd5b506101fe610acf565b60405161020b91906112ac565b60405180910390f35b610bb881565b7f000000000000000000000000000000000000000000000000000000000000000081565b600160009054906101000a900473ffffffffffffffffffffffffffffffffffffffff1673ffffffffffffffffffffffffffffffffffffffff163373ffffffffffffffffffffffffffffffffffffffff16146102ce576040517f08c379a00000000000000000000000000000000000000000000000000000000081526004016102c590611324565b60405180910390fd5b3373ffffffffffffffffffffffffffffffffffffffff166108fc479081150290604051600060405180830381858888f19350505050158015610314573d6000803e3d6000fd5b50565b600260009054906101000a900473ffffffffffffffffffffffffffffffffffffffff1681565b8060008190555050565b60006060600054600260009054906101000a900473ffffffffffffffffffffffffffffffffffffffff1673ffffffffffffffffffffffffffffffffffffffff1663d09ef241856040518263ffffffff1660e01b81526004016103a99190611353565b60e060405180830381865afa1580156103c6573d6000803e3d6000fd5b505050506040513d601f19601f820116820180604052508101906103ea9190611545565b60200151149150826040516024016104029190611353565b6040516020818303038152906040526394f6113460e01b6020820180517bffffffffffffffffffffffffffffffffffffffffffffffffffffffff83818316178352505050509050915091565b6000600260009054906101000a900473ffffffffffffffffffffffffffffffffffffffff1673ffffffffffffffffffffffffffffffffffffffff16630f80042b836040518263ffffffff1660e01b81526004016104ab9190611353565b6020604051808303816000875af11580156104ca573d6000803e3d6000fd5b505050506040513d601f19601f820116820180604052508101906104ee9190611572565b90506000604051806101000160405280600260009054906101000a900473ffffffffffffffffffffffffffffffffffffffff1673ffffffffffffffffffffffffffffffffffffffff1663d09ef241866040518263ffffffff1660e01b81526004016105599190611353565b60e060405180830381865afa158015610576573d6000803e3d6000fd5b505050506040513d601f19601f8201168201806040525081019061059a9190611545565b6060015173ffffffffffffffffffffffffffffffffffffffff168152602001600260009054906101000a900473ffffffffffffffffffffffffffffffffffffffff1673ffffffffffffffffffffffffffffffffffffffff1663d09ef241866040518263ffffffff1660e01b81526004016106149190611353565b60e060405180830381865afa158015610631573d6000803e3d6000fd5b505050506040513d601f19601f820116820180604052508101906106559190611545565b6080015173ffffffffffffffffffffffffffffffffffffffff168152602001610bb862ffffff168152602001600260009054906101000a900473ffffffffffffffffffffffffffffffffffffffff1673ffffffffffffffffffffffffffffffffffffffff1663d09ef241866040518263ffffffff1660e01b81526004016106dc9190611353565b60e060405180830381865afa1580156106f9573d6000803e3d6000fd5b505050506040513d601f19601f8201168201806040525081019061071d9190611545565b6000015173ffffffffffffffffffffffffffffffffffffffff16815260200142815260200183815260200160008152602001600073ffffffffffffffffffffffffffffffffffffffff1681525090507f000000000000000000000000000000000000000000000000000000000000000073ffffffffffffffffffffffffffffffffffffffff1663414bf389826040518263ffffffff1660e01b81526004016107c5919061167d565b6020604051808303816000875af11580156107e4573d6000803e3d6000fd5b505050506040513d601f19601f820116820180604052508101906108089190611572565b9150600260009054906101000a900473ffffffffffffffffffffffffffffffffffffffff1673ffffffffffffffffffffffffffffffffffffffff1663d09ef241846040518263ffffffff1660e01b81526004016108659190611353565b60e060405180830381865afa158015610882573d6000803e3d6000fd5b505050506040513d601f19601f820116820180604052508101906108a69190611545565b6080015173ffffffffffffffffffffffffffffffffffffffff1663a9059cbb600260009054906101000a900473ffffffffffffffffffffffffffffffffffffffff1673ffffffffffffffffffffffffffffffffffffffff1663d09ef241866040518263ffffffff1660e01b81526004016109209190611353565b60e060405180830381865afa15801561093d573d6000803e3d6000fd5b505050506040513d601f19601f820116820180604052508101906109619190611545565b60000151846040518363ffffffff1660e01b8152600401610983929190611699565b6020604051808303816000875af11580156109a2573d6000803e3d6000fd5b505050506040513d601f19601f820116820180604052508101906109c691906116c2565b50600260009054906101000a900473ffffffffffffffffffffffffffffffffffffffff1673ffffffffffffffffffffffffffffffffffffffff16632993c690846040518263ffffffff1660e01b8152600401610a229190611353565b600060405180830381600087803b158015610a3c57600080fd5b505af1158015610a50573d6000803e3d6000fd5b505050507f9e86ce0485ddb047dd0f8fde14218156b79c2832f3c1ae9d2a05aa746cb6e3be83604051610a83919061173b565b60405180910390a1600080610a96610af3565b91509150610aa48282610b90565b5050505050565b7f000000000000000000000000000000000000000000000000000000000000000081565b7f000000000000000000000000000000000000000000000000000000000000000081565b6000807f000000000000000000000000000000000000000000000000000000000000000073ffffffffffffffffffffffffffffffffffffffff1663b810c6366040518163ffffffff1660e01b81526004016040805180830381865afa158015610b60573d6000803e3d6000fd5b505050506040513d601f19601f82011682018060405250810190610b849190611769565b80925081935050509091565b73eeeeeeeeeeeeeeeeeeeeeeeeeeeeeeeeeeeeeeee73ffffffffffffffffffffffffffffffffffffffff168173ffffffffffffffffffffffffffffffffffffffff1603610ca95760007f000000000000000000000000000000000000000000000000000000000000000073ffffffffffffffffffffffffffffffffffffffff1683604051610c1d906117da565b60006040518083038185875af1925050503d8060008114610c5a576040519150601f19603f3d011682016040523d82523d6000602084013e610c5f565b606091505b5050905080610ca3576040517f08c379a0000000000000000000000000000000000000000000000000000000008152600401610c9a9061183b565b60405180910390fd5b50610cd5565b610cd4817f000000000000000000000000000000000000000000000000000000000000000084610cd9565b5b5050565b610d5a8363a9059cbb60e01b8484604051602401610cf8929190611699565b604051602081830303815290604052907bffffffffffffffffffffffffffffffffffffffffffffffffffffffff19166020820180517bffffffffffffffffffffffffffffffffffffffffffffffffffffffff8381831617835250505050610d5f565b505050565b6000610dc1826040518060400160405280602081526020017f5361666545524332303a206c6f772d6c6576656c2063616c6c206661696c65648152508573ffffffffffffffffffffffffffffffffffffffff16610e269092919063ffffffff16565b9050600081511115610e215780806020019051810190610de191906116c2565b610e20576040517f08c379a0000000000000000000000000000000000000000000000000000000008152600401610e17906118cd565b60405180910390fd5b5b505050565b6060610e358484600085610e3e565b90509392505050565b606082471015610e83576040517f08c379a0000000000000000000000000000000000000000000000000000000008152600401610e7a9061195f565b60405180910390fd5b6000808673ffffffffffffffffffffffffffffffffffffffff168587604051610eac91906119b0565b60006040518083038185875af1925050503d8060008114610ee9576040519150601f19603f3d011682016040523d82523d6000602084013e610eee565b606091505b5091509150610eff87838387610f0b565b92505050949350505050565b60608315610f6d576000835103610f6557610f2585610f80565b610f64576040517f08c379a0000000000000000000000000000000000000000000000000000000008152600401610f5b90611a13565b60405180910390fd5b5b829050610f78565b610f778383610fa3565b5b949350505050565b6000808273ffffffffffffffffffffffffffffffffffffffff163b119050919050565b600082511115610fb65781518083602001fd5b806040517f08c379a0000000000000000000000000000000000000000000000000000000008152600401610fea9190611a77565b60405180910390fd5b600062ffffff82169050919050565b61100b81610ff3565b82525050565b60006020820190506110266000830184611002565b92915050565b600073ffffffffffffffffffffffffffffffffffffffff82169050919050565b60006110578261102c565b9050919050565b6110678161104c565b82525050565b6000602082019050611082600083018461105e565b92915050565b6000819050919050565b60006110ad6110a86110a38461102c565b611088565b61102c565b9050919050565b60006110bf82611092565b9050919050565b60006110d1826110b4565b9050919050565b6110e1816110c6565b82525050565b60006020820190506110fc60008301846110d8565b92915050565b6000604051905090565b600080fd5b6000819050919050565b61112481611111565b811461112f57600080fd5b50565b6000813590506111418161111b565b92915050565b60006020828403121561115d5761115c61110c565b5b600061116b84828501611132565b91505092915050565b60008115159050919050565b61118981611174565b82525050565b600081519050919050565b600082825260208201905092915050565b60005b838110156111c95780820151818401526020810190506111ae565b60008484015250505050565b6000601f19601f8301169050919050565b60006111f18261118f565b6111fb818561119a565b935061120b8185602086016111ab565b611214816111d5565b840191505092915050565b60006040820190506112346000830185611180565b818103602083015261124681846111e6565b90509392505050565b600061125a826110b4565b9050919050565b61126a8161124f565b82525050565b60006020820190506112856000830184611261565b92915050565b6000611296826110b4565b9050919050565b6112a68161128b565b82525050565b60006020820190506112c1600083018461129d565b92915050565b600082825260208201905092915050565b7f6e6f7420616c6c6f776564206164647265737300000000000000000000000000600082015250565b600061130e6013836112c7565b9150611319826112d8565b602082019050919050565b6000602082019050818103600083015261133d81611301565b9050919050565b61134d81611111565b82525050565b60006020820190506113686000830184611344565b92915050565b600080fd5b7f4e487b7100000000000000000000000000000000000000000000000000000000600052604160045260246000fd5b6113ab826111d5565b810181811067ffffffffffffffff821117156113ca576113c9611373565b5b80604052505050565b60006113dd611102565b90506113e982826113a2565b919050565b6113f78161104c565b811461140257600080fd5b50565b600081519050611414816113ee565b92915050565b6000815190506114298161111b565b92915050565b6000819050919050565b6114428161142f565b811461144d57600080fd5b50565b60008151905061145f81611439565b92915050565b61146e81611174565b811461147957600080fd5b50565b60008151905061148b81611465565b92915050565b600060e082840312156114a7576114a661136e565b5b6114b160e06113d3565b905060006114c184828501611405565b60008301525060206114d58482850161141a565b60208301525060406114e98482850161141a565b60408301525060606114fd84828501611405565b606083015250608061151184828501611405565b60808301525060a061152584828501611450565b60a08301525060c06115398482850161147c565b60c08301525092915050565b600060e0828403121561155b5761155a61110c565b5b600061156984828501611491565b91505092915050565b6000602082840312156115885761158761110c565b5b60006115968482850161141a565b91505092915050565b6115a88161104c565b82525050565b6115b781610ff3565b82525050565b6115c681611111565b82525050565b6115d58161102c565b82525050565b610100820160008201516115f2600085018261159f565b506020820151611605602085018261159f565b50604082015161161860408501826115ae565b50606082015161162b606085018261159f565b50608082015161163e60808501826115bd565b5060a082015161165160a08501826115bd565b5060c082015161166460c08501826115bd565b5060e082015161167760e08501826115cc565b50505050565b60006101008201905061169360008301846115db565b92915050565b60006040820190506116ae600083018561105e565b6116bb6020830184611344565b9392505050565b6000602082840312156116d8576116d761110c565b5b60006116e68482850161147c565b91505092915050565b7f6f726465725f6578656375746564000000000000000000000000000000000000600082015250565b6000611725600e836112c7565b9150611730826116ef565b602082019050919050565b6000604082019050818103600083015261175481611718565b90506117636020830184611344565b92915050565b600080604083850312156117805761177f61110c565b5b600061178e8582860161141a565b925050602061179f85828601611405565b9150509250929050565b600081905092915050565b50565b60006117c46000836117a9565b91506117cf826117b4565b600082019050919050565b60006117e5826117b7565b9150819050919050565b7f5f7472616e736665723a20455448207472616e73666572206661696c65640000600082015250565b6000611825601e836112c7565b9150611830826117ef565b602082019050919050565b6000602082019050818103600083015261185481611818565b9050919050565b7f5361666545524332303a204552433230206f7065726174696f6e20646964206e60008201527f6f74207375636365656400000000000000000000000000000000000000000000602082015250565b60006118b7602a836112c7565b91506118c28261185b565b604082019050919050565b600060208201905081810360008301526118e6816118aa565b9050919050565b7f416464726573733a20696e73756666696369656e742062616c616e636520666f60008201527f722063616c6c0000000000000000000000000000000000000000000000000000602082015250565b60006119496026836112c7565b9150611954826118ed565b604082019050919050565b600060208201905081810360008301526119788161193c565b9050919050565b600061198a8261118f565b61199481856117a9565b93506119a48185602086016111ab565b80840191505092915050565b60006119bc828461197f565b915081905092915050565b7f416464726573733a2063616c6c20746f206e6f6e2d636f6e7472616374000000600082015250565b60006119fd601d836112c7565b9150611a08826119c7565b602082019050919050565b60006020820190508181036000830152611a2c816119f0565b9050919050565b600081519050919050565b6000611a4982611a33565b611a5381856112c7565b9350611a638185602086016111ab565b611a6c816111d5565b840191505092915050565b60006020820190508181036000830152611a918184611a3e565b90509291505056fea2646970667358221220d5f09505abcdd66b77c052c7e6324a04d8a9b6e2a61c22bd86404021712b312364736f6c63430008130033",
  "immutableReferences": {
    "917": [
      {
        "length": 32,
        "start": 2769
      },
      {
        "length": 32,
        "start": 2808
      }
    ],
    "919": [
      {
        "length": 32,
        "start": 540
      }
    ],
    "921": [
      {
        "length": 32,
        "start": 3035
      },
      {
        "length": 32,
        "start": 3247
      }
    ],
    "1625": [
      {
        "length": 32,
        "start": 1902
      },
      {
        "length": 32,
        "start": 2733
      }
    ]
  },
  "source": "// SPDX-License-Identifier: UNLICENSED\npragma solidity ^0.8.19;\n\nimport \"./OpsReady.sol\";\nimport \"./OrderBook.sol\";\nimport \"./uniswap/ISwapRouter.sol\";\n\ncontract OrderExecutor is OpsReady {\n\n    uint price;\n    address deployer;\n\n    OrderBook public orderBook;\n    ISwapRouter public immutable swapRouter;\n\n    event OrderDone(string, uint256);\n\n    constructor(address _ops, address _taskCreator, address _swapRouter) OpsReady(_ops, _taskCreator) {\n        price = 100; // arbitrary price\n        deployer = msg.sender;\n        orderBook = OrderBook(_taskCreator);\n        swapRouter = ISwapRouter(_swapRouter);\n    }\n\n    // For this example, we will set the pool fee to 0.3%.\n    uint24 public constant poolFee = 3000;\n\n    function setPrice(uint _price) public {\n        price = _price;\n    }\n\n    receive() external payable {}\n\n    function executeOrder(uint orderNonce) external /*onlyDedicatedMsgSender*/ {\n        // execute order with orderNonce here\n        uint256 amountOut = orderBook.closeYieldStrategy(orderNonce);\n        \n        // Naively set amountOutMinimum to 0. In production, use an oracle or other data source to choose a safer value for amountOutMinimum.\n        // We also set the sqrtPriceLimitx96 to be 0 to ensure we swap our exact input amount.\n        ISwapRouter.ExactInputSingleParams memory params =\n            ISwapRouter.ExactInputSingleParams({\n                tokenIn: orderBook.getOrder(orderNonce).tokenIn,\n                tokenOut: orderBook.getOrder(orderNonce).tokenOut,\n                fee: poolFee,\n                recipient: orderBook.getOrder(orderNonce).user,\n                deadline: block.timestamp,\n                amountIn: amountOut,\n                amountOutMinimum: 0, // NOT IN PRODUCTION\n                sqrtPriceLimitX96: 0 // NOT IN PRODUCTION\n            });\n\n        // The call to `exactInputSingle` executes the swap.\n        amountOut = swapRouter.exactInputSingle(params);\n        IERC20(orderBook.getOrder(orderNonce).tokenOut).transfer(orderBook.getOrder(orderNonce).user, amountOut);\n\n        orderBook.setExecuted(orderNonce);\n        emit OrderDone(\"order_executed\", orderNonce);\n        // \n        (uint256 fee, address feeToken) = _getFeeDetails();\n        // on a les fees jusqu' l\n        _transfer(fee, feeToken);\n    }\n\n    function checker(uint orderNonce) external view returns (bool canExec, bytes memory execPayload) {\n        // check that liquidity is still into the vault\n        // require(vault.getLiquidity() > 0, \"No liquidity\");\n        canExec = orderBook.getOrder(orderNonce).price == price; // The condition that needs to be true for the task to be executed, you can filter the condition with the orderId\n        execPayload = abi.encodeCall(OrderExecutor.executeOrder, orderNonce); // The function that you want to call on the contract\n    }\n\n    // Only used for testing\n    function withdraw() public {\n        require(msg.sender == deployer, \"not allowed address\");\n        payable(msg.sender).transfer(address(this).balance);\n    }\n\n}\n",
  "sourcePath": "/Users/blabla/Documents/gelato_test/contracts/OrderExecutor.sol",
  "compiler": {
    "name": "solc",
    "version": "0.8.19+commit.7dd6d404.Emscripten.clang"
  },
  "schemaVersion": "3.4.11",
  "updatedAt": "2023-03-05T01:24:19.404Z",
  "networkType": "ethereum",
  "devdoc": {
    "kind": "dev",
    "methods": {},
    "version": 1
  },
  "userdoc": {
    "kind": "user",
    "methods": {},
    "version": 1
  }
}