{
  "contractName": "OrderBook",
  "abi": [
    {
      "inputs": [
        {
          "internalType": "address",
          "name": "_opsAddress",
          "type": "address"
        }
      ],
      "stateMutability": "nonpayable",
      "type": "constructor"
    },
    {
      "anonymous": false,
      "inputs": [
        {
          "indexed": false,
          "internalType": "string",
          "name": "",
          "type": "string"
        },
        {
          "indexed": false,
          "internalType": "address",
          "name": "",
          "type": "address"
        }
      ],
      "name": "construct",
      "type": "event"
    },
    {
      "anonymous": false,
      "inputs": [
        {
          "indexed": false,
          "internalType": "string",
          "name": "",
          "type": "string"
        },
        {
          "indexed": false,
          "internalType": "uint256",
          "name": "",
          "type": "uint256"
        }
      ],
      "name": "orderCreated",
      "type": "event"
    },
    {
      "inputs": [],
      "name": "admin",
      "outputs": [
        {
          "internalType": "address",
          "name": "",
          "type": "address"
        }
      ],
      "stateMutability": "view",
      "type": "function",
      "constant": true
    },
    {
      "inputs": [],
      "name": "dedicatedMsgSender",
      "outputs": [
        {
          "internalType": "address",
          "name": "",
          "type": "address"
        }
      ],
      "stateMutability": "view",
      "type": "function",
      "constant": true
    },
    {
      "inputs": [],
      "name": "fundsOwner",
      "outputs": [
        {
          "internalType": "address",
          "name": "",
          "type": "address"
        }
      ],
      "stateMutability": "view",
      "type": "function",
      "constant": true
    },
    {
      "inputs": [],
      "name": "lendingVault",
      "outputs": [
        {
          "internalType": "contract LendingVault",
          "name": "",
          "type": "address"
        }
      ],
      "stateMutability": "view",
      "type": "function",
      "constant": true
    },
    {
      "inputs": [],
      "name": "ops",
      "outputs": [
        {
          "internalType": "contract IOps",
          "name": "",
          "type": "address"
        }
      ],
      "stateMutability": "view",
      "type": "function",
      "constant": true
    },
    {
      "inputs": [],
      "name": "orderExecutor",
      "outputs": [
        {
          "internalType": "contract OrderExecutor",
          "name": "",
          "type": "address"
        }
      ],
      "stateMutability": "view",
      "type": "function",
      "constant": true
    },
    {
      "inputs": [
        {
          "internalType": "uint256",
          "name": "",
          "type": "uint256"
        }
      ],
      "name": "orders",
      "outputs": [
        {
          "internalType": "address",
          "name": "user",
          "type": "address"
        },
        {
          "internalType": "uint256",
          "name": "price",
          "type": "uint256"
        },
        {
          "internalType": "uint256",
          "name": "amount",
          "type": "uint256"
        },
        {
          "internalType": "address",
          "name": "fromToken",
          "type": "address"
        },
        {
          "internalType": "address",
          "name": "toToken",
          "type": "address"
        },
        {
          "internalType": "bytes32",
          "name": "orderId",
          "type": "bytes32"
        },
        {
          "internalType": "bool",
          "name": "isExecuted",
          "type": "bool"
        }
      ],
      "stateMutability": "view",
      "type": "function",
      "constant": true
    },
    {
      "inputs": [],
      "name": "taskTreasury",
      "outputs": [
        {
          "internalType": "contract ITaskTreasuryUpgradable",
          "name": "",
          "type": "address"
        }
      ],
      "stateMutability": "view",
      "type": "function",
      "constant": true
    },
    {
      "inputs": [
        {
          "internalType": "uint256",
          "name": "_amount",
          "type": "uint256"
        },
        {
          "internalType": "address",
          "name": "_token",
          "type": "address"
        }
      ],
      "name": "withdrawFunds",
      "outputs": [],
      "stateMutability": "nonpayable",
      "type": "function"
    },
    {
      "inputs": [
        {
          "internalType": "contract OrderExecutor",
          "name": "_orderExecutorAddress",
          "type": "address"
        }
      ],
      "name": "setOrderExecutor",
      "outputs": [],
      "stateMutability": "nonpayable",
      "type": "function"
    },
    {
      "inputs": [
        {
          "internalType": "address",
          "name": "_lendingVaultAddress",
          "type": "address"
        }
      ],
      "name": "setLendingVault",
      "outputs": [],
      "stateMutability": "nonpayable",
      "type": "function"
    },
    {
      "inputs": [
        {
          "internalType": "uint256",
          "name": "price",
          "type": "uint256"
        },
        {
          "internalType": "uint256",
          "name": "amount",
          "type": "uint256"
        },
        {
          "internalType": "address",
          "name": "fromToken",
          "type": "address"
        },
        {
          "internalType": "address",
          "name": "toToken",
          "type": "address"
        }
      ],
      "name": "createOrder",
      "outputs": [
        {
          "internalType": "uint256",
          "name": "",
          "type": "uint256"
        }
      ],
      "stateMutability": "nonpayable",
      "type": "function"
    },
    {
      "inputs": [
        {
          "internalType": "uint256",
          "name": "_orderNonce",
          "type": "uint256"
        }
      ],
      "name": "closeYieldStrategy",
      "outputs": [],
      "stateMutability": "nonpayable",
      "type": "function"
    },
    {
      "inputs": [
        {
          "internalType": "uint256",
          "name": "_orderNonce",
          "type": "uint256"
        }
      ],
      "name": "cancelOrder",
      "outputs": [],
      "stateMutability": "nonpayable",
      "type": "function"
    },
    {
      "inputs": [],
      "name": "getExecutorAddress",
      "outputs": [
        {
          "internalType": "address",
          "name": "",
          "type": "address"
        }
      ],
      "stateMutability": "view",
      "type": "function",
      "constant": true
    },
    {
      "inputs": [
        {
          "internalType": "uint256",
          "name": "price",
          "type": "uint256"
        }
      ],
      "name": "setPrice",
      "outputs": [],
      "stateMutability": "nonpayable",
      "type": "function"
    },
    {
      "inputs": [
        {
          "internalType": "uint256",
          "name": "orderNonce",
          "type": "uint256"
        }
      ],
      "name": "setExecuted",
      "outputs": [],
      "stateMutability": "nonpayable",
      "type": "function"
    },
    {
      "inputs": [
        {
          "internalType": "uint256",
          "name": "orderNonce",
          "type": "uint256"
        }
      ],
      "name": "getOrder",
      "outputs": [
        {
          "components": [
            {
              "internalType": "address",
              "name": "user",
              "type": "address"
            },
            {
              "internalType": "uint256",
              "name": "price",
              "type": "uint256"
            },
            {
              "internalType": "uint256",
              "name": "amount",
              "type": "uint256"
            },
            {
              "internalType": "address",
              "name": "fromToken",
              "type": "address"
            },
            {
              "internalType": "address",
              "name": "toToken",
              "type": "address"
            },
            {
              "internalType": "bytes32",
              "name": "orderId",
              "type": "bytes32"
            },
            {
              "internalType": "bool",
              "name": "isExecuted",
              "type": "bool"
            }
          ],
          "internalType": "struct OrderDatas",
          "name": "",
          "type": "tuple"
        }
      ],
      "stateMutability": "view",
      "type": "function",
      "constant": true
    }
  ],
  "bytecode": "0x6101206040523480156200001257600080fd5b50604051620029303803806200293083398181016040528101906200003891906200036e565b803081308173ffffffffffffffffffffffffffffffffffffffff1660808173ffffffffffffffffffffffffffffffffffffffff16815250508173ffffffffffffffffffffffffffffffffffffffff1663573ea5756040518163ffffffff1660e01b8152600401602060405180830381865afa158015620000bc573d6000803e3d6000fd5b505050506040513d601f19601f82011682018060405250810190620000e29190620003e5565b73ffffffffffffffffffffffffffffffffffffffff1660c08173ffffffffffffffffffffffffffffffffffffffff168152505073c815db16d4be6ddf2685c201937905abf338f5d773ffffffffffffffffffffffffffffffffffffffff1663ded89a7c826040518263ffffffff1660e01b815260040162000164919062000428565b6040805180830381865afa15801562000181573d6000803e3d6000fd5b505050506040513d601f19601f82011682018060405250810190620001a7919062000482565b508073ffffffffffffffffffffffffffffffffffffffff1660a09073ffffffffffffffffffffffffffffffffffffffff168152505050508073ffffffffffffffffffffffffffffffffffffffff1660e08173ffffffffffffffffffffffffffffffffffffffff168152505060805173ffffffffffffffffffffffffffffffffffffffff1663e60a32136040518163ffffffff1660e01b8152600401602060405180830381865afa15801562000260573d6000803e3d6000fd5b505050506040513d601f19601f820116820180604052508101906200028691906200050e565b73ffffffffffffffffffffffffffffffffffffffff166101008173ffffffffffffffffffffffffffffffffffffffff1681525050505033600260006101000a81548173ffffffffffffffffffffffffffffffffffffffff021916908373ffffffffffffffffffffffffffffffffffffffff1602179055505062000540565b600080fd5b600073ffffffffffffffffffffffffffffffffffffffff82169050919050565b6000620003368262000309565b9050919050565b620003488162000329565b81146200035457600080fd5b50565b60008151905062000368816200033d565b92915050565b60006020828403121562000387576200038662000304565b5b6000620003978482850162000357565b91505092915050565b6000620003ad8262000309565b9050919050565b620003bf81620003a0565b8114620003cb57600080fd5b50565b600081519050620003df81620003b4565b92915050565b600060208284031215620003fe57620003fd62000304565b5b60006200040e84828501620003ce565b91505092915050565b620004228162000329565b82525050565b60006020820190506200043f600083018462000417565b92915050565b60008115159050919050565b6200045c8162000445565b81146200046857600080fd5b50565b6000815190506200047c8162000451565b92915050565b600080604083850312156200049c576200049b62000304565b5b6000620004ac8582860162000357565b9250506020620004bf858286016200046b565b9150509250929050565b6000620004d68262000329565b9050919050565b620004e881620004c9565b8114620004f457600080fd5b50565b6000815190506200050881620004dd565b92915050565b60006020828403121562000527576200052662000304565b5b60006200053784828501620004f7565b91505092915050565b60805160a05160c05160e0516101005161238b620005a560003960008181610fe7015261146001526000818161061101528181610f590152611023015260005050600061042e01526000818161073001528181610b470152611484015261238b6000f3fe608060405234801561001057600080fd5b50600436106101165760003560e01c8063756677a1116100a2578063cb8c5a3a11610071578063cb8c5a3a146102bd578063d09ef241146102db578063e60a32131461030b578063e70abe9214610329578063f851a4401461034757610116565b8063756677a11461023157806391b7f5ed1461024d578063a849d64414610269578063a85c38ef1461028757610116565b8063408a03d8116100e9578063408a03d81461018f57806346ee3c59146101ab578063514fcac7146101c957806358b91f0d146101e5578063744bfe611461021557610116565b80630f80042b1461011b57806328f150eb146101375780632993c69014610155578063350157a814610171575b600080fd5b610135600480360381019061013091906115ce565b610365565b005b61013f61042c565b60405161014c919061163c565b60405180910390f35b61016f600480360381019061016a91906115ce565b610450565b005b610179610511565b604051610186919061163c565b60405180910390f35b6101a960048036038101906101a49190611683565b61053b565b005b6101b361060f565b6040516101c0919061163c565b60405180910390f35b6101e360048036038101906101de91906115ce565b610633565b005b6101ff60048036038101906101fa91906116b0565b6107d1565b60405161020c9190611726565b60405180910390f35b61022f600480360381019061022a9190611741565b610f57565b005b61024b600480360381019061024691906117d1565b611098565b005b610267600480360381019061026291906115ce565b61116c565b005b6102716111fc565b60405161027e919061185d565b60405180910390f35b6102a1600480360381019061029c91906115ce565b611222565b6040516102b497969594939291906118ac565b60405180910390f35b6102c56112d1565b6040516102d2919061194e565b60405180910390f35b6102f560048036038101906102f091906115ce565b6112f7565b6040516103029190611a33565b60405180910390f35b61031361145e565b6040516103209190611a6f565b60405180910390f35b610331611482565b60405161033e9190611aab565b60405180910390f35b61034f6114a6565b60405161035c919061163c565b60405180910390f35b600460009054906101000a900473ffffffffffffffffffffffffffffffffffffffff1673ffffffffffffffffffffffffffffffffffffffff1663f3fef3a360008084815260200190815260200160002060030160009054906101000a900473ffffffffffffffffffffffffffffffffffffffff16836040518363ffffffff1660e01b81526004016103f7929190611ac6565b600060405180830381600087803b15801561041157600080fd5b505af1158015610425573d6000803e3d6000fd5b5050505050565b7f000000000000000000000000000000000000000000000000000000000000000081565b600360009054906101000a900473ffffffffffffffffffffffffffffffffffffffff1673ffffffffffffffffffffffffffffffffffffffff163373ffffffffffffffffffffffffffffffffffffffff16146104e0576040517f08c379a00000000000000000000000000000000000000000000000000000000081526004016104d790611b72565b60405180910390fd5b600160008083815260200190815260200160002060060160006101000a81548160ff02191690831515021790555050565b6000600360009054906101000a900473ffffffffffffffffffffffffffffffffffffffff16905090565b600260009054906101000a900473ffffffffffffffffffffffffffffffffffffffff1673ffffffffffffffffffffffffffffffffffffffff163373ffffffffffffffffffffffffffffffffffffffff16146105cb576040517f08c379a00000000000000000000000000000000000000000000000000000000081526004016105c290611bde565b60405180910390fd5b80600460006101000a81548173ffffffffffffffffffffffffffffffffffffffff021916908373ffffffffffffffffffffffffffffffffffffffff16021790555050565b7f000000000000000000000000000000000000000000000000000000000000000081565b600260009054906101000a900473ffffffffffffffffffffffffffffffffffffffff1673ffffffffffffffffffffffffffffffffffffffff163373ffffffffffffffffffffffffffffffffffffffff1614806106ef57503373ffffffffffffffffffffffffffffffffffffffff1660008083815260200190815260200160002060000160009054906101000a900473ffffffffffffffffffffffffffffffffffffffff1673ffffffffffffffffffffffffffffffffffffffff16145b61072e576040517f08c379a000000000000000000000000000000000000000000000000000000000815260040161072590611c4a565b60405180910390fd5b7f000000000000000000000000000000000000000000000000000000000000000073ffffffffffffffffffffffffffffffffffffffff1663ee8ca3b5600080848152602001908152602001600020600501546040518263ffffffff1660e01b815260040161079c9190611c6a565b600060405180830381600087803b1580156107b657600080fd5b505af11580156107ca573d6000803e3d6000fd5b5050505050565b6000808390508073ffffffffffffffffffffffffffffffffffffffff166323b872dd3330886040518463ffffffff1660e01b815260040161081493929190611c85565b6020604051808303816000875af1158015610833573d6000803e3d6000fd5b505050506040513d601f19601f820116820180604052508101906108579190611ce8565b506000600360009054906101000a900473ffffffffffffffffffffffffffffffffffffffff1673ffffffffffffffffffffffffffffffffffffffff166394f611346001546040516024016108ab9190611726565b604051602081830303815290604052915060e01b6020820180517bffffffffffffffffffffffffffffffffffffffffffffffffffffffff8381831617835250505050905060006040518060400160405280600267ffffffffffffffff81111561091757610916611d15565b5b6040519080825280602002602001820160405280156109455781602001602082028036833780820191505090505b508152602001600267ffffffffffffffff81111561096657610965611d15565b5b60405190808252806020026020018201604052801561099957816020015b60608152602001906001900390816109845790505b508152509050600081600001516000815181106109b9576109b8611d44565b5b602002602001019060038111156109d3576109d2611d73565b5b908160038111156109e7576109e6611d73565b5b8152505060038160000151600181518110610a0557610a04611d44565b5b60200260200101906003811115610a1f57610a1e611d73565b5b90816003811115610a3357610a32611d73565b5b81525050610af5600360009054906101000a900473ffffffffffffffffffffffffffffffffffffffff16600360009054906101000a900473ffffffffffffffffffffffffffffffffffffffff1673ffffffffffffffffffffffffffffffffffffffff166394e05b2c600154604051602401610aae9190611726565b604051602081830303815290604052915060e01b6020820180517bffffffffffffffffffffffffffffffffffffffffffffffffffffffff83818316178352505050506114cc565b8160200151600081518110610b0d57610b0c611d44565b5b6020026020010181905250610b206114f8565b8160200151600181518110610b3857610b37611d44565b5b602002602001018190525060007f000000000000000000000000000000000000000000000000000000000000000073ffffffffffffffffffffffffffffffffffffffff16633323b467600360009054906101000a900473ffffffffffffffffffffffffffffffffffffffff16858573eeeeeeeeeeeeeeeeeeeeeeeeeeeeeeeeeeeeeeee6040518563ffffffff1660e01b8152600401610bda9493929190612079565b6020604051808303816000875af1158015610bf9573d6000803e3d6000fd5b505050506040513d601f19601f82011682018060405250810190610c1d91906120f8565b90506040518060e001604052803373ffffffffffffffffffffffffffffffffffffffff1681526020018a81526020018981526020018873ffffffffffffffffffffffffffffffffffffffff1681526020018773ffffffffffffffffffffffffffffffffffffffff16815260200182815260200160001515815250600080600154815260200190815260200160002060008201518160000160006101000a81548173ffffffffffffffffffffffffffffffffffffffff021916908373ffffffffffffffffffffffffffffffffffffffff160217905550602082015181600101556040820151816002015560608201518160030160006101000a81548173ffffffffffffffffffffffffffffffffffffffff021916908373ffffffffffffffffffffffffffffffffffffffff16021790555060808201518160040160006101000a81548173ffffffffffffffffffffffffffffffffffffffff021916908373ffffffffffffffffffffffffffffffffffffffff16021790555060a0820151816005015560c08201518160060160006101000a81548160ff0219169083151502179055509050508373ffffffffffffffffffffffffffffffffffffffff1663a9059cbb600460009054906101000a900473ffffffffffffffffffffffffffffffffffffffff168a6040518363ffffffff1660e01b8152600401610e1e929190611ac6565b6020604051808303816000875af1158015610e3d573d6000803e3d6000fd5b505050506040513d601f19601f82011682018060405250810190610e619190611ce8565b50600460009054906101000a900473ffffffffffffffffffffffffffffffffffffffff1673ffffffffffffffffffffffffffffffffffffffff16630efe6a8b888a6001546040518463ffffffff1660e01b8152600401610ec393929190612125565b600060405180830381600087803b158015610edd57600080fd5b505af1158015610ef1573d6000803e3d6000fd5b5050505060016000815480929190610f089061218b565b91905055507ff29bb1c73c1b34ece9e10cb136610579d9b7cb3f424e0e58c2d22e958092e615600154604051610f3e919061221f565b60405180910390a1600154945050505050949350505050565b7f000000000000000000000000000000000000000000000000000000000000000073ffffffffffffffffffffffffffffffffffffffff163373ffffffffffffffffffffffffffffffffffffffff1614610fe5576040517f08c379a0000000000000000000000000000000000000000000000000000000008152600401610fdc906122bf565b60405180910390fd5b7f000000000000000000000000000000000000000000000000000000000000000073ffffffffffffffffffffffffffffffffffffffff16631c20fadd7f000000000000000000000000000000000000000000000000000000000000000083856040518463ffffffff1660e01b8152600401611062939291906122ee565b600060405180830381600087803b15801561107c57600080fd5b505af1158015611090573d6000803e3d6000fd5b505050505050565b600260009054906101000a900473ffffffffffffffffffffffffffffffffffffffff1673ffffffffffffffffffffffffffffffffffffffff163373ffffffffffffffffffffffffffffffffffffffff1614611128576040517f08c379a000000000000000000000000000000000000000000000000000000000815260040161111f90611bde565b60405180910390fd5b80600360006101000a81548173ffffffffffffffffffffffffffffffffffffffff021916908373ffffffffffffffffffffffffffffffffffffffff16021790555050565b600360009054906101000a900473ffffffffffffffffffffffffffffffffffffffff1673ffffffffffffffffffffffffffffffffffffffff166391b7f5ed826040518263ffffffff1660e01b81526004016111c79190611726565b600060405180830381600087803b1580156111e157600080fd5b505af11580156111f5573d6000803e3d6000fd5b5050505050565b600360009054906101000a900473ffffffffffffffffffffffffffffffffffffffff1681565b60006020528060005260406000206000915090508060000160009054906101000a900473ffffffffffffffffffffffffffffffffffffffff16908060010154908060020154908060030160009054906101000a900473ffffffffffffffffffffffffffffffffffffffff16908060040160009054906101000a900473ffffffffffffffffffffffffffffffffffffffff16908060050154908060060160009054906101000a900460ff16905087565b600460009054906101000a900473ffffffffffffffffffffffffffffffffffffffff1681565b6112ff61150f565b6000808381526020019081526020016000206040518060e00160405290816000820160009054906101000a900473ffffffffffffffffffffffffffffffffffffffff1673ffffffffffffffffffffffffffffffffffffffff1673ffffffffffffffffffffffffffffffffffffffff16815260200160018201548152602001600282015481526020016003820160009054906101000a900473ffffffffffffffffffffffffffffffffffffffff1673ffffffffffffffffffffffffffffffffffffffff1673ffffffffffffffffffffffffffffffffffffffff1681526020016004820160009054906101000a900473ffffffffffffffffffffffffffffffffffffffff1673ffffffffffffffffffffffffffffffffffffffff1673ffffffffffffffffffffffffffffffffffffffff168152602001600582015481526020016006820160009054906101000a900460ff1615151515815250509050919050565b7f000000000000000000000000000000000000000000000000000000000000000081565b7f000000000000000000000000000000000000000000000000000000000000000081565b600260009054906101000a900473ffffffffffffffffffffffffffffffffffffffff1681565b606082826040516020016114e1929190612325565b604051602081830303815290604052905092915050565b606060405180602001604052806000815250905090565b6040518060e00160405280600073ffffffffffffffffffffffffffffffffffffffff1681526020016000815260200160008152602001600073ffffffffffffffffffffffffffffffffffffffff168152602001600073ffffffffffffffffffffffffffffffffffffffff168152602001600080191681526020016000151581525090565b600080fd5b6000819050919050565b6115ab81611598565b81146115b657600080fd5b50565b6000813590506115c8816115a2565b92915050565b6000602082840312156115e4576115e3611593565b5b60006115f2848285016115b9565b91505092915050565b600073ffffffffffffffffffffffffffffffffffffffff82169050919050565b6000611626826115fb565b9050919050565b6116368161161b565b82525050565b6000602082019050611651600083018461162d565b92915050565b6116608161161b565b811461166b57600080fd5b50565b60008135905061167d81611657565b92915050565b60006020828403121561169957611698611593565b5b60006116a78482850161166e565b91505092915050565b600080600080608085870312156116ca576116c9611593565b5b60006116d8878288016115b9565b94505060206116e9878288016115b9565b93505060406116fa8782880161166e565b925050606061170b8782880161166e565b91505092959194509250565b61172081611598565b82525050565b600060208201905061173b6000830184611717565b92915050565b6000806040838503121561175857611757611593565b5b6000611766858286016115b9565b92505060206117778582860161166e565b9150509250929050565b600061178c826115fb565b9050919050565b600061179e82611781565b9050919050565b6117ae81611793565b81146117b957600080fd5b50565b6000813590506117cb816117a5565b92915050565b6000602082840312156117e7576117e6611593565b5b60006117f5848285016117bc565b91505092915050565b6000819050919050565b600061182361181e611819846115fb565b6117fe565b6115fb565b9050919050565b600061183582611808565b9050919050565b60006118478261182a565b9050919050565b6118578161183c565b82525050565b6000602082019050611872600083018461184e565b92915050565b6000819050919050565b61188b81611878565b82525050565b60008115159050919050565b6118a681611891565b82525050565b600060e0820190506118c1600083018a61162d565b6118ce6020830189611717565b6118db6040830188611717565b6118e8606083018761162d565b6118f5608083018661162d565b61190260a0830185611882565b61190f60c083018461189d565b98975050505050505050565b600061192682611808565b9050919050565b60006119388261191b565b9050919050565b6119488161192d565b82525050565b6000602082019050611963600083018461193f565b92915050565b6119728161161b565b82525050565b61198181611598565b82525050565b61199081611878565b82525050565b61199f81611891565b82525050565b60e0820160008201516119bb6000850182611969565b5060208201516119ce6020850182611978565b5060408201516119e16040850182611978565b5060608201516119f46060850182611969565b506080820151611a076080850182611969565b5060a0820151611a1a60a0850182611987565b5060c0820151611a2d60c0850182611996565b50505050565b600060e082019050611a4860008301846119a5565b92915050565b6000611a598261191b565b9050919050565b611a6981611a4e565b82525050565b6000602082019050611a846000830184611a60565b92915050565b6000611a958261191b565b9050919050565b611aa581611a8a565b82525050565b6000602082019050611ac06000830184611a9c565b92915050565b6000604082019050611adb600083018561162d565b611ae86020830184611717565b9392505050565b600082825260208201905092915050565b7f4f6e6c7920746865206578656375746f722063616e2073657420746865206f7260008201527f6465722061732065786563757465640000000000000000000000000000000000602082015250565b6000611b5c602f83611aef565b9150611b6782611b00565b604082019050919050565b60006020820190508181036000830152611b8b81611b4f565b9050919050565b7f596f7520617265206e6f7420616c6c6f77656420746f20646f20746861740000600082015250565b6000611bc8601e83611aef565b9150611bd382611b92565b602082019050919050565b60006020820190508181036000830152611bf781611bbb565b9050919050565b7f4e6f7420616c6c6f77656420746f2063616e63656c2074686973206f72646572600082015250565b6000611c34602083611aef565b9150611c3f82611bfe565b602082019050919050565b60006020820190508181036000830152611c6381611c27565b9050919050565b6000602082019050611c7f6000830184611882565b92915050565b6000606082019050611c9a600083018661162d565b611ca7602083018561162d565b611cb46040830184611717565b949350505050565b611cc581611891565b8114611cd057600080fd5b50565b600081519050611ce281611cbc565b92915050565b600060208284031215611cfe57611cfd611593565b5b6000611d0c84828501611cd3565b91505092915050565b7f4e487b7100000000000000000000000000000000000000000000000000000000600052604160045260246000fd5b7f4e487b7100000000000000000000000000000000000000000000000000000000600052603260045260246000fd5b7f4e487b7100000000000000000000000000000000000000000000000000000000600052602160045260246000fd5b600081519050919050565b600082825260208201905092915050565b60005b83811015611ddc578082015181840152602081019050611dc1565b60008484015250505050565b6000601f19601f8301169050919050565b6000611e0482611da2565b611e0e8185611dad565b9350611e1e818560208601611dbe565b611e2781611de8565b840191505092915050565b600081519050919050565b600082825260208201905092915050565b6000819050602082019050919050565b60048110611e6f57611e6e611d73565b5b50565b6000819050611e8082611e5e565b919050565b6000611e9082611e72565b9050919050565b611ea081611e85565b82525050565b6000611eb28383611e97565b60208301905092915050565b6000602082019050919050565b6000611ed682611e32565b611ee08185611e3d565b9350611eeb83611e4e565b8060005b83811015611f1c578151611f038882611ea6565b9750611f0e83611ebe565b925050600181019050611eef565b5085935050505092915050565b600081519050919050565b600082825260208201905092915050565b6000819050602082019050919050565b600082825260208201905092915050565b6000611f7182611da2565b611f7b8185611f55565b9350611f8b818560208601611dbe565b611f9481611de8565b840191505092915050565b6000611fab8383611f66565b905092915050565b6000602082019050919050565b6000611fcb82611f29565b611fd58185611f34565b935083602082028501611fe785611f45565b8060005b8581101561202357848403895281516120048582611f9f565b945061200f83611fb3565b925060208a01995050600181019050611feb565b50829750879550505050505092915050565b600060408301600083015184820360008601526120528282611ecb565b9150506020830151848203602086015261206c8282611fc0565b9150508091505092915050565b600060808201905061208e600083018761162d565b81810360208301526120a08186611df9565b905081810360408301526120b48185612035565b90506120c3606083018461162d565b95945050505050565b6120d581611878565b81146120e057600080fd5b50565b6000815190506120f2816120cc565b92915050565b60006020828403121561210e5761210d611593565b5b600061211c848285016120e3565b91505092915050565b600060608201905061213a600083018661162d565b6121476020830185611717565b6121546040830184611717565b949350505050565b7f4e487b7100000000000000000000000000000000000000000000000000000000600052601160045260246000fd5b600061219682611598565b91507fffffffffffffffffffffffffffffffffffffffffffffffffffffffffffffffff82036121c8576121c761215c565b5b600182019050919050565b7f6f726465724e6f6e636500000000000000000000000000000000000000000000600082015250565b6000612209600a83611aef565b9150612214826121d3565b602082019050919050565b60006040820190508181036000830152612238816121fc565b90506122476020830184611717565b92915050565b7f4f6e6c792066756e6473206f776e65722063616e20776974686472617720667560008201527f6e64730000000000000000000000000000000000000000000000000000000000602082015250565b60006122a9602383611aef565b91506122b48261224d565b604082019050919050565b600060208201905081810360008301526122d88161229c565b9050919050565b6122e881611781565b82525050565b600060608201905061230360008301866122df565b612310602083018561162d565b61231d6040830184611717565b949350505050565b600060408201905061233a600083018561162d565b818103602083015261234c8184611df9565b9050939250505056fea26469706673582212209807094ddd5380f67ac3f733beed178410253f0b64dba24e976b0fb2cf18b49964736f6c63430008130033",
  "immutableReferences": {
    "919": [
      {
        "length": 32,
        "start": 1840
      },
      {
        "length": 32,
        "start": 2887
      },
      {
        "length": 32,
        "start": 5252
      }
    ],
    "921": [
      {
        "length": 32,
        "start": 1070
      }
    ],
    "1043": [
      {
        "length": 32,
        "start": 1553
      },
      {
        "length": 32,
        "start": 3929
      },
      {
        "length": 32,
        "start": 4131
      }
    ],
    "1046": [
      {
        "length": 32,
        "start": 4071
      },
      {
        "length": 32,
        "start": 5216
      }
    ]
  },
  "source": "// SPDX-License-Identifier: UNLICENSED\npragma solidity ^0.8.19;\n\nimport \"./Types.sol\";\nimport \"./OrderExecutor.sol\";\nimport \"./OpsTaskCreator.sol\";\nimport './LendingVault.sol';\n\nstruct OrderDatas {\n    address user;\n    uint256 price;\n    uint256 amount;\n    address fromToken;\n    address toToken;\n    bytes32 orderId;\n    bool isExecuted;\n}\n\ncontract OrderBook is OpsTaskCreator {\n    mapping (uint => OrderDatas) public orders; // returns order data\n    uint orderNonce;\n    address public admin;\n    OrderExecutor public orderExecutor;\n    LendingVault public lendingVault;\n    event construct(string, address);\n    event orderCreated(string, uint256);\n\n    constructor(address _opsAddress) OpsTaskCreator(_opsAddress, address(this)) {\n        admin = msg.sender;\n    }\n\n    function setOrderExecutor(OrderExecutor _orderExecutorAddress) public {\n        require(msg.sender == admin, \"You are not allowed to do that\");\n        orderExecutor = _orderExecutorAddress;\n    }\n\n    function setLendingVault(address _lendingVaultAddress) public {\n        require(msg.sender == admin, \"You are not allowed to do that\");\n        lendingVault = LendingVault(_lendingVaultAddress);\n    } \n\n    function createOrder(uint price, uint amount, address fromToken, address toToken) external returns (uint) {\n        IERC20 FromToken = IERC20(fromToken);\n\n        // The user needs to approve this contract for the appropriate amount\n        FromToken.transferFrom(msg.sender, address(this), amount);\n\n        bytes memory execData = abi.encodeCall(orderExecutor.executeOrder, (orderNonce));\n\n        ModuleData memory moduleData = ModuleData({\n            modules: new Module[](2),\n            args: new bytes[](2)\n        });\n\n        moduleData.modules[0] = Module.RESOLVER;\n        moduleData.modules[1] = Module.SINGLE_EXEC;\n\n        moduleData.args[0] = _resolverModuleArg(address(orderExecutor), abi.encodeCall(orderExecutor.checker, (orderNonce)));\n        moduleData.args[1] = _singleExecModuleArg();\n\n        // Faulty\n        bytes32 orderId = ops.createTask(\n            address(orderExecutor), // contract to execute\n            execData, // function to execute\n            moduleData,\n            0xEeeeeEeeeEeEeeEeEeEeeEEEeeeeEeeeeeeeEEeE\n        );\n\n        orders[orderNonce] = OrderDatas(msg.sender, price, amount, fromToken, toToken, orderId, false);\n\n        // Transfer tokens to the vault\n        FromToken.transfer(address(lendingVault), amount); // approval needed to be able to swap liquidity\n        lendingVault.deposit(fromToken, amount, orderNonce); // depositing liquidity into the vault\n        //FromToken.transfer(address(lendingVault), amount);\n\n        orderNonce++;\n\n        emit orderCreated(\"orderNonce\", orderNonce);\n\n        return orderNonce;\n    }\n\n    function closeYieldStrategy(uint _orderNonce) public {\n        lendingVault.withdraw(orders[_orderNonce].fromToken, _orderNonce);\n    }\n\n    function cancelOrder(uint _orderNonce) external {\n        require(\n            msg.sender == admin || orders[_orderNonce].user == msg.sender,\n            \"Not allowed to cancel this order\"\n        );\n        ops.cancelTask(orders[_orderNonce].orderId);\n    }\n\n    // function to return executor address in order to check the txs\n    function getExecutorAddress() public view returns (address) {\n        return address(orderExecutor);\n    }\n\n    function setPrice(uint price) public {\n        orderExecutor.setPrice(price);\n    }\n\n    \n    function setExecuted(uint orderNonce) public {\n        require(msg.sender == address(orderExecutor), \"Only the executor can set the order as executed\");\n        orders[orderNonce].isExecuted = true;\n    }\n\n    function getOrder(uint orderNonce) public view returns (OrderDatas memory) {\n        return orders[orderNonce];\n    }\n\n}\n\n\n",
  "sourcePath": "/Users/blabla/Documents/gelato_test/contracts/OrderBook.sol",
  "compiler": {
    "name": "solc",
    "version": "0.8.19+commit.7dd6d404.Emscripten.clang"
  },
  "schemaVersion": "3.4.11",
  "updatedAt": "2023-03-04T17:46:29.311Z",
  "networkType": "ethereum",
  "devdoc": {
    "kind": "dev",
    "methods": {
      "withdrawFunds(uint256,address)": {
        "details": "Withdraw funds from this contract's Gelato balance to fundsOwner."
      }
    },
    "version": 1
  },
  "userdoc": {
    "kind": "user",
    "methods": {},
    "version": 1
  }
}