{
  "contractName": "OrderExecutor",
  "abi": [
    {
      "inputs": [
        {
          "internalType": "address",
          "name": "_ops",
          "type": "address"
        },
        {
          "internalType": "address",
          "name": "_taskCreator",
          "type": "address"
        }
      ],
      "stateMutability": "nonpayable",
      "type": "constructor"
    },
    {
      "inputs": [],
      "name": "dedicatedMsgSender",
      "outputs": [
        {
          "internalType": "address",
          "name": "",
          "type": "address"
        }
      ],
      "stateMutability": "view",
      "type": "function"
    },
    {
      "inputs": [],
      "name": "ops",
      "outputs": [
        {
          "internalType": "contract IOps",
          "name": "",
          "type": "address"
        }
      ],
      "stateMutability": "view",
      "type": "function"
    },
    {
      "inputs": [],
      "name": "orderBook",
      "outputs": [
        {
          "internalType": "contract OrderBook",
          "name": "",
          "type": "address"
        }
      ],
      "stateMutability": "view",
      "type": "function"
    },
    {
      "stateMutability": "payable",
      "type": "receive"
    },
    {
      "inputs": [
        {
          "internalType": "uint256",
          "name": "_price",
          "type": "uint256"
        }
      ],
      "name": "setPrice",
      "outputs": [],
      "stateMutability": "nonpayable",
      "type": "function"
    },
    {
      "inputs": [
        {
          "internalType": "uint256",
          "name": "orderNonce",
          "type": "uint256"
        }
      ],
      "name": "executeOrder",
      "outputs": [],
      "stateMutability": "nonpayable",
      "type": "function"
    },
    {
      "inputs": [],
      "name": "withdrawFunds",
      "outputs": [],
      "stateMutability": "nonpayable",
      "type": "function"
    },
    {
      "inputs": [
        {
          "internalType": "uint256",
          "name": "orderNonce",
          "type": "uint256"
        }
      ],
      "name": "checker",
      "outputs": [
        {
          "internalType": "bool",
          "name": "canExec",
          "type": "bool"
        },
        {
          "internalType": "bytes",
          "name": "execPayload",
          "type": "bytes"
        }
      ],
      "stateMutability": "view",
      "type": "function"
    }
  ],
  "bytecode": "0x60e06040523480156200001157600080fd5b50604051620015ac380380620015ac833981810160405281019062000037919062000296565b81818173ffffffffffffffffffffffffffffffffffffffff1660808173ffffffffffffffffffffffffffffffffffffffff16815250508173ffffffffffffffffffffffffffffffffffffffff1663573ea5756040518163ffffffff1660e01b8152600401602060405180830381865afa158015620000b9573d6000803e3d6000fd5b505050506040513d601f19601f82011682018060405250810190620000df919062000322565b73ffffffffffffffffffffffffffffffffffffffff1660c08173ffffffffffffffffffffffffffffffffffffffff168152505073c815db16d4be6ddf2685c201937905abf338f5d773ffffffffffffffffffffffffffffffffffffffff1663ded89a7c826040518263ffffffff1660e01b815260040162000161919062000365565b6040805180830381865afa1580156200017e573d6000803e3d6000fd5b505050506040513d601f19601f82011682018060405250810190620001a49190620003bf565b508073ffffffffffffffffffffffffffffffffffffffff1660a09073ffffffffffffffffffffffffffffffffffffffff16815250505050606460008190555033600160006101000a81548173ffffffffffffffffffffffffffffffffffffffff021916908373ffffffffffffffffffffffffffffffffffffffff160217905550505062000406565b600080fd5b600073ffffffffffffffffffffffffffffffffffffffff82169050919050565b60006200025e8262000231565b9050919050565b620002708162000251565b81146200027c57600080fd5b50565b600081519050620002908162000265565b92915050565b60008060408385031215620002b057620002af6200022c565b5b6000620002c0858286016200027f565b9250506020620002d3858286016200027f565b9150509250929050565b6000620002ea8262000231565b9050919050565b620002fc81620002dd565b81146200030857600080fd5b50565b6000815190506200031c81620002f1565b92915050565b6000602082840312156200033b576200033a6200022c565b5b60006200034b848285016200030b565b91505092915050565b6200035f8162000251565b82525050565b60006020820190506200037c600083018462000354565b92915050565b60008115159050919050565b620003998162000382565b8114620003a557600080fd5b50565b600081519050620003b9816200038e565b92915050565b60008060408385031215620003d957620003d86200022c565b5b6000620003e9858286016200027f565b9250506020620003fc85828601620003a8565b9150509250929050565b60805160a05160c051611168620004446000396000818161050a01526105de015260006101f9015260008181610400015261042701526111686000f3fe6080604052600436106100745760003560e01c806391b7f5ed1161004e57806391b7f5ed146100ed57806394e05b2c1461011657806394f6113414610154578063e70abe921461017d5761007b565b806324600fc31461008057806328f150eb14610097578063776af5ba146100c25761007b565b3661007b57005b600080fd5b34801561008c57600080fd5b506100956101a8565b005b3480156100a357600080fd5b506100ac6101f7565b6040516100b99190610963565b60405180910390f35b3480156100ce57600080fd5b506100d761021b565b6040516100e491906109dd565b60405180910390f35b3480156100f957600080fd5b50610114600480360381019061010f9190610a3d565b610241565b005b34801561012257600080fd5b5061013d60048036038101906101389190610a3d565b61024b565b60405161014b929190610b15565b60405180910390f35b34801561016057600080fd5b5061017b60048036038101906101769190610a3d565b610353565b005b34801561018957600080fd5b506101926103fe565b60405161019f9190610b66565b60405180910390f35b60003390508073ffffffffffffffffffffffffffffffffffffffff166108fc479081150290604051600060405180830381858888f193505050501580156101f3573d6000803e3d6000fd5b5050565b7f000000000000000000000000000000000000000000000000000000000000000081565b600160009054906101000a900473ffffffffffffffffffffffffffffffffffffffff1681565b8060008190555050565b60006060600054600160009054906101000a900473ffffffffffffffffffffffffffffffffffffffff1673ffffffffffffffffffffffffffffffffffffffff1663d09ef241856040518263ffffffff1660e01b81526004016102ad9190610b90565b60c060405180830381865afa1580156102ca573d6000803e3d6000fd5b505050506040513d601f19601f820116820180604052508101906102ee9190610d6e565b6020015111159150826040516024016103079190610b90565b6040516020818303038152906040526394f6113460e01b6020820180517bffffffffffffffffffffffffffffffffffffffffffffffffffffffff83818316178352505050509050915091565b600160009054906101000a900473ffffffffffffffffffffffffffffffffffffffff1673ffffffffffffffffffffffffffffffffffffffff16632993c690826040518263ffffffff1660e01b81526004016103ae9190610b90565b600060405180830381600087803b1580156103c857600080fd5b505af11580156103dc573d6000803e3d6000fd5b505050506000806103eb610422565b915091506103f982826104bf565b505050565b7f000000000000000000000000000000000000000000000000000000000000000081565b6000807f000000000000000000000000000000000000000000000000000000000000000073ffffffffffffffffffffffffffffffffffffffff1663b810c6366040518163ffffffff1660e01b81526004016040805180830381865afa15801561048f573d6000803e3d6000fd5b505050506040513d601f19601f820116820180604052508101906104b39190610d9b565b80925081935050509091565b73eeeeeeeeeeeeeeeeeeeeeeeeeeeeeeeeeeeeeeee73ffffffffffffffffffffffffffffffffffffffff168173ffffffffffffffffffffffffffffffffffffffff16036105d85760007f000000000000000000000000000000000000000000000000000000000000000073ffffffffffffffffffffffffffffffffffffffff168360405161054c90610e0c565b60006040518083038185875af1925050503d8060008114610589576040519150601f19603f3d011682016040523d82523d6000602084013e61058e565b606091505b50509050806105d2576040517f08c379a00000000000000000000000000000000000000000000000000000000081526004016105c990610e7e565b60405180910390fd5b50610604565b610603817f000000000000000000000000000000000000000000000000000000000000000084610608565b5b5050565b6106898363a9059cbb60e01b8484604051602401610627929190610e9e565b604051602081830303815290604052907bffffffffffffffffffffffffffffffffffffffffffffffffffffffff19166020820180517bffffffffffffffffffffffffffffffffffffffffffffffffffffffff838183161783525050505061068e565b505050565b60006106f0826040518060400160405280602081526020017f5361666545524332303a206c6f772d6c6576656c2063616c6c206661696c65648152508573ffffffffffffffffffffffffffffffffffffffff166107559092919063ffffffff16565b905060008151111561075057808060200190518101906107109190610ec7565b61074f576040517f08c379a000000000000000000000000000000000000000000000000000000000815260040161074690610f66565b60405180910390fd5b5b505050565b6060610764848460008561076d565b90509392505050565b6060824710156107b2576040517f08c379a00000000000000000000000000000000000000000000000000000000081526004016107a990610ff8565b60405180910390fd5b6000808673ffffffffffffffffffffffffffffffffffffffff1685876040516107db9190611049565b60006040518083038185875af1925050503d8060008114610818576040519150601f19603f3d011682016040523d82523d6000602084013e61081d565b606091505b509150915061082e8783838761083a565b92505050949350505050565b6060831561089c57600083510361089457610854856108af565b610893576040517f08c379a000000000000000000000000000000000000000000000000000000000815260040161088a906110ac565b60405180910390fd5b5b8290506108a7565b6108a683836108d2565b5b949350505050565b6000808273ffffffffffffffffffffffffffffffffffffffff163b119050919050565b6000825111156108e55781518083602001fd5b806040517f08c379a00000000000000000000000000000000000000000000000000000000081526004016109199190611110565b60405180910390fd5b600073ffffffffffffffffffffffffffffffffffffffff82169050919050565b600061094d82610922565b9050919050565b61095d81610942565b82525050565b60006020820190506109786000830184610954565b92915050565b6000819050919050565b60006109a361099e61099984610922565b61097e565b610922565b9050919050565b60006109b582610988565b9050919050565b60006109c7826109aa565b9050919050565b6109d7816109bc565b82525050565b60006020820190506109f260008301846109ce565b92915050565b6000604051905090565b600080fd5b6000819050919050565b610a1a81610a07565b8114610a2557600080fd5b50565b600081359050610a3781610a11565b92915050565b600060208284031215610a5357610a52610a02565b5b6000610a6184828501610a28565b91505092915050565b60008115159050919050565b610a7f81610a6a565b82525050565b600081519050919050565b600082825260208201905092915050565b60005b83811015610abf578082015181840152602081019050610aa4565b60008484015250505050565b6000601f19601f8301169050919050565b6000610ae782610a85565b610af18185610a90565b9350610b01818560208601610aa1565b610b0a81610acb565b840191505092915050565b6000604082019050610b2a6000830185610a76565b8181036020830152610b3c8184610adc565b90509392505050565b6000610b50826109aa565b9050919050565b610b6081610b45565b82525050565b6000602082019050610b7b6000830184610b57565b92915050565b610b8a81610a07565b82525050565b6000602082019050610ba56000830184610b81565b92915050565b600080fd5b7f4e487b7100000000000000000000000000000000000000000000000000000000600052604160045260246000fd5b610be882610acb565b810181811067ffffffffffffffff82111715610c0757610c06610bb0565b5b80604052505050565b6000610c1a6109f8565b9050610c268282610bdf565b919050565b610c3481610942565b8114610c3f57600080fd5b50565b600081519050610c5181610c2b565b92915050565b600081519050610c6681610a11565b92915050565b6000819050919050565b610c7f81610c6c565b8114610c8a57600080fd5b50565b600081519050610c9c81610c76565b92915050565b610cab81610a6a565b8114610cb657600080fd5b50565b600081519050610cc881610ca2565b92915050565b600060c08284031215610ce457610ce3610bab565b5b610cee60c0610c10565b90506000610cfe84828501610c42565b6000830152506020610d1284828501610c57565b6020830152506040610d2684828501610c42565b6040830152506060610d3a84828501610c42565b6060830152506080610d4e84828501610c8d565b60808301525060a0610d6284828501610cb9565b60a08301525092915050565b600060c08284031215610d8457610d83610a02565b5b6000610d9284828501610cce565b91505092915050565b60008060408385031215610db257610db1610a02565b5b6000610dc085828601610c57565b9250506020610dd185828601610c42565b9150509250929050565b600081905092915050565b50565b6000610df6600083610ddb565b9150610e0182610de6565b600082019050919050565b6000610e1782610de9565b9150819050919050565b600082825260208201905092915050565b7f5f7472616e736665723a20455448207472616e73666572206661696c65640000600082015250565b6000610e68601e83610e21565b9150610e7382610e32565b602082019050919050565b60006020820190508181036000830152610e9781610e5b565b9050919050565b6000604082019050610eb36000830185610954565b610ec06020830184610b81565b9392505050565b600060208284031215610edd57610edc610a02565b5b6000610eeb84828501610cb9565b91505092915050565b7f5361666545524332303a204552433230206f7065726174696f6e20646964206e60008201527f6f74207375636365656400000000000000000000000000000000000000000000602082015250565b6000610f50602a83610e21565b9150610f5b82610ef4565b604082019050919050565b60006020820190508181036000830152610f7f81610f43565b9050919050565b7f416464726573733a20696e73756666696369656e742062616c616e636520666f60008201527f722063616c6c0000000000000000000000000000000000000000000000000000602082015250565b6000610fe2602683610e21565b9150610fed82610f86565b604082019050919050565b6000602082019050818103600083015261101181610fd5565b9050919050565b600061102382610a85565b61102d8185610ddb565b935061103d818560208601610aa1565b80840191505092915050565b60006110558284611018565b915081905092915050565b7f416464726573733a2063616c6c20746f206e6f6e2d636f6e7472616374000000600082015250565b6000611096601d83610e21565b91506110a182611060565b602082019050919050565b600060208201905081810360008301526110c581611089565b9050919050565b600081519050919050565b60006110e2826110cc565b6110ec8185610e21565b93506110fc818560208601610aa1565b61110581610acb565b840191505092915050565b6000602082019050818103600083015261112a81846110d7565b90509291505056fea26469706673582212205579cb1073882a87c1b5a275a78b7717059ae7b5aa727bb3fa61d4d7a34e7e3364736f6c63430008130033",
  "immutableReferences": {
    "732": [
      {
        "length": 32,
        "start": 1024
      },
      {
        "length": 32,
        "start": 1063
      }
    ],
    "734": [
      {
        "length": 32,
        "start": 505
      }
    ],
    "736": [
      {
        "length": 32,
        "start": 1290
      },
      {
        "length": 32,
        "start": 1502
      }
    ]
  },
  "source": "// SPDX-License-Identifier: UNLICENSED\npragma solidity ^0.8.19;\n\nimport \"./OpsReady.sol\";\nimport \"./OrderBook.sol\";\nimport \"./OrderDatas.sol\";\n\ncontract OrderExecutor is OpsReady {\n    uint price;\n    OrderBook public orderBook;\n\n    constructor(address _ops, address _taskCreator) OpsReady(_ops, _taskCreator) {\n        price = 100; // arbitrary price\n        orderBook = OrderBook(msg.sender);\n    }\n\n    function setPrice(uint _price) public {\n        price = _price;\n    }\n\n    receive() external payable {}\n\n    function executeOrder(uint orderNonce) external /*onlyDedicatedMsgSender*/ {\n        // execute order with orderNonce here\n        orderBook.setExecuted(orderNonce);\n        // \n        (uint256 fee, address feeToken) = _getFeeDetails();\n        _transfer(fee, feeToken);\n    }\n\n    function withdrawFunds() public {\n        address payable recipient = payable(msg.sender);\n        recipient.transfer(address(this).balance);\n    }\n\n    function checker(uint orderNonce) external view returns (bool canExec, bytes memory execPayload) {\n        canExec = orderBook.getOrder(orderNonce).price <= price; // The condition that needs to be true for the task to be executed, you can filter the condition with the orderId\n        execPayload = abi.encodeCall(OrderExecutor.executeOrder, orderNonce); // The function that you want to call on the contract\n    }\n\n}\n\n\n",
  "sourcePath": "/Users/blabla/Documents/gelato_test/contracts/OrderExecutor.sol",
  "compiler": {
    "name": "solc",
    "version": "0.8.19+commit.7dd6d404.Emscripten.clang"
  },
  "schemaVersion": "3.4.11",
  "updatedAt": "2023-02-27T16:39:17.005Z",
  "devdoc": {
    "kind": "dev",
    "methods": {},
    "version": 1
  },
  "userdoc": {
    "kind": "user",
    "methods": {},
    "version": 1
  }
}