{
  "contractName": "OrderBook",
  "abi": [
    {
      "inputs": [],
      "stateMutability": "nonpayable",
      "type": "constructor"
    },
    {
      "anonymous": false,
      "inputs": [
        {
          "indexed": false,
          "internalType": "string",
          "name": "",
          "type": "string"
        },
        {
          "indexed": false,
          "internalType": "address",
          "name": "",
          "type": "address"
        }
      ],
      "name": "construct",
      "type": "event"
    },
    {
      "inputs": [],
      "name": "admin",
      "outputs": [
        {
          "internalType": "address",
          "name": "",
          "type": "address"
        }
      ],
      "stateMutability": "view",
      "type": "function",
      "constant": true
    },
    {
      "inputs": [],
      "name": "dedicatedMsgSender",
      "outputs": [
        {
          "internalType": "address",
          "name": "",
          "type": "address"
        }
      ],
      "stateMutability": "view",
      "type": "function",
      "constant": true
    },
    {
      "inputs": [],
      "name": "fundsOwner",
      "outputs": [
        {
          "internalType": "address",
          "name": "",
          "type": "address"
        }
      ],
      "stateMutability": "view",
      "type": "function",
      "constant": true
    },
    {
      "inputs": [],
      "name": "ops",
      "outputs": [
        {
          "internalType": "contract IOps",
          "name": "",
          "type": "address"
        }
      ],
      "stateMutability": "view",
      "type": "function",
      "constant": true
    },
    {
      "inputs": [],
      "name": "orderExecutor",
      "outputs": [
        {
          "internalType": "contract OrderExecutor",
          "name": "",
          "type": "address"
        }
      ],
      "stateMutability": "view",
      "type": "function",
      "constant": true
    },
    {
      "inputs": [
        {
          "internalType": "uint256",
          "name": "",
          "type": "uint256"
        }
      ],
      "name": "orders",
      "outputs": [
        {
          "internalType": "address",
          "name": "user",
          "type": "address"
        },
        {
          "internalType": "uint256",
          "name": "price",
          "type": "uint256"
        },
        {
          "internalType": "address",
          "name": "fromToken",
          "type": "address"
        },
        {
          "internalType": "address",
          "name": "toToken",
          "type": "address"
        },
        {
          "internalType": "bytes32",
          "name": "orderId",
          "type": "bytes32"
        },
        {
          "internalType": "bool",
          "name": "isExecuted",
          "type": "bool"
        }
      ],
      "stateMutability": "view",
      "type": "function",
      "constant": true
    },
    {
      "inputs": [],
      "name": "taskTreasury",
      "outputs": [
        {
          "internalType": "contract ITaskTreasuryUpgradable",
          "name": "",
          "type": "address"
        }
      ],
      "stateMutability": "view",
      "type": "function",
      "constant": true
    },
    {
      "inputs": [
        {
          "internalType": "uint256",
          "name": "_amount",
          "type": "uint256"
        },
        {
          "internalType": "address",
          "name": "_token",
          "type": "address"
        }
      ],
      "name": "withdrawFunds",
      "outputs": [],
      "stateMutability": "nonpayable",
      "type": "function"
    },
    {
      "inputs": [
        {
          "internalType": "uint256",
          "name": "price",
          "type": "uint256"
        },
        {
          "internalType": "address",
          "name": "fromToken",
          "type": "address"
        },
        {
          "internalType": "address",
          "name": "toToken",
          "type": "address"
        }
      ],
      "name": "createOrder",
      "outputs": [
        {
          "internalType": "uint256",
          "name": "",
          "type": "uint256"
        }
      ],
      "stateMutability": "nonpayable",
      "type": "function"
    },
    {
      "inputs": [
        {
          "internalType": "uint256",
          "name": "_orderNonce",
          "type": "uint256"
        }
      ],
      "name": "cancelOrder",
      "outputs": [],
      "stateMutability": "nonpayable",
      "type": "function"
    },
    {
      "inputs": [],
      "name": "getExecutorAddress",
      "outputs": [
        {
          "internalType": "address",
          "name": "",
          "type": "address"
        }
      ],
      "stateMutability": "view",
      "type": "function",
      "constant": true
    },
    {
      "inputs": [
        {
          "internalType": "uint256",
          "name": "price",
          "type": "uint256"
        }
      ],
      "name": "setPrice",
      "outputs": [],
      "stateMutability": "nonpayable",
      "type": "function"
    },
    {
      "inputs": [
        {
          "internalType": "uint256",
          "name": "orderNonce",
          "type": "uint256"
        }
      ],
      "name": "setExecuted",
      "outputs": [],
      "stateMutability": "nonpayable",
      "type": "function"
    },
    {
      "inputs": [
        {
          "internalType": "uint256",
          "name": "orderNonce",
          "type": "uint256"
        }
      ],
      "name": "getOrder",
      "outputs": [
        {
          "components": [
            {
              "internalType": "address",
              "name": "user",
              "type": "address"
            },
            {
              "internalType": "uint256",
              "name": "price",
              "type": "uint256"
            },
            {
              "internalType": "address",
              "name": "fromToken",
              "type": "address"
            },
            {
              "internalType": "address",
              "name": "toToken",
              "type": "address"
            },
            {
              "internalType": "bytes32",
              "name": "orderId",
              "type": "bytes32"
            },
            {
              "internalType": "bool",
              "name": "isExecuted",
              "type": "bool"
            }
          ],
          "internalType": "struct OrderDatas",
          "name": "",
          "type": "tuple"
        }
      ],
      "stateMutability": "view",
      "type": "function",
      "constant": true
    },
    {
      "inputs": [
        {
          "internalType": "uint256",
          "name": "orderNonce",
          "type": "uint256"
        }
      ],
      "name": "getOrderId",
      "outputs": [
        {
          "internalType": "bytes32",
          "name": "orderId",
          "type": "bytes32"
        }
      ],
      "stateMutability": "view",
      "type": "function",
      "constant": true
    }
  ],
  "bytecode": "0x6101206040523480156200001257600080fd5b5073c1c6805b857bef1f412519c4a842522431afed393081308173ffffffffffffffffffffffffffffffffffffffff1660808173ffffffffffffffffffffffffffffffffffffffff16815250508173ffffffffffffffffffffffffffffffffffffffff1663573ea5756040518163ffffffff1660e01b8152600401602060405180830381865afa158015620000ab573d6000803e3d6000fd5b505050506040513d601f19601f82011682018060405250810190620000d1919062000436565b73ffffffffffffffffffffffffffffffffffffffff1660c08173ffffffffffffffffffffffffffffffffffffffff168152505073c815db16d4be6ddf2685c201937905abf338f5d773ffffffffffffffffffffffffffffffffffffffff1663ded89a7c826040518263ffffffff1660e01b81526004016200015391906200048d565b6040805180830381865afa15801562000170573d6000803e3d6000fd5b505050506040513d601f19601f8201168201806040525081019062000196919062000518565b508073ffffffffffffffffffffffffffffffffffffffff1660a09073ffffffffffffffffffffffffffffffffffffffff168152505050508073ffffffffffffffffffffffffffffffffffffffff1660e08173ffffffffffffffffffffffffffffffffffffffff168152505060805173ffffffffffffffffffffffffffffffffffffffff1663e60a32136040518163ffffffff1660e01b8152600401602060405180830381865afa1580156200024f573d6000803e3d6000fd5b505050506040513d601f19601f82011682018060405250810190620002759190620005a4565b73ffffffffffffffffffffffffffffffffffffffff166101008173ffffffffffffffffffffffffffffffffffffffff168152505050507fa55e372fa26b20bbe8d4e783b3a8b5cdccb78af8e27dac035fdb2b1b9ba0ead6608051604051620002de919062000637565b60405180910390a16080517308f6dde16166f06e1d486749452dc3a44f1754566040516200030c90620003be565b6200031992919062000669565b604051809103906000f08015801562000336573d6000803e3d6000fd5b50600360006101000a81548173ffffffffffffffffffffffffffffffffffffffff021916908373ffffffffffffffffffffffffffffffffffffffff16021790555033600260006101000a81548173ffffffffffffffffffffffffffffffffffffffff021916908373ffffffffffffffffffffffffffffffffffffffff16021790555062000696565b61164c806200233f83390190565b600080fd5b600073ffffffffffffffffffffffffffffffffffffffff82169050919050565b6000620003fe82620003d1565b9050919050565b6200041081620003f1565b81146200041c57600080fd5b50565b600081519050620004308162000405565b92915050565b6000602082840312156200044f576200044e620003cc565b5b60006200045f848285016200041f565b91505092915050565b60006200047582620003d1565b9050919050565b620004878162000468565b82525050565b6000602082019050620004a460008301846200047c565b92915050565b620004b58162000468565b8114620004c157600080fd5b50565b600081519050620004d581620004aa565b92915050565b60008115159050919050565b620004f281620004db565b8114620004fe57600080fd5b50565b6000815190506200051281620004e7565b92915050565b60008060408385031215620005325762000531620003cc565b5b60006200054285828601620004c4565b9250506020620005558582860162000501565b9150509250929050565b60006200056c8262000468565b9050919050565b6200057e816200055f565b81146200058a57600080fd5b50565b6000815190506200059e8162000573565b92915050565b600060208284031215620005bd57620005bc620003cc565b5b6000620005cd848285016200058d565b91505092915050565b600082825260208201905092915050565b7f61646472657373286f7073290000000000000000000000000000000000000000600082015250565b60006200061f600c83620005d6565b91506200062c82620005e7565b602082019050919050565b60006040820190508181036000830152620006528162000610565b90506200066360208301846200047c565b92915050565b60006040820190506200068060008301856200047c565b6200068f60208301846200047c565b9392505050565b60805160a05160c05160e05161010051611c44620006fb600039600081816106620152610fe8015260008181610412015281816105d4015261069e015260005050600061030301526000818161053101528181610bf8015261100c0152611c446000f3fe608060405234801561001057600080fd5b50600436106100f55760003560e01c80639d2166ae11610097578063d09ef24111610066578063d09ef24114610277578063e60a3213146102a7578063e70abe92146102c5578063f851a440146102e3576100f5565b80639d2166ae146101c4578063a849d644146101f4578063a85c38ef14610212578063bf3cfc3914610247576100f5565b806346ee3c59116100d357806346ee3c5914610152578063514fcac714610170578063744bfe611461018c57806391b7f5ed146101a8576100f5565b806328f150eb146100fa5780632993c69014610118578063350157a814610134575b600080fd5b610102610301565b60405161010f919061116c565b60405180910390f35b610132600480360381019061012d91906111c2565b610325565b005b61013c6103e6565b604051610149919061116c565b60405180910390f35b61015a610410565b604051610167919061116c565b60405180910390f35b61018a600480360381019061018591906111c2565b610434565b005b6101a660048036038101906101a1919061121b565b6105d2565b005b6101c260048036038101906101bd91906111c2565b610713565b005b6101de60048036038101906101d991906111c2565b6107a3565b6040516101eb9190611274565b60405180910390f35b6101fc6107c2565b60405161020991906112ee565b60405180910390f35b61022c600480360381019061022791906111c2565b6107e8565b60405161023e96959493929190611333565b60405180910390f35b610261600480360381019061025c9190611394565b610891565b60405161026e91906113e7565b60405180910390f35b610291600480360381019061028c91906111c2565b610e89565b60405161029e91906114b9565b60405180910390f35b6102af610fe6565b6040516102bc9190611507565b60405180910390f35b6102cd61100a565b6040516102da9190611543565b60405180910390f35b6102eb61102e565b6040516102f8919061116c565b60405180910390f35b7f000000000000000000000000000000000000000000000000000000000000000081565b600360009054906101000a900473ffffffffffffffffffffffffffffffffffffffff1673ffffffffffffffffffffffffffffffffffffffff163373ffffffffffffffffffffffffffffffffffffffff16146103b5576040517f08c379a00000000000000000000000000000000000000000000000000000000081526004016103ac906115e1565b60405180910390fd5b600160008083815260200190815260200160002060050160006101000a81548160ff02191690831515021790555050565b6000600360009054906101000a900473ffffffffffffffffffffffffffffffffffffffff16905090565b7f000000000000000000000000000000000000000000000000000000000000000081565b600260009054906101000a900473ffffffffffffffffffffffffffffffffffffffff1673ffffffffffffffffffffffffffffffffffffffff163373ffffffffffffffffffffffffffffffffffffffff1614806104f057503373ffffffffffffffffffffffffffffffffffffffff1660008083815260200190815260200160002060000160009054906101000a900473ffffffffffffffffffffffffffffffffffffffff1673ffffffffffffffffffffffffffffffffffffffff16145b61052f576040517f08c379a00000000000000000000000000000000000000000000000000000000081526004016105269061164d565b60405180910390fd5b7f000000000000000000000000000000000000000000000000000000000000000073ffffffffffffffffffffffffffffffffffffffff1663ee8ca3b5600080848152602001908152602001600020600401546040518263ffffffff1660e01b815260040161059d9190611274565b600060405180830381600087803b1580156105b757600080fd5b505af11580156105cb573d6000803e3d6000fd5b5050505050565b7f000000000000000000000000000000000000000000000000000000000000000073ffffffffffffffffffffffffffffffffffffffff163373ffffffffffffffffffffffffffffffffffffffff1614610660576040517f08c379a0000000000000000000000000000000000000000000000000000000008152600401610657906116df565b60405180910390fd5b7f000000000000000000000000000000000000000000000000000000000000000073ffffffffffffffffffffffffffffffffffffffff16631c20fadd7f000000000000000000000000000000000000000000000000000000000000000083856040518463ffffffff1660e01b81526004016106dd93929190611720565b600060405180830381600087803b1580156106f757600080fd5b505af115801561070b573d6000803e3d6000fd5b505050505050565b600360009054906101000a900473ffffffffffffffffffffffffffffffffffffffff1673ffffffffffffffffffffffffffffffffffffffff166391b7f5ed826040518263ffffffff1660e01b815260040161076e91906113e7565b600060405180830381600087803b15801561078857600080fd5b505af115801561079c573d6000803e3d6000fd5b5050505050565b6000806000838152602001908152602001600020600401549050919050565b600360009054906101000a900473ffffffffffffffffffffffffffffffffffffffff1681565b60006020528060005260406000206000915090508060000160009054906101000a900473ffffffffffffffffffffffffffffffffffffffff16908060010154908060020160009054906101000a900473ffffffffffffffffffffffffffffffffffffffff16908060030160009054906101000a900473ffffffffffffffffffffffffffffffffffffffff16908060040154908060050160009054906101000a900460ff16905086565b600080600360009054906101000a900473ffffffffffffffffffffffffffffffffffffffff1673ffffffffffffffffffffffffffffffffffffffff166394f611346001546040516024016108e591906113e7565b604051602081830303815290604052915060e01b6020820180517bffffffffffffffffffffffffffffffffffffffffffffffffffffffff8381831617835250505050905060006040518060400160405280600367ffffffffffffffff81111561095157610950611757565b5b60405190808252806020026020018201604052801561097f5781602001602082028036833780820191505090505b508152602001600367ffffffffffffffff8111156109a05761099f611757565b5b6040519080825280602002602001820160405280156109d357816020015b60608152602001906001900390816109be5790505b508152509050600081600001516000815181106109f3576109f2611786565b5b60200260200101906003811115610a0d57610a0c6117b5565b5b90816003811115610a2157610a206117b5565b5b8152505060028160000151600181518110610a3f57610a3e611786565b5b60200260200101906003811115610a5957610a586117b5565b5b90816003811115610a6d57610a6c6117b5565b5b8152505060038160000151600281518110610a8b57610a8a611786565b5b60200260200101906003811115610aa557610aa46117b5565b5b90816003811115610ab957610ab86117b5565b5b81525050610b7b600360009054906101000a900473ffffffffffffffffffffffffffffffffffffffff16600360009054906101000a900473ffffffffffffffffffffffffffffffffffffffff1673ffffffffffffffffffffffffffffffffffffffff166394e05b2c600154604051602401610b3491906113e7565b604051602081830303815290604052915060e01b6020820180517bffffffffffffffffffffffffffffffffffffffffffffffffffffffff8381831617835250505050611054565b8160200151600081518110610b9357610b92611786565b5b6020026020010181905250610ba6611080565b8160200151600181518110610bbe57610bbd611786565b5b6020026020010181905250610bd1611097565b8160200151600281518110610be957610be8611786565b5b602002602001018190525060007f000000000000000000000000000000000000000000000000000000000000000073ffffffffffffffffffffffffffffffffffffffff16633323b467600360009054906101000a900473ffffffffffffffffffffffffffffffffffffffff16858573eeeeeeeeeeeeeeeeeeeeeeeeeeeeeeeeeeeeeeee6040518563ffffffff1660e01b8152600401610c8b9493929190611abb565b6020604051808303816000875af1158015610caa573d6000803e3d6000fd5b505050506040513d601f19601f82011682018060405250810190610cce9190611b3a565b90506040518060c001604052803373ffffffffffffffffffffffffffffffffffffffff1681526020018881526020018773ffffffffffffffffffffffffffffffffffffffff1681526020018673ffffffffffffffffffffffffffffffffffffffff16815260200182815260200160001515815250600080600154815260200190815260200160002060008201518160000160006101000a81548173ffffffffffffffffffffffffffffffffffffffff021916908373ffffffffffffffffffffffffffffffffffffffff1602179055506020820151816001015560408201518160020160006101000a81548173ffffffffffffffffffffffffffffffffffffffff021916908373ffffffffffffffffffffffffffffffffffffffff16021790555060608201518160030160006101000a81548173ffffffffffffffffffffffffffffffffffffffff021916908373ffffffffffffffffffffffffffffffffffffffff1602179055506080820151816004015560a08201518160050160006101000a81548160ff02191690831515021790555090505060016000815480929190610e7590611b96565b919050555060015493505050509392505050565b610e916110ae565b6000808381526020019081526020016000206040518060c00160405290816000820160009054906101000a900473ffffffffffffffffffffffffffffffffffffffff1673ffffffffffffffffffffffffffffffffffffffff1673ffffffffffffffffffffffffffffffffffffffff168152602001600182015481526020016002820160009054906101000a900473ffffffffffffffffffffffffffffffffffffffff1673ffffffffffffffffffffffffffffffffffffffff1673ffffffffffffffffffffffffffffffffffffffff1681526020016003820160009054906101000a900473ffffffffffffffffffffffffffffffffffffffff1673ffffffffffffffffffffffffffffffffffffffff1673ffffffffffffffffffffffffffffffffffffffff168152602001600482015481526020016005820160009054906101000a900460ff1615151515815250509050919050565b7f000000000000000000000000000000000000000000000000000000000000000081565b7f000000000000000000000000000000000000000000000000000000000000000081565b600260009054906101000a900473ffffffffffffffffffffffffffffffffffffffff1681565b60608282604051602001611069929190611bde565b604051602081830303815290604052905092915050565b606060405180602001604052806000815250905090565b606060405180602001604052806000815250905090565b6040518060c00160405280600073ffffffffffffffffffffffffffffffffffffffff16815260200160008152602001600073ffffffffffffffffffffffffffffffffffffffff168152602001600073ffffffffffffffffffffffffffffffffffffffff168152602001600080191681526020016000151581525090565b600073ffffffffffffffffffffffffffffffffffffffff82169050919050565b60006111568261112b565b9050919050565b6111668161114b565b82525050565b6000602082019050611181600083018461115d565b92915050565b600080fd5b6000819050919050565b61119f8161118c565b81146111aa57600080fd5b50565b6000813590506111bc81611196565b92915050565b6000602082840312156111d8576111d7611187565b5b60006111e6848285016111ad565b91505092915050565b6111f88161114b565b811461120357600080fd5b50565b600081359050611215816111ef565b92915050565b6000806040838503121561123257611231611187565b5b6000611240858286016111ad565b925050602061125185828601611206565b9150509250929050565b6000819050919050565b61126e8161125b565b82525050565b60006020820190506112896000830184611265565b92915050565b6000819050919050565b60006112b46112af6112aa8461112b565b61128f565b61112b565b9050919050565b60006112c682611299565b9050919050565b60006112d8826112bb565b9050919050565b6112e8816112cd565b82525050565b600060208201905061130360008301846112df565b92915050565b6113128161118c565b82525050565b60008115159050919050565b61132d81611318565b82525050565b600060c082019050611348600083018961115d565b6113556020830188611309565b611362604083018761115d565b61136f606083018661115d565b61137c6080830185611265565b61138960a0830184611324565b979650505050505050565b6000806000606084860312156113ad576113ac611187565b5b60006113bb868287016111ad565b93505060206113cc86828701611206565b92505060406113dd86828701611206565b9150509250925092565b60006020820190506113fc6000830184611309565b92915050565b61140b8161114b565b82525050565b61141a8161118c565b82525050565b6114298161125b565b82525050565b61143881611318565b82525050565b60c0820160008201516114546000850182611402565b5060208201516114676020850182611411565b50604082015161147a6040850182611402565b50606082015161148d6060850182611402565b5060808201516114a06080850182611420565b5060a08201516114b360a085018261142f565b50505050565b600060c0820190506114ce600083018461143e565b92915050565b60006114df82611299565b9050919050565b60006114f1826114d4565b9050919050565b611501816114e6565b82525050565b600060208201905061151c60008301846114f8565b92915050565b600061152d826114d4565b9050919050565b61153d81611522565b82525050565b60006020820190506115586000830184611534565b92915050565b600082825260208201905092915050565b7f4f6e6c7920746865206578656375746f722063616e2073657420746865206f7260008201527f6465722061732065786563757465640000000000000000000000000000000000602082015250565b60006115cb602f8361155e565b91506115d68261156f565b604082019050919050565b600060208201905081810360008301526115fa816115be565b9050919050565b7f4e6f7420616c6c6f77656420746f2063616e63656c2074686973206f72646572600082015250565b600061163760208361155e565b915061164282611601565b602082019050919050565b600060208201905081810360008301526116668161162a565b9050919050565b7f4f6e6c792066756e6473206f776e65722063616e20776974686472617720667560008201527f6e64730000000000000000000000000000000000000000000000000000000000602082015250565b60006116c960238361155e565b91506116d48261166d565b604082019050919050565b600060208201905081810360008301526116f8816116bc565b9050919050565b600061170a8261112b565b9050919050565b61171a816116ff565b82525050565b60006060820190506117356000830186611711565b611742602083018561115d565b61174f6040830184611309565b949350505050565b7f4e487b7100000000000000000000000000000000000000000000000000000000600052604160045260246000fd5b7f4e487b7100000000000000000000000000000000000000000000000000000000600052603260045260246000fd5b7f4e487b7100000000000000000000000000000000000000000000000000000000600052602160045260246000fd5b600081519050919050565b600082825260208201905092915050565b60005b8381101561181e578082015181840152602081019050611803565b60008484015250505050565b6000601f19601f8301169050919050565b6000611846826117e4565b61185081856117ef565b9350611860818560208601611800565b6118698161182a565b840191505092915050565b600081519050919050565b600082825260208201905092915050565b6000819050602082019050919050565b600481106118b1576118b06117b5565b5b50565b60008190506118c2826118a0565b919050565b60006118d2826118b4565b9050919050565b6118e2816118c7565b82525050565b60006118f483836118d9565b60208301905092915050565b6000602082019050919050565b600061191882611874565b611922818561187f565b935061192d83611890565b8060005b8381101561195e57815161194588826118e8565b975061195083611900565b925050600181019050611931565b5085935050505092915050565b600081519050919050565b600082825260208201905092915050565b6000819050602082019050919050565b600082825260208201905092915050565b60006119b3826117e4565b6119bd8185611997565b93506119cd818560208601611800565b6119d68161182a565b840191505092915050565b60006119ed83836119a8565b905092915050565b6000602082019050919050565b6000611a0d8261196b565b611a178185611976565b935083602082028501611a2985611987565b8060005b85811015611a655784840389528151611a4685826119e1565b9450611a51836119f5565b925060208a01995050600181019050611a2d565b50829750879550505050505092915050565b60006040830160008301518482036000860152611a94828261190d565b91505060208301518482036020860152611aae8282611a02565b9150508091505092915050565b6000608082019050611ad0600083018761115d565b8181036020830152611ae2818661183b565b90508181036040830152611af68185611a77565b9050611b05606083018461115d565b95945050505050565b611b178161125b565b8114611b2257600080fd5b50565b600081519050611b3481611b0e565b92915050565b600060208284031215611b5057611b4f611187565b5b6000611b5e84828501611b25565b91505092915050565b7f4e487b7100000000000000000000000000000000000000000000000000000000600052601160045260246000fd5b6000611ba18261118c565b91507fffffffffffffffffffffffffffffffffffffffffffffffffffffffffffffffff8203611bd357611bd2611b67565b5b600182019050919050565b6000604082019050611bf3600083018561115d565b8181036020830152611c05818461183b565b9050939250505056fea2646970667358221220dda63f07f956c44e9e6c7bf2375bb90310de0cf4eaffdbfbac17ede97517208a64736f6c6343000813003360e06040523480156200001157600080fd5b506040516200164c3803806200164c833981810160405281019062000037919062000296565b81818173ffffffffffffffffffffffffffffffffffffffff1660808173ffffffffffffffffffffffffffffffffffffffff16815250508173ffffffffffffffffffffffffffffffffffffffff1663573ea5756040518163ffffffff1660e01b8152600401602060405180830381865afa158015620000b9573d6000803e3d6000fd5b505050506040513d601f19601f82011682018060405250810190620000df919062000322565b73ffffffffffffffffffffffffffffffffffffffff1660c08173ffffffffffffffffffffffffffffffffffffffff168152505073c815db16d4be6ddf2685c201937905abf338f5d773ffffffffffffffffffffffffffffffffffffffff1663ded89a7c826040518263ffffffff1660e01b815260040162000161919062000365565b6040805180830381865afa1580156200017e573d6000803e3d6000fd5b505050506040513d601f19601f82011682018060405250810190620001a49190620003bf565b508073ffffffffffffffffffffffffffffffffffffffff1660a09073ffffffffffffffffffffffffffffffffffffffff16815250505050606460008190555033600160006101000a81548173ffffffffffffffffffffffffffffffffffffffff021916908373ffffffffffffffffffffffffffffffffffffffff160217905550505062000406565b600080fd5b600073ffffffffffffffffffffffffffffffffffffffff82169050919050565b60006200025e8262000231565b9050919050565b620002708162000251565b81146200027c57600080fd5b50565b600081519050620002908162000265565b92915050565b60008060408385031215620002b057620002af6200022c565b5b6000620002c0858286016200027f565b9250506020620002d3858286016200027f565b9150509250929050565b6000620002ea8262000231565b9050919050565b620002fc81620002dd565b81146200030857600080fd5b50565b6000815190506200031c81620002f1565b92915050565b6000602082840312156200033b576200033a6200022c565b5b60006200034b848285016200030b565b91505092915050565b6200035f8162000251565b82525050565b60006020820190506200037c600083018462000354565b92915050565b60008115159050919050565b620003998162000382565b8114620003a557600080fd5b50565b600081519050620003b9816200038e565b92915050565b60008060408385031215620003d957620003d86200022c565b5b6000620003e9858286016200027f565b9250506020620003fc85828601620003a8565b9150509250929050565b60805160a05160c051611208620004446000396000818161053e0152610612015260006101f9015260008181610434015261045b01526112086000f3fe6080604052600436106100745760003560e01c806391b7f5ed1161004e57806391b7f5ed146100ed57806394e05b2c1461011657806394f6113414610154578063e70abe921461017d5761007b565b806324600fc31461008057806328f150eb14610097578063776af5ba146100c25761007b565b3661007b57005b600080fd5b34801561008c57600080fd5b506100956101a8565b005b3480156100a357600080fd5b506100ac6101f7565b6040516100b99190610997565b60405180910390f35b3480156100ce57600080fd5b506100d761021b565b6040516100e49190610a11565b60405180910390f35b3480156100f957600080fd5b50610114600480360381019061010f9190610a71565b610241565b005b34801561012257600080fd5b5061013d60048036038101906101389190610a71565b61024b565b60405161014b929190610b49565b60405180910390f35b34801561016057600080fd5b5061017b60048036038101906101769190610a71565b610352565b005b34801561018957600080fd5b50610192610432565b60405161019f9190610b9a565b60405180910390f35b60003390508073ffffffffffffffffffffffffffffffffffffffff166108fc479081150290604051600060405180830381858888f193505050501580156101f3573d6000803e3d6000fd5b5050565b7f000000000000000000000000000000000000000000000000000000000000000081565b600160009054906101000a900473ffffffffffffffffffffffffffffffffffffffff1681565b8060008190555050565b60006060600054600160009054906101000a900473ffffffffffffffffffffffffffffffffffffffff1673ffffffffffffffffffffffffffffffffffffffff1663d09ef241856040518263ffffffff1660e01b81526004016102ad9190610bc4565b60c060405180830381865afa1580156102ca573d6000803e3d6000fd5b505050506040513d601f19601f820116820180604052508101906102ee9190610da2565b60200151149150826040516024016103069190610bc4565b6040516020818303038152906040526394f6113460e01b6020820180517bffffffffffffffffffffffffffffffffffffffffffffffffffffffff83818316178352505050509050915091565b600160009054906101000a900473ffffffffffffffffffffffffffffffffffffffff1673ffffffffffffffffffffffffffffffffffffffff16632993c690826040518263ffffffff1660e01b81526004016103ad9190610bc4565b600060405180830381600087803b1580156103c757600080fd5b505af11580156103db573d6000803e3d6000fd5b505050507fee02c8198e15339d816eee1c984a22b43d97a3fd967befcfdb05b9b1c98eda3f60405161040c90610e2c565b60405180910390a160008061041f610456565b9150915061042d82826104f3565b505050565b7f000000000000000000000000000000000000000000000000000000000000000081565b6000807f000000000000000000000000000000000000000000000000000000000000000073ffffffffffffffffffffffffffffffffffffffff1663b810c6366040518163ffffffff1660e01b81526004016040805180830381865afa1580156104c3573d6000803e3d6000fd5b505050506040513d601f19601f820116820180604052508101906104e79190610e4c565b80925081935050509091565b73eeeeeeeeeeeeeeeeeeeeeeeeeeeeeeeeeeeeeeee73ffffffffffffffffffffffffffffffffffffffff168173ffffffffffffffffffffffffffffffffffffffff160361060c5760007f000000000000000000000000000000000000000000000000000000000000000073ffffffffffffffffffffffffffffffffffffffff168360405161058090610ebd565b60006040518083038185875af1925050503d80600081146105bd576040519150601f19603f3d011682016040523d82523d6000602084013e6105c2565b606091505b5050905080610606576040517f08c379a00000000000000000000000000000000000000000000000000000000081526004016105fd90610f1e565b60405180910390fd5b50610638565b610637817f00000000000000000000000000000000000000000000000000000000000000008461063c565b5b5050565b6106bd8363a9059cbb60e01b848460405160240161065b929190610f3e565b604051602081830303815290604052907bffffffffffffffffffffffffffffffffffffffffffffffffffffffff19166020820180517bffffffffffffffffffffffffffffffffffffffffffffffffffffffff83818316178352505050506106c2565b505050565b6000610724826040518060400160405280602081526020017f5361666545524332303a206c6f772d6c6576656c2063616c6c206661696c65648152508573ffffffffffffffffffffffffffffffffffffffff166107899092919063ffffffff16565b905060008151111561078457808060200190518101906107449190610f67565b610783576040517f08c379a000000000000000000000000000000000000000000000000000000000815260040161077a90611006565b60405180910390fd5b5b505050565b606061079884846000856107a1565b90509392505050565b6060824710156107e6576040517f08c379a00000000000000000000000000000000000000000000000000000000081526004016107dd90611098565b60405180910390fd5b6000808673ffffffffffffffffffffffffffffffffffffffff16858760405161080f91906110e9565b60006040518083038185875af1925050503d806000811461084c576040519150601f19603f3d011682016040523d82523d6000602084013e610851565b606091505b50915091506108628783838761086e565b92505050949350505050565b606083156108d05760008351036108c857610888856108e3565b6108c7576040517f08c379a00000000000000000000000000000000000000000000000000000000081526004016108be9061114c565b60405180910390fd5b5b8290506108db565b6108da8383610906565b5b949350505050565b6000808273ffffffffffffffffffffffffffffffffffffffff163b119050919050565b6000825111156109195781518083602001fd5b806040517f08c379a000000000000000000000000000000000000000000000000000000000815260040161094d91906111b0565b60405180910390fd5b600073ffffffffffffffffffffffffffffffffffffffff82169050919050565b600061098182610956565b9050919050565b61099181610976565b82525050565b60006020820190506109ac6000830184610988565b92915050565b6000819050919050565b60006109d76109d26109cd84610956565b6109b2565b610956565b9050919050565b60006109e9826109bc565b9050919050565b60006109fb826109de565b9050919050565b610a0b816109f0565b82525050565b6000602082019050610a266000830184610a02565b92915050565b6000604051905090565b600080fd5b6000819050919050565b610a4e81610a3b565b8114610a5957600080fd5b50565b600081359050610a6b81610a45565b92915050565b600060208284031215610a8757610a86610a36565b5b6000610a9584828501610a5c565b91505092915050565b60008115159050919050565b610ab381610a9e565b82525050565b600081519050919050565b600082825260208201905092915050565b60005b83811015610af3578082015181840152602081019050610ad8565b60008484015250505050565b6000601f19601f8301169050919050565b6000610b1b82610ab9565b610b258185610ac4565b9350610b35818560208601610ad5565b610b3e81610aff565b840191505092915050565b6000604082019050610b5e6000830185610aaa565b8181036020830152610b708184610b10565b90509392505050565b6000610b84826109de565b9050919050565b610b9481610b79565b82525050565b6000602082019050610baf6000830184610b8b565b92915050565b610bbe81610a3b565b82525050565b6000602082019050610bd96000830184610bb5565b92915050565b600080fd5b7f4e487b7100000000000000000000000000000000000000000000000000000000600052604160045260246000fd5b610c1c82610aff565b810181811067ffffffffffffffff82111715610c3b57610c3a610be4565b5b80604052505050565b6000610c4e610a2c565b9050610c5a8282610c13565b919050565b610c6881610976565b8114610c7357600080fd5b50565b600081519050610c8581610c5f565b92915050565b600081519050610c9a81610a45565b92915050565b6000819050919050565b610cb381610ca0565b8114610cbe57600080fd5b50565b600081519050610cd081610caa565b92915050565b610cdf81610a9e565b8114610cea57600080fd5b50565b600081519050610cfc81610cd6565b92915050565b600060c08284031215610d1857610d17610bdf565b5b610d2260c0610c44565b90506000610d3284828501610c76565b6000830152506020610d4684828501610c8b565b6020830152506040610d5a84828501610c76565b6040830152506060610d6e84828501610c76565b6060830152506080610d8284828501610cc1565b60808301525060a0610d9684828501610ced565b60a08301525092915050565b600060c08284031215610db857610db7610a36565b5b6000610dc684828501610d02565b91505092915050565b600082825260208201905092915050565b7f6f72646572206578656375746564000000000000000000000000000000000000600082015250565b6000610e16600e83610dcf565b9150610e2182610de0565b602082019050919050565b60006020820190508181036000830152610e4581610e09565b9050919050565b60008060408385031215610e6357610e62610a36565b5b6000610e7185828601610c8b565b9250506020610e8285828601610c76565b9150509250929050565b600081905092915050565b50565b6000610ea7600083610e8c565b9150610eb282610e97565b600082019050919050565b6000610ec882610e9a565b9150819050919050565b7f5f7472616e736665723a20455448207472616e73666572206661696c65640000600082015250565b6000610f08601e83610dcf565b9150610f1382610ed2565b602082019050919050565b60006020820190508181036000830152610f3781610efb565b9050919050565b6000604082019050610f536000830185610988565b610f606020830184610bb5565b9392505050565b600060208284031215610f7d57610f7c610a36565b5b6000610f8b84828501610ced565b91505092915050565b7f5361666545524332303a204552433230206f7065726174696f6e20646964206e60008201527f6f74207375636365656400000000000000000000000000000000000000000000602082015250565b6000610ff0602a83610dcf565b9150610ffb82610f94565b604082019050919050565b6000602082019050818103600083015261101f81610fe3565b9050919050565b7f416464726573733a20696e73756666696369656e742062616c616e636520666f60008201527f722063616c6c0000000000000000000000000000000000000000000000000000602082015250565b6000611082602683610dcf565b915061108d82611026565b604082019050919050565b600060208201905081810360008301526110b181611075565b9050919050565b60006110c382610ab9565b6110cd8185610e8c565b93506110dd818560208601610ad5565b80840191505092915050565b60006110f582846110b8565b915081905092915050565b7f416464726573733a2063616c6c20746f206e6f6e2d636f6e7472616374000000600082015250565b6000611136601d83610dcf565b915061114182611100565b602082019050919050565b6000602082019050818103600083015261116581611129565b9050919050565b600081519050919050565b60006111828261116c565b61118c8185610dcf565b935061119c818560208601610ad5565b6111a581610aff565b840191505092915050565b600060208201905081810360008301526111ca8184611177565b90509291505056fea2646970667358221220b86ef155cdb6d900e544bb933e85a4c34fc7651773084040bc003e4ac180423464736f6c63430008130033",
  "immutableReferences": {
    "732": [
      {
        "length": 32,
        "start": 1329
      },
      {
        "length": 32,
        "start": 3064
      },
      {
        "length": 32,
        "start": 4108
      }
    ],
    "734": [
      {
        "length": 32,
        "start": 771
      }
    ],
    "856": [
      {
        "length": 32,
        "start": 1042
      },
      {
        "length": 32,
        "start": 1492
      },
      {
        "length": 32,
        "start": 1694
      }
    ],
    "859": [
      {
        "length": 32,
        "start": 1634
      },
      {
        "length": 32,
        "start": 4072
      }
    ]
  },
  "source": "// SPDX-License-Identifier: UNLICENSED\npragma solidity ^0.8.19;\n\nimport \"./Types.sol\";\nimport \"./OrderExecutor.sol\";\nimport \"./OpsTaskCreator.sol\";\n\nstruct OrderDatas {\n    address user;\n    uint256 price;\n    address fromToken;\n    address toToken;\n    bytes32 orderId;\n    bool isExecuted;\n}\n\ncontract OrderBook is OpsTaskCreator {\n    mapping (uint => OrderDatas) public orders; // returns order data\n    uint orderNonce;\n\n    address public admin;\n    OrderExecutor public orderExecutor;\n\n    event construct(string, address);\n\n    constructor() OpsTaskCreator(0xc1C6805B857Bef1f412519C4A842522431aFed39, address(this)) {\n        emit construct(\"address(ops)\", address(ops));\n        orderExecutor = new OrderExecutor(address(ops), 0x08f6dDE16166F06e1d486749452dc3A44f175456);\n        admin = msg.sender;\n    }\n\n    function createOrder(uint price, address fromToken, address toToken) external returns (uint) {\n        \n        bytes memory execData = abi.encodeCall(orderExecutor.executeOrder, (orderNonce));\n\n        ModuleData memory moduleData = ModuleData({\n            modules: new Module[](3),\n            args: new bytes[](3)\n        });\n\n        moduleData.modules[0] = Module.RESOLVER;\n        moduleData.modules[1] = Module.PROXY;\n        moduleData.modules[2] = Module.SINGLE_EXEC;\n\n        moduleData.args[0] = _resolverModuleArg(address(orderExecutor), abi.encodeCall(orderExecutor.checker, (orderNonce)));\n        moduleData.args[1] = _proxyModuleArg();\n        moduleData.args[2] = _singleExecModuleArg();\n\n        // Faulty\n        bytes32 orderId = ops.createTask(\n            address(orderExecutor), // contract to execute\n            execData, // function to execute\n            moduleData,\n            0xEeeeeEeeeEeEeeEeEeEeeEEEeeeeEeeeeeeeEEeE\n        );\n\n        orders[orderNonce] = OrderDatas(msg.sender, price, fromToken, toToken, orderId, false);\n        orderNonce++;\n\n        return orderNonce;\n    }\n\n    function cancelOrder(uint _orderNonce) external {\n        require(\n            msg.sender == admin || orders[_orderNonce].user == msg.sender,\n            \"Not allowed to cancel this order\"\n        );\n        ops.cancelTask(orders[_orderNonce].orderId);\n    }\n\n    // function to return executor address in order to check the txs\n    function getExecutorAddress() public view returns (address) {\n        return address(orderExecutor);\n    }\n\n    function setPrice(uint price) public {\n        orderExecutor.setPrice(price);\n    }\n\n    \n    function setExecuted(uint orderNonce) public {\n        require(msg.sender == address(orderExecutor), \"Only the executor can set the order as executed\");\n        orders[orderNonce].isExecuted = true;\n    }\n\n    function getOrder(uint orderNonce) public view returns (OrderDatas memory) {\n        return orders[orderNonce];\n    }\n\n    function getOrderId(uint orderNonce) public view returns (bytes32 orderId) {\n        return orders[orderNonce].orderId;\n    }\n\n}\n\n\n",
  "sourcePath": "/Users/blabla/Documents/gelato_test/contracts/OrderBook.sol",
  "compiler": {
    "name": "solc",
    "version": "0.8.19+commit.7dd6d404.Emscripten.clang"
  },
  "schemaVersion": "3.4.11",
  "updatedAt": "2023-02-28T06:53:50.829Z",
  "networkType": "ethereum",
  "devdoc": {
    "kind": "dev",
    "methods": {
      "withdrawFunds(uint256,address)": {
        "details": "Withdraw funds from this contract's Gelato balance to fundsOwner."
      }
    },
    "version": 1
  },
  "userdoc": {
    "kind": "user",
    "methods": {},
    "version": 1
  }
}