{
  "contractName": "OrderBook",
  "abi": [
    {
      "inputs": [],
      "stateMutability": "nonpayable",
      "type": "constructor"
    },
    {
      "inputs": [],
      "name": "admin",
      "outputs": [
        {
          "internalType": "address",
          "name": "",
          "type": "address"
        }
      ],
      "stateMutability": "view",
      "type": "function",
      "constant": true
    },
    {
      "inputs": [],
      "name": "dedicatedMsgSender",
      "outputs": [
        {
          "internalType": "address",
          "name": "",
          "type": "address"
        }
      ],
      "stateMutability": "view",
      "type": "function",
      "constant": true
    },
    {
      "inputs": [],
      "name": "fundsOwner",
      "outputs": [
        {
          "internalType": "address",
          "name": "",
          "type": "address"
        }
      ],
      "stateMutability": "view",
      "type": "function",
      "constant": true
    },
    {
      "inputs": [],
      "name": "ops",
      "outputs": [
        {
          "internalType": "contract IOps",
          "name": "",
          "type": "address"
        }
      ],
      "stateMutability": "view",
      "type": "function",
      "constant": true
    },
    {
      "inputs": [],
      "name": "orderExecutor",
      "outputs": [
        {
          "internalType": "contract OrderExecutor",
          "name": "",
          "type": "address"
        }
      ],
      "stateMutability": "view",
      "type": "function",
      "constant": true
    },
    {
      "inputs": [
        {
          "internalType": "uint256",
          "name": "",
          "type": "uint256"
        }
      ],
      "name": "orders",
      "outputs": [
        {
          "internalType": "address",
          "name": "user",
          "type": "address"
        },
        {
          "internalType": "uint256",
          "name": "price",
          "type": "uint256"
        },
        {
          "internalType": "address",
          "name": "fromToken",
          "type": "address"
        },
        {
          "internalType": "address",
          "name": "toToken",
          "type": "address"
        },
        {
          "internalType": "bytes32",
          "name": "orderId",
          "type": "bytes32"
        },
        {
          "internalType": "bool",
          "name": "isExecuted",
          "type": "bool"
        }
      ],
      "stateMutability": "view",
      "type": "function",
      "constant": true
    },
    {
      "inputs": [],
      "name": "taskTreasury",
      "outputs": [
        {
          "internalType": "contract ITaskTreasuryUpgradable",
          "name": "",
          "type": "address"
        }
      ],
      "stateMutability": "view",
      "type": "function",
      "constant": true
    },
    {
      "inputs": [
        {
          "internalType": "uint256",
          "name": "_amount",
          "type": "uint256"
        },
        {
          "internalType": "address",
          "name": "_token",
          "type": "address"
        }
      ],
      "name": "withdrawFunds",
      "outputs": [],
      "stateMutability": "nonpayable",
      "type": "function"
    },
    {
      "inputs": [
        {
          "internalType": "uint256",
          "name": "price",
          "type": "uint256"
        },
        {
          "internalType": "address",
          "name": "fromToken",
          "type": "address"
        },
        {
          "internalType": "address",
          "name": "toToken",
          "type": "address"
        }
      ],
      "name": "createOrder",
      "outputs": [
        {
          "internalType": "uint256",
          "name": "",
          "type": "uint256"
        }
      ],
      "stateMutability": "nonpayable",
      "type": "function"
    },
    {
      "inputs": [
        {
          "internalType": "uint256",
          "name": "_orderNonce",
          "type": "uint256"
        }
      ],
      "name": "cancelOrder",
      "outputs": [],
      "stateMutability": "nonpayable",
      "type": "function"
    },
    {
      "inputs": [],
      "name": "getExecutorAddress",
      "outputs": [
        {
          "internalType": "address",
          "name": "",
          "type": "address"
        }
      ],
      "stateMutability": "view",
      "type": "function",
      "constant": true
    },
    {
      "inputs": [
        {
          "internalType": "uint256",
          "name": "price",
          "type": "uint256"
        }
      ],
      "name": "setPrice",
      "outputs": [],
      "stateMutability": "nonpayable",
      "type": "function"
    },
    {
      "inputs": [
        {
          "internalType": "uint256",
          "name": "orderNonce",
          "type": "uint256"
        }
      ],
      "name": "setExecuted",
      "outputs": [],
      "stateMutability": "nonpayable",
      "type": "function"
    },
    {
      "inputs": [
        {
          "internalType": "uint256",
          "name": "orderNonce",
          "type": "uint256"
        }
      ],
      "name": "getOrder",
      "outputs": [
        {
          "components": [
            {
              "internalType": "address",
              "name": "user",
              "type": "address"
            },
            {
              "internalType": "uint256",
              "name": "price",
              "type": "uint256"
            },
            {
              "internalType": "address",
              "name": "fromToken",
              "type": "address"
            },
            {
              "internalType": "address",
              "name": "toToken",
              "type": "address"
            },
            {
              "internalType": "bytes32",
              "name": "orderId",
              "type": "bytes32"
            },
            {
              "internalType": "bool",
              "name": "isExecuted",
              "type": "bool"
            }
          ],
          "internalType": "struct OrderDatas",
          "name": "",
          "type": "tuple"
        }
      ],
      "stateMutability": "view",
      "type": "function",
      "constant": true
    }
  ],
  "bytecode": "0x6101206040523480156200001257600080fd5b5073c1c6805b857bef1f412519c4a842522431afed393081308173ffffffffffffffffffffffffffffffffffffffff1660808173ffffffffffffffffffffffffffffffffffffffff16815250508173ffffffffffffffffffffffffffffffffffffffff1663573ea5756040518163ffffffff1660e01b8152600401602060405180830381865afa158015620000ab573d6000803e3d6000fd5b505050506040513d601f19601f82011682018060405250810190620000d1919062000403565b73ffffffffffffffffffffffffffffffffffffffff1660c08173ffffffffffffffffffffffffffffffffffffffff168152505073c815db16d4be6ddf2685c201937905abf338f5d773ffffffffffffffffffffffffffffffffffffffff1663ded89a7c826040518263ffffffff1660e01b81526004016200015391906200045a565b6040805180830381865afa15801562000170573d6000803e3d6000fd5b505050506040513d601f19601f82011682018060405250810190620001969190620004e5565b508073ffffffffffffffffffffffffffffffffffffffff1660a09073ffffffffffffffffffffffffffffffffffffffff168152505050508073ffffffffffffffffffffffffffffffffffffffff1660e08173ffffffffffffffffffffffffffffffffffffffff168152505060805173ffffffffffffffffffffffffffffffffffffffff1663e60a32136040518163ffffffff1660e01b8152600401602060405180830381865afa1580156200024f573d6000803e3d6000fd5b505050506040513d601f19601f8201168201806040525081019062000275919062000571565b73ffffffffffffffffffffffffffffffffffffffff166101008173ffffffffffffffffffffffffffffffffffffffff168152505050506080517308f6dde16166f06e1d486749452dc3a44f175456604051620002d1906200038b565b620002de929190620005a3565b604051809103906000f080158015620002fb573d6000803e3d6000fd5b50600360006101000a81548173ffffffffffffffffffffffffffffffffffffffff021916908373ffffffffffffffffffffffffffffffffffffffff16021790555033600260006101000a81548173ffffffffffffffffffffffffffffffffffffffff021916908373ffffffffffffffffffffffffffffffffffffffff1602179055506000600181905550620005d0565b6115ac806200217e83390190565b600080fd5b600073ffffffffffffffffffffffffffffffffffffffff82169050919050565b6000620003cb826200039e565b9050919050565b620003dd81620003be565b8114620003e957600080fd5b50565b600081519050620003fd81620003d2565b92915050565b6000602082840312156200041c576200041b62000399565b5b60006200042c84828501620003ec565b91505092915050565b600062000442826200039e565b9050919050565b620004548162000435565b82525050565b600060208201905062000471600083018462000449565b92915050565b620004828162000435565b81146200048e57600080fd5b50565b600081519050620004a28162000477565b92915050565b60008115159050919050565b620004bf81620004a8565b8114620004cb57600080fd5b50565b600081519050620004df81620004b4565b92915050565b60008060408385031215620004ff57620004fe62000399565b5b60006200050f8582860162000491565b92505060206200052285828601620004ce565b9150509250929050565b6000620005398262000435565b9050919050565b6200054b816200052c565b81146200055757600080fd5b50565b6000815190506200056b8162000540565b92915050565b6000602082840312156200058a576200058962000399565b5b60006200059a848285016200055a565b91505092915050565b6000604082019050620005ba600083018562000449565b620005c9602083018462000449565b9392505050565b60805160a05160c05160e05161010051611b4962000635600039600081816106270152610f040152600081816103d701528181610599015261066301526000505060006102c80152600081816104f601528181610b270152610f280152611b496000f3fe608060405234801561001057600080fd5b50600436106100ea5760003560e01c8063a849d6441161008c578063d09ef24111610066578063d09ef2411461023c578063e60a32131461026c578063e70abe921461028a578063f851a440146102a8576100ea565b8063a849d644146101b9578063a85c38ef146101d7578063bf3cfc391461020c576100ea565b806346ee3c59116100c857806346ee3c5914610147578063514fcac714610165578063744bfe611461018157806391b7f5ed1461019d576100ea565b806328f150eb146100ef5780632993c6901461010d578063350157a814610129575b600080fd5b6100f76102c6565b6040516101049190611071565b60405180910390f35b610127600480360381019061012291906110c7565b6102ea565b005b6101316103ab565b60405161013e9190611071565b60405180910390f35b61014f6103d5565b60405161015c9190611071565b60405180910390f35b61017f600480360381019061017a91906110c7565b6103f9565b005b61019b60048036038101906101969190611120565b610597565b005b6101b760048036038101906101b291906110c7565b6106d8565b005b6101c1610768565b6040516101ce91906111bf565b60405180910390f35b6101f160048036038101906101ec91906110c7565b61078e565b6040516102039695949392919061121d565b60405180910390f35b6102266004803603810190610221919061127e565b610837565b60405161023391906112d1565b60405180910390f35b610256600480360381019061025191906110c7565b610da5565b60405161026391906113a3565b60405180910390f35b610274610f02565b60405161028191906113f1565b60405180910390f35b610292610f26565b60405161029f919061142d565b60405180910390f35b6102b0610f4a565b6040516102bd9190611071565b60405180910390f35b7f000000000000000000000000000000000000000000000000000000000000000081565b600360009054906101000a900473ffffffffffffffffffffffffffffffffffffffff1673ffffffffffffffffffffffffffffffffffffffff163373ffffffffffffffffffffffffffffffffffffffff161461037a576040517f08c379a0000000000000000000000000000000000000000000000000000000008152600401610371906114cb565b60405180910390fd5b600160008083815260200190815260200160002060050160006101000a81548160ff02191690831515021790555050565b6000600360009054906101000a900473ffffffffffffffffffffffffffffffffffffffff16905090565b7f000000000000000000000000000000000000000000000000000000000000000081565b600260009054906101000a900473ffffffffffffffffffffffffffffffffffffffff1673ffffffffffffffffffffffffffffffffffffffff163373ffffffffffffffffffffffffffffffffffffffff1614806104b557503373ffffffffffffffffffffffffffffffffffffffff1660008083815260200190815260200160002060000160009054906101000a900473ffffffffffffffffffffffffffffffffffffffff1673ffffffffffffffffffffffffffffffffffffffff16145b6104f4576040517f08c379a00000000000000000000000000000000000000000000000000000000081526004016104eb90611537565b60405180910390fd5b7f000000000000000000000000000000000000000000000000000000000000000073ffffffffffffffffffffffffffffffffffffffff1663ee8ca3b5600080848152602001908152602001600020600401546040518263ffffffff1660e01b81526004016105629190611557565b600060405180830381600087803b15801561057c57600080fd5b505af1158015610590573d6000803e3d6000fd5b5050505050565b7f000000000000000000000000000000000000000000000000000000000000000073ffffffffffffffffffffffffffffffffffffffff163373ffffffffffffffffffffffffffffffffffffffff1614610625576040517f08c379a000000000000000000000000000000000000000000000000000000000815260040161061c906115e4565b60405180910390fd5b7f000000000000000000000000000000000000000000000000000000000000000073ffffffffffffffffffffffffffffffffffffffff16631c20fadd7f000000000000000000000000000000000000000000000000000000000000000083856040518463ffffffff1660e01b81526004016106a293929190611625565b600060405180830381600087803b1580156106bc57600080fd5b505af11580156106d0573d6000803e3d6000fd5b505050505050565b600360009054906101000a900473ffffffffffffffffffffffffffffffffffffffff1673ffffffffffffffffffffffffffffffffffffffff166391b7f5ed826040518263ffffffff1660e01b815260040161073391906112d1565b600060405180830381600087803b15801561074d57600080fd5b505af1158015610761573d6000803e3d6000fd5b5050505050565b600360009054906101000a900473ffffffffffffffffffffffffffffffffffffffff1681565b60006020528060005260406000206000915090508060000160009054906101000a900473ffffffffffffffffffffffffffffffffffffffff16908060010154908060020160009054906101000a900473ffffffffffffffffffffffffffffffffffffffff16908060030160009054906101000a900473ffffffffffffffffffffffffffffffffffffffff16908060040154908060050160009054906101000a900460ff16905086565b600080600360009054906101000a900473ffffffffffffffffffffffffffffffffffffffff1673ffffffffffffffffffffffffffffffffffffffff166394f6113460015460405160240161088b91906112d1565b604051602081830303815290604052915060e01b6020820180517bffffffffffffffffffffffffffffffffffffffffffffffffffffffff8381831617835250505050905060006040518060400160405280600267ffffffffffffffff8111156108f7576108f661165c565b5b6040519080825280602002602001820160405280156109255781602001602082028036833780820191505090505b508152602001600267ffffffffffffffff8111156109465761094561165c565b5b60405190808252806020026020018201604052801561097957816020015b60608152602001906001900390816109645790505b508152509050600081600001516000815181106109995761099861168b565b5b602002602001019060038111156109b3576109b26116ba565b5b908160038111156109c7576109c66116ba565b5b81525050600381600001516001815181106109e5576109e461168b565b5b602002602001019060038111156109ff576109fe6116ba565b5b90816003811115610a1357610a126116ba565b5b81525050610ad5600360009054906101000a900473ffffffffffffffffffffffffffffffffffffffff16600360009054906101000a900473ffffffffffffffffffffffffffffffffffffffff1673ffffffffffffffffffffffffffffffffffffffff166394e05b2c600154604051602401610a8e91906112d1565b604051602081830303815290604052915060e01b6020820180517bffffffffffffffffffffffffffffffffffffffffffffffffffffffff8381831617835250505050610f70565b8160200151600081518110610aed57610aec61168b565b5b6020026020010181905250610b00610f9c565b8160200151600181518110610b1857610b1761168b565b5b602002602001018190525060007f000000000000000000000000000000000000000000000000000000000000000073ffffffffffffffffffffffffffffffffffffffff16633323b467600360009054906101000a900473ffffffffffffffffffffffffffffffffffffffff16858560006040518563ffffffff1660e01b8152600401610ba794939291906119c0565b6020604051808303816000875af1158015610bc6573d6000803e3d6000fd5b505050506040513d601f19601f82011682018060405250810190610bea9190611a3f565b905060016000815480929190610bff90611a9b565b91905055506040518060c001604052803373ffffffffffffffffffffffffffffffffffffffff1681526020018881526020018773ffffffffffffffffffffffffffffffffffffffff1681526020018673ffffffffffffffffffffffffffffffffffffffff16815260200182815260200160001515815250600080600154815260200190815260200160002060008201518160000160006101000a81548173ffffffffffffffffffffffffffffffffffffffff021916908373ffffffffffffffffffffffffffffffffffffffff1602179055506020820151816001015560408201518160020160006101000a81548173ffffffffffffffffffffffffffffffffffffffff021916908373ffffffffffffffffffffffffffffffffffffffff16021790555060608201518160030160006101000a81548173ffffffffffffffffffffffffffffffffffffffff021916908373ffffffffffffffffffffffffffffffffffffffff1602179055506080820151816004015560a08201518160050160006101000a81548160ff02191690831515021790555090505060015493505050509392505050565b610dad610fb3565b6000808381526020019081526020016000206040518060c00160405290816000820160009054906101000a900473ffffffffffffffffffffffffffffffffffffffff1673ffffffffffffffffffffffffffffffffffffffff1673ffffffffffffffffffffffffffffffffffffffff168152602001600182015481526020016002820160009054906101000a900473ffffffffffffffffffffffffffffffffffffffff1673ffffffffffffffffffffffffffffffffffffffff1673ffffffffffffffffffffffffffffffffffffffff1681526020016003820160009054906101000a900473ffffffffffffffffffffffffffffffffffffffff1673ffffffffffffffffffffffffffffffffffffffff1673ffffffffffffffffffffffffffffffffffffffff168152602001600482015481526020016005820160009054906101000a900460ff1615151515815250509050919050565b7f000000000000000000000000000000000000000000000000000000000000000081565b7f000000000000000000000000000000000000000000000000000000000000000081565b600260009054906101000a900473ffffffffffffffffffffffffffffffffffffffff1681565b60608282604051602001610f85929190611ae3565b604051602081830303815290604052905092915050565b606060405180602001604052806000815250905090565b6040518060c00160405280600073ffffffffffffffffffffffffffffffffffffffff16815260200160008152602001600073ffffffffffffffffffffffffffffffffffffffff168152602001600073ffffffffffffffffffffffffffffffffffffffff168152602001600080191681526020016000151581525090565b600073ffffffffffffffffffffffffffffffffffffffff82169050919050565b600061105b82611030565b9050919050565b61106b81611050565b82525050565b60006020820190506110866000830184611062565b92915050565b600080fd5b6000819050919050565b6110a481611091565b81146110af57600080fd5b50565b6000813590506110c18161109b565b92915050565b6000602082840312156110dd576110dc61108c565b5b60006110eb848285016110b2565b91505092915050565b6110fd81611050565b811461110857600080fd5b50565b60008135905061111a816110f4565b92915050565b600080604083850312156111375761113661108c565b5b6000611145858286016110b2565b92505060206111568582860161110b565b9150509250929050565b6000819050919050565b600061118561118061117b84611030565b611160565b611030565b9050919050565b60006111978261116a565b9050919050565b60006111a98261118c565b9050919050565b6111b98161119e565b82525050565b60006020820190506111d460008301846111b0565b92915050565b6111e381611091565b82525050565b6000819050919050565b6111fc816111e9565b82525050565b60008115159050919050565b61121781611202565b82525050565b600060c0820190506112326000830189611062565b61123f60208301886111da565b61124c6040830187611062565b6112596060830186611062565b61126660808301856111f3565b61127360a083018461120e565b979650505050505050565b6000806000606084860312156112975761129661108c565b5b60006112a5868287016110b2565b93505060206112b68682870161110b565b92505060406112c78682870161110b565b9150509250925092565b60006020820190506112e660008301846111da565b92915050565b6112f581611050565b82525050565b61130481611091565b82525050565b611313816111e9565b82525050565b61132281611202565b82525050565b60c08201600082015161133e60008501826112ec565b50602082015161135160208501826112fb565b50604082015161136460408501826112ec565b50606082015161137760608501826112ec565b50608082015161138a608085018261130a565b5060a082015161139d60a0850182611319565b50505050565b600060c0820190506113b86000830184611328565b92915050565b60006113c98261116a565b9050919050565b60006113db826113be565b9050919050565b6113eb816113d0565b82525050565b600060208201905061140660008301846113e2565b92915050565b6000611417826113be565b9050919050565b6114278161140c565b82525050565b6000602082019050611442600083018461141e565b92915050565b600082825260208201905092915050565b7f4f6e6c7920746865206578656375746f722063616e2073657420746865206f7260008201527f6465722061732065786563757465640000000000000000000000000000000000602082015250565b60006114b5602f83611448565b91506114c082611459565b604082019050919050565b600060208201905081810360008301526114e4816114a8565b9050919050565b7f4e6f7420616c6c6f77656420746f2063616e63656c2074686973206f72646572600082015250565b6000611521602083611448565b915061152c826114eb565b602082019050919050565b6000602082019050818103600083015261155081611514565b9050919050565b600060208201905061156c60008301846111f3565b92915050565b7f4f6e6c792066756e6473206f776e65722063616e20776974686472617720667560008201527f6e64730000000000000000000000000000000000000000000000000000000000602082015250565b60006115ce602383611448565b91506115d982611572565b604082019050919050565b600060208201905081810360008301526115fd816115c1565b9050919050565b600061160f82611030565b9050919050565b61161f81611604565b82525050565b600060608201905061163a6000830186611616565b6116476020830185611062565b61165460408301846111da565b949350505050565b7f4e487b7100000000000000000000000000000000000000000000000000000000600052604160045260246000fd5b7f4e487b7100000000000000000000000000000000000000000000000000000000600052603260045260246000fd5b7f4e487b7100000000000000000000000000000000000000000000000000000000600052602160045260246000fd5b600081519050919050565b600082825260208201905092915050565b60005b83811015611723578082015181840152602081019050611708565b60008484015250505050565b6000601f19601f8301169050919050565b600061174b826116e9565b61175581856116f4565b9350611765818560208601611705565b61176e8161172f565b840191505092915050565b600081519050919050565b600082825260208201905092915050565b6000819050602082019050919050565b600481106117b6576117b56116ba565b5b50565b60008190506117c7826117a5565b919050565b60006117d7826117b9565b9050919050565b6117e7816117cc565b82525050565b60006117f983836117de565b60208301905092915050565b6000602082019050919050565b600061181d82611779565b6118278185611784565b935061183283611795565b8060005b8381101561186357815161184a88826117ed565b975061185583611805565b925050600181019050611836565b5085935050505092915050565b600081519050919050565b600082825260208201905092915050565b6000819050602082019050919050565b600082825260208201905092915050565b60006118b8826116e9565b6118c2818561189c565b93506118d2818560208601611705565b6118db8161172f565b840191505092915050565b60006118f283836118ad565b905092915050565b6000602082019050919050565b600061191282611870565b61191c818561187b565b93508360208202850161192e8561188c565b8060005b8581101561196a578484038952815161194b85826118e6565b9450611956836118fa565b925060208a01995050600181019050611932565b50829750879550505050505092915050565b600060408301600083015184820360008601526119998282611812565b915050602083015184820360208601526119b38282611907565b9150508091505092915050565b60006080820190506119d56000830187611062565b81810360208301526119e78186611740565b905081810360408301526119fb818561197c565b9050611a0a6060830184611062565b95945050505050565b611a1c816111e9565b8114611a2757600080fd5b50565b600081519050611a3981611a13565b92915050565b600060208284031215611a5557611a5461108c565b5b6000611a6384828501611a2a565b91505092915050565b7f4e487b7100000000000000000000000000000000000000000000000000000000600052601160045260246000fd5b6000611aa682611091565b91507fffffffffffffffffffffffffffffffffffffffffffffffffffffffffffffffff8203611ad857611ad7611a6c565b5b600182019050919050565b6000604082019050611af86000830185611062565b8181036020830152611b0a8184611740565b9050939250505056fea26469706673582212209a7f9dd6091e06a6d21b31214446d6cbb3c199cc8e4fbdfeb67b450a092a64c964736f6c6343000813003360e06040523480156200001157600080fd5b50604051620015ac380380620015ac833981810160405281019062000037919062000296565b81818173ffffffffffffffffffffffffffffffffffffffff1660808173ffffffffffffffffffffffffffffffffffffffff16815250508173ffffffffffffffffffffffffffffffffffffffff1663573ea5756040518163ffffffff1660e01b8152600401602060405180830381865afa158015620000b9573d6000803e3d6000fd5b505050506040513d601f19601f82011682018060405250810190620000df919062000322565b73ffffffffffffffffffffffffffffffffffffffff1660c08173ffffffffffffffffffffffffffffffffffffffff168152505073c815db16d4be6ddf2685c201937905abf338f5d773ffffffffffffffffffffffffffffffffffffffff1663ded89a7c826040518263ffffffff1660e01b815260040162000161919062000365565b6040805180830381865afa1580156200017e573d6000803e3d6000fd5b505050506040513d601f19601f82011682018060405250810190620001a49190620003bf565b508073ffffffffffffffffffffffffffffffffffffffff1660a09073ffffffffffffffffffffffffffffffffffffffff16815250505050606460008190555033600160006101000a81548173ffffffffffffffffffffffffffffffffffffffff021916908373ffffffffffffffffffffffffffffffffffffffff160217905550505062000406565b600080fd5b600073ffffffffffffffffffffffffffffffffffffffff82169050919050565b60006200025e8262000231565b9050919050565b620002708162000251565b81146200027c57600080fd5b50565b600081519050620002908162000265565b92915050565b60008060408385031215620002b057620002af6200022c565b5b6000620002c0858286016200027f565b9250506020620002d3858286016200027f565b9150509250929050565b6000620002ea8262000231565b9050919050565b620002fc81620002dd565b81146200030857600080fd5b50565b6000815190506200031c81620002f1565b92915050565b6000602082840312156200033b576200033a6200022c565b5b60006200034b848285016200030b565b91505092915050565b6200035f8162000251565b82525050565b60006020820190506200037c600083018462000354565b92915050565b60008115159050919050565b620003998162000382565b8114620003a557600080fd5b50565b600081519050620003b9816200038e565b92915050565b60008060408385031215620003d957620003d86200022c565b5b6000620003e9858286016200027f565b9250506020620003fc85828601620003a8565b9150509250929050565b60805160a05160c051611168620004446000396000818161050a01526105de015260006101f9015260008181610400015261042701526111686000f3fe6080604052600436106100745760003560e01c806391b7f5ed1161004e57806391b7f5ed146100ed57806394e05b2c1461011657806394f6113414610154578063e70abe921461017d5761007b565b806324600fc31461008057806328f150eb14610097578063776af5ba146100c25761007b565b3661007b57005b600080fd5b34801561008c57600080fd5b506100956101a8565b005b3480156100a357600080fd5b506100ac6101f7565b6040516100b99190610963565b60405180910390f35b3480156100ce57600080fd5b506100d761021b565b6040516100e491906109dd565b60405180910390f35b3480156100f957600080fd5b50610114600480360381019061010f9190610a3d565b610241565b005b34801561012257600080fd5b5061013d60048036038101906101389190610a3d565b61024b565b60405161014b929190610b15565b60405180910390f35b34801561016057600080fd5b5061017b60048036038101906101769190610a3d565b610353565b005b34801561018957600080fd5b506101926103fe565b60405161019f9190610b66565b60405180910390f35b60003390508073ffffffffffffffffffffffffffffffffffffffff166108fc479081150290604051600060405180830381858888f193505050501580156101f3573d6000803e3d6000fd5b5050565b7f000000000000000000000000000000000000000000000000000000000000000081565b600160009054906101000a900473ffffffffffffffffffffffffffffffffffffffff1681565b8060008190555050565b60006060600054600160009054906101000a900473ffffffffffffffffffffffffffffffffffffffff1673ffffffffffffffffffffffffffffffffffffffff1663d09ef241856040518263ffffffff1660e01b81526004016102ad9190610b90565b60c060405180830381865afa1580156102ca573d6000803e3d6000fd5b505050506040513d601f19601f820116820180604052508101906102ee9190610d6e565b6020015111159150826040516024016103079190610b90565b6040516020818303038152906040526394f6113460e01b6020820180517bffffffffffffffffffffffffffffffffffffffffffffffffffffffff83818316178352505050509050915091565b600160009054906101000a900473ffffffffffffffffffffffffffffffffffffffff1673ffffffffffffffffffffffffffffffffffffffff16632993c690826040518263ffffffff1660e01b81526004016103ae9190610b90565b600060405180830381600087803b1580156103c857600080fd5b505af11580156103dc573d6000803e3d6000fd5b505050506000806103eb610422565b915091506103f982826104bf565b505050565b7f000000000000000000000000000000000000000000000000000000000000000081565b6000807f000000000000000000000000000000000000000000000000000000000000000073ffffffffffffffffffffffffffffffffffffffff1663b810c6366040518163ffffffff1660e01b81526004016040805180830381865afa15801561048f573d6000803e3d6000fd5b505050506040513d601f19601f820116820180604052508101906104b39190610d9b565b80925081935050509091565b73eeeeeeeeeeeeeeeeeeeeeeeeeeeeeeeeeeeeeeee73ffffffffffffffffffffffffffffffffffffffff168173ffffffffffffffffffffffffffffffffffffffff16036105d85760007f000000000000000000000000000000000000000000000000000000000000000073ffffffffffffffffffffffffffffffffffffffff168360405161054c90610e0c565b60006040518083038185875af1925050503d8060008114610589576040519150601f19603f3d011682016040523d82523d6000602084013e61058e565b606091505b50509050806105d2576040517f08c379a00000000000000000000000000000000000000000000000000000000081526004016105c990610e7e565b60405180910390fd5b50610604565b610603817f000000000000000000000000000000000000000000000000000000000000000084610608565b5b5050565b6106898363a9059cbb60e01b8484604051602401610627929190610e9e565b604051602081830303815290604052907bffffffffffffffffffffffffffffffffffffffffffffffffffffffff19166020820180517bffffffffffffffffffffffffffffffffffffffffffffffffffffffff838183161783525050505061068e565b505050565b60006106f0826040518060400160405280602081526020017f5361666545524332303a206c6f772d6c6576656c2063616c6c206661696c65648152508573ffffffffffffffffffffffffffffffffffffffff166107559092919063ffffffff16565b905060008151111561075057808060200190518101906107109190610ec7565b61074f576040517f08c379a000000000000000000000000000000000000000000000000000000000815260040161074690610f66565b60405180910390fd5b5b505050565b6060610764848460008561076d565b90509392505050565b6060824710156107b2576040517f08c379a00000000000000000000000000000000000000000000000000000000081526004016107a990610ff8565b60405180910390fd5b6000808673ffffffffffffffffffffffffffffffffffffffff1685876040516107db9190611049565b60006040518083038185875af1925050503d8060008114610818576040519150601f19603f3d011682016040523d82523d6000602084013e61081d565b606091505b509150915061082e8783838761083a565b92505050949350505050565b6060831561089c57600083510361089457610854856108af565b610893576040517f08c379a000000000000000000000000000000000000000000000000000000000815260040161088a906110ac565b60405180910390fd5b5b8290506108a7565b6108a683836108d2565b5b949350505050565b6000808273ffffffffffffffffffffffffffffffffffffffff163b119050919050565b6000825111156108e55781518083602001fd5b806040517f08c379a00000000000000000000000000000000000000000000000000000000081526004016109199190611110565b60405180910390fd5b600073ffffffffffffffffffffffffffffffffffffffff82169050919050565b600061094d82610922565b9050919050565b61095d81610942565b82525050565b60006020820190506109786000830184610954565b92915050565b6000819050919050565b60006109a361099e61099984610922565b61097e565b610922565b9050919050565b60006109b582610988565b9050919050565b60006109c7826109aa565b9050919050565b6109d7816109bc565b82525050565b60006020820190506109f260008301846109ce565b92915050565b6000604051905090565b600080fd5b6000819050919050565b610a1a81610a07565b8114610a2557600080fd5b50565b600081359050610a3781610a11565b92915050565b600060208284031215610a5357610a52610a02565b5b6000610a6184828501610a28565b91505092915050565b60008115159050919050565b610a7f81610a6a565b82525050565b600081519050919050565b600082825260208201905092915050565b60005b83811015610abf578082015181840152602081019050610aa4565b60008484015250505050565b6000601f19601f8301169050919050565b6000610ae782610a85565b610af18185610a90565b9350610b01818560208601610aa1565b610b0a81610acb565b840191505092915050565b6000604082019050610b2a6000830185610a76565b8181036020830152610b3c8184610adc565b90509392505050565b6000610b50826109aa565b9050919050565b610b6081610b45565b82525050565b6000602082019050610b7b6000830184610b57565b92915050565b610b8a81610a07565b82525050565b6000602082019050610ba56000830184610b81565b92915050565b600080fd5b7f4e487b7100000000000000000000000000000000000000000000000000000000600052604160045260246000fd5b610be882610acb565b810181811067ffffffffffffffff82111715610c0757610c06610bb0565b5b80604052505050565b6000610c1a6109f8565b9050610c268282610bdf565b919050565b610c3481610942565b8114610c3f57600080fd5b50565b600081519050610c5181610c2b565b92915050565b600081519050610c6681610a11565b92915050565b6000819050919050565b610c7f81610c6c565b8114610c8a57600080fd5b50565b600081519050610c9c81610c76565b92915050565b610cab81610a6a565b8114610cb657600080fd5b50565b600081519050610cc881610ca2565b92915050565b600060c08284031215610ce457610ce3610bab565b5b610cee60c0610c10565b90506000610cfe84828501610c42565b6000830152506020610d1284828501610c57565b6020830152506040610d2684828501610c42565b6040830152506060610d3a84828501610c42565b6060830152506080610d4e84828501610c8d565b60808301525060a0610d6284828501610cb9565b60a08301525092915050565b600060c08284031215610d8457610d83610a02565b5b6000610d9284828501610cce565b91505092915050565b60008060408385031215610db257610db1610a02565b5b6000610dc085828601610c57565b9250506020610dd185828601610c42565b9150509250929050565b600081905092915050565b50565b6000610df6600083610ddb565b9150610e0182610de6565b600082019050919050565b6000610e1782610de9565b9150819050919050565b600082825260208201905092915050565b7f5f7472616e736665723a20455448207472616e73666572206661696c65640000600082015250565b6000610e68601e83610e21565b9150610e7382610e32565b602082019050919050565b60006020820190508181036000830152610e9781610e5b565b9050919050565b6000604082019050610eb36000830185610954565b610ec06020830184610b81565b9392505050565b600060208284031215610edd57610edc610a02565b5b6000610eeb84828501610cb9565b91505092915050565b7f5361666545524332303a204552433230206f7065726174696f6e20646964206e60008201527f6f74207375636365656400000000000000000000000000000000000000000000602082015250565b6000610f50602a83610e21565b9150610f5b82610ef4565b604082019050919050565b60006020820190508181036000830152610f7f81610f43565b9050919050565b7f416464726573733a20696e73756666696369656e742062616c616e636520666f60008201527f722063616c6c0000000000000000000000000000000000000000000000000000602082015250565b6000610fe2602683610e21565b9150610fed82610f86565b604082019050919050565b6000602082019050818103600083015261101181610fd5565b9050919050565b600061102382610a85565b61102d8185610ddb565b935061103d818560208601610aa1565b80840191505092915050565b60006110558284611018565b915081905092915050565b7f416464726573733a2063616c6c20746f206e6f6e2d636f6e7472616374000000600082015250565b6000611096601d83610e21565b91506110a182611060565b602082019050919050565b600060208201905081810360008301526110c581611089565b9050919050565b600081519050919050565b60006110e2826110cc565b6110ec8185610e21565b93506110fc818560208601610aa1565b61110581610acb565b840191505092915050565b6000602082019050818103600083015261112a81846110d7565b90509291505056fea26469706673582212205579cb1073882a87c1b5a275a78b7717059ae7b5aa727bb3fa61d4d7a34e7e3364736f6c63430008130033",
  "immutableReferences": {
    "732": [
      {
        "length": 32,
        "start": 1270
      },
      {
        "length": 32,
        "start": 2855
      },
      {
        "length": 32,
        "start": 3880
      }
    ],
    "734": [
      {
        "length": 32,
        "start": 712
      }
    ],
    "856": [
      {
        "length": 32,
        "start": 983
      },
      {
        "length": 32,
        "start": 1433
      },
      {
        "length": 32,
        "start": 1635
      }
    ],
    "859": [
      {
        "length": 32,
        "start": 1575
      },
      {
        "length": 32,
        "start": 3844
      }
    ]
  },
  "source": "// SPDX-License-Identifier: UNLICENSED\npragma solidity ^0.8.19;\n\nimport \"./Types.sol\";\nimport \"./OrderExecutor.sol\";\nimport \"./OpsTaskCreator.sol\";\n\ncontract OrderBook is OpsTaskCreator {\n    mapping (uint => OrderDatas) public orders; // returns order data\n    uint orderNonce;\n\n    address public admin;\n    OrderExecutor public orderExecutor;\n\n    constructor() OpsTaskCreator(0xc1C6805B857Bef1f412519C4A842522431aFed39, address(this)) {\n        orderExecutor = new OrderExecutor(address(ops), 0x08f6dDE16166F06e1d486749452dc3A44f175456);\n        admin = msg.sender;\n        orderNonce = 0;\n    }\n\n    function createOrder(uint price, address fromToken, address toToken) external returns (uint) {\n        \n        bytes memory execData = abi.encodeCall(orderExecutor.executeOrder, (orderNonce));\n\n        ModuleData memory moduleData = ModuleData({\n            modules: new Module[](2),\n            args: new bytes[](2)\n        });\n        moduleData.modules[0] = Module.RESOLVER;\n        moduleData.modules[1] = Module.SINGLE_EXEC;\n\n        moduleData.args[0] = _resolverModuleArg(address(orderExecutor), abi.encodeCall(orderExecutor.checker, orderNonce));\n        moduleData.args[1] = _singleExecModuleArg();\n\n        bytes32 orderId = ops.createTask(\n            address(orderExecutor), // contract to execute\n            execData, // function to execute\n            moduleData,\n            address(0)\n        );\n\n        orderNonce++;\n        orders[orderNonce] = OrderDatas(msg.sender, price, fromToken, toToken, orderId, false);\n\n        return orderNonce;\n    }\n\n    function cancelOrder(uint _orderNonce) external {\n        require(\n            msg.sender == admin || orders[_orderNonce].user == msg.sender,\n            \"Not allowed to cancel this order\"\n        );\n        ops.cancelTask(orders[_orderNonce].orderId);\n    }\n\n    // function to return executor address in order to check the txs\n    function getExecutorAddress() public view returns (address) {\n        return address(orderExecutor);\n    }\n\n    function setPrice(uint price) public {\n        orderExecutor.setPrice(price);\n    }\n\n    \n    function setExecuted(uint orderNonce) public {\n        require(msg.sender == address(orderExecutor), \"Only the executor can set the order as executed\");\n        orders[orderNonce].isExecuted = true;\n    }\n    \n\n    \n\n    function getOrder(uint orderNonce) public view returns (OrderDatas memory) {\n        return orders[orderNonce];\n    }\n\n}\n\n\n",
  "sourcePath": "/Users/blabla/Documents/gelato_test/contracts/OrderBook.sol",
  "compiler": {
    "name": "solc",
    "version": "0.8.19+commit.7dd6d404.Emscripten.clang"
  },
  "schemaVersion": "3.4.11",
  "updatedAt": "2023-02-27T16:40:39.760Z",
  "networkType": "ethereum",
  "devdoc": {
    "kind": "dev",
    "methods": {
      "withdrawFunds(uint256,address)": {
        "details": "Withdraw funds from this contract's Gelato balance to fundsOwner."
      }
    },
    "version": 1
  },
  "userdoc": {
    "kind": "user",
    "methods": {},
    "version": 1
  }
}