{
  "contractName": "OrderExecutor",
  "abi": [
    {
      "inputs": [
        {
          "internalType": "address",
          "name": "_ops",
          "type": "address"
        },
        {
          "internalType": "address",
          "name": "_taskCreator",
          "type": "address"
        },
        {
          "internalType": "address",
          "name": "_swapRouter",
          "type": "address"
        }
      ],
      "stateMutability": "nonpayable",
      "type": "constructor"
    },
    {
      "anonymous": false,
      "inputs": [
        {
          "indexed": false,
          "internalType": "string",
          "name": "",
          "type": "string"
        },
        {
          "indexed": false,
          "internalType": "uint256",
          "name": "",
          "type": "uint256"
        }
      ],
      "name": "OrderDone",
      "type": "event"
    },
    {
      "inputs": [],
      "name": "dedicatedMsgSender",
      "outputs": [
        {
          "internalType": "address",
          "name": "",
          "type": "address"
        }
      ],
      "stateMutability": "view",
      "type": "function",
      "constant": true
    },
    {
      "inputs": [],
      "name": "ops",
      "outputs": [
        {
          "internalType": "contract IOps",
          "name": "",
          "type": "address"
        }
      ],
      "stateMutability": "view",
      "type": "function",
      "constant": true
    },
    {
      "inputs": [],
      "name": "price",
      "outputs": [
        {
          "internalType": "uint256",
          "name": "",
          "type": "uint256"
        }
      ],
      "stateMutability": "view",
      "type": "function",
      "constant": true
    },
    {
      "stateMutability": "payable",
      "type": "receive",
      "payable": true
    },
    {
      "inputs": [
        {
          "internalType": "uint256",
          "name": "_price",
          "type": "uint256"
        }
      ],
      "name": "setPrice",
      "outputs": [],
      "stateMutability": "nonpayable",
      "type": "function"
    },
    {
      "inputs": [
        {
          "internalType": "address",
          "name": "_lendingVault",
          "type": "address"
        }
      ],
      "name": "setLendingVault",
      "outputs": [],
      "stateMutability": "nonpayable",
      "type": "function"
    },
    {
      "inputs": [
        {
          "internalType": "uint256",
          "name": "orderNonce",
          "type": "uint256"
        }
      ],
      "name": "executeOrder",
      "outputs": [],
      "stateMutability": "nonpayable",
      "type": "function"
    },
    {
      "inputs": [
        {
          "internalType": "uint256",
          "name": "orderNonce",
          "type": "uint256"
        }
      ],
      "name": "checker",
      "outputs": [
        {
          "internalType": "bool",
          "name": "canExec",
          "type": "bool"
        },
        {
          "internalType": "bytes",
          "name": "execPayload",
          "type": "bytes"
        }
      ],
      "stateMutability": "view",
      "type": "function",
      "constant": true
    },
    {
      "inputs": [],
      "name": "withdraw",
      "outputs": [],
      "stateMutability": "nonpayable",
      "type": "function"
    }
  ],
  "bytecode": "0x6101006040523480156200001257600080fd5b50604051620021ab380380620021ab83398181016040528101906200003891906200030d565b82828173ffffffffffffffffffffffffffffffffffffffff1660808173ffffffffffffffffffffffffffffffffffffffff16815250508173ffffffffffffffffffffffffffffffffffffffff1663573ea5756040518163ffffffff1660e01b8152600401602060405180830381865afa158015620000ba573d6000803e3d6000fd5b505050506040513d601f19601f82011682018060405250810190620000e09190620003ae565b73ffffffffffffffffffffffffffffffffffffffff1660c08173ffffffffffffffffffffffffffffffffffffffff168152505073c815db16d4be6ddf2685c201937905abf338f5d773ffffffffffffffffffffffffffffffffffffffff1663ded89a7c826040518263ffffffff1660e01b8152600401620001629190620003f1565b6040805180830381865afa1580156200017f573d6000803e3d6000fd5b505050506040513d601f19601f82011682018060405250810190620001a591906200044b565b508073ffffffffffffffffffffffffffffffffffffffff1660a09073ffffffffffffffffffffffffffffffffffffffff16815250505050606460008190555033600160006101000a81548173ffffffffffffffffffffffffffffffffffffffff021916908373ffffffffffffffffffffffffffffffffffffffff16021790555081600260006101000a81548173ffffffffffffffffffffffffffffffffffffffff021916908373ffffffffffffffffffffffffffffffffffffffff1602179055508073ffffffffffffffffffffffffffffffffffffffff1660e08173ffffffffffffffffffffffffffffffffffffffff168152505050505062000492565b600080fd5b600073ffffffffffffffffffffffffffffffffffffffff82169050919050565b6000620002d582620002a8565b9050919050565b620002e781620002c8565b8114620002f357600080fd5b50565b6000815190506200030781620002dc565b92915050565b600080600060608486031215620003295762000328620002a3565b5b60006200033986828701620002f6565b93505060206200034c86828701620002f6565b92505060406200035f86828701620002f6565b9150509250925092565b60006200037682620002a8565b9050919050565b620003888162000369565b81146200039457600080fd5b50565b600081519050620003a8816200037d565b92915050565b600060208284031215620003c757620003c6620002a3565b5b6000620003d78482850162000397565b91505092915050565b620003eb81620002c8565b82525050565b6000602082019050620004086000830184620003e0565b92915050565b60008115159050919050565b62000425816200040e565b81146200043157600080fd5b50565b60008151905062000445816200041a565b92915050565b60008060408385031215620004655762000464620002a3565b5b60006200047585828601620002f6565b9250506020620004888582860162000434565b9150509250929050565b60805160a05160c05160e051611cc3620004e8600039600081816107dd0152610adc015260008181610d6d0152610e410152600081816101de0152610550015260008181610c630152610c8a0152611cc36000f3fe60806040526004361061007f5760003560e01c806394e05b2c1161004e57806394e05b2c1461011f57806394f611341461015d578063a035b1fe14610186578063e70abe92146101b157610086565b806328f150eb1461008b5780633ccfd60b146100b6578063408a03d8146100cd57806391b7f5ed146100f657610086565b3661008657005b600080fd5b34801561009757600080fd5b506100a06101dc565b6040516100ad91906111c6565b60405180910390f35b3480156100c257600080fd5b506100cb610200565b005b3480156100d957600080fd5b506100f460048036038101906100ef919061121c565b6102d9565b005b34801561010257600080fd5b5061011d6004803603810190610118919061127f565b6103ad565b005b34801561012b57600080fd5b506101466004803603810190610141919061127f565b610447565b604051610154929190611357565b60405180910390f35b34801561016957600080fd5b50610184600480360381019061017f919061127f565b61054e565b005b34801561019257600080fd5b5061019b610c5b565b6040516101a89190611396565b60405180910390f35b3480156101bd57600080fd5b506101c6610c61565b6040516101d39190611410565b60405180910390f35b7f000000000000000000000000000000000000000000000000000000000000000081565b600160009054906101000a900473ffffffffffffffffffffffffffffffffffffffff1673ffffffffffffffffffffffffffffffffffffffff163373ffffffffffffffffffffffffffffffffffffffff1614610290576040517f08c379a000000000000000000000000000000000000000000000000000000000815260040161028790611488565b60405180910390fd5b3373ffffffffffffffffffffffffffffffffffffffff166108fc479081150290604051600060405180830381858888f193505050501580156102d6573d6000803e3d6000fd5b50565b600160009054906101000a900473ffffffffffffffffffffffffffffffffffffffff1673ffffffffffffffffffffffffffffffffffffffff163373ffffffffffffffffffffffffffffffffffffffff1614610369576040517f08c379a000000000000000000000000000000000000000000000000000000000815260040161036090611488565b60405180910390fd5b80600360006101000a81548173ffffffffffffffffffffffffffffffffffffffff021916908373ffffffffffffffffffffffffffffffffffffffff16021790555050565b600160009054906101000a900473ffffffffffffffffffffffffffffffffffffffff1673ffffffffffffffffffffffffffffffffffffffff163373ffffffffffffffffffffffffffffffffffffffff161461043d576040517f08c379a000000000000000000000000000000000000000000000000000000000815260040161043490611488565b60405180910390fd5b8060008190555050565b60006060600054600260009054906101000a900473ffffffffffffffffffffffffffffffffffffffff1673ffffffffffffffffffffffffffffffffffffffff1663d09ef241856040518263ffffffff1660e01b81526004016104a99190611396565b60e060405180830381865afa1580156104c6573d6000803e3d6000fd5b505050506040513d601f19601f820116820180604052508101906104ea9190611668565b60200151149150826040516024016105029190611396565b6040516020818303038152906040526394f6113460e01b6020820180517bffffffffffffffffffffffffffffffffffffffffffffffffffffffff83818316178352505050509050915091565b7f000000000000000000000000000000000000000000000000000000000000000073ffffffffffffffffffffffffffffffffffffffff163373ffffffffffffffffffffffffffffffffffffffff16146105dc576040517f08c379a00000000000000000000000000000000000000000000000000000000081526004016105d3906116e1565b60405180910390fd5b6000600360009054906101000a900473ffffffffffffffffffffffffffffffffffffffff1673ffffffffffffffffffffffffffffffffffffffff1663f3fef3a3600260009054906101000a900473ffffffffffffffffffffffffffffffffffffffff1673ffffffffffffffffffffffffffffffffffffffff1663d09ef241856040518263ffffffff1660e01b81526004016106779190611396565b60e060405180830381865afa158015610694573d6000803e3d6000fd5b505050506040513d601f19601f820116820180604052508101906106b89190611668565b60600151846040518363ffffffff1660e01b81526004016106da929190611701565b6020604051808303816000875af11580156106f9573d6000803e3d6000fd5b505050506040513d601f19601f8201168201806040525081019061071d919061172a565b9050600260009054906101000a900473ffffffffffffffffffffffffffffffffffffffff1673ffffffffffffffffffffffffffffffffffffffff1663d09ef24160006040518263ffffffff1660e01b815260040161077b9190611792565b60e060405180830381865afa158015610798573d6000803e3d6000fd5b505050506040513d601f19601f820116820180604052508101906107bc9190611668565b6060015173ffffffffffffffffffffffffffffffffffffffff1663095ea7b37f0000000000000000000000000000000000000000000000000000000000000000836040518363ffffffff1660e01b815260040161081a929190611701565b6020604051808303816000875af1158015610839573d6000803e3d6000fd5b505050506040513d601f19601f8201168201806040525081019061085d91906117ad565b506000604051806101000160405280600260009054906101000a900473ffffffffffffffffffffffffffffffffffffffff1673ffffffffffffffffffffffffffffffffffffffff1663d09ef241866040518263ffffffff1660e01b81526004016108c79190611396565b60e060405180830381865afa1580156108e4573d6000803e3d6000fd5b505050506040513d601f19601f820116820180604052508101906109089190611668565b6060015173ffffffffffffffffffffffffffffffffffffffff168152602001600260009054906101000a900473ffffffffffffffffffffffffffffffffffffffff1673ffffffffffffffffffffffffffffffffffffffff1663d09ef241866040518263ffffffff1660e01b81526004016109829190611396565b60e060405180830381865afa15801561099f573d6000803e3d6000fd5b505050506040513d601f19601f820116820180604052508101906109c39190611668565b6080015173ffffffffffffffffffffffffffffffffffffffff168152602001610bb862ffffff168152602001600260009054906101000a900473ffffffffffffffffffffffffffffffffffffffff1673ffffffffffffffffffffffffffffffffffffffff1663d09ef241866040518263ffffffff1660e01b8152600401610a4a9190611396565b60e060405180830381865afa158015610a67573d6000803e3d6000fd5b505050506040513d601f19601f82011682018060405250810190610a8b9190611668565b6000015173ffffffffffffffffffffffffffffffffffffffff16815260200142815260200183815260200160008152602001600073ffffffffffffffffffffffffffffffffffffffff1681525090507f000000000000000000000000000000000000000000000000000000000000000073ffffffffffffffffffffffffffffffffffffffff1663414bf389826040518263ffffffff1660e01b8152600401610b3391906118c7565b6020604051808303816000875af1158015610b52573d6000803e3d6000fd5b505050506040513d601f19601f82011682018060405250810190610b76919061172a565b50600260009054906101000a900473ffffffffffffffffffffffffffffffffffffffff1673ffffffffffffffffffffffffffffffffffffffff16632993c690846040518263ffffffff1660e01b8152600401610bd29190611396565b600060405180830381600087803b158015610bec57600080fd5b505af1158015610c00573d6000803e3d6000fd5b505050507f9e86ce0485ddb047dd0f8fde14218156b79c2832f3c1ae9d2a05aa746cb6e3be83604051610c33919061192f565b60405180910390a1600080610c46610c85565b91509150610c548282610d22565b5050505050565b60005481565b7f000000000000000000000000000000000000000000000000000000000000000081565b6000807f000000000000000000000000000000000000000000000000000000000000000073ffffffffffffffffffffffffffffffffffffffff1663b810c6366040518163ffffffff1660e01b81526004016040805180830381865afa158015610cf2573d6000803e3d6000fd5b505050506040513d601f19601f82011682018060405250810190610d16919061195d565b80925081935050509091565b73eeeeeeeeeeeeeeeeeeeeeeeeeeeeeeeeeeeeeeee73ffffffffffffffffffffffffffffffffffffffff168173ffffffffffffffffffffffffffffffffffffffff1603610e3b5760007f000000000000000000000000000000000000000000000000000000000000000073ffffffffffffffffffffffffffffffffffffffff1683604051610daf906119ce565b60006040518083038185875af1925050503d8060008114610dec576040519150601f19603f3d011682016040523d82523d6000602084013e610df1565b606091505b5050905080610e35576040517f08c379a0000000000000000000000000000000000000000000000000000000008152600401610e2c90611a2f565b60405180910390fd5b50610e67565b610e66817f000000000000000000000000000000000000000000000000000000000000000084610e6b565b5b5050565b610eec8363a9059cbb60e01b8484604051602401610e8a929190611701565b604051602081830303815290604052907bffffffffffffffffffffffffffffffffffffffffffffffffffffffff19166020820180517bffffffffffffffffffffffffffffffffffffffffffffffffffffffff8381831617835250505050610ef1565b505050565b6000610f53826040518060400160405280602081526020017f5361666545524332303a206c6f772d6c6576656c2063616c6c206661696c65648152508573ffffffffffffffffffffffffffffffffffffffff16610fb89092919063ffffffff16565b9050600081511115610fb35780806020019051810190610f7391906117ad565b610fb2576040517f08c379a0000000000000000000000000000000000000000000000000000000008152600401610fa990611ac1565b60405180910390fd5b5b505050565b6060610fc78484600085610fd0565b90509392505050565b606082471015611015576040517f08c379a000000000000000000000000000000000000000000000000000000000815260040161100c90611b53565b60405180910390fd5b6000808673ffffffffffffffffffffffffffffffffffffffff16858760405161103e9190611ba4565b60006040518083038185875af1925050503d806000811461107b576040519150601f19603f3d011682016040523d82523d6000602084013e611080565b606091505b50915091506110918783838761109d565b92505050949350505050565b606083156110ff5760008351036110f7576110b785611112565b6110f6576040517f08c379a00000000000000000000000000000000000000000000000000000000081526004016110ed90611c07565b60405180910390fd5b5b82905061110a565b6111098383611135565b5b949350505050565b6000808273ffffffffffffffffffffffffffffffffffffffff163b119050919050565b6000825111156111485781518083602001fd5b806040517f08c379a000000000000000000000000000000000000000000000000000000000815260040161117c9190611c6b565b60405180910390fd5b600073ffffffffffffffffffffffffffffffffffffffff82169050919050565b60006111b082611185565b9050919050565b6111c0816111a5565b82525050565b60006020820190506111db60008301846111b7565b92915050565b6000604051905090565b600080fd5b6111f9816111a5565b811461120457600080fd5b50565b600081359050611216816111f0565b92915050565b600060208284031215611232576112316111eb565b5b600061124084828501611207565b91505092915050565b6000819050919050565b61125c81611249565b811461126757600080fd5b50565b60008135905061127981611253565b92915050565b600060208284031215611295576112946111eb565b5b60006112a38482850161126a565b91505092915050565b60008115159050919050565b6112c1816112ac565b82525050565b600081519050919050565b600082825260208201905092915050565b60005b838110156113015780820151818401526020810190506112e6565b60008484015250505050565b6000601f19601f8301169050919050565b6000611329826112c7565b61133381856112d2565b93506113438185602086016112e3565b61134c8161130d565b840191505092915050565b600060408201905061136c60008301856112b8565b818103602083015261137e818461131e565b90509392505050565b61139081611249565b82525050565b60006020820190506113ab6000830184611387565b92915050565b6000819050919050565b60006113d66113d16113cc84611185565b6113b1565b611185565b9050919050565b60006113e8826113bb565b9050919050565b60006113fa826113dd565b9050919050565b61140a816113ef565b82525050565b60006020820190506114256000830184611401565b92915050565b600082825260208201905092915050565b7f4e6f7420616c6c6f77656420616464726573732e000000000000000000000000600082015250565b600061147260148361142b565b915061147d8261143c565b602082019050919050565b600060208201905081810360008301526114a181611465565b9050919050565b600080fd5b7f4e487b7100000000000000000000000000000000000000000000000000000000600052604160045260246000fd5b6114e58261130d565b810181811067ffffffffffffffff82111715611504576115036114ad565b5b80604052505050565b60006115176111e1565b905061152382826114dc565b919050565b600081519050611537816111f0565b92915050565b60008151905061154c81611253565b92915050565b6000819050919050565b61156581611552565b811461157057600080fd5b50565b6000815190506115828161155c565b92915050565b611591816112ac565b811461159c57600080fd5b50565b6000815190506115ae81611588565b92915050565b600060e082840312156115ca576115c96114a8565b5b6115d460e061150d565b905060006115e484828501611528565b60008301525060206115f88482850161153d565b602083015250604061160c8482850161153d565b604083015250606061162084828501611528565b606083015250608061163484828501611528565b60808301525060a061164884828501611573565b60a08301525060c061165c8482850161159f565b60c08301525092915050565b600060e0828403121561167e5761167d6111eb565b5b600061168c848285016115b4565b91505092915050565b7f4f6e6c7920646564696361746564206d73672e73656e64657200000000000000600082015250565b60006116cb60198361142b565b91506116d682611695565b602082019050919050565b600060208201905081810360008301526116fa816116be565b9050919050565b600060408201905061171660008301856111b7565b6117236020830184611387565b9392505050565b6000602082840312156117405761173f6111eb565b5b600061174e8482850161153d565b91505092915050565b6000819050919050565b600061177c61177761177284611757565b6113b1565b611249565b9050919050565b61178c81611761565b82525050565b60006020820190506117a76000830184611783565b92915050565b6000602082840312156117c3576117c26111eb565b5b60006117d18482850161159f565b91505092915050565b6117e3816111a5565b82525050565b600062ffffff82169050919050565b611801816117e9565b82525050565b61181081611249565b82525050565b61181f81611185565b82525050565b6101008201600082015161183c60008501826117da565b50602082015161184f60208501826117da565b50604082015161186260408501826117f8565b50606082015161187560608501826117da565b5060808201516118886080850182611807565b5060a082015161189b60a0850182611807565b5060c08201516118ae60c0850182611807565b5060e08201516118c160e0850182611816565b50505050565b6000610100820190506118dd6000830184611825565b92915050565b7f6f726465725f6578656375746564000000000000000000000000000000000000600082015250565b6000611919600e8361142b565b9150611924826118e3565b602082019050919050565b600060408201905081810360008301526119488161190c565b90506119576020830184611387565b92915050565b60008060408385031215611974576119736111eb565b5b60006119828582860161153d565b925050602061199385828601611528565b9150509250929050565b600081905092915050565b50565b60006119b860008361199d565b91506119c3826119a8565b600082019050919050565b60006119d9826119ab565b9150819050919050565b7f5f7472616e736665723a20455448207472616e73666572206661696c65640000600082015250565b6000611a19601e8361142b565b9150611a24826119e3565b602082019050919050565b60006020820190508181036000830152611a4881611a0c565b9050919050565b7f5361666545524332303a204552433230206f7065726174696f6e20646964206e60008201527f6f74207375636365656400000000000000000000000000000000000000000000602082015250565b6000611aab602a8361142b565b9150611ab682611a4f565b604082019050919050565b60006020820190508181036000830152611ada81611a9e565b9050919050565b7f416464726573733a20696e73756666696369656e742062616c616e636520666f60008201527f722063616c6c0000000000000000000000000000000000000000000000000000602082015250565b6000611b3d60268361142b565b9150611b4882611ae1565b604082019050919050565b60006020820190508181036000830152611b6c81611b30565b9050919050565b6000611b7e826112c7565b611b88818561199d565b9350611b988185602086016112e3565b80840191505092915050565b6000611bb08284611b73565b915081905092915050565b7f416464726573733a2063616c6c20746f206e6f6e2d636f6e7472616374000000600082015250565b6000611bf1601d8361142b565b9150611bfc82611bbb565b602082019050919050565b60006020820190508181036000830152611c2081611be4565b9050919050565b600081519050919050565b6000611c3d82611c27565b611c47818561142b565b9350611c578185602086016112e3565b611c608161130d565b840191505092915050565b60006020820190508181036000830152611c858184611c32565b90509291505056fea264697066735822122020cf2b2d3e58a9cadd4ba44a0294a5ab97c4a8f8054689fb80ca47bee45f649164736f6c63430008130033",
  "immutableReferences": {
    "1317": [
      {
        "length": 32,
        "start": 2013
      },
      {
        "length": 32,
        "start": 2780
      }
    ],
    "1554": [
      {
        "length": 32,
        "start": 3171
      },
      {
        "length": 32,
        "start": 3210
      }
    ],
    "1556": [
      {
        "length": 32,
        "start": 478
      },
      {
        "length": 32,
        "start": 1360
      }
    ],
    "1558": [
      {
        "length": 32,
        "start": 3437
      },
      {
        "length": 32,
        "start": 3649
      }
    ]
  },
  "source": "// SPDX-License-Identifier: UNLICENSED\npragma solidity ^0.8.19;\n\nimport \"./gelato/OpsReady.sol\";\nimport \"./OrderBook.sol\";\nimport './LendingVault.sol';\nimport \"./uniswap/ISwapRouter.sol\";\n\ncontract OrderExecutor is OpsReady {\n\n    uint public price; // temporary, testing purposes only\n    address private deployer;\n\n    OrderBook private orderBook;\n    ISwapRouter private immutable swapRouter;\n    LendingVault private lendingVault;\n\n    event OrderDone(string, uint256);\n\n    modifier onlyDeployer {\n        require(msg.sender == deployer, \"Not allowed address.\");\n        _; // Continue the execution of the function called\n    }\n\n    constructor(address _ops, address _taskCreator, address _swapRouter) OpsReady(_ops, _taskCreator) {\n        price = 100; // arbitrary price for testing\n        deployer = msg.sender;\n        orderBook = OrderBook(_taskCreator);\n        swapRouter = ISwapRouter(_swapRouter);\n    }\n\n    function setPrice(uint _price) public onlyDeployer {\n        price = _price;\n    }\n\n    receive() external payable {}\n\n    function setLendingVault(address _lendingVault) public onlyDeployer {\n        lendingVault = LendingVault(_lendingVault);\n    }\n\n    function executeOrder(uint orderNonce) external onlyDedicatedMsgSender {\n        // execute order with orderNonce here\n        uint256 amountWithdrawed = lendingVault.withdraw(orderBook.getOrder(orderNonce).tokenIn, orderNonce);\n\n        // Approving the appropriate amount that uniswap is gonna take on order to make the swap\n        IERC20(orderBook.getOrder(0).tokenIn).approve(address(swapRouter), amountWithdrawed);\n        // Naively set amountOutMinimum to 0. In production, use an oracle or other data source to choose a safer value for amountOutMinimum.\n        // We also set the sqrtPriceLimitx96 to be 0 to ensure we swap our exact input amount.\n        ISwapRouter.ExactInputSingleParams memory params =\n            ISwapRouter.ExactInputSingleParams({\n                tokenIn: orderBook.getOrder(orderNonce).tokenIn,\n                tokenOut: orderBook.getOrder(orderNonce).tokenOut,\n                fee: 3000, // For this example, we will set the pool fee to 0.3%.\n                recipient: orderBook.getOrder(orderNonce).user,\n                deadline: block.timestamp,\n                amountIn: amountWithdrawed,\n                amountOutMinimum: 0, // NOT IN PRODUCTION\n                sqrtPriceLimitX96: 0 // NOT IN PRODUCTION\n            });\n\n        // The call to `exactInputSingle` executes the swap.\n        swapRouter.exactInputSingle(params);\n\n        orderBook.setExecuted(orderNonce);\n        emit OrderDone(\"order_executed\", orderNonce);\n        // \n        (uint256 fee, address feeToken) = _getFeeDetails();\n        // on a les fees jusqu' l\n        _transfer(fee, feeToken);\n    }\n\n    function checker(uint orderNonce) external view returns (bool canExec, bytes memory execPayload) {\n        canExec = orderBook.getOrder(orderNonce).price == price; // The condition that needs to be true for the task to be executed, you can filter the condition with the orderId\n        execPayload = abi.encodeCall(OrderExecutor.executeOrder, orderNonce); // The function that you want to call on the contract\n    }\n\n    // Only used for testing\n    function withdraw() public onlyDeployer {\n        payable(msg.sender).transfer(address(this).balance);\n    }\n\n}\n",
  "sourcePath": "/Users/blabla/Documents/gelato_test/contracts/OrderExecutor.sol",
  "compiler": {
    "name": "solc",
    "version": "0.8.19+commit.7dd6d404.Emscripten.clang"
  },
  "schemaVersion": "3.4.11",
  "updatedAt": "2023-03-05T10:27:23.211Z",
  "networkType": "ethereum",
  "devdoc": {
    "kind": "dev",
    "methods": {},
    "version": 1
  },
  "userdoc": {
    "kind": "user",
    "methods": {},
    "version": 1
  }
}