{
  "contractName": "UsingTellor",
  "abi": [
    {
      "inputs": [
        {
          "internalType": "address payable",
          "name": "_tellor",
          "type": "address"
        }
      ],
      "stateMutability": "nonpayable",
      "type": "constructor"
    },
    {
      "inputs": [],
      "name": "idMappingContract",
      "outputs": [
        {
          "internalType": "contract IMappingContract",
          "name": "",
          "type": "address"
        }
      ],
      "stateMutability": "view",
      "type": "function"
    },
    {
      "inputs": [],
      "name": "tellor",
      "outputs": [
        {
          "internalType": "contract ITellor",
          "name": "",
          "type": "address"
        }
      ],
      "stateMutability": "view",
      "type": "function"
    },
    {
      "inputs": [
        {
          "internalType": "bytes32",
          "name": "_queryId",
          "type": "bytes32"
        },
        {
          "internalType": "uint256",
          "name": "_timestamp",
          "type": "uint256"
        }
      ],
      "name": "getDataAfter",
      "outputs": [
        {
          "internalType": "bytes",
          "name": "_value",
          "type": "bytes"
        },
        {
          "internalType": "uint256",
          "name": "_timestampRetrieved",
          "type": "uint256"
        }
      ],
      "stateMutability": "view",
      "type": "function"
    },
    {
      "inputs": [
        {
          "internalType": "bytes32",
          "name": "_queryId",
          "type": "bytes32"
        },
        {
          "internalType": "uint256",
          "name": "_timestamp",
          "type": "uint256"
        }
      ],
      "name": "getDataBefore",
      "outputs": [
        {
          "internalType": "bytes",
          "name": "_value",
          "type": "bytes"
        },
        {
          "internalType": "uint256",
          "name": "_timestampRetrieved",
          "type": "uint256"
        }
      ],
      "stateMutability": "view",
      "type": "function"
    },
    {
      "inputs": [
        {
          "internalType": "bytes32",
          "name": "_queryId",
          "type": "bytes32"
        },
        {
          "internalType": "uint256",
          "name": "_timestamp",
          "type": "uint256"
        }
      ],
      "name": "getIndexForDataAfter",
      "outputs": [
        {
          "internalType": "bool",
          "name": "_found",
          "type": "bool"
        },
        {
          "internalType": "uint256",
          "name": "_index",
          "type": "uint256"
        }
      ],
      "stateMutability": "view",
      "type": "function"
    },
    {
      "inputs": [
        {
          "internalType": "bytes32",
          "name": "_queryId",
          "type": "bytes32"
        },
        {
          "internalType": "uint256",
          "name": "_timestamp",
          "type": "uint256"
        }
      ],
      "name": "getIndexForDataBefore",
      "outputs": [
        {
          "internalType": "bool",
          "name": "_found",
          "type": "bool"
        },
        {
          "internalType": "uint256",
          "name": "_index",
          "type": "uint256"
        }
      ],
      "stateMutability": "view",
      "type": "function"
    },
    {
      "inputs": [
        {
          "internalType": "bytes32",
          "name": "_queryId",
          "type": "bytes32"
        },
        {
          "internalType": "uint256",
          "name": "_timestamp",
          "type": "uint256"
        },
        {
          "internalType": "uint256",
          "name": "_maxAge",
          "type": "uint256"
        },
        {
          "internalType": "uint256",
          "name": "_maxCount",
          "type": "uint256"
        }
      ],
      "name": "getMultipleValuesBefore",
      "outputs": [
        {
          "internalType": "bytes[]",
          "name": "_values",
          "type": "bytes[]"
        },
        {
          "internalType": "uint256[]",
          "name": "_timestamps",
          "type": "uint256[]"
        }
      ],
      "stateMutability": "view",
      "type": "function"
    },
    {
      "inputs": [
        {
          "internalType": "bytes32",
          "name": "_queryId",
          "type": "bytes32"
        }
      ],
      "name": "getNewValueCountbyQueryId",
      "outputs": [
        {
          "internalType": "uint256",
          "name": "",
          "type": "uint256"
        }
      ],
      "stateMutability": "view",
      "type": "function"
    },
    {
      "inputs": [
        {
          "internalType": "bytes32",
          "name": "_queryId",
          "type": "bytes32"
        },
        {
          "internalType": "uint256",
          "name": "_timestamp",
          "type": "uint256"
        }
      ],
      "name": "getReporterByTimestamp",
      "outputs": [
        {
          "internalType": "address",
          "name": "",
          "type": "address"
        }
      ],
      "stateMutability": "view",
      "type": "function"
    },
    {
      "inputs": [
        {
          "internalType": "bytes32",
          "name": "_queryId",
          "type": "bytes32"
        },
        {
          "internalType": "uint256",
          "name": "_index",
          "type": "uint256"
        }
      ],
      "name": "getTimestampbyQueryIdandIndex",
      "outputs": [
        {
          "internalType": "uint256",
          "name": "",
          "type": "uint256"
        }
      ],
      "stateMutability": "view",
      "type": "function"
    },
    {
      "inputs": [
        {
          "internalType": "bytes32",
          "name": "_queryId",
          "type": "bytes32"
        },
        {
          "internalType": "uint256",
          "name": "_timestamp",
          "type": "uint256"
        }
      ],
      "name": "isInDispute",
      "outputs": [
        {
          "internalType": "bool",
          "name": "",
          "type": "bool"
        }
      ],
      "stateMutability": "view",
      "type": "function"
    },
    {
      "inputs": [
        {
          "internalType": "bytes32",
          "name": "_queryId",
          "type": "bytes32"
        },
        {
          "internalType": "uint256",
          "name": "_timestamp",
          "type": "uint256"
        }
      ],
      "name": "retrieveData",
      "outputs": [
        {
          "internalType": "bytes",
          "name": "",
          "type": "bytes"
        }
      ],
      "stateMutability": "view",
      "type": "function"
    },
    {
      "inputs": [
        {
          "internalType": "address",
          "name": "_addy",
          "type": "address"
        }
      ],
      "name": "setIdMappingContract",
      "outputs": [],
      "stateMutability": "nonpayable",
      "type": "function"
    },
    {
      "inputs": [
        {
          "internalType": "bytes32",
          "name": "_id",
          "type": "bytes32"
        }
      ],
      "name": "valueFor",
      "outputs": [
        {
          "internalType": "int256",
          "name": "_value",
          "type": "int256"
        },
        {
          "internalType": "uint256",
          "name": "_timestamp",
          "type": "uint256"
        },
        {
          "internalType": "uint256",
          "name": "_statusCode",
          "type": "uint256"
        }
      ],
      "stateMutability": "view",
      "type": "function"
    }
  ],
  "bytecode": "0x60806040523480156200001157600080fd5b5060405162001dae38038062001dae8339818101604052810190620000379190620000e8565b806000806101000a81548173ffffffffffffffffffffffffffffffffffffffff021916908373ffffffffffffffffffffffffffffffffffffffff160217905550506200011a565b600080fd5b600073ffffffffffffffffffffffffffffffffffffffff82169050919050565b6000620000b08262000083565b9050919050565b620000c281620000a3565b8114620000ce57600080fd5b50565b600081519050620000e281620000b7565b92915050565b6000602082840312156200010157620001006200007e565b5b60006200011184828501620000d1565b91505092915050565b611c84806200012a6000396000f3fe608060405234801561001057600080fd5b50600436106100ea5760003560e01c8063a792765f1161008c578063e07c548611610066578063e07c54861461029a578063f66f49c3146102ca578063f78eea83146102fb578063fcd4a5461461032d576100ea565b8063a792765f14610209578063c5958af91461023a578063ce5e11bf1461026a576100ea565b80632af8aae0116100c85780632af8aae01461015a57806344e87f911461017857806364ee3c6d146101a857806377b03e0d146101d9576100ea565b8063193b505b146100ef5780631959ad5b1461010b5780632944908514610129575b600080fd5b610109600480360381019061010491906110dc565b61035e565b005b6101136103fd565b6040516101209190611168565b60405180910390f35b610143600480360381019061013e91906111ef565b610421565b604051610151929190611259565b60405180910390f35b6101626104ca565b60405161016f91906112a3565b60405180910390f35b610192600480360381019061018d91906111ef565b6104f0565b60405161019f91906112be565b60405180910390f35b6101c260048036038101906101bd91906111ef565b610597565b6040516101d0929190611369565b60405180910390f35b6101f360048036038101906101ee9190611399565b6105f1565b60405161020091906113c6565b60405180910390f35b610223600480360381019061021e91906111ef565b610695565b604051610231929190611369565b60405180910390f35b610254600480360381019061024f91906111ef565b61074d565b60405161026191906113e1565b60405180910390f35b610284600480360381019061027f91906111ef565b6107f8565b60405161029191906113c6565b60405180910390f35b6102b460048036038101906102af91906111ef565b61089f565b6040516102c19190611412565b60405180910390f35b6102e460048036038101906102df91906111ef565b610946565b6040516102f2929190611259565b60405180910390f35b61031560048036038101906103109190611399565b610b2a565b60405161032493929190611446565b60405180910390f35b6103476004803603810190610342919061147d565b610c2e565b6040516103559291906116ae565b60405180910390f35b600073ffffffffffffffffffffffffffffffffffffffff16600160009054906101000a900473ffffffffffffffffffffffffffffffffffffffff1673ffffffffffffffffffffffffffffffffffffffff16146103b957600080fd5b80600160006101000a81548173ffffffffffffffffffffffffffffffffffffffff021916908373ffffffffffffffffffffffffffffffffffffffff16021790555050565b60008054906101000a900473ffffffffffffffffffffffffffffffffffffffff1681565b60008060008054906101000a900473ffffffffffffffffffffffffffffffffffffffff1673ffffffffffffffffffffffffffffffffffffffff16632944908585856040518363ffffffff1660e01b815260040161047f9291906116f4565b6040805180830381865afa15801561049b573d6000803e3d6000fd5b505050506040513d601f19601f820116820180604052508101906104bf919061175e565b915091509250929050565b600160009054906101000a900473ffffffffffffffffffffffffffffffffffffffff1681565b60008060009054906101000a900473ffffffffffffffffffffffffffffffffffffffff1673ffffffffffffffffffffffffffffffffffffffff166344e87f9184846040518363ffffffff1660e01b815260040161054e9291906116f4565b602060405180830381865afa15801561056b573d6000803e3d6000fd5b505050506040513d601f19601f8201168201806040525081019061058f919061179e565b905092915050565b606060008060006105a88686610946565b91509150816105cf57600060405180602001604052806000815250909350935050506105ea565b6105d986826107f8565b92506105e5868461074d565b935050505b9250929050565b60008060009054906101000a900473ffffffffffffffffffffffffffffffffffffffff1673ffffffffffffffffffffffffffffffffffffffff166377b03e0d836040518263ffffffff1660e01b815260040161064d91906117cb565b602060405180830381865afa15801561066a573d6000803e3d6000fd5b505050506040513d601f19601f8201168201806040525081019061068e91906117e6565b9050919050565b606060008060009054906101000a900473ffffffffffffffffffffffffffffffffffffffff1673ffffffffffffffffffffffffffffffffffffffff1663a792765f85856040518363ffffffff1660e01b81526004016106f59291906116f4565b600060405180830381865afa158015610712573d6000803e3d6000fd5b505050506040513d6000823e3d601f19601f8201168201806040525081019061073b9190611939565b90915080925081935050509250929050565b606060008054906101000a900473ffffffffffffffffffffffffffffffffffffffff1673ffffffffffffffffffffffffffffffffffffffff1663c5958af984846040518363ffffffff1660e01b81526004016107aa9291906116f4565b600060405180830381865afa1580156107c7573d6000803e3d6000fd5b505050506040513d6000823e3d601f19601f820116820180604052508101906107f091906119a8565b905092915050565b60008060009054906101000a900473ffffffffffffffffffffffffffffffffffffffff1673ffffffffffffffffffffffffffffffffffffffff1663ce5e11bf84846040518363ffffffff1660e01b81526004016108569291906116f4565b602060405180830381865afa158015610873573d6000803e3d6000fd5b505050506040513d601f19601f8201168201806040525081019061089791906117e6565b905092915050565b60008060009054906101000a900473ffffffffffffffffffffffffffffffffffffffff1673ffffffffffffffffffffffffffffffffffffffff1663e07c548684846040518363ffffffff1660e01b81526004016108fd9291906116f4565b602060405180830381865afa15801561091a573d6000803e3d6000fd5b505050506040513d601f19601f8201168201806040525081019061093e9190611a06565b905092915050565b6000806000610954856105f1565b90506000810361096b576000809250925050610b23565b808061097690611a62565b915050600060019050600080600084905060006109938a836107f8565b90508881116109ae5760008097509750505050505050610b23565b6109b88a846107f8565b9050888111156109c757600094505b5b8415610a8f57600283836109dc9190611a8b565b6109e69190611aee565b93506109f28a856107f8565b905088811115610a3c576000610a148b600187610a0f9190611b1f565b6107f8565b9050898111610a265760009550610a36565b600185610a339190611b1f565b92505b50610a8a565b6000610a548b600187610a4f9190611a8b565b6107f8565b905089811115610a7857600095508480610a6d90611b53565b955050809150610a88565b600185610a859190611a8b565b93505b505b6109c8565b610a998a826104f0565b610aaf5760018497509750505050505050610b23565b5b610aba8a826104f0565b8015610ac557508584105b15610ae9578380610ad590611b53565b945050610ae28a856107f8565b9050610ab0565b8584148015610afe5750610afd8a826104f0565b5b15610b155760008097509750505050505050610b23565b600184975097505050505050505b9250929050565b600080600080600160009054906101000a900473ffffffffffffffffffffffffffffffffffffffff1673ffffffffffffffffffffffffffffffffffffffff166387a475fd866040518263ffffffff1660e01b8152600401610b8b91906117cb565b602060405180830381865afa158015610ba8573d6000803e3d6000fd5b505050506040513d601f19601f82011682018060405250810190610bcc9190611bb0565b90506060610be682600142610be19190611a8b565b610695565b809550819250505060008403610c09576000806101949450945094505050610c27565b6000610c1482611002565b9050809550858560c89550955095505050505b9193909250565b606080600080610c49888789610c449190611b1f565b610946565b9150915081610cf657600067ffffffffffffffff811115610c6d57610c6c61181d565b5b604051908082528060200260200182016040528015610ca057816020015b6060815260200190600190039081610c8b5790505b50600067ffffffffffffffff811115610cbc57610cbb61181d565b5b604051908082528060200260200182016040528015610cea5781602001602082028036833780820191505090505b50935093505050610ff9565b6000610d028989610421565b809250819450505082610db457600067ffffffffffffffff811115610d2a57610d2961181d565b5b604051908082528060200260200182016040528015610d5d57816020015b6060815260200190600190039081610d485790505b50600067ffffffffffffffff811115610d7957610d7861181d565b5b604051908082528060200260200182016040528015610da75781602001602082028036833780820191505090505b5094509450505050610ff9565b60008060008867ffffffffffffffff811115610dd357610dd261181d565b5b604051908082528060200260200182016040528015610e015781602001602082028036833780820191505090505b5090505b8883108015610e2a57508482600186610e1e9190611a8b565b610e289190611b1f565b115b15610e99576000610e468d8487610e419190611b1f565b6107f8565b9050610e528d826104f0565b610e855780828581518110610e6a57610e69611bdd565b5b6020026020010181815250508380610e8190611b53565b9450505b8280610e9090611b53565b93505050610e05565b60008367ffffffffffffffff811115610eb557610eb461181d565b5b604051908082528060200260200182016040528015610ee857816020015b6060815260200190600190039081610ed35790505b50905060008467ffffffffffffffff811115610f0757610f0661181d565b5b604051908082528060200260200182016040528015610f355781602001602082028036833780820191505090505b50905060005b85811015610fe9578381600188610f529190611b1f565b610f5c9190611b1f565b81518110610f6d57610f6c611bdd565b5b6020026020010151828281518110610f8857610f87611bdd565b5b602002602001018181525050610fb88f838381518110610fab57610faa611bdd565b5b602002602001015161074d565b838281518110610fcb57610fca611bdd565b5b60200260200101819052508080610fe190611b53565b915050610f3b565b5081819950995050505050505050505b94509492505050565b600080600090505b82518110156110645782818151811061102657611025611bdd565b5b602001015160f81c60f81b60f81c60ff16610100836110459190611c0c565b61104f9190611a8b565b9150808061105c90611b53565b91505061100a565b50919050565b6000604051905090565b600080fd5b600080fd5b600073ffffffffffffffffffffffffffffffffffffffff82169050919050565b60006110a98261107e565b9050919050565b6110b98161109e565b81146110c457600080fd5b50565b6000813590506110d6816110b0565b92915050565b6000602082840312156110f2576110f1611074565b5b6000611100848285016110c7565b91505092915050565b6000819050919050565b600061112e6111296111248461107e565b611109565b61107e565b9050919050565b600061114082611113565b9050919050565b600061115282611135565b9050919050565b61116281611147565b82525050565b600060208201905061117d6000830184611159565b92915050565b6000819050919050565b61119681611183565b81146111a157600080fd5b50565b6000813590506111b38161118d565b92915050565b6000819050919050565b6111cc816111b9565b81146111d757600080fd5b50565b6000813590506111e9816111c3565b92915050565b6000806040838503121561120657611205611074565b5b6000611214858286016111a4565b9250506020611225858286016111da565b9150509250929050565b60008115159050919050565b6112448161122f565b82525050565b611253816111b9565b82525050565b600060408201905061126e600083018561123b565b61127b602083018461124a565b9392505050565b600061128d82611135565b9050919050565b61129d81611282565b82525050565b60006020820190506112b86000830184611294565b92915050565b60006020820190506112d3600083018461123b565b92915050565b600081519050919050565b600082825260208201905092915050565b60005b838110156113135780820151818401526020810190506112f8565b60008484015250505050565b6000601f19601f8301169050919050565b600061133b826112d9565b61134581856112e4565b93506113558185602086016112f5565b61135e8161131f565b840191505092915050565b600060408201905081810360008301526113838185611330565b9050611392602083018461124a565b9392505050565b6000602082840312156113af576113ae611074565b5b60006113bd848285016111a4565b91505092915050565b60006020820190506113db600083018461124a565b92915050565b600060208201905081810360008301526113fb8184611330565b905092915050565b61140c8161109e565b82525050565b60006020820190506114276000830184611403565b92915050565b6000819050919050565b6114408161142d565b82525050565b600060608201905061145b6000830186611437565b611468602083018561124a565b611475604083018461124a565b949350505050565b6000806000806080858703121561149757611496611074565b5b60006114a5878288016111a4565b94505060206114b6878288016111da565b93505060406114c7878288016111da565b92505060606114d8878288016111da565b91505092959194509250565b600081519050919050565b600082825260208201905092915050565b6000819050602082019050919050565b600082825260208201905092915050565b600061152c826112d9565b6115368185611510565b93506115468185602086016112f5565b61154f8161131f565b840191505092915050565b60006115668383611521565b905092915050565b6000602082019050919050565b6000611586826114e4565b61159081856114ef565b9350836020820285016115a285611500565b8060005b858110156115de57848403895281516115bf858261155a565b94506115ca8361156e565b925060208a019950506001810190506115a6565b50829750879550505050505092915050565b600081519050919050565b600082825260208201905092915050565b6000819050602082019050919050565b611625816111b9565b82525050565b6000611637838361161c565b60208301905092915050565b6000602082019050919050565b600061165b826115f0565b61166581856115fb565b93506116708361160c565b8060005b838110156116a1578151611688888261162b565b975061169383611643565b925050600181019050611674565b5085935050505092915050565b600060408201905081810360008301526116c8818561157b565b905081810360208301526116dc8184611650565b90509392505050565b6116ee81611183565b82525050565b600060408201905061170960008301856116e5565b611716602083018461124a565b9392505050565b6117268161122f565b811461173157600080fd5b50565b6000815190506117438161171d565b92915050565b600081519050611758816111c3565b92915050565b6000806040838503121561177557611774611074565b5b600061178385828601611734565b925050602061179485828601611749565b9150509250929050565b6000602082840312156117b4576117b3611074565b5b60006117c284828501611734565b91505092915050565b60006020820190506117e060008301846116e5565b92915050565b6000602082840312156117fc576117fb611074565b5b600061180a84828501611749565b91505092915050565b600080fd5b600080fd5b7f4e487b7100000000000000000000000000000000000000000000000000000000600052604160045260246000fd5b6118558261131f565b810181811067ffffffffffffffff821117156118745761187361181d565b5b80604052505050565b600061188761106a565b9050611893828261184c565b919050565b600067ffffffffffffffff8211156118b3576118b261181d565b5b6118bc8261131f565b9050602081019050919050565b60006118dc6118d784611898565b61187d565b9050828152602081018484840111156118f8576118f7611818565b5b6119038482856112f5565b509392505050565b600082601f8301126119205761191f611813565b5b81516119308482602086016118c9565b91505092915050565b60008060006060848603121561195257611951611074565b5b600061196086828701611734565b935050602084015167ffffffffffffffff81111561198157611980611079565b5b61198d8682870161190b565b925050604061199e86828701611749565b9150509250925092565b6000602082840312156119be576119bd611074565b5b600082015167ffffffffffffffff8111156119dc576119db611079565b5b6119e88482850161190b565b91505092915050565b600081519050611a00816110b0565b92915050565b600060208284031215611a1c57611a1b611074565b5b6000611a2a848285016119f1565b91505092915050565b7f4e487b7100000000000000000000000000000000000000000000000000000000600052601160045260246000fd5b6000611a6d826111b9565b915060008203611a8057611a7f611a33565b5b600182039050919050565b6000611a96826111b9565b9150611aa1836111b9565b9250828201905080821115611ab957611ab8611a33565b5b92915050565b7f4e487b7100000000000000000000000000000000000000000000000000000000600052601260045260246000fd5b6000611af9826111b9565b9150611b04836111b9565b925082611b1457611b13611abf565b5b828204905092915050565b6000611b2a826111b9565b9150611b35836111b9565b9250828203905081811115611b4d57611b4c611a33565b5b92915050565b6000611b5e826111b9565b91507fffffffffffffffffffffffffffffffffffffffffffffffffffffffffffffffff8203611b9057611b8f611a33565b5b600182019050919050565b600081519050611baa8161118d565b92915050565b600060208284031215611bc657611bc5611074565b5b6000611bd484828501611b9b565b91505092915050565b7f4e487b7100000000000000000000000000000000000000000000000000000000600052603260045260246000fd5b6000611c17826111b9565b9150611c22836111b9565b9250828202611c30816111b9565b91508282048414831517611c4757611c46611a33565b5b509291505056fea26469706673582212204ae67c3ce6f5c634b0f15ac27b39e20db3a03b9f4dabc2b045781906085de00a64736f6c63430008130033",
  "immutableReferences": {},
  "source": "// SPDX-License-Identifier: MIT\npragma solidity >=0.8.0;\n\nimport \"./interface/ITellor.sol\";\nimport \"./interface/IERC2362.sol\";\nimport \"./interface/IMappingContract.sol\";\n\n/**\n @author Tellor Inc\n @title UsingTellor\n @dev This contract helps smart contracts read data from Tellor\n */\ncontract UsingTellor is IERC2362 {\n    ITellor public tellor;\n    IMappingContract public idMappingContract;\n\n    /*Constructor*/\n    /**\n     * @dev the constructor sets the oracle address in storage\n     * @param _tellor is the Tellor Oracle address\n     */\n    constructor(address payable _tellor) {\n        tellor = ITellor(_tellor);\n    }\n\n    /*Getters*/\n    /**\n     * @dev Retrieves the next value for the queryId after the specified timestamp\n     * @param _queryId is the queryId to look up the value for\n     * @param _timestamp after which to search for next value\n     * @return _value the value retrieved\n     * @return _timestampRetrieved the value's timestamp\n     */\n    function getDataAfter(bytes32 _queryId, uint256 _timestamp)\n        public\n        view\n        returns (bytes memory _value, uint256 _timestampRetrieved)\n    {\n        (bool _found, uint256 _index) = getIndexForDataAfter(\n            _queryId,\n            _timestamp\n        );\n        if (!_found) {\n            return (\"\", 0);\n        }\n        _timestampRetrieved = getTimestampbyQueryIdandIndex(_queryId, _index);\n        _value = retrieveData(_queryId, _timestampRetrieved);\n        return (_value, _timestampRetrieved);\n    }\n\n    /**\n     * @dev Retrieves the latest value for the queryId before the specified timestamp\n     * @param _queryId is the queryId to look up the value for\n     * @param _timestamp before which to search for latest value\n     * @return _value the value retrieved\n     * @return _timestampRetrieved the value's timestamp\n     */\n    function getDataBefore(bytes32 _queryId, uint256 _timestamp)\n        public\n        view\n        returns (bytes memory _value, uint256 _timestampRetrieved)\n    {\n        (, _value, _timestampRetrieved) = tellor.getDataBefore(\n            _queryId,\n            _timestamp\n        );\n    }\n\n    /**\n     * @dev Retrieves latest array index of data before the specified timestamp for the queryId\n     * @param _queryId is the queryId to look up the index for\n     * @param _timestamp is the timestamp before which to search for the latest index\n     * @return _found whether the index was found\n     * @return _index the latest index found before the specified timestamp\n     */\n    // slither-disable-next-line calls-loop\n    function getIndexForDataAfter(bytes32 _queryId, uint256 _timestamp)\n        public\n        view\n        returns (bool _found, uint256 _index)\n    {\n        uint256 _count = getNewValueCountbyQueryId(_queryId);\n        if (_count == 0) return (false, 0);\n        _count--;\n        bool _search = true; // perform binary search\n        uint256 _middle = 0;\n        uint256 _start = 0;\n        uint256 _end = _count;\n        uint256 _timestampRetrieved;\n        // checking boundaries to short-circuit the algorithm\n        _timestampRetrieved = getTimestampbyQueryIdandIndex(_queryId, _end);\n        if (_timestampRetrieved <= _timestamp) return (false, 0);\n        _timestampRetrieved = getTimestampbyQueryIdandIndex(_queryId, _start);\n        if (_timestampRetrieved > _timestamp) {\n            // candidate found, check for disputes\n            _search = false;\n        }\n        // since the value is within our boundaries, do a binary search\n        while (_search) {\n            _middle = (_end + _start) / 2;\n            _timestampRetrieved = getTimestampbyQueryIdandIndex(\n                _queryId,\n                _middle\n            );\n            if (_timestampRetrieved > _timestamp) {\n                // get immediate previous value\n                uint256 _prevTime = getTimestampbyQueryIdandIndex(\n                    _queryId,\n                    _middle - 1\n                );\n                if (_prevTime <= _timestamp) {\n                    // candidate found, check for disputes\n                    _search = false;\n                } else {\n                    // look from start to middle -1(prev value)\n                    _end = _middle - 1;\n                }\n            } else {\n                // get immediate next value\n                uint256 _nextTime = getTimestampbyQueryIdandIndex(\n                    _queryId,\n                    _middle + 1\n                );\n                if (_nextTime > _timestamp) {\n                    // candidate found, check for disputes\n                    _search = false;\n                    _middle++;\n                    _timestampRetrieved = _nextTime;\n                } else {\n                    // look from middle + 1(next value) to end\n                    _start = _middle + 1;\n                }\n            }\n        }\n        // candidate found, check for disputed values\n        if (!isInDispute(_queryId, _timestampRetrieved)) {\n            // _timestampRetrieved is correct\n            return (true, _middle);\n        } else {\n            // iterate forward until we find a non-disputed value\n            while (\n                isInDispute(_queryId, _timestampRetrieved) && _middle < _count\n            ) {\n                _middle++;\n                _timestampRetrieved = getTimestampbyQueryIdandIndex(\n                    _queryId,\n                    _middle\n                );\n            }\n            if (\n                _middle == _count && isInDispute(_queryId, _timestampRetrieved)\n            ) {\n                return (false, 0);\n            }\n            // _timestampRetrieved is correct\n            return (true, _middle);\n        }\n    }\n\n    /**\n     * @dev Retrieves latest array index of data before the specified timestamp for the queryId\n     * @param _queryId is the queryId to look up the index for\n     * @param _timestamp is the timestamp before which to search for the latest index\n     * @return _found whether the index was found\n     * @return _index the latest index found before the specified timestamp\n     */\n    // slither-disable-next-line calls-loop\n    function getIndexForDataBefore(bytes32 _queryId, uint256 _timestamp)\n        public\n        view\n        returns (bool _found, uint256 _index)\n    {\n        return tellor.getIndexForDataBefore(_queryId, _timestamp);\n    }\n\n    /**\n     * @dev Retrieves multiple uint256 values before the specified timestamp\n     * @param _queryId the unique id of the data query\n     * @param _timestamp the timestamp before which to search for values\n     * @param _maxAge the maximum number of seconds before the _timestamp to search for values\n     * @param _maxCount the maximum number of values to return\n     * @return _values the values retrieved, ordered from oldest to newest\n     * @return _timestamps the timestamps of the values retrieved\n     */\n    function getMultipleValuesBefore(\n        bytes32 _queryId,\n        uint256 _timestamp,\n        uint256 _maxAge,\n        uint256 _maxCount\n    )\n        public\n        view\n        returns (bytes[] memory _values, uint256[] memory _timestamps)\n    {\n        // get index of first possible value\n        (bool _ifRetrieve, uint256 _startIndex) = getIndexForDataAfter(\n            _queryId,\n            _timestamp - _maxAge\n        );\n        // no value within range\n        if (!_ifRetrieve) {\n            return (new bytes[](0), new uint256[](0));\n        }\n        uint256 _endIndex;\n        // get index of last possible value\n        (_ifRetrieve, _endIndex) = getIndexForDataBefore(_queryId, _timestamp);\n        // no value before _timestamp\n        if (!_ifRetrieve) {\n            return (new bytes[](0), new uint256[](0));\n        }\n        uint256 _valCount = 0;\n        uint256 _index = 0;\n        uint256[] memory _timestampsArrayTemp = new uint256[](_maxCount);\n        // generate array of non-disputed timestamps within range\n        while (_valCount < _maxCount && _endIndex + 1 - _index > _startIndex) {\n            uint256 _timestampRetrieved = getTimestampbyQueryIdandIndex(\n                _queryId,\n                _endIndex - _index\n            );\n            if (!isInDispute(_queryId, _timestampRetrieved)) {\n                _timestampsArrayTemp[_valCount] = _timestampRetrieved;\n                _valCount++;\n            }\n            _index++;\n        }\n\n        bytes[] memory _valuesArray = new bytes[](_valCount);\n        uint256[] memory _timestampsArray = new uint256[](_valCount);\n        // retrieve values and reverse timestamps order\n        for (uint256 _i = 0; _i < _valCount; _i++) {\n            _timestampsArray[_i] = _timestampsArrayTemp[_valCount - 1 - _i];\n            _valuesArray[_i] = retrieveData(_queryId, _timestampsArray[_i]);\n        }\n        return (_valuesArray, _timestampsArray);\n    }\n\n    /**\n     * @dev Counts the number of values that have been submitted for the queryId\n     * @param _queryId the id to look up\n     * @return uint256 count of the number of values received for the queryId\n     */\n    function getNewValueCountbyQueryId(bytes32 _queryId)\n        public\n        view\n        returns (uint256)\n    {\n        return tellor.getNewValueCountbyQueryId(_queryId);\n    }\n\n    /**\n     * @dev Returns the address of the reporter who submitted a value for a data ID at a specific time\n     * @param _queryId is ID of the specific data feed\n     * @param _timestamp is the timestamp to find a corresponding reporter for\n     * @return address of the reporter who reported the value for the data ID at the given timestamp\n     */\n    function getReporterByTimestamp(bytes32 _queryId, uint256 _timestamp)\n        public\n        view\n        returns (address)\n    {\n        return tellor.getReporterByTimestamp(_queryId, _timestamp);\n    }\n\n    /**\n     * @dev Gets the timestamp for the value based on their index\n     * @param _queryId is the id to look up\n     * @param _index is the value index to look up\n     * @return uint256 timestamp\n     */\n    function getTimestampbyQueryIdandIndex(bytes32 _queryId, uint256 _index)\n        public\n        view\n        returns (uint256)\n    {\n        return tellor.getTimestampbyQueryIdandIndex(_queryId, _index);\n    }\n\n    /**\n     * @dev Determines whether a value with a given queryId and timestamp has been disputed\n     * @param _queryId is the value id to look up\n     * @param _timestamp is the timestamp of the value to look up\n     * @return bool true if queryId/timestamp is under dispute\n     */\n    function isInDispute(bytes32 _queryId, uint256 _timestamp)\n        public\n        view\n        returns (bool)\n    {\n        return tellor.isInDispute(_queryId, _timestamp);\n    }\n\n    /**\n     * @dev Retrieve value from oracle based on queryId/timestamp\n     * @param _queryId being requested\n     * @param _timestamp to retrieve data/value from\n     * @return bytes value for query/timestamp submitted\n     */\n    function retrieveData(bytes32 _queryId, uint256 _timestamp)\n        public\n        view\n        returns (bytes memory)\n    {\n        return tellor.retrieveData(_queryId, _timestamp);\n    }\n\n    /**\n     * @dev allows dev to set mapping contract for valueFor (EIP2362)\n     * @param _addy address of mapping contract\n     */\n    function setIdMappingContract(address _addy) external {\n        require(address(idMappingContract) == address(0));\n        idMappingContract = IMappingContract(_addy);\n    }\n\n    /**\n     * @dev Retrieve most recent int256 value from oracle based on queryId\n     * @param _id being requested\n     * @return _value most recent value submitted\n     * @return _timestamp timestamp of most recent value\n     * @return _statusCode 200 if value found, 404 if not found\n     */\n    function valueFor(bytes32 _id)\n        external\n        view\n        override\n        returns (\n            int256 _value,\n            uint256 _timestamp,\n            uint256 _statusCode\n        )\n    {\n        bytes32 _queryId = idMappingContract.getTellorID(_id);\n        bytes memory _valueBytes;\n        (_valueBytes, _timestamp) = getDataBefore(\n            _queryId,\n            block.timestamp + 1\n        );\n        if (_timestamp == 0) {\n            return (0, 0, 404);\n        }\n        uint256 _valueUint = _sliceUint(_valueBytes);\n        _value = int256(_valueUint);\n        return (_value, _timestamp, 200);\n    }\n\n    // Internal functions\n    /**\n     * @dev Convert bytes to uint256\n     * @param _b bytes value to convert to uint256\n     * @return _number uint256 converted from bytes\n     */\n    function _sliceUint(bytes memory _b)\n        internal\n        pure\n        returns (uint256 _number)\n    {\n        for (uint256 _i = 0; _i < _b.length; _i++) {\n            _number = _number * 256 + uint8(_b[_i]);\n        }\n    }\n}",
  "sourcePath": "/Users/blabla/Documents/gelato_test/contracts/oracles/tellor/UsingTellor.sol",
  "compiler": {
    "name": "solc",
    "version": "0.8.19+commit.7dd6d404.Emscripten.clang"
  },
  "schemaVersion": "3.4.11",
  "updatedAt": "2023-03-05T09:52:00.245Z",
  "devdoc": {
    "author": "Tellor Inc",
    "details": "This contract helps smart contracts read data from Tellor",
    "kind": "dev",
    "methods": {
      "constructor": {
        "details": "the constructor sets the oracle address in storage",
        "params": {
          "_tellor": "is the Tellor Oracle address"
        }
      },
      "getDataAfter(bytes32,uint256)": {
        "details": "Retrieves the next value for the queryId after the specified timestamp",
        "params": {
          "_queryId": "is the queryId to look up the value for",
          "_timestamp": "after which to search for next value"
        },
        "returns": {
          "_timestampRetrieved": "the value's timestamp",
          "_value": "the value retrieved"
        }
      },
      "getDataBefore(bytes32,uint256)": {
        "details": "Retrieves the latest value for the queryId before the specified timestamp",
        "params": {
          "_queryId": "is the queryId to look up the value for",
          "_timestamp": "before which to search for latest value"
        },
        "returns": {
          "_timestampRetrieved": "the value's timestamp",
          "_value": "the value retrieved"
        }
      },
      "getIndexForDataAfter(bytes32,uint256)": {
        "details": "Retrieves latest array index of data before the specified timestamp for the queryId",
        "params": {
          "_queryId": "is the queryId to look up the index for",
          "_timestamp": "is the timestamp before which to search for the latest index"
        },
        "returns": {
          "_found": "whether the index was found",
          "_index": "the latest index found before the specified timestamp"
        }
      },
      "getIndexForDataBefore(bytes32,uint256)": {
        "details": "Retrieves latest array index of data before the specified timestamp for the queryId",
        "params": {
          "_queryId": "is the queryId to look up the index for",
          "_timestamp": "is the timestamp before which to search for the latest index"
        },
        "returns": {
          "_found": "whether the index was found",
          "_index": "the latest index found before the specified timestamp"
        }
      },
      "getMultipleValuesBefore(bytes32,uint256,uint256,uint256)": {
        "details": "Retrieves multiple uint256 values before the specified timestamp",
        "params": {
          "_maxAge": "the maximum number of seconds before the _timestamp to search for values",
          "_maxCount": "the maximum number of values to return",
          "_queryId": "the unique id of the data query",
          "_timestamp": "the timestamp before which to search for values"
        },
        "returns": {
          "_timestamps": "the timestamps of the values retrieved",
          "_values": "the values retrieved, ordered from oldest to newest"
        }
      },
      "getNewValueCountbyQueryId(bytes32)": {
        "details": "Counts the number of values that have been submitted for the queryId",
        "params": {
          "_queryId": "the id to look up"
        },
        "returns": {
          "_0": "uint256 count of the number of values received for the queryId"
        }
      },
      "getReporterByTimestamp(bytes32,uint256)": {
        "details": "Returns the address of the reporter who submitted a value for a data ID at a specific time",
        "params": {
          "_queryId": "is ID of the specific data feed",
          "_timestamp": "is the timestamp to find a corresponding reporter for"
        },
        "returns": {
          "_0": "address of the reporter who reported the value for the data ID at the given timestamp"
        }
      },
      "getTimestampbyQueryIdandIndex(bytes32,uint256)": {
        "details": "Gets the timestamp for the value based on their index",
        "params": {
          "_index": "is the value index to look up",
          "_queryId": "is the id to look up"
        },
        "returns": {
          "_0": "uint256 timestamp"
        }
      },
      "isInDispute(bytes32,uint256)": {
        "details": "Determines whether a value with a given queryId and timestamp has been disputed",
        "params": {
          "_queryId": "is the value id to look up",
          "_timestamp": "is the timestamp of the value to look up"
        },
        "returns": {
          "_0": "bool true if queryId/timestamp is under dispute"
        }
      },
      "retrieveData(bytes32,uint256)": {
        "details": "Retrieve value from oracle based on queryId/timestamp",
        "params": {
          "_queryId": "being requested",
          "_timestamp": "to retrieve data/value from"
        },
        "returns": {
          "_0": "bytes value for query/timestamp submitted"
        }
      },
      "setIdMappingContract(address)": {
        "details": "allows dev to set mapping contract for valueFor (EIP2362)",
        "params": {
          "_addy": "address of mapping contract"
        }
      },
      "valueFor(bytes32)": {
        "details": "Retrieve most recent int256 value from oracle based on queryId",
        "params": {
          "_id": "being requested"
        },
        "returns": {
          "_statusCode": "200 if value found, 404 if not found",
          "_timestamp": "timestamp of most recent value",
          "_value": "most recent value submitted"
        }
      }
    },
    "title": "UsingTellor",
    "version": 1
  },
  "userdoc": {
    "kind": "user",
    "methods": {},
    "version": 1
  }
}